{
  "address": "0x652Ad79cB9996C5e5E3de2f19e63eB5ae8b51ea8",
  "abi": [
    {
      "inputs": [
        {
          "internalType": "address",
          "name": "_secondCallerAddress",
          "type": "address"
        },
        {
          "internalType": "address",
          "name": "_thirdCallerAddress",
          "type": "address"
        },
        {
          "internalType": "address",
          "name": "_fourthCallerAddress",
          "type": "address"
        }
      ],
      "stateMutability": "nonpayable",
      "type": "constructor"
    },
    {
      "inputs": [],
      "name": "NotActive",
      "type": "error"
    },
    {
      "inputs": [],
      "name": "SoulboundToken",
      "type": "error"
    },
    {
      "anonymous": false,
      "inputs": [
        {
          "indexed": true,
          "internalType": "address",
          "name": "owner",
          "type": "address"
        },
        {
          "indexed": true,
          "internalType": "address",
          "name": "approved",
          "type": "address"
        },
        {
          "indexed": true,
          "internalType": "uint256",
          "name": "tokenId",
          "type": "uint256"
        }
      ],
      "name": "Approval",
      "type": "event"
    },
    {
      "anonymous": false,
      "inputs": [
        {
          "indexed": true,
          "internalType": "address",
          "name": "owner",
          "type": "address"
        },
        {
          "indexed": true,
          "internalType": "address",
          "name": "operator",
          "type": "address"
        },
        {
          "indexed": false,
          "internalType": "bool",
          "name": "approved",
          "type": "bool"
        }
      ],
      "name": "ApprovalForAll",
      "type": "event"
    },
    {
      "anonymous": false,
      "inputs": [
        {
          "indexed": true,
          "internalType": "address",
          "name": "previousOwner",
          "type": "address"
        },
        {
          "indexed": true,
          "internalType": "address",
          "name": "newOwner",
          "type": "address"
        }
      ],
      "name": "OwnershipTransferred",
      "type": "event"
    },
    {
      "anonymous": false,
      "inputs": [
        {
          "indexed": false,
          "internalType": "address",
          "name": "submission",
          "type": "address"
        },
        {
          "indexed": false,
          "internalType": "bool",
          "name": "passed",
          "type": "bool"
        },
        {
          "components": [
            {
              "internalType": "string",
              "name": "message",
              "type": "string"
            },
            {
              "components": [
                {
                  "components": [
                    {
                      "internalType": "bool",
                      "name": "passed",
                      "type": "bool"
                    },
                    {
                      "internalType": "string",
                      "name": "assertionError",
                      "type": "string"
                    },
                    {
                      "internalType": "string",
                      "name": "returnedAsString",
                      "type": "string"
                    },
                    {
                      "internalType": "string",
                      "name": "expectedAsString",
                      "type": "string"
                    },
                    {
                      "internalType": "string",
                      "name": "methodName",
                      "type": "string"
                    }
                  ],
                  "internalType": "struct Assert.AssertResult[]",
                  "name": "elements",
                  "type": "tuple[]"
                },
                {
                  "internalType": "uint256",
                  "name": "num",
                  "type": "uint256"
                }
              ],
              "internalType": "struct List.ARList",
              "name": "assertResults",
              "type": "tuple"
            }
          ],
          "indexed": false,
          "internalType": "struct Cafe.TestResult[]",
          "name": "testResults",
          "type": "tuple[]"
        }
      ],
      "name": "TestSuiteResult",
      "type": "event"
    },
    {
      "anonymous": false,
      "inputs": [
        {
          "indexed": true,
          "internalType": "address",
          "name": "from",
          "type": "address"
        },
        {
          "indexed": true,
          "internalType": "address",
          "name": "to",
          "type": "address"
        },
        {
          "indexed": true,
          "internalType": "uint256",
          "name": "tokenId",
          "type": "uint256"
        }
      ],
      "name": "Transfer",
      "type": "event"
    },
    {
      "inputs": [
        {
          "internalType": "address",
          "name": "to",
          "type": "address"
        },
        {
          "internalType": "uint256",
          "name": "tokenId",
          "type": "uint256"
        }
      ],
      "name": "approve",
      "outputs": [],
      "stateMutability": "nonpayable",
      "type": "function"
    },
    {
      "inputs": [
        {
          "internalType": "address",
          "name": "owner",
          "type": "address"
        }
      ],
      "name": "balanceOf",
      "outputs": [
        {
          "internalType": "uint256",
          "name": "",
          "type": "uint256"
        }
      ],
      "stateMutability": "view",
      "type": "function"
    },
    {
      "inputs": [
        {
          "components": [
            {
              "internalType": "string",
              "name": "message",
              "type": "string"
            },
            {
              "components": [
                {
                  "components": [
                    {
                      "internalType": "bool",
                      "name": "passed",
                      "type": "bool"
                    },
                    {
                      "internalType": "string",
                      "name": "assertionError",
                      "type": "string"
                    },
                    {
                      "internalType": "string",
                      "name": "returnedAsString",
                      "type": "string"
                    },
                    {
                      "internalType": "string",
                      "name": "expectedAsString",
                      "type": "string"
                    },
                    {
                      "internalType": "string",
                      "name": "methodName",
                      "type": "string"
                    }
                  ],
                  "internalType": "struct Assert.AssertResult[]",
                  "name": "elements",
                  "type": "tuple[]"
                },
                {
                  "internalType": "uint256",
                  "name": "num",
                  "type": "uint256"
                }
              ],
              "internalType": "struct List.ARList",
              "name": "assertResults",
              "type": "tuple"
            }
          ],
          "internalType": "struct Cafe.TestResult[]",
          "name": "_testResults",
          "type": "tuple[]"
        }
      ],
      "name": "checkIfAllPassed",
      "outputs": [
        {
          "internalType": "bool",
          "name": "",
          "type": "bool"
        }
      ],
      "stateMutability": "pure",
      "type": "function"
    },
    {
      "inputs": [
        {
          "internalType": "bytes",
          "name": "a",
          "type": "bytes"
        },
        {
          "internalType": "bytes",
          "name": "b",
          "type": "bytes"
        }
      ],
      "name": "equal",
      "outputs": [
        {
          "components": [
            {
              "internalType": "bool",
              "name": "passed",
              "type": "bool"
            },
            {
              "internalType": "string",
              "name": "assertionError",
              "type": "string"
            },
            {
              "internalType": "string",
              "name": "returnedAsString",
              "type": "string"
            },
            {
              "internalType": "string",
              "name": "expectedAsString",
              "type": "string"
            },
            {
              "internalType": "string",
              "name": "methodName",
              "type": "string"
            }
          ],
          "internalType": "struct Assert.AssertResult",
          "name": "result",
          "type": "tuple"
        }
      ],
      "stateMutability": "pure",
      "type": "function"
    },
    {
      "inputs": [
        {
          "internalType": "uint256",
          "name": "a",
          "type": "uint256"
        },
        {
          "internalType": "uint256",
          "name": "b",
          "type": "uint256"
        }
      ],
      "name": "equal",
      "outputs": [
        {
          "components": [
            {
              "internalType": "bool",
              "name": "passed",
              "type": "bool"
            },
            {
              "internalType": "string",
              "name": "assertionError",
              "type": "string"
            },
            {
              "internalType": "string",
              "name": "returnedAsString",
              "type": "string"
            },
            {
              "internalType": "string",
              "name": "expectedAsString",
              "type": "string"
            },
            {
              "internalType": "string",
              "name": "methodName",
              "type": "string"
            }
          ],
          "internalType": "struct Assert.AssertResult",
          "name": "result",
          "type": "tuple"
        }
      ],
      "stateMutability": "pure",
      "type": "function"
    },
    {
      "inputs": [
        {
          "internalType": "address",
          "name": "a",
          "type": "address"
        },
        {
          "internalType": "address",
          "name": "b",
          "type": "address"
        }
      ],
      "name": "equal",
      "outputs": [
        {
          "components": [
            {
              "internalType": "bool",
              "name": "passed",
              "type": "bool"
            },
            {
              "internalType": "string",
              "name": "assertionError",
              "type": "string"
            },
            {
              "internalType": "string",
              "name": "returnedAsString",
              "type": "string"
            },
            {
              "internalType": "string",
              "name": "expectedAsString",
              "type": "string"
            },
            {
              "internalType": "string",
              "name": "methodName",
              "type": "string"
            }
          ],
          "internalType": "struct Assert.AssertResult",
          "name": "result",
          "type": "tuple"
        }
      ],
      "stateMutability": "pure",
      "type": "function"
    },
    {
      "inputs": [
        {
          "internalType": "string",
          "name": "a",
          "type": "string"
        },
        {
          "internalType": "string",
          "name": "b",
          "type": "string"
        }
      ],
      "name": "equal",
      "outputs": [
        {
          "components": [
            {
              "internalType": "bool",
              "name": "passed",
              "type": "bool"
            },
            {
              "internalType": "string",
              "name": "assertionError",
              "type": "string"
            },
            {
              "internalType": "string",
              "name": "returnedAsString",
              "type": "string"
            },
            {
              "internalType": "string",
              "name": "expectedAsString",
              "type": "string"
            },
            {
              "internalType": "string",
              "name": "methodName",
              "type": "string"
            }
          ],
          "internalType": "struct Assert.AssertResult",
          "name": "result",
          "type": "tuple"
        }
      ],
      "stateMutability": "pure",
      "type": "function"
    },
    {
      "inputs": [
        {
          "internalType": "string[]",
          "name": "a",
          "type": "string[]"
        },
        {
          "internalType": "string[]",
          "name": "b",
          "type": "string[]"
        }
      ],
      "name": "equal",
      "outputs": [
        {
          "components": [
            {
              "internalType": "bool",
              "name": "passed",
              "type": "bool"
            },
            {
              "internalType": "string",
              "name": "assertionError",
              "type": "string"
            },
            {
              "internalType": "string",
              "name": "returnedAsString",
              "type": "string"
            },
            {
              "internalType": "string",
              "name": "expectedAsString",
              "type": "string"
            },
            {
              "internalType": "string",
              "name": "methodName",
              "type": "string"
            }
          ],
          "internalType": "struct Assert.AssertResult",
          "name": "result",
          "type": "tuple"
        }
      ],
      "stateMutability": "pure",
      "type": "function"
    },
    {
      "inputs": [
        {
          "internalType": "address[]",
          "name": "a",
          "type": "address[]"
        },
        {
          "internalType": "address[]",
          "name": "b",
          "type": "address[]"
        }
      ],
      "name": "equal",
      "outputs": [
        {
          "components": [
            {
              "internalType": "bool",
              "name": "passed",
              "type": "bool"
            },
            {
              "internalType": "string",
              "name": "assertionError",
              "type": "string"
            },
            {
              "internalType": "string",
              "name": "returnedAsString",
              "type": "string"
            },
            {
              "internalType": "string",
              "name": "expectedAsString",
              "type": "string"
            },
            {
              "internalType": "string",
              "name": "methodName",
              "type": "string"
            }
          ],
          "internalType": "struct Assert.AssertResult",
          "name": "result",
          "type": "tuple"
        }
      ],
      "stateMutability": "pure",
      "type": "function"
    },
    {
      "inputs": [
        {
          "internalType": "uint256[]",
          "name": "a",
          "type": "uint256[]"
        },
        {
          "internalType": "uint256[]",
          "name": "b",
          "type": "uint256[]"
        }
      ],
      "name": "equal",
      "outputs": [
        {
          "components": [
            {
              "internalType": "bool",
              "name": "passed",
              "type": "bool"
            },
            {
              "internalType": "string",
              "name": "assertionError",
              "type": "string"
            },
            {
              "internalType": "string",
              "name": "returnedAsString",
              "type": "string"
            },
            {
              "internalType": "string",
              "name": "expectedAsString",
              "type": "string"
            },
            {
              "internalType": "string",
              "name": "methodName",
              "type": "string"
            }
          ],
          "internalType": "struct Assert.AssertResult",
          "name": "result",
          "type": "tuple"
        }
      ],
      "stateMutability": "pure",
      "type": "function"
    },
    {
      "inputs": [
        {
          "internalType": "uint256",
          "name": "tokenId",
          "type": "uint256"
        }
      ],
      "name": "getApproved",
      "outputs": [
        {
          "internalType": "address",
          "name": "",
          "type": "address"
        }
      ],
      "stateMutability": "view",
      "type": "function"
    },
    {
      "inputs": [
        {
          "internalType": "address",
          "name": "owner",
          "type": "address"
        },
        {
          "internalType": "address",
          "name": "operator",
          "type": "address"
        }
      ],
      "name": "isApprovedForAll",
      "outputs": [
        {
          "internalType": "bool",
          "name": "",
          "type": "bool"
        }
      ],
      "stateMutability": "view",
      "type": "function"
    },
    {
      "inputs": [
        {
          "internalType": "bool",
          "name": "a",
          "type": "bool"
        }
      ],
      "name": "isFalse",
      "outputs": [
        {
          "components": [
            {
              "internalType": "bool",
              "name": "passed",
              "type": "bool"
            },
            {
              "internalType": "string",
              "name": "assertionError",
              "type": "string"
            },
            {
              "internalType": "string",
              "name": "returnedAsString",
              "type": "string"
            },
            {
              "internalType": "string",
              "name": "expectedAsString",
              "type": "string"
            },
            {
              "internalType": "string",
              "name": "methodName",
              "type": "string"
            }
          ],
          "internalType": "struct Assert.AssertResult",
          "name": "result",
          "type": "tuple"
        }
      ],
      "stateMutability": "pure",
      "type": "function"
    },
    {
      "inputs": [
        {
          "internalType": "bool",
          "name": "a",
          "type": "bool"
        }
      ],
      "name": "isTrue",
      "outputs": [
        {
          "components": [
            {
              "internalType": "bool",
              "name": "passed",
              "type": "bool"
            },
            {
              "internalType": "string",
              "name": "assertionError",
              "type": "string"
            },
            {
              "internalType": "string",
              "name": "returnedAsString",
              "type": "string"
            },
            {
              "internalType": "string",
              "name": "expectedAsString",
              "type": "string"
            },
            {
              "internalType": "string",
              "name": "methodName",
              "type": "string"
            }
          ],
          "internalType": "struct Assert.AssertResult",
          "name": "result",
          "type": "tuple"
        }
      ],
      "stateMutability": "pure",
      "type": "function"
    },
    {
      "inputs": [],
      "name": "name",
      "outputs": [
        {
          "internalType": "string",
          "name": "",
          "type": "string"
        }
      ],
      "stateMutability": "view",
      "type": "function"
    },
    {
      "inputs": [
        {
          "internalType": "address",
          "name": "a",
          "type": "address"
        },
        {
          "internalType": "address",
          "name": "b",
          "type": "address"
        }
      ],
      "name": "notEqual",
      "outputs": [
        {
          "components": [
            {
              "internalType": "bool",
              "name": "passed",
              "type": "bool"
            },
            {
              "internalType": "string",
              "name": "assertionError",
              "type": "string"
            },
            {
              "internalType": "string",
              "name": "returnedAsString",
              "type": "string"
            },
            {
              "internalType": "string",
              "name": "expectedAsString",
              "type": "string"
            },
            {
              "internalType": "string",
              "name": "methodName",
              "type": "string"
            }
          ],
          "internalType": "struct Assert.AssertResult",
          "name": "result",
          "type": "tuple"
        }
      ],
      "stateMutability": "pure",
      "type": "function"
    },
    {
      "inputs": [],
      "name": "owner",
      "outputs": [
        {
          "internalType": "address",
          "name": "",
          "type": "address"
        }
      ],
      "stateMutability": "view",
      "type": "function"
    },
    {
      "inputs": [
        {
          "internalType": "uint256",
          "name": "tokenId",
          "type": "uint256"
        }
      ],
      "name": "ownerOf",
      "outputs": [
        {
          "internalType": "address",
          "name": "",
          "type": "address"
        }
      ],
      "stateMutability": "view",
      "type": "function"
    },
    {
      "inputs": [
        {
          "internalType": "address",
          "name": "",
          "type": "address"
        }
      ],
      "name": "owners",
      "outputs": [
        {
          "internalType": "bool",
          "name": "",
          "type": "bool"
        }
      ],
      "stateMutability": "view",
      "type": "function"
    },
    {
      "inputs": [],
      "name": "renounceOwnership",
      "outputs": [],
      "stateMutability": "nonpayable",
      "type": "function"
    },
    {
      "inputs": [
        {
          "internalType": "address",
          "name": "from",
          "type": "address"
        },
        {
          "internalType": "address",
          "name": "to",
          "type": "address"
        },
        {
          "internalType": "uint256",
          "name": "tokenId",
          "type": "uint256"
        }
      ],
      "name": "safeTransferFrom",
      "outputs": [],
      "stateMutability": "nonpayable",
      "type": "function"
    },
    {
      "inputs": [
        {
          "internalType": "address",
          "name": "from",
          "type": "address"
        },
        {
          "internalType": "address",
          "name": "to",
          "type": "address"
        },
        {
          "internalType": "uint256",
          "name": "tokenId",
          "type": "uint256"
        },
        {
          "internalType": "bytes",
          "name": "data",
          "type": "bytes"
        }
      ],
      "name": "safeTransferFrom",
      "outputs": [],
      "stateMutability": "nonpayable",
      "type": "function"
    },
    {
      "inputs": [
        {
          "internalType": "bool",
          "name": "_setActiveTo",
          "type": "bool"
        }
      ],
      "name": "setActive",
      "outputs": [],
      "stateMutability": "nonpayable",
      "type": "function"
    },
    {
      "inputs": [
        {
          "internalType": "address",
          "name": "operator",
          "type": "address"
        },
        {
          "internalType": "bool",
          "name": "approved",
          "type": "bool"
        }
      ],
      "name": "setApprovalForAll",
      "outputs": [],
      "stateMutability": "nonpayable",
      "type": "function"
    },
    {
      "inputs": [
        {
          "internalType": "string",
          "name": "_tokenURI",
          "type": "string"
        }
      ],
      "name": "setTokenURI",
      "outputs": [],
      "stateMutability": "nonpayable",
      "type": "function"
    },
    {
      "inputs": [
        {
          "internalType": "bytes4",
          "name": "interfaceId",
          "type": "bytes4"
        }
      ],
      "name": "supportsInterface",
      "outputs": [
        {
          "internalType": "bool",
          "name": "",
          "type": "bool"
        }
      ],
      "stateMutability": "view",
      "type": "function"
    },
    {
      "inputs": [],
      "name": "symbol",
      "outputs": [
        {
          "internalType": "string",
          "name": "",
          "type": "string"
        }
      ],
      "stateMutability": "view",
      "type": "function"
    },
    {
      "inputs": [
        {
          "internalType": "address",
          "name": "_submissionAddress",
          "type": "address"
        }
      ],
      "name": "testContract",
      "outputs": [],
      "stateMutability": "nonpayable",
      "type": "function"
    },
    {
      "inputs": [
        {
          "internalType": "uint256",
          "name": "",
          "type": "uint256"
        }
      ],
      "name": "tokenURI",
      "outputs": [
        {
          "internalType": "string",
          "name": "",
          "type": "string"
        }
      ],
      "stateMutability": "view",
      "type": "function"
    },
    {
      "inputs": [
        {
          "internalType": "address",
          "name": "from",
          "type": "address"
        },
        {
          "internalType": "address",
          "name": "to",
          "type": "address"
        },
        {
          "internalType": "uint256",
          "name": "tokenId",
          "type": "uint256"
        }
      ],
      "name": "transferFrom",
      "outputs": [],
      "stateMutability": "nonpayable",
      "type": "function"
    },
    {
      "inputs": [
        {
          "internalType": "address",
          "name": "newOwner",
          "type": "address"
        }
      ],
      "name": "transferOwnership",
      "outputs": [],
      "stateMutability": "nonpayable",
      "type": "function"
    }
  ],
  "transactionHash": "0x063ea77b116b43f867f1f35b6a9ee0d49de4b9c4356823ed4043f7c4aa48918d",
  "args": [
    "0xD866BA3D4AB106b4d18161e99FdDA5362B70FA3f",
    "0xf59b60E974f709B519412A2cF1f5236EAba6D4D3",
    "0x6F1B73e524Cf37BCE702e7f0826F7c3E5eaCb7C6"
  ],
  "numDeployments": 4,
  "solcInputHash": "cce5e99710aedb2b7694c5fe3ee6e1a0",
  "bytecode": "0x600b805460ff1916600117905560a060405260006080908152600c9062000027908262000367565b503480156200003557600080fd5b506040516200af173803806200af17833981016040819052620000589162000450565b6040518060400160405280600981526020016822a9219918102834b760b91b81525060405180604001604052806008815260200167053434445524332360c41b8152508160009081620000ac919062000367565b506001620000bb828262000367565b505050620000d8620000d26200024260201b60201c565b62000246565b6001600755604051600d90620000ee9062000298565b604051809103906000f0801580156200010b573d6000803e3d6000fd5b5081546001810183556000928352602090922090910180546001600160a01b0319166001600160a01b03909216919091179055604051600d9084906200015190620002a6565b6001600160a01b039091168152602001604051809103906000f0801580156200017e573d6000803e3d6000fd5b5081546001810183556000928352602090922090910180546001600160a01b0319166001600160a01b03909216919091179055604051600d90849084908490620001c890620002b4565b6001600160a01b03938416815291831660208301529091166040820152606001604051809103906000f08015801562000205573d6000803e3d6000fd5b5081546001810183556000928352602090922090910180546001600160a01b0319166001600160a01b03909216919091179055506200049a915050565b3390565b600680546001600160a01b038381166001600160a01b0319831681179093556040519116919082907f8be0079c531659141344cd1fd0a4f28419497f9722a3daafe3b4186f6b6457e090600090a35050565b611fb68062003e5283390190565b61210a8062005e0883390190565b6130058062007f1283390190565b634e487b7160e01b600052604160045260246000fd5b600181811c90821680620002ed57607f821691505b6020821081036200030e57634e487b7160e01b600052602260045260246000fd5b50919050565b601f8211156200036257600081815260208120601f850160051c810160208610156200033d5750805b601f850160051c820191505b818110156200035e5782815560010162000349565b5050505b505050565b81516001600160401b03811115620003835762000383620002c2565b6200039b81620003948454620002d8565b8462000314565b602080601f831160018114620003d35760008415620003ba5750858301515b600019600386901b1c1916600185901b1785556200035e565b600085815260208120601f198616915b828110156200040457888601518255948401946001909101908401620003e3565b5085821015620004235787850151600019600388901b60f8161c191681555b5050505050600190811b01905550565b80516001600160a01b03811681146200044b57600080fd5b919050565b6000806000606084860312156200046657600080fd5b620004718462000433565b9250620004816020850162000433565b9150620004916040850162000433565b90509250925092565b6139a880620004aa6000396000f3fe608060405234801561001057600080fd5b50600436106101e55760003560e01c80636df864781161010f578063b88d4fde116100a2578063e7da4c7e11610071578063e7da4c7e1461041c578063e985e9c51461042f578063f2fde38b1461046b578063fa084b9b1461047e57600080fd5b8063b88d4fde146103d0578063c87b56dd146103e3578063d70968e7146103f6578063e0df5b6f1461040957600080fd5b80638da5cb5b116100de5780638da5cb5b1461039157806395d89b41146103a2578063a22cb465146103aa578063acec338a146103bd57600080fd5b80636df864781461034257806370a0823114610355578063715018a61461037657806374f130701461037e57600080fd5b806323b872dd1161018757806342842e0e1161015657806342842e0e1461030957806346bdca9a1461029d57806360fb55d51461031c5780636352211e1461032f57600080fd5b806323b872dd146102bd57806330191626146102d057806331495d33146102e3578063410dbb8b146102f657600080fd5b806306fdde03116101c357806306fdde031461024a578063081812fc1461025f578063095ea7b31461028a578063235266d21461029d57600080fd5b806301ffc9a7146101ea578063022914a71461021257806306d82f2914610235575b600080fd5b6101fd6101f83660046126ad565b610491565b60405190151581526020015b60405180910390f35b6101fd6102203660046126df565b60096020526000908152604090205460ff1681565b6102486102433660046126df565b61052e565b005b6102526107f1565b604051610209919061274c565b61027261026d36600461275f565b610883565b6040516001600160a01b039091168152602001610209565b610248610298366004612778565b6108aa565b6102b06102ab3660046128b5565b6109fe565b6040516102099190612990565b6102486102cb3660046129a3565b610aad565b6102b06102de3660046129e4565b610b24565b6102b06102f1366004612a06565b610bde565b6102b0610304366004612a5d565b610caf565b6102486103173660046129a3565b610daf565b6102b061032a366004612b29565b610dca565b61027261033d36600461275f565b610ea6565b6102b0610350366004612be7565b610f0b565b6103686103633660046126df565b610fe7565b604051908152602001610209565b610248611081565b6102b061038c366004612a5d565b611095565b6006546001600160a01b0316610272565b610252611196565b6102486103b8366004612c41565b6111a5565b6102486103cb366004612a5d565b6111b4565b6102486103de366004612c6f565b6111cf565b6102526103f136600461275f565b611247565b6102b0610404366004612a06565b6112db565b610248610417366004612cdb565b6113a2565b6102b061042a366004612d6b565b6113b6565b6101fd61043d366004612a06565b6001600160a01b03918216600090815260056020908152604080832093909416825291909152205460ff1690565b6102486104793660046126df565b611492565b6101fd61048c366004612dc5565b611522565b60006001600160e01b031982167f80ac58cd0000000000000000000000000000000000000000000000000000000014806104f457506001600160e01b031982167f5b5e139f00000000000000000000000000000000000000000000000000000000145b8061052857507f01ffc9a7000000000000000000000000000000000000000000000000000000006001600160e01b03198316145b92915050565b600b5460ff1661056a576040517f80cb55e200000000000000000000000000000000000000000000000000000000815260040160405180910390fd5b600e5460609060009083906001600160a01b0316156106a657600d54610591906001613102565b67ffffffffffffffff8111156105a9576105a96127a4565b6040519080825280602002602001820160405280156105e257816020015b6105cf612663565b8152602001906001900390816105c75790505b509250816105ef81613115565b600e546040517f4c96a3890000000000000000000000000000000000000000000000000000000081526001600160a01b03888116600483015292955091169150634c96a389906024016000604051808303816000875af1158015610657573d6000803e3d6000fd5b505050506040513d6000823e601f3d908101601f1916820160405261067f9190810190613345565b846000815181106106925761069261338c565b6020026020010181935082905250506106fe565b600d5467ffffffffffffffff8111156106c1576106c16127a4565b6040519080825280602002602001820160405280156106fa57816020015b6106e7612663565b8152602001906001900390816106df5790505b5092505b600d548210156107e157600d828154811061071b5761071b61338c565b6000918252602090912001546040517f4b64e4920000000000000000000000000000000000000000000000000000000081526001600160a01b03838116600483015290911690634b64e492906024016000604051808303816000875af1158015610789573d6000803e3d6000fd5b505050506040513d6000823e601f3d908101601f191682016040526107b191908101906133a2565b8383815181106107c3576107c361338c565b602002602001018190525081806107d990613115565b9250506106fe565b6107eb84846115d6565b50505050565b606060008054610800906133d7565b80601f016020809104026020016040519081016040528092919081815260200182805461082c906133d7565b80156108795780601f1061084e57610100808354040283529160200191610879565b820191906000526020600020905b81548152906001019060200180831161085c57829003601f168201915b5050505050905090565b600061088e826116dd565b506000908152600460205260409020546001600160a01b031690565b60006108b582610ea6565b9050806001600160a01b0316836001600160a01b0316036109435760405162461bcd60e51b815260206004820152602160248201527f4552433732313a20617070726f76616c20746f2063757272656e74206f776e6560448201527f720000000000000000000000000000000000000000000000000000000000000060648201526084015b60405180910390fd5b336001600160a01b038216148061097d57506001600160a01b038116600090815260056020908152604080832033845290915290205460ff165b6109ef5760405162461bcd60e51b815260206004820152603d60248201527f4552433732313a20617070726f76652063616c6c6572206973206e6f7420746f60448201527f6b656e206f776e6572206f7220617070726f76656420666f7220616c6c000000606482015260840161093a565b6109f98383611741565b505050565b610a326040518060a00160405280600015158152602001606081526020016060815260200160608152602001606081525090565b815160208084019190912084519185019190912014808252610a77578282604051602001610a61929190613411565b60408051601f1981840301815291905260208201525b604080820193909352606081019190915281518083019092526005825264195c5d585b60da1b6020830152608081019190915290565b610ab733826117bc565b610b195760405162461bcd60e51b815260206004820152602d60248201527f4552433732313a2063616c6c6572206973206e6f7420746f6b656e206f776e6560448201526c1c881bdc88185c1c1c9bdd9959609a1b606482015260840161093a565b6109f983838361183b565b610b586040518060a00160405280600015158152602001606081526020016060815260200160608152602001606081525090565b828214808252610b9b57610b6b83611a4e565b610b7483611a4e565b604051602001610b85929190613411565b60408051601f1981840301815291905260208201525b610ba483611a4e565b6040820152610bb282611a4e565b6060820152604080518082019091526005815264195c5d585b60da1b6020820152608082015292915050565b610c126040518060a00160405280600015158152602001606081526020016060815260200160608152602001606081525090565b6001600160a01b0383811690831681148252600090610c32906014611aee565b90506000610c4a846001600160a01b03166014611aee565b8351909150610c7c578181604051602001610c66929190613411565b60408051601f1981840301815291905260208401525b604080840192909252606083015280518082019091526005815264195c5d585b60da1b6020820152608082015292915050565b610ce36040518060a00160405280600015158152602001606081526020016060815260200160608152602001606081525090565b8115808252610d0b5760405180606001604052806023815260200161392e6023913960208201525b600182151514610d38576040518060400160405280600581526020016466616c736560d81b815250610d56565b604051806040016040528060048152602001637472756560e01b8152505b6040808301919091528051602080820183526000825260608401919091528151808301909252600782527f697346616c736500000000000000000000000000000000000000000000000000908201526080820152919050565b6109f9838383604051806020016040528060008152506111cf565b610dfe6040518060a00160405280600015158152602001606081526020016060815260200160608152602001606081525090565b81604051602001610e0f9190613492565b6040516020818303038152906040528051906020012083604051602001610e369190613492565b60408051601f19818403018152919052805160209091012014808252610e8f57610e5f83611cd6565b610e6883611cd6565b604051602001610e79929190613411565b60408051601f1981840301815291905260208201525b610e9883611cd6565b6040820152610bb282611cd6565b6000818152600260205260408120546001600160a01b0316806105285760405162461bcd60e51b815260206004820152601860248201527f4552433732313a20696e76616c696420746f6b656e2049440000000000000000604482015260640161093a565b610f3f6040518060a00160405280600015158152602001606081526020016060815260200160608152602001606081525090565b81604051602001610f5091906134f4565b6040516020818303038152906040528051906020012083604051602001610f7791906134f4565b60408051601f19818403018152919052805160209091012014808252610fd057610fa083611dab565b610fa983611dab565b604051602001610fba929190613411565b60408051601f1981840301815291905260208201525b610fd983611dab565b6040820152610bb282611dab565b60006001600160a01b0382166110655760405162461bcd60e51b815260206004820152602960248201527f4552433732313a2061646472657373207a65726f206973206e6f74206120766160448201527f6c6964206f776e65720000000000000000000000000000000000000000000000606482015260840161093a565b506001600160a01b031660009081526003602052604090205490565b611089611e87565b6110936000611ee1565b565b6110c96040518060a00160405280600015158152602001606081526020016060815260200160608152602001606081525090565b8115158082526110f2576040518060600160405280602281526020016139516022913960208201525b60018215151461111f576040518060400160405280600581526020016466616c736560d81b81525061113d565b604051806040016040528060048152602001637472756560e01b8152505b6040808301919091528051602080820183526000825260608401919091528151808301909252600682527f6973547275650000000000000000000000000000000000000000000000000000908201526080820152919050565b606060018054610800906133d7565b6111b0338383611f40565b5050565b6111bc611e87565b600b805460ff1916911515919091179055565b6111d933836117bc565b61123b5760405162461bcd60e51b815260206004820152602d60248201527f4552433732313a2063616c6c6572206973206e6f7420746f6b656e206f776e6560448201526c1c881bdc88185c1c1c9bdd9959609a1b606482015260840161093a565b6107eb8484848461200e565b6060600c8054611256906133d7565b80601f0160208091040260200160405190810160405280929190818152602001828054611282906133d7565b80156112cf5780601f106112a4576101008083540402835291602001916112cf565b820191906000526020600020905b8154815290600101906020018083116112b257829003601f168201915b50505050509050919050565b61130f6040518060a00160405280600015158152602001606081526020016060815260200160608152602001606081525090565b6001600160a01b038381169083168114158252600090611330906014611aee565b8251909150611360578060405160200161134a9190613541565b60408051601f1981840301815291905260208301525b60408083019190915280516020808201835260008252606084019190915281518083019092526005825264195c5d585b60da1b90820152608082015292915050565b6113aa611e87565b600c6111b082826135fa565b6113ea6040518060a00160405280600015158152602001606081526020016060815260200160608152602001606081525090565b816040516020016113fb91906136ba565b604051602081830303815290604052805190602001208360405160200161142291906136ba565b60408051601f1981840301815291905280516020909101201480825261147b5761144b8361208c565b6114548361208c565b604051602001611465929190613411565b60408051601f1981840301815291905260208201525b6114848361208c565b6040820152610bb28261208c565b61149a611e87565b6001600160a01b0381166115165760405162461bcd60e51b815260206004820152602660248201527f4f776e61626c653a206e6577206f776e657220697320746865207a65726f206160448201527f6464726573730000000000000000000000000000000000000000000000000000606482015260840161093a565b61151f81611ee1565b50565b6000805b82518110156115cd5760005b8382815181106115445761154461338c565b602002602001015160200151602001518110156115ba5783828151811061156d5761156d61338c565b60200260200101516020015160000151818151811061158e5761158e61338c565b6020026020010151600001516115a8575060009392505050565b806115b281613115565b915050611532565b50806115c581613115565b915050611526565b50600192915050565b6115de61215d565b60006115e982611522565b90507f53d51c5f8eaf1bdbf1288871cbf97a9295da23a9868b15b526b4256ede348db983828460405161161e939291906136f2565b60405180910390a16001600160a01b0383166000908152600a602052604090205460ff1615801561165f57503360009081526009602052604090205460ff16155b80156116685750805b156116af5761167b600880546001019055565b600061168660085490565b336000818152600960205260409020805460ff191660011790559091506116ad90826121b6565b505b506001600160a01b0382166000908152600a60205260409020805460ff191660011790556111b06001600755565b6000818152600260205260409020546001600160a01b031661151f5760405162461bcd60e51b815260206004820152601860248201527f4552433732313a20696e76616c696420746f6b656e2049440000000000000000604482015260640161093a565b6000818152600460205260409020805473ffffffffffffffffffffffffffffffffffffffff19166001600160a01b038416908117909155819061178382610ea6565b6001600160a01b03167f8c5be1e5ebec7d5bd14f71427d1e84f3dd0314c0f7b2291e5b200ac8c7c3b92560405160405180910390a45050565b6000806117c883610ea6565b9050806001600160a01b0316846001600160a01b0316148061180f57506001600160a01b0380821660009081526005602090815260408083209388168352929052205460ff165b806118335750836001600160a01b031661182884610883565b6001600160a01b0316145b949350505050565b826001600160a01b031661184e82610ea6565b6001600160a01b0316146118b25760405162461bcd60e51b815260206004820152602560248201527f4552433732313a207472616e736665722066726f6d20696e636f72726563742060448201526437bbb732b960d91b606482015260840161093a565b6001600160a01b03821661192d5760405162461bcd60e51b8152602060048201526024808201527f4552433732313a207472616e7366657220746f20746865207a65726f2061646460448201527f7265737300000000000000000000000000000000000000000000000000000000606482015260840161093a565b61193a83838360016121d0565b826001600160a01b031661194d82610ea6565b6001600160a01b0316146119b15760405162461bcd60e51b815260206004820152602560248201527f4552433732313a207472616e736665722066726f6d20696e636f72726563742060448201526437bbb732b960d91b606482015260840161093a565b6000818152600460209081526040808320805473ffffffffffffffffffffffffffffffffffffffff199081169091556001600160a01b0387811680865260038552838620805460001901905590871680865283862080546001019055868652600290945282852080549092168417909155905184937fddf252ad1be2c89b69c2b068fc378daa952ba7f163c4a11628f55a4df523b3ef91a4505050565b60606000611a5b83612211565b600101905060008167ffffffffffffffff811115611a7b57611a7b6127a4565b6040519080825280601f01601f191660200182016040528015611aa5576020820181803683370190505b5090508181016020015b600019017f3031323334353637383961626364656600000000000000000000000000000000600a86061a8153600a8504945084611aaf57509392505050565b60606000611afd8360026137e5565b611b08906002613102565b67ffffffffffffffff811115611b2057611b206127a4565b6040519080825280601f01601f191660200182016040528015611b4a576020820181803683370190505b5090507f300000000000000000000000000000000000000000000000000000000000000081600081518110611b8157611b8161338c565b60200101906001600160f81b031916908160001a9053507f780000000000000000000000000000000000000000000000000000000000000081600181518110611bcc57611bcc61338c565b60200101906001600160f81b031916908160001a9053506000611bf08460026137e5565b611bfb906001613102565b90505b6001811115611c80577f303132333435363738396162636465660000000000000000000000000000000085600f1660108110611c3c57611c3c61338c565b1a60f81b828281518110611c5257611c5261338c565b60200101906001600160f81b031916908160001a90535060049490941c93611c79816137fc565b9050611bfe565b508315611ccf5760405162461bcd60e51b815260206004820181905260248201527f537472696e67733a20686578206c656e67746820696e73756666696369656e74604482015260640161093a565b9392505050565b6040805180820190915260018152605b60f81b602082015260609060005b8351811015611da45760018451611d0b9190613813565b811015611d545781848281518110611d2557611d2561338c565b6020026020010151604051602001611d3e929190613826565b6040516020818303038152906040529150611d92565b81848281518110611d6757611d6761338c565b6020026020010151604051602001611d8092919061387d565b60405160208183030381529060405291505b80611d9c81613115565b915050611cf4565b5092915050565b6040805180820190915260018152605b60f81b602082015260609060005b8351811015611da45760018451611de09190613813565b811015611e3c5781611e15858381518110611dfd57611dfd61338c565b60200260200101516001600160a01b03166014611aee565b604051602001611e26929190613826565b6040516020818303038152906040529150611e75565b81611e52858381518110611dfd57611dfd61338c565b604051602001611e6392919061387d565b60405160208183030381529060405291505b80611e7f81613115565b915050611dc9565b6006546001600160a01b031633146110935760405162461bcd60e51b815260206004820181905260248201527f4f776e61626c653a2063616c6c6572206973206e6f7420746865206f776e6572604482015260640161093a565b600680546001600160a01b0383811673ffffffffffffffffffffffffffffffffffffffff19831681179093556040519116919082907f8be0079c531659141344cd1fd0a4f28419497f9722a3daafe3b4186f6b6457e090600090a35050565b816001600160a01b0316836001600160a01b031603611fa15760405162461bcd60e51b815260206004820152601960248201527f4552433732313a20617070726f766520746f2063616c6c657200000000000000604482015260640161093a565b6001600160a01b03838116600081815260056020908152604080832094871680845294825291829020805460ff191686151590811790915591519182527f17307eab39ab6107e8899845ad3d59bd9653f200f220920489ca2b5937696c31910160405180910390a3505050565b61201984848461183b565b612025848484846122f3565b6107eb5760405162461bcd60e51b815260206004820152603260248201527f4552433732313a207472616e7366657220746f206e6f6e20455243373231526560448201527131b2b4bb32b91034b6b83632b6b2b73a32b960711b606482015260840161093a565b6040805180820190915260018152605b60f81b602082015260609060005b8351811015611da457600184516120c19190613813565b81101561211257816120eb8583815181106120de576120de61338c565b6020026020010151611a4e565b6040516020016120fc929190613826565b604051602081830303815290604052915061214b565b816121288583815181106120de576120de61338c565b60405160200161213992919061387d565b60405160208183030381529060405291505b8061215581613115565b9150506120aa565b6002600754036121af5760405162461bcd60e51b815260206004820152601f60248201527f5265656e7472616e637947756172643a207265656e7472616e742063616c6c00604482015260640161093a565b6002600755565b6111b082826040518060200160405280600081525061243f565b6001600160a01b038416156107eb576040517f6e10574900000000000000000000000000000000000000000000000000000000815260040160405180910390fd5b6000807a184f03e93ff9f4daa797ed6e38ed64bf6a1f010000000000000000831061225a577a184f03e93ff9f4daa797ed6e38ed64bf6a1f010000000000000000830492506040015b6d04ee2d6d415b85acef81000000008310612286576d04ee2d6d415b85acef8100000000830492506020015b662386f26fc1000083106122a457662386f26fc10000830492506010015b6305f5e10083106122bc576305f5e100830492506008015b61271083106122d057612710830492506004015b606483106122e2576064830492506002015b600a83106105285760010192915050565b60006001600160a01b0384163b1561243457604051630a85bd0160e11b81526001600160a01b0385169063150b7a02906123379033908990889088906004016138d4565b6020604051808303816000875af1925050508015612372575060408051601f3d908101601f1916820190925261236f91810190613910565b60015b61241a573d8080156123a0576040519150601f19603f3d011682016040523d82523d6000602084013e6123a5565b606091505b5080516000036124125760405162461bcd60e51b815260206004820152603260248201527f4552433732313a207472616e7366657220746f206e6f6e20455243373231526560448201527131b2b4bb32b91034b6b83632b6b2b73a32b960711b606482015260840161093a565b805181602001fd5b6001600160e01b031916630a85bd0160e11b149050611833565b506001949350505050565b61244983836124bd565b61245660008484846122f3565b6109f95760405162461bcd60e51b815260206004820152603260248201527f4552433732313a207472616e7366657220746f206e6f6e20455243373231526560448201527131b2b4bb32b91034b6b83632b6b2b73a32b960711b606482015260840161093a565b6001600160a01b0382166125135760405162461bcd60e51b815260206004820181905260248201527f4552433732313a206d696e7420746f20746865207a65726f2061646472657373604482015260640161093a565b6000818152600260205260409020546001600160a01b0316156125785760405162461bcd60e51b815260206004820152601c60248201527f4552433732313a20746f6b656e20616c7265616479206d696e74656400000000604482015260640161093a565b6125866000838360016121d0565b6000818152600260205260409020546001600160a01b0316156125eb5760405162461bcd60e51b815260206004820152601c60248201527f4552433732313a20746f6b656e20616c7265616479206d696e74656400000000604482015260640161093a565b6001600160a01b0382166000818152600360209081526040808320805460010190558483526002909152808220805473ffffffffffffffffffffffffffffffffffffffff19168417905551839291907fddf252ad1be2c89b69c2b068fc378daa952ba7f163c4a11628f55a4df523b3ef908290a45050565b604051806040016040528060608152602001612692604051806040016040528060608152602001600081525090565b905290565b6001600160e01b03198116811461151f57600080fd5b6000602082840312156126bf57600080fd5b8135611ccf81612697565b6001600160a01b038116811461151f57600080fd5b6000602082840312156126f157600080fd5b8135611ccf816126ca565b60005b838110156127175781810151838201526020016126ff565b50506000910152565b600081518084526127388160208601602086016126fc565b601f01601f19169290920160200192915050565b602081526000611ccf6020830184612720565b60006020828403121561277157600080fd5b5035919050565b6000806040838503121561278b57600080fd5b8235612796816126ca565b946020939093013593505050565b634e487b7160e01b600052604160045260246000fd5b6040805190810167ffffffffffffffff811182821017156127dd576127dd6127a4565b60405290565b60405160a0810167ffffffffffffffff811182821017156127dd576127dd6127a4565b604051601f8201601f1916810167ffffffffffffffff8111828210171561282f5761282f6127a4565b604052919050565b600067ffffffffffffffff821115612851576128516127a4565b50601f01601f191660200190565b600082601f83011261287057600080fd5b813561288361287e82612837565b612806565b81815284602083860101111561289857600080fd5b816020850160208301376000918101602001919091529392505050565b600080604083850312156128c857600080fd5b823567ffffffffffffffff808211156128e057600080fd5b6128ec8683870161285f565b9350602085013591508082111561290257600080fd5b5061290f8582860161285f565b9150509250929050565b8051151582526000602082015160a0602085015261293a60a0850182612720565b9050604083015184820360408601526129538282612720565b9150506060830151848203606086015261296d8282612720565b915050608083015184820360808601526129878282612720565b95945050505050565b602081526000611ccf6020830184612919565b6000806000606084860312156129b857600080fd5b83356129c3816126ca565b925060208401356129d3816126ca565b929592945050506040919091013590565b600080604083850312156129f757600080fd5b50508035926020909101359150565b60008060408385031215612a1957600080fd5b8235612a24816126ca565b91506020830135612a34816126ca565b809150509250929050565b801515811461151f57600080fd5b8035612a5881612a3f565b919050565b600060208284031215612a6f57600080fd5b8135611ccf81612a3f565b600067ffffffffffffffff821115612a9457612a946127a4565b5060051b60200190565b600082601f830112612aaf57600080fd5b81356020612abf61287e83612a7a565b82815260059290921b84018101918181019086841115612ade57600080fd5b8286015b84811015612b1e57803567ffffffffffffffff811115612b025760008081fd5b612b108986838b010161285f565b845250918301918301612ae2565b509695505050505050565b60008060408385031215612b3c57600080fd5b823567ffffffffffffffff80821115612b5457600080fd5b612b6086838701612a9e565b93506020850135915080821115612b7657600080fd5b5061290f85828601612a9e565b600082601f830112612b9457600080fd5b81356020612ba461287e83612a7a565b82815260059290921b84018101918181019086841115612bc357600080fd5b8286015b84811015612b1e578035612bda816126ca565b8352918301918301612bc7565b60008060408385031215612bfa57600080fd5b823567ffffffffffffffff80821115612c1257600080fd5b612c1e86838701612b83565b93506020850135915080821115612c3457600080fd5b5061290f85828601612b83565b60008060408385031215612c5457600080fd5b8235612c5f816126ca565b91506020830135612a3481612a3f565b60008060008060808587031215612c8557600080fd5b8435612c90816126ca565b93506020850135612ca0816126ca565b925060408501359150606085013567ffffffffffffffff811115612cc357600080fd5b612ccf8782880161285f565b91505092959194509250565b600060208284031215612ced57600080fd5b813567ffffffffffffffff811115612d0457600080fd5b6118338482850161285f565b600082601f830112612d2157600080fd5b81356020612d3161287e83612a7a565b82815260059290921b84018101918181019086841115612d5057600080fd5b8286015b84811015612b1e5780358352918301918301612d54565b60008060408385031215612d7e57600080fd5b823567ffffffffffffffff80821115612d9657600080fd5b612da286838701612d10565b93506020850135915080821115612db857600080fd5b5061290f85828601612d10565b600060208284031215612dd757600080fd5b67ffffffffffffffff82351115612ded57600080fd5b82601f833584010112612dff57600080fd5b612e0f61287e8335840135612a7a565b8235830180358083526020808401939260059290921b90910101851015612e3557600080fd5b602084358501015b84358501803560051b016020018110156130e35767ffffffffffffffff81351115612e6757600080fd5b6040853586018235018703601f19011215612e8157600080fd5b612e896127ba565b67ffffffffffffffff60208335883589010101351115612ea857600080fd5b612ec0876020843589358a010181810135010161285f565b815267ffffffffffffffff60408335883589010101351115612ee157600080fd5b60408635870183350180820135018803601f19011215612f0057600080fd5b612f086127ba565b67ffffffffffffffff87358801843501604081013501602001351115612f2d57600080fd5b86358701833501604081013501602081013501603f81018913612f4f57600080fd5b612f5f61287e6020830135612a7a565b602082810135808352908201919060051b83016040018b1015612f8157600080fd5b604083015b6040602085013560051b8501018110156130b15767ffffffffffffffff81351115612fb057600080fd5b8035840160a0818e03603f19011215612fc857600080fd5b612fd06127e3565b612fdc60408301612a4d565b815267ffffffffffffffff60608301351115612ff757600080fd5b61300a8e6040606085013585010161285f565b602082015267ffffffffffffffff6080830135111561302857600080fd5b61303b8e6040608085013585010161285f565b604082015267ffffffffffffffff60a0830135111561305957600080fd5b61306c8e604060a085013585010161285f565b606082015267ffffffffffffffff60c0830135111561308a57600080fd5b61309d8e604060c085013585010161285f565b608082015284525060209283019201612f86565b508352505060408335883589010181810135010135602080830191909152828101919091529084529283019201612e3d565b50949350505050565b634e487b7160e01b600052601160045260246000fd5b80820180821115610528576105286130ec565b600060018201613127576131276130ec565b5060010190565b600082601f83011261313f57600080fd5b815161314d61287e82612837565b81815284602083860101111561316257600080fd5b6118338260208301602087016126fc565b8051612a5881612a3f565b60006040828403121561319057600080fd5b6131986127ba565b9050815167ffffffffffffffff808211156131b257600080fd5b6131be8583860161312e565b83526020915081840151818111156131d557600080fd5b8401604081870312156131e757600080fd5b6131ef6127ba565b8151838111156131fe57600080fd5b8201601f8101881361320f57600080fd5b805161321d61287e82612a7a565b81815260059190911b8201860190868101908a83111561323c57600080fd5b8784015b838110156133295780518881111561325757600080fd5b850160a0818e03601f1901121561326d57600080fd5b6132756127e3565b6132808b8301613173565b815260408201518a81111561329457600080fd5b6132a28f8d8386010161312e565b8c8301525060608201518a8111156132b957600080fd5b6132c78f8d8386010161312e565b60408301525060808201518a8111156132e05760008081fd5b6132ee8f8d8386010161312e565b60608301525060a08201518a8111156133075760008081fd5b6133158f8d8386010161312e565b608083015250845250918801918801613240565b5084525050509083015183820152918301919091525092915050565b6000806040838503121561335857600080fd5b825167ffffffffffffffff81111561336f57600080fd5b61337b8582860161317e565b9250506020830151612a34816126ca565b634e487b7160e01b600052603260045260246000fd5b6000602082840312156133b457600080fd5b815167ffffffffffffffff8111156133cb57600080fd5b6118338482850161317e565b600181811c908216806133eb57607f821691505b60208210810361340b57634e487b7160e01b600052602260045260246000fd5b50919050565b7f417373657274696f6e4572726f723a20000000000000000000000000000000008152600083516134498160108501602088016126fc565b7f206973206e6f7420657175616c20746f2000000000000000000000000000000060109184019182015283516134868160218401602088016126fc565b01602101949350505050565b6000602080830181845280855180835260408601915060408160051b870101925083870160005b828110156134e757603f198886030184526134d5858351612720565b945092850192908501906001016134b9565b5092979650505050505050565b6020808252825182820181905260009190848201906040850190845b818110156135355783516001600160a01b031683529284019291840191600101613510565b50909695505050505050565b7f417373657274696f6e4572726f723a200000000000000000000000000000000081527f20426f74682076616c756573206172650000000000000000000000000000000060108201526000825161359f8160208501602087016126fc565b9190910160200192915050565b601f8211156109f957600081815260208120601f850160051c810160208610156135d35750805b601f850160051c820191505b818110156135f2578281556001016135df565b505050505050565b815167ffffffffffffffff811115613614576136146127a4565b6136288161362284546133d7565b846135ac565b602080601f83116001811461365d57600084156136455750858301515b600019600386901b1c1916600185901b1785556135f2565b600085815260208120601f198616915b8281101561368c5788860151825594840194600190910190840161366d565b50858210156136aa5787850151600019600388901b60f8161c191681555b5050505050600190811b01905550565b6020808252825182820181905260009190848201906040850190845b81811015613535578351835292840192918401916001016136d6565b600060608083016001600160a01b03871684526020861515818601526040838187015282875180855260808801915060808160051b89010194508389016000805b838110156137d3578a8803607f1901855282518051878a52613757888b0182612720565b918901518a83038b8b0152805189845280518a850181905291939250600582901b83018d0191908b01908d840190875b818110156137b557605f198686030183526137a3858551612919565b9450928d0192918d0191600101613787565b50505050918901519089015297509386019391860191600101613733565b50959c9b505050505050505050505050565b8082028115828204841417610528576105286130ec565b60008161380b5761380b6130ec565b506000190190565b81810381811115610528576105286130ec565b600083516138388184602088016126fc565b83519083019061384c8183602088016126fc565b7f2c200000000000000000000000000000000000000000000000000000000000009101908152600201949350505050565b6000835161388f8184602088016126fc565b8351908301906138a38183602088016126fc565b7f5d000000000000000000000000000000000000000000000000000000000000009101908152600101949350505050565b60006001600160a01b038087168352808616602084015250836040830152608060608301526139066080830184612720565b9695505050505050565b60006020828403121561392257600080fd5b8151611ccf8161269756fe417373657274696f6e4572726f723a20726573756c74206973206e6f742066616c7365417373657274696f6e4572726f723a20726573756c74206973206e6f742074727565a264697066735822122076a7c1852b099bc1fe1398711d5d6d75662ae3e25a4ae031d31e0d12ee22071764736f6c63430008110033608060405234801561001057600080fd5b50611f96806100206000396000f3fe608060405234801561001057600080fd5b50600436106100c95760003560e01c80634b64e4921161008157806374f130701161005b57806374f1307014610176578063d70968e714610189578063e7da4c7e1461019c57600080fd5b80634b64e4921461013057806360fb55d5146101505780636df864781461016357600080fd5b806331495d33116100b257806331495d331461010a578063410dbb8b1461011d57806346bdca9a146100ce57600080fd5b8063235266d2146100ce57806330191626146100f7575b600080fd5b6100e16100dc366004611670565b6101af565b6040516100ee919061179b565b60405180910390f35b6100e16101053660046117b5565b61025e565b6100e16101183660046117f3565b610318565b6100e161012b366004611826565b6103e9565b61014361013e366004611848565b6104e9565b6040516100ee9190611863565b6100e161015e3660046119b0565b610856565b6100e1610171366004611a6c565b610932565b6100e1610184366004611826565b610a0e565b6100e16101973660046117f3565b610b0f565b6100e16101aa366004611b21565b610bd6565b6101e36040518060a00160405280600015158152602001606081526020016060815260200160608152602001606081525090565b815160208084019190912084519185019190912014808252610228578282604051602001610212929190611b7b565b60408051601f1981840301815291905260208201525b604080820193909352606081019190915281518083019092526005825264195c5d585b60da1b6020830152608081019190915290565b6102926040518060a00160405280600015158152602001606081526020016060815260200160608152602001606081525090565b8282148082526102d5576102a583610cb2565b6102ae83610cb2565b6040516020016102bf929190611b7b565b60408051601f1981840301815291905260208201525b6102de83610cb2565b60408201526102ec82610cb2565b6060820152604080518082019091526005815264195c5d585b60da1b6020820152608082015292915050565b61034c6040518060a00160405280600015158152602001606081526020016060815260200160608152602001606081525090565b6001600160a01b038381169083168114825260009061036c906014610d52565b90506000610384846001600160a01b03166014610d52565b83519091506103b65781816040516020016103a0929190611b7b565b60408051601f1981840301815291905260208401525b604080840192909252606083015280518082019091526005815264195c5d585b60da1b6020820152608082015292915050565b61041d6040518060a00160405280600015158152602001606081526020016060815260200160608152602001606081525090565b811580825261044557604051806060016040528060238152602001611efa6023913960208201525b600182151514610472576040518060400160405280600581526020016466616c736560d81b815250610490565b604051806040016040528060048152602001637472756560e01b8152505b6040808301919091528051602080820183526000825260608401919091528151808301909252600782527f697346616c736500000000000000000000000000000000000000000000000000908201526080820152919050565b6104f1611585565b816104fa611585565b6105078160200151610f5a565b50604051806060016040528060298152602001611ed16029913981600001819052506000826001600160a01b03166318160ddd6040518163ffffffff1660e01b81526004016020604051808303816000875af115801561056b573d6000803e3d6000fd5b505050506040513d601f19601f8201168201806040525081019061058f9190611bfc565b905060008061059d85610fd6565b915091508015610635576040805160a081018252600080825282518084018452601481527f43616c6c20746f20636c61696d206661696c6564000000000000000000000000602082810191909152808401919091528351808201855282815283850152835180820185528281526060840152835180820190945290835260808201929092529085015161062f9161107d565b506106d2565b6040517f70a082310000000000000000000000000000000000000000000000000000000081523060048201526106d0906106c5906001600160a01b038816906370a0823190602401602060405180830381865afa15801561069a573d6000803e3d6000fd5b505050506040513d601f19601f820116820180604052508101906106be9190611bfc565b606461025e565b60208601519061107d565b505b6106db85610fd6565b90925090508061075c576107566040518060a00160405280600015158152602001604051806060016040528060228152602001611f3f6022913981526040805160208181018352600080835281850192909252825180820184528281528385015282518082019093529082526060909201528601519061107d565b506107c4565b6040805160048152602481019091526020810180517bffffffffffffffffffffffffffffffffffffffffffffffffffffffff167f0b1327a6000000000000000000000000000000000000000000000000000000001790526107c2906106c59084906101af565b505b6000856001600160a01b03166318160ddd6040518163ffffffff1660e01b81526004016020604051808303816000875af1158015610806573d6000803e3d6000fd5b505050506040513d601f19601f8201168201806040525081019061082a9190611bfc565b905061084961083e82610105876064611c2b565b60208701519061107d565b5093979650505050505050565b61088a6040518060a00160405280600015158152602001606081526020016060815260200160608152602001606081525090565b8160405160200161089b9190611c3e565b60405160208183030381529060405280519060200120836040516020016108c29190611c3e565b60408051601f1981840301815291905280516020909101201480825261091b576108eb836110ed565b6108f4836110ed565b604051602001610905929190611b7b565b60408051601f1981840301815291905260208201525b610924836110ed565b60408201526102ec826110ed565b6109666040518060a00160405280600015158152602001606081526020016060815260200160608152602001606081525090565b816040516020016109779190611ca0565b604051602081830303815290604052805190602001208360405160200161099e9190611ca0565b60408051601f198184030181529190528051602090910120148082526109f7576109c7836111c2565b6109d0836111c2565b6040516020016109e1929190611b7b565b60408051601f1981840301815291905260208201525b610a00836111c2565b60408201526102ec826111c2565b610a426040518060a00160405280600015158152602001606081526020016060815260200160608152602001606081525090565b811515808252610a6b57604051806060016040528060228152602001611f1d6022913960208201525b600182151514610a98576040518060400160405280600581526020016466616c736560d81b815250610ab6565b604051806040016040528060048152602001637472756560e01b8152505b6040808301919091528051602080820183526000825260608401919091528151808301909252600682527f6973547275650000000000000000000000000000000000000000000000000000908201526080820152919050565b610b436040518060a00160405280600015158152602001606081526020016060815260200160608152602001606081525090565b6001600160a01b038381169083168114158252600090610b64906014610d52565b8251909150610b945780604051602001610b7e9190611ced565b60408051601f1981840301815291905260208301525b60408083019190915280516020808201835260008252606084019190915281518083019092526005825264195c5d585b60da1b90820152608082015292915050565b610c0a6040518060a00160405280600015158152602001606081526020016060815260200160608152602001606081525090565b81604051602001610c1b9190611d58565b6040516020818303038152906040528051906020012083604051602001610c429190611d58565b60408051601f19818403018152919052805160209091012014808252610c9b57610c6b8361129e565b610c748361129e565b604051602001610c85929190611b7b565b60408051601f1981840301815291905260208201525b610ca48361129e565b60408201526102ec8261129e565b60606000610cbf8361136f565b600101905060008167ffffffffffffffff811115610cdf57610cdf6115b9565b6040519080825280601f01601f191660200182016040528015610d09576020820181803683370190505b5090508181016020015b600019017f3031323334353637383961626364656600000000000000000000000000000000600a86061a8153600a8504945084610d1357509392505050565b60606000610d61836002611d90565b610d6c906002611c2b565b67ffffffffffffffff811115610d8457610d846115b9565b6040519080825280601f01601f191660200182016040528015610dae576020820181803683370190505b5090507f300000000000000000000000000000000000000000000000000000000000000081600081518110610de557610de5611da7565b60200101906001600160f81b031916908160001a9053507f780000000000000000000000000000000000000000000000000000000000000081600181518110610e3057610e30611da7565b60200101906001600160f81b031916908160001a9053506000610e54846002611d90565b610e5f906001611c2b565b90505b6001811115610ee4577f303132333435363738396162636465660000000000000000000000000000000085600f1660108110610ea057610ea0611da7565b1a60f81b828281518110610eb657610eb6611da7565b60200101906001600160f81b031916908160001a90535060049490941c93610edd81611dbd565b9050610e62565b508315610f51576040517f08c379a000000000000000000000000000000000000000000000000000000000815260206004820181905260248201527f537472696e67733a20686578206c656e67746820696e73756666696369656e74604482015260640160405180910390fd5b90505b92915050565b60408051808201825260608152600060208201528151600480825260a082019093529091816020015b610fb76040518060a00160405280600015158152602001606081526020016060815260200160608152602001606081525090565b815260200190600190039081610f835750508252506000602082015290565b60606000826001600160a01b0316634e71d92d6040518163ffffffff1660e01b8152600401600060405180830381600087803b15801561101557600080fd5b505af1925050508015611026575060015b611064573d808015611054576040519150601f19603f3d011682016040523d82523d6000602084013e611059565b606091505b509360019350915050565b5050604080516020810190915260008082529092909150565b6040805180820190915260608152600060208201528251516020840151036110ab576110a883611451565b92505b8183600001518460200151815181106110c6576110c6611da7565b60200260200101819052508260200180518091906110e390611dd4565b9052509192915050565b6040805180820190915260018152605b60f81b602082015260609060005b83518110156111bb57600184516111229190611ded565b81101561116b578184828151811061113c5761113c611da7565b6020026020010151604051602001611155929190611e00565b60405160208183030381529060405291506111a9565b8184828151811061117e5761117e611da7565b6020026020010151604051602001611197929190611e57565b60405160208183030381529060405291505b806111b381611dd4565b91505061110b565b5092915050565b6040805180820190915260018152605b60f81b602082015260609060005b83518110156111bb57600184516111f79190611ded565b811015611253578161122c85838151811061121457611214611da7565b60200260200101516001600160a01b03166014610d52565b60405160200161123d929190611e00565b604051602081830303815290604052915061128c565b8161126985838151811061121457611214611da7565b60405160200161127a929190611e57565b60405160208183030381529060405291505b8061129681611dd4565b9150506111e0565b6040805180820190915260018152605b60f81b602082015260609060005b83518110156111bb57600184516112d39190611ded565b81101561132457816112fd8583815181106112f0576112f0611da7565b6020026020010151610cb2565b60405160200161130e929190611e00565b604051602081830303815290604052915061135d565b8161133a8583815181106112f0576112f0611da7565b60405160200161134b929190611e57565b60405160208183030381529060405291505b8061136781611dd4565b9150506112bc565b6000807a184f03e93ff9f4daa797ed6e38ed64bf6a1f01000000000000000083106113b8577a184f03e93ff9f4daa797ed6e38ed64bf6a1f010000000000000000830492506040015b6d04ee2d6d415b85acef810000000083106113e4576d04ee2d6d415b85acef8100000000830492506020015b662386f26fc10000831061140257662386f26fc10000830492506010015b6305f5e100831061141a576305f5e100830492506008015b612710831061142e57612710830492506004015b60648310611440576064830492506002015b600a8310610f545760010192915050565b60408051808201909152606081526000602082015260408051808201909152606081526000602082015282515160029061148c906003611d90565b6114969190611eae565b67ffffffffffffffff8111156114ae576114ae6115b9565b60405190808252806020026020018201604052801561151357816020015b6115006040518060a00160405280600015158152602001606081526020016060815260200160608152602001606081525090565b8152602001906001900390816114cc5790505b50815260005b83515181101561157357835180518290811061153757611537611da7565b60200260200101518260000151828151811061155557611555611da7565b6020026020010181905250808061156b90611dd4565b915050611519565b50602092830151928101929092525090565b6040518060400160405280606081526020016115b4604051806040016040528060608152602001600081525090565b905290565b634e487b7160e01b600052604160045260246000fd5b604051601f8201601f1916810167ffffffffffffffff811182821017156115f8576115f86115b9565b604052919050565b600082601f83011261161157600080fd5b813567ffffffffffffffff81111561162b5761162b6115b9565b61163e601f8201601f19166020016115cf565b81815284602083860101111561165357600080fd5b816020850160208301376000918101602001919091529392505050565b6000806040838503121561168357600080fd5b823567ffffffffffffffff8082111561169b57600080fd5b6116a786838701611600565b935060208501359150808211156116bd57600080fd5b506116ca85828601611600565b9150509250929050565b60005b838110156116ef5781810151838201526020016116d7565b50506000910152565b600081518084526117108160208601602086016116d4565b601f01601f19169290920160200192915050565b8051151582526000602082015160a0602085015261174560a08501826116f8565b90506040830151848203604086015261175e82826116f8565b9150506060830151848203606086015261177882826116f8565b9150506080830151848203608086015261179282826116f8565b95945050505050565b6020815260006117ae6020830184611724565b9392505050565b600080604083850312156117c857600080fd5b50508035926020909101359150565b80356001600160a01b03811681146117ee57600080fd5b919050565b6000806040838503121561180657600080fd5b61180f836117d7565b915061181d602084016117d7565b90509250929050565b60006020828403121561183857600080fd5b81358015158114610f5157600080fd5b60006020828403121561185a57600080fd5b6117ae826117d7565b60006020808352835160408285015261187f60608501826116f8565b905081850151601f198583030160408601526040820181516040845281815180845260608601915060608160051b8701019350868301925060005b818110156118e857605f198786030183526118d6858551611724565b945092870192918701916001016118ba565b505050509083015191909201529392505050565b600067ffffffffffffffff821115611916576119166115b9565b5060051b60200190565b600082601f83011261193157600080fd5b81356020611946611941836118fc565b6115cf565b82815260059290921b8401810191818101908684111561196557600080fd5b8286015b848110156119a557803567ffffffffffffffff8111156119895760008081fd5b6119978986838b0101611600565b845250918301918301611969565b509695505050505050565b600080604083850312156119c357600080fd5b823567ffffffffffffffff808211156119db57600080fd5b6119e786838701611920565b935060208501359150808211156119fd57600080fd5b506116ca85828601611920565b600082601f830112611a1b57600080fd5b81356020611a2b611941836118fc565b82815260059290921b84018101918181019086841115611a4a57600080fd5b8286015b848110156119a557611a5f816117d7565b8352918301918301611a4e565b60008060408385031215611a7f57600080fd5b823567ffffffffffffffff80821115611a9757600080fd5b611aa386838701611a0a565b93506020850135915080821115611ab957600080fd5b506116ca85828601611a0a565b600082601f830112611ad757600080fd5b81356020611ae7611941836118fc565b82815260059290921b84018101918181019086841115611b0657600080fd5b8286015b848110156119a55780358352918301918301611b0a565b60008060408385031215611b3457600080fd5b823567ffffffffffffffff80821115611b4c57600080fd5b611b5886838701611ac6565b93506020850135915080821115611b6e57600080fd5b506116ca85828601611ac6565b7f417373657274696f6e4572726f723a2000000000000000000000000000000000815260008351611bb38160108501602088016116d4565b7f206973206e6f7420657175616c20746f200000000000000000000000000000006010918401918201528351611bf08160218401602088016116d4565b01602101949350505050565b600060208284031215611c0e57600080fd5b5051919050565b634e487b7160e01b600052601160045260246000fd5b80820180821115610f5457610f54611c15565b6000602080830181845280855180835260408601915060408160051b870101925083870160005b82811015611c9357603f19888603018452611c818583516116f8565b94509285019290850190600101611c65565b5092979650505050505050565b6020808252825182820181905260009190848201906040850190845b81811015611ce15783516001600160a01b031683529284019291840191600101611cbc565b50909695505050505050565b7f417373657274696f6e4572726f723a200000000000000000000000000000000081527f20426f74682076616c7565732061726500000000000000000000000000000000601082015260008251611d4b8160208501602087016116d4565b9190910160200192915050565b6020808252825182820181905260009190848201906040850190845b81811015611ce157835183529284019291840191600101611d74565b8082028115828204841417610f5457610f54611c15565b634e487b7160e01b600052603260045260246000fd5b600081611dcc57611dcc611c15565b506000190190565b600060018201611de657611de6611c15565b5060010190565b81810381811115610f5457610f54611c15565b60008351611e128184602088016116d4565b835190830190611e268183602088016116d4565b7f2c200000000000000000000000000000000000000000000000000000000000009101908152600201949350505050565b60008351611e698184602088016116d4565b835190830190611e7d8183602088016116d4565b7f5d000000000000000000000000000000000000000000000000000000000000009101908152600101949350505050565b600082611ecb57634e487b7160e01b600052601260045260246000fd5b50049056fe557365722073686f756c642062652061626c6520746f20636c61696d2065786163746c79206f6e6365417373657274696f6e4572726f723a20726573756c74206973206e6f742066616c7365417373657274696f6e4572726f723a20726573756c74206973206e6f742074727565457870656374656420726576657274207769746820546f6b656e73436c61696d6564a264697066735822122040f9419d507d7f9de8a73b61b0338f76e28d1126477f81ac0ba614387b10673064736f6c63430008110033608060405234801561001057600080fd5b5060405161210a38038061210a83398101604081905261002f91610054565b600080546001600160a01b0319166001600160a01b0392909216919091179055610084565b60006020828403121561006657600080fd5b81516001600160a01b038116811461007d57600080fd5b9392505050565b612077806100936000396000f3fe608060405234801561001057600080fd5b50600436106100c95760003560e01c80634b64e4921161008157806374f130701161005b57806374f1307014610176578063d70968e714610189578063e7da4c7e1461019c57600080fd5b80634b64e4921461013057806360fb55d5146101505780636df864781461016357600080fd5b806331495d33116100b257806331495d331461010a578063410dbb8b1461011d57806346bdca9a146100ce57600080fd5b8063235266d2146100ce57806330191626146100f7575b600080fd5b6100e16100dc3660046116b5565b6101af565b6040516100ee91906117e0565b60405180910390f35b6100e16101053660046117fa565b61025e565b6100e1610118366004611838565b610318565b6100e161012b36600461187c565b6103e9565b61014361013e366004611899565b6104e9565b6040516100ee91906118b4565b6100e161015e3660046119fc565b610934565b6100e1610171366004611ab8565b610a10565b6100e161018436600461187c565b610aec565b6100e1610197366004611838565b610bed565b6100e16101aa366004611b6d565b610cb4565b6101e36040518060a00160405280600015158152602001606081526020016060815260200160608152602001606081525090565b815160208084019190912084519185019190912014808252610228578282604051602001610212929190611bc7565b60408051601f1981840301815291905260208201525b604080820193909352606081019190915281518083019092526005825264195c5d585b60da1b6020830152608081019190915290565b6102926040518060a00160405280600015158152602001606081526020016060815260200160608152602001606081525090565b8282148082526102d5576102a583610d90565b6102ae83610d90565b6040516020016102bf929190611bc7565b60408051601f1981840301815291905260208201525b6102de83610d90565b60408201526102ec82610d90565b6060820152604080518082019091526005815264195c5d585b60da1b6020820152608082015292915050565b61034c6040518060a00160405280600015158152602001606081526020016060815260200160608152602001606081525090565b6001600160a01b038381169083168114825260009061036c906014610e30565b90506000610384846001600160a01b03166014610e30565b83519091506103b65781816040516020016103a0929190611bc7565b60408051601f1981840301815291905260208401525b604080840192909252606083015280518082019091526005815264195c5d585b60da1b6020820152608082015292915050565b61041d6040518060a00160405280600015158152602001606081526020016060815260200160608152602001606081525090565b811580825261044557604051806060016040528060238152602001611fab6023913960208201525b600182151514610472576040518060400160405280600581526020016466616c736560d81b815250610490565b604051806040016040528060048152602001637472756560e01b8152505b6040808301919091528051602080820183526000825260608401919091528151808301909252600782527f697346616c736500000000000000000000000000000000000000000000000000908201526080820152919050565b6104f16115bc565b816104fa6115bc565b6105078160200151611038565b50604051806060016040528060308152602001611ff06030913981600001819052506000826001600160a01b03166318160ddd6040518163ffffffff1660e01b81526004016020604051808303816000875af115801561056b573d6000803e3d6000fd5b505050506040513d601f19601f8201168201806040525081019061058f9190611c48565b60008054604051630f41a04d60e11b81526001600160a01b03878116600483015293945091928392911690631e83409a906024016000604051808303816000875af11580156105e2573d6000803e3d6000fd5b505050506040513d6000823e601f3d908101601f1916820160405261060a9190810190611c61565b9150915080156106a2576040805160a081018252600080825282518084018452601481527f43616c6c20746f20636c61696d206661696c6564000000000000000000000000602082810191909152808401919091528351808201855282815283850152835180820185528281526060840152835180820190945290835260808201929092529085015161069c916110b4565b50610745565b6000546040517f70a082310000000000000000000000000000000000000000000000000000000081526001600160a01b0391821660048201526107439161073891908816906370a0823190602401602060405180830381865afa15801561070d573d6000803e3d6000fd5b505050506040513d601f19601f820116820180604052508101906107319190611c48565b606461025e565b6020860151906110b4565b505b600054604051630f41a04d60e11b81526001600160a01b03878116600483015290911690631e83409a906024016000604051808303816000875af1158015610791573d6000803e3d6000fd5b505050506040513d6000823e601f3d908101601f191682016040526107b99190810190611c61565b90925090508061083a576108346040518060a00160405280600015158152602001604051806060016040528060228152602001612020602291398152604080516020818101835260008083528185019290925282518082018452828152838501528251808201909352908252606090920152860151906110b4565b506108a2565b6040805160048152602481019091526020810180517bffffffffffffffffffffffffffffffffffffffffffffffffffffffff167f0b1327a6000000000000000000000000000000000000000000000000000000001790526108a0906107389084906101af565b505b6000856001600160a01b03166318160ddd6040518163ffffffff1660e01b81526004016020604051808303816000875af11580156108e4573d6000803e3d6000fd5b505050506040513d601f19601f820116820180604052508101906109089190611c48565b905061092761091c82610105876064611d05565b6020870151906110b4565b5093979650505050505050565b6109686040518060a00160405280600015158152602001606081526020016060815260200160608152602001606081525090565b816040516020016109799190611d18565b60405160208183030381529060405280519060200120836040516020016109a09190611d18565b60408051601f198184030181529190528051602090910120148082526109f9576109c983611124565b6109d283611124565b6040516020016109e3929190611bc7565b60408051601f1981840301815291905260208201525b610a0283611124565b60408201526102ec82611124565b610a446040518060a00160405280600015158152602001606081526020016060815260200160608152602001606081525090565b81604051602001610a559190611d7a565b6040516020818303038152906040528051906020012083604051602001610a7c9190611d7a565b60408051601f19818403018152919052805160209091012014808252610ad557610aa5836111f9565b610aae836111f9565b604051602001610abf929190611bc7565b60408051601f1981840301815291905260208201525b610ade836111f9565b60408201526102ec826111f9565b610b206040518060a00160405280600015158152602001606081526020016060815260200160608152602001606081525090565b811515808252610b4957604051806060016040528060228152602001611fce6022913960208201525b600182151514610b76576040518060400160405280600581526020016466616c736560d81b815250610b94565b604051806040016040528060048152602001637472756560e01b8152505b6040808301919091528051602080820183526000825260608401919091528151808301909252600682527f6973547275650000000000000000000000000000000000000000000000000000908201526080820152919050565b610c216040518060a00160405280600015158152602001606081526020016060815260200160608152602001606081525090565b6001600160a01b038381169083168114158252600090610c42906014610e30565b8251909150610c725780604051602001610c5c9190611dc7565b60408051601f1981840301815291905260208301525b60408083019190915280516020808201835260008252606084019190915281518083019092526005825264195c5d585b60da1b90820152608082015292915050565b610ce86040518060a00160405280600015158152602001606081526020016060815260200160608152602001606081525090565b81604051602001610cf99190611e32565b6040516020818303038152906040528051906020012083604051602001610d209190611e32565b60408051601f19818403018152919052805160209091012014808252610d7957610d49836112d5565b610d52836112d5565b604051602001610d63929190611bc7565b60408051601f1981840301815291905260208201525b610d82836112d5565b60408201526102ec826112d5565b60606000610d9d836113a6565b600101905060008167ffffffffffffffff811115610dbd57610dbd6115f0565b6040519080825280601f01601f191660200182016040528015610de7576020820181803683370190505b5090508181016020015b600019017f3031323334353637383961626364656600000000000000000000000000000000600a86061a8153600a8504945084610df157509392505050565b60606000610e3f836002611e6a565b610e4a906002611d05565b67ffffffffffffffff811115610e6257610e626115f0565b6040519080825280601f01601f191660200182016040528015610e8c576020820181803683370190505b5090507f300000000000000000000000000000000000000000000000000000000000000081600081518110610ec357610ec3611e81565b60200101906001600160f81b031916908160001a9053507f780000000000000000000000000000000000000000000000000000000000000081600181518110610f0e57610f0e611e81565b60200101906001600160f81b031916908160001a9053506000610f32846002611e6a565b610f3d906001611d05565b90505b6001811115610fc2577f303132333435363738396162636465660000000000000000000000000000000085600f1660108110610f7e57610f7e611e81565b1a60f81b828281518110610f9457610f94611e81565b60200101906001600160f81b031916908160001a90535060049490941c93610fbb81611e97565b9050610f40565b50831561102f576040517f08c379a000000000000000000000000000000000000000000000000000000000815260206004820181905260248201527f537472696e67733a20686578206c656e67746820696e73756666696369656e74604482015260640160405180910390fd5b90505b92915050565b60408051808201825260608152600060208201528151600480825260a082019093529091816020015b6110956040518060a00160405280600015158152602001606081526020016060815260200160608152602001606081525090565b8152602001906001900390816110615750508252506000602082015290565b6040805180820190915260608152600060208201528251516020840151036110e2576110df83611488565b92505b8183600001518460200151815181106110fd576110fd611e81565b602002602001018190525082602001805180919061111a90611eae565b9052509192915050565b6040805180820190915260018152605b60f81b602082015260609060005b83518110156111f257600184516111599190611ec7565b8110156111a2578184828151811061117357611173611e81565b602002602001015160405160200161118c929190611eda565b60405160208183030381529060405291506111e0565b818482815181106111b5576111b5611e81565b60200260200101516040516020016111ce929190611f31565b60405160208183030381529060405291505b806111ea81611eae565b915050611142565b5092915050565b6040805180820190915260018152605b60f81b602082015260609060005b83518110156111f2576001845161122e9190611ec7565b81101561128a578161126385838151811061124b5761124b611e81565b60200260200101516001600160a01b03166014610e30565b604051602001611274929190611eda565b60405160208183030381529060405291506112c3565b816112a085838151811061124b5761124b611e81565b6040516020016112b1929190611f31565b60405160208183030381529060405291505b806112cd81611eae565b915050611217565b6040805180820190915260018152605b60f81b602082015260609060005b83518110156111f2576001845161130a9190611ec7565b81101561135b578161133485838151811061132757611327611e81565b6020026020010151610d90565b604051602001611345929190611eda565b6040516020818303038152906040529150611394565b8161137185838151811061132757611327611e81565b604051602001611382929190611f31565b60405160208183030381529060405291505b8061139e81611eae565b9150506112f3565b6000807a184f03e93ff9f4daa797ed6e38ed64bf6a1f01000000000000000083106113ef577a184f03e93ff9f4daa797ed6e38ed64bf6a1f010000000000000000830492506040015b6d04ee2d6d415b85acef8100000000831061141b576d04ee2d6d415b85acef8100000000830492506020015b662386f26fc10000831061143957662386f26fc10000830492506010015b6305f5e1008310611451576305f5e100830492506008015b612710831061146557612710830492506004015b60648310611477576064830492506002015b600a83106110325760010192915050565b6040805180820190915260608152600060208201526040805180820190915260608152600060208201528251516002906114c3906003611e6a565b6114cd9190611f88565b67ffffffffffffffff8111156114e5576114e56115f0565b60405190808252806020026020018201604052801561154a57816020015b6115376040518060a00160405280600015158152602001606081526020016060815260200160608152602001606081525090565b8152602001906001900390816115035790505b50815260005b8351518110156115aa57835180518290811061156e5761156e611e81565b60200260200101518260000151828151811061158c5761158c611e81565b602002602001018190525080806115a290611eae565b915050611550565b50602092830151928101929092525090565b6040518060400160405280606081526020016115eb604051806040016040528060608152602001600081525090565b905290565b634e487b7160e01b600052604160045260246000fd5b604051601f8201601f1916810167ffffffffffffffff8111828210171561162f5761162f6115f0565b604052919050565b600067ffffffffffffffff821115611651576116516115f0565b50601f01601f191660200190565b600082601f83011261167057600080fd5b813561168361167e82611637565b611606565b81815284602083860101111561169857600080fd5b816020850160208301376000918101602001919091529392505050565b600080604083850312156116c857600080fd5b823567ffffffffffffffff808211156116e057600080fd5b6116ec8683870161165f565b9350602085013591508082111561170257600080fd5b5061170f8582860161165f565b9150509250929050565b60005b8381101561173457818101518382015260200161171c565b50506000910152565b60008151808452611755816020860160208601611719565b601f01601f19169290920160200192915050565b8051151582526000602082015160a0602085015261178a60a085018261173d565b9050604083015184820360408601526117a3828261173d565b915050606083015184820360608601526117bd828261173d565b915050608083015184820360808601526117d7828261173d565b95945050505050565b6020815260006117f36020830184611769565b9392505050565b6000806040838503121561180d57600080fd5b50508035926020909101359150565b80356001600160a01b038116811461183357600080fd5b919050565b6000806040838503121561184b57600080fd5b6118548361181c565b91506118626020840161181c565b90509250929050565b801515811461187957600080fd5b50565b60006020828403121561188e57600080fd5b813561102f8161186b565b6000602082840312156118ab57600080fd5b6117f38261181c565b6000602080835283516040828501526118d0606085018261173d565b905081850151601f198583030160408601526040820181516040845281815180845260608601915060608160051b8701019350868301925060005b8181101561193957605f19878603018352611927858551611769565b9450928701929187019160010161190b565b505050509083015191909201529392505050565b600067ffffffffffffffff821115611967576119676115f0565b5060051b60200190565b600082601f83011261198257600080fd5b8135602061199261167e8361194d565b82815260059290921b840181019181810190868411156119b157600080fd5b8286015b848110156119f157803567ffffffffffffffff8111156119d55760008081fd5b6119e38986838b010161165f565b8452509183019183016119b5565b509695505050505050565b60008060408385031215611a0f57600080fd5b823567ffffffffffffffff80821115611a2757600080fd5b611a3386838701611971565b93506020850135915080821115611a4957600080fd5b5061170f85828601611971565b600082601f830112611a6757600080fd5b81356020611a7761167e8361194d565b82815260059290921b84018101918181019086841115611a9657600080fd5b8286015b848110156119f157611aab8161181c565b8352918301918301611a9a565b60008060408385031215611acb57600080fd5b823567ffffffffffffffff80821115611ae357600080fd5b611aef86838701611a56565b93506020850135915080821115611b0557600080fd5b5061170f85828601611a56565b600082601f830112611b2357600080fd5b81356020611b3361167e8361194d565b82815260059290921b84018101918181019086841115611b5257600080fd5b8286015b848110156119f15780358352918301918301611b56565b60008060408385031215611b8057600080fd5b823567ffffffffffffffff80821115611b9857600080fd5b611ba486838701611b12565b93506020850135915080821115611bba57600080fd5b5061170f85828601611b12565b7f417373657274696f6e4572726f723a2000000000000000000000000000000000815260008351611bff816010850160208801611719565b7f206973206e6f7420657175616c20746f200000000000000000000000000000006010918401918201528351611c3c816021840160208801611719565b01602101949350505050565b600060208284031215611c5a57600080fd5b5051919050565b60008060408385031215611c7457600080fd5b825167ffffffffffffffff811115611c8b57600080fd5b8301601f81018513611c9c57600080fd5b8051611caa61167e82611637565b818152866020838501011115611cbf57600080fd5b611cd0826020830160208601611719565b8094505050506020830151611ce48161186b565b809150509250929050565b634e487b7160e01b600052601160045260246000fd5b8082018082111561103257611032611cef565b6000602080830181845280855180835260408601915060408160051b870101925083870160005b82811015611d6d57603f19888603018452611d5b85835161173d565b94509285019290850190600101611d3f565b5092979650505050505050565b6020808252825182820181905260009190848201906040850190845b81811015611dbb5783516001600160a01b031683529284019291840191600101611d96565b50909695505050505050565b7f417373657274696f6e4572726f723a200000000000000000000000000000000081527f20426f74682076616c7565732061726500000000000000000000000000000000601082015260008251611e25816020850160208701611719565b9190910160200192915050565b6020808252825182820181905260009190848201906040850190845b81811015611dbb57835183529284019291840191600101611e4e565b808202811582820484141761103257611032611cef565b634e487b7160e01b600052603260045260246000fd5b600081611ea657611ea6611cef565b506000190190565b600060018201611ec057611ec0611cef565b5060010190565b8181038181111561103257611032611cef565b60008351611eec818460208801611719565b835190830190611f00818360208801611719565b7f2c200000000000000000000000000000000000000000000000000000000000009101908152600201949350505050565b60008351611f43818460208801611719565b835190830190611f57818360208801611719565b7f5d000000000000000000000000000000000000000000000000000000000000009101908152600101949350505050565b600082611fa557634e487b7160e01b600052601260045260246000fd5b50049056fe417373657274696f6e4572726f723a20726573756c74206973206e6f742066616c7365417373657274696f6e4572726f723a20726573756c74206973206e6f7420747275655365636f6e6420757365722073686f756c642062652061626c6520746f20636c61696d2065786163746c79206f6e6365457870656374656420726576657274207769746820546f6b656e73436c61696d6564a264697066735822122094f36825a322988d73e3266491a00f44e835b340cd46712a421df70d0252e23c64736f6c6343000811003360806040523480156200001157600080fd5b506040516200300538038062003005833981016040819052620000349162000094565b600080546001600160a01b039485166001600160a01b031991821617909155600180549385169382169390931790925560028054919093169116179055620000de565b80516001600160a01b03811681146200008f57600080fd5b919050565b600080600060608486031215620000aa57600080fd5b620000b58462000077565b9250620000c56020850162000077565b9150620000d56040850162000077565b90509250925092565b612f1780620000ee6000396000f3fe608060405234801561001057600080fd5b50600436106100c95760003560e01c80634b64e4921161008157806374f130701161005b57806374f1307014610176578063d70968e714610189578063e7da4c7e1461019c57600080fd5b80634b64e4921461013057806360fb55d5146101505780636df864781461016357600080fd5b806331495d33116100b257806331495d331461010a578063410dbb8b1461011d57806346bdca9a146100ce57600080fd5b8063235266d2146100ce57806330191626146100f7575b600080fd5b6100e16100dc366004612346565b6101af565b6040516100ee9190612471565b60405180910390f35b6100e161010536600461248b565b61025e565b6100e16101183660046124c5565b610318565b6100e161012b36600461250c565b6103e9565b61014361013e366004612529565b6104e9565b6040516100ee9190612546565b6100e161015e36600461268e565b6111e1565b6100e161017136600461274c565b6112bd565b6100e161018436600461250c565b611399565b6100e16101973660046124c5565b61149a565b6100e16101aa366004612801565b611561565b6101e36040518060a00160405280600015158152602001606081526020016060815260200160608152602001606081525090565b81516020808401919091208451918501919091201480825261022857828260405160200161021292919061285b565b60408051601f1981840301815291905260208201525b604080820193909352606081019190915281518083019092526005825264195c5d585b60da1b6020830152608081019190915290565b6102926040518060a00160405280600015158152602001606081526020016060815260200160608152602001606081525090565b8282148082526102d5576102a58361163d565b6102ae8361163d565b6040516020016102bf92919061285b565b60408051601f1981840301815291905260208201525b6102de8361163d565b60408201526102ec8261163d565b6060820152604080518082019091526005815264195c5d585b60da1b6020820152608082015292915050565b61034c6040518060a00160405280600015158152602001606081526020016060815260200160608152602001606081525090565b6001600160a01b038381169083168114825260009061036c9060146116dd565b90506000610384846001600160a01b031660146116dd565b83519091506103b65781816040516020016103a092919061285b565b60408051601f1981840301815291905260208401525b604080840192909252606083015280518082019091526005815264195c5d585b60da1b6020820152608082015292915050565b61041d6040518060a00160405280600015158152602001606081526020016060815260200160608152602001606081525090565b811580825261044557604051806060016040528060238152602001612e6f6023913960208201525b600182151514610472576040518060400160405280600581526020016466616c736560d81b815250610490565b604051806040016040528060048152602001637472756560e01b8152505b6040808301919091528051602080820183526000825260608401919091528151808301909252600782527f697346616c736500000000000000000000000000000000000000000000000000908201526080820152919050565b6104f1612223565b816104fa612223565b61050781602001516118e5565b50604051806060016040528060288152602001612e476028913981600001819052506000806000610570856040518060400160405280601c81526020017f57652073686f756c6420616c6c206c6561726e20466f727472616e210000000081525061012c611961565b925092509250816105f2576105ec6040518060a001604052806000151581526020016040518060600160405280602e8152602001612eb4602e9139815260408051602081810183526000808352818501929092528251808201845282815283850152825180820190935290825260609092015286015190611a33565b50610665565b6040805160048152602481019091526020810180517bffffffffffffffffffffffffffffffffffffffffffffffffffffffff167f8439960d00000000000000000000000000000000000000000000000000000000179052610663906106589085906101af565b602086015190611a33565b505b6000856001600160a01b03166318160ddd6040518163ffffffff1660e01b81526004016020604051808303816000875af11580156106a7573d6000803e3d6000fd5b505050506040513d601f19601f820116820180604052508101906106cb91906128dc565b90506106d686611aa3565b9094509250821561076b576040805160a081018252600080825282518084018452601481527f43616c6c20746f20636c61696d206661696c6564000000000000000000000000602082810191909152808401919091528351808201855282815283850152835180820185528281526060840152835180820190945290835260808201929092529086015161076991611a33565b505b600154604051630f41a04d60e11b81526001600160a01b03888116600483015290911690631e83409a906024016000604051808303816000875af11580156107b7573d6000803e3d6000fd5b505050506040513d6000823e601f3d908101601f191682016040526107df9190810190612952565b90945092508215610874576040805160a081018252600080825282518084018452601481527f43616c6c20746f20636c61696d206661696c6564000000000000000000000000602082810191909152808401919091528351808201855282815283850152835180820185528281526060840152835180820190945290835260808201929092529086015161087291611a33565b505b600254604051630f41a04d60e11b81526001600160a01b03888116600483015290911690631e83409a906024016000604051808303816000875af11580156108c0573d6000803e3d6000fd5b505050506040513d6000823e601f3d908101601f191682016040526108e89190810190612952565b9094509250821561097d576040805160a081018252600080825282518084018452601481527f43616c6c20746f20636c61696d206661696c6564000000000000000000000000602082810191909152808401919091528351808201855282815283850152835180820185528281526060840152835180820190945290835260808201929092529086015161097b91611a33565b505b6002546040517fa9059cbb0000000000000000000000000000000000000000000000000000000081526001600160a01b039182166004820152603260248201529087169063a9059cbb90604401600060405180830381600087803b1580156109e457600080fd5b505af11580156109f8573d6000803e3d6000fd5b505050506000866001600160a01b03166318160ddd6040518163ffffffff1660e01b81526004016020604051808303816000875af1158015610a3e573d6000803e3d6000fd5b505050506040513d601f19601f82011682018060405250810190610a6291906128dc565b9050610a82610a77826101058561012c6129af565b602088015190611a33565b50610ac5876040518060400160405280601d81526020017f57652073686f756c6420616c6c206c6561726e20536f6c696469747921000000815250610190611961565b919650945092508315610b5c576040805160a081018252600080825282518084018452601a81527f43616c6c20746f206372656174654973737565206661696c65640000000000006020828101919091528084019190915283518082018552828152838501528351808201855282815260608401528351808201909452908352608082019290925290870151610b5a91611a33565b505b610b6887846001611b4a565b90955093508315610bf3576040805160a081018252600080825282518084018452601381527210d85b1b081d1bc81d9bdd194819985a5b1959606a1b6020828101919091528084019190915283518082018552828152838501528351808201855282815260608401528351808201909452908352608082019290925290870151610bf191611a33565b505b610bff87846001611b4a565b909550935083610c8057610c7a6040518060a00160405280600015158152602001604051806060016040528060278152602001612e2060279139815260408051602081810183526000808352818501929092528251808201845282815283850152825180820190935290825260609092015288015190611a33565b50610ce8565b6040805160048152602481019091526020810180517bffffffffffffffffffffffffffffffffffffffffffffffffffffffff167f7c9a1cf900000000000000000000000000000000000000000000000000000000179052610ce690610a779087906101af565b505b60008054604051636a348b7b60e01b81526001600160a01b0390911691636a348b7b91610d1c918b918891906004016129e4565b6000604051808303816000875af1158015610d3b573d6000803e3d6000fd5b505050506040513d6000823e601f3d908101601f19168201604052610d639190810190612952565b90955093508315610dee576040805160a081018252600080825282518084018452601381527210d85b1b081d1bc81d9bdd194819985a5b1959606a1b6020828101919091528084019190915283518082018552828152838501528351808201855282815260608401528351808201909452908352608082019290925290870151610dec91611a33565b505b60018054604051636a348b7b60e01b81526001600160a01b0390911691636a348b7b91610e22918b918891906004016129e4565b6000604051808303816000875af1158015610e41573d6000803e3d6000fd5b505050506040513d6000823e601f3d908101601f19168201604052610e699190810190612952565b90955093508315610ef4576040805160a081018252600080825282518084018452601381527210d85b1b081d1bc81d9bdd194819985a5b1959606a1b6020828101919091528084019190915283518082018552828152838501528351808201855282815260608401528351808201909452908352608082019290925290870151610ef291611a33565b505b60028054604051636a348b7b60e01b81526001600160a01b0390911691636a348b7b91610f28918b918891906004016129e4565b6000604051808303816000875af1158015610f47573d6000803e3d6000fd5b505050506040513d6000823e601f3d908101601f19168201604052610f6f9190810190612952565b90955093508315610ffa576040805160a081018252600080825282518084018452601381527210d85b1b081d1bc81d9bdd194819985a5b1959606a1b6020828101919091528084019190915283518082018552828152838501528351808201855282815260608401528351808201909452908352608082019290925290870151610ff891611a33565b505b61104d604051806101200160405280606081526020016060815260200160008152602001600081526020016000815260200160008152602001600081526020016000151581526020016000151581525090565b6110578885611c01565b9197509550905084156110e8576040805160a081018252600080825282518084018452601381527210d85b1b081d1bc81d9bdd194819985a5b1959606a1b60208281019190915280840191909152835180820185528281528385015283518082018552828152606084015283518082019094529083526080820192909252908801516110e291611a33565b506111d3565b6111066110fb826000015151600461025e565b602089015190611a33565b5061114d6110fb82602001516040518060400160405280601d81526020017f57652073686f756c6420616c6c206c6561726e20536f6c6964697479210000008152506101af565b506111606110fb8260400151609661025e565b506111736110fb8260600151606461025e565b506111866110fb8260800151609661025e565b5061119a6110fb8260a0015161019061025e565b506111ae6110fb8260c0015161019061025e565b506111c06110fb826101000151611399565b506111d16110fb8260e00151611399565b505b509498975050505050505050565b6112156040518060a00160405280600015158152602001606081526020016060815260200160608152602001606081525090565b816040516020016112269190612a08565b604051602081830303815290604052805190602001208360405160200161124d9190612a08565b60408051601f198184030181529190528051602090910120148082526112a65761127683611d8b565b61127f83611d8b565b60405160200161129092919061285b565b60408051601f1981840301815291905260208201525b6112af83611d8b565b60408201526102ec82611d8b565b6112f16040518060a00160405280600015158152602001606081526020016060815260200160608152602001606081525090565b816040516020016113029190612a6a565b60405160208183030381529060405280519060200120836040516020016113299190612a6a565b60408051601f198184030181529190528051602090910120148082526113825761135283611e60565b61135b83611e60565b60405160200161136c92919061285b565b60408051601f1981840301815291905260208201525b61138b83611e60565b60408201526102ec82611e60565b6113cd6040518060a00160405280600015158152602001606081526020016060815260200160608152602001606081525090565b8115158082526113f657604051806060016040528060228152602001612e926022913960208201525b600182151514611423576040518060400160405280600581526020016466616c736560d81b815250611441565b604051806040016040528060048152602001637472756560e01b8152505b6040808301919091528051602080820183526000825260608401919091528151808301909252600682527f6973547275650000000000000000000000000000000000000000000000000000908201526080820152919050565b6114ce6040518060a00160405280600015158152602001606081526020016060815260200160608152602001606081525090565b6001600160a01b0383811690831681141582526000906114ef9060146116dd565b825190915061151f57806040516020016115099190612ab7565b60408051601f1981840301815291905260208301525b60408083019190915280516020808201835260008252606084019190915281518083019092526005825264195c5d585b60da1b90820152608082015292915050565b6115956040518060a00160405280600015158152602001606081526020016060815260200160608152602001606081525090565b816040516020016115a69190612b22565b60405160208183030381529060405280519060200120836040516020016115cd9190612b22565b60408051601f19818403018152919052805160209091012014808252611626576115f683611f3c565b6115ff83611f3c565b60405160200161161092919061285b565b60408051601f1981840301815291905260208201525b61162f83611f3c565b60408201526102ec82611f3c565b6060600061164a8361200d565b600101905060008167ffffffffffffffff81111561166a5761166a612257565b6040519080825280601f01601f191660200182016040528015611694576020820181803683370190505b5090508181016020015b600019017f3031323334353637383961626364656600000000000000000000000000000000600a86061a8153600a850494508461169e57509392505050565b606060006116ec836002612b5a565b6116f79060026129af565b67ffffffffffffffff81111561170f5761170f612257565b6040519080825280601f01601f191660200182016040528015611739576020820181803683370190505b5090507f30000000000000000000000000000000000000000000000000000000000000008160008151811061177057611770612b71565b60200101906001600160f81b031916908160001a9053507f7800000000000000000000000000000000000000000000000000000000000000816001815181106117bb576117bb612b71565b60200101906001600160f81b031916908160001a90535060006117df846002612b5a565b6117ea9060016129af565b90505b600181111561186f577f303132333435363738396162636465660000000000000000000000000000000085600f166010811061182b5761182b612b71565b1a60f81b82828151811061184157611841612b71565b60200101906001600160f81b031916908160001a90535060049490941c9361186881612b87565b90506117ed565b5083156118dc576040517f08c379a000000000000000000000000000000000000000000000000000000000815260206004820181905260248201527f537472696e67733a20686578206c656e67746820696e73756666696369656e74604482015260640160405180910390fd5b90505b92915050565b60408051808201825260608152600060208201528151600480825260a082019093529091816020015b6119426040518060a00160405280600015158152602001606081526020016060815260200160608152602001606081525090565b81526020019060019003908161190e5750508252506000602082015290565b6060600080856001600160a01b0316638615d85586866040518363ffffffff1660e01b8152600401611994929190612b9e565b6020604051808303816000875af19250505080156119cf575060408051601f3d908101601f191682019092526119cc918101906128dc565b60015b611a12573d8080156119fd576040519150601f19603f3d011682016040523d82523d6000602084013e611a02565b606091505b5092506001915060009050611a2a565b60408051602081019091526000808252909450925090505b93509350939050565b604080518082019091526060815260006020820152825151602084015103611a6157611a5e836120ef565b92505b818360000151846020015181518110611a7c57611a7c612b71565b6020026020010181905250826020018051809190611a9990612bc0565b9052509192915050565b60606000826001600160a01b0316634e71d92d6040518163ffffffff1660e01b8152600401600060405180830381600087803b158015611ae257600080fd5b505af1925050508015611af3575060015b611b31573d808015611b21576040519150601f19603f3d011682016040523d82523d6000602084013e611b26565b606091505b509360019350915050565b5050604080516020810190915260008082529092909150565b60606000846001600160a01b031663943e821685856040518363ffffffff1660e01b8152600401611b7c929190612bd9565b600060405180830381600087803b158015611b9657600080fd5b505af1925050508015611ba7575060015b611be6573d808015611bd5576040519150601f19603f3d011682016040523d82523d6000602084013e611bda565b606091505b50915060019050611bf9565b5050604080516020810190915260008082525b935093915050565b60606000611c58604051806101200160405280606081526020016060815260200160008152602001600081526020016000815260200160008152602001600081526020016000151581526020016000151581525090565b6040517f976b3113000000000000000000000000000000000000000000000000000000008152600481018590526001600160a01b0386169063976b311390602401600060405180830381865afa925050508015611cd757506040513d6000823e601f3d908101601f19168201604052611cd49190810190612c51565b60015b611d6c573d808015611d05576040519150601f19603f3d011682016040523d82523d6000602084013e611d0a565b606091505b50611d5e604051806101200160405280606081526020016060815260200160008152602001600081526020016000815260200160008152602001600081526020016000151581526020016000151581525090565b909350600192509050611d84565b60408051602081019091526000808252909450925090505b9250925092565b6040805180820190915260018152605b60f81b602082015260609060005b8351811015611e595760018451611dc09190612d3c565b811015611e095781848281518110611dda57611dda612b71565b6020026020010151604051602001611df3929190612d4f565b6040516020818303038152906040529150611e47565b81848281518110611e1c57611e1c612b71565b6020026020010151604051602001611e35929190612da6565b60405160208183030381529060405291505b80611e5181612bc0565b915050611da9565b5092915050565b6040805180820190915260018152605b60f81b602082015260609060005b8351811015611e595760018451611e959190612d3c565b811015611ef15781611eca858381518110611eb257611eb2612b71565b60200260200101516001600160a01b031660146116dd565b604051602001611edb929190612d4f565b6040516020818303038152906040529150611f2a565b81611f07858381518110611eb257611eb2612b71565b604051602001611f18929190612da6565b60405160208183030381529060405291505b80611f3481612bc0565b915050611e7e565b6040805180820190915260018152605b60f81b602082015260609060005b8351811015611e595760018451611f719190612d3c565b811015611fc25781611f9b858381518110611f8e57611f8e612b71565b602002602001015161163d565b604051602001611fac929190612d4f565b6040516020818303038152906040529150611ffb565b81611fd8858381518110611f8e57611f8e612b71565b604051602001611fe9929190612da6565b60405160208183030381529060405291505b8061200581612bc0565b915050611f5a565b6000807a184f03e93ff9f4daa797ed6e38ed64bf6a1f0100000000000000008310612056577a184f03e93ff9f4daa797ed6e38ed64bf6a1f010000000000000000830492506040015b6d04ee2d6d415b85acef81000000008310612082576d04ee2d6d415b85acef8100000000830492506020015b662386f26fc1000083106120a057662386f26fc10000830492506010015b6305f5e10083106120b8576305f5e100830492506008015b61271083106120cc57612710830492506004015b606483106120de576064830492506002015b600a83106118df5760010192915050565b60408051808201909152606081526000602082015260408051808201909152606081526000602082015282515160029061212a906003612b5a565b6121349190612dfd565b67ffffffffffffffff81111561214c5761214c612257565b6040519080825280602002602001820160405280156121b157816020015b61219e6040518060a00160405280600015158152602001606081526020016060815260200160608152602001606081525090565b81526020019060019003908161216a5790505b50815260005b8351518110156122115783518051829081106121d5576121d5612b71565b6020026020010151826000015182815181106121f3576121f3612b71565b6020026020010181905250808061220990612bc0565b9150506121b7565b50602092830151928101929092525090565b604051806040016040528060608152602001612252604051806040016040528060608152602001600081525090565b905290565b634e487b7160e01b600052604160045260246000fd5b604051610120810167ffffffffffffffff8111828210171561229157612291612257565b60405290565b604051601f8201601f1916810167ffffffffffffffff811182821017156122c0576122c0612257565b604052919050565b600067ffffffffffffffff8211156122e2576122e2612257565b50601f01601f191660200190565b600082601f83011261230157600080fd5b813561231461230f826122c8565b612297565b81815284602083860101111561232957600080fd5b816020850160208301376000918101602001919091529392505050565b6000806040838503121561235957600080fd5b823567ffffffffffffffff8082111561237157600080fd5b61237d868387016122f0565b9350602085013591508082111561239357600080fd5b506123a0858286016122f0565b9150509250929050565b60005b838110156123c55781810151838201526020016123ad565b50506000910152565b600081518084526123e68160208601602086016123aa565b601f01601f19169290920160200192915050565b8051151582526000602082015160a0602085015261241b60a08501826123ce565b90506040830151848203604086015261243482826123ce565b9150506060830151848203606086015261244e82826123ce565b9150506080830151848203608086015261246882826123ce565b95945050505050565b60208152600061248460208301846123fa565b9392505050565b6000806040838503121561249e57600080fd5b50508035926020909101359150565b6001600160a01b03811681146124c257600080fd5b50565b600080604083850312156124d857600080fd5b82356124e3816124ad565b915060208301356124f3816124ad565b809150509250929050565b80151581146124c257600080fd5b60006020828403121561251e57600080fd5b81356118dc816124fe565b60006020828403121561253b57600080fd5b81356118dc816124ad565b60006020808352835160408285015261256260608501826123ce565b905081850151601f198583030160408601526040820181516040845281815180845260608601915060608160051b8701019350868301925060005b818110156125cb57605f198786030183526125b98585516123fa565b9450928701929187019160010161259d565b505050509083015191909201529392505050565b600067ffffffffffffffff8211156125f9576125f9612257565b5060051b60200190565b600082601f83011261261457600080fd5b8135602061262461230f836125df565b82815260059290921b8401810191818101908684111561264357600080fd5b8286015b8481101561268357803567ffffffffffffffff8111156126675760008081fd5b6126758986838b01016122f0565b845250918301918301612647565b509695505050505050565b600080604083850312156126a157600080fd5b823567ffffffffffffffff808211156126b957600080fd5b6126c586838701612603565b935060208501359150808211156126db57600080fd5b506123a085828601612603565b600082601f8301126126f957600080fd5b8135602061270961230f836125df565b82815260059290921b8401810191818101908684111561272857600080fd5b8286015b8481101561268357803561273f816124ad565b835291830191830161272c565b6000806040838503121561275f57600080fd5b823567ffffffffffffffff8082111561277757600080fd5b612783868387016126e8565b9350602085013591508082111561279957600080fd5b506123a0858286016126e8565b600082601f8301126127b757600080fd5b813560206127c761230f836125df565b82815260059290921b840181019181810190868411156127e657600080fd5b8286015b8481101561268357803583529183019183016127ea565b6000806040838503121561281457600080fd5b823567ffffffffffffffff8082111561282c57600080fd5b612838868387016127a6565b9350602085013591508082111561284e57600080fd5b506123a0858286016127a6565b7f417373657274696f6e4572726f723a20000000000000000000000000000000008152600083516128938160108501602088016123aa565b7f206973206e6f7420657175616c20746f2000000000000000000000000000000060109184019182015283516128d08160218401602088016123aa565b01602101949350505050565b6000602082840312156128ee57600080fd5b5051919050565b600082601f83011261290657600080fd5b815161291461230f826122c8565b81815284602083860101111561292957600080fd5b61293a8260208301602087016123aa565b949350505050565b805161294d816124fe565b919050565b6000806040838503121561296557600080fd5b825167ffffffffffffffff81111561297c57600080fd5b612988858286016128f5565b92505060208301516124f3816124fe565b634e487b7160e01b600052601160045260246000fd5b808201808211156118df576118df612999565b600381106129e057634e487b7160e01b600052602160045260246000fd5b9052565b6001600160a01b0384168152602081018390526060810161293a60408301846129c2565b6000602080830181845280855180835260408601915060408160051b870101925083870160005b82811015612a5d57603f19888603018452612a4b8583516123ce565b94509285019290850190600101612a2f565b5092979650505050505050565b6020808252825182820181905260009190848201906040850190845b81811015612aab5783516001600160a01b031683529284019291840191600101612a86565b50909695505050505050565b7f417373657274696f6e4572726f723a200000000000000000000000000000000081527f20426f74682076616c7565732061726500000000000000000000000000000000601082015260008251612b158160208501602087016123aa565b9190910160200192915050565b6020808252825182820181905260009190848201906040850190845b81811015612aab57835183529284019291840191600101612b3e565b80820281158282048414176118df576118df612999565b634e487b7160e01b600052603260045260246000fd5b600081612b9657612b96612999565b506000190190565b604081526000612bb160408301856123ce565b90508260208301529392505050565b600060018201612bd257612bd2612999565b5060010190565b8281526040810161248460208301846129c2565b600082601f830112612bfe57600080fd5b81516020612c0e61230f836125df565b82815260059290921b84018101918181019086841115612c2d57600080fd5b8286015b84811015612683578051612c44816124ad565b8352918301918301612c31565b600060208284031215612c6357600080fd5b815167ffffffffffffffff80821115612c7b57600080fd5b908301906101208286031215612c9057600080fd5b612c9861226d565b825182811115612ca757600080fd5b612cb387828601612bed565b825250602083015182811115612cc857600080fd5b612cd4878286016128f5565b60208301525060408301516040820152606083015160608201526080830151608082015260a083015160a082015260c083015160c0820152612d1860e08401612942565b60e08201526101009150612d2d828401612942565b91810191909152949350505050565b818103818111156118df576118df612999565b60008351612d618184602088016123aa565b835190830190612d758183602088016123aa565b7f2c200000000000000000000000000000000000000000000000000000000000009101908152600201949350505050565b60008351612db88184602088016123aa565b835190830190612dcc8183602088016123aa565b7f5d000000000000000000000000000000000000000000000000000000000000009101908152600101949350505050565b600082612e1a57634e487b7160e01b600052601260045260246000fd5b50049056fe766f746520646964206e6f7420726576657274207769746820416c7265616479566f746564282953686f756c642063726561746520616e6420616c6c6f7720766f74696e67206f6e20697373756573417373657274696f6e4572726f723a20726573756c74206973206e6f742066616c7365417373657274696f6e4572726f723a20726573756c74206973206e6f742074727565637265617465497373756520646964206e6f74207265766572742077697468204e6f546f6b656e7348656c642829a26469706673582212201f46c36ba1a0381a527101cf93fc845332a5792ed869dd78d1dfd21711f122ee64736f6c63430008110033",
  "devdoc": {
    "kind": "dev",
    "methods": {
      "approve(address,uint256)": {
        "details": "See {IERC721-approve}."
      },
      "balanceOf(address)": {
        "details": "See {IERC721-balanceOf}."
      },
      "getApproved(uint256)": {
        "details": "See {IERC721-getApproved}."
      },
      "isApprovedForAll(address,address)": {
        "details": "See {IERC721-isApprovedForAll}."
      },
      "name()": {
        "details": "See {IERC721Metadata-name}."
      },
      "owner()": {
        "details": "Returns the address of the current owner."
      },
      "ownerOf(uint256)": {
        "details": "See {IERC721-ownerOf}."
      },
      "renounceOwnership()": {
        "details": "Leaves the contract without owner. It will not be possible to call `onlyOwner` functions anymore. Can only be called by the current owner. NOTE: Renouncing ownership will leave the contract without an owner, thereby removing any functionality that is only available to the owner."
      },
      "safeTransferFrom(address,address,uint256)": {
        "details": "See {IERC721-safeTransferFrom}."
      },
      "safeTransferFrom(address,address,uint256,bytes)": {
        "details": "See {IERC721-safeTransferFrom}."
      },
      "setApprovalForAll(address,bool)": {
        "details": "See {IERC721-setApprovalForAll}."
      },
      "supportsInterface(bytes4)": {
        "details": "See {IERC165-supportsInterface}."
      },
      "symbol()": {
        "details": "See {IERC721Metadata-symbol}."
      },
      "transferFrom(address,address,uint256)": {
        "details": "See {IERC721-transferFrom}."
      },
      "transferOwnership(address)": {
        "details": "Transfers ownership of the contract to a new account (`newOwner`). Can only be called by the current owner."
      }
    },
    "version": 1
  },
  "userdoc": {
    "kind": "user",
    "methods": {
      "checkIfAllPassed((string,((bool,string,string,string,string)[],uint256))[])": {
        "notice": "Check each assert in each test to see if any failed. Note:  The check is here instead of setting a `passed` bool in `TestResult` to reduce the amount of code in each unit test."
      }
    },
    "version": 1
  },
  "storageLayout": {
    "storage": [
      {
        "astId": 882,
        "contract": "contracts/ERC20UT.sol:ERC20UT",
        "label": "_name",
        "offset": 0,
        "slot": "0",
        "type": "t_string_storage"
      },
      {
        "astId": 884,
        "contract": "contracts/ERC20UT.sol:ERC20UT",
        "label": "_symbol",
        "offset": 0,
        "slot": "1",
        "type": "t_string_storage"
      },
      {
        "astId": 888,
        "contract": "contracts/ERC20UT.sol:ERC20UT",
        "label": "_owners",
        "offset": 0,
        "slot": "2",
        "type": "t_mapping(t_uint256,t_address)"
      },
      {
        "astId": 892,
        "contract": "contracts/ERC20UT.sol:ERC20UT",
        "label": "_balances",
        "offset": 0,
        "slot": "3",
        "type": "t_mapping(t_address,t_uint256)"
      },
      {
        "astId": 896,
        "contract": "contracts/ERC20UT.sol:ERC20UT",
        "label": "_tokenApprovals",
        "offset": 0,
        "slot": "4",
        "type": "t_mapping(t_uint256,t_address)"
      },
      {
        "astId": 902,
        "contract": "contracts/ERC20UT.sol:ERC20UT",
        "label": "_operatorApprovals",
        "offset": 0,
        "slot": "5",
        "type": "t_mapping(t_address,t_mapping(t_address,t_bool))"
      },
      {
        "astId": 7,
        "contract": "contracts/ERC20UT.sol:ERC20UT",
        "label": "_owner",
        "offset": 0,
        "slot": "6",
        "type": "t_address"
      },
      {
        "astId": 123,
        "contract": "contracts/ERC20UT.sol:ERC20UT",
        "label": "_status",
        "offset": 0,
        "slot": "7",
        "type": "t_uint256"
      },
      {
        "astId": 6525,
        "contract": "contracts/ERC20UT.sol:ERC20UT",
        "label": "tokenIds",
        "offset": 0,
        "slot": "8",
        "type": "t_struct(Counter)2320_storage"
      },
      {
        "astId": 6529,
        "contract": "contracts/ERC20UT.sol:ERC20UT",
        "label": "owners",
        "offset": 0,
        "slot": "9",
        "type": "t_mapping(t_address,t_bool)"
      },
      {
        "astId": 6533,
        "contract": "contracts/ERC20UT.sol:ERC20UT",
        "label": "submittedContracts",
        "offset": 0,
        "slot": "10",
        "type": "t_mapping(t_address,t_bool)"
      },
      {
        "astId": 6536,
        "contract": "contracts/ERC20UT.sol:ERC20UT",
        "label": "active",
        "offset": 0,
        "slot": "11",
        "type": "t_bool"
      },
      {
        "astId": 6539,
        "contract": "contracts/ERC20UT.sol:ERC20UT",
        "label": "AllTokenURI",
        "offset": 0,
        "slot": "12",
        "type": "t_string_storage"
      },
      {
        "astId": 6559,
        "contract": "contracts/ERC20UT.sol:ERC20UT",
        "label": "tests",
        "offset": 0,
        "slot": "13",
        "type": "t_array(t_contract(ITest)6495)dyn_storage"
      },
      {
        "astId": 6563,
        "contract": "contracts/ERC20UT.sol:ERC20UT",
        "label": "deployer",
        "offset": 0,
        "slot": "14",
        "type": "t_contract(IDeploy)6506"
      }
    ],
    "types": {
      "t_address": {
        "encoding": "inplace",
        "label": "address",
        "numberOfBytes": "20"
      },
      "t_array(t_contract(ITest)6495)dyn_storage": {
        "base": "t_contract(ITest)6495",
        "encoding": "dynamic_array",
        "label": "contract ITest[]",
        "numberOfBytes": "32"
      },
      "t_bool": {
        "encoding": "inplace",
        "label": "bool",
        "numberOfBytes": "1"
      },
      "t_contract(IDeploy)6506": {
        "encoding": "inplace",
        "label": "contract IDeploy",
        "numberOfBytes": "20"
      },
      "t_contract(ITest)6495": {
        "encoding": "inplace",
        "label": "contract ITest",
        "numberOfBytes": "20"
      },
      "t_mapping(t_address,t_bool)": {
        "encoding": "mapping",
        "key": "t_address",
        "label": "mapping(address => bool)",
        "numberOfBytes": "32",
        "value": "t_bool"
      },
      "t_mapping(t_address,t_mapping(t_address,t_bool))": {
        "encoding": "mapping",
        "key": "t_address",
        "label": "mapping(address => mapping(address => bool))",
        "numberOfBytes": "32",
        "value": "t_mapping(t_address,t_bool)"
      },
      "t_mapping(t_address,t_uint256)": {
        "encoding": "mapping",
        "key": "t_address",
        "label": "mapping(address => uint256)",
        "numberOfBytes": "32",
        "value": "t_uint256"
      },
      "t_mapping(t_uint256,t_address)": {
        "encoding": "mapping",
        "key": "t_uint256",
        "label": "mapping(uint256 => address)",
        "numberOfBytes": "32",
        "value": "t_address"
      },
      "t_string_storage": {
        "encoding": "bytes",
        "label": "string",
        "numberOfBytes": "32"
      },
      "t_struct(Counter)2320_storage": {
        "encoding": "inplace",
        "label": "struct Counters.Counter",
        "members": [
          {
            "astId": 2319,
            "contract": "contracts/ERC20UT.sol:ERC20UT",
            "label": "_value",
            "offset": 0,
            "slot": "0",
            "type": "t_uint256"
          }
        ],
        "numberOfBytes": "32"
      },
      "t_uint256": {
        "encoding": "inplace",
        "label": "uint256",
        "numberOfBytes": "32"
      }
    }
  }
}