{
  "address": "0xc626b3B66c97e8fE114723C7a9c1E16D6F2306ea",
  "abi": [
    {
      "inputs": [
        {
          "internalType": "address",
          "name": "_secondCallerAddress",
          "type": "address"
        },
        {
          "internalType": "address",
          "name": "_thirdCallerAddress",
          "type": "address"
        },
        {
          "internalType": "address",
          "name": "_fourthCallerAddress",
          "type": "address"
        }
      ],
      "stateMutability": "nonpayable",
      "type": "constructor"
    },
    {
      "inputs": [],
      "name": "NotActive",
      "type": "error"
    },
    {
      "inputs": [],
      "name": "SoulboundToken",
      "type": "error"
    },
    {
      "anonymous": false,
      "inputs": [
        {
          "indexed": true,
          "internalType": "address",
          "name": "owner",
          "type": "address"
        },
        {
          "indexed": true,
          "internalType": "address",
          "name": "approved",
          "type": "address"
        },
        {
          "indexed": true,
          "internalType": "uint256",
          "name": "tokenId",
          "type": "uint256"
        }
      ],
      "name": "Approval",
      "type": "event"
    },
    {
      "anonymous": false,
      "inputs": [
        {
          "indexed": true,
          "internalType": "address",
          "name": "owner",
          "type": "address"
        },
        {
          "indexed": true,
          "internalType": "address",
          "name": "operator",
          "type": "address"
        },
        {
          "indexed": false,
          "internalType": "bool",
          "name": "approved",
          "type": "bool"
        }
      ],
      "name": "ApprovalForAll",
      "type": "event"
    },
    {
      "anonymous": false,
      "inputs": [
        {
          "indexed": true,
          "internalType": "address",
          "name": "previousOwner",
          "type": "address"
        },
        {
          "indexed": true,
          "internalType": "address",
          "name": "newOwner",
          "type": "address"
        }
      ],
      "name": "OwnershipTransferred",
      "type": "event"
    },
    {
      "anonymous": false,
      "inputs": [
        {
          "indexed": false,
          "internalType": "address",
          "name": "submission",
          "type": "address"
        },
        {
          "indexed": false,
          "internalType": "bool",
          "name": "passed",
          "type": "bool"
        },
        {
          "components": [
            {
              "internalType": "string",
              "name": "message",
              "type": "string"
            },
            {
              "components": [
                {
                  "components": [
                    {
                      "internalType": "bool",
                      "name": "passed",
                      "type": "bool"
                    },
                    {
                      "internalType": "string",
                      "name": "assertionError",
                      "type": "string"
                    },
                    {
                      "internalType": "string",
                      "name": "returnedAsString",
                      "type": "string"
                    },
                    {
                      "internalType": "string",
                      "name": "expectedAsString",
                      "type": "string"
                    },
                    {
                      "internalType": "string",
                      "name": "methodName",
                      "type": "string"
                    }
                  ],
                  "internalType": "struct Assert.AssertResult[]",
                  "name": "elements",
                  "type": "tuple[]"
                },
                {
                  "internalType": "uint256",
                  "name": "num",
                  "type": "uint256"
                }
              ],
              "internalType": "struct List.ARList",
              "name": "assertResults",
              "type": "tuple"
            }
          ],
          "indexed": false,
          "internalType": "struct Cafe.TestResult[]",
          "name": "testResults",
          "type": "tuple[]"
        }
      ],
      "name": "TestSuiteResult",
      "type": "event"
    },
    {
      "anonymous": false,
      "inputs": [
        {
          "indexed": true,
          "internalType": "address",
          "name": "from",
          "type": "address"
        },
        {
          "indexed": true,
          "internalType": "address",
          "name": "to",
          "type": "address"
        },
        {
          "indexed": true,
          "internalType": "uint256",
          "name": "tokenId",
          "type": "uint256"
        }
      ],
      "name": "Transfer",
      "type": "event"
    },
    {
      "inputs": [
        {
          "internalType": "address",
          "name": "to",
          "type": "address"
        },
        {
          "internalType": "uint256",
          "name": "tokenId",
          "type": "uint256"
        }
      ],
      "name": "approve",
      "outputs": [],
      "stateMutability": "nonpayable",
      "type": "function"
    },
    {
      "inputs": [
        {
          "internalType": "address",
          "name": "owner",
          "type": "address"
        }
      ],
      "name": "balanceOf",
      "outputs": [
        {
          "internalType": "uint256",
          "name": "",
          "type": "uint256"
        }
      ],
      "stateMutability": "view",
      "type": "function"
    },
    {
      "inputs": [
        {
          "components": [
            {
              "internalType": "string",
              "name": "message",
              "type": "string"
            },
            {
              "components": [
                {
                  "components": [
                    {
                      "internalType": "bool",
                      "name": "passed",
                      "type": "bool"
                    },
                    {
                      "internalType": "string",
                      "name": "assertionError",
                      "type": "string"
                    },
                    {
                      "internalType": "string",
                      "name": "returnedAsString",
                      "type": "string"
                    },
                    {
                      "internalType": "string",
                      "name": "expectedAsString",
                      "type": "string"
                    },
                    {
                      "internalType": "string",
                      "name": "methodName",
                      "type": "string"
                    }
                  ],
                  "internalType": "struct Assert.AssertResult[]",
                  "name": "elements",
                  "type": "tuple[]"
                },
                {
                  "internalType": "uint256",
                  "name": "num",
                  "type": "uint256"
                }
              ],
              "internalType": "struct List.ARList",
              "name": "assertResults",
              "type": "tuple"
            }
          ],
          "internalType": "struct Cafe.TestResult[]",
          "name": "_testResults",
          "type": "tuple[]"
        }
      ],
      "name": "checkIfAllPassed",
      "outputs": [
        {
          "internalType": "bool",
          "name": "",
          "type": "bool"
        }
      ],
      "stateMutability": "pure",
      "type": "function"
    },
    {
      "inputs": [
        {
          "internalType": "bytes",
          "name": "a",
          "type": "bytes"
        },
        {
          "internalType": "bytes",
          "name": "b",
          "type": "bytes"
        }
      ],
      "name": "equal",
      "outputs": [
        {
          "components": [
            {
              "internalType": "bool",
              "name": "passed",
              "type": "bool"
            },
            {
              "internalType": "string",
              "name": "assertionError",
              "type": "string"
            },
            {
              "internalType": "string",
              "name": "returnedAsString",
              "type": "string"
            },
            {
              "internalType": "string",
              "name": "expectedAsString",
              "type": "string"
            },
            {
              "internalType": "string",
              "name": "methodName",
              "type": "string"
            }
          ],
          "internalType": "struct Assert.AssertResult",
          "name": "result",
          "type": "tuple"
        }
      ],
      "stateMutability": "pure",
      "type": "function"
    },
    {
      "inputs": [
        {
          "internalType": "uint256",
          "name": "a",
          "type": "uint256"
        },
        {
          "internalType": "uint256",
          "name": "b",
          "type": "uint256"
        }
      ],
      "name": "equal",
      "outputs": [
        {
          "components": [
            {
              "internalType": "bool",
              "name": "passed",
              "type": "bool"
            },
            {
              "internalType": "string",
              "name": "assertionError",
              "type": "string"
            },
            {
              "internalType": "string",
              "name": "returnedAsString",
              "type": "string"
            },
            {
              "internalType": "string",
              "name": "expectedAsString",
              "type": "string"
            },
            {
              "internalType": "string",
              "name": "methodName",
              "type": "string"
            }
          ],
          "internalType": "struct Assert.AssertResult",
          "name": "result",
          "type": "tuple"
        }
      ],
      "stateMutability": "pure",
      "type": "function"
    },
    {
      "inputs": [
        {
          "internalType": "address",
          "name": "a",
          "type": "address"
        },
        {
          "internalType": "address",
          "name": "b",
          "type": "address"
        }
      ],
      "name": "equal",
      "outputs": [
        {
          "components": [
            {
              "internalType": "bool",
              "name": "passed",
              "type": "bool"
            },
            {
              "internalType": "string",
              "name": "assertionError",
              "type": "string"
            },
            {
              "internalType": "string",
              "name": "returnedAsString",
              "type": "string"
            },
            {
              "internalType": "string",
              "name": "expectedAsString",
              "type": "string"
            },
            {
              "internalType": "string",
              "name": "methodName",
              "type": "string"
            }
          ],
          "internalType": "struct Assert.AssertResult",
          "name": "result",
          "type": "tuple"
        }
      ],
      "stateMutability": "pure",
      "type": "function"
    },
    {
      "inputs": [
        {
          "internalType": "string",
          "name": "a",
          "type": "string"
        },
        {
          "internalType": "string",
          "name": "b",
          "type": "string"
        }
      ],
      "name": "equal",
      "outputs": [
        {
          "components": [
            {
              "internalType": "bool",
              "name": "passed",
              "type": "bool"
            },
            {
              "internalType": "string",
              "name": "assertionError",
              "type": "string"
            },
            {
              "internalType": "string",
              "name": "returnedAsString",
              "type": "string"
            },
            {
              "internalType": "string",
              "name": "expectedAsString",
              "type": "string"
            },
            {
              "internalType": "string",
              "name": "methodName",
              "type": "string"
            }
          ],
          "internalType": "struct Assert.AssertResult",
          "name": "result",
          "type": "tuple"
        }
      ],
      "stateMutability": "pure",
      "type": "function"
    },
    {
      "inputs": [
        {
          "internalType": "string[]",
          "name": "a",
          "type": "string[]"
        },
        {
          "internalType": "string[]",
          "name": "b",
          "type": "string[]"
        }
      ],
      "name": "equal",
      "outputs": [
        {
          "components": [
            {
              "internalType": "bool",
              "name": "passed",
              "type": "bool"
            },
            {
              "internalType": "string",
              "name": "assertionError",
              "type": "string"
            },
            {
              "internalType": "string",
              "name": "returnedAsString",
              "type": "string"
            },
            {
              "internalType": "string",
              "name": "expectedAsString",
              "type": "string"
            },
            {
              "internalType": "string",
              "name": "methodName",
              "type": "string"
            }
          ],
          "internalType": "struct Assert.AssertResult",
          "name": "result",
          "type": "tuple"
        }
      ],
      "stateMutability": "pure",
      "type": "function"
    },
    {
      "inputs": [
        {
          "internalType": "address[]",
          "name": "a",
          "type": "address[]"
        },
        {
          "internalType": "address[]",
          "name": "b",
          "type": "address[]"
        }
      ],
      "name": "equal",
      "outputs": [
        {
          "components": [
            {
              "internalType": "bool",
              "name": "passed",
              "type": "bool"
            },
            {
              "internalType": "string",
              "name": "assertionError",
              "type": "string"
            },
            {
              "internalType": "string",
              "name": "returnedAsString",
              "type": "string"
            },
            {
              "internalType": "string",
              "name": "expectedAsString",
              "type": "string"
            },
            {
              "internalType": "string",
              "name": "methodName",
              "type": "string"
            }
          ],
          "internalType": "struct Assert.AssertResult",
          "name": "result",
          "type": "tuple"
        }
      ],
      "stateMutability": "pure",
      "type": "function"
    },
    {
      "inputs": [
        {
          "internalType": "uint256[]",
          "name": "a",
          "type": "uint256[]"
        },
        {
          "internalType": "uint256[]",
          "name": "b",
          "type": "uint256[]"
        }
      ],
      "name": "equal",
      "outputs": [
        {
          "components": [
            {
              "internalType": "bool",
              "name": "passed",
              "type": "bool"
            },
            {
              "internalType": "string",
              "name": "assertionError",
              "type": "string"
            },
            {
              "internalType": "string",
              "name": "returnedAsString",
              "type": "string"
            },
            {
              "internalType": "string",
              "name": "expectedAsString",
              "type": "string"
            },
            {
              "internalType": "string",
              "name": "methodName",
              "type": "string"
            }
          ],
          "internalType": "struct Assert.AssertResult",
          "name": "result",
          "type": "tuple"
        }
      ],
      "stateMutability": "pure",
      "type": "function"
    },
    {
      "inputs": [
        {
          "internalType": "uint256",
          "name": "tokenId",
          "type": "uint256"
        }
      ],
      "name": "getApproved",
      "outputs": [
        {
          "internalType": "address",
          "name": "",
          "type": "address"
        }
      ],
      "stateMutability": "view",
      "type": "function"
    },
    {
      "inputs": [
        {
          "internalType": "address",
          "name": "owner",
          "type": "address"
        },
        {
          "internalType": "address",
          "name": "operator",
          "type": "address"
        }
      ],
      "name": "isApprovedForAll",
      "outputs": [
        {
          "internalType": "bool",
          "name": "",
          "type": "bool"
        }
      ],
      "stateMutability": "view",
      "type": "function"
    },
    {
      "inputs": [
        {
          "internalType": "bool",
          "name": "a",
          "type": "bool"
        }
      ],
      "name": "isFalse",
      "outputs": [
        {
          "components": [
            {
              "internalType": "bool",
              "name": "passed",
              "type": "bool"
            },
            {
              "internalType": "string",
              "name": "assertionError",
              "type": "string"
            },
            {
              "internalType": "string",
              "name": "returnedAsString",
              "type": "string"
            },
            {
              "internalType": "string",
              "name": "expectedAsString",
              "type": "string"
            },
            {
              "internalType": "string",
              "name": "methodName",
              "type": "string"
            }
          ],
          "internalType": "struct Assert.AssertResult",
          "name": "result",
          "type": "tuple"
        }
      ],
      "stateMutability": "pure",
      "type": "function"
    },
    {
      "inputs": [
        {
          "internalType": "bool",
          "name": "a",
          "type": "bool"
        }
      ],
      "name": "isTrue",
      "outputs": [
        {
          "components": [
            {
              "internalType": "bool",
              "name": "passed",
              "type": "bool"
            },
            {
              "internalType": "string",
              "name": "assertionError",
              "type": "string"
            },
            {
              "internalType": "string",
              "name": "returnedAsString",
              "type": "string"
            },
            {
              "internalType": "string",
              "name": "expectedAsString",
              "type": "string"
            },
            {
              "internalType": "string",
              "name": "methodName",
              "type": "string"
            }
          ],
          "internalType": "struct Assert.AssertResult",
          "name": "result",
          "type": "tuple"
        }
      ],
      "stateMutability": "pure",
      "type": "function"
    },
    {
      "inputs": [],
      "name": "name",
      "outputs": [
        {
          "internalType": "string",
          "name": "",
          "type": "string"
        }
      ],
      "stateMutability": "view",
      "type": "function"
    },
    {
      "inputs": [
        {
          "internalType": "address",
          "name": "a",
          "type": "address"
        },
        {
          "internalType": "address",
          "name": "b",
          "type": "address"
        }
      ],
      "name": "notEqual",
      "outputs": [
        {
          "components": [
            {
              "internalType": "bool",
              "name": "passed",
              "type": "bool"
            },
            {
              "internalType": "string",
              "name": "assertionError",
              "type": "string"
            },
            {
              "internalType": "string",
              "name": "returnedAsString",
              "type": "string"
            },
            {
              "internalType": "string",
              "name": "expectedAsString",
              "type": "string"
            },
            {
              "internalType": "string",
              "name": "methodName",
              "type": "string"
            }
          ],
          "internalType": "struct Assert.AssertResult",
          "name": "result",
          "type": "tuple"
        }
      ],
      "stateMutability": "pure",
      "type": "function"
    },
    {
      "inputs": [],
      "name": "owner",
      "outputs": [
        {
          "internalType": "address",
          "name": "",
          "type": "address"
        }
      ],
      "stateMutability": "view",
      "type": "function"
    },
    {
      "inputs": [
        {
          "internalType": "uint256",
          "name": "tokenId",
          "type": "uint256"
        }
      ],
      "name": "ownerOf",
      "outputs": [
        {
          "internalType": "address",
          "name": "",
          "type": "address"
        }
      ],
      "stateMutability": "view",
      "type": "function"
    },
    {
      "inputs": [
        {
          "internalType": "address",
          "name": "",
          "type": "address"
        }
      ],
      "name": "owners",
      "outputs": [
        {
          "internalType": "bool",
          "name": "",
          "type": "bool"
        }
      ],
      "stateMutability": "view",
      "type": "function"
    },
    {
      "inputs": [],
      "name": "renounceOwnership",
      "outputs": [],
      "stateMutability": "nonpayable",
      "type": "function"
    },
    {
      "inputs": [
        {
          "internalType": "address",
          "name": "from",
          "type": "address"
        },
        {
          "internalType": "address",
          "name": "to",
          "type": "address"
        },
        {
          "internalType": "uint256",
          "name": "tokenId",
          "type": "uint256"
        }
      ],
      "name": "safeTransferFrom",
      "outputs": [],
      "stateMutability": "nonpayable",
      "type": "function"
    },
    {
      "inputs": [
        {
          "internalType": "address",
          "name": "from",
          "type": "address"
        },
        {
          "internalType": "address",
          "name": "to",
          "type": "address"
        },
        {
          "internalType": "uint256",
          "name": "tokenId",
          "type": "uint256"
        },
        {
          "internalType": "bytes",
          "name": "data",
          "type": "bytes"
        }
      ],
      "name": "safeTransferFrom",
      "outputs": [],
      "stateMutability": "nonpayable",
      "type": "function"
    },
    {
      "inputs": [
        {
          "internalType": "bool",
          "name": "_setActiveTo",
          "type": "bool"
        }
      ],
      "name": "setActive",
      "outputs": [],
      "stateMutability": "nonpayable",
      "type": "function"
    },
    {
      "inputs": [
        {
          "internalType": "address",
          "name": "operator",
          "type": "address"
        },
        {
          "internalType": "bool",
          "name": "approved",
          "type": "bool"
        }
      ],
      "name": "setApprovalForAll",
      "outputs": [],
      "stateMutability": "nonpayable",
      "type": "function"
    },
    {
      "inputs": [
        {
          "internalType": "string",
          "name": "_tokenURI",
          "type": "string"
        }
      ],
      "name": "setTokenURI",
      "outputs": [],
      "stateMutability": "nonpayable",
      "type": "function"
    },
    {
      "inputs": [
        {
          "internalType": "bytes4",
          "name": "interfaceId",
          "type": "bytes4"
        }
      ],
      "name": "supportsInterface",
      "outputs": [
        {
          "internalType": "bool",
          "name": "",
          "type": "bool"
        }
      ],
      "stateMutability": "view",
      "type": "function"
    },
    {
      "inputs": [],
      "name": "symbol",
      "outputs": [
        {
          "internalType": "string",
          "name": "",
          "type": "string"
        }
      ],
      "stateMutability": "view",
      "type": "function"
    },
    {
      "inputs": [
        {
          "internalType": "address",
          "name": "_submissionAddress",
          "type": "address"
        }
      ],
      "name": "testContract",
      "outputs": [],
      "stateMutability": "nonpayable",
      "type": "function"
    },
    {
      "inputs": [
        {
          "internalType": "uint256",
          "name": "",
          "type": "uint256"
        }
      ],
      "name": "tokenURI",
      "outputs": [
        {
          "internalType": "string",
          "name": "",
          "type": "string"
        }
      ],
      "stateMutability": "view",
      "type": "function"
    },
    {
      "inputs": [
        {
          "internalType": "address",
          "name": "from",
          "type": "address"
        },
        {
          "internalType": "address",
          "name": "to",
          "type": "address"
        },
        {
          "internalType": "uint256",
          "name": "tokenId",
          "type": "uint256"
        }
      ],
      "name": "transferFrom",
      "outputs": [],
      "stateMutability": "nonpayable",
      "type": "function"
    },
    {
      "inputs": [
        {
          "internalType": "address",
          "name": "newOwner",
          "type": "address"
        }
      ],
      "name": "transferOwnership",
      "outputs": [],
      "stateMutability": "nonpayable",
      "type": "function"
    }
  ],
  "transactionHash": "0x44077cd167c9f292bd5161800ea065599cc64b0e6b10003794d33c5cf1fd0fe8",
  "args": [
    "0x2Ea581D492139cB9C3A8edb42c91300CAD75C088",
    "0x9F46b558F03EB1cbF89577A64D987f0BF6220e1a",
    "0x3e6bc80Fd0bC5e55B0301bd54DDA1b2a552F210a"
  ],
  "numDeployments": 3,
  "solcInputHash": "cce5e99710aedb2b7694c5fe3ee6e1a0",
  "bytecode": "0x600b805460ff1916600117905560a060405260006080908152600c90620000279082620002fe565b503480156200003557600080fd5b5060405162009491380380620094918339810160408190526200005891620003e7565b6040518060400160405280600e81526020016d29a1a21022a9219b9918902834b760911b8152506040518060400160405280600981526020016853434445524337323160b81b8152508160009081620000b29190620002fe565b506001620000c18282620002fe565b505050620000de620000d8620001e760201b60201c565b620001eb565b6001600755604051600d908490620000f6906200023d565b6001600160a01b039091168152602001604051809103906000f08015801562000123573d6000803e3d6000fd5b5081546001810183556000928352602090922090910180546001600160a01b0319166001600160a01b03909216919091179055604051600d908490849084906200016d906200024b565b6001600160a01b03938416815291831660208301529091166040820152606001604051809103906000f080158015620001aa573d6000803e3d6000fd5b5081546001810183556000928352602090922090910180546001600160a01b0319166001600160a01b039092169190911790555062000431915050565b3390565b600680546001600160a01b038381166001600160a01b0319831681179093556040519116919082907f8be0079c531659141344cd1fd0a4f28419497f9722a3daafe3b4186f6b6457e090600090a35050565b6124978062003de983390190565b613211806200628083390190565b634e487b7160e01b600052604160045260246000fd5b600181811c908216806200028457607f821691505b602082108103620002a557634e487b7160e01b600052602260045260246000fd5b50919050565b601f821115620002f957600081815260208120601f850160051c81016020861015620002d45750805b601f850160051c820191505b81811015620002f557828155600101620002e0565b5050505b505050565b81516001600160401b038111156200031a576200031a62000259565b62000332816200032b84546200026f565b84620002ab565b602080601f8311600181146200036a5760008415620003515750858301515b600019600386901b1c1916600185901b178555620002f5565b600085815260208120601f198616915b828110156200039b578886015182559484019460019091019084016200037a565b5085821015620003ba5787850151600019600388901b60f8161c191681555b5050505050600190811b01905550565b80516001600160a01b0381168114620003e257600080fd5b919050565b600080600060608486031215620003fd57600080fd5b6200040884620003ca565b92506200041860208501620003ca565b91506200042860408501620003ca565b90509250925092565b6139a880620004416000396000f3fe608060405234801561001057600080fd5b50600436106101e55760003560e01c80636df864781161010f578063b88d4fde116100a2578063e7da4c7e11610071578063e7da4c7e1461041c578063e985e9c51461042f578063f2fde38b1461046b578063fa084b9b1461047e57600080fd5b8063b88d4fde146103d0578063c87b56dd146103e3578063d70968e7146103f6578063e0df5b6f1461040957600080fd5b80638da5cb5b116100de5780638da5cb5b1461039157806395d89b41146103a2578063a22cb465146103aa578063acec338a146103bd57600080fd5b80636df864781461034257806370a0823114610355578063715018a61461037657806374f130701461037e57600080fd5b806323b872dd1161018757806342842e0e1161015657806342842e0e1461030957806346bdca9a1461029d57806360fb55d51461031c5780636352211e1461032f57600080fd5b806323b872dd146102bd57806330191626146102d057806331495d33146102e3578063410dbb8b146102f657600080fd5b806306fdde03116101c357806306fdde031461024a578063081812fc1461025f578063095ea7b31461028a578063235266d21461029d57600080fd5b806301ffc9a7146101ea578063022914a71461021257806306d82f2914610235575b600080fd5b6101fd6101f83660046126ad565b610491565b60405190151581526020015b60405180910390f35b6101fd6102203660046126df565b60096020526000908152604090205460ff1681565b6102486102433660046126df565b61052e565b005b6102526107f1565b604051610209919061274c565b61027261026d36600461275f565b610883565b6040516001600160a01b039091168152602001610209565b610248610298366004612778565b6108aa565b6102b06102ab3660046128b5565b6109fe565b6040516102099190612990565b6102486102cb3660046129a3565b610aad565b6102b06102de3660046129e4565b610b24565b6102b06102f1366004612a06565b610bde565b6102b0610304366004612a5d565b610caf565b6102486103173660046129a3565b610daf565b6102b061032a366004612b29565b610dca565b61027261033d36600461275f565b610ea6565b6102b0610350366004612be7565b610f0b565b6103686103633660046126df565b610fe7565b604051908152602001610209565b610248611081565b6102b061038c366004612a5d565b611095565b6006546001600160a01b0316610272565b610252611196565b6102486103b8366004612c41565b6111a5565b6102486103cb366004612a5d565b6111b4565b6102486103de366004612c6f565b6111cf565b6102526103f136600461275f565b611247565b6102b0610404366004612a06565b6112db565b610248610417366004612cdb565b6113a2565b6102b061042a366004612d6b565b6113b6565b6101fd61043d366004612a06565b6001600160a01b03918216600090815260056020908152604080832093909416825291909152205460ff1690565b6102486104793660046126df565b611492565b6101fd61048c366004612dc5565b611522565b60006001600160e01b031982167f80ac58cd0000000000000000000000000000000000000000000000000000000014806104f457506001600160e01b031982167f5b5e139f00000000000000000000000000000000000000000000000000000000145b8061052857507f01ffc9a7000000000000000000000000000000000000000000000000000000006001600160e01b03198316145b92915050565b600b5460ff1661056a576040517f80cb55e200000000000000000000000000000000000000000000000000000000815260040160405180910390fd5b600e5460609060009083906001600160a01b0316156106a657600d54610591906001613102565b67ffffffffffffffff8111156105a9576105a96127a4565b6040519080825280602002602001820160405280156105e257816020015b6105cf612663565b8152602001906001900390816105c75790505b509250816105ef81613115565b600e546040517f4c96a3890000000000000000000000000000000000000000000000000000000081526001600160a01b03888116600483015292955091169150634c96a389906024016000604051808303816000875af1158015610657573d6000803e3d6000fd5b505050506040513d6000823e601f3d908101601f1916820160405261067f9190810190613345565b846000815181106106925761069261338c565b6020026020010181935082905250506106fe565b600d5467ffffffffffffffff8111156106c1576106c16127a4565b6040519080825280602002602001820160405280156106fa57816020015b6106e7612663565b8152602001906001900390816106df5790505b5092505b600d548210156107e157600d828154811061071b5761071b61338c565b6000918252602090912001546040517f4b64e4920000000000000000000000000000000000000000000000000000000081526001600160a01b03838116600483015290911690634b64e492906024016000604051808303816000875af1158015610789573d6000803e3d6000fd5b505050506040513d6000823e601f3d908101601f191682016040526107b191908101906133a2565b8383815181106107c3576107c361338c565b602002602001018190525081806107d990613115565b9250506106fe565b6107eb84846115d6565b50505050565b606060008054610800906133d7565b80601f016020809104026020016040519081016040528092919081815260200182805461082c906133d7565b80156108795780601f1061084e57610100808354040283529160200191610879565b820191906000526020600020905b81548152906001019060200180831161085c57829003601f168201915b5050505050905090565b600061088e826116dd565b506000908152600460205260409020546001600160a01b031690565b60006108b582610ea6565b9050806001600160a01b0316836001600160a01b0316036109435760405162461bcd60e51b815260206004820152602160248201527f4552433732313a20617070726f76616c20746f2063757272656e74206f776e6560448201527f720000000000000000000000000000000000000000000000000000000000000060648201526084015b60405180910390fd5b336001600160a01b038216148061097d57506001600160a01b038116600090815260056020908152604080832033845290915290205460ff165b6109ef5760405162461bcd60e51b815260206004820152603d60248201527f4552433732313a20617070726f76652063616c6c6572206973206e6f7420746f60448201527f6b656e206f776e6572206f7220617070726f76656420666f7220616c6c000000606482015260840161093a565b6109f98383611741565b505050565b610a326040518060a00160405280600015158152602001606081526020016060815260200160608152602001606081525090565b815160208084019190912084519185019190912014808252610a77578282604051602001610a61929190613411565b60408051601f1981840301815291905260208201525b604080820193909352606081019190915281518083019092526005825264195c5d585b60da1b6020830152608081019190915290565b610ab733826117bc565b610b195760405162461bcd60e51b815260206004820152602d60248201527f4552433732313a2063616c6c6572206973206e6f7420746f6b656e206f776e6560448201526c1c881bdc88185c1c1c9bdd9959609a1b606482015260840161093a565b6109f983838361183b565b610b586040518060a00160405280600015158152602001606081526020016060815260200160608152602001606081525090565b828214808252610b9b57610b6b83611a4e565b610b7483611a4e565b604051602001610b85929190613411565b60408051601f1981840301815291905260208201525b610ba483611a4e565b6040820152610bb282611a4e565b6060820152604080518082019091526005815264195c5d585b60da1b6020820152608082015292915050565b610c126040518060a00160405280600015158152602001606081526020016060815260200160608152602001606081525090565b6001600160a01b0383811690831681148252600090610c32906014611aee565b90506000610c4a846001600160a01b03166014611aee565b8351909150610c7c578181604051602001610c66929190613411565b60408051601f1981840301815291905260208401525b604080840192909252606083015280518082019091526005815264195c5d585b60da1b6020820152608082015292915050565b610ce36040518060a00160405280600015158152602001606081526020016060815260200160608152602001606081525090565b8115808252610d0b5760405180606001604052806023815260200161392e6023913960208201525b600182151514610d38576040518060400160405280600581526020016466616c736560d81b815250610d56565b604051806040016040528060048152602001637472756560e01b8152505b6040808301919091528051602080820183526000825260608401919091528151808301909252600782527f697346616c736500000000000000000000000000000000000000000000000000908201526080820152919050565b6109f9838383604051806020016040528060008152506111cf565b610dfe6040518060a00160405280600015158152602001606081526020016060815260200160608152602001606081525090565b81604051602001610e0f9190613492565b6040516020818303038152906040528051906020012083604051602001610e369190613492565b60408051601f19818403018152919052805160209091012014808252610e8f57610e5f83611cd6565b610e6883611cd6565b604051602001610e79929190613411565b60408051601f1981840301815291905260208201525b610e9883611cd6565b6040820152610bb282611cd6565b6000818152600260205260408120546001600160a01b0316806105285760405162461bcd60e51b815260206004820152601860248201527f4552433732313a20696e76616c696420746f6b656e2049440000000000000000604482015260640161093a565b610f3f6040518060a00160405280600015158152602001606081526020016060815260200160608152602001606081525090565b81604051602001610f5091906134f4565b6040516020818303038152906040528051906020012083604051602001610f7791906134f4565b60408051601f19818403018152919052805160209091012014808252610fd057610fa083611dab565b610fa983611dab565b604051602001610fba929190613411565b60408051601f1981840301815291905260208201525b610fd983611dab565b6040820152610bb282611dab565b60006001600160a01b0382166110655760405162461bcd60e51b815260206004820152602960248201527f4552433732313a2061646472657373207a65726f206973206e6f74206120766160448201527f6c6964206f776e65720000000000000000000000000000000000000000000000606482015260840161093a565b506001600160a01b031660009081526003602052604090205490565b611089611e87565b6110936000611ee1565b565b6110c96040518060a00160405280600015158152602001606081526020016060815260200160608152602001606081525090565b8115158082526110f2576040518060600160405280602281526020016139516022913960208201525b60018215151461111f576040518060400160405280600581526020016466616c736560d81b81525061113d565b604051806040016040528060048152602001637472756560e01b8152505b6040808301919091528051602080820183526000825260608401919091528151808301909252600682527f6973547275650000000000000000000000000000000000000000000000000000908201526080820152919050565b606060018054610800906133d7565b6111b0338383611f40565b5050565b6111bc611e87565b600b805460ff1916911515919091179055565b6111d933836117bc565b61123b5760405162461bcd60e51b815260206004820152602d60248201527f4552433732313a2063616c6c6572206973206e6f7420746f6b656e206f776e6560448201526c1c881bdc88185c1c1c9bdd9959609a1b606482015260840161093a565b6107eb8484848461200e565b6060600c8054611256906133d7565b80601f0160208091040260200160405190810160405280929190818152602001828054611282906133d7565b80156112cf5780601f106112a4576101008083540402835291602001916112cf565b820191906000526020600020905b8154815290600101906020018083116112b257829003601f168201915b50505050509050919050565b61130f6040518060a00160405280600015158152602001606081526020016060815260200160608152602001606081525090565b6001600160a01b038381169083168114158252600090611330906014611aee565b8251909150611360578060405160200161134a9190613541565b60408051601f1981840301815291905260208301525b60408083019190915280516020808201835260008252606084019190915281518083019092526005825264195c5d585b60da1b90820152608082015292915050565b6113aa611e87565b600c6111b082826135fa565b6113ea6040518060a00160405280600015158152602001606081526020016060815260200160608152602001606081525090565b816040516020016113fb91906136ba565b604051602081830303815290604052805190602001208360405160200161142291906136ba565b60408051601f1981840301815291905280516020909101201480825261147b5761144b8361208c565b6114548361208c565b604051602001611465929190613411565b60408051601f1981840301815291905260208201525b6114848361208c565b6040820152610bb28261208c565b61149a611e87565b6001600160a01b0381166115165760405162461bcd60e51b815260206004820152602660248201527f4f776e61626c653a206e6577206f776e657220697320746865207a65726f206160448201527f6464726573730000000000000000000000000000000000000000000000000000606482015260840161093a565b61151f81611ee1565b50565b6000805b82518110156115cd5760005b8382815181106115445761154461338c565b602002602001015160200151602001518110156115ba5783828151811061156d5761156d61338c565b60200260200101516020015160000151818151811061158e5761158e61338c565b6020026020010151600001516115a8575060009392505050565b806115b281613115565b915050611532565b50806115c581613115565b915050611526565b50600192915050565b6115de61215d565b60006115e982611522565b90507f53d51c5f8eaf1bdbf1288871cbf97a9295da23a9868b15b526b4256ede348db983828460405161161e939291906136f2565b60405180910390a16001600160a01b0383166000908152600a602052604090205460ff1615801561165f57503360009081526009602052604090205460ff16155b80156116685750805b156116af5761167b600880546001019055565b600061168660085490565b336000818152600960205260409020805460ff191660011790559091506116ad90826121b6565b505b506001600160a01b0382166000908152600a60205260409020805460ff191660011790556111b06001600755565b6000818152600260205260409020546001600160a01b031661151f5760405162461bcd60e51b815260206004820152601860248201527f4552433732313a20696e76616c696420746f6b656e2049440000000000000000604482015260640161093a565b6000818152600460205260409020805473ffffffffffffffffffffffffffffffffffffffff19166001600160a01b038416908117909155819061178382610ea6565b6001600160a01b03167f8c5be1e5ebec7d5bd14f71427d1e84f3dd0314c0f7b2291e5b200ac8c7c3b92560405160405180910390a45050565b6000806117c883610ea6565b9050806001600160a01b0316846001600160a01b0316148061180f57506001600160a01b0380821660009081526005602090815260408083209388168352929052205460ff165b806118335750836001600160a01b031661182884610883565b6001600160a01b0316145b949350505050565b826001600160a01b031661184e82610ea6565b6001600160a01b0316146118b25760405162461bcd60e51b815260206004820152602560248201527f4552433732313a207472616e736665722066726f6d20696e636f72726563742060448201526437bbb732b960d91b606482015260840161093a565b6001600160a01b03821661192d5760405162461bcd60e51b8152602060048201526024808201527f4552433732313a207472616e7366657220746f20746865207a65726f2061646460448201527f7265737300000000000000000000000000000000000000000000000000000000606482015260840161093a565b61193a83838360016121d0565b826001600160a01b031661194d82610ea6565b6001600160a01b0316146119b15760405162461bcd60e51b815260206004820152602560248201527f4552433732313a207472616e736665722066726f6d20696e636f72726563742060448201526437bbb732b960d91b606482015260840161093a565b6000818152600460209081526040808320805473ffffffffffffffffffffffffffffffffffffffff199081169091556001600160a01b0387811680865260038552838620805460001901905590871680865283862080546001019055868652600290945282852080549092168417909155905184937fddf252ad1be2c89b69c2b068fc378daa952ba7f163c4a11628f55a4df523b3ef91a4505050565b60606000611a5b83612211565b600101905060008167ffffffffffffffff811115611a7b57611a7b6127a4565b6040519080825280601f01601f191660200182016040528015611aa5576020820181803683370190505b5090508181016020015b600019017f3031323334353637383961626364656600000000000000000000000000000000600a86061a8153600a8504945084611aaf57509392505050565b60606000611afd8360026137e5565b611b08906002613102565b67ffffffffffffffff811115611b2057611b206127a4565b6040519080825280601f01601f191660200182016040528015611b4a576020820181803683370190505b5090507f300000000000000000000000000000000000000000000000000000000000000081600081518110611b8157611b8161338c565b60200101906001600160f81b031916908160001a9053507f780000000000000000000000000000000000000000000000000000000000000081600181518110611bcc57611bcc61338c565b60200101906001600160f81b031916908160001a9053506000611bf08460026137e5565b611bfb906001613102565b90505b6001811115611c80577f303132333435363738396162636465660000000000000000000000000000000085600f1660108110611c3c57611c3c61338c565b1a60f81b828281518110611c5257611c5261338c565b60200101906001600160f81b031916908160001a90535060049490941c93611c79816137fc565b9050611bfe565b508315611ccf5760405162461bcd60e51b815260206004820181905260248201527f537472696e67733a20686578206c656e67746820696e73756666696369656e74604482015260640161093a565b9392505050565b6040805180820190915260018152605b60f81b602082015260609060005b8351811015611da45760018451611d0b9190613813565b811015611d545781848281518110611d2557611d2561338c565b6020026020010151604051602001611d3e929190613826565b6040516020818303038152906040529150611d92565b81848281518110611d6757611d6761338c565b6020026020010151604051602001611d8092919061387d565b60405160208183030381529060405291505b80611d9c81613115565b915050611cf4565b5092915050565b6040805180820190915260018152605b60f81b602082015260609060005b8351811015611da45760018451611de09190613813565b811015611e3c5781611e15858381518110611dfd57611dfd61338c565b60200260200101516001600160a01b03166014611aee565b604051602001611e26929190613826565b6040516020818303038152906040529150611e75565b81611e52858381518110611dfd57611dfd61338c565b604051602001611e6392919061387d565b60405160208183030381529060405291505b80611e7f81613115565b915050611dc9565b6006546001600160a01b031633146110935760405162461bcd60e51b815260206004820181905260248201527f4f776e61626c653a2063616c6c6572206973206e6f7420746865206f776e6572604482015260640161093a565b600680546001600160a01b0383811673ffffffffffffffffffffffffffffffffffffffff19831681179093556040519116919082907f8be0079c531659141344cd1fd0a4f28419497f9722a3daafe3b4186f6b6457e090600090a35050565b816001600160a01b0316836001600160a01b031603611fa15760405162461bcd60e51b815260206004820152601960248201527f4552433732313a20617070726f766520746f2063616c6c657200000000000000604482015260640161093a565b6001600160a01b03838116600081815260056020908152604080832094871680845294825291829020805460ff191686151590811790915591519182527f17307eab39ab6107e8899845ad3d59bd9653f200f220920489ca2b5937696c31910160405180910390a3505050565b61201984848461183b565b612025848484846122f3565b6107eb5760405162461bcd60e51b815260206004820152603260248201527f4552433732313a207472616e7366657220746f206e6f6e20455243373231526560448201527131b2b4bb32b91034b6b83632b6b2b73a32b960711b606482015260840161093a565b6040805180820190915260018152605b60f81b602082015260609060005b8351811015611da457600184516120c19190613813565b81101561211257816120eb8583815181106120de576120de61338c565b6020026020010151611a4e565b6040516020016120fc929190613826565b604051602081830303815290604052915061214b565b816121288583815181106120de576120de61338c565b60405160200161213992919061387d565b60405160208183030381529060405291505b8061215581613115565b9150506120aa565b6002600754036121af5760405162461bcd60e51b815260206004820152601f60248201527f5265656e7472616e637947756172643a207265656e7472616e742063616c6c00604482015260640161093a565b6002600755565b6111b082826040518060200160405280600081525061243f565b6001600160a01b038416156107eb576040517f6e10574900000000000000000000000000000000000000000000000000000000815260040160405180910390fd5b6000807a184f03e93ff9f4daa797ed6e38ed64bf6a1f010000000000000000831061225a577a184f03e93ff9f4daa797ed6e38ed64bf6a1f010000000000000000830492506040015b6d04ee2d6d415b85acef81000000008310612286576d04ee2d6d415b85acef8100000000830492506020015b662386f26fc1000083106122a457662386f26fc10000830492506010015b6305f5e10083106122bc576305f5e100830492506008015b61271083106122d057612710830492506004015b606483106122e2576064830492506002015b600a83106105285760010192915050565b60006001600160a01b0384163b1561243457604051630a85bd0160e11b81526001600160a01b0385169063150b7a02906123379033908990889088906004016138d4565b6020604051808303816000875af1925050508015612372575060408051601f3d908101601f1916820190925261236f91810190613910565b60015b61241a573d8080156123a0576040519150601f19603f3d011682016040523d82523d6000602084013e6123a5565b606091505b5080516000036124125760405162461bcd60e51b815260206004820152603260248201527f4552433732313a207472616e7366657220746f206e6f6e20455243373231526560448201527131b2b4bb32b91034b6b83632b6b2b73a32b960711b606482015260840161093a565b805181602001fd5b6001600160e01b031916630a85bd0160e11b149050611833565b506001949350505050565b61244983836124bd565b61245660008484846122f3565b6109f95760405162461bcd60e51b815260206004820152603260248201527f4552433732313a207472616e7366657220746f206e6f6e20455243373231526560448201527131b2b4bb32b91034b6b83632b6b2b73a32b960711b606482015260840161093a565b6001600160a01b0382166125135760405162461bcd60e51b815260206004820181905260248201527f4552433732313a206d696e7420746f20746865207a65726f2061646472657373604482015260640161093a565b6000818152600260205260409020546001600160a01b0316156125785760405162461bcd60e51b815260206004820152601c60248201527f4552433732313a20746f6b656e20616c7265616479206d696e74656400000000604482015260640161093a565b6125866000838360016121d0565b6000818152600260205260409020546001600160a01b0316156125eb5760405162461bcd60e51b815260206004820152601c60248201527f4552433732313a20746f6b656e20616c7265616479206d696e74656400000000604482015260640161093a565b6001600160a01b0382166000818152600360209081526040808320805460010190558483526002909152808220805473ffffffffffffffffffffffffffffffffffffffff19168417905551839291907fddf252ad1be2c89b69c2b068fc378daa952ba7f163c4a11628f55a4df523b3ef908290a45050565b604051806040016040528060608152602001612692604051806040016040528060608152602001600081525090565b905290565b6001600160e01b03198116811461151f57600080fd5b6000602082840312156126bf57600080fd5b8135611ccf81612697565b6001600160a01b038116811461151f57600080fd5b6000602082840312156126f157600080fd5b8135611ccf816126ca565b60005b838110156127175781810151838201526020016126ff565b50506000910152565b600081518084526127388160208601602086016126fc565b601f01601f19169290920160200192915050565b602081526000611ccf6020830184612720565b60006020828403121561277157600080fd5b5035919050565b6000806040838503121561278b57600080fd5b8235612796816126ca565b946020939093013593505050565b634e487b7160e01b600052604160045260246000fd5b6040805190810167ffffffffffffffff811182821017156127dd576127dd6127a4565b60405290565b60405160a0810167ffffffffffffffff811182821017156127dd576127dd6127a4565b604051601f8201601f1916810167ffffffffffffffff8111828210171561282f5761282f6127a4565b604052919050565b600067ffffffffffffffff821115612851576128516127a4565b50601f01601f191660200190565b600082601f83011261287057600080fd5b813561288361287e82612837565b612806565b81815284602083860101111561289857600080fd5b816020850160208301376000918101602001919091529392505050565b600080604083850312156128c857600080fd5b823567ffffffffffffffff808211156128e057600080fd5b6128ec8683870161285f565b9350602085013591508082111561290257600080fd5b5061290f8582860161285f565b9150509250929050565b8051151582526000602082015160a0602085015261293a60a0850182612720565b9050604083015184820360408601526129538282612720565b9150506060830151848203606086015261296d8282612720565b915050608083015184820360808601526129878282612720565b95945050505050565b602081526000611ccf6020830184612919565b6000806000606084860312156129b857600080fd5b83356129c3816126ca565b925060208401356129d3816126ca565b929592945050506040919091013590565b600080604083850312156129f757600080fd5b50508035926020909101359150565b60008060408385031215612a1957600080fd5b8235612a24816126ca565b91506020830135612a34816126ca565b809150509250929050565b801515811461151f57600080fd5b8035612a5881612a3f565b919050565b600060208284031215612a6f57600080fd5b8135611ccf81612a3f565b600067ffffffffffffffff821115612a9457612a946127a4565b5060051b60200190565b600082601f830112612aaf57600080fd5b81356020612abf61287e83612a7a565b82815260059290921b84018101918181019086841115612ade57600080fd5b8286015b84811015612b1e57803567ffffffffffffffff811115612b025760008081fd5b612b108986838b010161285f565b845250918301918301612ae2565b509695505050505050565b60008060408385031215612b3c57600080fd5b823567ffffffffffffffff80821115612b5457600080fd5b612b6086838701612a9e565b93506020850135915080821115612b7657600080fd5b5061290f85828601612a9e565b600082601f830112612b9457600080fd5b81356020612ba461287e83612a7a565b82815260059290921b84018101918181019086841115612bc357600080fd5b8286015b84811015612b1e578035612bda816126ca565b8352918301918301612bc7565b60008060408385031215612bfa57600080fd5b823567ffffffffffffffff80821115612c1257600080fd5b612c1e86838701612b83565b93506020850135915080821115612c3457600080fd5b5061290f85828601612b83565b60008060408385031215612c5457600080fd5b8235612c5f816126ca565b91506020830135612a3481612a3f565b60008060008060808587031215612c8557600080fd5b8435612c90816126ca565b93506020850135612ca0816126ca565b925060408501359150606085013567ffffffffffffffff811115612cc357600080fd5b612ccf8782880161285f565b91505092959194509250565b600060208284031215612ced57600080fd5b813567ffffffffffffffff811115612d0457600080fd5b6118338482850161285f565b600082601f830112612d2157600080fd5b81356020612d3161287e83612a7a565b82815260059290921b84018101918181019086841115612d5057600080fd5b8286015b84811015612b1e5780358352918301918301612d54565b60008060408385031215612d7e57600080fd5b823567ffffffffffffffff80821115612d9657600080fd5b612da286838701612d10565b93506020850135915080821115612db857600080fd5b5061290f85828601612d10565b600060208284031215612dd757600080fd5b67ffffffffffffffff82351115612ded57600080fd5b82601f833584010112612dff57600080fd5b612e0f61287e8335840135612a7a565b8235830180358083526020808401939260059290921b90910101851015612e3557600080fd5b602084358501015b84358501803560051b016020018110156130e35767ffffffffffffffff81351115612e6757600080fd5b6040853586018235018703601f19011215612e8157600080fd5b612e896127ba565b67ffffffffffffffff60208335883589010101351115612ea857600080fd5b612ec0876020843589358a010181810135010161285f565b815267ffffffffffffffff60408335883589010101351115612ee157600080fd5b60408635870183350180820135018803601f19011215612f0057600080fd5b612f086127ba565b67ffffffffffffffff87358801843501604081013501602001351115612f2d57600080fd5b86358701833501604081013501602081013501603f81018913612f4f57600080fd5b612f5f61287e6020830135612a7a565b602082810135808352908201919060051b83016040018b1015612f8157600080fd5b604083015b6040602085013560051b8501018110156130b15767ffffffffffffffff81351115612fb057600080fd5b8035840160a0818e03603f19011215612fc857600080fd5b612fd06127e3565b612fdc60408301612a4d565b815267ffffffffffffffff60608301351115612ff757600080fd5b61300a8e6040606085013585010161285f565b602082015267ffffffffffffffff6080830135111561302857600080fd5b61303b8e6040608085013585010161285f565b604082015267ffffffffffffffff60a0830135111561305957600080fd5b61306c8e604060a085013585010161285f565b606082015267ffffffffffffffff60c0830135111561308a57600080fd5b61309d8e604060c085013585010161285f565b608082015284525060209283019201612f86565b508352505060408335883589010181810135010135602080830191909152828101919091529084529283019201612e3d565b50949350505050565b634e487b7160e01b600052601160045260246000fd5b80820180821115610528576105286130ec565b600060018201613127576131276130ec565b5060010190565b600082601f83011261313f57600080fd5b815161314d61287e82612837565b81815284602083860101111561316257600080fd5b6118338260208301602087016126fc565b8051612a5881612a3f565b60006040828403121561319057600080fd5b6131986127ba565b9050815167ffffffffffffffff808211156131b257600080fd5b6131be8583860161312e565b83526020915081840151818111156131d557600080fd5b8401604081870312156131e757600080fd5b6131ef6127ba565b8151838111156131fe57600080fd5b8201601f8101881361320f57600080fd5b805161321d61287e82612a7a565b81815260059190911b8201860190868101908a83111561323c57600080fd5b8784015b838110156133295780518881111561325757600080fd5b850160a0818e03601f1901121561326d57600080fd5b6132756127e3565b6132808b8301613173565b815260408201518a81111561329457600080fd5b6132a28f8d8386010161312e565b8c8301525060608201518a8111156132b957600080fd5b6132c78f8d8386010161312e565b60408301525060808201518a8111156132e05760008081fd5b6132ee8f8d8386010161312e565b60608301525060a08201518a8111156133075760008081fd5b6133158f8d8386010161312e565b608083015250845250918801918801613240565b5084525050509083015183820152918301919091525092915050565b6000806040838503121561335857600080fd5b825167ffffffffffffffff81111561336f57600080fd5b61337b8582860161317e565b9250506020830151612a34816126ca565b634e487b7160e01b600052603260045260246000fd5b6000602082840312156133b457600080fd5b815167ffffffffffffffff8111156133cb57600080fd5b6118338482850161317e565b600181811c908216806133eb57607f821691505b60208210810361340b57634e487b7160e01b600052602260045260246000fd5b50919050565b7f417373657274696f6e4572726f723a20000000000000000000000000000000008152600083516134498160108501602088016126fc565b7f206973206e6f7420657175616c20746f2000000000000000000000000000000060109184019182015283516134868160218401602088016126fc565b01602101949350505050565b6000602080830181845280855180835260408601915060408160051b870101925083870160005b828110156134e757603f198886030184526134d5858351612720565b945092850192908501906001016134b9565b5092979650505050505050565b6020808252825182820181905260009190848201906040850190845b818110156135355783516001600160a01b031683529284019291840191600101613510565b50909695505050505050565b7f417373657274696f6e4572726f723a200000000000000000000000000000000081527f20426f74682076616c756573206172650000000000000000000000000000000060108201526000825161359f8160208501602087016126fc565b9190910160200192915050565b601f8211156109f957600081815260208120601f850160051c810160208610156135d35750805b601f850160051c820191505b818110156135f2578281556001016135df565b505050505050565b815167ffffffffffffffff811115613614576136146127a4565b6136288161362284546133d7565b846135ac565b602080601f83116001811461365d57600084156136455750858301515b600019600386901b1c1916600185901b1785556135f2565b600085815260208120601f198616915b8281101561368c5788860151825594840194600190910190840161366d565b50858210156136aa5787850151600019600388901b60f8161c191681555b5050505050600190811b01905550565b6020808252825182820181905260009190848201906040850190845b81811015613535578351835292840192918401916001016136d6565b600060608083016001600160a01b03871684526020861515818601526040838187015282875180855260808801915060808160051b89010194508389016000805b838110156137d3578a8803607f1901855282518051878a52613757888b0182612720565b918901518a83038b8b0152805189845280518a850181905291939250600582901b83018d0191908b01908d840190875b818110156137b557605f198686030183526137a3858551612919565b9450928d0192918d0191600101613787565b50505050918901519089015297509386019391860191600101613733565b50959c9b505050505050505050505050565b8082028115828204841417610528576105286130ec565b60008161380b5761380b6130ec565b506000190190565b81810381811115610528576105286130ec565b600083516138388184602088016126fc565b83519083019061384c8183602088016126fc565b7f2c200000000000000000000000000000000000000000000000000000000000009101908152600201949350505050565b6000835161388f8184602088016126fc565b8351908301906138a38183602088016126fc565b7f5d000000000000000000000000000000000000000000000000000000000000009101908152600101949350505050565b60006001600160a01b038087168352808616602084015250836040830152608060608301526139066080830184612720565b9695505050505050565b60006020828403121561392257600080fd5b8151611ccf8161269756fe417373657274696f6e4572726f723a20726573756c74206973206e6f742066616c7365417373657274696f6e4572726f723a20726573756c74206973206e6f742074727565a26469706673582212207b7febae057514a2293b4be44e9e62930c85d0149af5722fa68c9c7593cb4f0664736f6c63430008110033608060405234801561001057600080fd5b50604051620024973803806200249783398101604081905261003191610056565b600080546001600160a01b0319166001600160a01b0392909216919091179055610086565b60006020828403121561006857600080fd5b81516001600160a01b038116811461007f57600080fd5b9392505050565b61240180620000966000396000f3fe608060405234801561001057600080fd5b50600436106100d45760003560e01c80634b64e4921161008157806374f130701161005b57806374f13070146101e6578063d70968e7146101f9578063e7da4c7e1461020c57600080fd5b80634b64e492146101a057806360fb55d5146101c05780636df86478146101d357600080fd5b806331495d33116100b257806331495d331461017a578063410dbb8b1461018d57806346bdca9a1461014757600080fd5b8063150b7a02146100d9578063235266d2146101475780633019162614610167575b600080fd5b6101116100e7366004611892565b7f150b7a020000000000000000000000000000000000000000000000000000000095945050505050565b6040517fffffffff0000000000000000000000000000000000000000000000000000000090911681526020015b60405180910390f35b61015a6101553660046119f6565b61021f565b60405161013e9190611b21565b61015a610175366004611b3b565b6102ce565b61015a610188366004611b5d565b610388565b61015a61019b366004611ba4565b610459565b6101b36101ae366004611bc1565b610559565b60405161013e9190611bde565b61015a6101ce366004611d26565b610a41565b61015a6101e1366004611de4565b610b1d565b61015a6101f4366004611ba4565b610bf9565b61015a610207366004611b5d565b610cfa565b61015a61021a366004611e99565b610dc1565b6102536040518060a00160405280600015158152602001606081526020016060815260200160608152602001606081525090565b815160208084019190912084519185019190912014808252610298578282604051602001610282929190611ef3565b60408051601f1981840301815291905260208201525b604080820193909352606081019190915281518083019092526005825264195c5d585b60da1b6020830152608081019190915290565b6103026040518060a00160405280600015158152602001606081526020016060815260200160608152602001606081525090565b8282148082526103455761031583610e9d565b61031e83610e9d565b60405160200161032f929190611ef3565b60408051601f1981840301815291905260208201525b61034e83610e9d565b604082015261035c82610e9d565b6060820152604080518082019091526005815264195c5d585b60da1b6020820152608082015292915050565b6103bc6040518060a00160405280600015158152602001606081526020016060815260200160608152602001606081525090565b6001600160a01b03838116908316811482526000906103dc906014610f3d565b905060006103f4846001600160a01b03166014610f3d565b8351909150610426578181604051602001610410929190611ef3565b60408051601f1981840301815291905260208401525b604080840192909252606083015280518082019091526005815264195c5d585b60da1b6020820152608082015292915050565b61048d6040518060a00160405280600015158152602001606081526020016060815260200160608152602001606081525090565b81158082526104b5576040518060600160405280602381526020016123616023913960208201525b6001821515146104e2576040518060400160405280600581526020016466616c736560d81b815250610500565b604051806040016040528060048152602001637472756560e01b8152505b6040808301919091528051602080820183526000825260608401919091528151808301909252600782527f697346616c736500000000000000000000000000000000000000000000000000908201526080820152919050565b610561611846565b8161056a611846565b6105778160200151611145565b5060405180606001604052806035815260200161232c603591398160000181905250600080610647846040518060400160405280601281526020017f5468697320697320616e20617474656d707400000000000000000000000000008152506040518060400160405280601781526020017f546f20637265617465206120756e6971756520706f656d0000000000000000008152506040518060400160405280601881526020017f49742073686f756c64207061737320746869732074696d6500000000000000008152506111c1565b9150915080156106db576040805160a081018252600080825282518084018452601881527f43616c6c20746f206d696e744861696b75206661696c6564000000000000000060208281019190915280840191909152835180820185528281528385015283518082018552828152606084015283518082019094529083526080820192909252908401516106d99161127b565b505b60006106e6856112eb565b91945092509050811561076a576107646040518060a001604052806000151581526020016040518060600160405280602681526020016123a66026913981526040805160208181018352600080835281850192909252825180820184528281528385015282518082019093529082526060909201528601519061127b565b50610802565b60006001600160a01b038616636352211e610786600185611f8a565b6040518263ffffffff1660e01b81526004016107a491815260200190565b602060405180830381865afa1580156107c1573d6000803e3d6000fd5b505050506040513d601f19601f820116820180604052508101906107e59190611f9d565b90506107ff6107f48230610388565b60208701519061127b565b50505b6000546040517fc9e2c9880000000000000000000000000000000000000000000000000000000081526001600160a01b03878116600483015260806024830152601260848301527f5468697320697320616e20617474656d7074000000000000000000000000000060a483015260c06044830152601560c48301527f546f20636f707920616e6f746865727320776f726b000000000000000000000060e4830152610100606483015260186101048301527f49742073686f756c64206661696c20746869732074696d6500000000000000006101248301529091169063c9e2c98890610144016000604051808303816000875af1158015610907573d6000803e3d6000fd5b505050506040513d6000823e601f3d908101601f1916820160405261092f9190810190611fba565b9093509150816109c3576040805160a08101825260008082528251808401845260208082527f43616c6c20746f206d696e744861696b7520646964206e6f74207265766572748282015280840191909152835180820185528281528385015283518082018552828152606084015283518082019094529083526080820192909252908501516109bd9161127b565b50610a36565b6040805160048152602481019091526020810180517bffffffffffffffffffffffffffffffffffffffffffffffffffffffff167f693a889e00000000000000000000000000000000000000000000000000000000179052610a3490610a2990859061021f565b60208601519061127b565b505b509195945050505050565b610a756040518060a00160405280600015158152602001606081526020016060815260200160608152602001606081525090565b81604051602001610a86919061203d565b6040516020818303038152906040528051906020012083604051602001610aad919061203d565b60408051601f19818403018152919052805160209091012014808252610b0657610ad6836113ae565b610adf836113ae565b604051602001610af0929190611ef3565b60408051601f1981840301815291905260208201525b610b0f836113ae565b604082015261035c826113ae565b610b516040518060a00160405280600015158152602001606081526020016060815260200160608152602001606081525090565b81604051602001610b62919061209f565b6040516020818303038152906040528051906020012083604051602001610b89919061209f565b60408051601f19818403018152919052805160209091012014808252610be257610bb283611483565b610bbb83611483565b604051602001610bcc929190611ef3565b60408051601f1981840301815291905260208201525b610beb83611483565b604082015261035c82611483565b610c2d6040518060a00160405280600015158152602001606081526020016060815260200160608152602001606081525090565b811515808252610c56576040518060600160405280602281526020016123846022913960208201525b600182151514610c83576040518060400160405280600581526020016466616c736560d81b815250610ca1565b604051806040016040528060048152602001637472756560e01b8152505b6040808301919091528051602080820183526000825260608401919091528151808301909252600682527f6973547275650000000000000000000000000000000000000000000000000000908201526080820152919050565b610d2e6040518060a00160405280600015158152602001606081526020016060815260200160608152602001606081525090565b6001600160a01b038381169083168114158252600090610d4f906014610f3d565b8251909150610d7f5780604051602001610d6991906120ec565b60408051601f1981840301815291905260208301525b60408083019190915280516020808201835260008252606084019190915281518083019092526005825264195c5d585b60da1b90820152608082015292915050565b610df56040518060a00160405280600015158152602001606081526020016060815260200160608152602001606081525090565b81604051602001610e069190612157565b6040516020818303038152906040528051906020012083604051602001610e2d9190612157565b60408051601f19818403018152919052805160209091012014808252610e8657610e568361155f565b610e5f8361155f565b604051602001610e70929190611ef3565b60408051601f1981840301815291905260208201525b610e8f8361155f565b604082015261035c8261155f565b60606000610eaa83611630565b600101905060008167ffffffffffffffff811115610eca57610eca611931565b6040519080825280601f01601f191660200182016040528015610ef4576020820181803683370190505b5090508181016020015b600019017f3031323334353637383961626364656600000000000000000000000000000000600a86061a8153600a8504945084610efe57509392505050565b60606000610f4c83600261218f565b610f579060026121a6565b67ffffffffffffffff811115610f6f57610f6f611931565b6040519080825280601f01601f191660200182016040528015610f99576020820181803683370190505b5090507f300000000000000000000000000000000000000000000000000000000000000081600081518110610fd057610fd06121b9565b60200101906001600160f81b031916908160001a9053507f78000000000000000000000000000000000000000000000000000000000000008160018151811061101b5761101b6121b9565b60200101906001600160f81b031916908160001a905350600061103f84600261218f565b61104a9060016121a6565b90505b60018111156110cf577f303132333435363738396162636465660000000000000000000000000000000085600f166010811061108b5761108b6121b9565b1a60f81b8282815181106110a1576110a16121b9565b60200101906001600160f81b031916908160001a90535060049490941c936110c8816121cf565b905061104d565b50831561113c576040517f08c379a000000000000000000000000000000000000000000000000000000000815260206004820181905260248201527f537472696e67733a20686578206c656e67746820696e73756666696369656e74604482015260640160405180910390fd5b90505b92915050565b60408051808201825260608152600060208201528151600480825260a082019093529091816020015b6111a26040518060a00160405280600015158152602001606081526020016060815260200160608152602001606081525090565b81526020019060019003908161116e5750508252506000602082015290565b60606000856001600160a01b031663350fe1658686866040518463ffffffff1660e01b81526004016111f5939291906121e6565b600060405180830381600087803b15801561120f57600080fd5b505af1925050508015611220575060015b61125f573d80801561124e576040519150601f19603f3d011682016040523d82523d6000602084013e611253565b606091505b50915060019050611272565b5050604080516020810190915260008082525b94509492505050565b6040805180820190915260608152600060208201528251516020840151036112a9576112a683611712565b92505b8183600001518460200151815181106112c4576112c46121b9565b60200260200101819052508260200180518091906112e190612229565b9052509192915050565b6060600080836001600160a01b03166361bc221a6040518163ffffffff1660e01b8152600401602060405180830381865afa92505050801561134a575060408051601f3d908101601f1916820190925261134791810190612242565b60015b61138f57505060408051808201909152600b81527f43616c6c206661696c656400000000000000000000000000000000000000000060208201529050600160006113a7565b60408051602081019091526000808252909450925090505b9193909250565b6040805180820190915260018152605b60f81b602082015260609060005b835181101561147c57600184516113e39190611f8a565b81101561142c57818482815181106113fd576113fd6121b9565b602002602001015160405160200161141692919061225b565b604051602081830303815290604052915061146a565b8184828151811061143f5761143f6121b9565b60200260200101516040516020016114589291906122b2565b60405160208183030381529060405291505b8061147481612229565b9150506113cc565b5092915050565b6040805180820190915260018152605b60f81b602082015260609060005b835181101561147c57600184516114b89190611f8a565b81101561151457816114ed8583815181106114d5576114d56121b9565b60200260200101516001600160a01b03166014610f3d565b6040516020016114fe92919061225b565b604051602081830303815290604052915061154d565b8161152a8583815181106114d5576114d56121b9565b60405160200161153b9291906122b2565b60405160208183030381529060405291505b8061155781612229565b9150506114a1565b6040805180820190915260018152605b60f81b602082015260609060005b835181101561147c57600184516115949190611f8a565b8110156115e557816115be8583815181106115b1576115b16121b9565b6020026020010151610e9d565b6040516020016115cf92919061225b565b604051602081830303815290604052915061161e565b816115fb8583815181106115b1576115b16121b9565b60405160200161160c9291906122b2565b60405160208183030381529060405291505b8061162881612229565b91505061157d565b6000807a184f03e93ff9f4daa797ed6e38ed64bf6a1f0100000000000000008310611679577a184f03e93ff9f4daa797ed6e38ed64bf6a1f010000000000000000830492506040015b6d04ee2d6d415b85acef810000000083106116a5576d04ee2d6d415b85acef8100000000830492506020015b662386f26fc1000083106116c357662386f26fc10000830492506010015b6305f5e10083106116db576305f5e100830492506008015b61271083106116ef57612710830492506004015b60648310611701576064830492506002015b600a831061113f5760010192915050565b60408051808201909152606081526000602082015260408051808201909152606081526000602082015282515160029061174d90600361218f565b6117579190612309565b67ffffffffffffffff81111561176f5761176f611931565b6040519080825280602002602001820160405280156117d457816020015b6117c16040518060a00160405280600015158152602001606081526020016060815260200160608152602001606081525090565b81526020019060019003908161178d5790505b50815260005b8351518110156118345783518051829081106117f8576117f86121b9565b602002602001015182600001518281518110611816576118166121b9565b6020026020010181905250808061182c90612229565b9150506117da565b50602092830151928101929092525090565b604051806040016040528060608152602001611875604051806040016040528060608152602001600081525090565b905290565b6001600160a01b038116811461188f57600080fd5b50565b6000806000806000608086880312156118aa57600080fd5b85356118b58161187a565b945060208601356118c58161187a565b935060408601359250606086013567ffffffffffffffff808211156118e957600080fd5b818801915088601f8301126118fd57600080fd5b81358181111561190c57600080fd5b89602082850101111561191e57600080fd5b9699959850939650602001949392505050565b634e487b7160e01b600052604160045260246000fd5b604051601f8201601f1916810167ffffffffffffffff8111828210171561197057611970611931565b604052919050565b600067ffffffffffffffff82111561199257611992611931565b50601f01601f191660200190565b600082601f8301126119b157600080fd5b81356119c46119bf82611978565b611947565b8181528460208386010111156119d957600080fd5b816020850160208301376000918101602001919091529392505050565b60008060408385031215611a0957600080fd5b823567ffffffffffffffff80821115611a2157600080fd5b611a2d868387016119a0565b93506020850135915080821115611a4357600080fd5b50611a50858286016119a0565b9150509250929050565b60005b83811015611a75578181015183820152602001611a5d565b50506000910152565b60008151808452611a96816020860160208601611a5a565b601f01601f19169290920160200192915050565b8051151582526000602082015160a06020850152611acb60a0850182611a7e565b905060408301518482036040860152611ae48282611a7e565b91505060608301518482036060860152611afe8282611a7e565b91505060808301518482036080860152611b188282611a7e565b95945050505050565b602081526000611b346020830184611aaa565b9392505050565b60008060408385031215611b4e57600080fd5b50508035926020909101359150565b60008060408385031215611b7057600080fd5b8235611b7b8161187a565b91506020830135611b8b8161187a565b809150509250929050565b801515811461188f57600080fd5b600060208284031215611bb657600080fd5b813561113c81611b96565b600060208284031215611bd357600080fd5b813561113c8161187a565b600060208083528351604082850152611bfa6060850182611a7e565b905081850151601f198583030160408601526040820181516040845281815180845260608601915060608160051b8701019350868301925060005b81811015611c6357605f19878603018352611c51858551611aaa565b94509287019291870191600101611c35565b505050509083015191909201529392505050565b600067ffffffffffffffff821115611c9157611c91611931565b5060051b60200190565b600082601f830112611cac57600080fd5b81356020611cbc6119bf83611c77565b82815260059290921b84018101918181019086841115611cdb57600080fd5b8286015b84811015611d1b57803567ffffffffffffffff811115611cff5760008081fd5b611d0d8986838b01016119a0565b845250918301918301611cdf565b509695505050505050565b60008060408385031215611d3957600080fd5b823567ffffffffffffffff80821115611d5157600080fd5b611d5d86838701611c9b565b93506020850135915080821115611d7357600080fd5b50611a5085828601611c9b565b600082601f830112611d9157600080fd5b81356020611da16119bf83611c77565b82815260059290921b84018101918181019086841115611dc057600080fd5b8286015b84811015611d1b578035611dd78161187a565b8352918301918301611dc4565b60008060408385031215611df757600080fd5b823567ffffffffffffffff80821115611e0f57600080fd5b611e1b86838701611d80565b93506020850135915080821115611e3157600080fd5b50611a5085828601611d80565b600082601f830112611e4f57600080fd5b81356020611e5f6119bf83611c77565b82815260059290921b84018101918181019086841115611e7e57600080fd5b8286015b84811015611d1b5780358352918301918301611e82565b60008060408385031215611eac57600080fd5b823567ffffffffffffffff80821115611ec457600080fd5b611ed086838701611e3e565b93506020850135915080821115611ee657600080fd5b50611a5085828601611e3e565b7f417373657274696f6e4572726f723a2000000000000000000000000000000000815260008351611f2b816010850160208801611a5a565b7f206973206e6f7420657175616c20746f200000000000000000000000000000006010918401918201528351611f68816021840160208801611a5a565b01602101949350505050565b634e487b7160e01b600052601160045260246000fd5b8181038181111561113f5761113f611f74565b600060208284031215611faf57600080fd5b815161113c8161187a565b60008060408385031215611fcd57600080fd5b825167ffffffffffffffff811115611fe457600080fd5b8301601f81018513611ff557600080fd5b80516120036119bf82611978565b81815286602083850101111561201857600080fd5b612029826020830160208601611a5a565b8094505050506020830151611b8b81611b96565b6000602080830181845280855180835260408601915060408160051b870101925083870160005b8281101561209257603f19888603018452612080858351611a7e565b94509285019290850190600101612064565b5092979650505050505050565b6020808252825182820181905260009190848201906040850190845b818110156120e05783516001600160a01b0316835292840192918401916001016120bb565b50909695505050505050565b7f417373657274696f6e4572726f723a200000000000000000000000000000000081527f20426f74682076616c756573206172650000000000000000000000000000000060108201526000825161214a816020850160208701611a5a565b9190910160200192915050565b6020808252825182820181905260009190848201906040850190845b818110156120e057835183529284019291840191600101612173565b808202811582820484141761113f5761113f611f74565b8082018082111561113f5761113f611f74565b634e487b7160e01b600052603260045260246000fd5b6000816121de576121de611f74565b506000190190565b6060815260006121f96060830186611a7e565b828103602084015261220b8186611a7e565b9050828103604084015261221f8185611a7e565b9695505050505050565b60006001820161223b5761223b611f74565b5060010190565b60006020828403121561225457600080fd5b5051919050565b6000835161226d818460208801611a5a565b835190830190612281818360208801611a5a565b7f2c200000000000000000000000000000000000000000000000000000000000009101908152600201949350505050565b600083516122c4818460208801611a5a565b8351908301906122d8818360208801611a5a565b7f5d000000000000000000000000000000000000000000000000000000000000009101908152600101949350505050565b60008261232657634e487b7160e01b600052601260045260246000fd5b50049056fe53686f756c642062652061626c6520746f206d696e7420756e69717565206861696b75732062757420626c6f636b20636f70696573417373657274696f6e4572726f723a20726573756c74206973206e6f742066616c7365417373657274696f6e4572726f723a20726573756c74206973206e6f74207472756543616c6c20746f20636f756e746572206661696c65642e20204973206974207075626c69633fa2646970667358221220f7d150861a0bab61d33e37931ed10c0f1e95e7f0610813f4197ff4140eced3bd64736f6c6343000811003360806040523480156200001157600080fd5b506040516200321138038062003211833981016040819052620000349162000094565b600080546001600160a01b039485166001600160a01b031991821617909155600180549385169382169390931790925560028054919093169116179055620000de565b80516001600160a01b03811681146200008f57600080fd5b919050565b600080600060608486031215620000aa57600080fd5b620000b58462000077565b9250620000c56020850162000077565b9150620000d56040850162000077565b90509250925092565b61312380620000ee6000396000f3fe608060405234801561001057600080fd5b50600436106100d45760003560e01c80634b64e4921161008157806374f130701161005b57806374f13070146101e6578063d70968e7146101f9578063e7da4c7e1461020c57600080fd5b80634b64e492146101a057806360fb55d5146101c05780636df86478146101d357600080fd5b806331495d33116100b257806331495d331461017a578063410dbb8b1461018d57806346bdca9a1461014757600080fd5b8063150b7a02146100d9578063235266d2146101475780633019162614610167575b600080fd5b6101116100e73660046123b2565b7f150b7a020000000000000000000000000000000000000000000000000000000095945050505050565b6040517fffffffff0000000000000000000000000000000000000000000000000000000090911681526020015b60405180910390f35b61015a61015536600461253f565b61021f565b60405161013e919061266a565b61015a610175366004612684565b6102ce565b61015a6101883660046126a6565b610388565b61015a61019b3660046126ed565b610459565b6101b36101ae36600461270a565b610559565b60405161013e9190612727565b61015a6101ce36600461286f565b61148d565b61015a6101e136600461292d565b611569565b61015a6101f43660046126ed565b611645565b61015a6102073660046126a6565b611746565b61015a61021a3660046129e2565b61180d565b6102536040518060a00160405280600015158152602001606081526020016060815260200160608152602001606081525090565b815160208084019190912084519185019190912014808252610298578282604051602001610282929190612a3c565b60408051601f1981840301815291905260208201525b604080820193909352606081019190915281518083019092526005825264195c5d585b60da1b6020830152608081019190915290565b6103026040518060a00160405280600015158152602001606081526020016060815260200160608152602001606081525090565b82821480825261034557610315836118e9565b61031e836118e9565b60405160200161032f929190612a3c565b60408051601f1981840301815291905260208201525b61034e836118e9565b604082015261035c826118e9565b6060820152604080518082019091526005815264195c5d585b60da1b6020820152608082015292915050565b6103bc6040518060a00160405280600015158152602001606081526020016060815260200160608152602001606081525090565b6001600160a01b03838116908316811482526000906103dc906014611989565b905060006103f4846001600160a01b03166014611989565b8351909150610426578181604051602001610410929190612a3c565b60408051601f1981840301815291905260208401525b604080840192909252606083015280518082019091526005815264195c5d585b60da1b6020820152608082015292915050565b61048d6040518060a00160405280600015158152602001606081526020016060815260200160608152602001606081525090565b81158082526104b5576040518060600160405280602381526020016130016023913960208201525b6001821515146104e2576040518060400160405280600581526020016466616c736560d81b815250610500565b604051806040016040528060048152602001637472756560e01b8152505b6040808301919091528051602080820183526000825260608401919091528151808301909252600782527f697346616c736500000000000000000000000000000000000000000000000000908201526080820152919050565b610561612366565b8161056a612366565b6105778160200151611b91565b50604051806060016040528060288152602001613078602891398160000181905250600080610647846040518060400160405280601581526020017f416e6f746865722061646472657373206d696e747300000000000000000000008152506040518060400160405280601381526020017f4d6f72652062616420706f65747279206e6f77000000000000000000000000008152506040518060400160405280601181526020017f57696c6c20616e796f6e6520636172653f000000000000000000000000000000815250611c0d565b91509150600061065685611cc7565b9194509250905081156106da576106d46040518060a001604052806000151581526020016040518060600160405280602681526020016130a060269139815260408051602081810183526000808352818501929092528251808201845282815283850152825180820190935290825260609092015286015190611d8a565b50610772565b60006001600160a01b038616636352211e6106f6600185612ad3565b6040518263ffffffff1660e01b815260040161071491815260200190565b602060405180830381865afa158015610731573d6000803e3d6000fd5b505050506040513d601f19601f820116820180604052508101906107559190612ae6565b905061076f6107648230610388565b602087015190611d8a565b50505b60005460405163193c593160e31b81526001600160a01b03878116600483015260806024830152600d60848301527f4f726967696e616c20776f726b0000000000000000000000000000000000000060a483015260c06044830152601360c48301527f4e6f77206974206d696e747320616e204e46540000000000000000000000000060e4830152610100606483015260126101048301527f57686f20746f206769766520697420746f3f00000000000000000000000000006101248301529091169063c9e2c98890610144016000604051808303816000875af115801561085e573d6000803e3d6000fd5b505050506040513d6000823e601f3d908101601f191682016040526108869190810190612b50565b909350915061089485611cc7565b919450925090508115610918576109126040518060a001604052806000151581526020016040518060600160405280602681526020016130a060269139815260408051602081810183526000808352818501929092528251808201845282815283850152825180820190935290825260609092015286015190611d8a565b506109b4565b60006001600160a01b038616636352211e610934600185612ad3565b6040518263ffffffff1660e01b815260040161095291815260200190565b602060405180830381865afa15801561096f573d6000803e3d6000fd5b505050506040513d601f19601f820116820180604052508101906109939190612ae6565b6000549091506109b1906107649083906001600160a01b0316610388565b50505b60015460405163193c593160e31b81526001600160a01b03878116600483015260806024830152601160848301527f436f70792f7061737465206572726f727300000000000000000000000000000060a483015260c06044830152601b60c48301527f4d616b65206861726420746f2064656275672070726f626c656d73000000000060e4830152610100606483015260136101048301527f57696c6c2077652065766572206c6561726e3f000000000000000000000000006101248301529091169063c9e2c98890610144016000604051808303816000875af1158015610aa0573d6000803e3d6000fd5b505050506040513d6000823e601f3d908101601f19168201604052610ac89190810190612b50565b9093509150610ad685611cc7565b919450925090508115610b5a57610b546040518060a001604052806000151581526020016040518060600160405280602681526020016130a060269139815260408051602081810183526000808352818501929092528251808201845282815283850152825180820190935290825260609092015286015190611d8a565b50610bf6565b60006001600160a01b038616636352211e610b76600185612ad3565b6040518263ffffffff1660e01b8152600401610b9491815260200190565b602060405180830381865afa158015610bb1573d6000803e3d6000fd5b505050506040513d601f19601f82011682018060405250810190610bd59190612ae6565b600154909150610bf3906107649083906001600160a01b0316610388565b50505b60025460405163462b412d60e01b81526001600160a01b038781166004830152606092169063462b412d90602401600060405180830381865afa158015610c41573d6000803e3d6000fd5b505050506040513d6000823e601f3d908101601f19168201604052610c699190810190612b97565b9195509350905082610cec57610ce66040518060a001604052806000151581526020016040518060600160405280602881526020016130c660289139815260408051602081810183526000808352818501929092528251808201845282815283850152825180820190935290825260609092015287015190611d8a565b50610d54565b6040805160048152602481019091526020810180517bffffffffffffffffffffffffffffffffffffffffffffffffffffffff167ff8826a6900000000000000000000000000000000000000000000000000000000179052610d529061076490869061021f565b505b610d5d86611cc7565b919550935091508215610de157610ddb6040518060a001604052806000151581526020016040518060600160405280602681526020016130a060269139815260408051602081810183526000808352818501929092528251808201845282815283850152825180820190935290825260609092015287015190611d8a565b50611244565b610e0186610df0600185612ad3565b6002546001600160a01b0316611dfa565b909450925082610e8257610e7c6040518060a0016040528060001515815260200160405180606001604052806032815260200161304660329139815260408051602081810183526000808352818501929092528251808201845282815283850152825180820190935290825260609092015287015190611d8a565b50610f05565b610f0361076485610e94600186612ad3565b604051602401610ea691815260200190565b60408051601f198184030181529190526020810180517bffffffffffffffffffffffffffffffffffffffffffffffffffffffff167f03ce4e320000000000000000000000000000000000000000000000000000000017905261021f565b505b610f1486610df0600385612ad3565b90945092508215610fa9576040805160a081018252600080825282518084018452601981527f43616c6c20746f2073686172654861696b75206661696c6564000000000000006020828101919091528084019190915283518082018552828152838501528351808201855282815260608401528351808201909452908352608082019290925290860151610fa791611d8a565b505b6000546001600160a01b031663b59dad4387610fc6600286612ad3565b60025460405160e085901b7fffffffff000000000000000000000000000000000000000000000000000000001681526001600160a01b03938416600482015260248101929092529190911660448201526064016000604051808303816000875af1158015611038573d6000803e3d6000fd5b505050506040513d6000823e601f3d908101601f191682016040526110609190810190612b50565b909450925082156110f5576040805160a081018252600080825282518084018452601981527f43616c6c20746f2073686172654861696b75206661696c65640000000000000060208281019190915280840191909152835180820185528281528385015283518082018552828152606084015283518082019094529083526080820192909252908601516110f391611d8a565b505b600180546001600160a01b03169063b59dad439088906111159086612ad3565b60025460405160e085901b7fffffffff000000000000000000000000000000000000000000000000000000001681526001600160a01b03938416600482015260248101929092529190911660448201526064016000604051808303816000875af1158015611187573d6000803e3d6000fd5b505050506040513d6000823e601f3d908101601f191682016040526111af9190810190612b50565b90945092508215611244576040805160a081018252600080825282518084018452601981527f43616c6c20746f2073686172654861696b75206661696c656400000000000000602082810191909152808401919091528351808201855282815283850152835180820185528281526060840152835180820190945290835260808201929092529086015161124291611d8a565b505b60025460405163462b412d60e01b81526001600160a01b0388811660048301529091169063462b412d90602401600060405180830381865afa15801561128e573d6000803e3d6000fd5b505050506040513d6000823e601f3d908101601f191682016040526112b69190810190612b97565b91955093509050821561134d576040805160a08101825260008082528251808401845260208082527f43616c6c20746f206765744d795368617265644861696b7573206661696c656482820152808401919091528351808201855282815283850152835180820185528281526060840152835180820190945290835260808201929092529086015161134791611d8a565b50611481565b61135c610764825160036102ce565b506113bd6107648260008151811061137657611376612d12565b6020026020010151602001516040518060400160405280601581526020017f416e6f746865722061646472657373206d696e7473000000000000000000000081525061021f565b5061141e610764826001815181106113d7576113d7612d12565b6020026020010151604001516040518060400160405280601381526020017f4e6f77206974206d696e747320616e204e46540000000000000000000000000081525061021f565b5061147f6107648260018151811061143857611438612d12565b6020026020010151604001516040518060400160405280601381526020017f57696c6c2077652065766572206c6561726e3f0000000000000000000000000081525061021f565b505b50929695505050505050565b6114c16040518060a00160405280600015158152602001606081526020016060815260200160608152602001606081525090565b816040516020016114d29190612d28565b60405160208183030381529060405280519060200120836040516020016114f99190612d28565b60408051601f198184030181529190528051602090910120148082526115525761152283611ece565b61152b83611ece565b60405160200161153c929190612a3c565b60408051601f1981840301815291905260208201525b61155b83611ece565b604082015261035c82611ece565b61159d6040518060a00160405280600015158152602001606081526020016060815260200160608152602001606081525090565b816040516020016115ae9190612d8a565b60405160208183030381529060405280519060200120836040516020016115d59190612d8a565b60408051601f1981840301815291905280516020909101201480825261162e576115fe83611fa3565b61160783611fa3565b604051602001611618929190612a3c565b60408051601f1981840301815291905260208201525b61163783611fa3565b604082015261035c82611fa3565b6116796040518060a00160405280600015158152602001606081526020016060815260200160608152602001606081525090565b8115158082526116a2576040518060600160405280602281526020016130246022913960208201525b6001821515146116cf576040518060400160405280600581526020016466616c736560d81b8152506116ed565b604051806040016040528060048152602001637472756560e01b8152505b6040808301919091528051602080820183526000825260608401919091528151808301909252600682527f6973547275650000000000000000000000000000000000000000000000000000908201526080820152919050565b61177a6040518060a00160405280600015158152602001606081526020016060815260200160608152602001606081525090565b6001600160a01b03838116908316811415825260009061179b906014611989565b82519091506117cb57806040516020016117b59190612dd7565b60408051601f1981840301815291905260208301525b60408083019190915280516020808201835260008252606084019190915281518083019092526005825264195c5d585b60da1b90820152608082015292915050565b6118416040518060a00160405280600015158152602001606081526020016060815260200160608152602001606081525090565b816040516020016118529190612e42565b60405160208183030381529060405280519060200120836040516020016118799190612e42565b60408051601f198184030181529190528051602090910120148082526118d2576118a28361207f565b6118ab8361207f565b6040516020016118bc929190612a3c565b60408051601f1981840301815291905260208201525b6118db8361207f565b604082015261035c8261207f565b606060006118f683612150565b600101905060008167ffffffffffffffff81111561191657611916612451565b6040519080825280601f01601f191660200182016040528015611940576020820181803683370190505b5090508181016020015b600019017f3031323334353637383961626364656600000000000000000000000000000000600a86061a8153600a850494508461194a57509392505050565b60606000611998836002612e7a565b6119a3906002612e91565b67ffffffffffffffff8111156119bb576119bb612451565b6040519080825280601f01601f1916602001820160405280156119e5576020820181803683370190505b5090507f300000000000000000000000000000000000000000000000000000000000000081600081518110611a1c57611a1c612d12565b60200101906001600160f81b031916908160001a9053507f780000000000000000000000000000000000000000000000000000000000000081600181518110611a6757611a67612d12565b60200101906001600160f81b031916908160001a9053506000611a8b846002612e7a565b611a96906001612e91565b90505b6001811115611b1b577f303132333435363738396162636465660000000000000000000000000000000085600f1660108110611ad757611ad7612d12565b1a60f81b828281518110611aed57611aed612d12565b60200101906001600160f81b031916908160001a90535060049490941c93611b1481612ea4565b9050611a99565b508315611b88576040517f08c379a000000000000000000000000000000000000000000000000000000000815260206004820181905260248201527f537472696e67733a20686578206c656e67746820696e73756666696369656e74604482015260640160405180910390fd5b90505b92915050565b60408051808201825260608152600060208201528151600480825260a082019093529091816020015b611bee6040518060a00160405280600015158152602001606081526020016060815260200160608152602001606081525090565b815260200190600190039081611bba5750508252506000602082015290565b60606000856001600160a01b031663350fe1658686866040518463ffffffff1660e01b8152600401611c4193929190612ebb565b600060405180830381600087803b158015611c5b57600080fd5b505af1925050508015611c6c575060015b611cab573d808015611c9a576040519150601f19603f3d011682016040523d82523d6000602084013e611c9f565b606091505b50915060019050611cbe565b5050604080516020810190915260008082525b94509492505050565b6060600080836001600160a01b03166361bc221a6040518163ffffffff1660e01b8152600401602060405180830381865afa925050508015611d26575060408051601f3d908101601f19168201909252611d2391810190612efe565b60015b611d6b57505060408051808201909152600b81527f43616c6c206661696c65640000000000000000000000000000000000000000006020820152905060016000611d83565b60408051602081019091526000808252909450925090505b9193909250565b604080518082019091526060815260006020820152825151602084015103611db857611db583612232565b92505b818360000151846020015181518110611dd357611dd3612d12565b6020026020010181905250826020018051809190611df090612f17565b9052509192915050565b6040517f2c83ea56000000000000000000000000000000000000000000000000000000008152600481018390526001600160a01b038281166024830152606091600091861690632c83ea5690604401600060405180830381600087803b158015611e6357600080fd5b505af1925050508015611e74575060015b611eb3573d808015611ea2576040519150601f19603f3d011682016040523d82523d6000602084013e611ea7565b606091505b50915060019050611ec6565b5050604080516020810190915260008082525b935093915050565b6040805180820190915260018152605b60f81b602082015260609060005b8351811015611f9c5760018451611f039190612ad3565b811015611f4c5781848281518110611f1d57611f1d612d12565b6020026020010151604051602001611f36929190612f30565b6040516020818303038152906040529150611f8a565b81848281518110611f5f57611f5f612d12565b6020026020010151604051602001611f78929190612f87565b60405160208183030381529060405291505b80611f9481612f17565b915050611eec565b5092915050565b6040805180820190915260018152605b60f81b602082015260609060005b8351811015611f9c5760018451611fd89190612ad3565b811015612034578161200d858381518110611ff557611ff5612d12565b60200260200101516001600160a01b03166014611989565b60405160200161201e929190612f30565b604051602081830303815290604052915061206d565b8161204a858381518110611ff557611ff5612d12565b60405160200161205b929190612f87565b60405160208183030381529060405291505b8061207781612f17565b915050611fc1565b6040805180820190915260018152605b60f81b602082015260609060005b8351811015611f9c57600184516120b49190612ad3565b81101561210557816120de8583815181106120d1576120d1612d12565b60200260200101516118e9565b6040516020016120ef929190612f30565b604051602081830303815290604052915061213e565b8161211b8583815181106120d1576120d1612d12565b60405160200161212c929190612f87565b60405160208183030381529060405291505b8061214881612f17565b91505061209d565b6000807a184f03e93ff9f4daa797ed6e38ed64bf6a1f0100000000000000008310612199577a184f03e93ff9f4daa797ed6e38ed64bf6a1f010000000000000000830492506040015b6d04ee2d6d415b85acef810000000083106121c5576d04ee2d6d415b85acef8100000000830492506020015b662386f26fc1000083106121e357662386f26fc10000830492506010015b6305f5e10083106121fb576305f5e100830492506008015b612710831061220f57612710830492506004015b60648310612221576064830492506002015b600a8310611b8b5760010192915050565b60408051808201909152606081526000602082015260408051808201909152606081526000602082015282515160029061226d906003612e7a565b6122779190612fde565b67ffffffffffffffff81111561228f5761228f612451565b6040519080825280602002602001820160405280156122f457816020015b6122e16040518060a00160405280600015158152602001606081526020016060815260200160608152602001606081525090565b8152602001906001900390816122ad5790505b50815260005b83515181101561235457835180518290811061231857612318612d12565b60200260200101518260000151828151811061233657612336612d12565b6020026020010181905250808061234c90612f17565b9150506122fa565b50602092830151928101929092525090565b604051806040016040528060608152602001612395604051806040016040528060608152602001600081525090565b905290565b6001600160a01b03811681146123af57600080fd5b50565b6000806000806000608086880312156123ca57600080fd5b85356123d58161239a565b945060208601356123e58161239a565b935060408601359250606086013567ffffffffffffffff8082111561240957600080fd5b818801915088601f83011261241d57600080fd5b81358181111561242c57600080fd5b89602082850101111561243e57600080fd5b9699959850939650602001949392505050565b634e487b7160e01b600052604160045260246000fd5b6040516080810167ffffffffffffffff8111828210171561248a5761248a612451565b60405290565b604051601f8201601f1916810167ffffffffffffffff811182821017156124b9576124b9612451565b604052919050565b600067ffffffffffffffff8211156124db576124db612451565b50601f01601f191660200190565b600082601f8301126124fa57600080fd5b813561250d612508826124c1565b612490565b81815284602083860101111561252257600080fd5b816020850160208301376000918101602001919091529392505050565b6000806040838503121561255257600080fd5b823567ffffffffffffffff8082111561256a57600080fd5b612576868387016124e9565b9350602085013591508082111561258c57600080fd5b50612599858286016124e9565b9150509250929050565b60005b838110156125be5781810151838201526020016125a6565b50506000910152565b600081518084526125df8160208601602086016125a3565b601f01601f19169290920160200192915050565b8051151582526000602082015160a0602085015261261460a08501826125c7565b90506040830151848203604086015261262d82826125c7565b9150506060830151848203606086015261264782826125c7565b9150506080830151848203608086015261266182826125c7565b95945050505050565b60208152600061267d60208301846125f3565b9392505050565b6000806040838503121561269757600080fd5b50508035926020909101359150565b600080604083850312156126b957600080fd5b82356126c48161239a565b915060208301356126d48161239a565b809150509250929050565b80151581146123af57600080fd5b6000602082840312156126ff57600080fd5b8135611b88816126df565b60006020828403121561271c57600080fd5b8135611b888161239a565b60006020808352835160408285015261274360608501826125c7565b905081850151601f198583030160408601526040820181516040845281815180845260608601915060608160051b8701019350868301925060005b818110156127ac57605f1987860301835261279a8585516125f3565b9450928701929187019160010161277e565b505050509083015191909201529392505050565b600067ffffffffffffffff8211156127da576127da612451565b5060051b60200190565b600082601f8301126127f557600080fd5b81356020612805612508836127c0565b82815260059290921b8401810191818101908684111561282457600080fd5b8286015b8481101561286457803567ffffffffffffffff8111156128485760008081fd5b6128568986838b01016124e9565b845250918301918301612828565b509695505050505050565b6000806040838503121561288257600080fd5b823567ffffffffffffffff8082111561289a57600080fd5b6128a6868387016127e4565b935060208501359150808211156128bc57600080fd5b50612599858286016127e4565b600082601f8301126128da57600080fd5b813560206128ea612508836127c0565b82815260059290921b8401810191818101908684111561290957600080fd5b8286015b848110156128645780356129208161239a565b835291830191830161290d565b6000806040838503121561294057600080fd5b823567ffffffffffffffff8082111561295857600080fd5b612964868387016128c9565b9350602085013591508082111561297a57600080fd5b50612599858286016128c9565b600082601f83011261299857600080fd5b813560206129a8612508836127c0565b82815260059290921b840181019181810190868411156129c757600080fd5b8286015b8481101561286457803583529183019183016129cb565b600080604083850312156129f557600080fd5b823567ffffffffffffffff80821115612a0d57600080fd5b612a1986838701612987565b93506020850135915080821115612a2f57600080fd5b5061259985828601612987565b7f417373657274696f6e4572726f723a2000000000000000000000000000000000815260008351612a748160108501602088016125a3565b7f206973206e6f7420657175616c20746f200000000000000000000000000000006010918401918201528351612ab18160218401602088016125a3565b01602101949350505050565b634e487b7160e01b600052601160045260246000fd5b81810381811115611b8b57611b8b612abd565b600060208284031215612af857600080fd5b8151611b888161239a565b600082601f830112612b1457600080fd5b8151612b22612508826124c1565b818152846020838601011115612b3757600080fd5b612b488260208301602087016125a3565b949350505050565b60008060408385031215612b6357600080fd5b825167ffffffffffffffff811115612b7a57600080fd5b612b8685828601612b03565b92505060208301516126d4816126df565b600080600060608486031215612bac57600080fd5b835167ffffffffffffffff80821115612bc457600080fd5b612bd087838801612b03565b94506020915081860151612be3816126df565b604087015190945081811115612bf857600080fd5b8601601f81018813612c0957600080fd5b8051612c17612508826127c0565b81815260059190911b8201840190848101908a831115612c3657600080fd5b8584015b83811015612d0157805186811115612c5157600080fd5b85016080818e03601f19011215612c685760008081fd5b612c70612467565b88820151612c7d8161239a565b8152604082015188811115612c925760008081fd5b612ca08f8b83860101612b03565b8a83015250606082015188811115612cb85760008081fd5b612cc68f8b83860101612b03565b604083015250608082015188811115612cdf5760008081fd5b612ced8f8b83860101612b03565b606083015250845250918601918601612c3a565b508096505050505050509250925092565b634e487b7160e01b600052603260045260246000fd5b6000602080830181845280855180835260408601915060408160051b870101925083870160005b82811015612d7d57603f19888603018452612d6b8583516125c7565b94509285019290850190600101612d4f565b5092979650505050505050565b6020808252825182820181905260009190848201906040850190845b81811015612dcb5783516001600160a01b031683529284019291840191600101612da6565b50909695505050505050565b7f417373657274696f6e4572726f723a200000000000000000000000000000000081527f20426f74682076616c7565732061726500000000000000000000000000000000601082015260008251612e358160208501602087016125a3565b9190910160200192915050565b6020808252825182820181905260009190848201906040850190845b81811015612dcb57835183529284019291840191600101612e5e565b8082028115828204841417611b8b57611b8b612abd565b80820180821115611b8b57611b8b612abd565b600081612eb357612eb3612abd565b506000190190565b606081526000612ece60608301866125c7565b8281036020840152612ee081866125c7565b90508281036040840152612ef481856125c7565b9695505050505050565b600060208284031215612f1057600080fd5b5051919050565b600060018201612f2957612f29612abd565b5060010190565b60008351612f428184602088016125a3565b835190830190612f568183602088016125a3565b7f2c200000000000000000000000000000000000000000000000000000000000009101908152600201949350505050565b60008351612f998184602088016125a3565b835190830190612fad8183602088016125a3565b7f5d000000000000000000000000000000000000000000000000000000000000009101908152600101949350505050565b600082612ffb57634e487b7160e01b600052601260045260246000fd5b50049056fe417373657274696f6e4572726f723a20726573756c74206973206e6f742066616c7365417373657274696f6e4572726f723a20726573756c74206973206e6f74207472756543616c6c20746f2073686172654861696b752073686f756c64207265766572742077697468204e6f74596f75724861696b7553686f756c642063726561746520616e642073686172652061636365737320746f206861696b757343616c6c20746f20636f756e746572206661696c65642e20204973206974207075626c69633f43616c6c20746f206765744d795368617265644861696b757320646964206e6f7420726576657274a26469706673582212207e073367fbc5994a12585429ae6f26a1e231071268fc2272017acb91890d8e6764736f6c63430008110033",
  "devdoc": {
    "kind": "dev",
    "methods": {
      "approve(address,uint256)": {
        "details": "See {IERC721-approve}."
      },
      "balanceOf(address)": {
        "details": "See {IERC721-balanceOf}."
      },
      "getApproved(uint256)": {
        "details": "See {IERC721-getApproved}."
      },
      "isApprovedForAll(address,address)": {
        "details": "See {IERC721-isApprovedForAll}."
      },
      "name()": {
        "details": "See {IERC721Metadata-name}."
      },
      "owner()": {
        "details": "Returns the address of the current owner."
      },
      "ownerOf(uint256)": {
        "details": "See {IERC721-ownerOf}."
      },
      "renounceOwnership()": {
        "details": "Leaves the contract without owner. It will not be possible to call `onlyOwner` functions anymore. Can only be called by the current owner. NOTE: Renouncing ownership will leave the contract without an owner, thereby removing any functionality that is only available to the owner."
      },
      "safeTransferFrom(address,address,uint256)": {
        "details": "See {IERC721-safeTransferFrom}."
      },
      "safeTransferFrom(address,address,uint256,bytes)": {
        "details": "See {IERC721-safeTransferFrom}."
      },
      "setApprovalForAll(address,bool)": {
        "details": "See {IERC721-setApprovalForAll}."
      },
      "supportsInterface(bytes4)": {
        "details": "See {IERC165-supportsInterface}."
      },
      "symbol()": {
        "details": "See {IERC721Metadata-symbol}."
      },
      "transferFrom(address,address,uint256)": {
        "details": "See {IERC721-transferFrom}."
      },
      "transferOwnership(address)": {
        "details": "Transfers ownership of the contract to a new account (`newOwner`). Can only be called by the current owner."
      }
    },
    "version": 1
  },
  "userdoc": {
    "kind": "user",
    "methods": {
      "checkIfAllPassed((string,((bool,string,string,string,string)[],uint256))[])": {
        "notice": "Check each assert in each test to see if any failed. Note:  The check is here instead of setting a `passed` bool in `TestResult` to reduce the amount of code in each unit test."
      }
    },
    "version": 1
  },
  "storageLayout": {
    "storage": [
      {
        "astId": 882,
        "contract": "contracts/ERC721UT.sol:ERC721UT",
        "label": "_name",
        "offset": 0,
        "slot": "0",
        "type": "t_string_storage"
      },
      {
        "astId": 884,
        "contract": "contracts/ERC721UT.sol:ERC721UT",
        "label": "_symbol",
        "offset": 0,
        "slot": "1",
        "type": "t_string_storage"
      },
      {
        "astId": 888,
        "contract": "contracts/ERC721UT.sol:ERC721UT",
        "label": "_owners",
        "offset": 0,
        "slot": "2",
        "type": "t_mapping(t_uint256,t_address)"
      },
      {
        "astId": 892,
        "contract": "contracts/ERC721UT.sol:ERC721UT",
        "label": "_balances",
        "offset": 0,
        "slot": "3",
        "type": "t_mapping(t_address,t_uint256)"
      },
      {
        "astId": 896,
        "contract": "contracts/ERC721UT.sol:ERC721UT",
        "label": "_tokenApprovals",
        "offset": 0,
        "slot": "4",
        "type": "t_mapping(t_uint256,t_address)"
      },
      {
        "astId": 902,
        "contract": "contracts/ERC721UT.sol:ERC721UT",
        "label": "_operatorApprovals",
        "offset": 0,
        "slot": "5",
        "type": "t_mapping(t_address,t_mapping(t_address,t_bool))"
      },
      {
        "astId": 7,
        "contract": "contracts/ERC721UT.sol:ERC721UT",
        "label": "_owner",
        "offset": 0,
        "slot": "6",
        "type": "t_address"
      },
      {
        "astId": 123,
        "contract": "contracts/ERC721UT.sol:ERC721UT",
        "label": "_status",
        "offset": 0,
        "slot": "7",
        "type": "t_uint256"
      },
      {
        "astId": 6525,
        "contract": "contracts/ERC721UT.sol:ERC721UT",
        "label": "tokenIds",
        "offset": 0,
        "slot": "8",
        "type": "t_struct(Counter)2320_storage"
      },
      {
        "astId": 6529,
        "contract": "contracts/ERC721UT.sol:ERC721UT",
        "label": "owners",
        "offset": 0,
        "slot": "9",
        "type": "t_mapping(t_address,t_bool)"
      },
      {
        "astId": 6533,
        "contract": "contracts/ERC721UT.sol:ERC721UT",
        "label": "submittedContracts",
        "offset": 0,
        "slot": "10",
        "type": "t_mapping(t_address,t_bool)"
      },
      {
        "astId": 6536,
        "contract": "contracts/ERC721UT.sol:ERC721UT",
        "label": "active",
        "offset": 0,
        "slot": "11",
        "type": "t_bool"
      },
      {
        "astId": 6539,
        "contract": "contracts/ERC721UT.sol:ERC721UT",
        "label": "AllTokenURI",
        "offset": 0,
        "slot": "12",
        "type": "t_string_storage"
      },
      {
        "astId": 6559,
        "contract": "contracts/ERC721UT.sol:ERC721UT",
        "label": "tests",
        "offset": 0,
        "slot": "13",
        "type": "t_array(t_contract(ITest)6495)dyn_storage"
      },
      {
        "astId": 6563,
        "contract": "contracts/ERC721UT.sol:ERC721UT",
        "label": "deployer",
        "offset": 0,
        "slot": "14",
        "type": "t_contract(IDeploy)6506"
      }
    ],
    "types": {
      "t_address": {
        "encoding": "inplace",
        "label": "address",
        "numberOfBytes": "20"
      },
      "t_array(t_contract(ITest)6495)dyn_storage": {
        "base": "t_contract(ITest)6495",
        "encoding": "dynamic_array",
        "label": "contract ITest[]",
        "numberOfBytes": "32"
      },
      "t_bool": {
        "encoding": "inplace",
        "label": "bool",
        "numberOfBytes": "1"
      },
      "t_contract(IDeploy)6506": {
        "encoding": "inplace",
        "label": "contract IDeploy",
        "numberOfBytes": "20"
      },
      "t_contract(ITest)6495": {
        "encoding": "inplace",
        "label": "contract ITest",
        "numberOfBytes": "20"
      },
      "t_mapping(t_address,t_bool)": {
        "encoding": "mapping",
        "key": "t_address",
        "label": "mapping(address => bool)",
        "numberOfBytes": "32",
        "value": "t_bool"
      },
      "t_mapping(t_address,t_mapping(t_address,t_bool))": {
        "encoding": "mapping",
        "key": "t_address",
        "label": "mapping(address => mapping(address => bool))",
        "numberOfBytes": "32",
        "value": "t_mapping(t_address,t_bool)"
      },
      "t_mapping(t_address,t_uint256)": {
        "encoding": "mapping",
        "key": "t_address",
        "label": "mapping(address => uint256)",
        "numberOfBytes": "32",
        "value": "t_uint256"
      },
      "t_mapping(t_uint256,t_address)": {
        "encoding": "mapping",
        "key": "t_uint256",
        "label": "mapping(uint256 => address)",
        "numberOfBytes": "32",
        "value": "t_address"
      },
      "t_string_storage": {
        "encoding": "bytes",
        "label": "string",
        "numberOfBytes": "32"
      },
      "t_struct(Counter)2320_storage": {
        "encoding": "inplace",
        "label": "struct Counters.Counter",
        "members": [
          {
            "astId": 2319,
            "contract": "contracts/ERC721UT.sol:ERC721UT",
            "label": "_value",
            "offset": 0,
            "slot": "0",
            "type": "t_uint256"
          }
        ],
        "numberOfBytes": "32"
      },
      "t_uint256": {
        "encoding": "inplace",
        "label": "uint256",
        "numberOfBytes": "32"
      }
    }
  }
}