{
  "address": "0xeD5FD5BDCb0E1e49ccfDfd17fD0e1C8975bB6A1B",
  "abi": [
    {
      "inputs": [],
      "stateMutability": "nonpayable",
      "type": "constructor"
    },
    {
      "inputs": [],
      "name": "NotActive",
      "type": "error"
    },
    {
      "inputs": [],
      "name": "SoulboundToken",
      "type": "error"
    },
    {
      "anonymous": false,
      "inputs": [
        {
          "indexed": true,
          "internalType": "address",
          "name": "owner",
          "type": "address"
        },
        {
          "indexed": true,
          "internalType": "address",
          "name": "approved",
          "type": "address"
        },
        {
          "indexed": true,
          "internalType": "uint256",
          "name": "tokenId",
          "type": "uint256"
        }
      ],
      "name": "Approval",
      "type": "event"
    },
    {
      "anonymous": false,
      "inputs": [
        {
          "indexed": true,
          "internalType": "address",
          "name": "owner",
          "type": "address"
        },
        {
          "indexed": true,
          "internalType": "address",
          "name": "operator",
          "type": "address"
        },
        {
          "indexed": false,
          "internalType": "bool",
          "name": "approved",
          "type": "bool"
        }
      ],
      "name": "ApprovalForAll",
      "type": "event"
    },
    {
      "anonymous": false,
      "inputs": [
        {
          "indexed": true,
          "internalType": "address",
          "name": "previousOwner",
          "type": "address"
        },
        {
          "indexed": true,
          "internalType": "address",
          "name": "newOwner",
          "type": "address"
        }
      ],
      "name": "OwnershipTransferred",
      "type": "event"
    },
    {
      "anonymous": false,
      "inputs": [
        {
          "indexed": false,
          "internalType": "address",
          "name": "submission",
          "type": "address"
        },
        {
          "indexed": false,
          "internalType": "bool",
          "name": "passed",
          "type": "bool"
        },
        {
          "components": [
            {
              "internalType": "string",
              "name": "message",
              "type": "string"
            },
            {
              "components": [
                {
                  "components": [
                    {
                      "internalType": "bool",
                      "name": "passed",
                      "type": "bool"
                    },
                    {
                      "internalType": "string",
                      "name": "assertionError",
                      "type": "string"
                    },
                    {
                      "internalType": "string",
                      "name": "returnedAsString",
                      "type": "string"
                    },
                    {
                      "internalType": "string",
                      "name": "expectedAsString",
                      "type": "string"
                    },
                    {
                      "internalType": "string",
                      "name": "methodName",
                      "type": "string"
                    }
                  ],
                  "internalType": "struct Assert.AssertResult[]",
                  "name": "elements",
                  "type": "tuple[]"
                },
                {
                  "internalType": "uint256",
                  "name": "num",
                  "type": "uint256"
                }
              ],
              "internalType": "struct List.ARList",
              "name": "assertResults",
              "type": "tuple"
            }
          ],
          "indexed": false,
          "internalType": "struct Cafe.TestResult[]",
          "name": "testResults",
          "type": "tuple[]"
        }
      ],
      "name": "TestSuiteResult",
      "type": "event"
    },
    {
      "anonymous": false,
      "inputs": [
        {
          "indexed": true,
          "internalType": "address",
          "name": "from",
          "type": "address"
        },
        {
          "indexed": true,
          "internalType": "address",
          "name": "to",
          "type": "address"
        },
        {
          "indexed": true,
          "internalType": "uint256",
          "name": "tokenId",
          "type": "uint256"
        }
      ],
      "name": "Transfer",
      "type": "event"
    },
    {
      "inputs": [
        {
          "internalType": "address",
          "name": "to",
          "type": "address"
        },
        {
          "internalType": "uint256",
          "name": "tokenId",
          "type": "uint256"
        }
      ],
      "name": "approve",
      "outputs": [],
      "stateMutability": "nonpayable",
      "type": "function"
    },
    {
      "inputs": [
        {
          "internalType": "address",
          "name": "owner",
          "type": "address"
        }
      ],
      "name": "balanceOf",
      "outputs": [
        {
          "internalType": "uint256",
          "name": "",
          "type": "uint256"
        }
      ],
      "stateMutability": "view",
      "type": "function"
    },
    {
      "inputs": [
        {
          "components": [
            {
              "internalType": "string",
              "name": "message",
              "type": "string"
            },
            {
              "components": [
                {
                  "components": [
                    {
                      "internalType": "bool",
                      "name": "passed",
                      "type": "bool"
                    },
                    {
                      "internalType": "string",
                      "name": "assertionError",
                      "type": "string"
                    },
                    {
                      "internalType": "string",
                      "name": "returnedAsString",
                      "type": "string"
                    },
                    {
                      "internalType": "string",
                      "name": "expectedAsString",
                      "type": "string"
                    },
                    {
                      "internalType": "string",
                      "name": "methodName",
                      "type": "string"
                    }
                  ],
                  "internalType": "struct Assert.AssertResult[]",
                  "name": "elements",
                  "type": "tuple[]"
                },
                {
                  "internalType": "uint256",
                  "name": "num",
                  "type": "uint256"
                }
              ],
              "internalType": "struct List.ARList",
              "name": "assertResults",
              "type": "tuple"
            }
          ],
          "internalType": "struct Cafe.TestResult[]",
          "name": "_testResults",
          "type": "tuple[]"
        }
      ],
      "name": "checkIfAllPassed",
      "outputs": [
        {
          "internalType": "bool",
          "name": "",
          "type": "bool"
        }
      ],
      "stateMutability": "pure",
      "type": "function"
    },
    {
      "inputs": [
        {
          "internalType": "bytes",
          "name": "a",
          "type": "bytes"
        },
        {
          "internalType": "bytes",
          "name": "b",
          "type": "bytes"
        }
      ],
      "name": "equal",
      "outputs": [
        {
          "components": [
            {
              "internalType": "bool",
              "name": "passed",
              "type": "bool"
            },
            {
              "internalType": "string",
              "name": "assertionError",
              "type": "string"
            },
            {
              "internalType": "string",
              "name": "returnedAsString",
              "type": "string"
            },
            {
              "internalType": "string",
              "name": "expectedAsString",
              "type": "string"
            },
            {
              "internalType": "string",
              "name": "methodName",
              "type": "string"
            }
          ],
          "internalType": "struct Assert.AssertResult",
          "name": "result",
          "type": "tuple"
        }
      ],
      "stateMutability": "pure",
      "type": "function"
    },
    {
      "inputs": [
        {
          "internalType": "uint256",
          "name": "a",
          "type": "uint256"
        },
        {
          "internalType": "uint256",
          "name": "b",
          "type": "uint256"
        }
      ],
      "name": "equal",
      "outputs": [
        {
          "components": [
            {
              "internalType": "bool",
              "name": "passed",
              "type": "bool"
            },
            {
              "internalType": "string",
              "name": "assertionError",
              "type": "string"
            },
            {
              "internalType": "string",
              "name": "returnedAsString",
              "type": "string"
            },
            {
              "internalType": "string",
              "name": "expectedAsString",
              "type": "string"
            },
            {
              "internalType": "string",
              "name": "methodName",
              "type": "string"
            }
          ],
          "internalType": "struct Assert.AssertResult",
          "name": "result",
          "type": "tuple"
        }
      ],
      "stateMutability": "pure",
      "type": "function"
    },
    {
      "inputs": [
        {
          "internalType": "address",
          "name": "a",
          "type": "address"
        },
        {
          "internalType": "address",
          "name": "b",
          "type": "address"
        }
      ],
      "name": "equal",
      "outputs": [
        {
          "components": [
            {
              "internalType": "bool",
              "name": "passed",
              "type": "bool"
            },
            {
              "internalType": "string",
              "name": "assertionError",
              "type": "string"
            },
            {
              "internalType": "string",
              "name": "returnedAsString",
              "type": "string"
            },
            {
              "internalType": "string",
              "name": "expectedAsString",
              "type": "string"
            },
            {
              "internalType": "string",
              "name": "methodName",
              "type": "string"
            }
          ],
          "internalType": "struct Assert.AssertResult",
          "name": "result",
          "type": "tuple"
        }
      ],
      "stateMutability": "pure",
      "type": "function"
    },
    {
      "inputs": [
        {
          "internalType": "string",
          "name": "a",
          "type": "string"
        },
        {
          "internalType": "string",
          "name": "b",
          "type": "string"
        }
      ],
      "name": "equal",
      "outputs": [
        {
          "components": [
            {
              "internalType": "bool",
              "name": "passed",
              "type": "bool"
            },
            {
              "internalType": "string",
              "name": "assertionError",
              "type": "string"
            },
            {
              "internalType": "string",
              "name": "returnedAsString",
              "type": "string"
            },
            {
              "internalType": "string",
              "name": "expectedAsString",
              "type": "string"
            },
            {
              "internalType": "string",
              "name": "methodName",
              "type": "string"
            }
          ],
          "internalType": "struct Assert.AssertResult",
          "name": "result",
          "type": "tuple"
        }
      ],
      "stateMutability": "pure",
      "type": "function"
    },
    {
      "inputs": [
        {
          "internalType": "string[]",
          "name": "a",
          "type": "string[]"
        },
        {
          "internalType": "string[]",
          "name": "b",
          "type": "string[]"
        }
      ],
      "name": "equal",
      "outputs": [
        {
          "components": [
            {
              "internalType": "bool",
              "name": "passed",
              "type": "bool"
            },
            {
              "internalType": "string",
              "name": "assertionError",
              "type": "string"
            },
            {
              "internalType": "string",
              "name": "returnedAsString",
              "type": "string"
            },
            {
              "internalType": "string",
              "name": "expectedAsString",
              "type": "string"
            },
            {
              "internalType": "string",
              "name": "methodName",
              "type": "string"
            }
          ],
          "internalType": "struct Assert.AssertResult",
          "name": "result",
          "type": "tuple"
        }
      ],
      "stateMutability": "pure",
      "type": "function"
    },
    {
      "inputs": [
        {
          "internalType": "address[]",
          "name": "a",
          "type": "address[]"
        },
        {
          "internalType": "address[]",
          "name": "b",
          "type": "address[]"
        }
      ],
      "name": "equal",
      "outputs": [
        {
          "components": [
            {
              "internalType": "bool",
              "name": "passed",
              "type": "bool"
            },
            {
              "internalType": "string",
              "name": "assertionError",
              "type": "string"
            },
            {
              "internalType": "string",
              "name": "returnedAsString",
              "type": "string"
            },
            {
              "internalType": "string",
              "name": "expectedAsString",
              "type": "string"
            },
            {
              "internalType": "string",
              "name": "methodName",
              "type": "string"
            }
          ],
          "internalType": "struct Assert.AssertResult",
          "name": "result",
          "type": "tuple"
        }
      ],
      "stateMutability": "pure",
      "type": "function"
    },
    {
      "inputs": [
        {
          "internalType": "uint256[]",
          "name": "a",
          "type": "uint256[]"
        },
        {
          "internalType": "uint256[]",
          "name": "b",
          "type": "uint256[]"
        }
      ],
      "name": "equal",
      "outputs": [
        {
          "components": [
            {
              "internalType": "bool",
              "name": "passed",
              "type": "bool"
            },
            {
              "internalType": "string",
              "name": "assertionError",
              "type": "string"
            },
            {
              "internalType": "string",
              "name": "returnedAsString",
              "type": "string"
            },
            {
              "internalType": "string",
              "name": "expectedAsString",
              "type": "string"
            },
            {
              "internalType": "string",
              "name": "methodName",
              "type": "string"
            }
          ],
          "internalType": "struct Assert.AssertResult",
          "name": "result",
          "type": "tuple"
        }
      ],
      "stateMutability": "pure",
      "type": "function"
    },
    {
      "inputs": [
        {
          "internalType": "uint256",
          "name": "tokenId",
          "type": "uint256"
        }
      ],
      "name": "getApproved",
      "outputs": [
        {
          "internalType": "address",
          "name": "",
          "type": "address"
        }
      ],
      "stateMutability": "view",
      "type": "function"
    },
    {
      "inputs": [
        {
          "internalType": "address",
          "name": "owner",
          "type": "address"
        },
        {
          "internalType": "address",
          "name": "operator",
          "type": "address"
        }
      ],
      "name": "isApprovedForAll",
      "outputs": [
        {
          "internalType": "bool",
          "name": "",
          "type": "bool"
        }
      ],
      "stateMutability": "view",
      "type": "function"
    },
    {
      "inputs": [
        {
          "internalType": "bool",
          "name": "a",
          "type": "bool"
        }
      ],
      "name": "isFalse",
      "outputs": [
        {
          "components": [
            {
              "internalType": "bool",
              "name": "passed",
              "type": "bool"
            },
            {
              "internalType": "string",
              "name": "assertionError",
              "type": "string"
            },
            {
              "internalType": "string",
              "name": "returnedAsString",
              "type": "string"
            },
            {
              "internalType": "string",
              "name": "expectedAsString",
              "type": "string"
            },
            {
              "internalType": "string",
              "name": "methodName",
              "type": "string"
            }
          ],
          "internalType": "struct Assert.AssertResult",
          "name": "result",
          "type": "tuple"
        }
      ],
      "stateMutability": "pure",
      "type": "function"
    },
    {
      "inputs": [
        {
          "internalType": "bool",
          "name": "a",
          "type": "bool"
        }
      ],
      "name": "isTrue",
      "outputs": [
        {
          "components": [
            {
              "internalType": "bool",
              "name": "passed",
              "type": "bool"
            },
            {
              "internalType": "string",
              "name": "assertionError",
              "type": "string"
            },
            {
              "internalType": "string",
              "name": "returnedAsString",
              "type": "string"
            },
            {
              "internalType": "string",
              "name": "expectedAsString",
              "type": "string"
            },
            {
              "internalType": "string",
              "name": "methodName",
              "type": "string"
            }
          ],
          "internalType": "struct Assert.AssertResult",
          "name": "result",
          "type": "tuple"
        }
      ],
      "stateMutability": "pure",
      "type": "function"
    },
    {
      "inputs": [],
      "name": "name",
      "outputs": [
        {
          "internalType": "string",
          "name": "",
          "type": "string"
        }
      ],
      "stateMutability": "view",
      "type": "function"
    },
    {
      "inputs": [
        {
          "internalType": "address",
          "name": "a",
          "type": "address"
        },
        {
          "internalType": "address",
          "name": "b",
          "type": "address"
        }
      ],
      "name": "notEqual",
      "outputs": [
        {
          "components": [
            {
              "internalType": "bool",
              "name": "passed",
              "type": "bool"
            },
            {
              "internalType": "string",
              "name": "assertionError",
              "type": "string"
            },
            {
              "internalType": "string",
              "name": "returnedAsString",
              "type": "string"
            },
            {
              "internalType": "string",
              "name": "expectedAsString",
              "type": "string"
            },
            {
              "internalType": "string",
              "name": "methodName",
              "type": "string"
            }
          ],
          "internalType": "struct Assert.AssertResult",
          "name": "result",
          "type": "tuple"
        }
      ],
      "stateMutability": "pure",
      "type": "function"
    },
    {
      "inputs": [],
      "name": "owner",
      "outputs": [
        {
          "internalType": "address",
          "name": "",
          "type": "address"
        }
      ],
      "stateMutability": "view",
      "type": "function"
    },
    {
      "inputs": [
        {
          "internalType": "uint256",
          "name": "tokenId",
          "type": "uint256"
        }
      ],
      "name": "ownerOf",
      "outputs": [
        {
          "internalType": "address",
          "name": "",
          "type": "address"
        }
      ],
      "stateMutability": "view",
      "type": "function"
    },
    {
      "inputs": [
        {
          "internalType": "address",
          "name": "",
          "type": "address"
        }
      ],
      "name": "owners",
      "outputs": [
        {
          "internalType": "bool",
          "name": "",
          "type": "bool"
        }
      ],
      "stateMutability": "view",
      "type": "function"
    },
    {
      "inputs": [],
      "name": "renounceOwnership",
      "outputs": [],
      "stateMutability": "nonpayable",
      "type": "function"
    },
    {
      "inputs": [
        {
          "internalType": "address",
          "name": "from",
          "type": "address"
        },
        {
          "internalType": "address",
          "name": "to",
          "type": "address"
        },
        {
          "internalType": "uint256",
          "name": "tokenId",
          "type": "uint256"
        }
      ],
      "name": "safeTransferFrom",
      "outputs": [],
      "stateMutability": "nonpayable",
      "type": "function"
    },
    {
      "inputs": [
        {
          "internalType": "address",
          "name": "from",
          "type": "address"
        },
        {
          "internalType": "address",
          "name": "to",
          "type": "address"
        },
        {
          "internalType": "uint256",
          "name": "tokenId",
          "type": "uint256"
        },
        {
          "internalType": "bytes",
          "name": "data",
          "type": "bytes"
        }
      ],
      "name": "safeTransferFrom",
      "outputs": [],
      "stateMutability": "nonpayable",
      "type": "function"
    },
    {
      "inputs": [
        {
          "internalType": "bool",
          "name": "_setActiveTo",
          "type": "bool"
        }
      ],
      "name": "setActive",
      "outputs": [],
      "stateMutability": "nonpayable",
      "type": "function"
    },
    {
      "inputs": [
        {
          "internalType": "address",
          "name": "operator",
          "type": "address"
        },
        {
          "internalType": "bool",
          "name": "approved",
          "type": "bool"
        }
      ],
      "name": "setApprovalForAll",
      "outputs": [],
      "stateMutability": "nonpayable",
      "type": "function"
    },
    {
      "inputs": [
        {
          "internalType": "string",
          "name": "_tokenURI",
          "type": "string"
        }
      ],
      "name": "setTokenURI",
      "outputs": [],
      "stateMutability": "nonpayable",
      "type": "function"
    },
    {
      "inputs": [
        {
          "internalType": "bytes4",
          "name": "interfaceId",
          "type": "bytes4"
        }
      ],
      "name": "supportsInterface",
      "outputs": [
        {
          "internalType": "bool",
          "name": "",
          "type": "bool"
        }
      ],
      "stateMutability": "view",
      "type": "function"
    },
    {
      "inputs": [],
      "name": "symbol",
      "outputs": [
        {
          "internalType": "string",
          "name": "",
          "type": "string"
        }
      ],
      "stateMutability": "view",
      "type": "function"
    },
    {
      "inputs": [
        {
          "internalType": "address",
          "name": "_submissionAddress",
          "type": "address"
        }
      ],
      "name": "testContract",
      "outputs": [],
      "stateMutability": "nonpayable",
      "type": "function"
    },
    {
      "inputs": [
        {
          "internalType": "uint256",
          "name": "",
          "type": "uint256"
        }
      ],
      "name": "tokenURI",
      "outputs": [
        {
          "internalType": "string",
          "name": "",
          "type": "string"
        }
      ],
      "stateMutability": "view",
      "type": "function"
    },
    {
      "inputs": [
        {
          "internalType": "address",
          "name": "from",
          "type": "address"
        },
        {
          "internalType": "address",
          "name": "to",
          "type": "address"
        },
        {
          "internalType": "uint256",
          "name": "tokenId",
          "type": "uint256"
        }
      ],
      "name": "transferFrom",
      "outputs": [],
      "stateMutability": "nonpayable",
      "type": "function"
    },
    {
      "inputs": [
        {
          "internalType": "address",
          "name": "newOwner",
          "type": "address"
        }
      ],
      "name": "transferOwnership",
      "outputs": [],
      "stateMutability": "nonpayable",
      "type": "function"
    }
  ],
  "transactionHash": "0x34e8f616c23f5c2fa154596b5cc2ab2d918ccf6dd71a1d5b1895c991c26600dd",
  "args": [],
  "numDeployments": 2,
  "solcInputHash": "cce5e99710aedb2b7694c5fe3ee6e1a0",
  "bytecode": "0x600b805460ff1916600117905560a060405260006080908152600c906200002790826200030d565b503480156200003557600080fd5b506040518060400160405280601081526020016f22b93937b9102a3934b0b3b2902834b760811b8152506040518060400160405280600581526020016414d0d1115560da1b81525081600090816200008e91906200030d565b5060016200009d82826200030d565b505050620000ba620000b4620001e860201b60201c565b620001ec565b6001600755604051600d90620000d0906200023e565b604051809103906000f080158015620000ed573d6000803e3d6000fd5b5081546001810183556000928352602090922090910180546001600160a01b0319166001600160a01b03909216919091179055604051600d9062000131906200024c565b604051809103906000f0801580156200014e573d6000803e3d6000fd5b5081546001810183556000928352602090922090910180546001600160a01b0319166001600160a01b03909216919091179055604051600d9062000192906200025a565b604051809103906000f080158015620001af573d6000803e3d6000fd5b5081546001810183556000928352602090922090910180546001600160a01b0319166001600160a01b03909216919091179055620003d9565b3390565b600680546001600160a01b038381166001600160a01b0319831681179093556040519116919082907f8be0079c531659141344cd1fd0a4f28419497f9722a3daafe3b4186f6b6457e090600090a35050565b6120528062003d9183390190565b611ea88062005de383390190565b6124e28062007c8b83390190565b634e487b7160e01b600052604160045260246000fd5b600181811c908216806200029357607f821691505b602082108103620002b457634e487b7160e01b600052602260045260246000fd5b50919050565b601f8211156200030857600081815260208120601f850160051c81016020861015620002e35750805b601f850160051c820191505b818110156200030457828155600101620002ef565b5050505b505050565b81516001600160401b0381111562000329576200032962000268565b62000341816200033a84546200027e565b84620002ba565b602080601f831160018114620003795760008415620003605750858301515b600019600386901b1c1916600185901b17855562000304565b600085815260208120601f198616915b82811015620003aa5788860151825594840194600190910190840162000389565b5085821015620003c95787850151600019600388901b60f8161c191681555b5050505050600190811b01905550565b6139a880620003e96000396000f3fe608060405234801561001057600080fd5b50600436106101e55760003560e01c80636df864781161010f578063b88d4fde116100a2578063e7da4c7e11610071578063e7da4c7e1461041c578063e985e9c51461042f578063f2fde38b1461046b578063fa084b9b1461047e57600080fd5b8063b88d4fde146103d0578063c87b56dd146103e3578063d70968e7146103f6578063e0df5b6f1461040957600080fd5b80638da5cb5b116100de5780638da5cb5b1461039157806395d89b41146103a2578063a22cb465146103aa578063acec338a146103bd57600080fd5b80636df864781461034257806370a0823114610355578063715018a61461037657806374f130701461037e57600080fd5b806323b872dd1161018757806342842e0e1161015657806342842e0e1461030957806346bdca9a1461029d57806360fb55d51461031c5780636352211e1461032f57600080fd5b806323b872dd146102bd57806330191626146102d057806331495d33146102e3578063410dbb8b146102f657600080fd5b806306fdde03116101c357806306fdde031461024a578063081812fc1461025f578063095ea7b31461028a578063235266d21461029d57600080fd5b806301ffc9a7146101ea578063022914a71461021257806306d82f2914610235575b600080fd5b6101fd6101f83660046126ad565b610491565b60405190151581526020015b60405180910390f35b6101fd6102203660046126df565b60096020526000908152604090205460ff1681565b6102486102433660046126df565b61052e565b005b6102526107f1565b604051610209919061274c565b61027261026d36600461275f565b610883565b6040516001600160a01b039091168152602001610209565b610248610298366004612778565b6108aa565b6102b06102ab3660046128b5565b6109fe565b6040516102099190612990565b6102486102cb3660046129a3565b610aad565b6102b06102de3660046129e4565b610b24565b6102b06102f1366004612a06565b610bde565b6102b0610304366004612a5d565b610caf565b6102486103173660046129a3565b610daf565b6102b061032a366004612b29565b610dca565b61027261033d36600461275f565b610ea6565b6102b0610350366004612be7565b610f0b565b6103686103633660046126df565b610fe7565b604051908152602001610209565b610248611081565b6102b061038c366004612a5d565b611095565b6006546001600160a01b0316610272565b610252611196565b6102486103b8366004612c41565b6111a5565b6102486103cb366004612a5d565b6111b4565b6102486103de366004612c6f565b6111cf565b6102526103f136600461275f565b611247565b6102b0610404366004612a06565b6112db565b610248610417366004612cdb565b6113a2565b6102b061042a366004612d6b565b6113b6565b6101fd61043d366004612a06565b6001600160a01b03918216600090815260056020908152604080832093909416825291909152205460ff1690565b6102486104793660046126df565b611492565b6101fd61048c366004612dc5565b611522565b60006001600160e01b031982167f80ac58cd0000000000000000000000000000000000000000000000000000000014806104f457506001600160e01b031982167f5b5e139f00000000000000000000000000000000000000000000000000000000145b8061052857507f01ffc9a7000000000000000000000000000000000000000000000000000000006001600160e01b03198316145b92915050565b600b5460ff1661056a576040517f80cb55e200000000000000000000000000000000000000000000000000000000815260040160405180910390fd5b600e5460609060009083906001600160a01b0316156106a657600d54610591906001613102565b67ffffffffffffffff8111156105a9576105a96127a4565b6040519080825280602002602001820160405280156105e257816020015b6105cf612663565b8152602001906001900390816105c75790505b509250816105ef81613115565b600e546040517f4c96a3890000000000000000000000000000000000000000000000000000000081526001600160a01b03888116600483015292955091169150634c96a389906024016000604051808303816000875af1158015610657573d6000803e3d6000fd5b505050506040513d6000823e601f3d908101601f1916820160405261067f9190810190613345565b846000815181106106925761069261338c565b6020026020010181935082905250506106fe565b600d5467ffffffffffffffff8111156106c1576106c16127a4565b6040519080825280602002602001820160405280156106fa57816020015b6106e7612663565b8152602001906001900390816106df5790505b5092505b600d548210156107e157600d828154811061071b5761071b61338c565b6000918252602090912001546040517f4b64e4920000000000000000000000000000000000000000000000000000000081526001600160a01b03838116600483015290911690634b64e492906024016000604051808303816000875af1158015610789573d6000803e3d6000fd5b505050506040513d6000823e601f3d908101601f191682016040526107b191908101906133a2565b8383815181106107c3576107c361338c565b602002602001018190525081806107d990613115565b9250506106fe565b6107eb84846115d6565b50505050565b606060008054610800906133d7565b80601f016020809104026020016040519081016040528092919081815260200182805461082c906133d7565b80156108795780601f1061084e57610100808354040283529160200191610879565b820191906000526020600020905b81548152906001019060200180831161085c57829003601f168201915b5050505050905090565b600061088e826116dd565b506000908152600460205260409020546001600160a01b031690565b60006108b582610ea6565b9050806001600160a01b0316836001600160a01b0316036109435760405162461bcd60e51b815260206004820152602160248201527f4552433732313a20617070726f76616c20746f2063757272656e74206f776e6560448201527f720000000000000000000000000000000000000000000000000000000000000060648201526084015b60405180910390fd5b336001600160a01b038216148061097d57506001600160a01b038116600090815260056020908152604080832033845290915290205460ff165b6109ef5760405162461bcd60e51b815260206004820152603d60248201527f4552433732313a20617070726f76652063616c6c6572206973206e6f7420746f60448201527f6b656e206f776e6572206f7220617070726f76656420666f7220616c6c000000606482015260840161093a565b6109f98383611741565b505050565b610a326040518060a00160405280600015158152602001606081526020016060815260200160608152602001606081525090565b815160208084019190912084519185019190912014808252610a77578282604051602001610a61929190613411565b60408051601f1981840301815291905260208201525b604080820193909352606081019190915281518083019092526005825264195c5d585b60da1b6020830152608081019190915290565b610ab733826117bc565b610b195760405162461bcd60e51b815260206004820152602d60248201527f4552433732313a2063616c6c6572206973206e6f7420746f6b656e206f776e6560448201526c1c881bdc88185c1c1c9bdd9959609a1b606482015260840161093a565b6109f983838361183b565b610b586040518060a00160405280600015158152602001606081526020016060815260200160608152602001606081525090565b828214808252610b9b57610b6b83611a4e565b610b7483611a4e565b604051602001610b85929190613411565b60408051601f1981840301815291905260208201525b610ba483611a4e565b6040820152610bb282611a4e565b6060820152604080518082019091526005815264195c5d585b60da1b6020820152608082015292915050565b610c126040518060a00160405280600015158152602001606081526020016060815260200160608152602001606081525090565b6001600160a01b0383811690831681148252600090610c32906014611aee565b90506000610c4a846001600160a01b03166014611aee565b8351909150610c7c578181604051602001610c66929190613411565b60408051601f1981840301815291905260208401525b604080840192909252606083015280518082019091526005815264195c5d585b60da1b6020820152608082015292915050565b610ce36040518060a00160405280600015158152602001606081526020016060815260200160608152602001606081525090565b8115808252610d0b5760405180606001604052806023815260200161392e6023913960208201525b600182151514610d38576040518060400160405280600581526020016466616c736560d81b815250610d56565b604051806040016040528060048152602001637472756560e01b8152505b6040808301919091528051602080820183526000825260608401919091528151808301909252600782527f697346616c736500000000000000000000000000000000000000000000000000908201526080820152919050565b6109f9838383604051806020016040528060008152506111cf565b610dfe6040518060a00160405280600015158152602001606081526020016060815260200160608152602001606081525090565b81604051602001610e0f9190613492565b6040516020818303038152906040528051906020012083604051602001610e369190613492565b60408051601f19818403018152919052805160209091012014808252610e8f57610e5f83611cd6565b610e6883611cd6565b604051602001610e79929190613411565b60408051601f1981840301815291905260208201525b610e9883611cd6565b6040820152610bb282611cd6565b6000818152600260205260408120546001600160a01b0316806105285760405162461bcd60e51b815260206004820152601860248201527f4552433732313a20696e76616c696420746f6b656e2049440000000000000000604482015260640161093a565b610f3f6040518060a00160405280600015158152602001606081526020016060815260200160608152602001606081525090565b81604051602001610f5091906134f4565b6040516020818303038152906040528051906020012083604051602001610f7791906134f4565b60408051601f19818403018152919052805160209091012014808252610fd057610fa083611dab565b610fa983611dab565b604051602001610fba929190613411565b60408051601f1981840301815291905260208201525b610fd983611dab565b6040820152610bb282611dab565b60006001600160a01b0382166110655760405162461bcd60e51b815260206004820152602960248201527f4552433732313a2061646472657373207a65726f206973206e6f74206120766160448201527f6c6964206f776e65720000000000000000000000000000000000000000000000606482015260840161093a565b506001600160a01b031660009081526003602052604090205490565b611089611e87565b6110936000611ee1565b565b6110c96040518060a00160405280600015158152602001606081526020016060815260200160608152602001606081525090565b8115158082526110f2576040518060600160405280602281526020016139516022913960208201525b60018215151461111f576040518060400160405280600581526020016466616c736560d81b81525061113d565b604051806040016040528060048152602001637472756560e01b8152505b6040808301919091528051602080820183526000825260608401919091528151808301909252600682527f6973547275650000000000000000000000000000000000000000000000000000908201526080820152919050565b606060018054610800906133d7565b6111b0338383611f40565b5050565b6111bc611e87565b600b805460ff1916911515919091179055565b6111d933836117bc565b61123b5760405162461bcd60e51b815260206004820152602d60248201527f4552433732313a2063616c6c6572206973206e6f7420746f6b656e206f776e6560448201526c1c881bdc88185c1c1c9bdd9959609a1b606482015260840161093a565b6107eb8484848461200e565b6060600c8054611256906133d7565b80601f0160208091040260200160405190810160405280929190818152602001828054611282906133d7565b80156112cf5780601f106112a4576101008083540402835291602001916112cf565b820191906000526020600020905b8154815290600101906020018083116112b257829003601f168201915b50505050509050919050565b61130f6040518060a00160405280600015158152602001606081526020016060815260200160608152602001606081525090565b6001600160a01b038381169083168114158252600090611330906014611aee565b8251909150611360578060405160200161134a9190613541565b60408051601f1981840301815291905260208301525b60408083019190915280516020808201835260008252606084019190915281518083019092526005825264195c5d585b60da1b90820152608082015292915050565b6113aa611e87565b600c6111b082826135fa565b6113ea6040518060a00160405280600015158152602001606081526020016060815260200160608152602001606081525090565b816040516020016113fb91906136ba565b604051602081830303815290604052805190602001208360405160200161142291906136ba565b60408051601f1981840301815291905280516020909101201480825261147b5761144b8361208c565b6114548361208c565b604051602001611465929190613411565b60408051601f1981840301815291905260208201525b6114848361208c565b6040820152610bb28261208c565b61149a611e87565b6001600160a01b0381166115165760405162461bcd60e51b815260206004820152602660248201527f4f776e61626c653a206e6577206f776e657220697320746865207a65726f206160448201527f6464726573730000000000000000000000000000000000000000000000000000606482015260840161093a565b61151f81611ee1565b50565b6000805b82518110156115cd5760005b8382815181106115445761154461338c565b602002602001015160200151602001518110156115ba5783828151811061156d5761156d61338c565b60200260200101516020015160000151818151811061158e5761158e61338c565b6020026020010151600001516115a8575060009392505050565b806115b281613115565b915050611532565b50806115c581613115565b915050611526565b50600192915050565b6115de61215d565b60006115e982611522565b90507f53d51c5f8eaf1bdbf1288871cbf97a9295da23a9868b15b526b4256ede348db983828460405161161e939291906136f2565b60405180910390a16001600160a01b0383166000908152600a602052604090205460ff1615801561165f57503360009081526009602052604090205460ff16155b80156116685750805b156116af5761167b600880546001019055565b600061168660085490565b336000818152600960205260409020805460ff191660011790559091506116ad90826121b6565b505b506001600160a01b0382166000908152600a60205260409020805460ff191660011790556111b06001600755565b6000818152600260205260409020546001600160a01b031661151f5760405162461bcd60e51b815260206004820152601860248201527f4552433732313a20696e76616c696420746f6b656e2049440000000000000000604482015260640161093a565b6000818152600460205260409020805473ffffffffffffffffffffffffffffffffffffffff19166001600160a01b038416908117909155819061178382610ea6565b6001600160a01b03167f8c5be1e5ebec7d5bd14f71427d1e84f3dd0314c0f7b2291e5b200ac8c7c3b92560405160405180910390a45050565b6000806117c883610ea6565b9050806001600160a01b0316846001600160a01b0316148061180f57506001600160a01b0380821660009081526005602090815260408083209388168352929052205460ff165b806118335750836001600160a01b031661182884610883565b6001600160a01b0316145b949350505050565b826001600160a01b031661184e82610ea6565b6001600160a01b0316146118b25760405162461bcd60e51b815260206004820152602560248201527f4552433732313a207472616e736665722066726f6d20696e636f72726563742060448201526437bbb732b960d91b606482015260840161093a565b6001600160a01b03821661192d5760405162461bcd60e51b8152602060048201526024808201527f4552433732313a207472616e7366657220746f20746865207a65726f2061646460448201527f7265737300000000000000000000000000000000000000000000000000000000606482015260840161093a565b61193a83838360016121d0565b826001600160a01b031661194d82610ea6565b6001600160a01b0316146119b15760405162461bcd60e51b815260206004820152602560248201527f4552433732313a207472616e736665722066726f6d20696e636f72726563742060448201526437bbb732b960d91b606482015260840161093a565b6000818152600460209081526040808320805473ffffffffffffffffffffffffffffffffffffffff199081169091556001600160a01b0387811680865260038552838620805460001901905590871680865283862080546001019055868652600290945282852080549092168417909155905184937fddf252ad1be2c89b69c2b068fc378daa952ba7f163c4a11628f55a4df523b3ef91a4505050565b60606000611a5b83612211565b600101905060008167ffffffffffffffff811115611a7b57611a7b6127a4565b6040519080825280601f01601f191660200182016040528015611aa5576020820181803683370190505b5090508181016020015b600019017f3031323334353637383961626364656600000000000000000000000000000000600a86061a8153600a8504945084611aaf57509392505050565b60606000611afd8360026137e5565b611b08906002613102565b67ffffffffffffffff811115611b2057611b206127a4565b6040519080825280601f01601f191660200182016040528015611b4a576020820181803683370190505b5090507f300000000000000000000000000000000000000000000000000000000000000081600081518110611b8157611b8161338c565b60200101906001600160f81b031916908160001a9053507f780000000000000000000000000000000000000000000000000000000000000081600181518110611bcc57611bcc61338c565b60200101906001600160f81b031916908160001a9053506000611bf08460026137e5565b611bfb906001613102565b90505b6001811115611c80577f303132333435363738396162636465660000000000000000000000000000000085600f1660108110611c3c57611c3c61338c565b1a60f81b828281518110611c5257611c5261338c565b60200101906001600160f81b031916908160001a90535060049490941c93611c79816137fc565b9050611bfe565b508315611ccf5760405162461bcd60e51b815260206004820181905260248201527f537472696e67733a20686578206c656e67746820696e73756666696369656e74604482015260640161093a565b9392505050565b6040805180820190915260018152605b60f81b602082015260609060005b8351811015611da45760018451611d0b9190613813565b811015611d545781848281518110611d2557611d2561338c565b6020026020010151604051602001611d3e929190613826565b6040516020818303038152906040529150611d92565b81848281518110611d6757611d6761338c565b6020026020010151604051602001611d8092919061387d565b60405160208183030381529060405291505b80611d9c81613115565b915050611cf4565b5092915050565b6040805180820190915260018152605b60f81b602082015260609060005b8351811015611da45760018451611de09190613813565b811015611e3c5781611e15858381518110611dfd57611dfd61338c565b60200260200101516001600160a01b03166014611aee565b604051602001611e26929190613826565b6040516020818303038152906040529150611e75565b81611e52858381518110611dfd57611dfd61338c565b604051602001611e6392919061387d565b60405160208183030381529060405291505b80611e7f81613115565b915050611dc9565b6006546001600160a01b031633146110935760405162461bcd60e51b815260206004820181905260248201527f4f776e61626c653a2063616c6c6572206973206e6f7420746865206f776e6572604482015260640161093a565b600680546001600160a01b0383811673ffffffffffffffffffffffffffffffffffffffff19831681179093556040519116919082907f8be0079c531659141344cd1fd0a4f28419497f9722a3daafe3b4186f6b6457e090600090a35050565b816001600160a01b0316836001600160a01b031603611fa15760405162461bcd60e51b815260206004820152601960248201527f4552433732313a20617070726f766520746f2063616c6c657200000000000000604482015260640161093a565b6001600160a01b03838116600081815260056020908152604080832094871680845294825291829020805460ff191686151590811790915591519182527f17307eab39ab6107e8899845ad3d59bd9653f200f220920489ca2b5937696c31910160405180910390a3505050565b61201984848461183b565b612025848484846122f3565b6107eb5760405162461bcd60e51b815260206004820152603260248201527f4552433732313a207472616e7366657220746f206e6f6e20455243373231526560448201527131b2b4bb32b91034b6b83632b6b2b73a32b960711b606482015260840161093a565b6040805180820190915260018152605b60f81b602082015260609060005b8351811015611da457600184516120c19190613813565b81101561211257816120eb8583815181106120de576120de61338c565b6020026020010151611a4e565b6040516020016120fc929190613826565b604051602081830303815290604052915061214b565b816121288583815181106120de576120de61338c565b60405160200161213992919061387d565b60405160208183030381529060405291505b8061215581613115565b9150506120aa565b6002600754036121af5760405162461bcd60e51b815260206004820152601f60248201527f5265656e7472616e637947756172643a207265656e7472616e742063616c6c00604482015260640161093a565b6002600755565b6111b082826040518060200160405280600081525061243f565b6001600160a01b038416156107eb576040517f6e10574900000000000000000000000000000000000000000000000000000000815260040160405180910390fd5b6000807a184f03e93ff9f4daa797ed6e38ed64bf6a1f010000000000000000831061225a577a184f03e93ff9f4daa797ed6e38ed64bf6a1f010000000000000000830492506040015b6d04ee2d6d415b85acef81000000008310612286576d04ee2d6d415b85acef8100000000830492506020015b662386f26fc1000083106122a457662386f26fc10000830492506010015b6305f5e10083106122bc576305f5e100830492506008015b61271083106122d057612710830492506004015b606483106122e2576064830492506002015b600a83106105285760010192915050565b60006001600160a01b0384163b1561243457604051630a85bd0160e11b81526001600160a01b0385169063150b7a02906123379033908990889088906004016138d4565b6020604051808303816000875af1925050508015612372575060408051601f3d908101601f1916820190925261236f91810190613910565b60015b61241a573d8080156123a0576040519150601f19603f3d011682016040523d82523d6000602084013e6123a5565b606091505b5080516000036124125760405162461bcd60e51b815260206004820152603260248201527f4552433732313a207472616e7366657220746f206e6f6e20455243373231526560448201527131b2b4bb32b91034b6b83632b6b2b73a32b960711b606482015260840161093a565b805181602001fd5b6001600160e01b031916630a85bd0160e11b149050611833565b506001949350505050565b61244983836124bd565b61245660008484846122f3565b6109f95760405162461bcd60e51b815260206004820152603260248201527f4552433732313a207472616e7366657220746f206e6f6e20455243373231526560448201527131b2b4bb32b91034b6b83632b6b2b73a32b960711b606482015260840161093a565b6001600160a01b0382166125135760405162461bcd60e51b815260206004820181905260248201527f4552433732313a206d696e7420746f20746865207a65726f2061646472657373604482015260640161093a565b6000818152600260205260409020546001600160a01b0316156125785760405162461bcd60e51b815260206004820152601c60248201527f4552433732313a20746f6b656e20616c7265616479206d696e74656400000000604482015260640161093a565b6125866000838360016121d0565b6000818152600260205260409020546001600160a01b0316156125eb5760405162461bcd60e51b815260206004820152601c60248201527f4552433732313a20746f6b656e20616c7265616479206d696e74656400000000604482015260640161093a565b6001600160a01b0382166000818152600360209081526040808320805460010190558483526002909152808220805473ffffffffffffffffffffffffffffffffffffffff19168417905551839291907fddf252ad1be2c89b69c2b068fc378daa952ba7f163c4a11628f55a4df523b3ef908290a45050565b604051806040016040528060608152602001612692604051806040016040528060608152602001600081525090565b905290565b6001600160e01b03198116811461151f57600080fd5b6000602082840312156126bf57600080fd5b8135611ccf81612697565b6001600160a01b038116811461151f57600080fd5b6000602082840312156126f157600080fd5b8135611ccf816126ca565b60005b838110156127175781810151838201526020016126ff565b50506000910152565b600081518084526127388160208601602086016126fc565b601f01601f19169290920160200192915050565b602081526000611ccf6020830184612720565b60006020828403121561277157600080fd5b5035919050565b6000806040838503121561278b57600080fd5b8235612796816126ca565b946020939093013593505050565b634e487b7160e01b600052604160045260246000fd5b6040805190810167ffffffffffffffff811182821017156127dd576127dd6127a4565b60405290565b60405160a0810167ffffffffffffffff811182821017156127dd576127dd6127a4565b604051601f8201601f1916810167ffffffffffffffff8111828210171561282f5761282f6127a4565b604052919050565b600067ffffffffffffffff821115612851576128516127a4565b50601f01601f191660200190565b600082601f83011261287057600080fd5b813561288361287e82612837565b612806565b81815284602083860101111561289857600080fd5b816020850160208301376000918101602001919091529392505050565b600080604083850312156128c857600080fd5b823567ffffffffffffffff808211156128e057600080fd5b6128ec8683870161285f565b9350602085013591508082111561290257600080fd5b5061290f8582860161285f565b9150509250929050565b8051151582526000602082015160a0602085015261293a60a0850182612720565b9050604083015184820360408601526129538282612720565b9150506060830151848203606086015261296d8282612720565b915050608083015184820360808601526129878282612720565b95945050505050565b602081526000611ccf6020830184612919565b6000806000606084860312156129b857600080fd5b83356129c3816126ca565b925060208401356129d3816126ca565b929592945050506040919091013590565b600080604083850312156129f757600080fd5b50508035926020909101359150565b60008060408385031215612a1957600080fd5b8235612a24816126ca565b91506020830135612a34816126ca565b809150509250929050565b801515811461151f57600080fd5b8035612a5881612a3f565b919050565b600060208284031215612a6f57600080fd5b8135611ccf81612a3f565b600067ffffffffffffffff821115612a9457612a946127a4565b5060051b60200190565b600082601f830112612aaf57600080fd5b81356020612abf61287e83612a7a565b82815260059290921b84018101918181019086841115612ade57600080fd5b8286015b84811015612b1e57803567ffffffffffffffff811115612b025760008081fd5b612b108986838b010161285f565b845250918301918301612ae2565b509695505050505050565b60008060408385031215612b3c57600080fd5b823567ffffffffffffffff80821115612b5457600080fd5b612b6086838701612a9e565b93506020850135915080821115612b7657600080fd5b5061290f85828601612a9e565b600082601f830112612b9457600080fd5b81356020612ba461287e83612a7a565b82815260059290921b84018101918181019086841115612bc357600080fd5b8286015b84811015612b1e578035612bda816126ca565b8352918301918301612bc7565b60008060408385031215612bfa57600080fd5b823567ffffffffffffffff80821115612c1257600080fd5b612c1e86838701612b83565b93506020850135915080821115612c3457600080fd5b5061290f85828601612b83565b60008060408385031215612c5457600080fd5b8235612c5f816126ca565b91506020830135612a3481612a3f565b60008060008060808587031215612c8557600080fd5b8435612c90816126ca565b93506020850135612ca0816126ca565b925060408501359150606085013567ffffffffffffffff811115612cc357600080fd5b612ccf8782880161285f565b91505092959194509250565b600060208284031215612ced57600080fd5b813567ffffffffffffffff811115612d0457600080fd5b6118338482850161285f565b600082601f830112612d2157600080fd5b81356020612d3161287e83612a7a565b82815260059290921b84018101918181019086841115612d5057600080fd5b8286015b84811015612b1e5780358352918301918301612d54565b60008060408385031215612d7e57600080fd5b823567ffffffffffffffff80821115612d9657600080fd5b612da286838701612d10565b93506020850135915080821115612db857600080fd5b5061290f85828601612d10565b600060208284031215612dd757600080fd5b67ffffffffffffffff82351115612ded57600080fd5b82601f833584010112612dff57600080fd5b612e0f61287e8335840135612a7a565b8235830180358083526020808401939260059290921b90910101851015612e3557600080fd5b602084358501015b84358501803560051b016020018110156130e35767ffffffffffffffff81351115612e6757600080fd5b6040853586018235018703601f19011215612e8157600080fd5b612e896127ba565b67ffffffffffffffff60208335883589010101351115612ea857600080fd5b612ec0876020843589358a010181810135010161285f565b815267ffffffffffffffff60408335883589010101351115612ee157600080fd5b60408635870183350180820135018803601f19011215612f0057600080fd5b612f086127ba565b67ffffffffffffffff87358801843501604081013501602001351115612f2d57600080fd5b86358701833501604081013501602081013501603f81018913612f4f57600080fd5b612f5f61287e6020830135612a7a565b602082810135808352908201919060051b83016040018b1015612f8157600080fd5b604083015b6040602085013560051b8501018110156130b15767ffffffffffffffff81351115612fb057600080fd5b8035840160a0818e03603f19011215612fc857600080fd5b612fd06127e3565b612fdc60408301612a4d565b815267ffffffffffffffff60608301351115612ff757600080fd5b61300a8e6040606085013585010161285f565b602082015267ffffffffffffffff6080830135111561302857600080fd5b61303b8e6040608085013585010161285f565b604082015267ffffffffffffffff60a0830135111561305957600080fd5b61306c8e604060a085013585010161285f565b606082015267ffffffffffffffff60c0830135111561308a57600080fd5b61309d8e604060c085013585010161285f565b608082015284525060209283019201612f86565b508352505060408335883589010181810135010135602080830191909152828101919091529084529283019201612e3d565b50949350505050565b634e487b7160e01b600052601160045260246000fd5b80820180821115610528576105286130ec565b600060018201613127576131276130ec565b5060010190565b600082601f83011261313f57600080fd5b815161314d61287e82612837565b81815284602083860101111561316257600080fd5b6118338260208301602087016126fc565b8051612a5881612a3f565b60006040828403121561319057600080fd5b6131986127ba565b9050815167ffffffffffffffff808211156131b257600080fd5b6131be8583860161312e565b83526020915081840151818111156131d557600080fd5b8401604081870312156131e757600080fd5b6131ef6127ba565b8151838111156131fe57600080fd5b8201601f8101881361320f57600080fd5b805161321d61287e82612a7a565b81815260059190911b8201860190868101908a83111561323c57600080fd5b8784015b838110156133295780518881111561325757600080fd5b850160a0818e03601f1901121561326d57600080fd5b6132756127e3565b6132808b8301613173565b815260408201518a81111561329457600080fd5b6132a28f8d8386010161312e565b8c8301525060608201518a8111156132b957600080fd5b6132c78f8d8386010161312e565b60408301525060808201518a8111156132e05760008081fd5b6132ee8f8d8386010161312e565b60608301525060a08201518a8111156133075760008081fd5b6133158f8d8386010161312e565b608083015250845250918801918801613240565b5084525050509083015183820152918301919091525092915050565b6000806040838503121561335857600080fd5b825167ffffffffffffffff81111561336f57600080fd5b61337b8582860161317e565b9250506020830151612a34816126ca565b634e487b7160e01b600052603260045260246000fd5b6000602082840312156133b457600080fd5b815167ffffffffffffffff8111156133cb57600080fd5b6118338482850161317e565b600181811c908216806133eb57607f821691505b60208210810361340b57634e487b7160e01b600052602260045260246000fd5b50919050565b7f417373657274696f6e4572726f723a20000000000000000000000000000000008152600083516134498160108501602088016126fc565b7f206973206e6f7420657175616c20746f2000000000000000000000000000000060109184019182015283516134868160218401602088016126fc565b01602101949350505050565b6000602080830181845280855180835260408601915060408160051b870101925083870160005b828110156134e757603f198886030184526134d5858351612720565b945092850192908501906001016134b9565b5092979650505050505050565b6020808252825182820181905260009190848201906040850190845b818110156135355783516001600160a01b031683529284019291840191600101613510565b50909695505050505050565b7f417373657274696f6e4572726f723a200000000000000000000000000000000081527f20426f74682076616c756573206172650000000000000000000000000000000060108201526000825161359f8160208501602087016126fc565b9190910160200192915050565b601f8211156109f957600081815260208120601f850160051c810160208610156135d35750805b601f850160051c820191505b818110156135f2578281556001016135df565b505050505050565b815167ffffffffffffffff811115613614576136146127a4565b6136288161362284546133d7565b846135ac565b602080601f83116001811461365d57600084156136455750858301515b600019600386901b1c1916600185901b1785556135f2565b600085815260208120601f198616915b8281101561368c5788860151825594840194600190910190840161366d565b50858210156136aa5787850151600019600388901b60f8161c191681555b5050505050600190811b01905550565b6020808252825182820181905260009190848201906040850190845b81811015613535578351835292840192918401916001016136d6565b600060608083016001600160a01b03871684526020861515818601526040838187015282875180855260808801915060808160051b89010194508389016000805b838110156137d3578a8803607f1901855282518051878a52613757888b0182612720565b918901518a83038b8b0152805189845280518a850181905291939250600582901b83018d0191908b01908d840190875b818110156137b557605f198686030183526137a3858551612919565b9450928d0192918d0191600101613787565b50505050918901519089015297509386019391860191600101613733565b50959c9b505050505050505050505050565b8082028115828204841417610528576105286130ec565b60008161380b5761380b6130ec565b506000190190565b81810381811115610528576105286130ec565b600083516138388184602088016126fc565b83519083019061384c8183602088016126fc565b7f2c200000000000000000000000000000000000000000000000000000000000009101908152600201949350505050565b6000835161388f8184602088016126fc565b8351908301906138a38183602088016126fc565b7f5d000000000000000000000000000000000000000000000000000000000000009101908152600101949350505050565b60006001600160a01b038087168352808616602084015250836040830152608060608301526139066080830184612720565b9695505050505050565b60006020828403121561392257600080fd5b8151611ccf8161269756fe417373657274696f6e4572726f723a20726573756c74206973206e6f742066616c7365417373657274696f6e4572726f723a20726573756c74206973206e6f742074727565a2646970667358221220ca7a48015363164bd42c29dbcdfdc397620059d75f7ed3adcb3460fe356b21b964736f6c63430008110033608060405234801561001057600080fd5b50612032806100206000396000f3fe608060405234801561001057600080fd5b50600436106100c95760003560e01c80634b64e4921161008157806374f130701161005b57806374f1307014610176578063d70968e714610189578063e7da4c7e1461019c57600080fd5b80634b64e4921461013057806360fb55d5146101505780636df864781461016357600080fd5b806331495d33116100b257806331495d331461010a578063410dbb8b1461011d57806346bdca9a146100ce57600080fd5b8063235266d2146100ce57806330191626146100f7575b600080fd5b6100e16100dc3660046116b3565b6101af565b6040516100ee91906117de565b60405180910390f35b6100e16101053660046117f8565b61025e565b6100e1610118366004611836565b610318565b6100e161012b366004611869565b6103e9565b61014361013e36600461188b565b6104e9565b6040516100ee91906118a6565b6100e161015e3660046119f3565b610885565b6100e1610171366004611aaf565b610961565b6100e1610184366004611869565b610a3d565b6100e1610197366004611836565b610b3e565b6100e16101aa366004611b64565b610c05565b6101e36040518060a00160405280600015158152602001606081526020016060815260200160608152602001606081525090565b815160208084019190912084519185019190912014808252610228578282604051602001610212929190611bbe565b60408051601f1981840301815291905260208201525b604080820193909352606081019190915281518083019092526005825264195c5d585b60da1b6020830152608081019190915290565b6102926040518060a00160405280600015158152602001606081526020016060815260200160608152602001606081525090565b8282148082526102d5576102a583610ce1565b6102ae83610ce1565b6040516020016102bf929190611bbe565b60408051601f1981840301815291905260208201525b6102de83610ce1565b60408201526102ec82610ce1565b6060820152604080518082019091526005815264195c5d585b60da1b6020820152608082015292915050565b61034c6040518060a00160405280600015158152602001606081526020016060815260200160608152602001606081525090565b6001600160a01b038381169083168114825260009061036c906014610d81565b90506000610384846001600160a01b03166014610d81565b83519091506103b65781816040516020016103a0929190611bbe565b60408051601f1981840301815291905260208401525b604080840192909252606083015280518082019091526005815264195c5d585b60da1b6020820152608082015292915050565b61041d6040518060a00160405280600015158152602001606081526020016060815260200160608152602001606081525090565b811580825261044557604051806060016040528060238152602001611f8c6023913960208201525b600182151514610472576040518060400160405280600581526020016466616c736560d81b815250610490565b604051806040016040528060048152602001637472756560e01b8152505b6040808301919091528051602080820183526000825260608401919091528151808301909252600782527f697346616c736500000000000000000000000000000000000000000000000000908201526080820152919050565b6104f16115c8565b816104fa6115c8565b6105078160200151610f89565b506040518060600160405280602c8152602001611fd1602c91398152600080610537846001600260036004611005565b9150915080156105cf576040805160a081018252600080825282518084018452601f81527f43616c6c20746f2064696666576974684e65696768626f72206661696c65640060208281019190915280840191909152835180820185528281528385015283518082018552828152606084015283518082019094529083526080820192909252908401516105c9916110c0565b50610638565b6106026105f7836000815181106105e8576105e8611c3f565b6020026020010151600161025e565b6020850151906110c0565b5061061c6105f7836001815181106105e8576105e8611c3f565b506106366105f7836002815181106105e8576105e8611c3f565b505b610649846009600860066003611005565b909250905080156106e2576040805160a081018252600080825282518084018452601f81527f43616c6c20746f2064696666576974684e65696768626f72206661696c65640060208281019190915280840191909152835180820185528281528385015283518082018552828152606084015283518082019094529083526080820192909252908401516106dc916110c0565b5061074f565b6106fb6105f7836000815181106105e8576105e8611c3f565b506107246105f78360018151811061071557610715611c3f565b6020026020010151600261025e565b5061074d6105f78360028151811061073e5761073e611c3f565b6020026020010151600361025e565b505b610763846103e86001614e2061c350611005565b909250905080156107fc576040805160a081018252600080825282518084018452601f81527f43616c6c20746f2064696666576974684e65696768626f72206661696c65640060208281019190915280840191909152835180820185528281528385015283518082018552828152606084015283518082019094529083526080820192909252908401516107f6916110c0565b5061087b565b6108256105f78360008151811061081557610815611c3f565b60200260200101516103e761025e565b5061084f6105f78360018151811061083f5761083f611c3f565b6020026020010151614e1f61025e565b506108796105f78360028151811061086957610869611c3f565b602002602001015161753061025e565b505b5090949350505050565b6108b96040518060a00160405280600015158152602001606081526020016060815260200160608152602001606081525090565b816040516020016108ca9190611c55565b60405160208183030381529060405280519060200120836040516020016108f19190611c55565b60408051601f1981840301815291905280516020909101201480825261094a5761091a83611130565b61092383611130565b604051602001610934929190611bbe565b60408051601f1981840301815291905260208201525b61095383611130565b60408201526102ec82611130565b6109956040518060a00160405280600015158152602001606081526020016060815260200160608152602001606081525090565b816040516020016109a69190611cb7565b60405160208183030381529060405280519060200120836040516020016109cd9190611cb7565b60408051601f19818403018152919052805160209091012014808252610a26576109f683611205565b6109ff83611205565b604051602001610a10929190611bbe565b60408051601f1981840301815291905260208201525b610a2f83611205565b60408201526102ec82611205565b610a716040518060a00160405280600015158152602001606081526020016060815260200160608152602001606081525090565b811515808252610a9a57604051806060016040528060228152602001611faf6022913960208201525b600182151514610ac7576040518060400160405280600581526020016466616c736560d81b815250610ae5565b604051806040016040528060048152602001637472756560e01b8152505b6040808301919091528051602080820183526000825260608401919091528151808301909252600682527f6973547275650000000000000000000000000000000000000000000000000000908201526080820152919050565b610b726040518060a00160405280600015158152602001606081526020016060815260200160608152602001606081525090565b6001600160a01b038381169083168114158252600090610b93906014610d81565b8251909150610bc35780604051602001610bad9190611d04565b60408051601f1981840301815291905260208301525b60408083019190915280516020808201835260008252606084019190915281518083019092526005825264195c5d585b60da1b90820152608082015292915050565b610c396040518060a00160405280600015158152602001606081526020016060815260200160608152602001606081525090565b81604051602001610c4a9190611d6f565b6040516020818303038152906040528051906020012083604051602001610c719190611d6f565b60408051601f19818403018152919052805160209091012014808252610cca57610c9a836112e1565b610ca3836112e1565b604051602001610cb4929190611bbe565b60408051601f1981840301815291905260208201525b610cd3836112e1565b60408201526102ec826112e1565b60606000610cee836113b2565b600101905060008167ffffffffffffffff811115610d0e57610d0e6115fc565b6040519080825280601f01601f191660200182016040528015610d38576020820181803683370190505b5090508181016020015b600019017f3031323334353637383961626364656600000000000000000000000000000000600a86061a8153600a8504945084610d4257509392505050565b60606000610d90836002611dbd565b610d9b906002611dd4565b67ffffffffffffffff811115610db357610db36115fc565b6040519080825280601f01601f191660200182016040528015610ddd576020820181803683370190505b5090507f300000000000000000000000000000000000000000000000000000000000000081600081518110610e1457610e14611c3f565b60200101906001600160f81b031916908160001a9053507f780000000000000000000000000000000000000000000000000000000000000081600181518110610e5f57610e5f611c3f565b60200101906001600160f81b031916908160001a9053506000610e83846002611dbd565b610e8e906001611dd4565b90505b6001811115610f13577f303132333435363738396162636465660000000000000000000000000000000085600f1660108110610ecf57610ecf611c3f565b1a60f81b828281518110610ee557610ee5611c3f565b60200101906001600160f81b031916908160001a90535060049490941c93610f0c81611de7565b9050610e91565b508315610f80576040517f08c379a000000000000000000000000000000000000000000000000000000000815260206004820181905260248201527f537472696e67733a20686578206c656e67746820696e73756666696369656e74604482015260640160405180910390fd5b90505b92915050565b60408051808201825260608152600060208201528151600480825260a082019093529091816020015b610fe66040518060a00160405280600015158152602001606081526020016060815260200160608152602001606081525090565b815260200190600190039081610fb25750508252506000602082015290565b6040517f29432314000000000000000000000000000000000000000000000000000000008152600481018590526024810184905260448101839052606481018290526060906000906001600160a01b03881690632943231490608401600060405180830381865afa92505050801561109f57506040513d6000823e601f3d908101601f1916820160405261109c9190810190611dfe565b60015b6110af57506060905060016110b6565b9150600090505b9550959350505050565b6040805180820190915260608152600060208201528251516020840151036110ee576110eb83611494565b92505b81836000015184602001518151811061110957611109611c3f565b602002602001018190525082602001805180919061112690611e8f565b9052509192915050565b6040805180820190915260018152605b60f81b602082015260609060005b83518110156111fe57600184516111659190611ea8565b8110156111ae578184828151811061117f5761117f611c3f565b6020026020010151604051602001611198929190611ebb565b60405160208183030381529060405291506111ec565b818482815181106111c1576111c1611c3f565b60200260200101516040516020016111da929190611f12565b60405160208183030381529060405291505b806111f681611e8f565b91505061114e565b5092915050565b6040805180820190915260018152605b60f81b602082015260609060005b83518110156111fe576001845161123a9190611ea8565b811015611296578161126f85838151811061125757611257611c3f565b60200260200101516001600160a01b03166014610d81565b604051602001611280929190611ebb565b60405160208183030381529060405291506112cf565b816112ac85838151811061125757611257611c3f565b6040516020016112bd929190611f12565b60405160208183030381529060405291505b806112d981611e8f565b915050611223565b6040805180820190915260018152605b60f81b602082015260609060005b83518110156111fe57600184516113169190611ea8565b811015611367578161134085838151811061133357611333611c3f565b6020026020010151610ce1565b604051602001611351929190611ebb565b60405160208183030381529060405291506113a0565b8161137d85838151811061133357611333611c3f565b60405160200161138e929190611f12565b60405160208183030381529060405291505b806113aa81611e8f565b9150506112ff565b6000807a184f03e93ff9f4daa797ed6e38ed64bf6a1f01000000000000000083106113fb577a184f03e93ff9f4daa797ed6e38ed64bf6a1f010000000000000000830492506040015b6d04ee2d6d415b85acef81000000008310611427576d04ee2d6d415b85acef8100000000830492506020015b662386f26fc10000831061144557662386f26fc10000830492506010015b6305f5e100831061145d576305f5e100830492506008015b612710831061147157612710830492506004015b60648310611483576064830492506002015b600a8310610f835760010192915050565b6040805180820190915260608152600060208201526040805180820190915260608152600060208201528251516002906114cf906003611dbd565b6114d99190611f69565b67ffffffffffffffff8111156114f1576114f16115fc565b60405190808252806020026020018201604052801561155657816020015b6115436040518060a00160405280600015158152602001606081526020016060815260200160608152602001606081525090565b81526020019060019003908161150f5790505b50815260005b8351518110156115b657835180518290811061157a5761157a611c3f565b60200260200101518260000151828151811061159857611598611c3f565b602002602001018190525080806115ae90611e8f565b91505061155c565b50602092830151928101929092525090565b6040518060400160405280606081526020016115f7604051806040016040528060608152602001600081525090565b905290565b634e487b7160e01b600052604160045260246000fd5b604051601f8201601f1916810167ffffffffffffffff8111828210171561163b5761163b6115fc565b604052919050565b600082601f83011261165457600080fd5b813567ffffffffffffffff81111561166e5761166e6115fc565b611681601f8201601f1916602001611612565b81815284602083860101111561169657600080fd5b816020850160208301376000918101602001919091529392505050565b600080604083850312156116c657600080fd5b823567ffffffffffffffff808211156116de57600080fd5b6116ea86838701611643565b9350602085013591508082111561170057600080fd5b5061170d85828601611643565b9150509250929050565b60005b8381101561173257818101518382015260200161171a565b50506000910152565b60008151808452611753816020860160208601611717565b601f01601f19169290920160200192915050565b8051151582526000602082015160a0602085015261178860a085018261173b565b9050604083015184820360408601526117a1828261173b565b915050606083015184820360608601526117bb828261173b565b915050608083015184820360808601526117d5828261173b565b95945050505050565b6020815260006117f16020830184611767565b9392505050565b6000806040838503121561180b57600080fd5b50508035926020909101359150565b80356001600160a01b038116811461183157600080fd5b919050565b6000806040838503121561184957600080fd5b6118528361181a565b91506118606020840161181a565b90509250929050565b60006020828403121561187b57600080fd5b81358015158114610f8057600080fd5b60006020828403121561189d57600080fd5b6117f18261181a565b6000602080835283516040828501526118c2606085018261173b565b905081850151601f198583030160408601526040820181516040845281815180845260608601915060608160051b8701019350868301925060005b8181101561192b57605f19878603018352611919858551611767565b945092870192918701916001016118fd565b505050509083015191909201529392505050565b600067ffffffffffffffff821115611959576119596115fc565b5060051b60200190565b600082601f83011261197457600080fd5b813560206119896119848361193f565b611612565b82815260059290921b840181019181810190868411156119a857600080fd5b8286015b848110156119e857803567ffffffffffffffff8111156119cc5760008081fd5b6119da8986838b0101611643565b8452509183019183016119ac565b509695505050505050565b60008060408385031215611a0657600080fd5b823567ffffffffffffffff80821115611a1e57600080fd5b611a2a86838701611963565b93506020850135915080821115611a4057600080fd5b5061170d85828601611963565b600082601f830112611a5e57600080fd5b81356020611a6e6119848361193f565b82815260059290921b84018101918181019086841115611a8d57600080fd5b8286015b848110156119e857611aa28161181a565b8352918301918301611a91565b60008060408385031215611ac257600080fd5b823567ffffffffffffffff80821115611ada57600080fd5b611ae686838701611a4d565b93506020850135915080821115611afc57600080fd5b5061170d85828601611a4d565b600082601f830112611b1a57600080fd5b81356020611b2a6119848361193f565b82815260059290921b84018101918181019086841115611b4957600080fd5b8286015b848110156119e85780358352918301918301611b4d565b60008060408385031215611b7757600080fd5b823567ffffffffffffffff80821115611b8f57600080fd5b611b9b86838701611b09565b93506020850135915080821115611bb157600080fd5b5061170d85828601611b09565b7f417373657274696f6e4572726f723a2000000000000000000000000000000000815260008351611bf6816010850160208801611717565b7f206973206e6f7420657175616c20746f200000000000000000000000000000006010918401918201528351611c33816021840160208801611717565b01602101949350505050565b634e487b7160e01b600052603260045260246000fd5b6000602080830181845280855180835260408601915060408160051b870101925083870160005b82811015611caa57603f19888603018452611c9885835161173b565b94509285019290850190600101611c7c565b5092979650505050505050565b6020808252825182820181905260009190848201906040850190845b81811015611cf85783516001600160a01b031683529284019291840191600101611cd3565b50909695505050505050565b7f417373657274696f6e4572726f723a200000000000000000000000000000000081527f20426f74682076616c7565732061726500000000000000000000000000000000601082015260008251611d62816020850160208701611717565b9190910160200192915050565b6020808252825182820181905260009190848201906040850190845b81811015611cf857835183529284019291840191600101611d8b565b634e487b7160e01b600052601160045260246000fd5b8082028115828204841417610f8357610f83611da7565b80820180821115610f8357610f83611da7565b600081611df657611df6611da7565b506000190190565b60006020808385031215611e1157600080fd5b825167ffffffffffffffff811115611e2857600080fd5b8301601f81018513611e3957600080fd5b8051611e476119848261193f565b81815260059190911b82018301908381019087831115611e6657600080fd5b928401925b82841015611e8457835182529284019290840190611e6b565b979650505050505050565b600060018201611ea157611ea1611da7565b5060010190565b81810381811115610f8357610f83611da7565b60008351611ecd818460208801611717565b835190830190611ee1818360208801611717565b7f2c200000000000000000000000000000000000000000000000000000000000009101908152600201949350505050565b60008351611f24818460208801611717565b835190830190611f38818360208801611717565b7f5d000000000000000000000000000000000000000000000000000000000000009101908152600101949350505050565b600082611f8657634e487b7160e01b600052601260045260246000fd5b50049056fe417373657274696f6e4572726f723a20726573756c74206973206e6f742066616c7365417373657274696f6e4572726f723a20726573756c74206973206e6f742074727565446966662077697468206e65696768626f722073686f756c642068616e646c65206d616e792076616c756573a2646970667358221220d467f5e12a6ba01b3390b6fd368a710388cfa2e66528ed7af55a2afbf58369ca64736f6c63430008110033608060405234801561001057600080fd5b50611e88806100206000396000f3fe608060405234801561001057600080fd5b50600436106100c95760003560e01c80634b64e4921161008157806374f130701161005b57806374f1307014610176578063d70968e714610189578063e7da4c7e1461019c57600080fd5b80634b64e4921461013057806360fb55d5146101505780636df864781461016357600080fd5b806331495d33116100b257806331495d331461010a578063410dbb8b1461011d57806346bdca9a146100ce57600080fd5b8063235266d2146100ce57806330191626146100f7575b600080fd5b6100e16100dc366004611580565b6101af565b6040516100ee91906116ab565b60405180910390f35b6100e16101053660046116c5565b61025e565b6100e1610118366004611703565b610318565b6100e161012b366004611736565b6103e9565b61014361013e366004611758565b6104e9565b6040516100ee9190611773565b6100e161015e3660046118c0565b610768565b6100e161017136600461197c565b610844565b6100e1610184366004611736565b610920565b6100e1610197366004611703565b610a21565b6100e16101aa366004611a31565b610ae8565b6101e36040518060a00160405280600015158152602001606081526020016060815260200160608152602001606081525090565b815160208084019190912084519185019190912014808252610228578282604051602001610212929190611a8b565b60408051601f1981840301815291905260208201525b604080820193909352606081019190915281518083019092526005825264195c5d585b60da1b6020830152608081019190915290565b6102926040518060a00160405280600015158152602001606081526020016060815260200160608152602001606081525090565b8282148082526102d5576102a583610bc4565b6102ae83610bc4565b6040516020016102bf929190611a8b565b60408051601f1981840301815291905260208201525b6102de83610bc4565b60408201526102ec82610bc4565b6060820152604080518082019091526005815264195c5d585b60da1b6020820152608082015292915050565b61034c6040518060a00160405280600015158152602001606081526020016060815260200160608152602001606081525090565b6001600160a01b038381169083168114825260009061036c906014610c64565b90506000610384846001600160a01b03166014610c64565b83519091506103b65781816040516020016103a0929190611a8b565b60408051601f1981840301815291905260208401525b604080840192909252606083015280518082019091526005815264195c5d585b60da1b6020820152608082015292915050565b61041d6040518060a00160405280600015158152602001606081526020016060815260200160608152602001606081525090565b811580825261044557604051806060016040528060238152602001611de16023913960208201525b600182151514610472576040518060400160405280600581526020016466616c736560d81b815250610490565b604051806040016040528060048152602001637472756560e01b8152505b6040808301919091528051602080820183526000825260608401919091528151808301909252600782527f697346616c736500000000000000000000000000000000000000000000000000908201526080820152919050565b6104f1611495565b816104fa611495565b6105078160200151610e6c565b506040518060600160405280602d8152602001611e26602d9139815260008061053684620384cc600919610ee8565b9150915080156105ce576040805160a081018252600080825282518084018452601c81527f43616c6c20746f206170706c794d6f646966696572206661696c65640000000060208281019190915280840191909152835180820185528281528385015283518082018552828152606084015283518082019094529083526080820192909252908401516105c891610f8d565b506105eb565b6105e96105de83620384c261025e565b602085015190610f8d565b505b6105fa846103e8606219610ee8565b90925090508015610693576040805160a081018252600080825282518084018452601c81527f43616c6c20746f206170706c794d6f646966696572206661696c656400000000602082810191909152808401919091528351808201855282815283850152835180820185528281526060840152835180820190945290835260808201929092529084015161068d91610f8d565b506106a4565b6106a26105de8361038561025e565b505b6106b384620249f06063610ee8565b9092509050801561074c576040805160a081018252600080825282518084018452601c81527f43616c6c20746f206170706c794d6f646966696572206661696c656400000000602082810191909152808401919091528351808201855282815283850152835180820185528281526060840152835180820190945290835260808201929092529084015161074691610f8d565b5061075e565b61075c6105de8362024a5361025e565b505b5090949350505050565b61079c6040518060a00160405280600015158152602001606081526020016060815260200160608152602001606081525090565b816040516020016107ad9190611b0c565b60405160208183030381529060405280519060200120836040516020016107d49190611b0c565b60408051601f1981840301815291905280516020909101201480825261082d576107fd83610ffd565b61080683610ffd565b604051602001610817929190611a8b565b60408051601f1981840301815291905260208201525b61083683610ffd565b60408201526102ec82610ffd565b6108786040518060a00160405280600015158152602001606081526020016060815260200160608152602001606081525090565b816040516020016108899190611b6e565b60405160208183030381529060405280519060200120836040516020016108b09190611b6e565b60408051601f19818403018152919052805160209091012014808252610909576108d9836110d2565b6108e2836110d2565b6040516020016108f3929190611a8b565b60408051601f1981840301815291905260208201525b610912836110d2565b60408201526102ec826110d2565b6109546040518060a00160405280600015158152602001606081526020016060815260200160608152602001606081525090565b81151580825261097d57604051806060016040528060228152602001611e046022913960208201525b6001821515146109aa576040518060400160405280600581526020016466616c736560d81b8152506109c8565b604051806040016040528060048152602001637472756560e01b8152505b6040808301919091528051602080820183526000825260608401919091528151808301909252600682527f6973547275650000000000000000000000000000000000000000000000000000908201526080820152919050565b610a556040518060a00160405280600015158152602001606081526020016060815260200160608152602001606081525090565b6001600160a01b038381169083168114158252600090610a76906014610c64565b8251909150610aa65780604051602001610a909190611bbb565b60408051601f1981840301815291905260208301525b60408083019190915280516020808201835260008252606084019190915281518083019092526005825264195c5d585b60da1b90820152608082015292915050565b610b1c6040518060a00160405280600015158152602001606081526020016060815260200160608152602001606081525090565b81604051602001610b2d9190611c26565b6040516020818303038152906040528051906020012083604051602001610b549190611c26565b60408051601f19818403018152919052805160209091012014808252610bad57610b7d836111ae565b610b86836111ae565b604051602001610b97929190611a8b565b60408051601f1981840301815291905260208201525b610bb6836111ae565b60408201526102ec826111ae565b60606000610bd18361127f565b600101905060008167ffffffffffffffff811115610bf157610bf16114c9565b6040519080825280601f01601f191660200182016040528015610c1b576020820181803683370190505b5090508181016020015b600019017f3031323334353637383961626364656600000000000000000000000000000000600a86061a8153600a8504945084610c2557509392505050565b60606000610c73836002611c74565b610c7e906002611c8b565b67ffffffffffffffff811115610c9657610c966114c9565b6040519080825280601f01601f191660200182016040528015610cc0576020820181803683370190505b5090507f300000000000000000000000000000000000000000000000000000000000000081600081518110610cf757610cf7611c9e565b60200101906001600160f81b031916908160001a9053507f780000000000000000000000000000000000000000000000000000000000000081600181518110610d4257610d42611c9e565b60200101906001600160f81b031916908160001a9053506000610d66846002611c74565b610d71906001611c8b565b90505b6001811115610df6577f303132333435363738396162636465660000000000000000000000000000000085600f1660108110610db257610db2611c9e565b1a60f81b828281518110610dc857610dc8611c9e565b60200101906001600160f81b031916908160001a90535060049490941c93610def81611cb4565b9050610d74565b508315610e63576040517f08c379a000000000000000000000000000000000000000000000000000000000815260206004820181905260248201527f537472696e67733a20686578206c656e67746820696e73756666696369656e74604482015260640160405180910390fd5b90505b92915050565b60408051808201825260608152600060208201528151600480825260a082019093529091816020015b610ec96040518060a00160405280600015158152602001606081526020016060815260200160608152602001606081525090565b815260200190600190039081610e955750508252506000602082015290565b6040517ff74e51ea000000000000000000000000000000000000000000000000000000008152600481018390526024810182905260009081906001600160a01b0386169063f74e51ea90604401602060405180830381865afa925050508015610f6e575060408051601f3d908101601f19168201909252610f6b91810190611ccb565b60015b610f7e5750600090506001610f85565b9150600090505b935093915050565b604080518082019091526060815260006020820152825151602084015103610fbb57610fb883611361565b92505b818360000151846020015181518110610fd657610fd6611c9e565b6020026020010181905250826020018051809190610ff390611ce4565b9052509192915050565b6040805180820190915260018152605b60f81b602082015260609060005b83518110156110cb57600184516110329190611cfd565b81101561107b578184828151811061104c5761104c611c9e565b6020026020010151604051602001611065929190611d10565b60405160208183030381529060405291506110b9565b8184828151811061108e5761108e611c9e565b60200260200101516040516020016110a7929190611d67565b60405160208183030381529060405291505b806110c381611ce4565b91505061101b565b5092915050565b6040805180820190915260018152605b60f81b602082015260609060005b83518110156110cb57600184516111079190611cfd565b811015611163578161113c85838151811061112457611124611c9e565b60200260200101516001600160a01b03166014610c64565b60405160200161114d929190611d10565b604051602081830303815290604052915061119c565b8161117985838151811061112457611124611c9e565b60405160200161118a929190611d67565b60405160208183030381529060405291505b806111a681611ce4565b9150506110f0565b6040805180820190915260018152605b60f81b602082015260609060005b83518110156110cb57600184516111e39190611cfd565b811015611234578161120d85838151811061120057611200611c9e565b6020026020010151610bc4565b60405160200161121e929190611d10565b604051602081830303815290604052915061126d565b8161124a85838151811061120057611200611c9e565b60405160200161125b929190611d67565b60405160208183030381529060405291505b8061127781611ce4565b9150506111cc565b6000807a184f03e93ff9f4daa797ed6e38ed64bf6a1f01000000000000000083106112c8577a184f03e93ff9f4daa797ed6e38ed64bf6a1f010000000000000000830492506040015b6d04ee2d6d415b85acef810000000083106112f4576d04ee2d6d415b85acef8100000000830492506020015b662386f26fc10000831061131257662386f26fc10000830492506010015b6305f5e100831061132a576305f5e100830492506008015b612710831061133e57612710830492506004015b60648310611350576064830492506002015b600a8310610e665760010192915050565b60408051808201909152606081526000602082015260408051808201909152606081526000602082015282515160029061139c906003611c74565b6113a69190611dbe565b67ffffffffffffffff8111156113be576113be6114c9565b60405190808252806020026020018201604052801561142357816020015b6114106040518060a00160405280600015158152602001606081526020016060815260200160608152602001606081525090565b8152602001906001900390816113dc5790505b50815260005b83515181101561148357835180518290811061144757611447611c9e565b60200260200101518260000151828151811061146557611465611c9e565b6020026020010181905250808061147b90611ce4565b915050611429565b50602092830151928101929092525090565b6040518060400160405280606081526020016114c4604051806040016040528060608152602001600081525090565b905290565b634e487b7160e01b600052604160045260246000fd5b604051601f8201601f1916810167ffffffffffffffff81118282101715611508576115086114c9565b604052919050565b600082601f83011261152157600080fd5b813567ffffffffffffffff81111561153b5761153b6114c9565b61154e601f8201601f19166020016114df565b81815284602083860101111561156357600080fd5b816020850160208301376000918101602001919091529392505050565b6000806040838503121561159357600080fd5b823567ffffffffffffffff808211156115ab57600080fd5b6115b786838701611510565b935060208501359150808211156115cd57600080fd5b506115da85828601611510565b9150509250929050565b60005b838110156115ff5781810151838201526020016115e7565b50506000910152565b600081518084526116208160208601602086016115e4565b601f01601f19169290920160200192915050565b8051151582526000602082015160a0602085015261165560a0850182611608565b90506040830151848203604086015261166e8282611608565b915050606083015184820360608601526116888282611608565b915050608083015184820360808601526116a28282611608565b95945050505050565b6020815260006116be6020830184611634565b9392505050565b600080604083850312156116d857600080fd5b50508035926020909101359150565b80356001600160a01b03811681146116fe57600080fd5b919050565b6000806040838503121561171657600080fd5b61171f836116e7565b915061172d602084016116e7565b90509250929050565b60006020828403121561174857600080fd5b81358015158114610e6357600080fd5b60006020828403121561176a57600080fd5b6116be826116e7565b60006020808352835160408285015261178f6060850182611608565b905081850151601f198583030160408601526040820181516040845281815180845260608601915060608160051b8701019350868301925060005b818110156117f857605f198786030183526117e6858551611634565b945092870192918701916001016117ca565b505050509083015191909201529392505050565b600067ffffffffffffffff821115611826576118266114c9565b5060051b60200190565b600082601f83011261184157600080fd5b813560206118566118518361180c565b6114df565b82815260059290921b8401810191818101908684111561187557600080fd5b8286015b848110156118b557803567ffffffffffffffff8111156118995760008081fd5b6118a78986838b0101611510565b845250918301918301611879565b509695505050505050565b600080604083850312156118d357600080fd5b823567ffffffffffffffff808211156118eb57600080fd5b6118f786838701611830565b9350602085013591508082111561190d57600080fd5b506115da85828601611830565b600082601f83011261192b57600080fd5b8135602061193b6118518361180c565b82815260059290921b8401810191818101908684111561195a57600080fd5b8286015b848110156118b55761196f816116e7565b835291830191830161195e565b6000806040838503121561198f57600080fd5b823567ffffffffffffffff808211156119a757600080fd5b6119b38683870161191a565b935060208501359150808211156119c957600080fd5b506115da8582860161191a565b600082601f8301126119e757600080fd5b813560206119f76118518361180c565b82815260059290921b84018101918181019086841115611a1657600080fd5b8286015b848110156118b55780358352918301918301611a1a565b60008060408385031215611a4457600080fd5b823567ffffffffffffffff80821115611a5c57600080fd5b611a68868387016119d6565b93506020850135915080821115611a7e57600080fd5b506115da858286016119d6565b7f417373657274696f6e4572726f723a2000000000000000000000000000000000815260008351611ac38160108501602088016115e4565b7f206973206e6f7420657175616c20746f200000000000000000000000000000006010918401918201528351611b008160218401602088016115e4565b01602101949350505050565b6000602080830181845280855180835260408601915060408160051b870101925083870160005b82811015611b6157603f19888603018452611b4f858351611608565b94509285019290850190600101611b33565b5092979650505050505050565b6020808252825182820181905260009190848201906040850190845b81811015611baf5783516001600160a01b031683529284019291840191600101611b8a565b50909695505050505050565b7f417373657274696f6e4572726f723a200000000000000000000000000000000081527f20426f74682076616c7565732061726500000000000000000000000000000000601082015260008251611c198160208501602087016115e4565b9190910160200192915050565b6020808252825182820181905260009190848201906040850190845b81811015611baf57835183529284019291840191600101611c42565b634e487b7160e01b600052601160045260246000fd5b8082028115828204841417610e6657610e66611c5e565b80820180821115610e6657610e66611c5e565b634e487b7160e01b600052603260045260246000fd5b600081611cc357611cc3611c5e565b506000190190565b600060208284031215611cdd57600080fd5b5051919050565b600060018201611cf657611cf6611c5e565b5060010190565b81810381811115610e6657610e66611c5e565b60008351611d228184602088016115e4565b835190830190611d368183602088016115e4565b7f2c200000000000000000000000000000000000000000000000000000000000009101908152600201949350505050565b60008351611d798184602088016115e4565b835190830190611d8d8183602088016115e4565b7f5d000000000000000000000000000000000000000000000000000000000000009101908152600101949350505050565b600082611ddb57634e487b7160e01b600052601260045260246000fd5b50049056fe417373657274696f6e4572726f723a20726573756c74206973206e6f742066616c7365417373657274696f6e4572726f723a20726573756c74206973206e6f74207472756553686f756c642068616e646c6520706f73697469766520616e64206e65676174697665206d6f64696669657273a2646970667358221220148a850596569d410766cdb54b13a73372689d1aa7dff4e547b47c872d6f7f9d64736f6c63430008110033608060405234801561001057600080fd5b506124c2806100206000396000f3fe608060405234801561001057600080fd5b50600436106100c95760003560e01c80634b64e4921161008157806374f130701161005b57806374f1307014610176578063d70968e714610189578063e7da4c7e1461019c57600080fd5b80634b64e4921461013057806360fb55d5146101505780636df864781461016357600080fd5b806331495d33116100b257806331495d331461010a578063410dbb8b1461011d57806346bdca9a146100ce57600080fd5b8063235266d2146100ce57806330191626146100f7575b600080fd5b6100e16100dc366004611b32565b6101af565b6040516100ee9190611c5d565b60405180910390f35b6100e1610105366004611c77565b61025e565b6100e1610118366004611cb5565b610318565b6100e161012b366004611ce8565b6103e9565b61014361013e366004611d0a565b6104e9565b6040516100ee9190611d25565b6100e161015e366004611e72565b610d46565b6100e1610171366004611f2e565b610e22565b6100e1610184366004611ce8565b610efe565b6100e1610197366004611cb5565b610fff565b6100e16101aa366004611fe3565b6110c6565b6101e36040518060a00160405280600015158152602001606081526020016060815260200160608152602001606081525090565b81516020808401919091208451918501919091201480825261022857828260405160200161021292919061203d565b60408051601f1981840301815291905260208201525b604080820193909352606081019190915281518083019092526005825264195c5d585b60da1b6020830152608081019190915290565b6102926040518060a00160405280600015158152602001606081526020016060815260200160608152602001606081525090565b8282148082526102d5576102a5836111a2565b6102ae836111a2565b6040516020016102bf92919061203d565b60408051601f1981840301815291905260208201525b6102de836111a2565b60408201526102ec826111a2565b6060820152604080518082019091526005815264195c5d585b60da1b6020820152608082015292915050565b61034c6040518060a00160405280600015158152602001606081526020016060815260200160608152602001606081525090565b6001600160a01b038381169083168114825260009061036c906014611242565b90506000610384846001600160a01b03166014611242565b83519091506103b65781816040516020016103a092919061203d565b60408051601f1981840301815291905260208401525b604080840192909252606083015280518082019091526005815264195c5d585b60da1b6020820152608082015292915050565b61041d6040518060a00160405280600015158152602001606081526020016060815260200160608152602001606081525090565b8115808252610445576040518060600160405280602381526020016124486023913960208201525b600182151514610472576040518060400160405280600581526020016466616c736560d81b815250610490565b604051806040016040528060048152602001637472756560e01b8152505b6040808301919091528051602080820183526000825260608401919091528151808301909252600782527f697346616c736500000000000000000000000000000000000000000000000000908201526080820152919050565b6104f1611a47565b816104fa611a47565b610507816020015161144a565b50604051806060016040528060248152602001612424602491398160000181905250816001600160a01b03166364529db56040518163ffffffff1660e01b8152600401600060405180830381600087803b15801561056457600080fd5b505af1158015610578573d6000803e3d6000fd5b505060405163e1819ff960e01b8152600860048201526001600160a01b038516925063e1819ff99150602401600060405180830381600087803b1580156105be57600080fd5b505af11580156105d2573d6000803e3d6000fd5b505060405163e1819ff960e01b8152600a60048201526001600160a01b038516925063e1819ff99150602401600060405180830381600087803b15801561061857600080fd5b505af115801561062c573d6000803e3d6000fd5b505060405163e1819ff960e01b8152603760048201526001600160a01b038516925063e1819ff99150602401600060405180830381600087803b15801561067257600080fd5b505af1158015610686573d6000803e3d6000fd5b50505050600080610696846114c6565b91509150801561072e576040805160a081018252600080825282518084018452601c81527f43616c6c20746f20706f705769746852657475726e206661696c65640000000060208281019190915280840191909152835180820185528281528385015283518082018552828152606084015283518082019094529083526080820192909252908401516107289161153f565b50610749565b61074761073c83603761025e565b60208501519061153f565b505b6000846001600160a01b031663fb8cbced6040518163ffffffff1660e01b8152600401600060405180830381865afa158015610789573d6000803e3d6000fd5b505050506040513d6000823e601f3d908101601f191682016040526107b191908101906120be565b90506107cd6107c28251600261025e565b60208601519061153f565b506107d7856114c6565b90935091508115610870576040805160a081018252600080825282518084018452601c81527f43616c6c20746f20706f705769746852657475726e206661696c656400000000602082810191909152808401919091528351808201855282815283850152835180820185528281526060840152835180820190945290835260808201929092529085015161086a9161153f565b50610880565b61087e6107c284600a61025e565b505b846001600160a01b031663fb8cbced6040518163ffffffff1660e01b8152600401600060405180830381865afa1580156108be573d6000803e3d6000fd5b505050506040513d6000823e601f3d908101601f191682016040526108e691908101906120be565b90506108f76107c28251600161025e565b5060405163e1819ff960e01b8152600960048201526001600160a01b0386169063e1819ff990602401600060405180830381600087803b15801561093a57600080fd5b505af115801561094e573d6000803e3d6000fd5b505060405163e1819ff960e01b8152600a60048201526001600160a01b038816925063e1819ff99150602401600060405180830381600087803b15801561099457600080fd5b505af11580156109a8573d6000803e3d6000fd5b505060405163e1819ff960e01b8152600b60048201526001600160a01b038816925063e1819ff99150602401600060405180830381600087803b1580156109ee57600080fd5b505af1158015610a02573d6000803e3d6000fd5b505060405163e1819ff960e01b8152601460048201526001600160a01b038816925063e1819ff99150602401600060405180830381600087803b158015610a4857600080fd5b505af1158015610a5c573d6000803e3d6000fd5b505060405163e1819ff960e01b8152601e60048201526001600160a01b038816925063e1819ff99150602401600060405180830381600087803b158015610aa257600080fd5b505af1158015610ab6573d6000803e3d6000fd5b50505050610ac3856114c6565b90935091508115610b5c576040805160a081018252600080825282518084018452601c81527f43616c6c20746f20706f705769746852657475726e206661696c6564000000006020828101919091528084019190915283518082018552828152838501528351808201855282815260608401528351808201909452908352608082019290925290850151610b569161153f565b50610b6c565b610b6a6107c284601e61025e565b505b610b75856114c6565b90935091508115610c0e576040805160a081018252600080825282518084018452601c81527f43616c6c20746f20706f705769746852657475726e206661696c6564000000006020828101919091528084019190915283518082018552828152838501528351808201855282815260608401528351808201909452908352608082019290925290850151610c089161153f565b50610c1e565b610c1c6107c284601461025e565b505b846001600160a01b031663fb8cbced6040518163ffffffff1660e01b8152600401600060405180830381865afa158015610c5c573d6000803e3d6000fd5b505050506040513d6000823e601f3d908101601f19168201604052610c8491908101906120be565b604080516080810182526008815260096020820152600a81830152600b60608201528151600480825260a082019093529293509160009181602001602082028036833701905050905060005b6004811015610d1f57828160048110610ceb57610ceb61214f565b6020020151828281518110610d0257610d0261214f565b602090810291909101015280610d178161217b565b915050610cd0565b50610d38610d2d84836110c6565b60208801519061153f565b509498975050505050505050565b610d7a6040518060a00160405280600015158152602001606081526020016060815260200160608152602001606081525090565b81604051602001610d8b9190612194565b6040516020818303038152906040528051906020012083604051602001610db29190612194565b60408051601f19818403018152919052805160209091012014808252610e0b57610ddb836115af565b610de4836115af565b604051602001610df592919061203d565b60408051601f1981840301815291905260208201525b610e14836115af565b60408201526102ec826115af565b610e566040518060a00160405280600015158152602001606081526020016060815260200160608152602001606081525090565b81604051602001610e6791906121f6565b6040516020818303038152906040528051906020012083604051602001610e8e91906121f6565b60408051601f19818403018152919052805160209091012014808252610ee757610eb783611684565b610ec083611684565b604051602001610ed192919061203d565b60408051601f1981840301815291905260208201525b610ef083611684565b60408201526102ec82611684565b610f326040518060a00160405280600015158152602001606081526020016060815260200160608152602001606081525090565b811515808252610f5b5760405180606001604052806022815260200161246b6022913960208201525b600182151514610f88576040518060400160405280600581526020016466616c736560d81b815250610fa6565b604051806040016040528060048152602001637472756560e01b8152505b6040808301919091528051602080820183526000825260608401919091528151808301909252600682527f6973547275650000000000000000000000000000000000000000000000000000908201526080820152919050565b6110336040518060a00160405280600015158152602001606081526020016060815260200160608152602001606081525090565b6001600160a01b038381169083168114158252600090611054906014611242565b8251909150611084578060405160200161106e9190612243565b60408051601f1981840301815291905260208301525b60408083019190915280516020808201835260008252606084019190915281518083019092526005825264195c5d585b60da1b90820152608082015292915050565b6110fa6040518060a00160405280600015158152602001606081526020016060815260200160608152602001606081525090565b8160405160200161110b91906122ae565b604051602081830303815290604052805190602001208360405160200161113291906122ae565b60408051601f1981840301815291905280516020909101201480825261118b5761115b83611760565b61116483611760565b60405160200161117592919061203d565b60408051601f1981840301815291905260208201525b61119483611760565b60408201526102ec82611760565b606060006111af83611831565b600101905060008167ffffffffffffffff8111156111cf576111cf611a7b565b6040519080825280601f01601f1916602001820160405280156111f9576020820181803683370190505b5090508181016020015b600019017f3031323334353637383961626364656600000000000000000000000000000000600a86061a8153600a850494508461120357509392505050565b606060006112518360026122e6565b61125c9060026122fd565b67ffffffffffffffff81111561127457611274611a7b565b6040519080825280601f01601f19166020018201604052801561129e576020820181803683370190505b5090507f3000000000000000000000000000000000000000000000000000000000000000816000815181106112d5576112d561214f565b60200101906001600160f81b031916908160001a9053507f7800000000000000000000000000000000000000000000000000000000000000816001815181106113205761132061214f565b60200101906001600160f81b031916908160001a90535060006113448460026122e6565b61134f9060016122fd565b90505b60018111156113d4577f303132333435363738396162636465660000000000000000000000000000000085600f16601081106113905761139061214f565b1a60f81b8282815181106113a6576113a661214f565b60200101906001600160f81b031916908160001a90535060049490941c936113cd81612310565b9050611352565b508315611441576040517f08c379a000000000000000000000000000000000000000000000000000000000815260206004820181905260248201527f537472696e67733a20686578206c656e67746820696e73756666696369656e74604482015260640160405180910390fd5b90505b92915050565b60408051808201825260608152600060208201528151600480825260a082019093529091816020015b6114a76040518060a00160405280600015158152602001606081526020016060815260200160608152602001606081525090565b8152602001906001900390816114735750508252506000602082015290565b600080826001600160a01b0316631abe2ac26040518163ffffffff1660e01b81526004016020604051808303816000875af1925050508015611525575060408051601f3d908101601f1916820190925261152291810190612327565b60015b6115355750600092600192509050565b9360009350915050565b60408051808201909152606081526000602082015282515160208401510361156d5761156a83611913565b92505b8183600001518460200151815181106115885761158861214f565b60200260200101819052508260200180518091906115a59061217b565b9052509192915050565b6040805180820190915260018152605b60f81b602082015260609060005b835181101561167d57600184516115e49190612340565b81101561162d57818482815181106115fe576115fe61214f565b6020026020010151604051602001611617929190612353565b604051602081830303815290604052915061166b565b818482815181106116405761164061214f565b60200260200101516040516020016116599291906123aa565b60405160208183030381529060405291505b806116758161217b565b9150506115cd565b5092915050565b6040805180820190915260018152605b60f81b602082015260609060005b835181101561167d57600184516116b99190612340565b81101561171557816116ee8583815181106116d6576116d661214f565b60200260200101516001600160a01b03166014611242565b6040516020016116ff929190612353565b604051602081830303815290604052915061174e565b8161172b8583815181106116d6576116d661214f565b60405160200161173c9291906123aa565b60405160208183030381529060405291505b806117588161217b565b9150506116a2565b6040805180820190915260018152605b60f81b602082015260609060005b835181101561167d57600184516117959190612340565b8110156117e657816117bf8583815181106117b2576117b261214f565b60200260200101516111a2565b6040516020016117d0929190612353565b604051602081830303815290604052915061181f565b816117fc8583815181106117b2576117b261214f565b60405160200161180d9291906123aa565b60405160208183030381529060405291505b806118298161217b565b91505061177e565b6000807a184f03e93ff9f4daa797ed6e38ed64bf6a1f010000000000000000831061187a577a184f03e93ff9f4daa797ed6e38ed64bf6a1f010000000000000000830492506040015b6d04ee2d6d415b85acef810000000083106118a6576d04ee2d6d415b85acef8100000000830492506020015b662386f26fc1000083106118c457662386f26fc10000830492506010015b6305f5e10083106118dc576305f5e100830492506008015b61271083106118f057612710830492506004015b60648310611902576064830492506002015b600a83106114445760010192915050565b60408051808201909152606081526000602082015260408051808201909152606081526000602082015282515160029061194e9060036122e6565b6119589190612401565b67ffffffffffffffff81111561197057611970611a7b565b6040519080825280602002602001820160405280156119d557816020015b6119c26040518060a00160405280600015158152602001606081526020016060815260200160608152602001606081525090565b81526020019060019003908161198e5790505b50815260005b835151811015611a355783518051829081106119f9576119f961214f565b602002602001015182600001518281518110611a1757611a1761214f565b60200260200101819052508080611a2d9061217b565b9150506119db565b50602092830151928101929092525090565b604051806040016040528060608152602001611a76604051806040016040528060608152602001600081525090565b905290565b634e487b7160e01b600052604160045260246000fd5b604051601f8201601f1916810167ffffffffffffffff81118282101715611aba57611aba611a7b565b604052919050565b600082601f830112611ad357600080fd5b813567ffffffffffffffff811115611aed57611aed611a7b565b611b00601f8201601f1916602001611a91565b818152846020838601011115611b1557600080fd5b816020850160208301376000918101602001919091529392505050565b60008060408385031215611b4557600080fd5b823567ffffffffffffffff80821115611b5d57600080fd5b611b6986838701611ac2565b93506020850135915080821115611b7f57600080fd5b50611b8c85828601611ac2565b9150509250929050565b60005b83811015611bb1578181015183820152602001611b99565b50506000910152565b60008151808452611bd2816020860160208601611b96565b601f01601f19169290920160200192915050565b8051151582526000602082015160a06020850152611c0760a0850182611bba565b905060408301518482036040860152611c208282611bba565b91505060608301518482036060860152611c3a8282611bba565b91505060808301518482036080860152611c548282611bba565b95945050505050565b602081526000611c706020830184611be6565b9392505050565b60008060408385031215611c8a57600080fd5b50508035926020909101359150565b80356001600160a01b0381168114611cb057600080fd5b919050565b60008060408385031215611cc857600080fd5b611cd183611c99565b9150611cdf60208401611c99565b90509250929050565b600060208284031215611cfa57600080fd5b8135801515811461144157600080fd5b600060208284031215611d1c57600080fd5b611c7082611c99565b600060208083528351604082850152611d416060850182611bba565b905081850151601f198583030160408601526040820181516040845281815180845260608601915060608160051b8701019350868301925060005b81811015611daa57605f19878603018352611d98858551611be6565b94509287019291870191600101611d7c565b505050509083015191909201529392505050565b600067ffffffffffffffff821115611dd857611dd8611a7b565b5060051b60200190565b600082601f830112611df357600080fd5b81356020611e08611e0383611dbe565b611a91565b82815260059290921b84018101918181019086841115611e2757600080fd5b8286015b84811015611e6757803567ffffffffffffffff811115611e4b5760008081fd5b611e598986838b0101611ac2565b845250918301918301611e2b565b509695505050505050565b60008060408385031215611e8557600080fd5b823567ffffffffffffffff80821115611e9d57600080fd5b611ea986838701611de2565b93506020850135915080821115611ebf57600080fd5b50611b8c85828601611de2565b600082601f830112611edd57600080fd5b81356020611eed611e0383611dbe565b82815260059290921b84018101918181019086841115611f0c57600080fd5b8286015b84811015611e6757611f2181611c99565b8352918301918301611f10565b60008060408385031215611f4157600080fd5b823567ffffffffffffffff80821115611f5957600080fd5b611f6586838701611ecc565b93506020850135915080821115611f7b57600080fd5b50611b8c85828601611ecc565b600082601f830112611f9957600080fd5b81356020611fa9611e0383611dbe565b82815260059290921b84018101918181019086841115611fc857600080fd5b8286015b84811015611e675780358352918301918301611fcc565b60008060408385031215611ff657600080fd5b823567ffffffffffffffff8082111561200e57600080fd5b61201a86838701611f88565b9350602085013591508082111561203057600080fd5b50611b8c85828601611f88565b7f417373657274696f6e4572726f723a2000000000000000000000000000000000815260008351612075816010850160208801611b96565b7f206973206e6f7420657175616c20746f2000000000000000000000000000000060109184019182015283516120b2816021840160208801611b96565b01602101949350505050565b600060208083850312156120d157600080fd5b825167ffffffffffffffff8111156120e857600080fd5b8301601f810185136120f957600080fd5b8051612107611e0382611dbe565b81815260059190911b8201830190838101908783111561212657600080fd5b928401925b828410156121445783518252928401929084019061212b565b979650505050505050565b634e487b7160e01b600052603260045260246000fd5b634e487b7160e01b600052601160045260246000fd5b60006001820161218d5761218d612165565b5060010190565b6000602080830181845280855180835260408601915060408160051b870101925083870160005b828110156121e957603f198886030184526121d7858351611bba565b945092850192908501906001016121bb565b5092979650505050505050565b6020808252825182820181905260009190848201906040850190845b818110156122375783516001600160a01b031683529284019291840191600101612212565b50909695505050505050565b7f417373657274696f6e4572726f723a200000000000000000000000000000000081527f20426f74682076616c75657320617265000000000000000000000000000000006010820152600082516122a1816020850160208701611b96565b9190910160200192915050565b6020808252825182820181905260009190848201906040850190845b81811015612237578351835292840192918401916001016122ca565b808202811582820484141761144457611444612165565b8082018082111561144457611444612165565b60008161231f5761231f612165565b506000190190565b60006020828403121561233957600080fd5b5051919050565b8181038181111561144457611444612165565b60008351612365818460208801611b96565b835190830190612379818360208801611b96565b7f2c200000000000000000000000000000000000000000000000000000000000009101908152600201949350505050565b600083516123bc818460208801611b96565b8351908301906123d0818360208801611b96565b7f5d000000000000000000000000000000000000000000000000000000000000009101908152600101949350505050565b60008261241e57634e487b7160e01b600052601260045260246000fd5b50049056fe53686f756c642061646420616e6420706f702076616c7565732066726f6d206172726179417373657274696f6e4572726f723a20726573756c74206973206e6f742066616c7365417373657274696f6e4572726f723a20726573756c74206973206e6f742074727565a2646970667358221220e1bf2d6f07e96bda6aab805ce8f121c2bb78276a25dc3fe62e0300225ebd7cf464736f6c63430008110033",
  "devdoc": {
    "kind": "dev",
    "methods": {
      "approve(address,uint256)": {
        "details": "See {IERC721-approve}."
      },
      "balanceOf(address)": {
        "details": "See {IERC721-balanceOf}."
      },
      "getApproved(uint256)": {
        "details": "See {IERC721-getApproved}."
      },
      "isApprovedForAll(address,address)": {
        "details": "See {IERC721-isApprovedForAll}."
      },
      "name()": {
        "details": "See {IERC721Metadata-name}."
      },
      "owner()": {
        "details": "Returns the address of the current owner."
      },
      "ownerOf(uint256)": {
        "details": "See {IERC721-ownerOf}."
      },
      "renounceOwnership()": {
        "details": "Leaves the contract without owner. It will not be possible to call `onlyOwner` functions anymore. Can only be called by the current owner. NOTE: Renouncing ownership will leave the contract without an owner, thereby removing any functionality that is only available to the owner."
      },
      "safeTransferFrom(address,address,uint256)": {
        "details": "See {IERC721-safeTransferFrom}."
      },
      "safeTransferFrom(address,address,uint256,bytes)": {
        "details": "See {IERC721-safeTransferFrom}."
      },
      "setApprovalForAll(address,bool)": {
        "details": "See {IERC721-setApprovalForAll}."
      },
      "supportsInterface(bytes4)": {
        "details": "See {IERC165-supportsInterface}."
      },
      "symbol()": {
        "details": "See {IERC721Metadata-symbol}."
      },
      "transferFrom(address,address,uint256)": {
        "details": "See {IERC721-transferFrom}."
      },
      "transferOwnership(address)": {
        "details": "Transfers ownership of the contract to a new account (`newOwner`). Can only be called by the current owner."
      }
    },
    "version": 1
  },
  "userdoc": {
    "kind": "user",
    "methods": {
      "checkIfAllPassed((string,((bool,string,string,string,string)[],uint256))[])": {
        "notice": "Check each assert in each test to see if any failed. Note:  The check is here instead of setting a `passed` bool in `TestResult` to reduce the amount of code in each unit test."
      }
    },
    "version": 1
  },
  "storageLayout": {
    "storage": [
      {
        "astId": 882,
        "contract": "contracts/ErrorTriageUT.sol:ErrorTriageUT",
        "label": "_name",
        "offset": 0,
        "slot": "0",
        "type": "t_string_storage"
      },
      {
        "astId": 884,
        "contract": "contracts/ErrorTriageUT.sol:ErrorTriageUT",
        "label": "_symbol",
        "offset": 0,
        "slot": "1",
        "type": "t_string_storage"
      },
      {
        "astId": 888,
        "contract": "contracts/ErrorTriageUT.sol:ErrorTriageUT",
        "label": "_owners",
        "offset": 0,
        "slot": "2",
        "type": "t_mapping(t_uint256,t_address)"
      },
      {
        "astId": 892,
        "contract": "contracts/ErrorTriageUT.sol:ErrorTriageUT",
        "label": "_balances",
        "offset": 0,
        "slot": "3",
        "type": "t_mapping(t_address,t_uint256)"
      },
      {
        "astId": 896,
        "contract": "contracts/ErrorTriageUT.sol:ErrorTriageUT",
        "label": "_tokenApprovals",
        "offset": 0,
        "slot": "4",
        "type": "t_mapping(t_uint256,t_address)"
      },
      {
        "astId": 902,
        "contract": "contracts/ErrorTriageUT.sol:ErrorTriageUT",
        "label": "_operatorApprovals",
        "offset": 0,
        "slot": "5",
        "type": "t_mapping(t_address,t_mapping(t_address,t_bool))"
      },
      {
        "astId": 7,
        "contract": "contracts/ErrorTriageUT.sol:ErrorTriageUT",
        "label": "_owner",
        "offset": 0,
        "slot": "6",
        "type": "t_address"
      },
      {
        "astId": 123,
        "contract": "contracts/ErrorTriageUT.sol:ErrorTriageUT",
        "label": "_status",
        "offset": 0,
        "slot": "7",
        "type": "t_uint256"
      },
      {
        "astId": 6525,
        "contract": "contracts/ErrorTriageUT.sol:ErrorTriageUT",
        "label": "tokenIds",
        "offset": 0,
        "slot": "8",
        "type": "t_struct(Counter)2320_storage"
      },
      {
        "astId": 6529,
        "contract": "contracts/ErrorTriageUT.sol:ErrorTriageUT",
        "label": "owners",
        "offset": 0,
        "slot": "9",
        "type": "t_mapping(t_address,t_bool)"
      },
      {
        "astId": 6533,
        "contract": "contracts/ErrorTriageUT.sol:ErrorTriageUT",
        "label": "submittedContracts",
        "offset": 0,
        "slot": "10",
        "type": "t_mapping(t_address,t_bool)"
      },
      {
        "astId": 6536,
        "contract": "contracts/ErrorTriageUT.sol:ErrorTriageUT",
        "label": "active",
        "offset": 0,
        "slot": "11",
        "type": "t_bool"
      },
      {
        "astId": 6539,
        "contract": "contracts/ErrorTriageUT.sol:ErrorTriageUT",
        "label": "AllTokenURI",
        "offset": 0,
        "slot": "12",
        "type": "t_string_storage"
      },
      {
        "astId": 6559,
        "contract": "contracts/ErrorTriageUT.sol:ErrorTriageUT",
        "label": "tests",
        "offset": 0,
        "slot": "13",
        "type": "t_array(t_contract(ITest)6495)dyn_storage"
      },
      {
        "astId": 6563,
        "contract": "contracts/ErrorTriageUT.sol:ErrorTriageUT",
        "label": "deployer",
        "offset": 0,
        "slot": "14",
        "type": "t_contract(IDeploy)6506"
      }
    ],
    "types": {
      "t_address": {
        "encoding": "inplace",
        "label": "address",
        "numberOfBytes": "20"
      },
      "t_array(t_contract(ITest)6495)dyn_storage": {
        "base": "t_contract(ITest)6495",
        "encoding": "dynamic_array",
        "label": "contract ITest[]",
        "numberOfBytes": "32"
      },
      "t_bool": {
        "encoding": "inplace",
        "label": "bool",
        "numberOfBytes": "1"
      },
      "t_contract(IDeploy)6506": {
        "encoding": "inplace",
        "label": "contract IDeploy",
        "numberOfBytes": "20"
      },
      "t_contract(ITest)6495": {
        "encoding": "inplace",
        "label": "contract ITest",
        "numberOfBytes": "20"
      },
      "t_mapping(t_address,t_bool)": {
        "encoding": "mapping",
        "key": "t_address",
        "label": "mapping(address => bool)",
        "numberOfBytes": "32",
        "value": "t_bool"
      },
      "t_mapping(t_address,t_mapping(t_address,t_bool))": {
        "encoding": "mapping",
        "key": "t_address",
        "label": "mapping(address => mapping(address => bool))",
        "numberOfBytes": "32",
        "value": "t_mapping(t_address,t_bool)"
      },
      "t_mapping(t_address,t_uint256)": {
        "encoding": "mapping",
        "key": "t_address",
        "label": "mapping(address => uint256)",
        "numberOfBytes": "32",
        "value": "t_uint256"
      },
      "t_mapping(t_uint256,t_address)": {
        "encoding": "mapping",
        "key": "t_uint256",
        "label": "mapping(uint256 => address)",
        "numberOfBytes": "32",
        "value": "t_address"
      },
      "t_string_storage": {
        "encoding": "bytes",
        "label": "string",
        "numberOfBytes": "32"
      },
      "t_struct(Counter)2320_storage": {
        "encoding": "inplace",
        "label": "struct Counters.Counter",
        "members": [
          {
            "astId": 2319,
            "contract": "contracts/ErrorTriageUT.sol:ErrorTriageUT",
            "label": "_value",
            "offset": 0,
            "slot": "0",
            "type": "t_uint256"
          }
        ],
        "numberOfBytes": "32"
      },
      "t_uint256": {
        "encoding": "inplace",
        "label": "uint256",
        "numberOfBytes": "32"
      }
    }
  }
}