{
  "address": "0xb02B34c48138464888A477a6F0CC96d8Ce2Fe3F0",
  "abi": [
    {
      "inputs": [],
      "stateMutability": "nonpayable",
      "type": "constructor"
    },
    {
      "inputs": [],
      "name": "NotActive",
      "type": "error"
    },
    {
      "inputs": [],
      "name": "SoulboundToken",
      "type": "error"
    },
    {
      "anonymous": false,
      "inputs": [
        {
          "indexed": true,
          "internalType": "address",
          "name": "owner",
          "type": "address"
        },
        {
          "indexed": true,
          "internalType": "address",
          "name": "approved",
          "type": "address"
        },
        {
          "indexed": true,
          "internalType": "uint256",
          "name": "tokenId",
          "type": "uint256"
        }
      ],
      "name": "Approval",
      "type": "event"
    },
    {
      "anonymous": false,
      "inputs": [
        {
          "indexed": true,
          "internalType": "address",
          "name": "owner",
          "type": "address"
        },
        {
          "indexed": true,
          "internalType": "address",
          "name": "operator",
          "type": "address"
        },
        {
          "indexed": false,
          "internalType": "bool",
          "name": "approved",
          "type": "bool"
        }
      ],
      "name": "ApprovalForAll",
      "type": "event"
    },
    {
      "anonymous": false,
      "inputs": [
        {
          "indexed": true,
          "internalType": "address",
          "name": "previousOwner",
          "type": "address"
        },
        {
          "indexed": true,
          "internalType": "address",
          "name": "newOwner",
          "type": "address"
        }
      ],
      "name": "OwnershipTransferred",
      "type": "event"
    },
    {
      "anonymous": false,
      "inputs": [
        {
          "indexed": false,
          "internalType": "address",
          "name": "submission",
          "type": "address"
        },
        {
          "indexed": false,
          "internalType": "bool",
          "name": "passed",
          "type": "bool"
        },
        {
          "components": [
            {
              "internalType": "string",
              "name": "message",
              "type": "string"
            },
            {
              "components": [
                {
                  "components": [
                    {
                      "internalType": "bool",
                      "name": "passed",
                      "type": "bool"
                    },
                    {
                      "internalType": "string",
                      "name": "assertionError",
                      "type": "string"
                    },
                    {
                      "internalType": "string",
                      "name": "returnedAsString",
                      "type": "string"
                    },
                    {
                      "internalType": "string",
                      "name": "expectedAsString",
                      "type": "string"
                    },
                    {
                      "internalType": "string",
                      "name": "methodName",
                      "type": "string"
                    }
                  ],
                  "internalType": "struct Assert.AssertResult[]",
                  "name": "elements",
                  "type": "tuple[]"
                },
                {
                  "internalType": "uint256",
                  "name": "num",
                  "type": "uint256"
                }
              ],
              "internalType": "struct List.ARList",
              "name": "assertResults",
              "type": "tuple"
            }
          ],
          "indexed": false,
          "internalType": "struct Cafe.TestResult[]",
          "name": "testResults",
          "type": "tuple[]"
        }
      ],
      "name": "TestSuiteResult",
      "type": "event"
    },
    {
      "anonymous": false,
      "inputs": [
        {
          "indexed": true,
          "internalType": "address",
          "name": "from",
          "type": "address"
        },
        {
          "indexed": true,
          "internalType": "address",
          "name": "to",
          "type": "address"
        },
        {
          "indexed": true,
          "internalType": "uint256",
          "name": "tokenId",
          "type": "uint256"
        }
      ],
      "name": "Transfer",
      "type": "event"
    },
    {
      "inputs": [
        {
          "internalType": "address",
          "name": "to",
          "type": "address"
        },
        {
          "internalType": "uint256",
          "name": "tokenId",
          "type": "uint256"
        }
      ],
      "name": "approve",
      "outputs": [],
      "stateMutability": "nonpayable",
      "type": "function"
    },
    {
      "inputs": [
        {
          "internalType": "address",
          "name": "owner",
          "type": "address"
        }
      ],
      "name": "balanceOf",
      "outputs": [
        {
          "internalType": "uint256",
          "name": "",
          "type": "uint256"
        }
      ],
      "stateMutability": "view",
      "type": "function"
    },
    {
      "inputs": [
        {
          "components": [
            {
              "internalType": "string",
              "name": "message",
              "type": "string"
            },
            {
              "components": [
                {
                  "components": [
                    {
                      "internalType": "bool",
                      "name": "passed",
                      "type": "bool"
                    },
                    {
                      "internalType": "string",
                      "name": "assertionError",
                      "type": "string"
                    },
                    {
                      "internalType": "string",
                      "name": "returnedAsString",
                      "type": "string"
                    },
                    {
                      "internalType": "string",
                      "name": "expectedAsString",
                      "type": "string"
                    },
                    {
                      "internalType": "string",
                      "name": "methodName",
                      "type": "string"
                    }
                  ],
                  "internalType": "struct Assert.AssertResult[]",
                  "name": "elements",
                  "type": "tuple[]"
                },
                {
                  "internalType": "uint256",
                  "name": "num",
                  "type": "uint256"
                }
              ],
              "internalType": "struct List.ARList",
              "name": "assertResults",
              "type": "tuple"
            }
          ],
          "internalType": "struct Cafe.TestResult[]",
          "name": "_testResults",
          "type": "tuple[]"
        }
      ],
      "name": "checkIfAllPassed",
      "outputs": [
        {
          "internalType": "bool",
          "name": "",
          "type": "bool"
        }
      ],
      "stateMutability": "pure",
      "type": "function"
    },
    {
      "inputs": [
        {
          "internalType": "bytes",
          "name": "a",
          "type": "bytes"
        },
        {
          "internalType": "bytes",
          "name": "b",
          "type": "bytes"
        }
      ],
      "name": "equal",
      "outputs": [
        {
          "components": [
            {
              "internalType": "bool",
              "name": "passed",
              "type": "bool"
            },
            {
              "internalType": "string",
              "name": "assertionError",
              "type": "string"
            },
            {
              "internalType": "string",
              "name": "returnedAsString",
              "type": "string"
            },
            {
              "internalType": "string",
              "name": "expectedAsString",
              "type": "string"
            },
            {
              "internalType": "string",
              "name": "methodName",
              "type": "string"
            }
          ],
          "internalType": "struct Assert.AssertResult",
          "name": "result",
          "type": "tuple"
        }
      ],
      "stateMutability": "pure",
      "type": "function"
    },
    {
      "inputs": [
        {
          "internalType": "uint256",
          "name": "a",
          "type": "uint256"
        },
        {
          "internalType": "uint256",
          "name": "b",
          "type": "uint256"
        }
      ],
      "name": "equal",
      "outputs": [
        {
          "components": [
            {
              "internalType": "bool",
              "name": "passed",
              "type": "bool"
            },
            {
              "internalType": "string",
              "name": "assertionError",
              "type": "string"
            },
            {
              "internalType": "string",
              "name": "returnedAsString",
              "type": "string"
            },
            {
              "internalType": "string",
              "name": "expectedAsString",
              "type": "string"
            },
            {
              "internalType": "string",
              "name": "methodName",
              "type": "string"
            }
          ],
          "internalType": "struct Assert.AssertResult",
          "name": "result",
          "type": "tuple"
        }
      ],
      "stateMutability": "pure",
      "type": "function"
    },
    {
      "inputs": [
        {
          "internalType": "address",
          "name": "a",
          "type": "address"
        },
        {
          "internalType": "address",
          "name": "b",
          "type": "address"
        }
      ],
      "name": "equal",
      "outputs": [
        {
          "components": [
            {
              "internalType": "bool",
              "name": "passed",
              "type": "bool"
            },
            {
              "internalType": "string",
              "name": "assertionError",
              "type": "string"
            },
            {
              "internalType": "string",
              "name": "returnedAsString",
              "type": "string"
            },
            {
              "internalType": "string",
              "name": "expectedAsString",
              "type": "string"
            },
            {
              "internalType": "string",
              "name": "methodName",
              "type": "string"
            }
          ],
          "internalType": "struct Assert.AssertResult",
          "name": "result",
          "type": "tuple"
        }
      ],
      "stateMutability": "pure",
      "type": "function"
    },
    {
      "inputs": [
        {
          "internalType": "string",
          "name": "a",
          "type": "string"
        },
        {
          "internalType": "string",
          "name": "b",
          "type": "string"
        }
      ],
      "name": "equal",
      "outputs": [
        {
          "components": [
            {
              "internalType": "bool",
              "name": "passed",
              "type": "bool"
            },
            {
              "internalType": "string",
              "name": "assertionError",
              "type": "string"
            },
            {
              "internalType": "string",
              "name": "returnedAsString",
              "type": "string"
            },
            {
              "internalType": "string",
              "name": "expectedAsString",
              "type": "string"
            },
            {
              "internalType": "string",
              "name": "methodName",
              "type": "string"
            }
          ],
          "internalType": "struct Assert.AssertResult",
          "name": "result",
          "type": "tuple"
        }
      ],
      "stateMutability": "pure",
      "type": "function"
    },
    {
      "inputs": [
        {
          "internalType": "string[]",
          "name": "a",
          "type": "string[]"
        },
        {
          "internalType": "string[]",
          "name": "b",
          "type": "string[]"
        }
      ],
      "name": "equal",
      "outputs": [
        {
          "components": [
            {
              "internalType": "bool",
              "name": "passed",
              "type": "bool"
            },
            {
              "internalType": "string",
              "name": "assertionError",
              "type": "string"
            },
            {
              "internalType": "string",
              "name": "returnedAsString",
              "type": "string"
            },
            {
              "internalType": "string",
              "name": "expectedAsString",
              "type": "string"
            },
            {
              "internalType": "string",
              "name": "methodName",
              "type": "string"
            }
          ],
          "internalType": "struct Assert.AssertResult",
          "name": "result",
          "type": "tuple"
        }
      ],
      "stateMutability": "pure",
      "type": "function"
    },
    {
      "inputs": [
        {
          "internalType": "address[]",
          "name": "a",
          "type": "address[]"
        },
        {
          "internalType": "address[]",
          "name": "b",
          "type": "address[]"
        }
      ],
      "name": "equal",
      "outputs": [
        {
          "components": [
            {
              "internalType": "bool",
              "name": "passed",
              "type": "bool"
            },
            {
              "internalType": "string",
              "name": "assertionError",
              "type": "string"
            },
            {
              "internalType": "string",
              "name": "returnedAsString",
              "type": "string"
            },
            {
              "internalType": "string",
              "name": "expectedAsString",
              "type": "string"
            },
            {
              "internalType": "string",
              "name": "methodName",
              "type": "string"
            }
          ],
          "internalType": "struct Assert.AssertResult",
          "name": "result",
          "type": "tuple"
        }
      ],
      "stateMutability": "pure",
      "type": "function"
    },
    {
      "inputs": [
        {
          "internalType": "uint256[]",
          "name": "a",
          "type": "uint256[]"
        },
        {
          "internalType": "uint256[]",
          "name": "b",
          "type": "uint256[]"
        }
      ],
      "name": "equal",
      "outputs": [
        {
          "components": [
            {
              "internalType": "bool",
              "name": "passed",
              "type": "bool"
            },
            {
              "internalType": "string",
              "name": "assertionError",
              "type": "string"
            },
            {
              "internalType": "string",
              "name": "returnedAsString",
              "type": "string"
            },
            {
              "internalType": "string",
              "name": "expectedAsString",
              "type": "string"
            },
            {
              "internalType": "string",
              "name": "methodName",
              "type": "string"
            }
          ],
          "internalType": "struct Assert.AssertResult",
          "name": "result",
          "type": "tuple"
        }
      ],
      "stateMutability": "pure",
      "type": "function"
    },
    {
      "inputs": [
        {
          "internalType": "uint256",
          "name": "tokenId",
          "type": "uint256"
        }
      ],
      "name": "getApproved",
      "outputs": [
        {
          "internalType": "address",
          "name": "",
          "type": "address"
        }
      ],
      "stateMutability": "view",
      "type": "function"
    },
    {
      "inputs": [
        {
          "internalType": "address",
          "name": "owner",
          "type": "address"
        },
        {
          "internalType": "address",
          "name": "operator",
          "type": "address"
        }
      ],
      "name": "isApprovedForAll",
      "outputs": [
        {
          "internalType": "bool",
          "name": "",
          "type": "bool"
        }
      ],
      "stateMutability": "view",
      "type": "function"
    },
    {
      "inputs": [
        {
          "internalType": "bool",
          "name": "a",
          "type": "bool"
        }
      ],
      "name": "isFalse",
      "outputs": [
        {
          "components": [
            {
              "internalType": "bool",
              "name": "passed",
              "type": "bool"
            },
            {
              "internalType": "string",
              "name": "assertionError",
              "type": "string"
            },
            {
              "internalType": "string",
              "name": "returnedAsString",
              "type": "string"
            },
            {
              "internalType": "string",
              "name": "expectedAsString",
              "type": "string"
            },
            {
              "internalType": "string",
              "name": "methodName",
              "type": "string"
            }
          ],
          "internalType": "struct Assert.AssertResult",
          "name": "result",
          "type": "tuple"
        }
      ],
      "stateMutability": "pure",
      "type": "function"
    },
    {
      "inputs": [
        {
          "internalType": "bool",
          "name": "a",
          "type": "bool"
        }
      ],
      "name": "isTrue",
      "outputs": [
        {
          "components": [
            {
              "internalType": "bool",
              "name": "passed",
              "type": "bool"
            },
            {
              "internalType": "string",
              "name": "assertionError",
              "type": "string"
            },
            {
              "internalType": "string",
              "name": "returnedAsString",
              "type": "string"
            },
            {
              "internalType": "string",
              "name": "expectedAsString",
              "type": "string"
            },
            {
              "internalType": "string",
              "name": "methodName",
              "type": "string"
            }
          ],
          "internalType": "struct Assert.AssertResult",
          "name": "result",
          "type": "tuple"
        }
      ],
      "stateMutability": "pure",
      "type": "function"
    },
    {
      "inputs": [],
      "name": "name",
      "outputs": [
        {
          "internalType": "string",
          "name": "",
          "type": "string"
        }
      ],
      "stateMutability": "view",
      "type": "function"
    },
    {
      "inputs": [
        {
          "internalType": "address",
          "name": "a",
          "type": "address"
        },
        {
          "internalType": "address",
          "name": "b",
          "type": "address"
        }
      ],
      "name": "notEqual",
      "outputs": [
        {
          "components": [
            {
              "internalType": "bool",
              "name": "passed",
              "type": "bool"
            },
            {
              "internalType": "string",
              "name": "assertionError",
              "type": "string"
            },
            {
              "internalType": "string",
              "name": "returnedAsString",
              "type": "string"
            },
            {
              "internalType": "string",
              "name": "expectedAsString",
              "type": "string"
            },
            {
              "internalType": "string",
              "name": "methodName",
              "type": "string"
            }
          ],
          "internalType": "struct Assert.AssertResult",
          "name": "result",
          "type": "tuple"
        }
      ],
      "stateMutability": "pure",
      "type": "function"
    },
    {
      "inputs": [],
      "name": "owner",
      "outputs": [
        {
          "internalType": "address",
          "name": "",
          "type": "address"
        }
      ],
      "stateMutability": "view",
      "type": "function"
    },
    {
      "inputs": [
        {
          "internalType": "uint256",
          "name": "tokenId",
          "type": "uint256"
        }
      ],
      "name": "ownerOf",
      "outputs": [
        {
          "internalType": "address",
          "name": "",
          "type": "address"
        }
      ],
      "stateMutability": "view",
      "type": "function"
    },
    {
      "inputs": [
        {
          "internalType": "address",
          "name": "",
          "type": "address"
        }
      ],
      "name": "owners",
      "outputs": [
        {
          "internalType": "bool",
          "name": "",
          "type": "bool"
        }
      ],
      "stateMutability": "view",
      "type": "function"
    },
    {
      "inputs": [],
      "name": "renounceOwnership",
      "outputs": [],
      "stateMutability": "nonpayable",
      "type": "function"
    },
    {
      "inputs": [
        {
          "internalType": "address",
          "name": "from",
          "type": "address"
        },
        {
          "internalType": "address",
          "name": "to",
          "type": "address"
        },
        {
          "internalType": "uint256",
          "name": "tokenId",
          "type": "uint256"
        }
      ],
      "name": "safeTransferFrom",
      "outputs": [],
      "stateMutability": "nonpayable",
      "type": "function"
    },
    {
      "inputs": [
        {
          "internalType": "address",
          "name": "from",
          "type": "address"
        },
        {
          "internalType": "address",
          "name": "to",
          "type": "address"
        },
        {
          "internalType": "uint256",
          "name": "tokenId",
          "type": "uint256"
        },
        {
          "internalType": "bytes",
          "name": "data",
          "type": "bytes"
        }
      ],
      "name": "safeTransferFrom",
      "outputs": [],
      "stateMutability": "nonpayable",
      "type": "function"
    },
    {
      "inputs": [
        {
          "internalType": "bool",
          "name": "_setActiveTo",
          "type": "bool"
        }
      ],
      "name": "setActive",
      "outputs": [],
      "stateMutability": "nonpayable",
      "type": "function"
    },
    {
      "inputs": [
        {
          "internalType": "address",
          "name": "operator",
          "type": "address"
        },
        {
          "internalType": "bool",
          "name": "approved",
          "type": "bool"
        }
      ],
      "name": "setApprovalForAll",
      "outputs": [],
      "stateMutability": "nonpayable",
      "type": "function"
    },
    {
      "inputs": [
        {
          "internalType": "string",
          "name": "_tokenURI",
          "type": "string"
        }
      ],
      "name": "setTokenURI",
      "outputs": [],
      "stateMutability": "nonpayable",
      "type": "function"
    },
    {
      "inputs": [
        {
          "internalType": "bytes4",
          "name": "interfaceId",
          "type": "bytes4"
        }
      ],
      "name": "supportsInterface",
      "outputs": [
        {
          "internalType": "bool",
          "name": "",
          "type": "bool"
        }
      ],
      "stateMutability": "view",
      "type": "function"
    },
    {
      "inputs": [],
      "name": "symbol",
      "outputs": [
        {
          "internalType": "string",
          "name": "",
          "type": "string"
        }
      ],
      "stateMutability": "view",
      "type": "function"
    },
    {
      "inputs": [
        {
          "internalType": "address",
          "name": "_submissionAddress",
          "type": "address"
        }
      ],
      "name": "testContract",
      "outputs": [],
      "stateMutability": "nonpayable",
      "type": "function"
    },
    {
      "inputs": [
        {
          "internalType": "uint256",
          "name": "",
          "type": "uint256"
        }
      ],
      "name": "tokenURI",
      "outputs": [
        {
          "internalType": "string",
          "name": "",
          "type": "string"
        }
      ],
      "stateMutability": "view",
      "type": "function"
    },
    {
      "inputs": [
        {
          "internalType": "address",
          "name": "from",
          "type": "address"
        },
        {
          "internalType": "address",
          "name": "to",
          "type": "address"
        },
        {
          "internalType": "uint256",
          "name": "tokenId",
          "type": "uint256"
        }
      ],
      "name": "transferFrom",
      "outputs": [],
      "stateMutability": "nonpayable",
      "type": "function"
    },
    {
      "inputs": [
        {
          "internalType": "address",
          "name": "newOwner",
          "type": "address"
        }
      ],
      "name": "transferOwnership",
      "outputs": [],
      "stateMutability": "nonpayable",
      "type": "function"
    }
  ],
  "transactionHash": "0x9e62806448f9e9899a0f96505e6ba428e4e28776b8704f19d10bd99f7d150418",
  "args": [],
  "numDeployments": 3,
  "solcInputHash": "b235f0f1e956a11682daf3be067fe23b",
  "bytecode": "0x600b805460ff1916600117905560a060405260006080908152600c9062000027908262000454565b503480156200003557600080fd5b506040518060400160405280600b81526020016a496e6865726974616e636560a81b815250604051806040016040528060048152602001635343444960e01b815250816000908162000088919062000454565b50600162000097828262000454565b505050620000b4620000ae6200030560201b60201c565b62000309565b6001600755604051600d90620000ca906200035b565b604051809103906000f080158015620000e7573d6000803e3d6000fd5b5081546001810183556000928352602090922090910180546001600160a01b0319166001600160a01b03909216919091179055604051600d906200012b9062000369565b604051809103906000f08015801562000148573d6000803e3d6000fd5b5081546001810183556000928352602090922090910180546001600160a01b0319166001600160a01b03909216919091179055604051600d906200018c9062000377565b604051809103906000f080158015620001a9573d6000803e3d6000fd5b5081546001810183556000928352602090922090910180546001600160a01b0319166001600160a01b03909216919091179055604051600d90620001ed9062000385565b604051809103906000f0801580156200020a573d6000803e3d6000fd5b5081546001810183556000928352602090922090910180546001600160a01b0319166001600160a01b03909216919091179055604051600d906200024e9062000393565b604051809103906000f0801580156200026b573d6000803e3d6000fd5b5081546001810183556000928352602090922090910180546001600160a01b0319166001600160a01b03909216919091179055604051600d90620002af90620003a1565b604051809103906000f080158015620002cc573d6000803e3d6000fd5b5081546001810183556000928352602090922090910180546001600160a01b0319166001600160a01b0390921691909117905562000520565b3390565b600680546001600160a01b038381166001600160a01b0319831681179093556040519116919082907f8be0079c531659141344cd1fd0a4f28419497f9722a3daafe3b4186f6b6457e090600090a35050565b611e6e8062003ed883390190565b611d868062005d4683390190565b611d878062007acc83390190565b611d92806200985383390190565b611d8d806200b5e583390190565b611d8e806200d37283390190565b634e487b7160e01b600052604160045260246000fd5b600181811c90821680620003da57607f821691505b602082108103620003fb57634e487b7160e01b600052602260045260246000fd5b50919050565b601f8211156200044f57600081815260208120601f850160051c810160208610156200042a5750805b601f850160051c820191505b818110156200044b5782815560010162000436565b5050505b505050565b81516001600160401b03811115620004705762000470620003af565b6200048881620004818454620003c5565b8462000401565b602080601f831160018114620004c05760008415620004a75750858301515b600019600386901b1c1916600185901b1785556200044b565b600085815260208120601f198616915b82811015620004f157888601518255948401946001909101908401620004d0565b5085821015620005105787850151600019600388901b60f8161c191681555b5050505050600190811b01905550565b6139a880620005306000396000f3fe608060405234801561001057600080fd5b50600436106101e55760003560e01c80636df864781161010f578063b88d4fde116100a2578063e7da4c7e11610071578063e7da4c7e1461041c578063e985e9c51461042f578063f2fde38b1461046b578063fa084b9b1461047e57600080fd5b8063b88d4fde146103d0578063c87b56dd146103e3578063d70968e7146103f6578063e0df5b6f1461040957600080fd5b80638da5cb5b116100de5780638da5cb5b1461039157806395d89b41146103a2578063a22cb465146103aa578063acec338a146103bd57600080fd5b80636df864781461034257806370a0823114610355578063715018a61461037657806374f130701461037e57600080fd5b806323b872dd1161018757806342842e0e1161015657806342842e0e1461030957806346bdca9a1461029d57806360fb55d51461031c5780636352211e1461032f57600080fd5b806323b872dd146102bd57806330191626146102d057806331495d33146102e3578063410dbb8b146102f657600080fd5b806306fdde03116101c357806306fdde031461024a578063081812fc1461025f578063095ea7b31461028a578063235266d21461029d57600080fd5b806301ffc9a7146101ea578063022914a71461021257806306d82f2914610235575b600080fd5b6101fd6101f83660046126ad565b610491565b60405190151581526020015b60405180910390f35b6101fd6102203660046126df565b60096020526000908152604090205460ff1681565b6102486102433660046126df565b61052e565b005b6102526107f1565b604051610209919061274c565b61027261026d36600461275f565b610883565b6040516001600160a01b039091168152602001610209565b610248610298366004612778565b6108aa565b6102b06102ab3660046128b5565b6109fe565b6040516102099190612990565b6102486102cb3660046129a3565b610aad565b6102b06102de3660046129e4565b610b24565b6102b06102f1366004612a06565b610bde565b6102b0610304366004612a5d565b610caf565b6102486103173660046129a3565b610daf565b6102b061032a366004612b29565b610dca565b61027261033d36600461275f565b610ea6565b6102b0610350366004612be7565b610f0b565b6103686103633660046126df565b610fe7565b604051908152602001610209565b610248611081565b6102b061038c366004612a5d565b611095565b6006546001600160a01b0316610272565b610252611196565b6102486103b8366004612c41565b6111a5565b6102486103cb366004612a5d565b6111b4565b6102486103de366004612c6f565b6111cf565b6102526103f136600461275f565b611247565b6102b0610404366004612a06565b6112db565b610248610417366004612cdb565b6113a2565b6102b061042a366004612d6b565b6113b6565b6101fd61043d366004612a06565b6001600160a01b03918216600090815260056020908152604080832093909416825291909152205460ff1690565b6102486104793660046126df565b611492565b6101fd61048c366004612dc5565b611522565b60006001600160e01b031982167f80ac58cd0000000000000000000000000000000000000000000000000000000014806104f457506001600160e01b031982167f5b5e139f00000000000000000000000000000000000000000000000000000000145b8061052857507f01ffc9a7000000000000000000000000000000000000000000000000000000006001600160e01b03198316145b92915050565b600b5460ff1661056a576040517f80cb55e200000000000000000000000000000000000000000000000000000000815260040160405180910390fd5b600e5460609060009083906001600160a01b0316156106a657600d54610591906001613102565b67ffffffffffffffff8111156105a9576105a96127a4565b6040519080825280602002602001820160405280156105e257816020015b6105cf612663565b8152602001906001900390816105c75790505b509250816105ef81613115565b600e546040517f4c96a3890000000000000000000000000000000000000000000000000000000081526001600160a01b03888116600483015292955091169150634c96a389906024016000604051808303816000875af1158015610657573d6000803e3d6000fd5b505050506040513d6000823e601f3d908101601f1916820160405261067f9190810190613345565b846000815181106106925761069261338c565b6020026020010181935082905250506106fe565b600d5467ffffffffffffffff8111156106c1576106c16127a4565b6040519080825280602002602001820160405280156106fa57816020015b6106e7612663565b8152602001906001900390816106df5790505b5092505b600d548210156107e157600d828154811061071b5761071b61338c565b6000918252602090912001546040517f4b64e4920000000000000000000000000000000000000000000000000000000081526001600160a01b03838116600483015290911690634b64e492906024016000604051808303816000875af1158015610789573d6000803e3d6000fd5b505050506040513d6000823e601f3d908101601f191682016040526107b191908101906133a2565b8383815181106107c3576107c361338c565b602002602001018190525081806107d990613115565b9250506106fe565b6107eb84846115d6565b50505050565b606060008054610800906133d7565b80601f016020809104026020016040519081016040528092919081815260200182805461082c906133d7565b80156108795780601f1061084e57610100808354040283529160200191610879565b820191906000526020600020905b81548152906001019060200180831161085c57829003601f168201915b5050505050905090565b600061088e826116dd565b506000908152600460205260409020546001600160a01b031690565b60006108b582610ea6565b9050806001600160a01b0316836001600160a01b0316036109435760405162461bcd60e51b815260206004820152602160248201527f4552433732313a20617070726f76616c20746f2063757272656e74206f776e6560448201527f720000000000000000000000000000000000000000000000000000000000000060648201526084015b60405180910390fd5b336001600160a01b038216148061097d57506001600160a01b038116600090815260056020908152604080832033845290915290205460ff165b6109ef5760405162461bcd60e51b815260206004820152603d60248201527f4552433732313a20617070726f76652063616c6c6572206973206e6f7420746f60448201527f6b656e206f776e6572206f7220617070726f76656420666f7220616c6c000000606482015260840161093a565b6109f98383611741565b505050565b610a326040518060a00160405280600015158152602001606081526020016060815260200160608152602001606081525090565b815160208084019190912084519185019190912014808252610a77578282604051602001610a61929190613411565b60408051601f1981840301815291905260208201525b604080820193909352606081019190915281518083019092526005825264195c5d585b60da1b6020830152608081019190915290565b610ab733826117bc565b610b195760405162461bcd60e51b815260206004820152602d60248201527f4552433732313a2063616c6c6572206973206e6f7420746f6b656e206f776e6560448201526c1c881bdc88185c1c1c9bdd9959609a1b606482015260840161093a565b6109f983838361183b565b610b586040518060a00160405280600015158152602001606081526020016060815260200160608152602001606081525090565b828214808252610b9b57610b6b83611a4e565b610b7483611a4e565b604051602001610b85929190613411565b60408051601f1981840301815291905260208201525b610ba483611a4e565b6040820152610bb282611a4e565b6060820152604080518082019091526005815264195c5d585b60da1b6020820152608082015292915050565b610c126040518060a00160405280600015158152602001606081526020016060815260200160608152602001606081525090565b6001600160a01b0383811690831681148252600090610c32906014611aee565b90506000610c4a846001600160a01b03166014611aee565b8351909150610c7c578181604051602001610c66929190613411565b60408051601f1981840301815291905260208401525b604080840192909252606083015280518082019091526005815264195c5d585b60da1b6020820152608082015292915050565b610ce36040518060a00160405280600015158152602001606081526020016060815260200160608152602001606081525090565b8115808252610d0b5760405180606001604052806023815260200161392e6023913960208201525b600182151514610d38576040518060400160405280600581526020016466616c736560d81b815250610d56565b604051806040016040528060048152602001637472756560e01b8152505b6040808301919091528051602080820183526000825260608401919091528151808301909252600782527f697346616c736500000000000000000000000000000000000000000000000000908201526080820152919050565b6109f9838383604051806020016040528060008152506111cf565b610dfe6040518060a00160405280600015158152602001606081526020016060815260200160608152602001606081525090565b81604051602001610e0f9190613492565b6040516020818303038152906040528051906020012083604051602001610e369190613492565b60408051601f19818403018152919052805160209091012014808252610e8f57610e5f83611cd6565b610e6883611cd6565b604051602001610e79929190613411565b60408051601f1981840301815291905260208201525b610e9883611cd6565b6040820152610bb282611cd6565b6000818152600260205260408120546001600160a01b0316806105285760405162461bcd60e51b815260206004820152601860248201527f4552433732313a20696e76616c696420746f6b656e2049440000000000000000604482015260640161093a565b610f3f6040518060a00160405280600015158152602001606081526020016060815260200160608152602001606081525090565b81604051602001610f5091906134f4565b6040516020818303038152906040528051906020012083604051602001610f7791906134f4565b60408051601f19818403018152919052805160209091012014808252610fd057610fa083611dab565b610fa983611dab565b604051602001610fba929190613411565b60408051601f1981840301815291905260208201525b610fd983611dab565b6040820152610bb282611dab565b60006001600160a01b0382166110655760405162461bcd60e51b815260206004820152602960248201527f4552433732313a2061646472657373207a65726f206973206e6f74206120766160448201527f6c6964206f776e65720000000000000000000000000000000000000000000000606482015260840161093a565b506001600160a01b031660009081526003602052604090205490565b611089611e87565b6110936000611ee1565b565b6110c96040518060a00160405280600015158152602001606081526020016060815260200160608152602001606081525090565b8115158082526110f2576040518060600160405280602281526020016139516022913960208201525b60018215151461111f576040518060400160405280600581526020016466616c736560d81b81525061113d565b604051806040016040528060048152602001637472756560e01b8152505b6040808301919091528051602080820183526000825260608401919091528151808301909252600682527f6973547275650000000000000000000000000000000000000000000000000000908201526080820152919050565b606060018054610800906133d7565b6111b0338383611f40565b5050565b6111bc611e87565b600b805460ff1916911515919091179055565b6111d933836117bc565b61123b5760405162461bcd60e51b815260206004820152602d60248201527f4552433732313a2063616c6c6572206973206e6f7420746f6b656e206f776e6560448201526c1c881bdc88185c1c1c9bdd9959609a1b606482015260840161093a565b6107eb8484848461200e565b6060600c8054611256906133d7565b80601f0160208091040260200160405190810160405280929190818152602001828054611282906133d7565b80156112cf5780601f106112a4576101008083540402835291602001916112cf565b820191906000526020600020905b8154815290600101906020018083116112b257829003601f168201915b50505050509050919050565b61130f6040518060a00160405280600015158152602001606081526020016060815260200160608152602001606081525090565b6001600160a01b038381169083168114158252600090611330906014611aee565b8251909150611360578060405160200161134a9190613541565b60408051601f1981840301815291905260208301525b60408083019190915280516020808201835260008252606084019190915281518083019092526005825264195c5d585b60da1b90820152608082015292915050565b6113aa611e87565b600c6111b082826135fa565b6113ea6040518060a00160405280600015158152602001606081526020016060815260200160608152602001606081525090565b816040516020016113fb91906136ba565b604051602081830303815290604052805190602001208360405160200161142291906136ba565b60408051601f1981840301815291905280516020909101201480825261147b5761144b8361208c565b6114548361208c565b604051602001611465929190613411565b60408051601f1981840301815291905260208201525b6114848361208c565b6040820152610bb28261208c565b61149a611e87565b6001600160a01b0381166115165760405162461bcd60e51b815260206004820152602660248201527f4f776e61626c653a206e6577206f776e657220697320746865207a65726f206160448201527f6464726573730000000000000000000000000000000000000000000000000000606482015260840161093a565b61151f81611ee1565b50565b6000805b82518110156115cd5760005b8382815181106115445761154461338c565b602002602001015160200151602001518110156115ba5783828151811061156d5761156d61338c565b60200260200101516020015160000151818151811061158e5761158e61338c565b6020026020010151600001516115a8575060009392505050565b806115b281613115565b915050611532565b50806115c581613115565b915050611526565b50600192915050565b6115de61215d565b60006115e982611522565b90507f53d51c5f8eaf1bdbf1288871cbf97a9295da23a9868b15b526b4256ede348db983828460405161161e939291906136f2565b60405180910390a16001600160a01b0383166000908152600a602052604090205460ff1615801561165f57503360009081526009602052604090205460ff16155b80156116685750805b156116af5761167b600880546001019055565b600061168660085490565b336000818152600960205260409020805460ff191660011790559091506116ad90826121b6565b505b506001600160a01b0382166000908152600a60205260409020805460ff191660011790556111b06001600755565b6000818152600260205260409020546001600160a01b031661151f5760405162461bcd60e51b815260206004820152601860248201527f4552433732313a20696e76616c696420746f6b656e2049440000000000000000604482015260640161093a565b6000818152600460205260409020805473ffffffffffffffffffffffffffffffffffffffff19166001600160a01b038416908117909155819061178382610ea6565b6001600160a01b03167f8c5be1e5ebec7d5bd14f71427d1e84f3dd0314c0f7b2291e5b200ac8c7c3b92560405160405180910390a45050565b6000806117c883610ea6565b9050806001600160a01b0316846001600160a01b0316148061180f57506001600160a01b0380821660009081526005602090815260408083209388168352929052205460ff165b806118335750836001600160a01b031661182884610883565b6001600160a01b0316145b949350505050565b826001600160a01b031661184e82610ea6565b6001600160a01b0316146118b25760405162461bcd60e51b815260206004820152602560248201527f4552433732313a207472616e736665722066726f6d20696e636f72726563742060448201526437bbb732b960d91b606482015260840161093a565b6001600160a01b03821661192d5760405162461bcd60e51b8152602060048201526024808201527f4552433732313a207472616e7366657220746f20746865207a65726f2061646460448201527f7265737300000000000000000000000000000000000000000000000000000000606482015260840161093a565b61193a83838360016121d0565b826001600160a01b031661194d82610ea6565b6001600160a01b0316146119b15760405162461bcd60e51b815260206004820152602560248201527f4552433732313a207472616e736665722066726f6d20696e636f72726563742060448201526437bbb732b960d91b606482015260840161093a565b6000818152600460209081526040808320805473ffffffffffffffffffffffffffffffffffffffff199081169091556001600160a01b0387811680865260038552838620805460001901905590871680865283862080546001019055868652600290945282852080549092168417909155905184937fddf252ad1be2c89b69c2b068fc378daa952ba7f163c4a11628f55a4df523b3ef91a4505050565b60606000611a5b83612211565b600101905060008167ffffffffffffffff811115611a7b57611a7b6127a4565b6040519080825280601f01601f191660200182016040528015611aa5576020820181803683370190505b5090508181016020015b600019017f3031323334353637383961626364656600000000000000000000000000000000600a86061a8153600a8504945084611aaf57509392505050565b60606000611afd8360026137e5565b611b08906002613102565b67ffffffffffffffff811115611b2057611b206127a4565b6040519080825280601f01601f191660200182016040528015611b4a576020820181803683370190505b5090507f300000000000000000000000000000000000000000000000000000000000000081600081518110611b8157611b8161338c565b60200101906001600160f81b031916908160001a9053507f780000000000000000000000000000000000000000000000000000000000000081600181518110611bcc57611bcc61338c565b60200101906001600160f81b031916908160001a9053506000611bf08460026137e5565b611bfb906001613102565b90505b6001811115611c80577f303132333435363738396162636465660000000000000000000000000000000085600f1660108110611c3c57611c3c61338c565b1a60f81b828281518110611c5257611c5261338c565b60200101906001600160f81b031916908160001a90535060049490941c93611c79816137fc565b9050611bfe565b508315611ccf5760405162461bcd60e51b815260206004820181905260248201527f537472696e67733a20686578206c656e67746820696e73756666696369656e74604482015260640161093a565b9392505050565b6040805180820190915260018152605b60f81b602082015260609060005b8351811015611da45760018451611d0b9190613813565b811015611d545781848281518110611d2557611d2561338c565b6020026020010151604051602001611d3e929190613826565b6040516020818303038152906040529150611d92565b81848281518110611d6757611d6761338c565b6020026020010151604051602001611d8092919061387d565b60405160208183030381529060405291505b80611d9c81613115565b915050611cf4565b5092915050565b6040805180820190915260018152605b60f81b602082015260609060005b8351811015611da45760018451611de09190613813565b811015611e3c5781611e15858381518110611dfd57611dfd61338c565b60200260200101516001600160a01b03166014611aee565b604051602001611e26929190613826565b6040516020818303038152906040529150611e75565b81611e52858381518110611dfd57611dfd61338c565b604051602001611e6392919061387d565b60405160208183030381529060405291505b80611e7f81613115565b915050611dc9565b6006546001600160a01b031633146110935760405162461bcd60e51b815260206004820181905260248201527f4f776e61626c653a2063616c6c6572206973206e6f7420746865206f776e6572604482015260640161093a565b600680546001600160a01b0383811673ffffffffffffffffffffffffffffffffffffffff19831681179093556040519116919082907f8be0079c531659141344cd1fd0a4f28419497f9722a3daafe3b4186f6b6457e090600090a35050565b816001600160a01b0316836001600160a01b031603611fa15760405162461bcd60e51b815260206004820152601960248201527f4552433732313a20617070726f766520746f2063616c6c657200000000000000604482015260640161093a565b6001600160a01b03838116600081815260056020908152604080832094871680845294825291829020805460ff191686151590811790915591519182527f17307eab39ab6107e8899845ad3d59bd9653f200f220920489ca2b5937696c31910160405180910390a3505050565b61201984848461183b565b612025848484846122f3565b6107eb5760405162461bcd60e51b815260206004820152603260248201527f4552433732313a207472616e7366657220746f206e6f6e20455243373231526560448201527131b2b4bb32b91034b6b83632b6b2b73a32b960711b606482015260840161093a565b6040805180820190915260018152605b60f81b602082015260609060005b8351811015611da457600184516120c19190613813565b81101561211257816120eb8583815181106120de576120de61338c565b6020026020010151611a4e565b6040516020016120fc929190613826565b604051602081830303815290604052915061214b565b816121288583815181106120de576120de61338c565b60405160200161213992919061387d565b60405160208183030381529060405291505b8061215581613115565b9150506120aa565b6002600754036121af5760405162461bcd60e51b815260206004820152601f60248201527f5265656e7472616e637947756172643a207265656e7472616e742063616c6c00604482015260640161093a565b6002600755565b6111b082826040518060200160405280600081525061243f565b6001600160a01b038416156107eb576040517f6e10574900000000000000000000000000000000000000000000000000000000815260040160405180910390fd5b6000807a184f03e93ff9f4daa797ed6e38ed64bf6a1f010000000000000000831061225a577a184f03e93ff9f4daa797ed6e38ed64bf6a1f010000000000000000830492506040015b6d04ee2d6d415b85acef81000000008310612286576d04ee2d6d415b85acef8100000000830492506020015b662386f26fc1000083106122a457662386f26fc10000830492506010015b6305f5e10083106122bc576305f5e100830492506008015b61271083106122d057612710830492506004015b606483106122e2576064830492506002015b600a83106105285760010192915050565b60006001600160a01b0384163b1561243457604051630a85bd0160e11b81526001600160a01b0385169063150b7a02906123379033908990889088906004016138d4565b6020604051808303816000875af1925050508015612372575060408051601f3d908101601f1916820190925261236f91810190613910565b60015b61241a573d8080156123a0576040519150601f19603f3d011682016040523d82523d6000602084013e6123a5565b606091505b5080516000036124125760405162461bcd60e51b815260206004820152603260248201527f4552433732313a207472616e7366657220746f206e6f6e20455243373231526560448201527131b2b4bb32b91034b6b83632b6b2b73a32b960711b606482015260840161093a565b805181602001fd5b6001600160e01b031916630a85bd0160e11b149050611833565b506001949350505050565b61244983836124bd565b61245660008484846122f3565b6109f95760405162461bcd60e51b815260206004820152603260248201527f4552433732313a207472616e7366657220746f206e6f6e20455243373231526560448201527131b2b4bb32b91034b6b83632b6b2b73a32b960711b606482015260840161093a565b6001600160a01b0382166125135760405162461bcd60e51b815260206004820181905260248201527f4552433732313a206d696e7420746f20746865207a65726f2061646472657373604482015260640161093a565b6000818152600260205260409020546001600160a01b0316156125785760405162461bcd60e51b815260206004820152601c60248201527f4552433732313a20746f6b656e20616c7265616479206d696e74656400000000604482015260640161093a565b6125866000838360016121d0565b6000818152600260205260409020546001600160a01b0316156125eb5760405162461bcd60e51b815260206004820152601c60248201527f4552433732313a20746f6b656e20616c7265616479206d696e74656400000000604482015260640161093a565b6001600160a01b0382166000818152600360209081526040808320805460010190558483526002909152808220805473ffffffffffffffffffffffffffffffffffffffff19168417905551839291907fddf252ad1be2c89b69c2b068fc378daa952ba7f163c4a11628f55a4df523b3ef908290a45050565b604051806040016040528060608152602001612692604051806040016040528060608152602001600081525090565b905290565b6001600160e01b03198116811461151f57600080fd5b6000602082840312156126bf57600080fd5b8135611ccf81612697565b6001600160a01b038116811461151f57600080fd5b6000602082840312156126f157600080fd5b8135611ccf816126ca565b60005b838110156127175781810151838201526020016126ff565b50506000910152565b600081518084526127388160208601602086016126fc565b601f01601f19169290920160200192915050565b602081526000611ccf6020830184612720565b60006020828403121561277157600080fd5b5035919050565b6000806040838503121561278b57600080fd5b8235612796816126ca565b946020939093013593505050565b634e487b7160e01b600052604160045260246000fd5b6040805190810167ffffffffffffffff811182821017156127dd576127dd6127a4565b60405290565b60405160a0810167ffffffffffffffff811182821017156127dd576127dd6127a4565b604051601f8201601f1916810167ffffffffffffffff8111828210171561282f5761282f6127a4565b604052919050565b600067ffffffffffffffff821115612851576128516127a4565b50601f01601f191660200190565b600082601f83011261287057600080fd5b813561288361287e82612837565b612806565b81815284602083860101111561289857600080fd5b816020850160208301376000918101602001919091529392505050565b600080604083850312156128c857600080fd5b823567ffffffffffffffff808211156128e057600080fd5b6128ec8683870161285f565b9350602085013591508082111561290257600080fd5b5061290f8582860161285f565b9150509250929050565b8051151582526000602082015160a0602085015261293a60a0850182612720565b9050604083015184820360408601526129538282612720565b9150506060830151848203606086015261296d8282612720565b915050608083015184820360808601526129878282612720565b95945050505050565b602081526000611ccf6020830184612919565b6000806000606084860312156129b857600080fd5b83356129c3816126ca565b925060208401356129d3816126ca565b929592945050506040919091013590565b600080604083850312156129f757600080fd5b50508035926020909101359150565b60008060408385031215612a1957600080fd5b8235612a24816126ca565b91506020830135612a34816126ca565b809150509250929050565b801515811461151f57600080fd5b8035612a5881612a3f565b919050565b600060208284031215612a6f57600080fd5b8135611ccf81612a3f565b600067ffffffffffffffff821115612a9457612a946127a4565b5060051b60200190565b600082601f830112612aaf57600080fd5b81356020612abf61287e83612a7a565b82815260059290921b84018101918181019086841115612ade57600080fd5b8286015b84811015612b1e57803567ffffffffffffffff811115612b025760008081fd5b612b108986838b010161285f565b845250918301918301612ae2565b509695505050505050565b60008060408385031215612b3c57600080fd5b823567ffffffffffffffff80821115612b5457600080fd5b612b6086838701612a9e565b93506020850135915080821115612b7657600080fd5b5061290f85828601612a9e565b600082601f830112612b9457600080fd5b81356020612ba461287e83612a7a565b82815260059290921b84018101918181019086841115612bc357600080fd5b8286015b84811015612b1e578035612bda816126ca565b8352918301918301612bc7565b60008060408385031215612bfa57600080fd5b823567ffffffffffffffff80821115612c1257600080fd5b612c1e86838701612b83565b93506020850135915080821115612c3457600080fd5b5061290f85828601612b83565b60008060408385031215612c5457600080fd5b8235612c5f816126ca565b91506020830135612a3481612a3f565b60008060008060808587031215612c8557600080fd5b8435612c90816126ca565b93506020850135612ca0816126ca565b925060408501359150606085013567ffffffffffffffff811115612cc357600080fd5b612ccf8782880161285f565b91505092959194509250565b600060208284031215612ced57600080fd5b813567ffffffffffffffff811115612d0457600080fd5b6118338482850161285f565b600082601f830112612d2157600080fd5b81356020612d3161287e83612a7a565b82815260059290921b84018101918181019086841115612d5057600080fd5b8286015b84811015612b1e5780358352918301918301612d54565b60008060408385031215612d7e57600080fd5b823567ffffffffffffffff80821115612d9657600080fd5b612da286838701612d10565b93506020850135915080821115612db857600080fd5b5061290f85828601612d10565b600060208284031215612dd757600080fd5b67ffffffffffffffff82351115612ded57600080fd5b82601f833584010112612dff57600080fd5b612e0f61287e8335840135612a7a565b8235830180358083526020808401939260059290921b90910101851015612e3557600080fd5b602084358501015b84358501803560051b016020018110156130e35767ffffffffffffffff81351115612e6757600080fd5b6040853586018235018703601f19011215612e8157600080fd5b612e896127ba565b67ffffffffffffffff60208335883589010101351115612ea857600080fd5b612ec0876020843589358a010181810135010161285f565b815267ffffffffffffffff60408335883589010101351115612ee157600080fd5b60408635870183350180820135018803601f19011215612f0057600080fd5b612f086127ba565b67ffffffffffffffff87358801843501604081013501602001351115612f2d57600080fd5b86358701833501604081013501602081013501603f81018913612f4f57600080fd5b612f5f61287e6020830135612a7a565b602082810135808352908201919060051b83016040018b1015612f8157600080fd5b604083015b6040602085013560051b8501018110156130b15767ffffffffffffffff81351115612fb057600080fd5b8035840160a0818e03603f19011215612fc857600080fd5b612fd06127e3565b612fdc60408301612a4d565b815267ffffffffffffffff60608301351115612ff757600080fd5b61300a8e6040606085013585010161285f565b602082015267ffffffffffffffff6080830135111561302857600080fd5b61303b8e6040608085013585010161285f565b604082015267ffffffffffffffff60a0830135111561305957600080fd5b61306c8e604060a085013585010161285f565b606082015267ffffffffffffffff60c0830135111561308a57600080fd5b61309d8e604060c085013585010161285f565b608082015284525060209283019201612f86565b508352505060408335883589010181810135010135602080830191909152828101919091529084529283019201612e3d565b50949350505050565b634e487b7160e01b600052601160045260246000fd5b80820180821115610528576105286130ec565b600060018201613127576131276130ec565b5060010190565b600082601f83011261313f57600080fd5b815161314d61287e82612837565b81815284602083860101111561316257600080fd5b6118338260208301602087016126fc565b8051612a5881612a3f565b60006040828403121561319057600080fd5b6131986127ba565b9050815167ffffffffffffffff808211156131b257600080fd5b6131be8583860161312e565b83526020915081840151818111156131d557600080fd5b8401604081870312156131e757600080fd5b6131ef6127ba565b8151838111156131fe57600080fd5b8201601f8101881361320f57600080fd5b805161321d61287e82612a7a565b81815260059190911b8201860190868101908a83111561323c57600080fd5b8784015b838110156133295780518881111561325757600080fd5b850160a0818e03601f1901121561326d57600080fd5b6132756127e3565b6132808b8301613173565b815260408201518a81111561329457600080fd5b6132a28f8d8386010161312e565b8c8301525060608201518a8111156132b957600080fd5b6132c78f8d8386010161312e565b60408301525060808201518a8111156132e05760008081fd5b6132ee8f8d8386010161312e565b60608301525060a08201518a8111156133075760008081fd5b6133158f8d8386010161312e565b608083015250845250918801918801613240565b5084525050509083015183820152918301919091525092915050565b6000806040838503121561335857600080fd5b825167ffffffffffffffff81111561336f57600080fd5b61337b8582860161317e565b9250506020830151612a34816126ca565b634e487b7160e01b600052603260045260246000fd5b6000602082840312156133b457600080fd5b815167ffffffffffffffff8111156133cb57600080fd5b6118338482850161317e565b600181811c908216806133eb57607f821691505b60208210810361340b57634e487b7160e01b600052602260045260246000fd5b50919050565b7f417373657274696f6e4572726f723a20000000000000000000000000000000008152600083516134498160108501602088016126fc565b7f206973206e6f7420657175616c20746f2000000000000000000000000000000060109184019182015283516134868160218401602088016126fc565b01602101949350505050565b6000602080830181845280855180835260408601915060408160051b870101925083870160005b828110156134e757603f198886030184526134d5858351612720565b945092850192908501906001016134b9565b5092979650505050505050565b6020808252825182820181905260009190848201906040850190845b818110156135355783516001600160a01b031683529284019291840191600101613510565b50909695505050505050565b7f417373657274696f6e4572726f723a200000000000000000000000000000000081527f20426f74682076616c756573206172650000000000000000000000000000000060108201526000825161359f8160208501602087016126fc565b9190910160200192915050565b601f8211156109f957600081815260208120601f850160051c810160208610156135d35750805b601f850160051c820191505b818110156135f2578281556001016135df565b505050505050565b815167ffffffffffffffff811115613614576136146127a4565b6136288161362284546133d7565b846135ac565b602080601f83116001811461365d57600084156136455750858301515b600019600386901b1c1916600185901b1785556135f2565b600085815260208120601f198616915b8281101561368c5788860151825594840194600190910190840161366d565b50858210156136aa5787850151600019600388901b60f8161c191681555b5050505050600190811b01905550565b6020808252825182820181905260009190848201906040850190845b81811015613535578351835292840192918401916001016136d6565b600060608083016001600160a01b03871684526020861515818601526040838187015282875180855260808801915060808160051b89010194508389016000805b838110156137d3578a8803607f1901855282518051878a52613757888b0182612720565b918901518a83038b8b0152805189845280518a850181905291939250600582901b83018d0191908b01908d840190875b818110156137b557605f198686030183526137a3858551612919565b9450928d0192918d0191600101613787565b50505050918901519089015297509386019391860191600101613733565b50959c9b505050505050505050505050565b8082028115828204841417610528576105286130ec565b60008161380b5761380b6130ec565b506000190190565b81810381811115610528576105286130ec565b600083516138388184602088016126fc565b83519083019061384c8183602088016126fc565b7f2c200000000000000000000000000000000000000000000000000000000000009101908152600201949350505050565b6000835161388f8184602088016126fc565b8351908301906138a38183602088016126fc565b7f5d000000000000000000000000000000000000000000000000000000000000009101908152600101949350505050565b60006001600160a01b038087168352808616602084015250836040830152608060608301526139066080830184612720565b9695505050505050565b60006020828403121561392257600080fd5b8151611ccf8161269756fe417373657274696f6e4572726f723a20726573756c74206973206e6f742066616c7365417373657274696f6e4572726f723a20726573756c74206973206e6f742074727565a26469706673582212201ea324558a19923b6fdd34301dca4b441079a5bc9dd04282d30720535d06076564736f6c63430008110033608060405234801561001057600080fd5b50611e4e806100206000396000f3fe608060405234801561001057600080fd5b50600436106100c95760003560e01c80634b64e4921161008157806374f130701161005b57806374f1307014610176578063d70968e714610189578063e7da4c7e1461019c57600080fd5b80634b64e4921461013057806360fb55d5146101505780636df864781461016357600080fd5b806331495d33116100b257806331495d331461010a578063410dbb8b1461011d57806346bdca9a146100ce57600080fd5b8063235266d2146100ce57806330191626146100f7575b600080fd5b6100e16100dc366004611510565b6101af565b6040516100ee919061163b565b60405180910390f35b6100e1610105366004611655565b61025e565b6100e161011836600461168c565b610318565b6100e161012b3660046116c5565b6103e9565b61014361013e3660046116e7565b6104e9565b6040516100ee9190611704565b6100e161015e366004611851565b610651565b6100e161017136600461190f565b61072d565b6100e16101843660046116c5565b610809565b6100e161019736600461168c565b61090a565b6100e16101aa3660046119c4565b6109d1565b6101e36040518060a00160405280600015158152602001606081526020016060815260200160608152602001606081525090565b815160208084019190912084519185019190912014808252610228578282604051602001610212929190611a1e565b60408051601f1981840301815291905260208201525b604080820193909352606081019190915281518083019092526005825264195c5d585b60da1b6020830152608081019190915290565b6102926040518060a00160405280600015158152602001606081526020016060815260200160608152602001606081525090565b8282148082526102d5576102a583610aad565b6102ae83610aad565b6040516020016102bf929190611a1e565b60408051601f1981840301815291905260208201525b6102de83610aad565b60408201526102ec82610aad565b6060820152604080518082019091526005815264195c5d585b60da1b6020820152608082015292915050565b61034c6040518060a00160405280600015158152602001606081526020016060815260200160608152602001606081525090565b6001600160a01b038381169083168114825260009061036c906014610b4d565b90506000610384846001600160a01b03166014610b4d565b83519091506103b65781816040516020016103a0929190611a1e565b60408051601f1981840301815291905260208401525b604080840192909252606083015280518082019091526005815264195c5d585b60da1b6020820152608082015292915050565b61041d6040518060a00160405280600015158152602001606081526020016060815260200160608152602001606081525090565b811580825261044557604051806060016040528060238152602001611da46023913960208201525b600182151514610472576040518060400160405280600581526020016466616c736560d81b815250610490565b604051806040016040528060048152602001637472756560e01b8152505b6040808301919091528051602080820183526000825260608401919091528151808301909252600782527f697346616c736500000000000000000000000000000000000000000000000000908201526080820152919050565b6104f1611425565b6000826001600160a01b0316630f6281946040518163ffffffff1660e01b81526004016020604051808303816000875af1158015610533573d6000803e3d6000fd5b505050506040513d601f19601f820116820180604052508101906105579190611a9f565b9050600081905061056b8360200151610d55565b50604051806060016040528060308152602001611de9603091398352601460008061059584610dd1565b91509150801561062d576040805160a081018252600080825282518084018452601a81527f43616c6c20746f20696e6865726974616e6365206661696c6564000000000000602082810191909152808401919091528351808201855282815283850152835180820185528281526060840152835180820190945290835260808201929092529087015161062791610e88565b50610647565b61064561063a838561025e565b602088015190610e88565b505b5050505050919050565b6106856040518060a00160405280600015158152602001606081526020016060815260200160608152602001606081525090565b816040516020016106969190611abc565b60405160208183030381529060405280519060200120836040516020016106bd9190611abc565b60408051601f19818403018152919052805160209091012014808252610716576106e683610ef8565b6106ef83610ef8565b604051602001610700929190611a1e565b60408051601f1981840301815291905260208201525b61071f83610ef8565b60408201526102ec82610ef8565b6107616040518060a00160405280600015158152602001606081526020016060815260200160608152602001606081525090565b816040516020016107729190611b1e565b60405160208183030381529060405280519060200120836040516020016107999190611b1e565b60408051601f198184030181529190528051602090910120148082526107f2576107c283610fcd565b6107cb83610fcd565b6040516020016107dc929190611a1e565b60408051601f1981840301815291905260208201525b6107fb83610fcd565b60408201526102ec82610fcd565b61083d6040518060a00160405280600015158152602001606081526020016060815260200160608152602001606081525090565b81151580825261086657604051806060016040528060228152602001611dc76022913960208201525b600182151514610893576040518060400160405280600581526020016466616c736560d81b8152506108b1565b604051806040016040528060048152602001637472756560e01b8152505b6040808301919091528051602080820183526000825260608401919091528151808301909252600682527f6973547275650000000000000000000000000000000000000000000000000000908201526080820152919050565b61093e6040518060a00160405280600015158152602001606081526020016060815260200160608152602001606081525090565b6001600160a01b03838116908316811415825260009061095f906014610b4d565b825190915061098f57806040516020016109799190611b6b565b60408051601f1981840301815291905260208301525b60408083019190915280516020808201835260008252606084019190915281518083019092526005825264195c5d585b60da1b90820152608082015292915050565b610a056040518060a00160405280600015158152602001606081526020016060815260200160608152602001606081525090565b81604051602001610a169190611bd6565b6040516020818303038152906040528051906020012083604051602001610a3d9190611bd6565b60408051601f19818403018152919052805160209091012014808252610a9657610a66836110a9565b610a6f836110a9565b604051602001610a80929190611a1e565b60408051601f1981840301815291905260208201525b610a9f836110a9565b60408201526102ec826110a9565b60606000610aba8361117a565b600101905060008167ffffffffffffffff811115610ada57610ada611459565b6040519080825280601f01601f191660200182016040528015610b04576020820181803683370190505b5090508181016020015b600019017f3031323334353637383961626364656600000000000000000000000000000000600a86061a8153600a8504945084610b0e57509392505050565b60606000610b5c836002611c24565b610b67906002611c3b565b67ffffffffffffffff811115610b7f57610b7f611459565b6040519080825280601f01601f191660200182016040528015610ba9576020820181803683370190505b5090507f300000000000000000000000000000000000000000000000000000000000000081600081518110610be057610be0611c4e565b60200101906001600160f81b031916908160001a9053507f780000000000000000000000000000000000000000000000000000000000000081600181518110610c2b57610c2b611c4e565b60200101906001600160f81b031916908160001a9053506000610c4f846002611c24565b610c5a906001611c3b565b90505b6001811115610cdf577f303132333435363738396162636465660000000000000000000000000000000085600f1660108110610c9b57610c9b611c4e565b1a60f81b828281518110610cb157610cb1611c4e565b60200101906001600160f81b031916908160001a90535060049490941c93610cd881611c64565b9050610c5d565b508315610d4c576040517f08c379a000000000000000000000000000000000000000000000000000000000815260206004820181905260248201527f537472696e67733a20686578206c656e67746820696e73756666696369656e74604482015260640160405180910390fd5b90505b92915050565b60408051808201825260608152600060208201528151600480825260a082019093529091816020015b610db26040518060a00160405280600015158152602001606081526020016060815260200160608152602001606081525090565b815260200190600190039081610d7e5750508252506000602082015290565b600080826001600160a01b03166359a7b3fe6040518163ffffffff1660e01b81526004016020604051808303816000875af1925050508015610e30575060408051601f3d908101601f19168201909252610e2d91810190611c7b565b60015b610e7e57610e726040518060400160405280600881526020017f50726f626c656d6100000000000000000000000000000000000000000000000081525061125c565b50600092600192509050565b9360009350915050565b604080518082019091526060815260006020820152825151602084015103610eb657610eb3836112d0565b92505b818360000151846020015181518110610ed157610ed1611c4e565b6020026020010181905250826020018051809190610eee90611c94565b9052509192915050565b6040805180820190915260018152605b60f81b602082015260609060005b8351811015610fc65760018451610f2d9190611cad565b811015610f765781848281518110610f4757610f47611c4e565b6020026020010151604051602001610f60929190611cc0565b6040516020818303038152906040529150610fb4565b81848281518110610f8957610f89611c4e565b6020026020010151604051602001610fa2929190611d17565b60405160208183030381529060405291505b80610fbe81611c94565b915050610f16565b5092915050565b6040805180820190915260018152605b60f81b602082015260609060005b8351811015610fc657600184516110029190611cad565b81101561105e578161103785838151811061101f5761101f611c4e565b60200260200101516001600160a01b03166014610b4d565b604051602001611048929190611cc0565b6040516020818303038152906040529150611097565b8161107485838151811061101f5761101f611c4e565b604051602001611085929190611d17565b60405160208183030381529060405291505b806110a181611c94565b915050610feb565b6040805180820190915260018152605b60f81b602082015260609060005b8351811015610fc657600184516110de9190611cad565b81101561112f57816111088583815181106110fb576110fb611c4e565b6020026020010151610aad565b604051602001611119929190611cc0565b6040516020818303038152906040529150611168565b816111458583815181106110fb576110fb611c4e565b604051602001611156929190611d17565b60405160208183030381529060405291505b8061117281611c94565b9150506110c7565b6000807a184f03e93ff9f4daa797ed6e38ed64bf6a1f01000000000000000083106111c3577a184f03e93ff9f4daa797ed6e38ed64bf6a1f010000000000000000830492506040015b6d04ee2d6d415b85acef810000000083106111ef576d04ee2d6d415b85acef8100000000830492506020015b662386f26fc10000831061120d57662386f26fc10000830492506010015b6305f5e1008310611225576305f5e100830492506008015b612710831061123957612710830492506004015b6064831061124b576064830492506002015b600a8310610d4f5760010192915050565b6112cd816040516024016112709190611d6e565b60408051601f198184030181529190526020810180517bffffffffffffffffffffffffffffffffffffffffffffffffffffffff167f41304fac00000000000000000000000000000000000000000000000000000000179052611404565b50565b60408051808201909152606081526000602082015260408051808201909152606081526000602082015282515160029061130b906003611c24565b6113159190611d81565b67ffffffffffffffff81111561132d5761132d611459565b60405190808252806020026020018201604052801561139257816020015b61137f6040518060a00160405280600015158152602001606081526020016060815260200160608152602001606081525090565b81526020019060019003908161134b5790505b50815260005b8351518110156113f25783518051829081106113b6576113b6611c4e565b6020026020010151826000015182815181106113d4576113d4611c4e565b602002602001018190525080806113ea90611c94565b915050611398565b50602092830151928101929092525090565b80516a636f6e736f6c652e6c6f67602083016000808483855afa5050505050565b604051806040016040528060608152602001611454604051806040016040528060608152602001600081525090565b905290565b634e487b7160e01b600052604160045260246000fd5b604051601f8201601f1916810167ffffffffffffffff8111828210171561149857611498611459565b604052919050565b600082601f8301126114b157600080fd5b813567ffffffffffffffff8111156114cb576114cb611459565b6114de601f8201601f191660200161146f565b8181528460208386010111156114f357600080fd5b816020850160208301376000918101602001919091529392505050565b6000806040838503121561152357600080fd5b823567ffffffffffffffff8082111561153b57600080fd5b611547868387016114a0565b9350602085013591508082111561155d57600080fd5b5061156a858286016114a0565b9150509250929050565b60005b8381101561158f578181015183820152602001611577565b50506000910152565b600081518084526115b0816020860160208601611574565b601f01601f19169290920160200192915050565b8051151582526000602082015160a060208501526115e560a0850182611598565b9050604083015184820360408601526115fe8282611598565b915050606083015184820360608601526116188282611598565b915050608083015184820360808601526116328282611598565b95945050505050565b60208152600061164e60208301846115c4565b9392505050565b6000806040838503121561166857600080fd5b50508035926020909101359150565b6001600160a01b03811681146112cd57600080fd5b6000806040838503121561169f57600080fd5b82356116aa81611677565b915060208301356116ba81611677565b809150509250929050565b6000602082840312156116d757600080fd5b81358015158114610d4c57600080fd5b6000602082840312156116f957600080fd5b8135610d4c81611677565b6000602080835283516040828501526117206060850182611598565b905081850151601f198583030160408601526040820181516040845281815180845260608601915060608160051b8701019350868301925060005b8181101561178957605f198786030183526117778585516115c4565b9450928701929187019160010161175b565b505050509083015191909201529392505050565b600067ffffffffffffffff8211156117b7576117b7611459565b5060051b60200190565b600082601f8301126117d257600080fd5b813560206117e76117e28361179d565b61146f565b82815260059290921b8401810191818101908684111561180657600080fd5b8286015b8481101561184657803567ffffffffffffffff81111561182a5760008081fd5b6118388986838b01016114a0565b84525091830191830161180a565b509695505050505050565b6000806040838503121561186457600080fd5b823567ffffffffffffffff8082111561187c57600080fd5b611888868387016117c1565b9350602085013591508082111561189e57600080fd5b5061156a858286016117c1565b600082601f8301126118bc57600080fd5b813560206118cc6117e28361179d565b82815260059290921b840181019181810190868411156118eb57600080fd5b8286015b8481101561184657803561190281611677565b83529183019183016118ef565b6000806040838503121561192257600080fd5b823567ffffffffffffffff8082111561193a57600080fd5b611946868387016118ab565b9350602085013591508082111561195c57600080fd5b5061156a858286016118ab565b600082601f83011261197a57600080fd5b8135602061198a6117e28361179d565b82815260059290921b840181019181810190868411156119a957600080fd5b8286015b8481101561184657803583529183019183016119ad565b600080604083850312156119d757600080fd5b823567ffffffffffffffff808211156119ef57600080fd5b6119fb86838701611969565b93506020850135915080821115611a1157600080fd5b5061156a85828601611969565b7f417373657274696f6e4572726f723a2000000000000000000000000000000000815260008351611a56816010850160208801611574565b7f206973206e6f7420657175616c20746f200000000000000000000000000000006010918401918201528351611a93816021840160208801611574565b01602101949350505050565b600060208284031215611ab157600080fd5b8151610d4c81611677565b6000602080830181845280855180835260408601915060408160051b870101925083870160005b82811015611b1157603f19888603018452611aff858351611598565b94509285019290850190600101611ae3565b5092979650505050505050565b6020808252825182820181905260009190848201906040850190845b81811015611b5f5783516001600160a01b031683529284019291840191600101611b3a565b50909695505050505050565b7f417373657274696f6e4572726f723a200000000000000000000000000000000081527f20426f74682076616c7565732061726500000000000000000000000000000000601082015260008251611bc9816020850160208701611574565b9190910160200192915050565b6020808252825182820181905260009190848201906040850190845b81811015611b5f57835183529284019291840191600101611bf2565b634e487b7160e01b600052601160045260246000fd5b8082028115828204841417610d4f57610d4f611c0e565b80820180821115610d4f57610d4f611c0e565b634e487b7160e01b600052603260045260246000fd5b600081611c7357611c73611c0e565b506000190190565b600060208284031215611c8d57600080fd5b5051919050565b600060018201611ca657611ca6611c0e565b5060010190565b81810381811115610d4f57610d4f611c0e565b60008351611cd2818460208801611574565b835190830190611ce6818360208801611574565b7f2c200000000000000000000000000000000000000000000000000000000000009101908152600201949350505050565b60008351611d29818460208801611574565b835190830190611d3d818360208801611574565b7f5d000000000000000000000000000000000000000000000000000000000000009101908152600101949350505050565b60208152600061164e6020830184611598565b600082611d9e57634e487b7160e01b600052601260045260246000fd5b50049056fe417373657274696f6e4572726f723a20726573756c74206973206e6f742066616c7365417373657274696f6e4572726f723a20726573756c74206973206e6f74207472756553686f756c64206861766520636f727265637420686f75726c79207261746520666f722073616c657320706572736f6ea264697066735822122067233a6e3e1bd65f4e8b1a31f56c2a8fa61782125c3197b5da43b4110356032064736f6c63430008110033608060405234801561001057600080fd5b50611d66806100206000396000f3fe608060405234801561001057600080fd5b50600436106100c95760003560e01c80634b64e4921161008157806374f130701161005b57806374f1307014610176578063d70968e714610189578063e7da4c7e1461019c57600080fd5b80634b64e4921461013057806360fb55d5146101505780636df864781461016357600080fd5b806331495d33116100b257806331495d331461010a578063410dbb8b1461011d57806346bdca9a146100ce57600080fd5b8063235266d2146100ce57806330191626146100f7575b600080fd5b6100e16100dc36600461143e565b6101af565b6040516100ee9190611569565b60405180910390f35b6100e1610105366004611583565b61025e565b6100e16101183660046115bd565b610318565b6100e161012b3660046115f6565b6103e9565b61014361013e366004611618565b6104e9565b6040516100ee9190611635565b6100e161015e366004611782565b610652565b6100e1610171366004611840565b61072e565b6100e16101843660046115f6565b61080a565b6100e16101973660046115bd565b61090b565b6100e16101aa3660046118f5565b6109d2565b6101e36040518060a00160405280600015158152602001606081526020016060815260200160608152602001606081525090565b81516020808401919091208451918501919091201480825261022857828260405160200161021292919061194f565b60408051601f1981840301815291905260208201525b604080820193909352606081019190915281518083019092526005825264195c5d585b60da1b6020830152608081019190915290565b6102926040518060a00160405280600015158152602001606081526020016060815260200160608152602001606081525090565b8282148082526102d5576102a583610aae565b6102ae83610aae565b6040516020016102bf92919061194f565b60408051601f1981840301815291905260208201525b6102de83610aae565b60408201526102ec82610aae565b6060820152604080518082019091526005815264195c5d585b60da1b6020820152608082015292915050565b61034c6040518060a00160405280600015158152602001606081526020016060815260200160608152602001606081525090565b6001600160a01b038381169083168114825260009061036c906014610b4e565b90506000610384846001600160a01b03166014610b4e565b83519091506103b65781816040516020016103a092919061194f565b60408051601f1981840301815291905260208401525b604080840192909252606083015280518082019091526005815264195c5d585b60da1b6020820152608082015292915050565b61041d6040518060a00160405280600015158152602001606081526020016060815260200160608152602001606081525090565b811580825261044557604051806060016040528060238152602001611cc26023913960208201525b600182151514610472576040518060400160405280600581526020016466616c736560d81b815250610490565b604051806040016040528060048152602001637472756560e01b8152505b6040808301919091528051602080820183526000825260608401919091528151808301909252600782527f697346616c736500000000000000000000000000000000000000000000000000908201526080820152919050565b6104f1611353565b6000826001600160a01b0316630f6281946040518163ffffffff1660e01b81526004016020604051808303816000875af1158015610533573d6000803e3d6000fd5b505050506040513d601f19601f8201168201806040525081019061055791906119d0565b9050600081905061056b8360200151610d56565b506040518060600160405280602a8152602001611d07602a9139835261d90360008061059684610dd2565b91509150801561062e576040805160a081018252600080825282518084018452601a81527f43616c6c20746f20696e6865726974616e6365206661696c6564000000000000602082810191909152808401919091528351808201855282815283850152835180820185528281526060840152835180820190945290835260808201929092529087015161062891610e4b565b50610648565b61064661063b838561025e565b602088015190610e4b565b505b5050505050919050565b6106866040518060a00160405280600015158152602001606081526020016060815260200160608152602001606081525090565b8160405160200161069791906119ed565b60405160208183030381529060405280519060200120836040516020016106be91906119ed565b60408051601f19818403018152919052805160209091012014808252610717576106e783610ebb565b6106f083610ebb565b60405160200161070192919061194f565b60408051601f1981840301815291905260208201525b61072083610ebb565b60408201526102ec82610ebb565b6107626040518060a00160405280600015158152602001606081526020016060815260200160608152602001606081525090565b816040516020016107739190611a4f565b604051602081830303815290604052805190602001208360405160200161079a9190611a4f565b60408051601f198184030181529190528051602090910120148082526107f3576107c383610f90565b6107cc83610f90565b6040516020016107dd92919061194f565b60408051601f1981840301815291905260208201525b6107fc83610f90565b60408201526102ec82610f90565b61083e6040518060a00160405280600015158152602001606081526020016060815260200160608152602001606081525090565b81151580825261086757604051806060016040528060228152602001611ce56022913960208201525b600182151514610894576040518060400160405280600581526020016466616c736560d81b8152506108b2565b604051806040016040528060048152602001637472756560e01b8152505b6040808301919091528051602080820183526000825260608401919091528151808301909252600682527f6973547275650000000000000000000000000000000000000000000000000000908201526080820152919050565b61093f6040518060a00160405280600015158152602001606081526020016060815260200160608152602001606081525090565b6001600160a01b038381169083168114158252600090610960906014610b4e565b8251909150610990578060405160200161097a9190611a9c565b60408051601f1981840301815291905260208301525b60408083019190915280516020808201835260008252606084019190915281518083019092526005825264195c5d585b60da1b90820152608082015292915050565b610a066040518060a00160405280600015158152602001606081526020016060815260200160608152602001606081525090565b81604051602001610a179190611b07565b6040516020818303038152906040528051906020012083604051602001610a3e9190611b07565b60408051601f19818403018152919052805160209091012014808252610a9757610a678361106c565b610a708361106c565b604051602001610a8192919061194f565b60408051601f1981840301815291905260208201525b610aa08361106c565b60408201526102ec8261106c565b60606000610abb8361113d565b600101905060008167ffffffffffffffff811115610adb57610adb611387565b6040519080825280601f01601f191660200182016040528015610b05576020820181803683370190505b5090508181016020015b600019017f3031323334353637383961626364656600000000000000000000000000000000600a86061a8153600a8504945084610b0f57509392505050565b60606000610b5d836002611b55565b610b68906002611b6c565b67ffffffffffffffff811115610b8057610b80611387565b6040519080825280601f01601f191660200182016040528015610baa576020820181803683370190505b5090507f300000000000000000000000000000000000000000000000000000000000000081600081518110610be157610be1611b7f565b60200101906001600160f81b031916908160001a9053507f780000000000000000000000000000000000000000000000000000000000000081600181518110610c2c57610c2c611b7f565b60200101906001600160f81b031916908160001a9053506000610c50846002611b55565b610c5b906001611b6c565b90505b6001811115610ce0577f303132333435363738396162636465660000000000000000000000000000000085600f1660108110610c9c57610c9c611b7f565b1a60f81b828281518110610cb257610cb2611b7f565b60200101906001600160f81b031916908160001a90535060049490941c93610cd981611b95565b9050610c5e565b508315610d4d576040517f08c379a000000000000000000000000000000000000000000000000000000000815260206004820181905260248201527f537472696e67733a20686578206c656e67746820696e73756666696369656e74604482015260640160405180910390fd5b90505b92915050565b60408051808201825260608152600060208201528151600480825260a082019093529091816020015b610db36040518060a00160405280600015158152602001606081526020016060815260200160608152602001606081525090565b815260200190600190039081610d7f5750508252506000602082015290565b600080826001600160a01b0316633f83ea3b6040518163ffffffff1660e01b81526004016020604051808303816000875af1925050508015610e31575060408051601f3d908101601f19168201909252610e2e91810190611bac565b60015b610e415750600092600192509050565b9360009350915050565b604080518082019091526060815260006020820152825151602084015103610e7957610e768361121f565b92505b818360000151846020015181518110610e9457610e94611b7f565b6020026020010181905250826020018051809190610eb190611bc5565b9052509192915050565b6040805180820190915260018152605b60f81b602082015260609060005b8351811015610f895760018451610ef09190611bde565b811015610f395781848281518110610f0a57610f0a611b7f565b6020026020010151604051602001610f23929190611bf1565b6040516020818303038152906040529150610f77565b81848281518110610f4c57610f4c611b7f565b6020026020010151604051602001610f65929190611c48565b60405160208183030381529060405291505b80610f8181611bc5565b915050610ed9565b5092915050565b6040805180820190915260018152605b60f81b602082015260609060005b8351811015610f895760018451610fc59190611bde565b8110156110215781610ffa858381518110610fe257610fe2611b7f565b60200260200101516001600160a01b03166014610b4e565b60405160200161100b929190611bf1565b604051602081830303815290604052915061105a565b81611037858381518110610fe257610fe2611b7f565b604051602001611048929190611c48565b60405160208183030381529060405291505b8061106481611bc5565b915050610fae565b6040805180820190915260018152605b60f81b602082015260609060005b8351811015610f8957600184516110a19190611bde565b8110156110f257816110cb8583815181106110be576110be611b7f565b6020026020010151610aae565b6040516020016110dc929190611bf1565b604051602081830303815290604052915061112b565b816111088583815181106110be576110be611b7f565b604051602001611119929190611c48565b60405160208183030381529060405291505b8061113581611bc5565b91505061108a565b6000807a184f03e93ff9f4daa797ed6e38ed64bf6a1f0100000000000000008310611186577a184f03e93ff9f4daa797ed6e38ed64bf6a1f010000000000000000830492506040015b6d04ee2d6d415b85acef810000000083106111b2576d04ee2d6d415b85acef8100000000830492506020015b662386f26fc1000083106111d057662386f26fc10000830492506010015b6305f5e10083106111e8576305f5e100830492506008015b61271083106111fc57612710830492506004015b6064831061120e576064830492506002015b600a8310610d505760010192915050565b60408051808201909152606081526000602082015260408051808201909152606081526000602082015282515160029061125a906003611b55565b6112649190611c9f565b67ffffffffffffffff81111561127c5761127c611387565b6040519080825280602002602001820160405280156112e157816020015b6112ce6040518060a00160405280600015158152602001606081526020016060815260200160608152602001606081525090565b81526020019060019003908161129a5790505b50815260005b83515181101561134157835180518290811061130557611305611b7f565b60200260200101518260000151828151811061132357611323611b7f565b6020026020010181905250808061133990611bc5565b9150506112e7565b50602092830151928101929092525090565b604051806040016040528060608152602001611382604051806040016040528060608152602001600081525090565b905290565b634e487b7160e01b600052604160045260246000fd5b604051601f8201601f1916810167ffffffffffffffff811182821017156113c6576113c6611387565b604052919050565b600082601f8301126113df57600080fd5b813567ffffffffffffffff8111156113f9576113f9611387565b61140c601f8201601f191660200161139d565b81815284602083860101111561142157600080fd5b816020850160208301376000918101602001919091529392505050565b6000806040838503121561145157600080fd5b823567ffffffffffffffff8082111561146957600080fd5b611475868387016113ce565b9350602085013591508082111561148b57600080fd5b50611498858286016113ce565b9150509250929050565b60005b838110156114bd5781810151838201526020016114a5565b50506000910152565b600081518084526114de8160208601602086016114a2565b601f01601f19169290920160200192915050565b8051151582526000602082015160a0602085015261151360a08501826114c6565b90506040830151848203604086015261152c82826114c6565b9150506060830151848203606086015261154682826114c6565b9150506080830151848203608086015261156082826114c6565b95945050505050565b60208152600061157c60208301846114f2565b9392505050565b6000806040838503121561159657600080fd5b50508035926020909101359150565b6001600160a01b03811681146115ba57600080fd5b50565b600080604083850312156115d057600080fd5b82356115db816115a5565b915060208301356115eb816115a5565b809150509250929050565b60006020828403121561160857600080fd5b81358015158114610d4d57600080fd5b60006020828403121561162a57600080fd5b8135610d4d816115a5565b60006020808352835160408285015261165160608501826114c6565b905081850151601f198583030160408601526040820181516040845281815180845260608601915060608160051b8701019350868301925060005b818110156116ba57605f198786030183526116a88585516114f2565b9450928701929187019160010161168c565b505050509083015191909201529392505050565b600067ffffffffffffffff8211156116e8576116e8611387565b5060051b60200190565b600082601f83011261170357600080fd5b81356020611718611713836116ce565b61139d565b82815260059290921b8401810191818101908684111561173757600080fd5b8286015b8481101561177757803567ffffffffffffffff81111561175b5760008081fd5b6117698986838b01016113ce565b84525091830191830161173b565b509695505050505050565b6000806040838503121561179557600080fd5b823567ffffffffffffffff808211156117ad57600080fd5b6117b9868387016116f2565b935060208501359150808211156117cf57600080fd5b50611498858286016116f2565b600082601f8301126117ed57600080fd5b813560206117fd611713836116ce565b82815260059290921b8401810191818101908684111561181c57600080fd5b8286015b84811015611777578035611833816115a5565b8352918301918301611820565b6000806040838503121561185357600080fd5b823567ffffffffffffffff8082111561186b57600080fd5b611877868387016117dc565b9350602085013591508082111561188d57600080fd5b50611498858286016117dc565b600082601f8301126118ab57600080fd5b813560206118bb611713836116ce565b82815260059290921b840181019181810190868411156118da57600080fd5b8286015b8481101561177757803583529183019183016118de565b6000806040838503121561190857600080fd5b823567ffffffffffffffff8082111561192057600080fd5b61192c8683870161189a565b9350602085013591508082111561194257600080fd5b506114988582860161189a565b7f417373657274696f6e4572726f723a20000000000000000000000000000000008152600083516119878160108501602088016114a2565b7f206973206e6f7420657175616c20746f2000000000000000000000000000000060109184019182015283516119c48160218401602088016114a2565b01602101949350505050565b6000602082840312156119e257600080fd5b8151610d4d816115a5565b6000602080830181845280855180835260408601915060408160051b870101925083870160005b82811015611a4257603f19888603018452611a308583516114c6565b94509285019290850190600101611a14565b5092979650505050505050565b6020808252825182820181905260009190848201906040850190845b81811015611a905783516001600160a01b031683529284019291840191600101611a6b565b50909695505050505050565b7f417373657274696f6e4572726f723a200000000000000000000000000000000081527f20426f74682076616c7565732061726500000000000000000000000000000000601082015260008251611afa8160208501602087016114a2565b9190910160200192915050565b6020808252825182820181905260009190848201906040850190845b81811015611a9057835183529284019291840191600101611b23565b634e487b7160e01b600052601160045260246000fd5b8082028115828204841417610d5057610d50611b3f565b80820180821115610d5057610d50611b3f565b634e487b7160e01b600052603260045260246000fd5b600081611ba457611ba4611b3f565b506000190190565b600060208284031215611bbe57600080fd5b5051919050565b600060018201611bd757611bd7611b3f565b5060010190565b81810381811115610d5057610d50611b3f565b60008351611c038184602088016114a2565b835190830190611c178183602088016114a2565b7f2c200000000000000000000000000000000000000000000000000000000000009101908152600201949350505050565b60008351611c5a8184602088016114a2565b835190830190611c6e8183602088016114a2565b7f5d000000000000000000000000000000000000000000000000000000000000009101908152600101949350505050565b600082611cbc57634e487b7160e01b600052601260045260246000fd5b50049056fe417373657274696f6e4572726f723a20726573756c74206973206e6f742066616c7365417373657274696f6e4572726f723a20726573756c74206973206e6f74207472756553616c657320706572736f6e2073686f756c64206861766520636f7272656374206964206e756d626572a264697066735822122072a8a3b1a26dedc1c9ee4259c8c5772c2c46f7cee284260a2b49b8100e7aad2764736f6c63430008110033608060405234801561001057600080fd5b50611d67806100206000396000f3fe608060405234801561001057600080fd5b50600436106100c95760003560e01c80634b64e4921161008157806374f130701161005b57806374f1307014610176578063d70968e714610189578063e7da4c7e1461019c57600080fd5b80634b64e4921461013057806360fb55d5146101505780636df864781461016357600080fd5b806331495d33116100b257806331495d331461010a578063410dbb8b1461011d57806346bdca9a146100ce57600080fd5b8063235266d2146100ce57806330191626146100f7575b600080fd5b6100e16100dc36600461143e565b6101af565b6040516100ee9190611569565b60405180910390f35b6100e1610105366004611583565b61025e565b6100e16101183660046115bd565b610318565b6100e161012b3660046115f6565b6103e9565b61014361013e366004611618565b6104e9565b6040516100ee9190611635565b6100e161015e366004611782565b610652565b6100e1610171366004611840565b61072e565b6100e16101843660046115f6565b61080a565b6100e16101973660046115bd565b61090b565b6100e16101aa3660046118f5565b6109d2565b6101e36040518060a00160405280600015158152602001606081526020016060815260200160608152602001606081525090565b81516020808401919091208451918501919091201480825261022857828260405160200161021292919061194f565b60408051601f1981840301815291905260208201525b604080820193909352606081019190915281518083019092526005825264195c5d585b60da1b6020830152608081019190915290565b6102926040518060a00160405280600015158152602001606081526020016060815260200160608152602001606081525090565b8282148082526102d5576102a583610aae565b6102ae83610aae565b6040516020016102bf92919061194f565b60408051601f1981840301815291905260208201525b6102de83610aae565b60408201526102ec82610aae565b6060820152604080518082019091526005815264195c5d585b60da1b6020820152608082015292915050565b61034c6040518060a00160405280600015158152602001606081526020016060815260200160608152602001606081525090565b6001600160a01b038381169083168114825260009061036c906014610b4e565b90506000610384846001600160a01b03166014610b4e565b83519091506103b65781816040516020016103a092919061194f565b60408051601f1981840301815291905260208401525b604080840192909252606083015280518082019091526005815264195c5d585b60da1b6020820152608082015292915050565b61041d6040518060a00160405280600015158152602001606081526020016060815260200160608152602001606081525090565b811580825261044557604051806060016040528060238152602001611cc26023913960208201525b600182151514610472576040518060400160405280600581526020016466616c736560d81b815250610490565b604051806040016040528060048152602001637472756560e01b8152505b6040808301919091528051602080820183526000825260608401919091528151808301909252600782527f697346616c736500000000000000000000000000000000000000000000000000908201526080820152919050565b6104f1611353565b6000826001600160a01b0316630f6281946040518163ffffffff1660e01b81526004016020604051808303816000875af1158015610533573d6000803e3d6000fd5b505050506040513d601f19601f8201168201806040525081019061055791906119d0565b9050600081905061056b8360200151610d56565b506040518060600160405280602b8152602001611d07602b9139835261303960008061059684610dd2565b91509150801561062e576040805160a081018252600080825282518084018452601a81527f43616c6c20746f20696e6865726974616e6365206661696c6564000000000000602082810191909152808401919091528351808201855282815283850152835180820185528281526060840152835180820190945290835260808201929092529087015161062891610e4b565b50610648565b61064661063b838561025e565b602088015190610e4b565b505b5050505050919050565b6106866040518060a00160405280600015158152602001606081526020016060815260200160608152602001606081525090565b8160405160200161069791906119ed565b60405160208183030381529060405280519060200120836040516020016106be91906119ed565b60408051601f19818403018152919052805160209091012014808252610717576106e783610ebb565b6106f083610ebb565b60405160200161070192919061194f565b60408051601f1981840301815291905260208201525b61072083610ebb565b60408201526102ec82610ebb565b6107626040518060a00160405280600015158152602001606081526020016060815260200160608152602001606081525090565b816040516020016107739190611a4f565b604051602081830303815290604052805190602001208360405160200161079a9190611a4f565b60408051601f198184030181529190528051602090910120148082526107f3576107c383610f90565b6107cc83610f90565b6040516020016107dd92919061194f565b60408051601f1981840301815291905260208201525b6107fc83610f90565b60408201526102ec82610f90565b61083e6040518060a00160405280600015158152602001606081526020016060815260200160608152602001606081525090565b81151580825261086757604051806060016040528060228152602001611ce56022913960208201525b600182151514610894576040518060400160405280600581526020016466616c736560d81b8152506108b2565b604051806040016040528060048152602001637472756560e01b8152505b6040808301919091528051602080820183526000825260608401919091528151808301909252600682527f6973547275650000000000000000000000000000000000000000000000000000908201526080820152919050565b61093f6040518060a00160405280600015158152602001606081526020016060815260200160608152602001606081525090565b6001600160a01b038381169083168114158252600090610960906014610b4e565b8251909150610990578060405160200161097a9190611a9c565b60408051601f1981840301815291905260208301525b60408083019190915280516020808201835260008252606084019190915281518083019092526005825264195c5d585b60da1b90820152608082015292915050565b610a066040518060a00160405280600015158152602001606081526020016060815260200160608152602001606081525090565b81604051602001610a179190611b07565b6040516020818303038152906040528051906020012083604051602001610a3e9190611b07565b60408051601f19818403018152919052805160209091012014808252610a9757610a678361106c565b610a708361106c565b604051602001610a8192919061194f565b60408051601f1981840301815291905260208201525b610aa08361106c565b60408201526102ec8261106c565b60606000610abb8361113d565b600101905060008167ffffffffffffffff811115610adb57610adb611387565b6040519080825280601f01601f191660200182016040528015610b05576020820181803683370190505b5090508181016020015b600019017f3031323334353637383961626364656600000000000000000000000000000000600a86061a8153600a8504945084610b0f57509392505050565b60606000610b5d836002611b55565b610b68906002611b6c565b67ffffffffffffffff811115610b8057610b80611387565b6040519080825280601f01601f191660200182016040528015610baa576020820181803683370190505b5090507f300000000000000000000000000000000000000000000000000000000000000081600081518110610be157610be1611b7f565b60200101906001600160f81b031916908160001a9053507f780000000000000000000000000000000000000000000000000000000000000081600181518110610c2c57610c2c611b7f565b60200101906001600160f81b031916908160001a9053506000610c50846002611b55565b610c5b906001611b6c565b90505b6001811115610ce0577f303132333435363738396162636465660000000000000000000000000000000085600f1660108110610c9c57610c9c611b7f565b1a60f81b828281518110610cb257610cb2611b7f565b60200101906001600160f81b031916908160001a90535060049490941c93610cd981611b95565b9050610c5e565b508315610d4d576040517f08c379a000000000000000000000000000000000000000000000000000000000815260206004820181905260248201527f537472696e67733a20686578206c656e67746820696e73756666696369656e74604482015260640160405180910390fd5b90505b92915050565b60408051808201825260608152600060208201528151600480825260a082019093529091816020015b610db36040518060a00160405280600015158152602001606081526020016060815260200160608152602001606081525090565b815260200190600190039081610d7f5750508252506000602082015290565b600080826001600160a01b031663f5895a0a6040518163ffffffff1660e01b81526004016020604051808303816000875af1925050508015610e31575060408051601f3d908101601f19168201909252610e2e91810190611bac565b60015b610e415750600092600192509050565b9360009350915050565b604080518082019091526060815260006020820152825151602084015103610e7957610e768361121f565b92505b818360000151846020015181518110610e9457610e94611b7f565b6020026020010181905250826020018051809190610eb190611bc5565b9052509192915050565b6040805180820190915260018152605b60f81b602082015260609060005b8351811015610f895760018451610ef09190611bde565b811015610f395781848281518110610f0a57610f0a611b7f565b6020026020010151604051602001610f23929190611bf1565b6040516020818303038152906040529150610f77565b81848281518110610f4c57610f4c611b7f565b6020026020010151604051602001610f65929190611c48565b60405160208183030381529060405291505b80610f8181611bc5565b915050610ed9565b5092915050565b6040805180820190915260018152605b60f81b602082015260609060005b8351811015610f895760018451610fc59190611bde565b8110156110215781610ffa858381518110610fe257610fe2611b7f565b60200260200101516001600160a01b03166014610b4e565b60405160200161100b929190611bf1565b604051602081830303815290604052915061105a565b81611037858381518110610fe257610fe2611b7f565b604051602001611048929190611c48565b60405160208183030381529060405291505b8061106481611bc5565b915050610fae565b6040805180820190915260018152605b60f81b602082015260609060005b8351811015610f8957600184516110a19190611bde565b8110156110f257816110cb8583815181106110be576110be611b7f565b6020026020010151610aae565b6040516020016110dc929190611bf1565b604051602081830303815290604052915061112b565b816111088583815181106110be576110be611b7f565b604051602001611119929190611c48565b60405160208183030381529060405291505b8061113581611bc5565b91505061108a565b6000807a184f03e93ff9f4daa797ed6e38ed64bf6a1f0100000000000000008310611186577a184f03e93ff9f4daa797ed6e38ed64bf6a1f010000000000000000830492506040015b6d04ee2d6d415b85acef810000000083106111b2576d04ee2d6d415b85acef8100000000830492506020015b662386f26fc1000083106111d057662386f26fc10000830492506010015b6305f5e10083106111e8576305f5e100830492506008015b61271083106111fc57612710830492506004015b6064831061120e576064830492506002015b600a8310610d505760010192915050565b60408051808201909152606081526000602082015260408051808201909152606081526000602082015282515160029061125a906003611b55565b6112649190611c9f565b67ffffffffffffffff81111561127c5761127c611387565b6040519080825280602002602001820160405280156112e157816020015b6112ce6040518060a00160405280600015158152602001606081526020016060815260200160608152602001606081525090565b81526020019060019003908161129a5790505b50815260005b83515181101561134157835180518290811061130557611305611b7f565b60200260200101518260000151828151811061132357611323611b7f565b6020026020010181905250808061133990611bc5565b9150506112e7565b50602092830151928101929092525090565b604051806040016040528060608152602001611382604051806040016040528060608152602001600081525090565b905290565b634e487b7160e01b600052604160045260246000fd5b604051601f8201601f1916810167ffffffffffffffff811182821017156113c6576113c6611387565b604052919050565b600082601f8301126113df57600080fd5b813567ffffffffffffffff8111156113f9576113f9611387565b61140c601f8201601f191660200161139d565b81815284602083860101111561142157600080fd5b816020850160208301376000918101602001919091529392505050565b6000806040838503121561145157600080fd5b823567ffffffffffffffff8082111561146957600080fd5b611475868387016113ce565b9350602085013591508082111561148b57600080fd5b50611498858286016113ce565b9150509250929050565b60005b838110156114bd5781810151838201526020016114a5565b50506000910152565b600081518084526114de8160208601602086016114a2565b601f01601f19169290920160200192915050565b8051151582526000602082015160a0602085015261151360a08501826114c6565b90506040830151848203604086015261152c82826114c6565b9150506060830151848203606086015261154682826114c6565b9150506080830151848203608086015261156082826114c6565b95945050505050565b60208152600061157c60208301846114f2565b9392505050565b6000806040838503121561159657600080fd5b50508035926020909101359150565b6001600160a01b03811681146115ba57600080fd5b50565b600080604083850312156115d057600080fd5b82356115db816115a5565b915060208301356115eb816115a5565b809150509250929050565b60006020828403121561160857600080fd5b81358015158114610d4d57600080fd5b60006020828403121561162a57600080fd5b8135610d4d816115a5565b60006020808352835160408285015261165160608501826114c6565b905081850151601f198583030160408601526040820181516040845281815180845260608601915060608160051b8701019350868301925060005b818110156116ba57605f198786030183526116a88585516114f2565b9450928701929187019160010161168c565b505050509083015191909201529392505050565b600067ffffffffffffffff8211156116e8576116e8611387565b5060051b60200190565b600082601f83011261170357600080fd5b81356020611718611713836116ce565b61139d565b82815260059290921b8401810191818101908684111561173757600080fd5b8286015b8481101561177757803567ffffffffffffffff81111561175b5760008081fd5b6117698986838b01016113ce565b84525091830191830161173b565b509695505050505050565b6000806040838503121561179557600080fd5b823567ffffffffffffffff808211156117ad57600080fd5b6117b9868387016116f2565b935060208501359150808211156117cf57600080fd5b50611498858286016116f2565b600082601f8301126117ed57600080fd5b813560206117fd611713836116ce565b82815260059290921b8401810191818101908684111561181c57600080fd5b8286015b84811015611777578035611833816115a5565b8352918301918301611820565b6000806040838503121561185357600080fd5b823567ffffffffffffffff8082111561186b57600080fd5b611877868387016117dc565b9350602085013591508082111561188d57600080fd5b50611498858286016117dc565b600082601f8301126118ab57600080fd5b813560206118bb611713836116ce565b82815260059290921b840181019181810190868411156118da57600080fd5b8286015b8481101561177757803583529183019183016118de565b6000806040838503121561190857600080fd5b823567ffffffffffffffff8082111561192057600080fd5b61192c8683870161189a565b9350602085013591508082111561194257600080fd5b506114988582860161189a565b7f417373657274696f6e4572726f723a20000000000000000000000000000000008152600083516119878160108501602088016114a2565b7f206973206e6f7420657175616c20746f2000000000000000000000000000000060109184019182015283516119c48160218401602088016114a2565b01602101949350505050565b6000602082840312156119e257600080fd5b8151610d4d816115a5565b6000602080830181845280855180835260408601915060408160051b870101925083870160005b82811015611a4257603f19888603018452611a308583516114c6565b94509285019290850190600101611a14565b5092979650505050505050565b6020808252825182820181905260009190848201906040850190845b81811015611a905783516001600160a01b031683529284019291840191600101611a6b565b50909695505050505050565b7f417373657274696f6e4572726f723a200000000000000000000000000000000081527f20426f74682076616c7565732061726500000000000000000000000000000000601082015260008251611afa8160208501602087016114a2565b9190910160200192915050565b6020808252825182820181905260009190848201906040850190845b81811015611a9057835183529284019291840191600101611b23565b634e487b7160e01b600052601160045260246000fd5b8082028115828204841417610d5057610d50611b3f565b80820180821115610d5057610d50611b3f565b634e487b7160e01b600052603260045260246000fd5b600081611ba457611ba4611b3f565b506000190190565b600060208284031215611bbe57600080fd5b5051919050565b600060018201611bd757611bd7611b3f565b5060010190565b81810381811115610d5057610d50611b3f565b60008351611c038184602088016114a2565b835190830190611c178183602088016114a2565b7f2c200000000000000000000000000000000000000000000000000000000000009101908152600201949350505050565b60008351611c5a8184602088016114a2565b835190830190611c6e8183602088016114a2565b7f5d000000000000000000000000000000000000000000000000000000000000009101908152600101949350505050565b600082611cbc57634e487b7160e01b600052601260045260246000fd5b50049056fe417373657274696f6e4572726f723a20726573756c74206973206e6f742066616c7365417373657274696f6e4572726f723a20726573756c74206973206e6f74207472756553616c657320706572736f6e2073686f756c64206861766520636f7272656374206d616e61676572206964a2646970667358221220d9ef5b1b3364e34efb244e813a8b68b92658a4839b13106bbf8d1aeae234c5bf64736f6c63430008110033608060405234801561001057600080fd5b50611d72806100206000396000f3fe608060405234801561001057600080fd5b50600436106100c95760003560e01c80634b64e4921161008157806374f130701161005b57806374f1307014610176578063d70968e714610189578063e7da4c7e1461019c57600080fd5b80634b64e4921461013057806360fb55d5146101505780636df864781461016357600080fd5b806331495d33116100b257806331495d331461010a578063410dbb8b1461011d57806346bdca9a146100ce57600080fd5b8063235266d2146100ce57806330191626146100f7575b600080fd5b6100e16100dc36600461143f565b6101af565b6040516100ee919061156a565b60405180910390f35b6100e1610105366004611584565b61025e565b6100e16101183660046115be565b610318565b6100e161012b3660046115f7565b6103e9565b61014361013e366004611619565b6104e9565b6040516100ee9190611636565b6100e161015e366004611783565b610653565b6100e1610171366004611841565b61072f565b6100e16101843660046115f7565b61080b565b6100e16101973660046115be565b61090c565b6100e16101aa3660046118f6565b6109d3565b6101e36040518060a00160405280600015158152602001606081526020016060815260200160608152602001606081525090565b815160208084019190912084519185019190912014808252610228578282604051602001610212929190611950565b60408051601f1981840301815291905260208201525b604080820193909352606081019190915281518083019092526005825264195c5d585b60da1b6020830152608081019190915290565b6102926040518060a00160405280600015158152602001606081526020016060815260200160608152602001606081525090565b8282148082526102d5576102a583610aaf565b6102ae83610aaf565b6040516020016102bf929190611950565b60408051601f1981840301815291905260208201525b6102de83610aaf565b60408201526102ec82610aaf565b6060820152604080518082019091526005815264195c5d585b60da1b6020820152608082015292915050565b61034c6040518060a00160405280600015158152602001606081526020016060815260200160608152602001606081525090565b6001600160a01b038381169083168114825260009061036c906014610b4f565b90506000610384846001600160a01b03166014610b4f565b83519091506103b65781816040516020016103a0929190611950565b60408051601f1981840301815291905260208401525b604080840192909252606083015280518082019091526005815264195c5d585b60da1b6020820152608082015292915050565b61041d6040518060a00160405280600015158152602001606081526020016060815260200160608152602001606081525090565b811580825261044557604051806060016040528060238152602001611cf86023913960208201525b600182151514610472576040518060400160405280600581526020016466616c736560d81b815250610490565b604051806040016040528060048152602001637472756560e01b8152505b6040808301919091528051602080820183526000825260608401919091528151808301909252600782527f697346616c736500000000000000000000000000000000000000000000000000908201526080820152919050565b6104f1611354565b6000826001600160a01b031663687981dd6040518163ffffffff1660e01b81526004016020604051808303816000875af1158015610533573d6000803e3d6000fd5b505050506040513d601f19601f8201168201806040525081019061055791906119d1565b9050600081905061056b8360200151610d57565b50604051806060016040528060358152602001611cc360359139835262030d4060008061059784610dd3565b91509150801561062f576040805160a081018252600080825282518084018452601a81527f43616c6c20746f20696e6865726974616e6365206661696c6564000000000000602082810191909152808401919091528351808201855282815283850152835180820185528281526060840152835180820190945290835260808201929092529087015161062991610e4c565b50610649565b61064761063c838561025e565b602088015190610e4c565b505b5050505050919050565b6106876040518060a00160405280600015158152602001606081526020016060815260200160608152602001606081525090565b8160405160200161069891906119ee565b60405160208183030381529060405280519060200120836040516020016106bf91906119ee565b60408051601f19818403018152919052805160209091012014808252610718576106e883610ebc565b6106f183610ebc565b604051602001610702929190611950565b60408051601f1981840301815291905260208201525b61072183610ebc565b60408201526102ec82610ebc565b6107636040518060a00160405280600015158152602001606081526020016060815260200160608152602001606081525090565b816040516020016107749190611a50565b604051602081830303815290604052805190602001208360405160200161079b9190611a50565b60408051601f198184030181529190528051602090910120148082526107f4576107c483610f91565b6107cd83610f91565b6040516020016107de929190611950565b60408051601f1981840301815291905260208201525b6107fd83610f91565b60408201526102ec82610f91565b61083f6040518060a00160405280600015158152602001606081526020016060815260200160608152602001606081525090565b81151580825261086857604051806060016040528060228152602001611d1b6022913960208201525b600182151514610895576040518060400160405280600581526020016466616c736560d81b8152506108b3565b604051806040016040528060048152602001637472756560e01b8152505b6040808301919091528051602080820183526000825260608401919091528151808301909252600682527f6973547275650000000000000000000000000000000000000000000000000000908201526080820152919050565b6109406040518060a00160405280600015158152602001606081526020016060815260200160608152602001606081525090565b6001600160a01b038381169083168114158252600090610961906014610b4f565b8251909150610991578060405160200161097b9190611a9d565b60408051601f1981840301815291905260208301525b60408083019190915280516020808201835260008252606084019190915281518083019092526005825264195c5d585b60da1b90820152608082015292915050565b610a076040518060a00160405280600015158152602001606081526020016060815260200160608152602001606081525090565b81604051602001610a189190611b08565b6040516020818303038152906040528051906020012083604051602001610a3f9190611b08565b60408051601f19818403018152919052805160209091012014808252610a9857610a688361106d565b610a718361106d565b604051602001610a82929190611950565b60408051601f1981840301815291905260208201525b610aa18361106d565b60408201526102ec8261106d565b60606000610abc8361113e565b600101905060008167ffffffffffffffff811115610adc57610adc611388565b6040519080825280601f01601f191660200182016040528015610b06576020820181803683370190505b5090508181016020015b600019017f3031323334353637383961626364656600000000000000000000000000000000600a86061a8153600a8504945084610b1057509392505050565b60606000610b5e836002611b56565b610b69906002611b6d565b67ffffffffffffffff811115610b8157610b81611388565b6040519080825280601f01601f191660200182016040528015610bab576020820181803683370190505b5090507f300000000000000000000000000000000000000000000000000000000000000081600081518110610be257610be2611b80565b60200101906001600160f81b031916908160001a9053507f780000000000000000000000000000000000000000000000000000000000000081600181518110610c2d57610c2d611b80565b60200101906001600160f81b031916908160001a9053506000610c51846002611b56565b610c5c906001611b6d565b90505b6001811115610ce1577f303132333435363738396162636465660000000000000000000000000000000085600f1660108110610c9d57610c9d611b80565b1a60f81b828281518110610cb357610cb3611b80565b60200101906001600160f81b031916908160001a90535060049490941c93610cda81611b96565b9050610c5f565b508315610d4e576040517f08c379a000000000000000000000000000000000000000000000000000000000815260206004820181905260248201527f537472696e67733a20686578206c656e67746820696e73756666696369656e74604482015260640160405180910390fd5b90505b92915050565b60408051808201825260608152600060208201528151600480825260a082019093529091816020015b610db46040518060a00160405280600015158152602001606081526020016060815260200160608152602001606081525090565b815260200190600190039081610d805750508252506000602082015290565b600080826001600160a01b03166350dca6ab6040518163ffffffff1660e01b81526004016020604051808303816000875af1925050508015610e32575060408051601f3d908101601f19168201909252610e2f91810190611bad565b60015b610e425750600092600192509050565b9360009350915050565b604080518082019091526060815260006020820152825151602084015103610e7a57610e7783611220565b92505b818360000151846020015181518110610e9557610e95611b80565b6020026020010181905250826020018051809190610eb290611bc6565b9052509192915050565b6040805180820190915260018152605b60f81b602082015260609060005b8351811015610f8a5760018451610ef19190611bdf565b811015610f3a5781848281518110610f0b57610f0b611b80565b6020026020010151604051602001610f24929190611bf2565b6040516020818303038152906040529150610f78565b81848281518110610f4d57610f4d611b80565b6020026020010151604051602001610f66929190611c49565b60405160208183030381529060405291505b80610f8281611bc6565b915050610eda565b5092915050565b6040805180820190915260018152605b60f81b602082015260609060005b8351811015610f8a5760018451610fc69190611bdf565b8110156110225781610ffb858381518110610fe357610fe3611b80565b60200260200101516001600160a01b03166014610b4f565b60405160200161100c929190611bf2565b604051602081830303815290604052915061105b565b81611038858381518110610fe357610fe3611b80565b604051602001611049929190611c49565b60405160208183030381529060405291505b8061106581611bc6565b915050610faf565b6040805180820190915260018152605b60f81b602082015260609060005b8351811015610f8a57600184516110a29190611bdf565b8110156110f357816110cc8583815181106110bf576110bf611b80565b6020026020010151610aaf565b6040516020016110dd929190611bf2565b604051602081830303815290604052915061112c565b816111098583815181106110bf576110bf611b80565b60405160200161111a929190611c49565b60405160208183030381529060405291505b8061113681611bc6565b91505061108b565b6000807a184f03e93ff9f4daa797ed6e38ed64bf6a1f0100000000000000008310611187577a184f03e93ff9f4daa797ed6e38ed64bf6a1f010000000000000000830492506040015b6d04ee2d6d415b85acef810000000083106111b3576d04ee2d6d415b85acef8100000000830492506020015b662386f26fc1000083106111d157662386f26fc10000830492506010015b6305f5e10083106111e9576305f5e100830492506008015b61271083106111fd57612710830492506004015b6064831061120f576064830492506002015b600a8310610d515760010192915050565b60408051808201909152606081526000602082015260408051808201909152606081526000602082015282515160029061125b906003611b56565b6112659190611ca0565b67ffffffffffffffff81111561127d5761127d611388565b6040519080825280602002602001820160405280156112e257816020015b6112cf6040518060a00160405280600015158152602001606081526020016060815260200160608152602001606081525090565b81526020019060019003908161129b5790505b50815260005b83515181101561134257835180518290811061130657611306611b80565b60200260200101518260000151828151811061132457611324611b80565b6020026020010181905250808061133a90611bc6565b9150506112e8565b50602092830151928101929092525090565b604051806040016040528060608152602001611383604051806040016040528060608152602001600081525090565b905290565b634e487b7160e01b600052604160045260246000fd5b604051601f8201601f1916810167ffffffffffffffff811182821017156113c7576113c7611388565b604052919050565b600082601f8301126113e057600080fd5b813567ffffffffffffffff8111156113fa576113fa611388565b61140d601f8201601f191660200161139e565b81815284602083860101111561142257600080fd5b816020850160208301376000918101602001919091529392505050565b6000806040838503121561145257600080fd5b823567ffffffffffffffff8082111561146a57600080fd5b611476868387016113cf565b9350602085013591508082111561148c57600080fd5b50611499858286016113cf565b9150509250929050565b60005b838110156114be5781810151838201526020016114a6565b50506000910152565b600081518084526114df8160208601602086016114a3565b601f01601f19169290920160200192915050565b8051151582526000602082015160a0602085015261151460a08501826114c7565b90506040830151848203604086015261152d82826114c7565b9150506060830151848203606086015261154782826114c7565b9150506080830151848203608086015261156182826114c7565b95945050505050565b60208152600061157d60208301846114f3565b9392505050565b6000806040838503121561159757600080fd5b50508035926020909101359150565b6001600160a01b03811681146115bb57600080fd5b50565b600080604083850312156115d157600080fd5b82356115dc816115a6565b915060208301356115ec816115a6565b809150509250929050565b60006020828403121561160957600080fd5b81358015158114610d4e57600080fd5b60006020828403121561162b57600080fd5b8135610d4e816115a6565b60006020808352835160408285015261165260608501826114c7565b905081850151601f198583030160408601526040820181516040845281815180845260608601915060608160051b8701019350868301925060005b818110156116bb57605f198786030183526116a98585516114f3565b9450928701929187019160010161168d565b505050509083015191909201529392505050565b600067ffffffffffffffff8211156116e9576116e9611388565b5060051b60200190565b600082601f83011261170457600080fd5b81356020611719611714836116cf565b61139e565b82815260059290921b8401810191818101908684111561173857600080fd5b8286015b8481101561177857803567ffffffffffffffff81111561175c5760008081fd5b61176a8986838b01016113cf565b84525091830191830161173c565b509695505050505050565b6000806040838503121561179657600080fd5b823567ffffffffffffffff808211156117ae57600080fd5b6117ba868387016116f3565b935060208501359150808211156117d057600080fd5b50611499858286016116f3565b600082601f8301126117ee57600080fd5b813560206117fe611714836116cf565b82815260059290921b8401810191818101908684111561181d57600080fd5b8286015b84811015611778578035611834816115a6565b8352918301918301611821565b6000806040838503121561185457600080fd5b823567ffffffffffffffff8082111561186c57600080fd5b611878868387016117dd565b9350602085013591508082111561188e57600080fd5b50611499858286016117dd565b600082601f8301126118ac57600080fd5b813560206118bc611714836116cf565b82815260059290921b840181019181810190868411156118db57600080fd5b8286015b8481101561177857803583529183019183016118df565b6000806040838503121561190957600080fd5b823567ffffffffffffffff8082111561192157600080fd5b61192d8683870161189b565b9350602085013591508082111561194357600080fd5b506114998582860161189b565b7f417373657274696f6e4572726f723a20000000000000000000000000000000008152600083516119888160108501602088016114a3565b7f206973206e6f7420657175616c20746f2000000000000000000000000000000060109184019182015283516119c58160218401602088016114a3565b01602101949350505050565b6000602082840312156119e357600080fd5b8151610d4e816115a6565b6000602080830181845280855180835260408601915060408160051b870101925083870160005b82811015611a4357603f19888603018452611a318583516114c7565b94509285019290850190600101611a15565b5092979650505050505050565b6020808252825182820181905260009190848201906040850190845b81811015611a915783516001600160a01b031683529284019291840191600101611a6c565b50909695505050505050565b7f417373657274696f6e4572726f723a200000000000000000000000000000000081527f20426f74682076616c7565732061726500000000000000000000000000000000601082015260008251611afb8160208501602087016114a3565b9190910160200192915050565b6020808252825182820181905260009190848201906040850190845b81811015611a9157835183529284019291840191600101611b24565b634e487b7160e01b600052601160045260246000fd5b8082028115828204841417610d5157610d51611b40565b80820180821115610d5157610d51611b40565b634e487b7160e01b600052603260045260246000fd5b600081611ba557611ba5611b40565b506000190190565b600060208284031215611bbf57600080fd5b5051919050565b600060018201611bd857611bd8611b40565b5060010190565b81810381811115610d5157610d51611b40565b60008351611c048184602088016114a3565b835190830190611c188183602088016114a3565b7f2c200000000000000000000000000000000000000000000000000000000000009101908152600201949350505050565b60008351611c5b8184602088016114a3565b835190830190611c6f8183602088016114a3565b7f5d000000000000000000000000000000000000000000000000000000000000009101908152600101949350505050565b600082611cbd57634e487b7160e01b600052601260045260246000fd5b50049056fe456e67696e656572696e67206d616e616765722073686f756c64206861766520636f727265637420616e6e75616c2073616c617279417373657274696f6e4572726f723a20726573756c74206973206e6f742066616c7365417373657274696f6e4572726f723a20726573756c74206973206e6f742074727565a26469706673582212203974c9a77250b7f7e165fd5f51feac334dfc1ec0b331af7775c653c228a089d464736f6c63430008110033608060405234801561001057600080fd5b50611d6d806100206000396000f3fe608060405234801561001057600080fd5b50600436106100c95760003560e01c80634b64e4921161008157806374f130701161005b57806374f1307014610176578063d70968e714610189578063e7da4c7e1461019c57600080fd5b80634b64e4921461013057806360fb55d5146101505780636df864781461016357600080fd5b806331495d33116100b257806331495d331461010a578063410dbb8b1461011d57806346bdca9a146100ce57600080fd5b8063235266d2146100ce57806330191626146100f7575b600080fd5b6100e16100dc36600461143e565b6101af565b6040516100ee9190611569565b60405180910390f35b6100e1610105366004611583565b61025e565b6100e16101183660046115bd565b610318565b6100e161012b3660046115f6565b6103e9565b61014361013e366004611618565b6104e9565b6040516100ee9190611635565b6100e161015e366004611782565b610652565b6100e1610171366004611840565b61072e565b6100e16101843660046115f6565b61080a565b6100e16101973660046115bd565b61090b565b6100e16101aa3660046118f5565b6109d2565b6101e36040518060a00160405280600015158152602001606081526020016060815260200160608152602001606081525090565b81516020808401919091208451918501919091201480825261022857828260405160200161021292919061194f565b60408051601f1981840301815291905260208201525b604080820193909352606081019190915281518083019092526005825264195c5d585b60da1b6020830152608081019190915290565b6102926040518060a00160405280600015158152602001606081526020016060815260200160608152602001606081525090565b8282148082526102d5576102a583610aae565b6102ae83610aae565b6040516020016102bf92919061194f565b60408051601f1981840301815291905260208201525b6102de83610aae565b60408201526102ec82610aae565b6060820152604080518082019091526005815264195c5d585b60da1b6020820152608082015292915050565b61034c6040518060a00160405280600015158152602001606081526020016060815260200160608152602001606081525090565b6001600160a01b038381169083168114825260009061036c906014610b4e565b90506000610384846001600160a01b03166014610b4e565b83519091506103b65781816040516020016103a092919061194f565b60408051601f1981840301815291905260208401525b604080840192909252606083015280518082019091526005815264195c5d585b60da1b6020820152608082015292915050565b61041d6040518060a00160405280600015158152602001606081526020016060815260200160608152602001606081525090565b811580825261044557604051806060016040528060238152602001611cc26023913960208201525b600182151514610472576040518060400160405280600581526020016466616c736560d81b815250610490565b604051806040016040528060048152602001637472756560e01b8152505b6040808301919091528051602080820183526000825260608401919091528151808301909252600782527f697346616c736500000000000000000000000000000000000000000000000000908201526080820152919050565b6104f1611353565b6000826001600160a01b031663687981dd6040518163ffffffff1660e01b81526004016020604051808303816000875af1158015610533573d6000803e3d6000fd5b505050506040513d601f19601f8201168201806040525081019061055791906119d0565b9050600081905061056b8360200151610d56565b50604051806060016040528060318152602001611d0760319139835261d43160008061059684610dd2565b91509150801561062e576040805160a081018252600080825282518084018452601a81527f43616c6c20746f20696e6865726974616e6365206661696c6564000000000000602082810191909152808401919091528351808201855282815283850152835180820185528281526060840152835180820190945290835260808201929092529087015161062891610e4b565b50610648565b61064661063b838561025e565b602088015190610e4b565b505b5050505050919050565b6106866040518060a00160405280600015158152602001606081526020016060815260200160608152602001606081525090565b8160405160200161069791906119ed565b60405160208183030381529060405280519060200120836040516020016106be91906119ed565b60408051601f19818403018152919052805160209091012014808252610717576106e783610ebb565b6106f083610ebb565b60405160200161070192919061194f565b60408051601f1981840301815291905260208201525b61072083610ebb565b60408201526102ec82610ebb565b6107626040518060a00160405280600015158152602001606081526020016060815260200160608152602001606081525090565b816040516020016107739190611a4f565b604051602081830303815290604052805190602001208360405160200161079a9190611a4f565b60408051601f198184030181529190528051602090910120148082526107f3576107c383610f90565b6107cc83610f90565b6040516020016107dd92919061194f565b60408051601f1981840301815291905260208201525b6107fc83610f90565b60408201526102ec82610f90565b61083e6040518060a00160405280600015158152602001606081526020016060815260200160608152602001606081525090565b81151580825261086757604051806060016040528060228152602001611ce56022913960208201525b600182151514610894576040518060400160405280600581526020016466616c736560d81b8152506108b2565b604051806040016040528060048152602001637472756560e01b8152505b6040808301919091528051602080820183526000825260608401919091528151808301909252600682527f6973547275650000000000000000000000000000000000000000000000000000908201526080820152919050565b61093f6040518060a00160405280600015158152602001606081526020016060815260200160608152602001606081525090565b6001600160a01b038381169083168114158252600090610960906014610b4e565b8251909150610990578060405160200161097a9190611a9c565b60408051601f1981840301815291905260208301525b60408083019190915280516020808201835260008252606084019190915281518083019092526005825264195c5d585b60da1b90820152608082015292915050565b610a066040518060a00160405280600015158152602001606081526020016060815260200160608152602001606081525090565b81604051602001610a179190611b07565b6040516020818303038152906040528051906020012083604051602001610a3e9190611b07565b60408051601f19818403018152919052805160209091012014808252610a9757610a678361106c565b610a708361106c565b604051602001610a8192919061194f565b60408051601f1981840301815291905260208201525b610aa08361106c565b60408201526102ec8261106c565b60606000610abb8361113d565b600101905060008167ffffffffffffffff811115610adb57610adb611387565b6040519080825280601f01601f191660200182016040528015610b05576020820181803683370190505b5090508181016020015b600019017f3031323334353637383961626364656600000000000000000000000000000000600a86061a8153600a8504945084610b0f57509392505050565b60606000610b5d836002611b55565b610b68906002611b6c565b67ffffffffffffffff811115610b8057610b80611387565b6040519080825280601f01601f191660200182016040528015610baa576020820181803683370190505b5090507f300000000000000000000000000000000000000000000000000000000000000081600081518110610be157610be1611b7f565b60200101906001600160f81b031916908160001a9053507f780000000000000000000000000000000000000000000000000000000000000081600181518110610c2c57610c2c611b7f565b60200101906001600160f81b031916908160001a9053506000610c50846002611b55565b610c5b906001611b6c565b90505b6001811115610ce0577f303132333435363738396162636465660000000000000000000000000000000085600f1660108110610c9c57610c9c611b7f565b1a60f81b828281518110610cb257610cb2611b7f565b60200101906001600160f81b031916908160001a90535060049490941c93610cd981611b95565b9050610c5e565b508315610d4d576040517f08c379a000000000000000000000000000000000000000000000000000000000815260206004820181905260248201527f537472696e67733a20686578206c656e67746820696e73756666696369656e74604482015260640160405180910390fd5b90505b92915050565b60408051808201825260608152600060208201528151600480825260a082019093529091816020015b610db36040518060a00160405280600015158152602001606081526020016060815260200160608152602001606081525090565b815260200190600190039081610d7f5750508252506000602082015290565b600080826001600160a01b0316633f83ea3b6040518163ffffffff1660e01b81526004016020604051808303816000875af1925050508015610e31575060408051601f3d908101601f19168201909252610e2e91810190611bac565b60015b610e415750600092600192509050565b9360009350915050565b604080518082019091526060815260006020820152825151602084015103610e7957610e768361121f565b92505b818360000151846020015181518110610e9457610e94611b7f565b6020026020010181905250826020018051809190610eb190611bc5565b9052509192915050565b6040805180820190915260018152605b60f81b602082015260609060005b8351811015610f895760018451610ef09190611bde565b811015610f395781848281518110610f0a57610f0a611b7f565b6020026020010151604051602001610f23929190611bf1565b6040516020818303038152906040529150610f77565b81848281518110610f4c57610f4c611b7f565b6020026020010151604051602001610f65929190611c48565b60405160208183030381529060405291505b80610f8181611bc5565b915050610ed9565b5092915050565b6040805180820190915260018152605b60f81b602082015260609060005b8351811015610f895760018451610fc59190611bde565b8110156110215781610ffa858381518110610fe257610fe2611b7f565b60200260200101516001600160a01b03166014610b4e565b60405160200161100b929190611bf1565b604051602081830303815290604052915061105a565b81611037858381518110610fe257610fe2611b7f565b604051602001611048929190611c48565b60405160208183030381529060405291505b8061106481611bc5565b915050610fae565b6040805180820190915260018152605b60f81b602082015260609060005b8351811015610f8957600184516110a19190611bde565b8110156110f257816110cb8583815181106110be576110be611b7f565b6020026020010151610aae565b6040516020016110dc929190611bf1565b604051602081830303815290604052915061112b565b816111088583815181106110be576110be611b7f565b604051602001611119929190611c48565b60405160208183030381529060405291505b8061113581611bc5565b91505061108a565b6000807a184f03e93ff9f4daa797ed6e38ed64bf6a1f0100000000000000008310611186577a184f03e93ff9f4daa797ed6e38ed64bf6a1f010000000000000000830492506040015b6d04ee2d6d415b85acef810000000083106111b2576d04ee2d6d415b85acef8100000000830492506020015b662386f26fc1000083106111d057662386f26fc10000830492506010015b6305f5e10083106111e8576305f5e100830492506008015b61271083106111fc57612710830492506004015b6064831061120e576064830492506002015b600a8310610d505760010192915050565b60408051808201909152606081526000602082015260408051808201909152606081526000602082015282515160029061125a906003611b55565b6112649190611c9f565b67ffffffffffffffff81111561127c5761127c611387565b6040519080825280602002602001820160405280156112e157816020015b6112ce6040518060a00160405280600015158152602001606081526020016060815260200160608152602001606081525090565b81526020019060019003908161129a5790505b50815260005b83515181101561134157835180518290811061130557611305611b7f565b60200260200101518260000151828151811061132357611323611b7f565b6020026020010181905250808061133990611bc5565b9150506112e7565b50602092830151928101929092525090565b604051806040016040528060608152602001611382604051806040016040528060608152602001600081525090565b905290565b634e487b7160e01b600052604160045260246000fd5b604051601f8201601f1916810167ffffffffffffffff811182821017156113c6576113c6611387565b604052919050565b600082601f8301126113df57600080fd5b813567ffffffffffffffff8111156113f9576113f9611387565b61140c601f8201601f191660200161139d565b81815284602083860101111561142157600080fd5b816020850160208301376000918101602001919091529392505050565b6000806040838503121561145157600080fd5b823567ffffffffffffffff8082111561146957600080fd5b611475868387016113ce565b9350602085013591508082111561148b57600080fd5b50611498858286016113ce565b9150509250929050565b60005b838110156114bd5781810151838201526020016114a5565b50506000910152565b600081518084526114de8160208601602086016114a2565b601f01601f19169290920160200192915050565b8051151582526000602082015160a0602085015261151360a08501826114c6565b90506040830151848203604086015261152c82826114c6565b9150506060830151848203606086015261154682826114c6565b9150506080830151848203608086015261156082826114c6565b95945050505050565b60208152600061157c60208301846114f2565b9392505050565b6000806040838503121561159657600080fd5b50508035926020909101359150565b6001600160a01b03811681146115ba57600080fd5b50565b600080604083850312156115d057600080fd5b82356115db816115a5565b915060208301356115eb816115a5565b809150509250929050565b60006020828403121561160857600080fd5b81358015158114610d4d57600080fd5b60006020828403121561162a57600080fd5b8135610d4d816115a5565b60006020808352835160408285015261165160608501826114c6565b905081850151601f198583030160408601526040820181516040845281815180845260608601915060608160051b8701019350868301925060005b818110156116ba57605f198786030183526116a88585516114f2565b9450928701929187019160010161168c565b505050509083015191909201529392505050565b600067ffffffffffffffff8211156116e8576116e8611387565b5060051b60200190565b600082601f83011261170357600080fd5b81356020611718611713836116ce565b61139d565b82815260059290921b8401810191818101908684111561173757600080fd5b8286015b8481101561177757803567ffffffffffffffff81111561175b5760008081fd5b6117698986838b01016113ce565b84525091830191830161173b565b509695505050505050565b6000806040838503121561179557600080fd5b823567ffffffffffffffff808211156117ad57600080fd5b6117b9868387016116f2565b935060208501359150808211156117cf57600080fd5b50611498858286016116f2565b600082601f8301126117ed57600080fd5b813560206117fd611713836116ce565b82815260059290921b8401810191818101908684111561181c57600080fd5b8286015b84811015611777578035611833816115a5565b8352918301918301611820565b6000806040838503121561185357600080fd5b823567ffffffffffffffff8082111561186b57600080fd5b611877868387016117dc565b9350602085013591508082111561188d57600080fd5b50611498858286016117dc565b600082601f8301126118ab57600080fd5b813560206118bb611713836116ce565b82815260059290921b840181019181810190868411156118da57600080fd5b8286015b8481101561177757803583529183019183016118de565b6000806040838503121561190857600080fd5b823567ffffffffffffffff8082111561192057600080fd5b61192c8683870161189a565b9350602085013591508082111561194257600080fd5b506114988582860161189a565b7f417373657274696f6e4572726f723a20000000000000000000000000000000008152600083516119878160108501602088016114a2565b7f206973206e6f7420657175616c20746f2000000000000000000000000000000060109184019182015283516119c48160218401602088016114a2565b01602101949350505050565b6000602082840312156119e257600080fd5b8151610d4d816115a5565b6000602080830181845280855180835260408601915060408160051b870101925083870160005b82811015611a4257603f19888603018452611a308583516114c6565b94509285019290850190600101611a14565b5092979650505050505050565b6020808252825182820181905260009190848201906040850190845b81811015611a905783516001600160a01b031683529284019291840191600101611a6b565b50909695505050505050565b7f417373657274696f6e4572726f723a200000000000000000000000000000000081527f20426f74682076616c7565732061726500000000000000000000000000000000601082015260008251611afa8160208501602087016114a2565b9190910160200192915050565b6020808252825182820181905260009190848201906040850190845b81811015611a9057835183529284019291840191600101611b23565b634e487b7160e01b600052601160045260246000fd5b8082028115828204841417610d5057610d50611b3f565b80820180821115610d5057610d50611b3f565b634e487b7160e01b600052603260045260246000fd5b600081611ba457611ba4611b3f565b506000190190565b600060208284031215611bbe57600080fd5b5051919050565b600060018201611bd757611bd7611b3f565b5060010190565b81810381811115610d5057610d50611b3f565b60008351611c038184602088016114a2565b835190830190611c178183602088016114a2565b7f2c200000000000000000000000000000000000000000000000000000000000009101908152600201949350505050565b60008351611c5a8184602088016114a2565b835190830190611c6e8183602088016114a2565b7f5d000000000000000000000000000000000000000000000000000000000000009101908152600101949350505050565b600082611cbc57634e487b7160e01b600052601260045260246000fd5b50049056fe417373657274696f6e4572726f723a20726573756c74206973206e6f742066616c7365417373657274696f6e4572726f723a20726573756c74206973206e6f742074727565456e67696e656572696e67206d616e616765722073686f756c64206861766520636f7272656374206964206e756d626572a2646970667358221220888b281ba467759c7fa272a6090fdeaf40e51c99a698a3da5f37741353afd16564736f6c63430008110033608060405234801561001057600080fd5b50611d6e806100206000396000f3fe608060405234801561001057600080fd5b50600436106100c95760003560e01c80634b64e4921161008157806374f130701161005b57806374f1307014610176578063d70968e714610189578063e7da4c7e1461019c57600080fd5b80634b64e4921461013057806360fb55d5146101505780636df864781461016357600080fd5b806331495d33116100b257806331495d331461010a578063410dbb8b1461011d57806346bdca9a146100ce57600080fd5b8063235266d2146100ce57806330191626146100f7575b600080fd5b6100e16100dc36600461143e565b6101af565b6040516100ee9190611569565b60405180910390f35b6100e1610105366004611583565b61025e565b6100e16101183660046115bd565b610318565b6100e161012b3660046115f6565b6103e9565b61014361013e366004611618565b6104e9565b6040516100ee9190611635565b6100e161015e366004611782565b610652565b6100e1610171366004611840565b61072e565b6100e16101843660046115f6565b61080a565b6100e16101973660046115bd565b61090b565b6100e16101aa3660046118f5565b6109d2565b6101e36040518060a00160405280600015158152602001606081526020016060815260200160608152602001606081525090565b81516020808401919091208451918501919091201480825261022857828260405160200161021292919061194f565b60408051601f1981840301815291905260208201525b604080820193909352606081019190915281518083019092526005825264195c5d585b60da1b6020830152608081019190915290565b6102926040518060a00160405280600015158152602001606081526020016060815260200160608152602001606081525090565b8282148082526102d5576102a583610aae565b6102ae83610aae565b6040516020016102bf92919061194f565b60408051601f1981840301815291905260208201525b6102de83610aae565b60408201526102ec82610aae565b6060820152604080518082019091526005815264195c5d585b60da1b6020820152608082015292915050565b61034c6040518060a00160405280600015158152602001606081526020016060815260200160608152602001606081525090565b6001600160a01b038381169083168114825260009061036c906014610b4e565b90506000610384846001600160a01b03166014610b4e565b83519091506103b65781816040516020016103a092919061194f565b60408051601f1981840301815291905260208401525b604080840192909252606083015280518082019091526005815264195c5d585b60da1b6020820152608082015292915050565b61041d6040518060a00160405280600015158152602001606081526020016060815260200160608152602001606081525090565b811580825261044557604051806060016040528060238152602001611cf46023913960208201525b600182151514610472576040518060400160405280600581526020016466616c736560d81b815250610490565b604051806040016040528060048152602001637472756560e01b8152505b6040808301919091528051602080820183526000825260608401919091528151808301909252600782527f697346616c736500000000000000000000000000000000000000000000000000908201526080820152919050565b6104f1611353565b6000826001600160a01b031663687981dd6040518163ffffffff1660e01b81526004016020604051808303816000875af1158015610533573d6000803e3d6000fd5b505050506040513d601f19601f8201168201806040525081019061055791906119d0565b9050600081905061056b8360200151610d56565b50604051806060016040528060328152602001611cc2603291398352612b6760008061059684610dd2565b91509150801561062e576040805160a081018252600080825282518084018452601a81527f43616c6c20746f20696e6865726974616e6365206661696c6564000000000000602082810191909152808401919091528351808201855282815283850152835180820185528281526060840152835180820190945290835260808201929092529087015161062891610e4b565b50610648565b61064661063b838561025e565b602088015190610e4b565b505b5050505050919050565b6106866040518060a00160405280600015158152602001606081526020016060815260200160608152602001606081525090565b8160405160200161069791906119ed565b60405160208183030381529060405280519060200120836040516020016106be91906119ed565b60408051601f19818403018152919052805160209091012014808252610717576106e783610ebb565b6106f083610ebb565b60405160200161070192919061194f565b60408051601f1981840301815291905260208201525b61072083610ebb565b60408201526102ec82610ebb565b6107626040518060a00160405280600015158152602001606081526020016060815260200160608152602001606081525090565b816040516020016107739190611a4f565b604051602081830303815290604052805190602001208360405160200161079a9190611a4f565b60408051601f198184030181529190528051602090910120148082526107f3576107c383610f90565b6107cc83610f90565b6040516020016107dd92919061194f565b60408051601f1981840301815291905260208201525b6107fc83610f90565b60408201526102ec82610f90565b61083e6040518060a00160405280600015158152602001606081526020016060815260200160608152602001606081525090565b81151580825261086757604051806060016040528060228152602001611d176022913960208201525b600182151514610894576040518060400160405280600581526020016466616c736560d81b8152506108b2565b604051806040016040528060048152602001637472756560e01b8152505b6040808301919091528051602080820183526000825260608401919091528151808301909252600682527f6973547275650000000000000000000000000000000000000000000000000000908201526080820152919050565b61093f6040518060a00160405280600015158152602001606081526020016060815260200160608152602001606081525090565b6001600160a01b038381169083168114158252600090610960906014610b4e565b8251909150610990578060405160200161097a9190611a9c565b60408051601f1981840301815291905260208301525b60408083019190915280516020808201835260008252606084019190915281518083019092526005825264195c5d585b60da1b90820152608082015292915050565b610a066040518060a00160405280600015158152602001606081526020016060815260200160608152602001606081525090565b81604051602001610a179190611b07565b6040516020818303038152906040528051906020012083604051602001610a3e9190611b07565b60408051601f19818403018152919052805160209091012014808252610a9757610a678361106c565b610a708361106c565b604051602001610a8192919061194f565b60408051601f1981840301815291905260208201525b610aa08361106c565b60408201526102ec8261106c565b60606000610abb8361113d565b600101905060008167ffffffffffffffff811115610adb57610adb611387565b6040519080825280601f01601f191660200182016040528015610b05576020820181803683370190505b5090508181016020015b600019017f3031323334353637383961626364656600000000000000000000000000000000600a86061a8153600a8504945084610b0f57509392505050565b60606000610b5d836002611b55565b610b68906002611b6c565b67ffffffffffffffff811115610b8057610b80611387565b6040519080825280601f01601f191660200182016040528015610baa576020820181803683370190505b5090507f300000000000000000000000000000000000000000000000000000000000000081600081518110610be157610be1611b7f565b60200101906001600160f81b031916908160001a9053507f780000000000000000000000000000000000000000000000000000000000000081600181518110610c2c57610c2c611b7f565b60200101906001600160f81b031916908160001a9053506000610c50846002611b55565b610c5b906001611b6c565b90505b6001811115610ce0577f303132333435363738396162636465660000000000000000000000000000000085600f1660108110610c9c57610c9c611b7f565b1a60f81b828281518110610cb257610cb2611b7f565b60200101906001600160f81b031916908160001a90535060049490941c93610cd981611b95565b9050610c5e565b508315610d4d576040517f08c379a000000000000000000000000000000000000000000000000000000000815260206004820181905260248201527f537472696e67733a20686578206c656e67746820696e73756666696369656e74604482015260640160405180910390fd5b90505b92915050565b60408051808201825260608152600060208201528151600480825260a082019093529091816020015b610db36040518060a00160405280600015158152602001606081526020016060815260200160608152602001606081525090565b815260200190600190039081610d7f5750508252506000602082015290565b600080826001600160a01b031663f5895a0a6040518163ffffffff1660e01b81526004016020604051808303816000875af1925050508015610e31575060408051601f3d908101601f19168201909252610e2e91810190611bac565b60015b610e415750600092600192509050565b9360009350915050565b604080518082019091526060815260006020820152825151602084015103610e7957610e768361121f565b92505b818360000151846020015181518110610e9457610e94611b7f565b6020026020010181905250826020018051809190610eb190611bc5565b9052509192915050565b6040805180820190915260018152605b60f81b602082015260609060005b8351811015610f895760018451610ef09190611bde565b811015610f395781848281518110610f0a57610f0a611b7f565b6020026020010151604051602001610f23929190611bf1565b6040516020818303038152906040529150610f77565b81848281518110610f4c57610f4c611b7f565b6020026020010151604051602001610f65929190611c48565b60405160208183030381529060405291505b80610f8181611bc5565b915050610ed9565b5092915050565b6040805180820190915260018152605b60f81b602082015260609060005b8351811015610f895760018451610fc59190611bde565b8110156110215781610ffa858381518110610fe257610fe2611b7f565b60200260200101516001600160a01b03166014610b4e565b60405160200161100b929190611bf1565b604051602081830303815290604052915061105a565b81611037858381518110610fe257610fe2611b7f565b604051602001611048929190611c48565b60405160208183030381529060405291505b8061106481611bc5565b915050610fae565b6040805180820190915260018152605b60f81b602082015260609060005b8351811015610f8957600184516110a19190611bde565b8110156110f257816110cb8583815181106110be576110be611b7f565b6020026020010151610aae565b6040516020016110dc929190611bf1565b604051602081830303815290604052915061112b565b816111088583815181106110be576110be611b7f565b604051602001611119929190611c48565b60405160208183030381529060405291505b8061113581611bc5565b91505061108a565b6000807a184f03e93ff9f4daa797ed6e38ed64bf6a1f0100000000000000008310611186577a184f03e93ff9f4daa797ed6e38ed64bf6a1f010000000000000000830492506040015b6d04ee2d6d415b85acef810000000083106111b2576d04ee2d6d415b85acef8100000000830492506020015b662386f26fc1000083106111d057662386f26fc10000830492506010015b6305f5e10083106111e8576305f5e100830492506008015b61271083106111fc57612710830492506004015b6064831061120e576064830492506002015b600a8310610d505760010192915050565b60408051808201909152606081526000602082015260408051808201909152606081526000602082015282515160029061125a906003611b55565b6112649190611c9f565b67ffffffffffffffff81111561127c5761127c611387565b6040519080825280602002602001820160405280156112e157816020015b6112ce6040518060a00160405280600015158152602001606081526020016060815260200160608152602001606081525090565b81526020019060019003908161129a5790505b50815260005b83515181101561134157835180518290811061130557611305611b7f565b60200260200101518260000151828151811061132357611323611b7f565b6020026020010181905250808061133990611bc5565b9150506112e7565b50602092830151928101929092525090565b604051806040016040528060608152602001611382604051806040016040528060608152602001600081525090565b905290565b634e487b7160e01b600052604160045260246000fd5b604051601f8201601f1916810167ffffffffffffffff811182821017156113c6576113c6611387565b604052919050565b600082601f8301126113df57600080fd5b813567ffffffffffffffff8111156113f9576113f9611387565b61140c601f8201601f191660200161139d565b81815284602083860101111561142157600080fd5b816020850160208301376000918101602001919091529392505050565b6000806040838503121561145157600080fd5b823567ffffffffffffffff8082111561146957600080fd5b611475868387016113ce565b9350602085013591508082111561148b57600080fd5b50611498858286016113ce565b9150509250929050565b60005b838110156114bd5781810151838201526020016114a5565b50506000910152565b600081518084526114de8160208601602086016114a2565b601f01601f19169290920160200192915050565b8051151582526000602082015160a0602085015261151360a08501826114c6565b90506040830151848203604086015261152c82826114c6565b9150506060830151848203606086015261154682826114c6565b9150506080830151848203608086015261156082826114c6565b95945050505050565b60208152600061157c60208301846114f2565b9392505050565b6000806040838503121561159657600080fd5b50508035926020909101359150565b6001600160a01b03811681146115ba57600080fd5b50565b600080604083850312156115d057600080fd5b82356115db816115a5565b915060208301356115eb816115a5565b809150509250929050565b60006020828403121561160857600080fd5b81358015158114610d4d57600080fd5b60006020828403121561162a57600080fd5b8135610d4d816115a5565b60006020808352835160408285015261165160608501826114c6565b905081850151601f198583030160408601526040820181516040845281815180845260608601915060608160051b8701019350868301925060005b818110156116ba57605f198786030183526116a88585516114f2565b9450928701929187019160010161168c565b505050509083015191909201529392505050565b600067ffffffffffffffff8211156116e8576116e8611387565b5060051b60200190565b600082601f83011261170357600080fd5b81356020611718611713836116ce565b61139d565b82815260059290921b8401810191818101908684111561173757600080fd5b8286015b8481101561177757803567ffffffffffffffff81111561175b5760008081fd5b6117698986838b01016113ce565b84525091830191830161173b565b509695505050505050565b6000806040838503121561179557600080fd5b823567ffffffffffffffff808211156117ad57600080fd5b6117b9868387016116f2565b935060208501359150808211156117cf57600080fd5b50611498858286016116f2565b600082601f8301126117ed57600080fd5b813560206117fd611713836116ce565b82815260059290921b8401810191818101908684111561181c57600080fd5b8286015b84811015611777578035611833816115a5565b8352918301918301611820565b6000806040838503121561185357600080fd5b823567ffffffffffffffff8082111561186b57600080fd5b611877868387016117dc565b9350602085013591508082111561188d57600080fd5b50611498858286016117dc565b600082601f8301126118ab57600080fd5b813560206118bb611713836116ce565b82815260059290921b840181019181810190868411156118da57600080fd5b8286015b8481101561177757803583529183019183016118de565b6000806040838503121561190857600080fd5b823567ffffffffffffffff8082111561192057600080fd5b61192c8683870161189a565b9350602085013591508082111561194257600080fd5b506114988582860161189a565b7f417373657274696f6e4572726f723a20000000000000000000000000000000008152600083516119878160108501602088016114a2565b7f206973206e6f7420657175616c20746f2000000000000000000000000000000060109184019182015283516119c48160218401602088016114a2565b01602101949350505050565b6000602082840312156119e257600080fd5b8151610d4d816115a5565b6000602080830181845280855180835260408601915060408160051b870101925083870160005b82811015611a4257603f19888603018452611a308583516114c6565b94509285019290850190600101611a14565b5092979650505050505050565b6020808252825182820181905260009190848201906040850190845b81811015611a905783516001600160a01b031683529284019291840191600101611a6b565b50909695505050505050565b7f417373657274696f6e4572726f723a200000000000000000000000000000000081527f20426f74682076616c7565732061726500000000000000000000000000000000601082015260008251611afa8160208501602087016114a2565b9190910160200192915050565b6020808252825182820181905260009190848201906040850190845b81811015611a9057835183529284019291840191600101611b23565b634e487b7160e01b600052601160045260246000fd5b8082028115828204841417610d5057610d50611b3f565b80820180821115610d5057610d50611b3f565b634e487b7160e01b600052603260045260246000fd5b600081611ba457611ba4611b3f565b506000190190565b600060208284031215611bbe57600080fd5b5051919050565b600060018201611bd757611bd7611b3f565b5060010190565b81810381811115610d5057610d50611b3f565b60008351611c038184602088016114a2565b835190830190611c178183602088016114a2565b7f2c200000000000000000000000000000000000000000000000000000000000009101908152600201949350505050565b60008351611c5a8184602088016114a2565b835190830190611c6e8183602088016114a2565b7f5d000000000000000000000000000000000000000000000000000000000000009101908152600101949350505050565b600082611cbc57634e487b7160e01b600052601260045260246000fd5b50049056fe456e67696e656572696e67206d616e616765722073686f756c64206861766520636f7272656374206d616e61676572206964417373657274696f6e4572726f723a20726573756c74206973206e6f742066616c7365417373657274696f6e4572726f723a20726573756c74206973206e6f742074727565a264697066735822122033a45016ef39870f1738a60eb202d9a17a7e7a17f8dda64f45d783a68db1493464736f6c63430008110033",
  "devdoc": {
    "kind": "dev",
    "methods": {
      "approve(address,uint256)": {
        "details": "See {IERC721-approve}."
      },
      "balanceOf(address)": {
        "details": "See {IERC721-balanceOf}."
      },
      "getApproved(uint256)": {
        "details": "See {IERC721-getApproved}."
      },
      "isApprovedForAll(address,address)": {
        "details": "See {IERC721-isApprovedForAll}."
      },
      "name()": {
        "details": "See {IERC721Metadata-name}."
      },
      "owner()": {
        "details": "Returns the address of the current owner."
      },
      "ownerOf(uint256)": {
        "details": "See {IERC721-ownerOf}."
      },
      "renounceOwnership()": {
        "details": "Leaves the contract without owner. It will not be possible to call `onlyOwner` functions anymore. Can only be called by the current owner. NOTE: Renouncing ownership will leave the contract without an owner, thereby removing any functionality that is only available to the owner."
      },
      "safeTransferFrom(address,address,uint256)": {
        "details": "See {IERC721-safeTransferFrom}."
      },
      "safeTransferFrom(address,address,uint256,bytes)": {
        "details": "See {IERC721-safeTransferFrom}."
      },
      "setApprovalForAll(address,bool)": {
        "details": "See {IERC721-setApprovalForAll}."
      },
      "supportsInterface(bytes4)": {
        "details": "See {IERC165-supportsInterface}."
      },
      "symbol()": {
        "details": "See {IERC721Metadata-symbol}."
      },
      "transferFrom(address,address,uint256)": {
        "details": "See {IERC721-transferFrom}."
      },
      "transferOwnership(address)": {
        "details": "Transfers ownership of the contract to a new account (`newOwner`). Can only be called by the current owner."
      }
    },
    "version": 1
  },
  "userdoc": {
    "kind": "user",
    "methods": {
      "checkIfAllPassed((string,((bool,string,string,string,string)[],uint256))[])": {
        "notice": "Check each assert in each test to see if any failed. Note:  The check is here instead of setting a `passed` bool in `TestResult` to reduce the amount of code in each unit test."
      }
    },
    "version": 1
  },
  "storageLayout": {
    "storage": [
      {
        "astId": 192,
        "contract": "contracts/InheritanceUnitTest.sol:InheritanceUnitTest",
        "label": "_name",
        "offset": 0,
        "slot": "0",
        "type": "t_string_storage"
      },
      {
        "astId": 194,
        "contract": "contracts/InheritanceUnitTest.sol:InheritanceUnitTest",
        "label": "_symbol",
        "offset": 0,
        "slot": "1",
        "type": "t_string_storage"
      },
      {
        "astId": 198,
        "contract": "contracts/InheritanceUnitTest.sol:InheritanceUnitTest",
        "label": "_owners",
        "offset": 0,
        "slot": "2",
        "type": "t_mapping(t_uint256,t_address)"
      },
      {
        "astId": 202,
        "contract": "contracts/InheritanceUnitTest.sol:InheritanceUnitTest",
        "label": "_balances",
        "offset": 0,
        "slot": "3",
        "type": "t_mapping(t_address,t_uint256)"
      },
      {
        "astId": 206,
        "contract": "contracts/InheritanceUnitTest.sol:InheritanceUnitTest",
        "label": "_tokenApprovals",
        "offset": 0,
        "slot": "4",
        "type": "t_mapping(t_uint256,t_address)"
      },
      {
        "astId": 212,
        "contract": "contracts/InheritanceUnitTest.sol:InheritanceUnitTest",
        "label": "_operatorApprovals",
        "offset": 0,
        "slot": "5",
        "type": "t_mapping(t_address,t_mapping(t_address,t_bool))"
      },
      {
        "astId": 7,
        "contract": "contracts/InheritanceUnitTest.sol:InheritanceUnitTest",
        "label": "_owner",
        "offset": 0,
        "slot": "6",
        "type": "t_address"
      },
      {
        "astId": 123,
        "contract": "contracts/InheritanceUnitTest.sol:InheritanceUnitTest",
        "label": "_status",
        "offset": 0,
        "slot": "7",
        "type": "t_uint256"
      },
      {
        "astId": 3883,
        "contract": "contracts/InheritanceUnitTest.sol:InheritanceUnitTest",
        "label": "tokenIds",
        "offset": 0,
        "slot": "8",
        "type": "t_struct(Counter)1630_storage"
      },
      {
        "astId": 3887,
        "contract": "contracts/InheritanceUnitTest.sol:InheritanceUnitTest",
        "label": "owners",
        "offset": 0,
        "slot": "9",
        "type": "t_mapping(t_address,t_bool)"
      },
      {
        "astId": 3891,
        "contract": "contracts/InheritanceUnitTest.sol:InheritanceUnitTest",
        "label": "submittedContracts",
        "offset": 0,
        "slot": "10",
        "type": "t_mapping(t_address,t_bool)"
      },
      {
        "astId": 3894,
        "contract": "contracts/InheritanceUnitTest.sol:InheritanceUnitTest",
        "label": "active",
        "offset": 0,
        "slot": "11",
        "type": "t_bool"
      },
      {
        "astId": 3897,
        "contract": "contracts/InheritanceUnitTest.sol:InheritanceUnitTest",
        "label": "AllTokenURI",
        "offset": 0,
        "slot": "12",
        "type": "t_string_storage"
      },
      {
        "astId": 3917,
        "contract": "contracts/InheritanceUnitTest.sol:InheritanceUnitTest",
        "label": "tests",
        "offset": 0,
        "slot": "13",
        "type": "t_array(t_contract(ITest)3853)dyn_storage"
      },
      {
        "astId": 3921,
        "contract": "contracts/InheritanceUnitTest.sol:InheritanceUnitTest",
        "label": "deployer",
        "offset": 0,
        "slot": "14",
        "type": "t_contract(IDeploy)3864"
      }
    ],
    "types": {
      "t_address": {
        "encoding": "inplace",
        "label": "address",
        "numberOfBytes": "20"
      },
      "t_array(t_contract(ITest)3853)dyn_storage": {
        "base": "t_contract(ITest)3853",
        "encoding": "dynamic_array",
        "label": "contract ITest[]",
        "numberOfBytes": "32"
      },
      "t_bool": {
        "encoding": "inplace",
        "label": "bool",
        "numberOfBytes": "1"
      },
      "t_contract(IDeploy)3864": {
        "encoding": "inplace",
        "label": "contract IDeploy",
        "numberOfBytes": "20"
      },
      "t_contract(ITest)3853": {
        "encoding": "inplace",
        "label": "contract ITest",
        "numberOfBytes": "20"
      },
      "t_mapping(t_address,t_bool)": {
        "encoding": "mapping",
        "key": "t_address",
        "label": "mapping(address => bool)",
        "numberOfBytes": "32",
        "value": "t_bool"
      },
      "t_mapping(t_address,t_mapping(t_address,t_bool))": {
        "encoding": "mapping",
        "key": "t_address",
        "label": "mapping(address => mapping(address => bool))",
        "numberOfBytes": "32",
        "value": "t_mapping(t_address,t_bool)"
      },
      "t_mapping(t_address,t_uint256)": {
        "encoding": "mapping",
        "key": "t_address",
        "label": "mapping(address => uint256)",
        "numberOfBytes": "32",
        "value": "t_uint256"
      },
      "t_mapping(t_uint256,t_address)": {
        "encoding": "mapping",
        "key": "t_uint256",
        "label": "mapping(uint256 => address)",
        "numberOfBytes": "32",
        "value": "t_address"
      },
      "t_string_storage": {
        "encoding": "bytes",
        "label": "string",
        "numberOfBytes": "32"
      },
      "t_struct(Counter)1630_storage": {
        "encoding": "inplace",
        "label": "struct Counters.Counter",
        "members": [
          {
            "astId": 1629,
            "contract": "contracts/InheritanceUnitTest.sol:InheritanceUnitTest",
            "label": "_value",
            "offset": 0,
            "slot": "0",
            "type": "t_uint256"
          }
        ],
        "numberOfBytes": "32"
      },
      "t_uint256": {
        "encoding": "inplace",
        "label": "uint256",
        "numberOfBytes": "32"
      }
    }
  }
}