{
  "address": "0xcf3a9cb9e5146EA7e9D9C20717eE33E737F96211",
  "abi": [
    {
      "inputs": [
        {
          "internalType": "address",
          "name": "_secondCallerAddress",
          "type": "address"
        }
      ],
      "stateMutability": "nonpayable",
      "type": "constructor"
    },
    {
      "inputs": [],
      "name": "NotActive",
      "type": "error"
    },
    {
      "inputs": [],
      "name": "SoulboundToken",
      "type": "error"
    },
    {
      "anonymous": false,
      "inputs": [
        {
          "indexed": true,
          "internalType": "address",
          "name": "owner",
          "type": "address"
        },
        {
          "indexed": true,
          "internalType": "address",
          "name": "approved",
          "type": "address"
        },
        {
          "indexed": true,
          "internalType": "uint256",
          "name": "tokenId",
          "type": "uint256"
        }
      ],
      "name": "Approval",
      "type": "event"
    },
    {
      "anonymous": false,
      "inputs": [
        {
          "indexed": true,
          "internalType": "address",
          "name": "owner",
          "type": "address"
        },
        {
          "indexed": true,
          "internalType": "address",
          "name": "operator",
          "type": "address"
        },
        {
          "indexed": false,
          "internalType": "bool",
          "name": "approved",
          "type": "bool"
        }
      ],
      "name": "ApprovalForAll",
      "type": "event"
    },
    {
      "anonymous": false,
      "inputs": [
        {
          "indexed": true,
          "internalType": "address",
          "name": "previousOwner",
          "type": "address"
        },
        {
          "indexed": true,
          "internalType": "address",
          "name": "newOwner",
          "type": "address"
        }
      ],
      "name": "OwnershipTransferred",
      "type": "event"
    },
    {
      "anonymous": false,
      "inputs": [
        {
          "indexed": false,
          "internalType": "address",
          "name": "submission",
          "type": "address"
        },
        {
          "indexed": false,
          "internalType": "bool",
          "name": "passed",
          "type": "bool"
        },
        {
          "components": [
            {
              "internalType": "string",
              "name": "message",
              "type": "string"
            },
            {
              "components": [
                {
                  "components": [
                    {
                      "internalType": "bool",
                      "name": "passed",
                      "type": "bool"
                    },
                    {
                      "internalType": "string",
                      "name": "assertionError",
                      "type": "string"
                    },
                    {
                      "internalType": "string",
                      "name": "returnedAsString",
                      "type": "string"
                    },
                    {
                      "internalType": "string",
                      "name": "expectedAsString",
                      "type": "string"
                    },
                    {
                      "internalType": "string",
                      "name": "methodName",
                      "type": "string"
                    }
                  ],
                  "internalType": "struct Assert.AssertResult[]",
                  "name": "elements",
                  "type": "tuple[]"
                },
                {
                  "internalType": "uint256",
                  "name": "num",
                  "type": "uint256"
                }
              ],
              "internalType": "struct List.ARList",
              "name": "assertResults",
              "type": "tuple"
            }
          ],
          "indexed": false,
          "internalType": "struct Cafe.TestResult[]",
          "name": "testResults",
          "type": "tuple[]"
        }
      ],
      "name": "TestSuiteResult",
      "type": "event"
    },
    {
      "anonymous": false,
      "inputs": [
        {
          "indexed": true,
          "internalType": "address",
          "name": "from",
          "type": "address"
        },
        {
          "indexed": true,
          "internalType": "address",
          "name": "to",
          "type": "address"
        },
        {
          "indexed": true,
          "internalType": "uint256",
          "name": "tokenId",
          "type": "uint256"
        }
      ],
      "name": "Transfer",
      "type": "event"
    },
    {
      "inputs": [
        {
          "internalType": "address",
          "name": "to",
          "type": "address"
        },
        {
          "internalType": "uint256",
          "name": "tokenId",
          "type": "uint256"
        }
      ],
      "name": "approve",
      "outputs": [],
      "stateMutability": "nonpayable",
      "type": "function"
    },
    {
      "inputs": [
        {
          "internalType": "address",
          "name": "owner",
          "type": "address"
        }
      ],
      "name": "balanceOf",
      "outputs": [
        {
          "internalType": "uint256",
          "name": "",
          "type": "uint256"
        }
      ],
      "stateMutability": "view",
      "type": "function"
    },
    {
      "inputs": [
        {
          "components": [
            {
              "internalType": "string",
              "name": "message",
              "type": "string"
            },
            {
              "components": [
                {
                  "components": [
                    {
                      "internalType": "bool",
                      "name": "passed",
                      "type": "bool"
                    },
                    {
                      "internalType": "string",
                      "name": "assertionError",
                      "type": "string"
                    },
                    {
                      "internalType": "string",
                      "name": "returnedAsString",
                      "type": "string"
                    },
                    {
                      "internalType": "string",
                      "name": "expectedAsString",
                      "type": "string"
                    },
                    {
                      "internalType": "string",
                      "name": "methodName",
                      "type": "string"
                    }
                  ],
                  "internalType": "struct Assert.AssertResult[]",
                  "name": "elements",
                  "type": "tuple[]"
                },
                {
                  "internalType": "uint256",
                  "name": "num",
                  "type": "uint256"
                }
              ],
              "internalType": "struct List.ARList",
              "name": "assertResults",
              "type": "tuple"
            }
          ],
          "internalType": "struct Cafe.TestResult[]",
          "name": "_testResults",
          "type": "tuple[]"
        }
      ],
      "name": "checkIfAllPassed",
      "outputs": [
        {
          "internalType": "bool",
          "name": "",
          "type": "bool"
        }
      ],
      "stateMutability": "pure",
      "type": "function"
    },
    {
      "inputs": [
        {
          "internalType": "bytes",
          "name": "a",
          "type": "bytes"
        },
        {
          "internalType": "bytes",
          "name": "b",
          "type": "bytes"
        }
      ],
      "name": "equal",
      "outputs": [
        {
          "components": [
            {
              "internalType": "bool",
              "name": "passed",
              "type": "bool"
            },
            {
              "internalType": "string",
              "name": "assertionError",
              "type": "string"
            },
            {
              "internalType": "string",
              "name": "returnedAsString",
              "type": "string"
            },
            {
              "internalType": "string",
              "name": "expectedAsString",
              "type": "string"
            },
            {
              "internalType": "string",
              "name": "methodName",
              "type": "string"
            }
          ],
          "internalType": "struct Assert.AssertResult",
          "name": "result",
          "type": "tuple"
        }
      ],
      "stateMutability": "pure",
      "type": "function"
    },
    {
      "inputs": [
        {
          "internalType": "uint256",
          "name": "a",
          "type": "uint256"
        },
        {
          "internalType": "uint256",
          "name": "b",
          "type": "uint256"
        }
      ],
      "name": "equal",
      "outputs": [
        {
          "components": [
            {
              "internalType": "bool",
              "name": "passed",
              "type": "bool"
            },
            {
              "internalType": "string",
              "name": "assertionError",
              "type": "string"
            },
            {
              "internalType": "string",
              "name": "returnedAsString",
              "type": "string"
            },
            {
              "internalType": "string",
              "name": "expectedAsString",
              "type": "string"
            },
            {
              "internalType": "string",
              "name": "methodName",
              "type": "string"
            }
          ],
          "internalType": "struct Assert.AssertResult",
          "name": "result",
          "type": "tuple"
        }
      ],
      "stateMutability": "pure",
      "type": "function"
    },
    {
      "inputs": [
        {
          "internalType": "address",
          "name": "a",
          "type": "address"
        },
        {
          "internalType": "address",
          "name": "b",
          "type": "address"
        }
      ],
      "name": "equal",
      "outputs": [
        {
          "components": [
            {
              "internalType": "bool",
              "name": "passed",
              "type": "bool"
            },
            {
              "internalType": "string",
              "name": "assertionError",
              "type": "string"
            },
            {
              "internalType": "string",
              "name": "returnedAsString",
              "type": "string"
            },
            {
              "internalType": "string",
              "name": "expectedAsString",
              "type": "string"
            },
            {
              "internalType": "string",
              "name": "methodName",
              "type": "string"
            }
          ],
          "internalType": "struct Assert.AssertResult",
          "name": "result",
          "type": "tuple"
        }
      ],
      "stateMutability": "pure",
      "type": "function"
    },
    {
      "inputs": [
        {
          "internalType": "string",
          "name": "a",
          "type": "string"
        },
        {
          "internalType": "string",
          "name": "b",
          "type": "string"
        }
      ],
      "name": "equal",
      "outputs": [
        {
          "components": [
            {
              "internalType": "bool",
              "name": "passed",
              "type": "bool"
            },
            {
              "internalType": "string",
              "name": "assertionError",
              "type": "string"
            },
            {
              "internalType": "string",
              "name": "returnedAsString",
              "type": "string"
            },
            {
              "internalType": "string",
              "name": "expectedAsString",
              "type": "string"
            },
            {
              "internalType": "string",
              "name": "methodName",
              "type": "string"
            }
          ],
          "internalType": "struct Assert.AssertResult",
          "name": "result",
          "type": "tuple"
        }
      ],
      "stateMutability": "pure",
      "type": "function"
    },
    {
      "inputs": [
        {
          "internalType": "string[]",
          "name": "a",
          "type": "string[]"
        },
        {
          "internalType": "string[]",
          "name": "b",
          "type": "string[]"
        }
      ],
      "name": "equal",
      "outputs": [
        {
          "components": [
            {
              "internalType": "bool",
              "name": "passed",
              "type": "bool"
            },
            {
              "internalType": "string",
              "name": "assertionError",
              "type": "string"
            },
            {
              "internalType": "string",
              "name": "returnedAsString",
              "type": "string"
            },
            {
              "internalType": "string",
              "name": "expectedAsString",
              "type": "string"
            },
            {
              "internalType": "string",
              "name": "methodName",
              "type": "string"
            }
          ],
          "internalType": "struct Assert.AssertResult",
          "name": "result",
          "type": "tuple"
        }
      ],
      "stateMutability": "pure",
      "type": "function"
    },
    {
      "inputs": [
        {
          "internalType": "address[]",
          "name": "a",
          "type": "address[]"
        },
        {
          "internalType": "address[]",
          "name": "b",
          "type": "address[]"
        }
      ],
      "name": "equal",
      "outputs": [
        {
          "components": [
            {
              "internalType": "bool",
              "name": "passed",
              "type": "bool"
            },
            {
              "internalType": "string",
              "name": "assertionError",
              "type": "string"
            },
            {
              "internalType": "string",
              "name": "returnedAsString",
              "type": "string"
            },
            {
              "internalType": "string",
              "name": "expectedAsString",
              "type": "string"
            },
            {
              "internalType": "string",
              "name": "methodName",
              "type": "string"
            }
          ],
          "internalType": "struct Assert.AssertResult",
          "name": "result",
          "type": "tuple"
        }
      ],
      "stateMutability": "pure",
      "type": "function"
    },
    {
      "inputs": [
        {
          "internalType": "uint256[]",
          "name": "a",
          "type": "uint256[]"
        },
        {
          "internalType": "uint256[]",
          "name": "b",
          "type": "uint256[]"
        }
      ],
      "name": "equal",
      "outputs": [
        {
          "components": [
            {
              "internalType": "bool",
              "name": "passed",
              "type": "bool"
            },
            {
              "internalType": "string",
              "name": "assertionError",
              "type": "string"
            },
            {
              "internalType": "string",
              "name": "returnedAsString",
              "type": "string"
            },
            {
              "internalType": "string",
              "name": "expectedAsString",
              "type": "string"
            },
            {
              "internalType": "string",
              "name": "methodName",
              "type": "string"
            }
          ],
          "internalType": "struct Assert.AssertResult",
          "name": "result",
          "type": "tuple"
        }
      ],
      "stateMutability": "pure",
      "type": "function"
    },
    {
      "inputs": [
        {
          "internalType": "uint256",
          "name": "tokenId",
          "type": "uint256"
        }
      ],
      "name": "getApproved",
      "outputs": [
        {
          "internalType": "address",
          "name": "",
          "type": "address"
        }
      ],
      "stateMutability": "view",
      "type": "function"
    },
    {
      "inputs": [
        {
          "internalType": "address",
          "name": "owner",
          "type": "address"
        },
        {
          "internalType": "address",
          "name": "operator",
          "type": "address"
        }
      ],
      "name": "isApprovedForAll",
      "outputs": [
        {
          "internalType": "bool",
          "name": "",
          "type": "bool"
        }
      ],
      "stateMutability": "view",
      "type": "function"
    },
    {
      "inputs": [
        {
          "internalType": "bool",
          "name": "a",
          "type": "bool"
        }
      ],
      "name": "isFalse",
      "outputs": [
        {
          "components": [
            {
              "internalType": "bool",
              "name": "passed",
              "type": "bool"
            },
            {
              "internalType": "string",
              "name": "assertionError",
              "type": "string"
            },
            {
              "internalType": "string",
              "name": "returnedAsString",
              "type": "string"
            },
            {
              "internalType": "string",
              "name": "expectedAsString",
              "type": "string"
            },
            {
              "internalType": "string",
              "name": "methodName",
              "type": "string"
            }
          ],
          "internalType": "struct Assert.AssertResult",
          "name": "result",
          "type": "tuple"
        }
      ],
      "stateMutability": "pure",
      "type": "function"
    },
    {
      "inputs": [
        {
          "internalType": "bool",
          "name": "a",
          "type": "bool"
        }
      ],
      "name": "isTrue",
      "outputs": [
        {
          "components": [
            {
              "internalType": "bool",
              "name": "passed",
              "type": "bool"
            },
            {
              "internalType": "string",
              "name": "assertionError",
              "type": "string"
            },
            {
              "internalType": "string",
              "name": "returnedAsString",
              "type": "string"
            },
            {
              "internalType": "string",
              "name": "expectedAsString",
              "type": "string"
            },
            {
              "internalType": "string",
              "name": "methodName",
              "type": "string"
            }
          ],
          "internalType": "struct Assert.AssertResult",
          "name": "result",
          "type": "tuple"
        }
      ],
      "stateMutability": "pure",
      "type": "function"
    },
    {
      "inputs": [],
      "name": "name",
      "outputs": [
        {
          "internalType": "string",
          "name": "",
          "type": "string"
        }
      ],
      "stateMutability": "view",
      "type": "function"
    },
    {
      "inputs": [
        {
          "internalType": "address",
          "name": "a",
          "type": "address"
        },
        {
          "internalType": "address",
          "name": "b",
          "type": "address"
        }
      ],
      "name": "notEqual",
      "outputs": [
        {
          "components": [
            {
              "internalType": "bool",
              "name": "passed",
              "type": "bool"
            },
            {
              "internalType": "string",
              "name": "assertionError",
              "type": "string"
            },
            {
              "internalType": "string",
              "name": "returnedAsString",
              "type": "string"
            },
            {
              "internalType": "string",
              "name": "expectedAsString",
              "type": "string"
            },
            {
              "internalType": "string",
              "name": "methodName",
              "type": "string"
            }
          ],
          "internalType": "struct Assert.AssertResult",
          "name": "result",
          "type": "tuple"
        }
      ],
      "stateMutability": "pure",
      "type": "function"
    },
    {
      "inputs": [],
      "name": "owner",
      "outputs": [
        {
          "internalType": "address",
          "name": "",
          "type": "address"
        }
      ],
      "stateMutability": "view",
      "type": "function"
    },
    {
      "inputs": [
        {
          "internalType": "uint256",
          "name": "tokenId",
          "type": "uint256"
        }
      ],
      "name": "ownerOf",
      "outputs": [
        {
          "internalType": "address",
          "name": "",
          "type": "address"
        }
      ],
      "stateMutability": "view",
      "type": "function"
    },
    {
      "inputs": [
        {
          "internalType": "address",
          "name": "",
          "type": "address"
        }
      ],
      "name": "owners",
      "outputs": [
        {
          "internalType": "bool",
          "name": "",
          "type": "bool"
        }
      ],
      "stateMutability": "view",
      "type": "function"
    },
    {
      "inputs": [],
      "name": "renounceOwnership",
      "outputs": [],
      "stateMutability": "nonpayable",
      "type": "function"
    },
    {
      "inputs": [
        {
          "internalType": "address",
          "name": "from",
          "type": "address"
        },
        {
          "internalType": "address",
          "name": "to",
          "type": "address"
        },
        {
          "internalType": "uint256",
          "name": "tokenId",
          "type": "uint256"
        }
      ],
      "name": "safeTransferFrom",
      "outputs": [],
      "stateMutability": "nonpayable",
      "type": "function"
    },
    {
      "inputs": [
        {
          "internalType": "address",
          "name": "from",
          "type": "address"
        },
        {
          "internalType": "address",
          "name": "to",
          "type": "address"
        },
        {
          "internalType": "uint256",
          "name": "tokenId",
          "type": "uint256"
        },
        {
          "internalType": "bytes",
          "name": "data",
          "type": "bytes"
        }
      ],
      "name": "safeTransferFrom",
      "outputs": [],
      "stateMutability": "nonpayable",
      "type": "function"
    },
    {
      "inputs": [
        {
          "internalType": "bool",
          "name": "_setActiveTo",
          "type": "bool"
        }
      ],
      "name": "setActive",
      "outputs": [],
      "stateMutability": "nonpayable",
      "type": "function"
    },
    {
      "inputs": [
        {
          "internalType": "address",
          "name": "operator",
          "type": "address"
        },
        {
          "internalType": "bool",
          "name": "approved",
          "type": "bool"
        }
      ],
      "name": "setApprovalForAll",
      "outputs": [],
      "stateMutability": "nonpayable",
      "type": "function"
    },
    {
      "inputs": [
        {
          "internalType": "string",
          "name": "_tokenURI",
          "type": "string"
        }
      ],
      "name": "setTokenURI",
      "outputs": [],
      "stateMutability": "nonpayable",
      "type": "function"
    },
    {
      "inputs": [
        {
          "internalType": "bytes4",
          "name": "interfaceId",
          "type": "bytes4"
        }
      ],
      "name": "supportsInterface",
      "outputs": [
        {
          "internalType": "bool",
          "name": "",
          "type": "bool"
        }
      ],
      "stateMutability": "view",
      "type": "function"
    },
    {
      "inputs": [],
      "name": "symbol",
      "outputs": [
        {
          "internalType": "string",
          "name": "",
          "type": "string"
        }
      ],
      "stateMutability": "view",
      "type": "function"
    },
    {
      "inputs": [
        {
          "internalType": "address",
          "name": "_submissionAddress",
          "type": "address"
        }
      ],
      "name": "testContract",
      "outputs": [],
      "stateMutability": "nonpayable",
      "type": "function"
    },
    {
      "inputs": [
        {
          "internalType": "uint256",
          "name": "",
          "type": "uint256"
        }
      ],
      "name": "tokenURI",
      "outputs": [
        {
          "internalType": "string",
          "name": "",
          "type": "string"
        }
      ],
      "stateMutability": "view",
      "type": "function"
    },
    {
      "inputs": [
        {
          "internalType": "address",
          "name": "from",
          "type": "address"
        },
        {
          "internalType": "address",
          "name": "to",
          "type": "address"
        },
        {
          "internalType": "uint256",
          "name": "tokenId",
          "type": "uint256"
        }
      ],
      "name": "transferFrom",
      "outputs": [],
      "stateMutability": "nonpayable",
      "type": "function"
    },
    {
      "inputs": [
        {
          "internalType": "address",
          "name": "newOwner",
          "type": "address"
        }
      ],
      "name": "transferOwnership",
      "outputs": [],
      "stateMutability": "nonpayable",
      "type": "function"
    }
  ],
  "transactionHash": "0x0e080fd7624c52f465248ea29441436b2111cfb1aeb70c79160104dfd0b7c2f3",
  "args": [
    "0x9AF157145a3548a90d9BB6f9d027FF5d54d90C2F"
  ],
  "numDeployments": 2,
  "solcInputHash": "cce5e99710aedb2b7694c5fe3ee6e1a0",
  "bytecode": "0x600b805460ff1916600117905560a060405260006080908152600c9062000027908262000343565b503480156200003557600080fd5b506040516200a1fd3803806200a1fd83398101604081905262000058916200040f565b6040518060400160405280601181526020017026b4b734b6b0b6102a37b5b2b7102834b760791b8152506040518060400160405280600581526020016414d0d1135560da1b8152508160009081620000b1919062000343565b506001620000c0828262000343565b505050620000dd620000d76200021e60201b60201c565b62000222565b6001600755604051600d90620000f39062000274565b604051809103906000f08015801562000110573d6000803e3d6000fd5b5081546001810183556000928352602090922090910180546001600160a01b0319166001600160a01b03909216919091179055604051600d908290620001569062000282565b6001600160a01b039091168152602001604051809103906000f08015801562000183573d6000803e3d6000fd5b5081546001810183556000928352602090922090910180546001600160a01b0319166001600160a01b03909216919091179055604051600d90620001c79062000290565b604051809103906000f080158015620001e4573d6000803e3d6000fd5b5081546001810183556000928352602090922090910180546001600160a01b0319166001600160a01b039092169190911790555062000441565b3390565b600680546001600160a01b038381166001600160a01b0319831681179093556040519116919082907f8be0079c531659141344cd1fd0a4f28419497f9722a3daafe3b4186f6b6457e090600090a35050565b611fba8062003df983390190565b61210e8062005db383390190565b61233c8062007ec183390190565b634e487b7160e01b600052604160045260246000fd5b600181811c90821680620002c957607f821691505b602082108103620002ea57634e487b7160e01b600052602260045260246000fd5b50919050565b601f8211156200033e57600081815260208120601f850160051c81016020861015620003195750805b601f850160051c820191505b818110156200033a5782815560010162000325565b5050505b505050565b81516001600160401b038111156200035f576200035f6200029e565b6200037781620003708454620002b4565b84620002f0565b602080601f831160018114620003af5760008415620003965750858301515b600019600386901b1c1916600185901b1785556200033a565b600085815260208120601f198616915b82811015620003e057888601518255948401946001909101908401620003bf565b5085821015620003ff5787850151600019600388901b60f8161c191681555b5050505050600190811b01905550565b6000602082840312156200042257600080fd5b81516001600160a01b03811681146200043a57600080fd5b9392505050565b6139a880620004516000396000f3fe608060405234801561001057600080fd5b50600436106101e55760003560e01c80636df864781161010f578063b88d4fde116100a2578063e7da4c7e11610071578063e7da4c7e1461041c578063e985e9c51461042f578063f2fde38b1461046b578063fa084b9b1461047e57600080fd5b8063b88d4fde146103d0578063c87b56dd146103e3578063d70968e7146103f6578063e0df5b6f1461040957600080fd5b80638da5cb5b116100de5780638da5cb5b1461039157806395d89b41146103a2578063a22cb465146103aa578063acec338a146103bd57600080fd5b80636df864781461034257806370a0823114610355578063715018a61461037657806374f130701461037e57600080fd5b806323b872dd1161018757806342842e0e1161015657806342842e0e1461030957806346bdca9a1461029d57806360fb55d51461031c5780636352211e1461032f57600080fd5b806323b872dd146102bd57806330191626146102d057806331495d33146102e3578063410dbb8b146102f657600080fd5b806306fdde03116101c357806306fdde031461024a578063081812fc1461025f578063095ea7b31461028a578063235266d21461029d57600080fd5b806301ffc9a7146101ea578063022914a71461021257806306d82f2914610235575b600080fd5b6101fd6101f83660046126ad565b610491565b60405190151581526020015b60405180910390f35b6101fd6102203660046126df565b60096020526000908152604090205460ff1681565b6102486102433660046126df565b61052e565b005b6102526107f1565b604051610209919061274c565b61027261026d36600461275f565b610883565b6040516001600160a01b039091168152602001610209565b610248610298366004612778565b6108aa565b6102b06102ab3660046128b5565b6109fe565b6040516102099190612990565b6102486102cb3660046129a3565b610aad565b6102b06102de3660046129e4565b610b24565b6102b06102f1366004612a06565b610bde565b6102b0610304366004612a5d565b610caf565b6102486103173660046129a3565b610daf565b6102b061032a366004612b29565b610dca565b61027261033d36600461275f565b610ea6565b6102b0610350366004612be7565b610f0b565b6103686103633660046126df565b610fe7565b604051908152602001610209565b610248611081565b6102b061038c366004612a5d565b611095565b6006546001600160a01b0316610272565b610252611196565b6102486103b8366004612c41565b6111a5565b6102486103cb366004612a5d565b6111b4565b6102486103de366004612c6f565b6111cf565b6102526103f136600461275f565b611247565b6102b0610404366004612a06565b6112db565b610248610417366004612cdb565b6113a2565b6102b061042a366004612d6b565b6113b6565b6101fd61043d366004612a06565b6001600160a01b03918216600090815260056020908152604080832093909416825291909152205460ff1690565b6102486104793660046126df565b611492565b6101fd61048c366004612dc5565b611522565b60006001600160e01b031982167f80ac58cd0000000000000000000000000000000000000000000000000000000014806104f457506001600160e01b031982167f5b5e139f00000000000000000000000000000000000000000000000000000000145b8061052857507f01ffc9a7000000000000000000000000000000000000000000000000000000006001600160e01b03198316145b92915050565b600b5460ff1661056a576040517f80cb55e200000000000000000000000000000000000000000000000000000000815260040160405180910390fd5b600e5460609060009083906001600160a01b0316156106a657600d54610591906001613102565b67ffffffffffffffff8111156105a9576105a96127a4565b6040519080825280602002602001820160405280156105e257816020015b6105cf612663565b8152602001906001900390816105c75790505b509250816105ef81613115565b600e546040517f4c96a3890000000000000000000000000000000000000000000000000000000081526001600160a01b03888116600483015292955091169150634c96a389906024016000604051808303816000875af1158015610657573d6000803e3d6000fd5b505050506040513d6000823e601f3d908101601f1916820160405261067f9190810190613345565b846000815181106106925761069261338c565b6020026020010181935082905250506106fe565b600d5467ffffffffffffffff8111156106c1576106c16127a4565b6040519080825280602002602001820160405280156106fa57816020015b6106e7612663565b8152602001906001900390816106df5790505b5092505b600d548210156107e157600d828154811061071b5761071b61338c565b6000918252602090912001546040517f4b64e4920000000000000000000000000000000000000000000000000000000081526001600160a01b03838116600483015290911690634b64e492906024016000604051808303816000875af1158015610789573d6000803e3d6000fd5b505050506040513d6000823e601f3d908101601f191682016040526107b191908101906133a2565b8383815181106107c3576107c361338c565b602002602001018190525081806107d990613115565b9250506106fe565b6107eb84846115d6565b50505050565b606060008054610800906133d7565b80601f016020809104026020016040519081016040528092919081815260200182805461082c906133d7565b80156108795780601f1061084e57610100808354040283529160200191610879565b820191906000526020600020905b81548152906001019060200180831161085c57829003601f168201915b5050505050905090565b600061088e826116dd565b506000908152600460205260409020546001600160a01b031690565b60006108b582610ea6565b9050806001600160a01b0316836001600160a01b0316036109435760405162461bcd60e51b815260206004820152602160248201527f4552433732313a20617070726f76616c20746f2063757272656e74206f776e6560448201527f720000000000000000000000000000000000000000000000000000000000000060648201526084015b60405180910390fd5b336001600160a01b038216148061097d57506001600160a01b038116600090815260056020908152604080832033845290915290205460ff165b6109ef5760405162461bcd60e51b815260206004820152603d60248201527f4552433732313a20617070726f76652063616c6c6572206973206e6f7420746f60448201527f6b656e206f776e6572206f7220617070726f76656420666f7220616c6c000000606482015260840161093a565b6109f98383611741565b505050565b610a326040518060a00160405280600015158152602001606081526020016060815260200160608152602001606081525090565b815160208084019190912084519185019190912014808252610a77578282604051602001610a61929190613411565b60408051601f1981840301815291905260208201525b604080820193909352606081019190915281518083019092526005825264195c5d585b60da1b6020830152608081019190915290565b610ab733826117bc565b610b195760405162461bcd60e51b815260206004820152602d60248201527f4552433732313a2063616c6c6572206973206e6f7420746f6b656e206f776e6560448201526c1c881bdc88185c1c1c9bdd9959609a1b606482015260840161093a565b6109f983838361183b565b610b586040518060a00160405280600015158152602001606081526020016060815260200160608152602001606081525090565b828214808252610b9b57610b6b83611a4e565b610b7483611a4e565b604051602001610b85929190613411565b60408051601f1981840301815291905260208201525b610ba483611a4e565b6040820152610bb282611a4e565b6060820152604080518082019091526005815264195c5d585b60da1b6020820152608082015292915050565b610c126040518060a00160405280600015158152602001606081526020016060815260200160608152602001606081525090565b6001600160a01b0383811690831681148252600090610c32906014611aee565b90506000610c4a846001600160a01b03166014611aee565b8351909150610c7c578181604051602001610c66929190613411565b60408051601f1981840301815291905260208401525b604080840192909252606083015280518082019091526005815264195c5d585b60da1b6020820152608082015292915050565b610ce36040518060a00160405280600015158152602001606081526020016060815260200160608152602001606081525090565b8115808252610d0b5760405180606001604052806023815260200161392e6023913960208201525b600182151514610d38576040518060400160405280600581526020016466616c736560d81b815250610d56565b604051806040016040528060048152602001637472756560e01b8152505b6040808301919091528051602080820183526000825260608401919091528151808301909252600782527f697346616c736500000000000000000000000000000000000000000000000000908201526080820152919050565b6109f9838383604051806020016040528060008152506111cf565b610dfe6040518060a00160405280600015158152602001606081526020016060815260200160608152602001606081525090565b81604051602001610e0f9190613492565b6040516020818303038152906040528051906020012083604051602001610e369190613492565b60408051601f19818403018152919052805160209091012014808252610e8f57610e5f83611cd6565b610e6883611cd6565b604051602001610e79929190613411565b60408051601f1981840301815291905260208201525b610e9883611cd6565b6040820152610bb282611cd6565b6000818152600260205260408120546001600160a01b0316806105285760405162461bcd60e51b815260206004820152601860248201527f4552433732313a20696e76616c696420746f6b656e2049440000000000000000604482015260640161093a565b610f3f6040518060a00160405280600015158152602001606081526020016060815260200160608152602001606081525090565b81604051602001610f5091906134f4565b6040516020818303038152906040528051906020012083604051602001610f7791906134f4565b60408051601f19818403018152919052805160209091012014808252610fd057610fa083611dab565b610fa983611dab565b604051602001610fba929190613411565b60408051601f1981840301815291905260208201525b610fd983611dab565b6040820152610bb282611dab565b60006001600160a01b0382166110655760405162461bcd60e51b815260206004820152602960248201527f4552433732313a2061646472657373207a65726f206973206e6f74206120766160448201527f6c6964206f776e65720000000000000000000000000000000000000000000000606482015260840161093a565b506001600160a01b031660009081526003602052604090205490565b611089611e87565b6110936000611ee1565b565b6110c96040518060a00160405280600015158152602001606081526020016060815260200160608152602001606081525090565b8115158082526110f2576040518060600160405280602281526020016139516022913960208201525b60018215151461111f576040518060400160405280600581526020016466616c736560d81b81525061113d565b604051806040016040528060048152602001637472756560e01b8152505b6040808301919091528051602080820183526000825260608401919091528151808301909252600682527f6973547275650000000000000000000000000000000000000000000000000000908201526080820152919050565b606060018054610800906133d7565b6111b0338383611f40565b5050565b6111bc611e87565b600b805460ff1916911515919091179055565b6111d933836117bc565b61123b5760405162461bcd60e51b815260206004820152602d60248201527f4552433732313a2063616c6c6572206973206e6f7420746f6b656e206f776e6560448201526c1c881bdc88185c1c1c9bdd9959609a1b606482015260840161093a565b6107eb8484848461200e565b6060600c8054611256906133d7565b80601f0160208091040260200160405190810160405280929190818152602001828054611282906133d7565b80156112cf5780601f106112a4576101008083540402835291602001916112cf565b820191906000526020600020905b8154815290600101906020018083116112b257829003601f168201915b50505050509050919050565b61130f6040518060a00160405280600015158152602001606081526020016060815260200160608152602001606081525090565b6001600160a01b038381169083168114158252600090611330906014611aee565b8251909150611360578060405160200161134a9190613541565b60408051601f1981840301815291905260208301525b60408083019190915280516020808201835260008252606084019190915281518083019092526005825264195c5d585b60da1b90820152608082015292915050565b6113aa611e87565b600c6111b082826135fa565b6113ea6040518060a00160405280600015158152602001606081526020016060815260200160608152602001606081525090565b816040516020016113fb91906136ba565b604051602081830303815290604052805190602001208360405160200161142291906136ba565b60408051601f1981840301815291905280516020909101201480825261147b5761144b8361208c565b6114548361208c565b604051602001611465929190613411565b60408051601f1981840301815291905260208201525b6114848361208c565b6040820152610bb28261208c565b61149a611e87565b6001600160a01b0381166115165760405162461bcd60e51b815260206004820152602660248201527f4f776e61626c653a206e6577206f776e657220697320746865207a65726f206160448201527f6464726573730000000000000000000000000000000000000000000000000000606482015260840161093a565b61151f81611ee1565b50565b6000805b82518110156115cd5760005b8382815181106115445761154461338c565b602002602001015160200151602001518110156115ba5783828151811061156d5761156d61338c565b60200260200101516020015160000151818151811061158e5761158e61338c565b6020026020010151600001516115a8575060009392505050565b806115b281613115565b915050611532565b50806115c581613115565b915050611526565b50600192915050565b6115de61215d565b60006115e982611522565b90507f53d51c5f8eaf1bdbf1288871cbf97a9295da23a9868b15b526b4256ede348db983828460405161161e939291906136f2565b60405180910390a16001600160a01b0383166000908152600a602052604090205460ff1615801561165f57503360009081526009602052604090205460ff16155b80156116685750805b156116af5761167b600880546001019055565b600061168660085490565b336000818152600960205260409020805460ff191660011790559091506116ad90826121b6565b505b506001600160a01b0382166000908152600a60205260409020805460ff191660011790556111b06001600755565b6000818152600260205260409020546001600160a01b031661151f5760405162461bcd60e51b815260206004820152601860248201527f4552433732313a20696e76616c696420746f6b656e2049440000000000000000604482015260640161093a565b6000818152600460205260409020805473ffffffffffffffffffffffffffffffffffffffff19166001600160a01b038416908117909155819061178382610ea6565b6001600160a01b03167f8c5be1e5ebec7d5bd14f71427d1e84f3dd0314c0f7b2291e5b200ac8c7c3b92560405160405180910390a45050565b6000806117c883610ea6565b9050806001600160a01b0316846001600160a01b0316148061180f57506001600160a01b0380821660009081526005602090815260408083209388168352929052205460ff165b806118335750836001600160a01b031661182884610883565b6001600160a01b0316145b949350505050565b826001600160a01b031661184e82610ea6565b6001600160a01b0316146118b25760405162461bcd60e51b815260206004820152602560248201527f4552433732313a207472616e736665722066726f6d20696e636f72726563742060448201526437bbb732b960d91b606482015260840161093a565b6001600160a01b03821661192d5760405162461bcd60e51b8152602060048201526024808201527f4552433732313a207472616e7366657220746f20746865207a65726f2061646460448201527f7265737300000000000000000000000000000000000000000000000000000000606482015260840161093a565b61193a83838360016121d0565b826001600160a01b031661194d82610ea6565b6001600160a01b0316146119b15760405162461bcd60e51b815260206004820152602560248201527f4552433732313a207472616e736665722066726f6d20696e636f72726563742060448201526437bbb732b960d91b606482015260840161093a565b6000818152600460209081526040808320805473ffffffffffffffffffffffffffffffffffffffff199081169091556001600160a01b0387811680865260038552838620805460001901905590871680865283862080546001019055868652600290945282852080549092168417909155905184937fddf252ad1be2c89b69c2b068fc378daa952ba7f163c4a11628f55a4df523b3ef91a4505050565b60606000611a5b83612211565b600101905060008167ffffffffffffffff811115611a7b57611a7b6127a4565b6040519080825280601f01601f191660200182016040528015611aa5576020820181803683370190505b5090508181016020015b600019017f3031323334353637383961626364656600000000000000000000000000000000600a86061a8153600a8504945084611aaf57509392505050565b60606000611afd8360026137e5565b611b08906002613102565b67ffffffffffffffff811115611b2057611b206127a4565b6040519080825280601f01601f191660200182016040528015611b4a576020820181803683370190505b5090507f300000000000000000000000000000000000000000000000000000000000000081600081518110611b8157611b8161338c565b60200101906001600160f81b031916908160001a9053507f780000000000000000000000000000000000000000000000000000000000000081600181518110611bcc57611bcc61338c565b60200101906001600160f81b031916908160001a9053506000611bf08460026137e5565b611bfb906001613102565b90505b6001811115611c80577f303132333435363738396162636465660000000000000000000000000000000085600f1660108110611c3c57611c3c61338c565b1a60f81b828281518110611c5257611c5261338c565b60200101906001600160f81b031916908160001a90535060049490941c93611c79816137fc565b9050611bfe565b508315611ccf5760405162461bcd60e51b815260206004820181905260248201527f537472696e67733a20686578206c656e67746820696e73756666696369656e74604482015260640161093a565b9392505050565b6040805180820190915260018152605b60f81b602082015260609060005b8351811015611da45760018451611d0b9190613813565b811015611d545781848281518110611d2557611d2561338c565b6020026020010151604051602001611d3e929190613826565b6040516020818303038152906040529150611d92565b81848281518110611d6757611d6761338c565b6020026020010151604051602001611d8092919061387d565b60405160208183030381529060405291505b80611d9c81613115565b915050611cf4565b5092915050565b6040805180820190915260018152605b60f81b602082015260609060005b8351811015611da45760018451611de09190613813565b811015611e3c5781611e15858381518110611dfd57611dfd61338c565b60200260200101516001600160a01b03166014611aee565b604051602001611e26929190613826565b6040516020818303038152906040529150611e75565b81611e52858381518110611dfd57611dfd61338c565b604051602001611e6392919061387d565b60405160208183030381529060405291505b80611e7f81613115565b915050611dc9565b6006546001600160a01b031633146110935760405162461bcd60e51b815260206004820181905260248201527f4f776e61626c653a2063616c6c6572206973206e6f7420746865206f776e6572604482015260640161093a565b600680546001600160a01b0383811673ffffffffffffffffffffffffffffffffffffffff19831681179093556040519116919082907f8be0079c531659141344cd1fd0a4f28419497f9722a3daafe3b4186f6b6457e090600090a35050565b816001600160a01b0316836001600160a01b031603611fa15760405162461bcd60e51b815260206004820152601960248201527f4552433732313a20617070726f766520746f2063616c6c657200000000000000604482015260640161093a565b6001600160a01b03838116600081815260056020908152604080832094871680845294825291829020805460ff191686151590811790915591519182527f17307eab39ab6107e8899845ad3d59bd9653f200f220920489ca2b5937696c31910160405180910390a3505050565b61201984848461183b565b612025848484846122f3565b6107eb5760405162461bcd60e51b815260206004820152603260248201527f4552433732313a207472616e7366657220746f206e6f6e20455243373231526560448201527131b2b4bb32b91034b6b83632b6b2b73a32b960711b606482015260840161093a565b6040805180820190915260018152605b60f81b602082015260609060005b8351811015611da457600184516120c19190613813565b81101561211257816120eb8583815181106120de576120de61338c565b6020026020010151611a4e565b6040516020016120fc929190613826565b604051602081830303815290604052915061214b565b816121288583815181106120de576120de61338c565b60405160200161213992919061387d565b60405160208183030381529060405291505b8061215581613115565b9150506120aa565b6002600754036121af5760405162461bcd60e51b815260206004820152601f60248201527f5265656e7472616e637947756172643a207265656e7472616e742063616c6c00604482015260640161093a565b6002600755565b6111b082826040518060200160405280600081525061243f565b6001600160a01b038416156107eb576040517f6e10574900000000000000000000000000000000000000000000000000000000815260040160405180910390fd5b6000807a184f03e93ff9f4daa797ed6e38ed64bf6a1f010000000000000000831061225a577a184f03e93ff9f4daa797ed6e38ed64bf6a1f010000000000000000830492506040015b6d04ee2d6d415b85acef81000000008310612286576d04ee2d6d415b85acef8100000000830492506020015b662386f26fc1000083106122a457662386f26fc10000830492506010015b6305f5e10083106122bc576305f5e100830492506008015b61271083106122d057612710830492506004015b606483106122e2576064830492506002015b600a83106105285760010192915050565b60006001600160a01b0384163b1561243457604051630a85bd0160e11b81526001600160a01b0385169063150b7a02906123379033908990889088906004016138d4565b6020604051808303816000875af1925050508015612372575060408051601f3d908101601f1916820190925261236f91810190613910565b60015b61241a573d8080156123a0576040519150601f19603f3d011682016040523d82523d6000602084013e6123a5565b606091505b5080516000036124125760405162461bcd60e51b815260206004820152603260248201527f4552433732313a207472616e7366657220746f206e6f6e20455243373231526560448201527131b2b4bb32b91034b6b83632b6b2b73a32b960711b606482015260840161093a565b805181602001fd5b6001600160e01b031916630a85bd0160e11b149050611833565b506001949350505050565b61244983836124bd565b61245660008484846122f3565b6109f95760405162461bcd60e51b815260206004820152603260248201527f4552433732313a207472616e7366657220746f206e6f6e20455243373231526560448201527131b2b4bb32b91034b6b83632b6b2b73a32b960711b606482015260840161093a565b6001600160a01b0382166125135760405162461bcd60e51b815260206004820181905260248201527f4552433732313a206d696e7420746f20746865207a65726f2061646472657373604482015260640161093a565b6000818152600260205260409020546001600160a01b0316156125785760405162461bcd60e51b815260206004820152601c60248201527f4552433732313a20746f6b656e20616c7265616479206d696e74656400000000604482015260640161093a565b6125866000838360016121d0565b6000818152600260205260409020546001600160a01b0316156125eb5760405162461bcd60e51b815260206004820152601c60248201527f4552433732313a20746f6b656e20616c7265616479206d696e74656400000000604482015260640161093a565b6001600160a01b0382166000818152600360209081526040808320805460010190558483526002909152808220805473ffffffffffffffffffffffffffffffffffffffff19168417905551839291907fddf252ad1be2c89b69c2b068fc378daa952ba7f163c4a11628f55a4df523b3ef908290a45050565b604051806040016040528060608152602001612692604051806040016040528060608152602001600081525090565b905290565b6001600160e01b03198116811461151f57600080fd5b6000602082840312156126bf57600080fd5b8135611ccf81612697565b6001600160a01b038116811461151f57600080fd5b6000602082840312156126f157600080fd5b8135611ccf816126ca565b60005b838110156127175781810151838201526020016126ff565b50506000910152565b600081518084526127388160208601602086016126fc565b601f01601f19169290920160200192915050565b602081526000611ccf6020830184612720565b60006020828403121561277157600080fd5b5035919050565b6000806040838503121561278b57600080fd5b8235612796816126ca565b946020939093013593505050565b634e487b7160e01b600052604160045260246000fd5b6040805190810167ffffffffffffffff811182821017156127dd576127dd6127a4565b60405290565b60405160a0810167ffffffffffffffff811182821017156127dd576127dd6127a4565b604051601f8201601f1916810167ffffffffffffffff8111828210171561282f5761282f6127a4565b604052919050565b600067ffffffffffffffff821115612851576128516127a4565b50601f01601f191660200190565b600082601f83011261287057600080fd5b813561288361287e82612837565b612806565b81815284602083860101111561289857600080fd5b816020850160208301376000918101602001919091529392505050565b600080604083850312156128c857600080fd5b823567ffffffffffffffff808211156128e057600080fd5b6128ec8683870161285f565b9350602085013591508082111561290257600080fd5b5061290f8582860161285f565b9150509250929050565b8051151582526000602082015160a0602085015261293a60a0850182612720565b9050604083015184820360408601526129538282612720565b9150506060830151848203606086015261296d8282612720565b915050608083015184820360808601526129878282612720565b95945050505050565b602081526000611ccf6020830184612919565b6000806000606084860312156129b857600080fd5b83356129c3816126ca565b925060208401356129d3816126ca565b929592945050506040919091013590565b600080604083850312156129f757600080fd5b50508035926020909101359150565b60008060408385031215612a1957600080fd5b8235612a24816126ca565b91506020830135612a34816126ca565b809150509250929050565b801515811461151f57600080fd5b8035612a5881612a3f565b919050565b600060208284031215612a6f57600080fd5b8135611ccf81612a3f565b600067ffffffffffffffff821115612a9457612a946127a4565b5060051b60200190565b600082601f830112612aaf57600080fd5b81356020612abf61287e83612a7a565b82815260059290921b84018101918181019086841115612ade57600080fd5b8286015b84811015612b1e57803567ffffffffffffffff811115612b025760008081fd5b612b108986838b010161285f565b845250918301918301612ae2565b509695505050505050565b60008060408385031215612b3c57600080fd5b823567ffffffffffffffff80821115612b5457600080fd5b612b6086838701612a9e565b93506020850135915080821115612b7657600080fd5b5061290f85828601612a9e565b600082601f830112612b9457600080fd5b81356020612ba461287e83612a7a565b82815260059290921b84018101918181019086841115612bc357600080fd5b8286015b84811015612b1e578035612bda816126ca565b8352918301918301612bc7565b60008060408385031215612bfa57600080fd5b823567ffffffffffffffff80821115612c1257600080fd5b612c1e86838701612b83565b93506020850135915080821115612c3457600080fd5b5061290f85828601612b83565b60008060408385031215612c5457600080fd5b8235612c5f816126ca565b91506020830135612a3481612a3f565b60008060008060808587031215612c8557600080fd5b8435612c90816126ca565b93506020850135612ca0816126ca565b925060408501359150606085013567ffffffffffffffff811115612cc357600080fd5b612ccf8782880161285f565b91505092959194509250565b600060208284031215612ced57600080fd5b813567ffffffffffffffff811115612d0457600080fd5b6118338482850161285f565b600082601f830112612d2157600080fd5b81356020612d3161287e83612a7a565b82815260059290921b84018101918181019086841115612d5057600080fd5b8286015b84811015612b1e5780358352918301918301612d54565b60008060408385031215612d7e57600080fd5b823567ffffffffffffffff80821115612d9657600080fd5b612da286838701612d10565b93506020850135915080821115612db857600080fd5b5061290f85828601612d10565b600060208284031215612dd757600080fd5b67ffffffffffffffff82351115612ded57600080fd5b82601f833584010112612dff57600080fd5b612e0f61287e8335840135612a7a565b8235830180358083526020808401939260059290921b90910101851015612e3557600080fd5b602084358501015b84358501803560051b016020018110156130e35767ffffffffffffffff81351115612e6757600080fd5b6040853586018235018703601f19011215612e8157600080fd5b612e896127ba565b67ffffffffffffffff60208335883589010101351115612ea857600080fd5b612ec0876020843589358a010181810135010161285f565b815267ffffffffffffffff60408335883589010101351115612ee157600080fd5b60408635870183350180820135018803601f19011215612f0057600080fd5b612f086127ba565b67ffffffffffffffff87358801843501604081013501602001351115612f2d57600080fd5b86358701833501604081013501602081013501603f81018913612f4f57600080fd5b612f5f61287e6020830135612a7a565b602082810135808352908201919060051b83016040018b1015612f8157600080fd5b604083015b6040602085013560051b8501018110156130b15767ffffffffffffffff81351115612fb057600080fd5b8035840160a0818e03603f19011215612fc857600080fd5b612fd06127e3565b612fdc60408301612a4d565b815267ffffffffffffffff60608301351115612ff757600080fd5b61300a8e6040606085013585010161285f565b602082015267ffffffffffffffff6080830135111561302857600080fd5b61303b8e6040608085013585010161285f565b604082015267ffffffffffffffff60a0830135111561305957600080fd5b61306c8e604060a085013585010161285f565b606082015267ffffffffffffffff60c0830135111561308a57600080fd5b61309d8e604060c085013585010161285f565b608082015284525060209283019201612f86565b508352505060408335883589010181810135010135602080830191909152828101919091529084529283019201612e3d565b50949350505050565b634e487b7160e01b600052601160045260246000fd5b80820180821115610528576105286130ec565b600060018201613127576131276130ec565b5060010190565b600082601f83011261313f57600080fd5b815161314d61287e82612837565b81815284602083860101111561316257600080fd5b6118338260208301602087016126fc565b8051612a5881612a3f565b60006040828403121561319057600080fd5b6131986127ba565b9050815167ffffffffffffffff808211156131b257600080fd5b6131be8583860161312e565b83526020915081840151818111156131d557600080fd5b8401604081870312156131e757600080fd5b6131ef6127ba565b8151838111156131fe57600080fd5b8201601f8101881361320f57600080fd5b805161321d61287e82612a7a565b81815260059190911b8201860190868101908a83111561323c57600080fd5b8784015b838110156133295780518881111561325757600080fd5b850160a0818e03601f1901121561326d57600080fd5b6132756127e3565b6132808b8301613173565b815260408201518a81111561329457600080fd5b6132a28f8d8386010161312e565b8c8301525060608201518a8111156132b957600080fd5b6132c78f8d8386010161312e565b60408301525060808201518a8111156132e05760008081fd5b6132ee8f8d8386010161312e565b60608301525060a08201518a8111156133075760008081fd5b6133158f8d8386010161312e565b608083015250845250918801918801613240565b5084525050509083015183820152918301919091525092915050565b6000806040838503121561335857600080fd5b825167ffffffffffffffff81111561336f57600080fd5b61337b8582860161317e565b9250506020830151612a34816126ca565b634e487b7160e01b600052603260045260246000fd5b6000602082840312156133b457600080fd5b815167ffffffffffffffff8111156133cb57600080fd5b6118338482850161317e565b600181811c908216806133eb57607f821691505b60208210810361340b57634e487b7160e01b600052602260045260246000fd5b50919050565b7f417373657274696f6e4572726f723a20000000000000000000000000000000008152600083516134498160108501602088016126fc565b7f206973206e6f7420657175616c20746f2000000000000000000000000000000060109184019182015283516134868160218401602088016126fc565b01602101949350505050565b6000602080830181845280855180835260408601915060408160051b870101925083870160005b828110156134e757603f198886030184526134d5858351612720565b945092850192908501906001016134b9565b5092979650505050505050565b6020808252825182820181905260009190848201906040850190845b818110156135355783516001600160a01b031683529284019291840191600101613510565b50909695505050505050565b7f417373657274696f6e4572726f723a200000000000000000000000000000000081527f20426f74682076616c756573206172650000000000000000000000000000000060108201526000825161359f8160208501602087016126fc565b9190910160200192915050565b601f8211156109f957600081815260208120601f850160051c810160208610156135d35750805b601f850160051c820191505b818110156135f2578281556001016135df565b505050505050565b815167ffffffffffffffff811115613614576136146127a4565b6136288161362284546133d7565b846135ac565b602080601f83116001811461365d57600084156136455750858301515b600019600386901b1c1916600185901b1785556135f2565b600085815260208120601f198616915b8281101561368c5788860151825594840194600190910190840161366d565b50858210156136aa5787850151600019600388901b60f8161c191681555b5050505050600190811b01905550565b6020808252825182820181905260009190848201906040850190845b81811015613535578351835292840192918401916001016136d6565b600060608083016001600160a01b03871684526020861515818601526040838187015282875180855260808801915060808160051b89010194508389016000805b838110156137d3578a8803607f1901855282518051878a52613757888b0182612720565b918901518a83038b8b0152805189845280518a850181905291939250600582901b83018d0191908b01908d840190875b818110156137b557605f198686030183526137a3858551612919565b9450928d0192918d0191600101613787565b50505050918901519089015297509386019391860191600101613733565b50959c9b505050505050505050505050565b8082028115828204841417610528576105286130ec565b60008161380b5761380b6130ec565b506000190190565b81810381811115610528576105286130ec565b600083516138388184602088016126fc565b83519083019061384c8183602088016126fc565b7f2c200000000000000000000000000000000000000000000000000000000000009101908152600201949350505050565b6000835161388f8184602088016126fc565b8351908301906138a38183602088016126fc565b7f5d000000000000000000000000000000000000000000000000000000000000009101908152600101949350505050565b60006001600160a01b038087168352808616602084015250836040830152608060608301526139066080830184612720565b9695505050505050565b60006020828403121561392257600080fd5b8151611ccf8161269756fe417373657274696f6e4572726f723a20726573756c74206973206e6f742066616c7365417373657274696f6e4572726f723a20726573756c74206973206e6f742074727565a264697066735822122010b0c0c0677f6d2aec3ee27c32215a396e820773624bbe49d405a0ec1ecfe41164736f6c63430008110033608060405234801561001057600080fd5b50611f9a806100206000396000f3fe608060405234801561001057600080fd5b50600436106100c95760003560e01c80634b64e4921161008157806374f130701161005b57806374f1307014610176578063d70968e714610189578063e7da4c7e1461019c57600080fd5b80634b64e4921461013057806360fb55d5146101505780636df864781461016357600080fd5b806331495d33116100b257806331495d331461010a578063410dbb8b1461011d57806346bdca9a146100ce57600080fd5b8063235266d2146100ce57806330191626146100f7575b600080fd5b6100e16100dc366004611674565b6101af565b6040516100ee919061179f565b60405180910390f35b6100e16101053660046117b9565b61025e565b6100e16101183660046117f7565b610318565b6100e161012b36600461182a565b6103e9565b61014361013e36600461184c565b6104e9565b6040516100ee9190611867565b6100e161015e3660046119b4565b61085a565b6100e1610171366004611a70565b610936565b6100e161018436600461182a565b610a12565b6100e16101973660046117f7565b610b13565b6100e16101aa366004611b25565b610bda565b6101e36040518060a00160405280600015158152602001606081526020016060815260200160608152602001606081525090565b815160208084019190912084519185019190912014808252610228578282604051602001610212929190611b7f565b60408051601f1981840301815291905260208201525b604080820193909352606081019190915281518083019092526005825264195c5d585b60da1b6020830152608081019190915290565b6102926040518060a00160405280600015158152602001606081526020016060815260200160608152602001606081525090565b8282148082526102d5576102a583610cb6565b6102ae83610cb6565b6040516020016102bf929190611b7f565b60408051601f1981840301815291905260208201525b6102de83610cb6565b60408201526102ec82610cb6565b6060820152604080518082019091526005815264195c5d585b60da1b6020820152608082015292915050565b61034c6040518060a00160405280600015158152602001606081526020016060815260200160608152602001606081525090565b6001600160a01b038381169083168114825260009061036c906014610d56565b90506000610384846001600160a01b03166014610d56565b83519091506103b65781816040516020016103a0929190611b7f565b60408051601f1981840301815291905260208401525b604080840192909252606083015280518082019091526005815264195c5d585b60da1b6020820152608082015292915050565b61041d6040518060a00160405280600015158152602001606081526020016060815260200160608152602001606081525090565b811580825261044557604051806060016040528060238152602001611efe6023913960208201525b600182151514610472576040518060400160405280600581526020016466616c736560d81b815250610490565b604051806040016040528060048152602001637472756560e01b8152505b6040808301919091528051602080820183526000825260608401919091528151808301909252600782527f697346616c736500000000000000000000000000000000000000000000000000908201526080820152919050565b6104f1611589565b816104fa611589565b6105078160200151610f5e565b50604051806060016040528060298152602001611ed56029913981600001819052506000826001600160a01b031663d54ad2a16040518163ffffffff1660e01b81526004016020604051808303816000875af115801561056b573d6000803e3d6000fd5b505050506040513d601f19601f8201168201806040525081019061058f9190611c00565b905060008061059d85610fda565b915091508015610635576040805160a081018252600080825282518084018452601481527f43616c6c20746f20636c61696d206661696c6564000000000000000000000000602082810191909152808401919091528351808201855282815283850152835180820185528281526060840152835180820190945290835260808201929092529085015161062f91611081565b506106d5565b6040517f27e235e30000000000000000000000000000000000000000000000000000000081523060048201526106d3906106c8906001600160a01b038816906327e235e3906024016020604051808303816000875af115801561069c573d6000803e3d6000fd5b505050506040513d601f19601f820116820180604052508101906106c09190611c00565b6103e861025e565b602086015190611081565b505b6106de85610fda565b90925090508061075f576107596040518060a00160405280600015158152602001604051806060016040528060228152602001611f4360229139815260408051602081810183526000808352818501929092528251808201845282815283850152825180820190935290825260609092015286015190611081565b506107c7565b6040805160048152602481019091526020810180517bffffffffffffffffffffffffffffffffffffffffffffffffffffffff167f0b1327a6000000000000000000000000000000000000000000000000000000001790526107c5906106c89084906101af565b505b6000856001600160a01b031663d54ad2a16040518163ffffffff1660e01b81526004016020604051808303816000875af1158015610809573d6000803e3d6000fd5b505050506040513d601f19601f8201168201806040525081019061082d9190611c00565b905061084d61084282610105876103e8611c2f565b602087015190611081565b5093979650505050505050565b61088e6040518060a00160405280600015158152602001606081526020016060815260200160608152602001606081525090565b8160405160200161089f9190611c42565b60405160208183030381529060405280519060200120836040516020016108c69190611c42565b60408051601f1981840301815291905280516020909101201480825261091f576108ef836110f1565b6108f8836110f1565b604051602001610909929190611b7f565b60408051601f1981840301815291905260208201525b610928836110f1565b60408201526102ec826110f1565b61096a6040518060a00160405280600015158152602001606081526020016060815260200160608152602001606081525090565b8160405160200161097b9190611ca4565b60405160208183030381529060405280519060200120836040516020016109a29190611ca4565b60408051601f198184030181529190528051602090910120148082526109fb576109cb836111c6565b6109d4836111c6565b6040516020016109e5929190611b7f565b60408051601f1981840301815291905260208201525b610a04836111c6565b60408201526102ec826111c6565b610a466040518060a00160405280600015158152602001606081526020016060815260200160608152602001606081525090565b811515808252610a6f57604051806060016040528060228152602001611f216022913960208201525b600182151514610a9c576040518060400160405280600581526020016466616c736560d81b815250610aba565b604051806040016040528060048152602001637472756560e01b8152505b6040808301919091528051602080820183526000825260608401919091528151808301909252600682527f6973547275650000000000000000000000000000000000000000000000000000908201526080820152919050565b610b476040518060a00160405280600015158152602001606081526020016060815260200160608152602001606081525090565b6001600160a01b038381169083168114158252600090610b68906014610d56565b8251909150610b985780604051602001610b829190611cf1565b60408051601f1981840301815291905260208301525b60408083019190915280516020808201835260008252606084019190915281518083019092526005825264195c5d585b60da1b90820152608082015292915050565b610c0e6040518060a00160405280600015158152602001606081526020016060815260200160608152602001606081525090565b81604051602001610c1f9190611d5c565b6040516020818303038152906040528051906020012083604051602001610c469190611d5c565b60408051601f19818403018152919052805160209091012014808252610c9f57610c6f836112a2565b610c78836112a2565b604051602001610c89929190611b7f565b60408051601f1981840301815291905260208201525b610ca8836112a2565b60408201526102ec826112a2565b60606000610cc383611373565b600101905060008167ffffffffffffffff811115610ce357610ce36115bd565b6040519080825280601f01601f191660200182016040528015610d0d576020820181803683370190505b5090508181016020015b600019017f3031323334353637383961626364656600000000000000000000000000000000600a86061a8153600a8504945084610d1757509392505050565b60606000610d65836002611d94565b610d70906002611c2f565b67ffffffffffffffff811115610d8857610d886115bd565b6040519080825280601f01601f191660200182016040528015610db2576020820181803683370190505b5090507f300000000000000000000000000000000000000000000000000000000000000081600081518110610de957610de9611dab565b60200101906001600160f81b031916908160001a9053507f780000000000000000000000000000000000000000000000000000000000000081600181518110610e3457610e34611dab565b60200101906001600160f81b031916908160001a9053506000610e58846002611d94565b610e63906001611c2f565b90505b6001811115610ee8577f303132333435363738396162636465660000000000000000000000000000000085600f1660108110610ea457610ea4611dab565b1a60f81b828281518110610eba57610eba611dab565b60200101906001600160f81b031916908160001a90535060049490941c93610ee181611dc1565b9050610e66565b508315610f55576040517f08c379a000000000000000000000000000000000000000000000000000000000815260206004820181905260248201527f537472696e67733a20686578206c656e67746820696e73756666696369656e74604482015260640160405180910390fd5b90505b92915050565b60408051808201825260608152600060208201528151600480825260a082019093529091816020015b610fbb6040518060a00160405280600015158152602001606081526020016060815260200160608152602001606081525090565b815260200190600190039081610f875750508252506000602082015290565b60606000826001600160a01b0316634e71d92d6040518163ffffffff1660e01b8152600401600060405180830381600087803b15801561101957600080fd5b505af192505050801561102a575060015b611068573d808015611058576040519150601f19603f3d011682016040523d82523d6000602084013e61105d565b606091505b509360019350915050565b5050604080516020810190915260008082529092909150565b6040805180820190915260608152600060208201528251516020840151036110af576110ac83611455565b92505b8183600001518460200151815181106110ca576110ca611dab565b60200260200101819052508260200180518091906110e790611dd8565b9052509192915050565b6040805180820190915260018152605b60f81b602082015260609060005b83518110156111bf57600184516111269190611df1565b81101561116f578184828151811061114057611140611dab565b6020026020010151604051602001611159929190611e04565b60405160208183030381529060405291506111ad565b8184828151811061118257611182611dab565b602002602001015160405160200161119b929190611e5b565b60405160208183030381529060405291505b806111b781611dd8565b91505061110f565b5092915050565b6040805180820190915260018152605b60f81b602082015260609060005b83518110156111bf57600184516111fb9190611df1565b811015611257578161123085838151811061121857611218611dab565b60200260200101516001600160a01b03166014610d56565b604051602001611241929190611e04565b6040516020818303038152906040529150611290565b8161126d85838151811061121857611218611dab565b60405160200161127e929190611e5b565b60405160208183030381529060405291505b8061129a81611dd8565b9150506111e4565b6040805180820190915260018152605b60f81b602082015260609060005b83518110156111bf57600184516112d79190611df1565b81101561132857816113018583815181106112f4576112f4611dab565b6020026020010151610cb6565b604051602001611312929190611e04565b6040516020818303038152906040529150611361565b8161133e8583815181106112f4576112f4611dab565b60405160200161134f929190611e5b565b60405160208183030381529060405291505b8061136b81611dd8565b9150506112c0565b6000807a184f03e93ff9f4daa797ed6e38ed64bf6a1f01000000000000000083106113bc577a184f03e93ff9f4daa797ed6e38ed64bf6a1f010000000000000000830492506040015b6d04ee2d6d415b85acef810000000083106113e8576d04ee2d6d415b85acef8100000000830492506020015b662386f26fc10000831061140657662386f26fc10000830492506010015b6305f5e100831061141e576305f5e100830492506008015b612710831061143257612710830492506004015b60648310611444576064830492506002015b600a8310610f585760010192915050565b604080518082019091526060815260006020820152604080518082019091526060815260006020820152825151600290611490906003611d94565b61149a9190611eb2565b67ffffffffffffffff8111156114b2576114b26115bd565b60405190808252806020026020018201604052801561151757816020015b6115046040518060a00160405280600015158152602001606081526020016060815260200160608152602001606081525090565b8152602001906001900390816114d05790505b50815260005b83515181101561157757835180518290811061153b5761153b611dab565b60200260200101518260000151828151811061155957611559611dab565b6020026020010181905250808061156f90611dd8565b91505061151d565b50602092830151928101929092525090565b6040518060400160405280606081526020016115b8604051806040016040528060608152602001600081525090565b905290565b634e487b7160e01b600052604160045260246000fd5b604051601f8201601f1916810167ffffffffffffffff811182821017156115fc576115fc6115bd565b604052919050565b600082601f83011261161557600080fd5b813567ffffffffffffffff81111561162f5761162f6115bd565b611642601f8201601f19166020016115d3565b81815284602083860101111561165757600080fd5b816020850160208301376000918101602001919091529392505050565b6000806040838503121561168757600080fd5b823567ffffffffffffffff8082111561169f57600080fd5b6116ab86838701611604565b935060208501359150808211156116c157600080fd5b506116ce85828601611604565b9150509250929050565b60005b838110156116f35781810151838201526020016116db565b50506000910152565b600081518084526117148160208601602086016116d8565b601f01601f19169290920160200192915050565b8051151582526000602082015160a0602085015261174960a08501826116fc565b90506040830151848203604086015261176282826116fc565b9150506060830151848203606086015261177c82826116fc565b9150506080830151848203608086015261179682826116fc565b95945050505050565b6020815260006117b26020830184611728565b9392505050565b600080604083850312156117cc57600080fd5b50508035926020909101359150565b80356001600160a01b03811681146117f257600080fd5b919050565b6000806040838503121561180a57600080fd5b611813836117db565b9150611821602084016117db565b90509250929050565b60006020828403121561183c57600080fd5b81358015158114610f5557600080fd5b60006020828403121561185e57600080fd5b6117b2826117db565b60006020808352835160408285015261188360608501826116fc565b905081850151601f198583030160408601526040820181516040845281815180845260608601915060608160051b8701019350868301925060005b818110156118ec57605f198786030183526118da858551611728565b945092870192918701916001016118be565b505050509083015191909201529392505050565b600067ffffffffffffffff82111561191a5761191a6115bd565b5060051b60200190565b600082601f83011261193557600080fd5b8135602061194a61194583611900565b6115d3565b82815260059290921b8401810191818101908684111561196957600080fd5b8286015b848110156119a957803567ffffffffffffffff81111561198d5760008081fd5b61199b8986838b0101611604565b84525091830191830161196d565b509695505050505050565b600080604083850312156119c757600080fd5b823567ffffffffffffffff808211156119df57600080fd5b6119eb86838701611924565b93506020850135915080821115611a0157600080fd5b506116ce85828601611924565b600082601f830112611a1f57600080fd5b81356020611a2f61194583611900565b82815260059290921b84018101918181019086841115611a4e57600080fd5b8286015b848110156119a957611a63816117db565b8352918301918301611a52565b60008060408385031215611a8357600080fd5b823567ffffffffffffffff80821115611a9b57600080fd5b611aa786838701611a0e565b93506020850135915080821115611abd57600080fd5b506116ce85828601611a0e565b600082601f830112611adb57600080fd5b81356020611aeb61194583611900565b82815260059290921b84018101918181019086841115611b0a57600080fd5b8286015b848110156119a95780358352918301918301611b0e565b60008060408385031215611b3857600080fd5b823567ffffffffffffffff80821115611b5057600080fd5b611b5c86838701611aca565b93506020850135915080821115611b7257600080fd5b506116ce85828601611aca565b7f417373657274696f6e4572726f723a2000000000000000000000000000000000815260008351611bb78160108501602088016116d8565b7f206973206e6f7420657175616c20746f200000000000000000000000000000006010918401918201528351611bf48160218401602088016116d8565b01602101949350505050565b600060208284031215611c1257600080fd5b5051919050565b634e487b7160e01b600052601160045260246000fd5b80820180821115610f5857610f58611c19565b6000602080830181845280855180835260408601915060408160051b870101925083870160005b82811015611c9757603f19888603018452611c858583516116fc565b94509285019290850190600101611c69565b5092979650505050505050565b6020808252825182820181905260009190848201906040850190845b81811015611ce55783516001600160a01b031683529284019291840191600101611cc0565b50909695505050505050565b7f417373657274696f6e4572726f723a200000000000000000000000000000000081527f20426f74682076616c7565732061726500000000000000000000000000000000601082015260008251611d4f8160208501602087016116d8565b9190910160200192915050565b6020808252825182820181905260009190848201906040850190845b81811015611ce557835183529284019291840191600101611d78565b8082028115828204841417610f5857610f58611c19565b634e487b7160e01b600052603260045260246000fd5b600081611dd057611dd0611c19565b506000190190565b600060018201611dea57611dea611c19565b5060010190565b81810381811115610f5857610f58611c19565b60008351611e168184602088016116d8565b835190830190611e2a8183602088016116d8565b7f2c200000000000000000000000000000000000000000000000000000000000009101908152600201949350505050565b60008351611e6d8184602088016116d8565b835190830190611e818183602088016116d8565b7f5d000000000000000000000000000000000000000000000000000000000000009101908152600101949350505050565b600082611ecf57634e487b7160e01b600052601260045260246000fd5b50049056fe557365722073686f756c642062652061626c6520746f20636c61696d2065786163746c79206f6e6365417373657274696f6e4572726f723a20726573756c74206973206e6f742066616c7365417373657274696f6e4572726f723a20726573756c74206973206e6f742074727565457870656374656420726576657274207769746820546f6b656e73436c61696d6564a264697066735822122007a7f7ea90dbed1ba97e6b25aaff3c16fb193098d27b5401093350b06d45e1b064736f6c63430008110033608060405234801561001057600080fd5b5060405161210e38038061210e83398101604081905261002f91610054565b600080546001600160a01b0319166001600160a01b0392909216919091179055610084565b60006020828403121561006657600080fd5b81516001600160a01b038116811461007d57600080fd5b9392505050565b61207b806100936000396000f3fe608060405234801561001057600080fd5b50600436106100c95760003560e01c80634b64e4921161008157806374f130701161005b57806374f1307014610176578063d70968e714610189578063e7da4c7e1461019c57600080fd5b80634b64e4921461013057806360fb55d5146101505780636df864781461016357600080fd5b806331495d33116100b257806331495d331461010a578063410dbb8b1461011d57806346bdca9a146100ce57600080fd5b8063235266d2146100ce57806330191626146100f7575b600080fd5b6100e16100dc3660046116b9565b6101af565b6040516100ee91906117e4565b60405180910390f35b6100e16101053660046117fe565b61025e565b6100e161011836600461183c565b610318565b6100e161012b366004611880565b6103e9565b61014361013e36600461189d565b6104e9565b6040516100ee91906118b8565b6100e161015e366004611a00565b610938565b6100e1610171366004611abc565b610a14565b6100e1610184366004611880565b610af0565b6100e161019736600461183c565b610bf1565b6100e16101aa366004611b71565b610cb8565b6101e36040518060a00160405280600015158152602001606081526020016060815260200160608152602001606081525090565b815160208084019190912084519185019190912014808252610228578282604051602001610212929190611bcb565b60408051601f1981840301815291905260208201525b604080820193909352606081019190915281518083019092526005825264195c5d585b60da1b6020830152608081019190915290565b6102926040518060a00160405280600015158152602001606081526020016060815260200160608152602001606081525090565b8282148082526102d5576102a583610d94565b6102ae83610d94565b6040516020016102bf929190611bcb565b60408051601f1981840301815291905260208201525b6102de83610d94565b60408201526102ec82610d94565b6060820152604080518082019091526005815264195c5d585b60da1b6020820152608082015292915050565b61034c6040518060a00160405280600015158152602001606081526020016060815260200160608152602001606081525090565b6001600160a01b038381169083168114825260009061036c906014610e34565b90506000610384846001600160a01b03166014610e34565b83519091506103b65781816040516020016103a0929190611bcb565b60408051601f1981840301815291905260208401525b604080840192909252606083015280518082019091526005815264195c5d585b60da1b6020820152608082015292915050565b61041d6040518060a00160405280600015158152602001606081526020016060815260200160608152602001606081525090565b811580825261044557604051806060016040528060238152602001611faf6023913960208201525b600182151514610472576040518060400160405280600581526020016466616c736560d81b815250610490565b604051806040016040528060048152602001637472756560e01b8152505b6040808301919091528051602080820183526000825260608401919091528151808301909252600782527f697346616c736500000000000000000000000000000000000000000000000000908201526080820152919050565b6104f16115c0565b816104fa6115c0565b610507816020015161103c565b50604051806060016040528060308152602001611ff46030913981600001819052506000826001600160a01b031663d54ad2a16040518163ffffffff1660e01b81526004016020604051808303816000875af115801561056b573d6000803e3d6000fd5b505050506040513d601f19601f8201168201806040525081019061058f9190611c4c565b60008054604051630f41a04d60e11b81526001600160a01b03878116600483015293945091928392911690631e83409a906024016000604051808303816000875af11580156105e2573d6000803e3d6000fd5b505050506040513d6000823e601f3d908101601f1916820160405261060a9190810190611c65565b9150915080156106a2576040805160a081018252600080825282518084018452601481527f43616c6c20746f20636c61696d206661696c6564000000000000000000000000602082810191909152808401919091528351808201855282815283850152835180820185528281526060840152835180820190945290835260808201929092529085015161069c916110b8565b50610748565b6000546040517f27e235e30000000000000000000000000000000000000000000000000000000081526001600160a01b0391821660048201526107469161073b91908816906327e235e3906024016020604051808303816000875af115801561070f573d6000803e3d6000fd5b505050506040513d601f19601f820116820180604052508101906107339190611c4c565b6103e861025e565b6020860151906110b8565b505b600054604051630f41a04d60e11b81526001600160a01b03878116600483015290911690631e83409a906024016000604051808303816000875af1158015610794573d6000803e3d6000fd5b505050506040513d6000823e601f3d908101601f191682016040526107bc9190810190611c65565b90925090508061083d576108376040518060a00160405280600015158152602001604051806060016040528060228152602001612024602291398152604080516020818101835260008083528185019290925282518082018452828152838501528251808201909352908252606090920152860151906110b8565b506108a5565b6040805160048152602481019091526020810180517bffffffffffffffffffffffffffffffffffffffffffffffffffffffff167f0b1327a6000000000000000000000000000000000000000000000000000000001790526108a39061073b9084906101af565b505b6000856001600160a01b031663d54ad2a16040518163ffffffff1660e01b81526004016020604051808303816000875af11580156108e7573d6000803e3d6000fd5b505050506040513d601f19601f8201168201806040525081019061090b9190611c4c565b905061092b61092082610105876103e8611d09565b6020870151906110b8565b5093979650505050505050565b61096c6040518060a00160405280600015158152602001606081526020016060815260200160608152602001606081525090565b8160405160200161097d9190611d1c565b60405160208183030381529060405280519060200120836040516020016109a49190611d1c565b60408051601f198184030181529190528051602090910120148082526109fd576109cd83611128565b6109d683611128565b6040516020016109e7929190611bcb565b60408051601f1981840301815291905260208201525b610a0683611128565b60408201526102ec82611128565b610a486040518060a00160405280600015158152602001606081526020016060815260200160608152602001606081525090565b81604051602001610a599190611d7e565b6040516020818303038152906040528051906020012083604051602001610a809190611d7e565b60408051601f19818403018152919052805160209091012014808252610ad957610aa9836111fd565b610ab2836111fd565b604051602001610ac3929190611bcb565b60408051601f1981840301815291905260208201525b610ae2836111fd565b60408201526102ec826111fd565b610b246040518060a00160405280600015158152602001606081526020016060815260200160608152602001606081525090565b811515808252610b4d57604051806060016040528060228152602001611fd26022913960208201525b600182151514610b7a576040518060400160405280600581526020016466616c736560d81b815250610b98565b604051806040016040528060048152602001637472756560e01b8152505b6040808301919091528051602080820183526000825260608401919091528151808301909252600682527f6973547275650000000000000000000000000000000000000000000000000000908201526080820152919050565b610c256040518060a00160405280600015158152602001606081526020016060815260200160608152602001606081525090565b6001600160a01b038381169083168114158252600090610c46906014610e34565b8251909150610c765780604051602001610c609190611dcb565b60408051601f1981840301815291905260208301525b60408083019190915280516020808201835260008252606084019190915281518083019092526005825264195c5d585b60da1b90820152608082015292915050565b610cec6040518060a00160405280600015158152602001606081526020016060815260200160608152602001606081525090565b81604051602001610cfd9190611e36565b6040516020818303038152906040528051906020012083604051602001610d249190611e36565b60408051601f19818403018152919052805160209091012014808252610d7d57610d4d836112d9565b610d56836112d9565b604051602001610d67929190611bcb565b60408051601f1981840301815291905260208201525b610d86836112d9565b60408201526102ec826112d9565b60606000610da1836113aa565b600101905060008167ffffffffffffffff811115610dc157610dc16115f4565b6040519080825280601f01601f191660200182016040528015610deb576020820181803683370190505b5090508181016020015b600019017f3031323334353637383961626364656600000000000000000000000000000000600a86061a8153600a8504945084610df557509392505050565b60606000610e43836002611e6e565b610e4e906002611d09565b67ffffffffffffffff811115610e6657610e666115f4565b6040519080825280601f01601f191660200182016040528015610e90576020820181803683370190505b5090507f300000000000000000000000000000000000000000000000000000000000000081600081518110610ec757610ec7611e85565b60200101906001600160f81b031916908160001a9053507f780000000000000000000000000000000000000000000000000000000000000081600181518110610f1257610f12611e85565b60200101906001600160f81b031916908160001a9053506000610f36846002611e6e565b610f41906001611d09565b90505b6001811115610fc6577f303132333435363738396162636465660000000000000000000000000000000085600f1660108110610f8257610f82611e85565b1a60f81b828281518110610f9857610f98611e85565b60200101906001600160f81b031916908160001a90535060049490941c93610fbf81611e9b565b9050610f44565b508315611033576040517f08c379a000000000000000000000000000000000000000000000000000000000815260206004820181905260248201527f537472696e67733a20686578206c656e67746820696e73756666696369656e74604482015260640160405180910390fd5b90505b92915050565b60408051808201825260608152600060208201528151600480825260a082019093529091816020015b6110996040518060a00160405280600015158152602001606081526020016060815260200160608152602001606081525090565b8152602001906001900390816110655750508252506000602082015290565b6040805180820190915260608152600060208201528251516020840151036110e6576110e38361148c565b92505b81836000015184602001518151811061110157611101611e85565b602002602001018190525082602001805180919061111e90611eb2565b9052509192915050565b6040805180820190915260018152605b60f81b602082015260609060005b83518110156111f6576001845161115d9190611ecb565b8110156111a6578184828151811061117757611177611e85565b6020026020010151604051602001611190929190611ede565b60405160208183030381529060405291506111e4565b818482815181106111b9576111b9611e85565b60200260200101516040516020016111d2929190611f35565b60405160208183030381529060405291505b806111ee81611eb2565b915050611146565b5092915050565b6040805180820190915260018152605b60f81b602082015260609060005b83518110156111f657600184516112329190611ecb565b81101561128e578161126785838151811061124f5761124f611e85565b60200260200101516001600160a01b03166014610e34565b604051602001611278929190611ede565b60405160208183030381529060405291506112c7565b816112a485838151811061124f5761124f611e85565b6040516020016112b5929190611f35565b60405160208183030381529060405291505b806112d181611eb2565b91505061121b565b6040805180820190915260018152605b60f81b602082015260609060005b83518110156111f6576001845161130e9190611ecb565b81101561135f578161133885838151811061132b5761132b611e85565b6020026020010151610d94565b604051602001611349929190611ede565b6040516020818303038152906040529150611398565b8161137585838151811061132b5761132b611e85565b604051602001611386929190611f35565b60405160208183030381529060405291505b806113a281611eb2565b9150506112f7565b6000807a184f03e93ff9f4daa797ed6e38ed64bf6a1f01000000000000000083106113f3577a184f03e93ff9f4daa797ed6e38ed64bf6a1f010000000000000000830492506040015b6d04ee2d6d415b85acef8100000000831061141f576d04ee2d6d415b85acef8100000000830492506020015b662386f26fc10000831061143d57662386f26fc10000830492506010015b6305f5e1008310611455576305f5e100830492506008015b612710831061146957612710830492506004015b6064831061147b576064830492506002015b600a83106110365760010192915050565b6040805180820190915260608152600060208201526040805180820190915260608152600060208201528251516002906114c7906003611e6e565b6114d19190611f8c565b67ffffffffffffffff8111156114e9576114e96115f4565b60405190808252806020026020018201604052801561154e57816020015b61153b6040518060a00160405280600015158152602001606081526020016060815260200160608152602001606081525090565b8152602001906001900390816115075790505b50815260005b8351518110156115ae57835180518290811061157257611572611e85565b60200260200101518260000151828151811061159057611590611e85565b602002602001018190525080806115a690611eb2565b915050611554565b50602092830151928101929092525090565b6040518060400160405280606081526020016115ef604051806040016040528060608152602001600081525090565b905290565b634e487b7160e01b600052604160045260246000fd5b604051601f8201601f1916810167ffffffffffffffff81118282101715611633576116336115f4565b604052919050565b600067ffffffffffffffff821115611655576116556115f4565b50601f01601f191660200190565b600082601f83011261167457600080fd5b81356116876116828261163b565b61160a565b81815284602083860101111561169c57600080fd5b816020850160208301376000918101602001919091529392505050565b600080604083850312156116cc57600080fd5b823567ffffffffffffffff808211156116e457600080fd5b6116f086838701611663565b9350602085013591508082111561170657600080fd5b5061171385828601611663565b9150509250929050565b60005b83811015611738578181015183820152602001611720565b50506000910152565b6000815180845261175981602086016020860161171d565b601f01601f19169290920160200192915050565b8051151582526000602082015160a0602085015261178e60a0850182611741565b9050604083015184820360408601526117a78282611741565b915050606083015184820360608601526117c18282611741565b915050608083015184820360808601526117db8282611741565b95945050505050565b6020815260006117f7602083018461176d565b9392505050565b6000806040838503121561181157600080fd5b50508035926020909101359150565b80356001600160a01b038116811461183757600080fd5b919050565b6000806040838503121561184f57600080fd5b61185883611820565b915061186660208401611820565b90509250929050565b801515811461187d57600080fd5b50565b60006020828403121561189257600080fd5b81356110338161186f565b6000602082840312156118af57600080fd5b6117f782611820565b6000602080835283516040828501526118d46060850182611741565b905081850151601f198583030160408601526040820181516040845281815180845260608601915060608160051b8701019350868301925060005b8181101561193d57605f1987860301835261192b85855161176d565b9450928701929187019160010161190f565b505050509083015191909201529392505050565b600067ffffffffffffffff82111561196b5761196b6115f4565b5060051b60200190565b600082601f83011261198657600080fd5b8135602061199661168283611951565b82815260059290921b840181019181810190868411156119b557600080fd5b8286015b848110156119f557803567ffffffffffffffff8111156119d95760008081fd5b6119e78986838b0101611663565b8452509183019183016119b9565b509695505050505050565b60008060408385031215611a1357600080fd5b823567ffffffffffffffff80821115611a2b57600080fd5b611a3786838701611975565b93506020850135915080821115611a4d57600080fd5b5061171385828601611975565b600082601f830112611a6b57600080fd5b81356020611a7b61168283611951565b82815260059290921b84018101918181019086841115611a9a57600080fd5b8286015b848110156119f557611aaf81611820565b8352918301918301611a9e565b60008060408385031215611acf57600080fd5b823567ffffffffffffffff80821115611ae757600080fd5b611af386838701611a5a565b93506020850135915080821115611b0957600080fd5b5061171385828601611a5a565b600082601f830112611b2757600080fd5b81356020611b3761168283611951565b82815260059290921b84018101918181019086841115611b5657600080fd5b8286015b848110156119f55780358352918301918301611b5a565b60008060408385031215611b8457600080fd5b823567ffffffffffffffff80821115611b9c57600080fd5b611ba886838701611b16565b93506020850135915080821115611bbe57600080fd5b5061171385828601611b16565b7f417373657274696f6e4572726f723a2000000000000000000000000000000000815260008351611c0381601085016020880161171d565b7f206973206e6f7420657175616c20746f200000000000000000000000000000006010918401918201528351611c4081602184016020880161171d565b01602101949350505050565b600060208284031215611c5e57600080fd5b5051919050565b60008060408385031215611c7857600080fd5b825167ffffffffffffffff811115611c8f57600080fd5b8301601f81018513611ca057600080fd5b8051611cae6116828261163b565b818152866020838501011115611cc357600080fd5b611cd482602083016020860161171d565b8094505050506020830151611ce88161186f565b809150509250929050565b634e487b7160e01b600052601160045260246000fd5b8082018082111561103657611036611cf3565b6000602080830181845280855180835260408601915060408160051b870101925083870160005b82811015611d7157603f19888603018452611d5f858351611741565b94509285019290850190600101611d43565b5092979650505050505050565b6020808252825182820181905260009190848201906040850190845b81811015611dbf5783516001600160a01b031683529284019291840191600101611d9a565b50909695505050505050565b7f417373657274696f6e4572726f723a200000000000000000000000000000000081527f20426f74682076616c7565732061726500000000000000000000000000000000601082015260008251611e2981602085016020870161171d565b9190910160200192915050565b6020808252825182820181905260009190848201906040850190845b81811015611dbf57835183529284019291840191600101611e52565b808202811582820484141761103657611036611cf3565b634e487b7160e01b600052603260045260246000fd5b600081611eaa57611eaa611cf3565b506000190190565b600060018201611ec457611ec4611cf3565b5060010190565b8181038181111561103657611036611cf3565b60008351611ef081846020880161171d565b835190830190611f0481836020880161171d565b7f2c200000000000000000000000000000000000000000000000000000000000009101908152600201949350505050565b60008351611f4781846020880161171d565b835190830190611f5b81836020880161171d565b7f5d000000000000000000000000000000000000000000000000000000000000009101908152600101949350505050565b600082611fa957634e487b7160e01b600052601260045260246000fd5b50049056fe417373657274696f6e4572726f723a20726573756c74206973206e6f742066616c7365417373657274696f6e4572726f723a20726573756c74206973206e6f7420747275655365636f6e6420757365722073686f756c642062652061626c6520746f20636c61696d2065786163746c79206f6e6365457870656374656420726576657274207769746820546f6b656e73436c61696d6564a2646970667358221220caf69ff23ead0e126c31db33ca970b2359339f6a331e508836e421584281594f64736f6c63430008110033608060405234801561001057600080fd5b5061231c806100206000396000f3fe608060405234801561001057600080fd5b50600436106100c95760003560e01c80634b64e4921161008157806374f130701161005b57806374f1307014610176578063d70968e714610189578063e7da4c7e1461019c57600080fd5b80634b64e4921461013057806360fb55d5146101505780636df864781461016357600080fd5b806331495d33116100b257806331495d331461010a578063410dbb8b1461011d57806346bdca9a146100ce57600080fd5b8063235266d2146100ce57806330191626146100f7575b600080fd5b6100e16100dc3660046119aa565b6101af565b6040516100ee9190611ad5565b60405180910390f35b6100e1610105366004611aef565b61025e565b6100e1610118366004611b2d565b610318565b6100e161012b366004611b60565b6103e9565b61014361013e366004611b82565b6104e9565b6040516100ee9190611b9d565b6100e161015e366004611cea565b610a1b565b6100e1610171366004611da6565b610af7565b6100e1610184366004611b60565b610bd3565b6100e1610197366004611b2d565b610cd4565b6100e16101aa366004611e5b565b610d9b565b6101e36040518060a00160405280600015158152602001606081526020016060815260200160608152602001606081525090565b815160208084019190912084519185019190912014808252610228578282604051602001610212929190611eb5565b60408051601f1981840301815291905260208201525b604080820193909352606081019190915281518083019092526005825264195c5d585b60da1b6020830152608081019190915290565b6102926040518060a00160405280600015158152602001606081526020016060815260200160608152602001606081525090565b8282148082526102d5576102a583610e77565b6102ae83610e77565b6040516020016102bf929190611eb5565b60408051601f1981840301815291905260208201525b6102de83610e77565b60408201526102ec82610e77565b6060820152604080518082019091526005815264195c5d585b60da1b6020820152608082015292915050565b61034c6040518060a00160405280600015158152602001606081526020016060815260200160608152602001606081525090565b6001600160a01b038381169083168114825260009061036c906014610f17565b90506000610384846001600160a01b03166014610f17565b83519091506103b65781816040516020016103a0929190611eb5565b60408051601f1981840301815291905260208401525b604080840192909252606083015280518082019091526005815264195c5d585b60da1b6020820152608082015292915050565b61041d6040518060a00160405280600015158152602001606081526020016060815260200160608152602001606081525090565b8115808252610445576040518060600160405280602381526020016122a26023913960208201525b600182151514610472576040518060400160405280600581526020016466616c736560d81b815250610490565b604051806040016040528060048152602001637472756560e01b8152505b6040808301919091528051602080820183526000825260608401919091528151808301909252600782527f697346616c736500000000000000000000000000000000000000000000000000908201526080820152919050565b6104f16118b3565b816104fa6118b3565b610507816020015161111f565b5060405180606001604052806028815260200161227a60289139815260008061052f8461119b565b9150915080156105c7576040805160a081018252600080825282518084018452601481527f43616c6c20746f20636c61696d206661696c656400000000000000000000000060208281019190915280840191909152835180820185528281528385015283518082018552828152606084015283518082019094529083526080820192909252908401516105c191611242565b5061064e565b6040516327e235e360e01b815230600482015261064c90610641906001600160a01b038716906327e235e3906024016020604051808303816000875af1158015610615573d6000803e3d6000fd5b505050506040513d601f19601f820116820180604052508101906106399190611f36565b6103e861025e565b602085015190611242565b505b600060405161065c906118e7565b604051809103906000f080158015610678573d6000803e3d6000fd5b50905061069b857383c4afd6e1400b78c9ac9b9dc9a5ceed726a6d3660646112b2565b90935091508115610734576040805160a081018252600080825282518084018452601b81527f43616c6c20746f20736166655472616e73666572206661696c65640000000000602082810191909152808401919091528351808201855282815283850152835180820185528281526060840152835180820190945290835260808201929092529085015161072e91611242565b506107ce565b6040516327e235e360e01b81527383c4afd6e1400b78c9ac9b9dc9a5ceed726a6d3660048201526107cc906107c1906001600160a01b038816906327e235e3906024016020604051808303816000875af1158015610796573d6000803e3d6000fd5b505050506040513d601f19601f820116820180604052508101906107ba9190611f36565b606461025e565b602086015190611242565b505b6107da858260646112b2565b9093509150816108a0576108126040518060400160405280600d81526020016c191a591b89dd081c995d995c9d609a1b815250611386565b6040805160a081018252600080825282518084018452601e81527f457870656374656420556e736166655472616e73666572207265766572740000602082810191909152808401919091528351808201855282815283850152835180820185528281526060840152835180820190945290835260808201929092529085015161089a91611242565b5061091f565b6040516001600160a01b038216602482015261091d906107c19085906044015b60408051601f198184030181529190526020810180517bffffffffffffffffffffffffffffffffffffffffffffffffffffffff167f6a86d24c000000000000000000000000000000000000000000000000000000001790526101af565b505b61092c85600060646112b2565b9093509150816109f2576109646040518060400160405280600d81526020016c191a591b89dd081c995d995c9d609a1b815250611386565b6040805160a081018252600080825282518084018452601e81527f457870656374656420556e736166655472616e7366657220726576657274000060208281019190915280840191909152835180820185528281528385015283518082018552828152606084015283518082019094529083526080820192909252908501516109ec91611242565b50610a10565b60405160006024820152610a0e906107c19085906044016108c0565b505b509195945050505050565b610a4f6040518060a00160405280600015158152602001606081526020016060815260200160608152602001606081525090565b81604051602001610a609190611f4f565b6040516020818303038152906040528051906020012083604051602001610a879190611f4f565b60408051601f19818403018152919052805160209091012014808252610ae057610ab0836113fa565b610ab9836113fa565b604051602001610aca929190611eb5565b60408051601f1981840301815291905260208201525b610ae9836113fa565b60408201526102ec826113fa565b610b2b6040518060a00160405280600015158152602001606081526020016060815260200160608152602001606081525090565b81604051602001610b3c9190611fb1565b6040516020818303038152906040528051906020012083604051602001610b639190611fb1565b60408051601f19818403018152919052805160209091012014808252610bbc57610b8c836114cf565b610b95836114cf565b604051602001610ba6929190611eb5565b60408051601f1981840301815291905260208201525b610bc5836114cf565b60408201526102ec826114cf565b610c076040518060a00160405280600015158152602001606081526020016060815260200160608152602001606081525090565b811515808252610c30576040518060600160405280602281526020016122c56022913960208201525b600182151514610c5d576040518060400160405280600581526020016466616c736560d81b815250610c7b565b604051806040016040528060048152602001637472756560e01b8152505b6040808301919091528051602080820183526000825260608401919091528151808301909252600682527f6973547275650000000000000000000000000000000000000000000000000000908201526080820152919050565b610d086040518060a00160405280600015158152602001606081526020016060815260200160608152602001606081525090565b6001600160a01b038381169083168114158252600090610d29906014610f17565b8251909150610d595780604051602001610d439190611ffe565b60408051601f1981840301815291905260208301525b60408083019190915280516020808201835260008252606084019190915281518083019092526005825264195c5d585b60da1b90820152608082015292915050565b610dcf6040518060a00160405280600015158152602001606081526020016060815260200160608152602001606081525090565b81604051602001610de09190612069565b6040516020818303038152906040528051906020012083604051602001610e079190612069565b60408051601f19818403018152919052805160209091012014808252610e6057610e30836115ab565b610e39836115ab565b604051602001610e4a929190611eb5565b60408051601f1981840301815291905260208201525b610e69836115ab565b60408201526102ec826115ab565b60606000610e848361167c565b600101905060008167ffffffffffffffff811115610ea457610ea46118f3565b6040519080825280601f01601f191660200182016040528015610ece576020820181803683370190505b5090508181016020015b600019017f3031323334353637383961626364656600000000000000000000000000000000600a86061a8153600a8504945084610ed857509392505050565b60606000610f268360026120b7565b610f319060026120ce565b67ffffffffffffffff811115610f4957610f496118f3565b6040519080825280601f01601f191660200182016040528015610f73576020820181803683370190505b5090507f300000000000000000000000000000000000000000000000000000000000000081600081518110610faa57610faa6120e1565b60200101906001600160f81b031916908160001a9053507f780000000000000000000000000000000000000000000000000000000000000081600181518110610ff557610ff56120e1565b60200101906001600160f81b031916908160001a90535060006110198460026120b7565b6110249060016120ce565b90505b60018111156110a9577f303132333435363738396162636465660000000000000000000000000000000085600f1660108110611065576110656120e1565b1a60f81b82828151811061107b5761107b6120e1565b60200101906001600160f81b031916908160001a90535060049490941c936110a2816120f7565b9050611027565b508315611116576040517f08c379a000000000000000000000000000000000000000000000000000000000815260206004820181905260248201527f537472696e67733a20686578206c656e67746820696e73756666696369656e74604482015260640160405180910390fd5b90505b92915050565b60408051808201825260608152600060208201528151600480825260a082019093529091816020015b61117c6040518060a00160405280600015158152602001606081526020016060815260200160608152602001606081525090565b8152602001906001900390816111485750508252506000602082015290565b60606000826001600160a01b0316634e71d92d6040518163ffffffff1660e01b8152600401600060405180830381600087803b1580156111da57600080fd5b505af19250505080156111eb575060015b611229573d808015611219576040519150601f19603f3d011682016040523d82523d6000602084013e61121e565b606091505b509360019350915050565b5050604080516020810190915260008082529092909150565b6040805180820190915260608152600060208201528251516020840151036112705761126d8361175e565b92505b81836000015184602001518151811061128b5761128b6120e1565b60200260200101819052508260200180518091906112a89061210e565b9052509192915050565b6040517f423f6cef0000000000000000000000000000000000000000000000000000000081526001600160a01b0383811660048301526024820183905260609160009186169063423f6cef90604401600060405180830381600087803b15801561131b57600080fd5b505af192505050801561132c575060015b61136b573d80801561135a576040519150601f19603f3d011682016040523d82523d6000602084013e61135f565b606091505b5091506001905061137e565b5050604080516020810190915260008082525b935093915050565b6113f78160405160240161139a9190612127565b60408051601f198184030181529190526020810180517bffffffffffffffffffffffffffffffffffffffffffffffffffffffff167f41304fac00000000000000000000000000000000000000000000000000000000179052611892565b50565b6040805180820190915260018152605b60f81b602082015260609060005b83518110156114c8576001845161142f919061213a565b8110156114785781848281518110611449576114496120e1565b602002602001015160405160200161146292919061214d565b60405160208183030381529060405291506114b6565b8184828151811061148b5761148b6120e1565b60200260200101516040516020016114a49291906121a4565b60405160208183030381529060405291505b806114c08161210e565b915050611418565b5092915050565b6040805180820190915260018152605b60f81b602082015260609060005b83518110156114c85760018451611504919061213a565b8110156115605781611539858381518110611521576115216120e1565b60200260200101516001600160a01b03166014610f17565b60405160200161154a92919061214d565b6040516020818303038152906040529150611599565b81611576858381518110611521576115216120e1565b6040516020016115879291906121a4565b60405160208183030381529060405291505b806115a38161210e565b9150506114ed565b6040805180820190915260018152605b60f81b602082015260609060005b83518110156114c857600184516115e0919061213a565b811015611631578161160a8583815181106115fd576115fd6120e1565b6020026020010151610e77565b60405160200161161b92919061214d565b604051602081830303815290604052915061166a565b816116478583815181106115fd576115fd6120e1565b6040516020016116589291906121a4565b60405160208183030381529060405291505b806116748161210e565b9150506115c9565b6000807a184f03e93ff9f4daa797ed6e38ed64bf6a1f01000000000000000083106116c5577a184f03e93ff9f4daa797ed6e38ed64bf6a1f010000000000000000830492506040015b6d04ee2d6d415b85acef810000000083106116f1576d04ee2d6d415b85acef8100000000830492506020015b662386f26fc10000831061170f57662386f26fc10000830492506010015b6305f5e1008310611727576305f5e100830492506008015b612710831061173b57612710830492506004015b6064831061174d576064830492506002015b600a83106111195760010192915050565b6040805180820190915260608152600060208201526040805180820190915260608152600060208201528251516002906117999060036120b7565b6117a391906121fb565b67ffffffffffffffff8111156117bb576117bb6118f3565b60405190808252806020026020018201604052801561182057816020015b61180d6040518060a00160405280600015158152602001606081526020016060815260200160608152602001606081525090565b8152602001906001900390816117d95790505b50815260005b835151811015611880578351805182908110611844576118446120e1565b602002602001015182600001518281518110611862576118626120e1565b602002602001018190525080806118789061210e565b915050611826565b50602092830151928101929092525090565b80516a636f6e736f6c652e6c6f67602083016000808483855afa5050505050565b6040518060400160405280606081526020016118e2604051806040016040528060608152602001600081525090565b905290565b605c8061221e83390190565b634e487b7160e01b600052604160045260246000fd5b604051601f8201601f1916810167ffffffffffffffff81118282101715611932576119326118f3565b604052919050565b600082601f83011261194b57600080fd5b813567ffffffffffffffff811115611965576119656118f3565b611978601f8201601f1916602001611909565b81815284602083860101111561198d57600080fd5b816020850160208301376000918101602001919091529392505050565b600080604083850312156119bd57600080fd5b823567ffffffffffffffff808211156119d557600080fd5b6119e18683870161193a565b935060208501359150808211156119f757600080fd5b50611a048582860161193a565b9150509250929050565b60005b83811015611a29578181015183820152602001611a11565b50506000910152565b60008151808452611a4a816020860160208601611a0e565b601f01601f19169290920160200192915050565b8051151582526000602082015160a06020850152611a7f60a0850182611a32565b905060408301518482036040860152611a988282611a32565b91505060608301518482036060860152611ab28282611a32565b91505060808301518482036080860152611acc8282611a32565b95945050505050565b602081526000611ae86020830184611a5e565b9392505050565b60008060408385031215611b0257600080fd5b50508035926020909101359150565b80356001600160a01b0381168114611b2857600080fd5b919050565b60008060408385031215611b4057600080fd5b611b4983611b11565b9150611b5760208401611b11565b90509250929050565b600060208284031215611b7257600080fd5b8135801515811461111657600080fd5b600060208284031215611b9457600080fd5b611ae882611b11565b600060208083528351604082850152611bb96060850182611a32565b905081850151601f198583030160408601526040820181516040845281815180845260608601915060608160051b8701019350868301925060005b81811015611c2257605f19878603018352611c10858551611a5e565b94509287019291870191600101611bf4565b505050509083015191909201529392505050565b600067ffffffffffffffff821115611c5057611c506118f3565b5060051b60200190565b600082601f830112611c6b57600080fd5b81356020611c80611c7b83611c36565b611909565b82815260059290921b84018101918181019086841115611c9f57600080fd5b8286015b84811015611cdf57803567ffffffffffffffff811115611cc35760008081fd5b611cd18986838b010161193a565b845250918301918301611ca3565b509695505050505050565b60008060408385031215611cfd57600080fd5b823567ffffffffffffffff80821115611d1557600080fd5b611d2186838701611c5a565b93506020850135915080821115611d3757600080fd5b50611a0485828601611c5a565b600082601f830112611d5557600080fd5b81356020611d65611c7b83611c36565b82815260059290921b84018101918181019086841115611d8457600080fd5b8286015b84811015611cdf57611d9981611b11565b8352918301918301611d88565b60008060408385031215611db957600080fd5b823567ffffffffffffffff80821115611dd157600080fd5b611ddd86838701611d44565b93506020850135915080821115611df357600080fd5b50611a0485828601611d44565b600082601f830112611e1157600080fd5b81356020611e21611c7b83611c36565b82815260059290921b84018101918181019086841115611e4057600080fd5b8286015b84811015611cdf5780358352918301918301611e44565b60008060408385031215611e6e57600080fd5b823567ffffffffffffffff80821115611e8657600080fd5b611e9286838701611e00565b93506020850135915080821115611ea857600080fd5b50611a0485828601611e00565b7f417373657274696f6e4572726f723a2000000000000000000000000000000000815260008351611eed816010850160208801611a0e565b7f206973206e6f7420657175616c20746f200000000000000000000000000000006010918401918201528351611f2a816021840160208801611a0e565b01602101949350505050565b600060208284031215611f4857600080fd5b5051919050565b6000602080830181845280855180835260408601915060408160051b870101925083870160005b82811015611fa457603f19888603018452611f92858351611a32565b94509285019290850190600101611f76565b5092979650505050505050565b6020808252825182820181905260009190848201906040850190845b81811015611ff25783516001600160a01b031683529284019291840191600101611fcd565b50909695505050505050565b7f417373657274696f6e4572726f723a200000000000000000000000000000000081527f20426f74682076616c756573206172650000000000000000000000000000000060108201526000825161205c816020850160208701611a0e565b9190910160200192915050565b6020808252825182820181905260009190848201906040850190845b81811015611ff257835183529284019291840191600101612085565b634e487b7160e01b600052601160045260246000fd5b8082028115828204841417611119576111196120a1565b80820180821115611119576111196120a1565b634e487b7160e01b600052603260045260246000fd5b600081612106576121066120a1565b506000190190565b600060018201612120576121206120a1565b5060010190565b602081526000611ae86020830184611a32565b81810381811115611119576111196120a1565b6000835161215f818460208801611a0e565b835190830190612173818360208801611a0e565b7f2c200000000000000000000000000000000000000000000000000000000000009101908152600201949350505050565b600083516121b6818460208801611a0e565b8351908301906121ca818360208801611a0e565b7f5d000000000000000000000000000000000000000000000000000000000000009101908152600101949350505050565b60008261221857634e487b7160e01b600052601260045260246000fd5b50049056fe6080604052348015600f57600080fd5b50603f80601d6000396000f3fe6080604052600080fdfea264697066735822122066a588201dc7e8854635140260a51354b9fc13d15ae4cc4005592d5b4702457d64736f6c6343000811003353686f756c64206f6e6c79207472616e7366657220746f2066756e64656420616464726573736573417373657274696f6e4572726f723a20726573756c74206973206e6f742066616c7365417373657274696f6e4572726f723a20726573756c74206973206e6f742074727565a2646970667358221220959159c016a9db76725df26c3709a5fe2d0d7c79377c5eb2a27f424be9bb22be64736f6c63430008110033",
  "devdoc": {
    "kind": "dev",
    "methods": {
      "approve(address,uint256)": {
        "details": "See {IERC721-approve}."
      },
      "balanceOf(address)": {
        "details": "See {IERC721-balanceOf}."
      },
      "getApproved(uint256)": {
        "details": "See {IERC721-getApproved}."
      },
      "isApprovedForAll(address,address)": {
        "details": "See {IERC721-isApprovedForAll}."
      },
      "name()": {
        "details": "See {IERC721Metadata-name}."
      },
      "owner()": {
        "details": "Returns the address of the current owner."
      },
      "ownerOf(uint256)": {
        "details": "See {IERC721-ownerOf}."
      },
      "renounceOwnership()": {
        "details": "Leaves the contract without owner. It will not be possible to call `onlyOwner` functions anymore. Can only be called by the current owner. NOTE: Renouncing ownership will leave the contract without an owner, thereby removing any functionality that is only available to the owner."
      },
      "safeTransferFrom(address,address,uint256)": {
        "details": "See {IERC721-safeTransferFrom}."
      },
      "safeTransferFrom(address,address,uint256,bytes)": {
        "details": "See {IERC721-safeTransferFrom}."
      },
      "setApprovalForAll(address,bool)": {
        "details": "See {IERC721-setApprovalForAll}."
      },
      "supportsInterface(bytes4)": {
        "details": "See {IERC165-supportsInterface}."
      },
      "symbol()": {
        "details": "See {IERC721Metadata-symbol}."
      },
      "transferFrom(address,address,uint256)": {
        "details": "See {IERC721-transferFrom}."
      },
      "transferOwnership(address)": {
        "details": "Transfers ownership of the contract to a new account (`newOwner`). Can only be called by the current owner."
      }
    },
    "version": 1
  },
  "userdoc": {
    "kind": "user",
    "methods": {
      "checkIfAllPassed((string,((bool,string,string,string,string)[],uint256))[])": {
        "notice": "Check each assert in each test to see if any failed. Note:  The check is here instead of setting a `passed` bool in `TestResult` to reduce the amount of code in each unit test."
      }
    },
    "version": 1
  },
  "storageLayout": {
    "storage": [
      {
        "astId": 882,
        "contract": "contracts/MinimalTokenUT.sol:MinimalTokenUT",
        "label": "_name",
        "offset": 0,
        "slot": "0",
        "type": "t_string_storage"
      },
      {
        "astId": 884,
        "contract": "contracts/MinimalTokenUT.sol:MinimalTokenUT",
        "label": "_symbol",
        "offset": 0,
        "slot": "1",
        "type": "t_string_storage"
      },
      {
        "astId": 888,
        "contract": "contracts/MinimalTokenUT.sol:MinimalTokenUT",
        "label": "_owners",
        "offset": 0,
        "slot": "2",
        "type": "t_mapping(t_uint256,t_address)"
      },
      {
        "astId": 892,
        "contract": "contracts/MinimalTokenUT.sol:MinimalTokenUT",
        "label": "_balances",
        "offset": 0,
        "slot": "3",
        "type": "t_mapping(t_address,t_uint256)"
      },
      {
        "astId": 896,
        "contract": "contracts/MinimalTokenUT.sol:MinimalTokenUT",
        "label": "_tokenApprovals",
        "offset": 0,
        "slot": "4",
        "type": "t_mapping(t_uint256,t_address)"
      },
      {
        "astId": 902,
        "contract": "contracts/MinimalTokenUT.sol:MinimalTokenUT",
        "label": "_operatorApprovals",
        "offset": 0,
        "slot": "5",
        "type": "t_mapping(t_address,t_mapping(t_address,t_bool))"
      },
      {
        "astId": 7,
        "contract": "contracts/MinimalTokenUT.sol:MinimalTokenUT",
        "label": "_owner",
        "offset": 0,
        "slot": "6",
        "type": "t_address"
      },
      {
        "astId": 123,
        "contract": "contracts/MinimalTokenUT.sol:MinimalTokenUT",
        "label": "_status",
        "offset": 0,
        "slot": "7",
        "type": "t_uint256"
      },
      {
        "astId": 6525,
        "contract": "contracts/MinimalTokenUT.sol:MinimalTokenUT",
        "label": "tokenIds",
        "offset": 0,
        "slot": "8",
        "type": "t_struct(Counter)2320_storage"
      },
      {
        "astId": 6529,
        "contract": "contracts/MinimalTokenUT.sol:MinimalTokenUT",
        "label": "owners",
        "offset": 0,
        "slot": "9",
        "type": "t_mapping(t_address,t_bool)"
      },
      {
        "astId": 6533,
        "contract": "contracts/MinimalTokenUT.sol:MinimalTokenUT",
        "label": "submittedContracts",
        "offset": 0,
        "slot": "10",
        "type": "t_mapping(t_address,t_bool)"
      },
      {
        "astId": 6536,
        "contract": "contracts/MinimalTokenUT.sol:MinimalTokenUT",
        "label": "active",
        "offset": 0,
        "slot": "11",
        "type": "t_bool"
      },
      {
        "astId": 6539,
        "contract": "contracts/MinimalTokenUT.sol:MinimalTokenUT",
        "label": "AllTokenURI",
        "offset": 0,
        "slot": "12",
        "type": "t_string_storage"
      },
      {
        "astId": 6559,
        "contract": "contracts/MinimalTokenUT.sol:MinimalTokenUT",
        "label": "tests",
        "offset": 0,
        "slot": "13",
        "type": "t_array(t_contract(ITest)6495)dyn_storage"
      },
      {
        "astId": 6563,
        "contract": "contracts/MinimalTokenUT.sol:MinimalTokenUT",
        "label": "deployer",
        "offset": 0,
        "slot": "14",
        "type": "t_contract(IDeploy)6506"
      }
    ],
    "types": {
      "t_address": {
        "encoding": "inplace",
        "label": "address",
        "numberOfBytes": "20"
      },
      "t_array(t_contract(ITest)6495)dyn_storage": {
        "base": "t_contract(ITest)6495",
        "encoding": "dynamic_array",
        "label": "contract ITest[]",
        "numberOfBytes": "32"
      },
      "t_bool": {
        "encoding": "inplace",
        "label": "bool",
        "numberOfBytes": "1"
      },
      "t_contract(IDeploy)6506": {
        "encoding": "inplace",
        "label": "contract IDeploy",
        "numberOfBytes": "20"
      },
      "t_contract(ITest)6495": {
        "encoding": "inplace",
        "label": "contract ITest",
        "numberOfBytes": "20"
      },
      "t_mapping(t_address,t_bool)": {
        "encoding": "mapping",
        "key": "t_address",
        "label": "mapping(address => bool)",
        "numberOfBytes": "32",
        "value": "t_bool"
      },
      "t_mapping(t_address,t_mapping(t_address,t_bool))": {
        "encoding": "mapping",
        "key": "t_address",
        "label": "mapping(address => mapping(address => bool))",
        "numberOfBytes": "32",
        "value": "t_mapping(t_address,t_bool)"
      },
      "t_mapping(t_address,t_uint256)": {
        "encoding": "mapping",
        "key": "t_address",
        "label": "mapping(address => uint256)",
        "numberOfBytes": "32",
        "value": "t_uint256"
      },
      "t_mapping(t_uint256,t_address)": {
        "encoding": "mapping",
        "key": "t_uint256",
        "label": "mapping(uint256 => address)",
        "numberOfBytes": "32",
        "value": "t_address"
      },
      "t_string_storage": {
        "encoding": "bytes",
        "label": "string",
        "numberOfBytes": "32"
      },
      "t_struct(Counter)2320_storage": {
        "encoding": "inplace",
        "label": "struct Counters.Counter",
        "members": [
          {
            "astId": 2319,
            "contract": "contracts/MinimalTokenUT.sol:MinimalTokenUT",
            "label": "_value",
            "offset": 0,
            "slot": "0",
            "type": "t_uint256"
          }
        ],
        "numberOfBytes": "32"
      },
      "t_uint256": {
        "encoding": "inplace",
        "label": "uint256",
        "numberOfBytes": "32"
      }
    }
  }
}