{
  "address": "0x805712508445AC8883C048B639D7eAdF33C1EE35",
  "abi": [
    {
      "inputs": [],
      "stateMutability": "nonpayable",
      "type": "constructor"
    },
    {
      "inputs": [],
      "name": "NotActive",
      "type": "error"
    },
    {
      "inputs": [],
      "name": "SoulboundToken",
      "type": "error"
    },
    {
      "anonymous": false,
      "inputs": [
        {
          "indexed": true,
          "internalType": "address",
          "name": "owner",
          "type": "address"
        },
        {
          "indexed": true,
          "internalType": "address",
          "name": "approved",
          "type": "address"
        },
        {
          "indexed": true,
          "internalType": "uint256",
          "name": "tokenId",
          "type": "uint256"
        }
      ],
      "name": "Approval",
      "type": "event"
    },
    {
      "anonymous": false,
      "inputs": [
        {
          "indexed": true,
          "internalType": "address",
          "name": "owner",
          "type": "address"
        },
        {
          "indexed": true,
          "internalType": "address",
          "name": "operator",
          "type": "address"
        },
        {
          "indexed": false,
          "internalType": "bool",
          "name": "approved",
          "type": "bool"
        }
      ],
      "name": "ApprovalForAll",
      "type": "event"
    },
    {
      "anonymous": false,
      "inputs": [
        {
          "indexed": true,
          "internalType": "address",
          "name": "previousOwner",
          "type": "address"
        },
        {
          "indexed": true,
          "internalType": "address",
          "name": "newOwner",
          "type": "address"
        }
      ],
      "name": "OwnershipTransferred",
      "type": "event"
    },
    {
      "anonymous": false,
      "inputs": [
        {
          "indexed": false,
          "internalType": "address",
          "name": "submission",
          "type": "address"
        },
        {
          "indexed": false,
          "internalType": "bool",
          "name": "passed",
          "type": "bool"
        },
        {
          "components": [
            {
              "internalType": "string",
              "name": "message",
              "type": "string"
            },
            {
              "components": [
                {
                  "components": [
                    {
                      "internalType": "bool",
                      "name": "passed",
                      "type": "bool"
                    },
                    {
                      "internalType": "string",
                      "name": "assertionError",
                      "type": "string"
                    },
                    {
                      "internalType": "string",
                      "name": "returnedAsString",
                      "type": "string"
                    },
                    {
                      "internalType": "string",
                      "name": "expectedAsString",
                      "type": "string"
                    },
                    {
                      "internalType": "string",
                      "name": "methodName",
                      "type": "string"
                    }
                  ],
                  "internalType": "struct Assert.AssertResult[]",
                  "name": "elements",
                  "type": "tuple[]"
                },
                {
                  "internalType": "uint256",
                  "name": "num",
                  "type": "uint256"
                }
              ],
              "internalType": "struct List.ARList",
              "name": "assertResults",
              "type": "tuple"
            }
          ],
          "indexed": false,
          "internalType": "struct Cafe.TestResult[]",
          "name": "testResults",
          "type": "tuple[]"
        }
      ],
      "name": "TestSuiteResult",
      "type": "event"
    },
    {
      "anonymous": false,
      "inputs": [
        {
          "indexed": true,
          "internalType": "address",
          "name": "from",
          "type": "address"
        },
        {
          "indexed": true,
          "internalType": "address",
          "name": "to",
          "type": "address"
        },
        {
          "indexed": true,
          "internalType": "uint256",
          "name": "tokenId",
          "type": "uint256"
        }
      ],
      "name": "Transfer",
      "type": "event"
    },
    {
      "inputs": [
        {
          "internalType": "address",
          "name": "to",
          "type": "address"
        },
        {
          "internalType": "uint256",
          "name": "tokenId",
          "type": "uint256"
        }
      ],
      "name": "approve",
      "outputs": [],
      "stateMutability": "nonpayable",
      "type": "function"
    },
    {
      "inputs": [
        {
          "internalType": "address",
          "name": "owner",
          "type": "address"
        }
      ],
      "name": "balanceOf",
      "outputs": [
        {
          "internalType": "uint256",
          "name": "",
          "type": "uint256"
        }
      ],
      "stateMutability": "view",
      "type": "function"
    },
    {
      "inputs": [
        {
          "components": [
            {
              "internalType": "string",
              "name": "message",
              "type": "string"
            },
            {
              "components": [
                {
                  "components": [
                    {
                      "internalType": "bool",
                      "name": "passed",
                      "type": "bool"
                    },
                    {
                      "internalType": "string",
                      "name": "assertionError",
                      "type": "string"
                    },
                    {
                      "internalType": "string",
                      "name": "returnedAsString",
                      "type": "string"
                    },
                    {
                      "internalType": "string",
                      "name": "expectedAsString",
                      "type": "string"
                    },
                    {
                      "internalType": "string",
                      "name": "methodName",
                      "type": "string"
                    }
                  ],
                  "internalType": "struct Assert.AssertResult[]",
                  "name": "elements",
                  "type": "tuple[]"
                },
                {
                  "internalType": "uint256",
                  "name": "num",
                  "type": "uint256"
                }
              ],
              "internalType": "struct List.ARList",
              "name": "assertResults",
              "type": "tuple"
            }
          ],
          "internalType": "struct Cafe.TestResult[]",
          "name": "_testResults",
          "type": "tuple[]"
        }
      ],
      "name": "checkIfAllPassed",
      "outputs": [
        {
          "internalType": "bool",
          "name": "",
          "type": "bool"
        }
      ],
      "stateMutability": "pure",
      "type": "function"
    },
    {
      "inputs": [
        {
          "internalType": "bytes",
          "name": "a",
          "type": "bytes"
        },
        {
          "internalType": "bytes",
          "name": "b",
          "type": "bytes"
        }
      ],
      "name": "equal",
      "outputs": [
        {
          "components": [
            {
              "internalType": "bool",
              "name": "passed",
              "type": "bool"
            },
            {
              "internalType": "string",
              "name": "assertionError",
              "type": "string"
            },
            {
              "internalType": "string",
              "name": "returnedAsString",
              "type": "string"
            },
            {
              "internalType": "string",
              "name": "expectedAsString",
              "type": "string"
            },
            {
              "internalType": "string",
              "name": "methodName",
              "type": "string"
            }
          ],
          "internalType": "struct Assert.AssertResult",
          "name": "result",
          "type": "tuple"
        }
      ],
      "stateMutability": "pure",
      "type": "function"
    },
    {
      "inputs": [
        {
          "internalType": "uint256",
          "name": "a",
          "type": "uint256"
        },
        {
          "internalType": "uint256",
          "name": "b",
          "type": "uint256"
        }
      ],
      "name": "equal",
      "outputs": [
        {
          "components": [
            {
              "internalType": "bool",
              "name": "passed",
              "type": "bool"
            },
            {
              "internalType": "string",
              "name": "assertionError",
              "type": "string"
            },
            {
              "internalType": "string",
              "name": "returnedAsString",
              "type": "string"
            },
            {
              "internalType": "string",
              "name": "expectedAsString",
              "type": "string"
            },
            {
              "internalType": "string",
              "name": "methodName",
              "type": "string"
            }
          ],
          "internalType": "struct Assert.AssertResult",
          "name": "result",
          "type": "tuple"
        }
      ],
      "stateMutability": "pure",
      "type": "function"
    },
    {
      "inputs": [
        {
          "internalType": "address",
          "name": "a",
          "type": "address"
        },
        {
          "internalType": "address",
          "name": "b",
          "type": "address"
        }
      ],
      "name": "equal",
      "outputs": [
        {
          "components": [
            {
              "internalType": "bool",
              "name": "passed",
              "type": "bool"
            },
            {
              "internalType": "string",
              "name": "assertionError",
              "type": "string"
            },
            {
              "internalType": "string",
              "name": "returnedAsString",
              "type": "string"
            },
            {
              "internalType": "string",
              "name": "expectedAsString",
              "type": "string"
            },
            {
              "internalType": "string",
              "name": "methodName",
              "type": "string"
            }
          ],
          "internalType": "struct Assert.AssertResult",
          "name": "result",
          "type": "tuple"
        }
      ],
      "stateMutability": "pure",
      "type": "function"
    },
    {
      "inputs": [
        {
          "internalType": "string",
          "name": "a",
          "type": "string"
        },
        {
          "internalType": "string",
          "name": "b",
          "type": "string"
        }
      ],
      "name": "equal",
      "outputs": [
        {
          "components": [
            {
              "internalType": "bool",
              "name": "passed",
              "type": "bool"
            },
            {
              "internalType": "string",
              "name": "assertionError",
              "type": "string"
            },
            {
              "internalType": "string",
              "name": "returnedAsString",
              "type": "string"
            },
            {
              "internalType": "string",
              "name": "expectedAsString",
              "type": "string"
            },
            {
              "internalType": "string",
              "name": "methodName",
              "type": "string"
            }
          ],
          "internalType": "struct Assert.AssertResult",
          "name": "result",
          "type": "tuple"
        }
      ],
      "stateMutability": "pure",
      "type": "function"
    },
    {
      "inputs": [
        {
          "internalType": "string[]",
          "name": "a",
          "type": "string[]"
        },
        {
          "internalType": "string[]",
          "name": "b",
          "type": "string[]"
        }
      ],
      "name": "equal",
      "outputs": [
        {
          "components": [
            {
              "internalType": "bool",
              "name": "passed",
              "type": "bool"
            },
            {
              "internalType": "string",
              "name": "assertionError",
              "type": "string"
            },
            {
              "internalType": "string",
              "name": "returnedAsString",
              "type": "string"
            },
            {
              "internalType": "string",
              "name": "expectedAsString",
              "type": "string"
            },
            {
              "internalType": "string",
              "name": "methodName",
              "type": "string"
            }
          ],
          "internalType": "struct Assert.AssertResult",
          "name": "result",
          "type": "tuple"
        }
      ],
      "stateMutability": "pure",
      "type": "function"
    },
    {
      "inputs": [
        {
          "internalType": "address[]",
          "name": "a",
          "type": "address[]"
        },
        {
          "internalType": "address[]",
          "name": "b",
          "type": "address[]"
        }
      ],
      "name": "equal",
      "outputs": [
        {
          "components": [
            {
              "internalType": "bool",
              "name": "passed",
              "type": "bool"
            },
            {
              "internalType": "string",
              "name": "assertionError",
              "type": "string"
            },
            {
              "internalType": "string",
              "name": "returnedAsString",
              "type": "string"
            },
            {
              "internalType": "string",
              "name": "expectedAsString",
              "type": "string"
            },
            {
              "internalType": "string",
              "name": "methodName",
              "type": "string"
            }
          ],
          "internalType": "struct Assert.AssertResult",
          "name": "result",
          "type": "tuple"
        }
      ],
      "stateMutability": "pure",
      "type": "function"
    },
    {
      "inputs": [
        {
          "internalType": "uint256[]",
          "name": "a",
          "type": "uint256[]"
        },
        {
          "internalType": "uint256[]",
          "name": "b",
          "type": "uint256[]"
        }
      ],
      "name": "equal",
      "outputs": [
        {
          "components": [
            {
              "internalType": "bool",
              "name": "passed",
              "type": "bool"
            },
            {
              "internalType": "string",
              "name": "assertionError",
              "type": "string"
            },
            {
              "internalType": "string",
              "name": "returnedAsString",
              "type": "string"
            },
            {
              "internalType": "string",
              "name": "expectedAsString",
              "type": "string"
            },
            {
              "internalType": "string",
              "name": "methodName",
              "type": "string"
            }
          ],
          "internalType": "struct Assert.AssertResult",
          "name": "result",
          "type": "tuple"
        }
      ],
      "stateMutability": "pure",
      "type": "function"
    },
    {
      "inputs": [
        {
          "internalType": "uint256",
          "name": "tokenId",
          "type": "uint256"
        }
      ],
      "name": "getApproved",
      "outputs": [
        {
          "internalType": "address",
          "name": "",
          "type": "address"
        }
      ],
      "stateMutability": "view",
      "type": "function"
    },
    {
      "inputs": [
        {
          "internalType": "address",
          "name": "owner",
          "type": "address"
        },
        {
          "internalType": "address",
          "name": "operator",
          "type": "address"
        }
      ],
      "name": "isApprovedForAll",
      "outputs": [
        {
          "internalType": "bool",
          "name": "",
          "type": "bool"
        }
      ],
      "stateMutability": "view",
      "type": "function"
    },
    {
      "inputs": [
        {
          "internalType": "bool",
          "name": "a",
          "type": "bool"
        }
      ],
      "name": "isFalse",
      "outputs": [
        {
          "components": [
            {
              "internalType": "bool",
              "name": "passed",
              "type": "bool"
            },
            {
              "internalType": "string",
              "name": "assertionError",
              "type": "string"
            },
            {
              "internalType": "string",
              "name": "returnedAsString",
              "type": "string"
            },
            {
              "internalType": "string",
              "name": "expectedAsString",
              "type": "string"
            },
            {
              "internalType": "string",
              "name": "methodName",
              "type": "string"
            }
          ],
          "internalType": "struct Assert.AssertResult",
          "name": "result",
          "type": "tuple"
        }
      ],
      "stateMutability": "pure",
      "type": "function"
    },
    {
      "inputs": [
        {
          "internalType": "bool",
          "name": "a",
          "type": "bool"
        }
      ],
      "name": "isTrue",
      "outputs": [
        {
          "components": [
            {
              "internalType": "bool",
              "name": "passed",
              "type": "bool"
            },
            {
              "internalType": "string",
              "name": "assertionError",
              "type": "string"
            },
            {
              "internalType": "string",
              "name": "returnedAsString",
              "type": "string"
            },
            {
              "internalType": "string",
              "name": "expectedAsString",
              "type": "string"
            },
            {
              "internalType": "string",
              "name": "methodName",
              "type": "string"
            }
          ],
          "internalType": "struct Assert.AssertResult",
          "name": "result",
          "type": "tuple"
        }
      ],
      "stateMutability": "pure",
      "type": "function"
    },
    {
      "inputs": [],
      "name": "name",
      "outputs": [
        {
          "internalType": "string",
          "name": "",
          "type": "string"
        }
      ],
      "stateMutability": "view",
      "type": "function"
    },
    {
      "inputs": [
        {
          "internalType": "address",
          "name": "a",
          "type": "address"
        },
        {
          "internalType": "address",
          "name": "b",
          "type": "address"
        }
      ],
      "name": "notEqual",
      "outputs": [
        {
          "components": [
            {
              "internalType": "bool",
              "name": "passed",
              "type": "bool"
            },
            {
              "internalType": "string",
              "name": "assertionError",
              "type": "string"
            },
            {
              "internalType": "string",
              "name": "returnedAsString",
              "type": "string"
            },
            {
              "internalType": "string",
              "name": "expectedAsString",
              "type": "string"
            },
            {
              "internalType": "string",
              "name": "methodName",
              "type": "string"
            }
          ],
          "internalType": "struct Assert.AssertResult",
          "name": "result",
          "type": "tuple"
        }
      ],
      "stateMutability": "pure",
      "type": "function"
    },
    {
      "inputs": [],
      "name": "owner",
      "outputs": [
        {
          "internalType": "address",
          "name": "",
          "type": "address"
        }
      ],
      "stateMutability": "view",
      "type": "function"
    },
    {
      "inputs": [
        {
          "internalType": "uint256",
          "name": "tokenId",
          "type": "uint256"
        }
      ],
      "name": "ownerOf",
      "outputs": [
        {
          "internalType": "address",
          "name": "",
          "type": "address"
        }
      ],
      "stateMutability": "view",
      "type": "function"
    },
    {
      "inputs": [
        {
          "internalType": "address",
          "name": "",
          "type": "address"
        }
      ],
      "name": "owners",
      "outputs": [
        {
          "internalType": "bool",
          "name": "",
          "type": "bool"
        }
      ],
      "stateMutability": "view",
      "type": "function"
    },
    {
      "inputs": [],
      "name": "renounceOwnership",
      "outputs": [],
      "stateMutability": "nonpayable",
      "type": "function"
    },
    {
      "inputs": [
        {
          "internalType": "address",
          "name": "from",
          "type": "address"
        },
        {
          "internalType": "address",
          "name": "to",
          "type": "address"
        },
        {
          "internalType": "uint256",
          "name": "tokenId",
          "type": "uint256"
        }
      ],
      "name": "safeTransferFrom",
      "outputs": [],
      "stateMutability": "nonpayable",
      "type": "function"
    },
    {
      "inputs": [
        {
          "internalType": "address",
          "name": "from",
          "type": "address"
        },
        {
          "internalType": "address",
          "name": "to",
          "type": "address"
        },
        {
          "internalType": "uint256",
          "name": "tokenId",
          "type": "uint256"
        },
        {
          "internalType": "bytes",
          "name": "data",
          "type": "bytes"
        }
      ],
      "name": "safeTransferFrom",
      "outputs": [],
      "stateMutability": "nonpayable",
      "type": "function"
    },
    {
      "inputs": [
        {
          "internalType": "bool",
          "name": "_setActiveTo",
          "type": "bool"
        }
      ],
      "name": "setActive",
      "outputs": [],
      "stateMutability": "nonpayable",
      "type": "function"
    },
    {
      "inputs": [
        {
          "internalType": "address",
          "name": "operator",
          "type": "address"
        },
        {
          "internalType": "bool",
          "name": "approved",
          "type": "bool"
        }
      ],
      "name": "setApprovalForAll",
      "outputs": [],
      "stateMutability": "nonpayable",
      "type": "function"
    },
    {
      "inputs": [
        {
          "internalType": "string",
          "name": "_tokenURI",
          "type": "string"
        }
      ],
      "name": "setTokenURI",
      "outputs": [],
      "stateMutability": "nonpayable",
      "type": "function"
    },
    {
      "inputs": [
        {
          "internalType": "bytes4",
          "name": "interfaceId",
          "type": "bytes4"
        }
      ],
      "name": "supportsInterface",
      "outputs": [
        {
          "internalType": "bool",
          "name": "",
          "type": "bool"
        }
      ],
      "stateMutability": "view",
      "type": "function"
    },
    {
      "inputs": [],
      "name": "symbol",
      "outputs": [
        {
          "internalType": "string",
          "name": "",
          "type": "string"
        }
      ],
      "stateMutability": "view",
      "type": "function"
    },
    {
      "inputs": [
        {
          "internalType": "address",
          "name": "_submissionAddress",
          "type": "address"
        }
      ],
      "name": "testContract",
      "outputs": [],
      "stateMutability": "nonpayable",
      "type": "function"
    },
    {
      "inputs": [
        {
          "internalType": "uint256",
          "name": "",
          "type": "uint256"
        }
      ],
      "name": "tokenURI",
      "outputs": [
        {
          "internalType": "string",
          "name": "",
          "type": "string"
        }
      ],
      "stateMutability": "view",
      "type": "function"
    },
    {
      "inputs": [
        {
          "internalType": "address",
          "name": "from",
          "type": "address"
        },
        {
          "internalType": "address",
          "name": "to",
          "type": "address"
        },
        {
          "internalType": "uint256",
          "name": "tokenId",
          "type": "uint256"
        }
      ],
      "name": "transferFrom",
      "outputs": [],
      "stateMutability": "nonpayable",
      "type": "function"
    },
    {
      "inputs": [
        {
          "internalType": "address",
          "name": "newOwner",
          "type": "address"
        }
      ],
      "name": "transferOwnership",
      "outputs": [],
      "stateMutability": "nonpayable",
      "type": "function"
    }
  ],
  "transactionHash": "0x0175510d7641feaac65afef47151eaf175f2ea5522a2f310f0944df3dd9c89c7",
  "args": [],
  "numDeployments": 2,
  "solcInputHash": "cce5e99710aedb2b7694c5fe3ee6e1a0",
  "bytecode": "0x600b805460ff1916600117905560a060405260006080908152600c9062000027908262000376565b503480156200003557600080fd5b506040518060400160405280600b81526020016a29ba37b930b3b2902834b760a91b815250604051806040016040528060048152602001635343445360e01b815250816000908162000088919062000376565b50600162000097828262000376565b505050620000b4620000ae6200024360201b60201c565b62000247565b6001600755604051600d90620000ca9062000299565b604051809103906000f080158015620000e7573d6000803e3d6000fd5b5081546001810183556000928352602090922090910180546001600160a01b0319166001600160a01b03909216919091179055604051600d906200012b90620002a7565b604051809103906000f08015801562000148573d6000803e3d6000fd5b5081546001810183556000928352602090922090910180546001600160a01b0319166001600160a01b03909216919091179055604051600d906200018c90620002b5565b604051809103906000f080158015620001a9573d6000803e3d6000fd5b5081546001810183556000928352602090922090910180546001600160a01b0319166001600160a01b03909216919091179055604051600d90620001ed90620002c3565b604051809103906000f0801580156200020a573d6000803e3d6000fd5b5081546001810183556000928352602090922090910180546001600160a01b0319166001600160a01b0390921691909117905562000442565b3390565b600680546001600160a01b038381166001600160a01b0319831681179093556040519116919082907f8be0079c531659141344cd1fd0a4f28419497f9722a3daafe3b4186f6b6457e090600090a35050565b611d688062003dfa83390190565b611f988062005b6283390190565b611d1e8062007afa83390190565b611f77806200981883390190565b634e487b7160e01b600052604160045260246000fd5b600181811c90821680620002fc57607f821691505b6020821081036200031d57634e487b7160e01b600052602260045260246000fd5b50919050565b601f8211156200037157600081815260208120601f850160051c810160208610156200034c5750805b601f850160051c820191505b818110156200036d5782815560010162000358565b5050505b505050565b81516001600160401b03811115620003925762000392620002d1565b620003aa81620003a38454620002e7565b8462000323565b602080601f831160018114620003e25760008415620003c95750858301515b600019600386901b1c1916600185901b1785556200036d565b600085815260208120601f198616915b828110156200041357888601518255948401946001909101908401620003f2565b5085821015620004325787850151600019600388901b60f8161c191681555b5050505050600190811b01905550565b6139a880620004526000396000f3fe608060405234801561001057600080fd5b50600436106101e55760003560e01c80636df864781161010f578063b88d4fde116100a2578063e7da4c7e11610071578063e7da4c7e1461041c578063e985e9c51461042f578063f2fde38b1461046b578063fa084b9b1461047e57600080fd5b8063b88d4fde146103d0578063c87b56dd146103e3578063d70968e7146103f6578063e0df5b6f1461040957600080fd5b80638da5cb5b116100de5780638da5cb5b1461039157806395d89b41146103a2578063a22cb465146103aa578063acec338a146103bd57600080fd5b80636df864781461034257806370a0823114610355578063715018a61461037657806374f130701461037e57600080fd5b806323b872dd1161018757806342842e0e1161015657806342842e0e1461030957806346bdca9a1461029d57806360fb55d51461031c5780636352211e1461032f57600080fd5b806323b872dd146102bd57806330191626146102d057806331495d33146102e3578063410dbb8b146102f657600080fd5b806306fdde03116101c357806306fdde031461024a578063081812fc1461025f578063095ea7b31461028a578063235266d21461029d57600080fd5b806301ffc9a7146101ea578063022914a71461021257806306d82f2914610235575b600080fd5b6101fd6101f83660046126ad565b610491565b60405190151581526020015b60405180910390f35b6101fd6102203660046126df565b60096020526000908152604090205460ff1681565b6102486102433660046126df565b61052e565b005b6102526107f1565b604051610209919061274c565b61027261026d36600461275f565b610883565b6040516001600160a01b039091168152602001610209565b610248610298366004612778565b6108aa565b6102b06102ab3660046128b5565b6109fe565b6040516102099190612990565b6102486102cb3660046129a3565b610aad565b6102b06102de3660046129e4565b610b24565b6102b06102f1366004612a06565b610bde565b6102b0610304366004612a5d565b610caf565b6102486103173660046129a3565b610daf565b6102b061032a366004612b29565b610dca565b61027261033d36600461275f565b610ea6565b6102b0610350366004612be7565b610f0b565b6103686103633660046126df565b610fe7565b604051908152602001610209565b610248611081565b6102b061038c366004612a5d565b611095565b6006546001600160a01b0316610272565b610252611196565b6102486103b8366004612c41565b6111a5565b6102486103cb366004612a5d565b6111b4565b6102486103de366004612c6f565b6111cf565b6102526103f136600461275f565b611247565b6102b0610404366004612a06565b6112db565b610248610417366004612cdb565b6113a2565b6102b061042a366004612d6b565b6113b6565b6101fd61043d366004612a06565b6001600160a01b03918216600090815260056020908152604080832093909416825291909152205460ff1690565b6102486104793660046126df565b611492565b6101fd61048c366004612dc5565b611522565b60006001600160e01b031982167f80ac58cd0000000000000000000000000000000000000000000000000000000014806104f457506001600160e01b031982167f5b5e139f00000000000000000000000000000000000000000000000000000000145b8061052857507f01ffc9a7000000000000000000000000000000000000000000000000000000006001600160e01b03198316145b92915050565b600b5460ff1661056a576040517f80cb55e200000000000000000000000000000000000000000000000000000000815260040160405180910390fd5b600e5460609060009083906001600160a01b0316156106a657600d54610591906001613102565b67ffffffffffffffff8111156105a9576105a96127a4565b6040519080825280602002602001820160405280156105e257816020015b6105cf612663565b8152602001906001900390816105c75790505b509250816105ef81613115565b600e546040517f4c96a3890000000000000000000000000000000000000000000000000000000081526001600160a01b03888116600483015292955091169150634c96a389906024016000604051808303816000875af1158015610657573d6000803e3d6000fd5b505050506040513d6000823e601f3d908101601f1916820160405261067f9190810190613345565b846000815181106106925761069261338c565b6020026020010181935082905250506106fe565b600d5467ffffffffffffffff8111156106c1576106c16127a4565b6040519080825280602002602001820160405280156106fa57816020015b6106e7612663565b8152602001906001900390816106df5790505b5092505b600d548210156107e157600d828154811061071b5761071b61338c565b6000918252602090912001546040517f4b64e4920000000000000000000000000000000000000000000000000000000081526001600160a01b03838116600483015290911690634b64e492906024016000604051808303816000875af1158015610789573d6000803e3d6000fd5b505050506040513d6000823e601f3d908101601f191682016040526107b191908101906133a2565b8383815181106107c3576107c361338c565b602002602001018190525081806107d990613115565b9250506106fe565b6107eb84846115d6565b50505050565b606060008054610800906133d7565b80601f016020809104026020016040519081016040528092919081815260200182805461082c906133d7565b80156108795780601f1061084e57610100808354040283529160200191610879565b820191906000526020600020905b81548152906001019060200180831161085c57829003601f168201915b5050505050905090565b600061088e826116dd565b506000908152600460205260409020546001600160a01b031690565b60006108b582610ea6565b9050806001600160a01b0316836001600160a01b0316036109435760405162461bcd60e51b815260206004820152602160248201527f4552433732313a20617070726f76616c20746f2063757272656e74206f776e6560448201527f720000000000000000000000000000000000000000000000000000000000000060648201526084015b60405180910390fd5b336001600160a01b038216148061097d57506001600160a01b038116600090815260056020908152604080832033845290915290205460ff165b6109ef5760405162461bcd60e51b815260206004820152603d60248201527f4552433732313a20617070726f76652063616c6c6572206973206e6f7420746f60448201527f6b656e206f776e6572206f7220617070726f76656420666f7220616c6c000000606482015260840161093a565b6109f98383611741565b505050565b610a326040518060a00160405280600015158152602001606081526020016060815260200160608152602001606081525090565b815160208084019190912084519185019190912014808252610a77578282604051602001610a61929190613411565b60408051601f1981840301815291905260208201525b604080820193909352606081019190915281518083019092526005825264195c5d585b60da1b6020830152608081019190915290565b610ab733826117bc565b610b195760405162461bcd60e51b815260206004820152602d60248201527f4552433732313a2063616c6c6572206973206e6f7420746f6b656e206f776e6560448201526c1c881bdc88185c1c1c9bdd9959609a1b606482015260840161093a565b6109f983838361183b565b610b586040518060a00160405280600015158152602001606081526020016060815260200160608152602001606081525090565b828214808252610b9b57610b6b83611a4e565b610b7483611a4e565b604051602001610b85929190613411565b60408051601f1981840301815291905260208201525b610ba483611a4e565b6040820152610bb282611a4e565b6060820152604080518082019091526005815264195c5d585b60da1b6020820152608082015292915050565b610c126040518060a00160405280600015158152602001606081526020016060815260200160608152602001606081525090565b6001600160a01b0383811690831681148252600090610c32906014611aee565b90506000610c4a846001600160a01b03166014611aee565b8351909150610c7c578181604051602001610c66929190613411565b60408051601f1981840301815291905260208401525b604080840192909252606083015280518082019091526005815264195c5d585b60da1b6020820152608082015292915050565b610ce36040518060a00160405280600015158152602001606081526020016060815260200160608152602001606081525090565b8115808252610d0b5760405180606001604052806023815260200161392e6023913960208201525b600182151514610d38576040518060400160405280600581526020016466616c736560d81b815250610d56565b604051806040016040528060048152602001637472756560e01b8152505b6040808301919091528051602080820183526000825260608401919091528151808301909252600782527f697346616c736500000000000000000000000000000000000000000000000000908201526080820152919050565b6109f9838383604051806020016040528060008152506111cf565b610dfe6040518060a00160405280600015158152602001606081526020016060815260200160608152602001606081525090565b81604051602001610e0f9190613492565b6040516020818303038152906040528051906020012083604051602001610e369190613492565b60408051601f19818403018152919052805160209091012014808252610e8f57610e5f83611cd6565b610e6883611cd6565b604051602001610e79929190613411565b60408051601f1981840301815291905260208201525b610e9883611cd6565b6040820152610bb282611cd6565b6000818152600260205260408120546001600160a01b0316806105285760405162461bcd60e51b815260206004820152601860248201527f4552433732313a20696e76616c696420746f6b656e2049440000000000000000604482015260640161093a565b610f3f6040518060a00160405280600015158152602001606081526020016060815260200160608152602001606081525090565b81604051602001610f5091906134f4565b6040516020818303038152906040528051906020012083604051602001610f7791906134f4565b60408051601f19818403018152919052805160209091012014808252610fd057610fa083611dab565b610fa983611dab565b604051602001610fba929190613411565b60408051601f1981840301815291905260208201525b610fd983611dab565b6040820152610bb282611dab565b60006001600160a01b0382166110655760405162461bcd60e51b815260206004820152602960248201527f4552433732313a2061646472657373207a65726f206973206e6f74206120766160448201527f6c6964206f776e65720000000000000000000000000000000000000000000000606482015260840161093a565b506001600160a01b031660009081526003602052604090205490565b611089611e87565b6110936000611ee1565b565b6110c96040518060a00160405280600015158152602001606081526020016060815260200160608152602001606081525090565b8115158082526110f2576040518060600160405280602281526020016139516022913960208201525b60018215151461111f576040518060400160405280600581526020016466616c736560d81b81525061113d565b604051806040016040528060048152602001637472756560e01b8152505b6040808301919091528051602080820183526000825260608401919091528151808301909252600682527f6973547275650000000000000000000000000000000000000000000000000000908201526080820152919050565b606060018054610800906133d7565b6111b0338383611f40565b5050565b6111bc611e87565b600b805460ff1916911515919091179055565b6111d933836117bc565b61123b5760405162461bcd60e51b815260206004820152602d60248201527f4552433732313a2063616c6c6572206973206e6f7420746f6b656e206f776e6560448201526c1c881bdc88185c1c1c9bdd9959609a1b606482015260840161093a565b6107eb8484848461200e565b6060600c8054611256906133d7565b80601f0160208091040260200160405190810160405280929190818152602001828054611282906133d7565b80156112cf5780601f106112a4576101008083540402835291602001916112cf565b820191906000526020600020905b8154815290600101906020018083116112b257829003601f168201915b50505050509050919050565b61130f6040518060a00160405280600015158152602001606081526020016060815260200160608152602001606081525090565b6001600160a01b038381169083168114158252600090611330906014611aee565b8251909150611360578060405160200161134a9190613541565b60408051601f1981840301815291905260208301525b60408083019190915280516020808201835260008252606084019190915281518083019092526005825264195c5d585b60da1b90820152608082015292915050565b6113aa611e87565b600c6111b082826135fa565b6113ea6040518060a00160405280600015158152602001606081526020016060815260200160608152602001606081525090565b816040516020016113fb91906136ba565b604051602081830303815290604052805190602001208360405160200161142291906136ba565b60408051601f1981840301815291905280516020909101201480825261147b5761144b8361208c565b6114548361208c565b604051602001611465929190613411565b60408051601f1981840301815291905260208201525b6114848361208c565b6040820152610bb28261208c565b61149a611e87565b6001600160a01b0381166115165760405162461bcd60e51b815260206004820152602660248201527f4f776e61626c653a206e6577206f776e657220697320746865207a65726f206160448201527f6464726573730000000000000000000000000000000000000000000000000000606482015260840161093a565b61151f81611ee1565b50565b6000805b82518110156115cd5760005b8382815181106115445761154461338c565b602002602001015160200151602001518110156115ba5783828151811061156d5761156d61338c565b60200260200101516020015160000151818151811061158e5761158e61338c565b6020026020010151600001516115a8575060009392505050565b806115b281613115565b915050611532565b50806115c581613115565b915050611526565b50600192915050565b6115de61215d565b60006115e982611522565b90507f53d51c5f8eaf1bdbf1288871cbf97a9295da23a9868b15b526b4256ede348db983828460405161161e939291906136f2565b60405180910390a16001600160a01b0383166000908152600a602052604090205460ff1615801561165f57503360009081526009602052604090205460ff16155b80156116685750805b156116af5761167b600880546001019055565b600061168660085490565b336000818152600960205260409020805460ff191660011790559091506116ad90826121b6565b505b506001600160a01b0382166000908152600a60205260409020805460ff191660011790556111b06001600755565b6000818152600260205260409020546001600160a01b031661151f5760405162461bcd60e51b815260206004820152601860248201527f4552433732313a20696e76616c696420746f6b656e2049440000000000000000604482015260640161093a565b6000818152600460205260409020805473ffffffffffffffffffffffffffffffffffffffff19166001600160a01b038416908117909155819061178382610ea6565b6001600160a01b03167f8c5be1e5ebec7d5bd14f71427d1e84f3dd0314c0f7b2291e5b200ac8c7c3b92560405160405180910390a45050565b6000806117c883610ea6565b9050806001600160a01b0316846001600160a01b0316148061180f57506001600160a01b0380821660009081526005602090815260408083209388168352929052205460ff165b806118335750836001600160a01b031661182884610883565b6001600160a01b0316145b949350505050565b826001600160a01b031661184e82610ea6565b6001600160a01b0316146118b25760405162461bcd60e51b815260206004820152602560248201527f4552433732313a207472616e736665722066726f6d20696e636f72726563742060448201526437bbb732b960d91b606482015260840161093a565b6001600160a01b03821661192d5760405162461bcd60e51b8152602060048201526024808201527f4552433732313a207472616e7366657220746f20746865207a65726f2061646460448201527f7265737300000000000000000000000000000000000000000000000000000000606482015260840161093a565b61193a83838360016121d0565b826001600160a01b031661194d82610ea6565b6001600160a01b0316146119b15760405162461bcd60e51b815260206004820152602560248201527f4552433732313a207472616e736665722066726f6d20696e636f72726563742060448201526437bbb732b960d91b606482015260840161093a565b6000818152600460209081526040808320805473ffffffffffffffffffffffffffffffffffffffff199081169091556001600160a01b0387811680865260038552838620805460001901905590871680865283862080546001019055868652600290945282852080549092168417909155905184937fddf252ad1be2c89b69c2b068fc378daa952ba7f163c4a11628f55a4df523b3ef91a4505050565b60606000611a5b83612211565b600101905060008167ffffffffffffffff811115611a7b57611a7b6127a4565b6040519080825280601f01601f191660200182016040528015611aa5576020820181803683370190505b5090508181016020015b600019017f3031323334353637383961626364656600000000000000000000000000000000600a86061a8153600a8504945084611aaf57509392505050565b60606000611afd8360026137e5565b611b08906002613102565b67ffffffffffffffff811115611b2057611b206127a4565b6040519080825280601f01601f191660200182016040528015611b4a576020820181803683370190505b5090507f300000000000000000000000000000000000000000000000000000000000000081600081518110611b8157611b8161338c565b60200101906001600160f81b031916908160001a9053507f780000000000000000000000000000000000000000000000000000000000000081600181518110611bcc57611bcc61338c565b60200101906001600160f81b031916908160001a9053506000611bf08460026137e5565b611bfb906001613102565b90505b6001811115611c80577f303132333435363738396162636465660000000000000000000000000000000085600f1660108110611c3c57611c3c61338c565b1a60f81b828281518110611c5257611c5261338c565b60200101906001600160f81b031916908160001a90535060049490941c93611c79816137fc565b9050611bfe565b508315611ccf5760405162461bcd60e51b815260206004820181905260248201527f537472696e67733a20686578206c656e67746820696e73756666696369656e74604482015260640161093a565b9392505050565b6040805180820190915260018152605b60f81b602082015260609060005b8351811015611da45760018451611d0b9190613813565b811015611d545781848281518110611d2557611d2561338c565b6020026020010151604051602001611d3e929190613826565b6040516020818303038152906040529150611d92565b81848281518110611d6757611d6761338c565b6020026020010151604051602001611d8092919061387d565b60405160208183030381529060405291505b80611d9c81613115565b915050611cf4565b5092915050565b6040805180820190915260018152605b60f81b602082015260609060005b8351811015611da45760018451611de09190613813565b811015611e3c5781611e15858381518110611dfd57611dfd61338c565b60200260200101516001600160a01b03166014611aee565b604051602001611e26929190613826565b6040516020818303038152906040529150611e75565b81611e52858381518110611dfd57611dfd61338c565b604051602001611e6392919061387d565b60405160208183030381529060405291505b80611e7f81613115565b915050611dc9565b6006546001600160a01b031633146110935760405162461bcd60e51b815260206004820181905260248201527f4f776e61626c653a2063616c6c6572206973206e6f7420746865206f776e6572604482015260640161093a565b600680546001600160a01b0383811673ffffffffffffffffffffffffffffffffffffffff19831681179093556040519116919082907f8be0079c531659141344cd1fd0a4f28419497f9722a3daafe3b4186f6b6457e090600090a35050565b816001600160a01b0316836001600160a01b031603611fa15760405162461bcd60e51b815260206004820152601960248201527f4552433732313a20617070726f766520746f2063616c6c657200000000000000604482015260640161093a565b6001600160a01b03838116600081815260056020908152604080832094871680845294825291829020805460ff191686151590811790915591519182527f17307eab39ab6107e8899845ad3d59bd9653f200f220920489ca2b5937696c31910160405180910390a3505050565b61201984848461183b565b612025848484846122f3565b6107eb5760405162461bcd60e51b815260206004820152603260248201527f4552433732313a207472616e7366657220746f206e6f6e20455243373231526560448201527131b2b4bb32b91034b6b83632b6b2b73a32b960711b606482015260840161093a565b6040805180820190915260018152605b60f81b602082015260609060005b8351811015611da457600184516120c19190613813565b81101561211257816120eb8583815181106120de576120de61338c565b6020026020010151611a4e565b6040516020016120fc929190613826565b604051602081830303815290604052915061214b565b816121288583815181106120de576120de61338c565b60405160200161213992919061387d565b60405160208183030381529060405291505b8061215581613115565b9150506120aa565b6002600754036121af5760405162461bcd60e51b815260206004820152601f60248201527f5265656e7472616e637947756172643a207265656e7472616e742063616c6c00604482015260640161093a565b6002600755565b6111b082826040518060200160405280600081525061243f565b6001600160a01b038416156107eb576040517f6e10574900000000000000000000000000000000000000000000000000000000815260040160405180910390fd5b6000807a184f03e93ff9f4daa797ed6e38ed64bf6a1f010000000000000000831061225a577a184f03e93ff9f4daa797ed6e38ed64bf6a1f010000000000000000830492506040015b6d04ee2d6d415b85acef81000000008310612286576d04ee2d6d415b85acef8100000000830492506020015b662386f26fc1000083106122a457662386f26fc10000830492506010015b6305f5e10083106122bc576305f5e100830492506008015b61271083106122d057612710830492506004015b606483106122e2576064830492506002015b600a83106105285760010192915050565b60006001600160a01b0384163b1561243457604051630a85bd0160e11b81526001600160a01b0385169063150b7a02906123379033908990889088906004016138d4565b6020604051808303816000875af1925050508015612372575060408051601f3d908101601f1916820190925261236f91810190613910565b60015b61241a573d8080156123a0576040519150601f19603f3d011682016040523d82523d6000602084013e6123a5565b606091505b5080516000036124125760405162461bcd60e51b815260206004820152603260248201527f4552433732313a207472616e7366657220746f206e6f6e20455243373231526560448201527131b2b4bb32b91034b6b83632b6b2b73a32b960711b606482015260840161093a565b805181602001fd5b6001600160e01b031916630a85bd0160e11b149050611833565b506001949350505050565b61244983836124bd565b61245660008484846122f3565b6109f95760405162461bcd60e51b815260206004820152603260248201527f4552433732313a207472616e7366657220746f206e6f6e20455243373231526560448201527131b2b4bb32b91034b6b83632b6b2b73a32b960711b606482015260840161093a565b6001600160a01b0382166125135760405162461bcd60e51b815260206004820181905260248201527f4552433732313a206d696e7420746f20746865207a65726f2061646472657373604482015260640161093a565b6000818152600260205260409020546001600160a01b0316156125785760405162461bcd60e51b815260206004820152601c60248201527f4552433732313a20746f6b656e20616c7265616479206d696e74656400000000604482015260640161093a565b6125866000838360016121d0565b6000818152600260205260409020546001600160a01b0316156125eb5760405162461bcd60e51b815260206004820152601c60248201527f4552433732313a20746f6b656e20616c7265616479206d696e74656400000000604482015260640161093a565b6001600160a01b0382166000818152600360209081526040808320805460010190558483526002909152808220805473ffffffffffffffffffffffffffffffffffffffff19168417905551839291907fddf252ad1be2c89b69c2b068fc378daa952ba7f163c4a11628f55a4df523b3ef908290a45050565b604051806040016040528060608152602001612692604051806040016040528060608152602001600081525090565b905290565b6001600160e01b03198116811461151f57600080fd5b6000602082840312156126bf57600080fd5b8135611ccf81612697565b6001600160a01b038116811461151f57600080fd5b6000602082840312156126f157600080fd5b8135611ccf816126ca565b60005b838110156127175781810151838201526020016126ff565b50506000910152565b600081518084526127388160208601602086016126fc565b601f01601f19169290920160200192915050565b602081526000611ccf6020830184612720565b60006020828403121561277157600080fd5b5035919050565b6000806040838503121561278b57600080fd5b8235612796816126ca565b946020939093013593505050565b634e487b7160e01b600052604160045260246000fd5b6040805190810167ffffffffffffffff811182821017156127dd576127dd6127a4565b60405290565b60405160a0810167ffffffffffffffff811182821017156127dd576127dd6127a4565b604051601f8201601f1916810167ffffffffffffffff8111828210171561282f5761282f6127a4565b604052919050565b600067ffffffffffffffff821115612851576128516127a4565b50601f01601f191660200190565b600082601f83011261287057600080fd5b813561288361287e82612837565b612806565b81815284602083860101111561289857600080fd5b816020850160208301376000918101602001919091529392505050565b600080604083850312156128c857600080fd5b823567ffffffffffffffff808211156128e057600080fd5b6128ec8683870161285f565b9350602085013591508082111561290257600080fd5b5061290f8582860161285f565b9150509250929050565b8051151582526000602082015160a0602085015261293a60a0850182612720565b9050604083015184820360408601526129538282612720565b9150506060830151848203606086015261296d8282612720565b915050608083015184820360808601526129878282612720565b95945050505050565b602081526000611ccf6020830184612919565b6000806000606084860312156129b857600080fd5b83356129c3816126ca565b925060208401356129d3816126ca565b929592945050506040919091013590565b600080604083850312156129f757600080fd5b50508035926020909101359150565b60008060408385031215612a1957600080fd5b8235612a24816126ca565b91506020830135612a34816126ca565b809150509250929050565b801515811461151f57600080fd5b8035612a5881612a3f565b919050565b600060208284031215612a6f57600080fd5b8135611ccf81612a3f565b600067ffffffffffffffff821115612a9457612a946127a4565b5060051b60200190565b600082601f830112612aaf57600080fd5b81356020612abf61287e83612a7a565b82815260059290921b84018101918181019086841115612ade57600080fd5b8286015b84811015612b1e57803567ffffffffffffffff811115612b025760008081fd5b612b108986838b010161285f565b845250918301918301612ae2565b509695505050505050565b60008060408385031215612b3c57600080fd5b823567ffffffffffffffff80821115612b5457600080fd5b612b6086838701612a9e565b93506020850135915080821115612b7657600080fd5b5061290f85828601612a9e565b600082601f830112612b9457600080fd5b81356020612ba461287e83612a7a565b82815260059290921b84018101918181019086841115612bc357600080fd5b8286015b84811015612b1e578035612bda816126ca565b8352918301918301612bc7565b60008060408385031215612bfa57600080fd5b823567ffffffffffffffff80821115612c1257600080fd5b612c1e86838701612b83565b93506020850135915080821115612c3457600080fd5b5061290f85828601612b83565b60008060408385031215612c5457600080fd5b8235612c5f816126ca565b91506020830135612a3481612a3f565b60008060008060808587031215612c8557600080fd5b8435612c90816126ca565b93506020850135612ca0816126ca565b925060408501359150606085013567ffffffffffffffff811115612cc357600080fd5b612ccf8782880161285f565b91505092959194509250565b600060208284031215612ced57600080fd5b813567ffffffffffffffff811115612d0457600080fd5b6118338482850161285f565b600082601f830112612d2157600080fd5b81356020612d3161287e83612a7a565b82815260059290921b84018101918181019086841115612d5057600080fd5b8286015b84811015612b1e5780358352918301918301612d54565b60008060408385031215612d7e57600080fd5b823567ffffffffffffffff80821115612d9657600080fd5b612da286838701612d10565b93506020850135915080821115612db857600080fd5b5061290f85828601612d10565b600060208284031215612dd757600080fd5b67ffffffffffffffff82351115612ded57600080fd5b82601f833584010112612dff57600080fd5b612e0f61287e8335840135612a7a565b8235830180358083526020808401939260059290921b90910101851015612e3557600080fd5b602084358501015b84358501803560051b016020018110156130e35767ffffffffffffffff81351115612e6757600080fd5b6040853586018235018703601f19011215612e8157600080fd5b612e896127ba565b67ffffffffffffffff60208335883589010101351115612ea857600080fd5b612ec0876020843589358a010181810135010161285f565b815267ffffffffffffffff60408335883589010101351115612ee157600080fd5b60408635870183350180820135018803601f19011215612f0057600080fd5b612f086127ba565b67ffffffffffffffff87358801843501604081013501602001351115612f2d57600080fd5b86358701833501604081013501602081013501603f81018913612f4f57600080fd5b612f5f61287e6020830135612a7a565b602082810135808352908201919060051b83016040018b1015612f8157600080fd5b604083015b6040602085013560051b8501018110156130b15767ffffffffffffffff81351115612fb057600080fd5b8035840160a0818e03603f19011215612fc857600080fd5b612fd06127e3565b612fdc60408301612a4d565b815267ffffffffffffffff60608301351115612ff757600080fd5b61300a8e6040606085013585010161285f565b602082015267ffffffffffffffff6080830135111561302857600080fd5b61303b8e6040608085013585010161285f565b604082015267ffffffffffffffff60a0830135111561305957600080fd5b61306c8e604060a085013585010161285f565b606082015267ffffffffffffffff60c0830135111561308a57600080fd5b61309d8e604060c085013585010161285f565b608082015284525060209283019201612f86565b508352505060408335883589010181810135010135602080830191909152828101919091529084529283019201612e3d565b50949350505050565b634e487b7160e01b600052601160045260246000fd5b80820180821115610528576105286130ec565b600060018201613127576131276130ec565b5060010190565b600082601f83011261313f57600080fd5b815161314d61287e82612837565b81815284602083860101111561316257600080fd5b6118338260208301602087016126fc565b8051612a5881612a3f565b60006040828403121561319057600080fd5b6131986127ba565b9050815167ffffffffffffffff808211156131b257600080fd5b6131be8583860161312e565b83526020915081840151818111156131d557600080fd5b8401604081870312156131e757600080fd5b6131ef6127ba565b8151838111156131fe57600080fd5b8201601f8101881361320f57600080fd5b805161321d61287e82612a7a565b81815260059190911b8201860190868101908a83111561323c57600080fd5b8784015b838110156133295780518881111561325757600080fd5b850160a0818e03601f1901121561326d57600080fd5b6132756127e3565b6132808b8301613173565b815260408201518a81111561329457600080fd5b6132a28f8d8386010161312e565b8c8301525060608201518a8111156132b957600080fd5b6132c78f8d8386010161312e565b60408301525060808201518a8111156132e05760008081fd5b6132ee8f8d8386010161312e565b60608301525060a08201518a8111156133075760008081fd5b6133158f8d8386010161312e565b608083015250845250918801918801613240565b5084525050509083015183820152918301919091525092915050565b6000806040838503121561335857600080fd5b825167ffffffffffffffff81111561336f57600080fd5b61337b8582860161317e565b9250506020830151612a34816126ca565b634e487b7160e01b600052603260045260246000fd5b6000602082840312156133b457600080fd5b815167ffffffffffffffff8111156133cb57600080fd5b6118338482850161317e565b600181811c908216806133eb57607f821691505b60208210810361340b57634e487b7160e01b600052602260045260246000fd5b50919050565b7f417373657274696f6e4572726f723a20000000000000000000000000000000008152600083516134498160108501602088016126fc565b7f206973206e6f7420657175616c20746f2000000000000000000000000000000060109184019182015283516134868160218401602088016126fc565b01602101949350505050565b6000602080830181845280855180835260408601915060408160051b870101925083870160005b828110156134e757603f198886030184526134d5858351612720565b945092850192908501906001016134b9565b5092979650505050505050565b6020808252825182820181905260009190848201906040850190845b818110156135355783516001600160a01b031683529284019291840191600101613510565b50909695505050505050565b7f417373657274696f6e4572726f723a200000000000000000000000000000000081527f20426f74682076616c756573206172650000000000000000000000000000000060108201526000825161359f8160208501602087016126fc565b9190910160200192915050565b601f8211156109f957600081815260208120601f850160051c810160208610156135d35750805b601f850160051c820191505b818110156135f2578281556001016135df565b505050505050565b815167ffffffffffffffff811115613614576136146127a4565b6136288161362284546133d7565b846135ac565b602080601f83116001811461365d57600084156136455750858301515b600019600386901b1c1916600185901b1785556135f2565b600085815260208120601f198616915b8281101561368c5788860151825594840194600190910190840161366d565b50858210156136aa5787850151600019600388901b60f8161c191681555b5050505050600190811b01905550565b6020808252825182820181905260009190848201906040850190845b81811015613535578351835292840192918401916001016136d6565b600060608083016001600160a01b03871684526020861515818601526040838187015282875180855260808801915060808160051b89010194508389016000805b838110156137d3578a8803607f1901855282518051878a52613757888b0182612720565b918901518a83038b8b0152805189845280518a850181905291939250600582901b83018d0191908b01908d840190875b818110156137b557605f198686030183526137a3858551612919565b9450928d0192918d0191600101613787565b50505050918901519089015297509386019391860191600101613733565b50959c9b505050505050505050505050565b8082028115828204841417610528576105286130ec565b60008161380b5761380b6130ec565b506000190190565b81810381811115610528576105286130ec565b600083516138388184602088016126fc565b83519083019061384c8183602088016126fc565b7f2c200000000000000000000000000000000000000000000000000000000000009101908152600201949350505050565b6000835161388f8184602088016126fc565b8351908301906138a38183602088016126fc565b7f5d000000000000000000000000000000000000000000000000000000000000009101908152600101949350505050565b60006001600160a01b038087168352808616602084015250836040830152608060608301526139066080830184612720565b9695505050505050565b60006020828403121561392257600080fd5b8151611ccf8161269756fe417373657274696f6e4572726f723a20726573756c74206973206e6f742066616c7365417373657274696f6e4572726f723a20726573756c74206973206e6f742074727565a2646970667358221220839d46353d96e758c44d3d2ae78efd0838da15a072500cb2a5825f377ca9116e64736f6c63430008110033608060405234801561001057600080fd5b50611d48806100206000396000f3fe608060405234801561001057600080fd5b50600436106100c95760003560e01c80634b64e4921161008157806374f130701161005b57806374f1307014610176578063d70968e714610189578063e7da4c7e1461019c57600080fd5b80634b64e4921461013057806360fb55d5146101505780636df864781461016357600080fd5b806331495d33116100b257806331495d331461010a578063410dbb8b1461011d57806346bdca9a146100ce57600080fd5b8063235266d2146100ce57806330191626146100f7575b600080fd5b6100e16100dc3660046113d8565b6101af565b6040516100ee9190611503565b60405180910390f35b6100e161010536600461151d565b61025e565b6100e161011836600461155b565b610318565b6100e161012b36600461158e565b6103e9565b61014361013e3660046115b0565b6104e9565b6040516100ee91906115cb565b6100e161015e366004611713565b610657565b6100e16101713660046117cf565b610733565b6100e161018436600461158e565b61080f565b6100e161019736600461155b565b610910565b6100e16101aa366004611884565b6109d7565b6101e36040518060a00160405280600015158152602001606081526020016060815260200160608152602001606081525090565b8151602080840191909120845191850191909120148082526102285782826040516020016102129291906118de565b60408051601f1981840301815291905260208201525b604080820193909352606081019190915281518083019092526005825264195c5d585b60da1b6020830152608081019190915290565b6102926040518060a00160405280600015158152602001606081526020016060815260200160608152602001606081525090565b8282148082526102d5576102a583610ab3565b6102ae83610ab3565b6040516020016102bf9291906118de565b60408051601f1981840301815291905260208201525b6102de83610ab3565b60408201526102ec82610ab3565b6060820152604080518082019091526005815264195c5d585b60da1b6020820152608082015292915050565b61034c6040518060a00160405280600015158152602001606081526020016060815260200160608152602001606081525090565b6001600160a01b038381169083168114825260009061036c906014610b53565b90506000610384846001600160a01b03166014610b53565b83519091506103b65781816040516020016103a09291906118de565b60408051601f1981840301815291905260208401525b604080840192909252606083015280518082019091526005815264195c5d585b60da1b6020820152608082015292915050565b61041d6040518060a00160405280600015158152602001606081526020016060815260200160608152602001606081525090565b811580825261044557604051806060016040528060238152602001611cce6023913960208201525b600182151514610472576040518060400160405280600581526020016466616c736560d81b815250610490565b604051806040016040528060048152602001637472756560e01b8152505b6040808301919091528051602080820183526000825260608401919091528151808301909252600782527f697346616c736500000000000000000000000000000000000000000000000000908201526080820152919050565b6104f16112df565b816104fa6112df565b6105078160200151610d5b565b506040518060600160405280602c8152602001611ca2602c913981600001819052506105db6105d0836001600160a01b03166306fdde036040518163ffffffff1660e01b8152600401600060405180830381865afa15801561056d573d6000803e3d6000fd5b505050506040513d6000823e601f3d908101601f19168201604052610595919081019061195f565b6040518060400160405280600381526020017f50617400000000000000000000000000000000000000000000000000000000008152506101af565b602083015190610dd7565b5061064f6105d0836001600160a01b0316633f83ea3b6040518163ffffffff1660e01b8152600401602060405180830381865afa158015610620573d6000803e3d6000fd5b505050506040513d601f19601f8201168201806040525081019061064491906119cd565b641a291109a661025e565b509392505050565b61068b6040518060a00160405280600015158152602001606081526020016060815260200160608152602001606081525090565b8160405160200161069c91906119e6565b60405160208183030381529060405280519060200120836040516020016106c391906119e6565b60408051601f1981840301815291905280516020909101201480825261071c576106ec83610e47565b6106f583610e47565b6040516020016107069291906118de565b60408051601f1981840301815291905260208201525b61072583610e47565b60408201526102ec82610e47565b6107676040518060a00160405280600015158152602001606081526020016060815260200160608152602001606081525090565b816040516020016107789190611a48565b604051602081830303815290604052805190602001208360405160200161079f9190611a48565b60408051601f198184030181529190528051602090910120148082526107f8576107c883610f1c565b6107d183610f1c565b6040516020016107e29291906118de565b60408051601f1981840301815291905260208201525b61080183610f1c565b60408201526102ec82610f1c565b6108436040518060a00160405280600015158152602001606081526020016060815260200160608152602001606081525090565b81151580825261086c57604051806060016040528060228152602001611cf16022913960208201525b600182151514610899576040518060400160405280600581526020016466616c736560d81b8152506108b7565b604051806040016040528060048152602001637472756560e01b8152505b6040808301919091528051602080820183526000825260608401919091528151808301909252600682527f6973547275650000000000000000000000000000000000000000000000000000908201526080820152919050565b6109446040518060a00160405280600015158152602001606081526020016060815260200160608152602001606081525090565b6001600160a01b038381169083168114158252600090610965906014610b53565b8251909150610995578060405160200161097f9190611a95565b60408051601f1981840301815291905260208301525b60408083019190915280516020808201835260008252606084019190915281518083019092526005825264195c5d585b60da1b90820152608082015292915050565b610a0b6040518060a00160405280600015158152602001606081526020016060815260200160608152602001606081525090565b81604051602001610a1c9190611b00565b6040516020818303038152906040528051906020012083604051602001610a439190611b00565b60408051601f19818403018152919052805160209091012014808252610a9c57610a6c83610ff8565b610a7583610ff8565b604051602001610a869291906118de565b60408051601f1981840301815291905260208201525b610aa583610ff8565b60408201526102ec82610ff8565b60606000610ac0836110c9565b600101905060008167ffffffffffffffff811115610ae057610ae0611313565b6040519080825280601f01601f191660200182016040528015610b0a576020820181803683370190505b5090508181016020015b600019017f3031323334353637383961626364656600000000000000000000000000000000600a86061a8153600a8504945084610b1457509392505050565b60606000610b62836002611b4e565b610b6d906002611b65565b67ffffffffffffffff811115610b8557610b85611313565b6040519080825280601f01601f191660200182016040528015610baf576020820181803683370190505b5090507f300000000000000000000000000000000000000000000000000000000000000081600081518110610be657610be6611b78565b60200101906001600160f81b031916908160001a9053507f780000000000000000000000000000000000000000000000000000000000000081600181518110610c3157610c31611b78565b60200101906001600160f81b031916908160001a9053506000610c55846002611b4e565b610c60906001611b65565b90505b6001811115610ce5577f303132333435363738396162636465660000000000000000000000000000000085600f1660108110610ca157610ca1611b78565b1a60f81b828281518110610cb757610cb7611b78565b60200101906001600160f81b031916908160001a90535060049490941c93610cde81611b8e565b9050610c63565b508315610d52576040517f08c379a000000000000000000000000000000000000000000000000000000000815260206004820181905260248201527f537472696e67733a20686578206c656e67746820696e73756666696369656e74604482015260640160405180910390fd5b90505b92915050565b60408051808201825260608152600060208201528151600480825260a082019093529091816020015b610db86040518060a00160405280600015158152602001606081526020016060815260200160608152602001606081525090565b815260200190600190039081610d845750508252506000602082015290565b604080518082019091526060815260006020820152825151602084015103610e0557610e02836111ab565b92505b818360000151846020015181518110610e2057610e20611b78565b6020026020010181905250826020018051809190610e3d90611ba5565b9052509192915050565b6040805180820190915260018152605b60f81b602082015260609060005b8351811015610f155760018451610e7c9190611bbe565b811015610ec55781848281518110610e9657610e96611b78565b6020026020010151604051602001610eaf929190611bd1565b6040516020818303038152906040529150610f03565b81848281518110610ed857610ed8611b78565b6020026020010151604051602001610ef1929190611c28565b60405160208183030381529060405291505b80610f0d81611ba5565b915050610e65565b5092915050565b6040805180820190915260018152605b60f81b602082015260609060005b8351811015610f155760018451610f519190611bbe565b811015610fad5781610f86858381518110610f6e57610f6e611b78565b60200260200101516001600160a01b03166014610b53565b604051602001610f97929190611bd1565b6040516020818303038152906040529150610fe6565b81610fc3858381518110610f6e57610f6e611b78565b604051602001610fd4929190611c28565b60405160208183030381529060405291505b80610ff081611ba5565b915050610f3a565b6040805180820190915260018152605b60f81b602082015260609060005b8351811015610f15576001845161102d9190611bbe565b81101561107e578161105785838151811061104a5761104a611b78565b6020026020010151610ab3565b604051602001611068929190611bd1565b60405160208183030381529060405291506110b7565b8161109485838151811061104a5761104a611b78565b6040516020016110a5929190611c28565b60405160208183030381529060405291505b806110c181611ba5565b915050611016565b6000807a184f03e93ff9f4daa797ed6e38ed64bf6a1f0100000000000000008310611112577a184f03e93ff9f4daa797ed6e38ed64bf6a1f010000000000000000830492506040015b6d04ee2d6d415b85acef8100000000831061113e576d04ee2d6d415b85acef8100000000830492506020015b662386f26fc10000831061115c57662386f26fc10000830492506010015b6305f5e1008310611174576305f5e100830492506008015b612710831061118857612710830492506004015b6064831061119a576064830492506002015b600a8310610d555760010192915050565b6040805180820190915260608152600060208201526040805180820190915260608152600060208201528251516002906111e6906003611b4e565b6111f09190611c7f565b67ffffffffffffffff81111561120857611208611313565b60405190808252806020026020018201604052801561126d57816020015b61125a6040518060a00160405280600015158152602001606081526020016060815260200160608152602001606081525090565b8152602001906001900390816112265790505b50815260005b8351518110156112cd57835180518290811061129157611291611b78565b6020026020010151826000015182815181106112af576112af611b78565b602002602001018190525080806112c590611ba5565b915050611273565b50602092830151928101929092525090565b60405180604001604052806060815260200161130e604051806040016040528060608152602001600081525090565b905290565b634e487b7160e01b600052604160045260246000fd5b604051601f8201601f1916810167ffffffffffffffff8111828210171561135257611352611313565b604052919050565b600067ffffffffffffffff82111561137457611374611313565b50601f01601f191660200190565b600082601f83011261139357600080fd5b81356113a66113a18261135a565b611329565b8181528460208386010111156113bb57600080fd5b816020850160208301376000918101602001919091529392505050565b600080604083850312156113eb57600080fd5b823567ffffffffffffffff8082111561140357600080fd5b61140f86838701611382565b9350602085013591508082111561142557600080fd5b5061143285828601611382565b9150509250929050565b60005b8381101561145757818101518382015260200161143f565b50506000910152565b6000815180845261147881602086016020860161143c565b601f01601f19169290920160200192915050565b8051151582526000602082015160a060208501526114ad60a0850182611460565b9050604083015184820360408601526114c68282611460565b915050606083015184820360608601526114e08282611460565b915050608083015184820360808601526114fa8282611460565b95945050505050565b602081526000611516602083018461148c565b9392505050565b6000806040838503121561153057600080fd5b50508035926020909101359150565b80356001600160a01b038116811461155657600080fd5b919050565b6000806040838503121561156e57600080fd5b6115778361153f565b91506115856020840161153f565b90509250929050565b6000602082840312156115a057600080fd5b81358015158114610d5257600080fd5b6000602082840312156115c257600080fd5b6115168261153f565b6000602080835283516040828501526115e76060850182611460565b905081850151601f198583030160408601526040820181516040845281815180845260608601915060608160051b8701019350868301925060005b8181101561165057605f1987860301835261163e85855161148c565b94509287019291870191600101611622565b505050509083015191909201529392505050565b600067ffffffffffffffff82111561167e5761167e611313565b5060051b60200190565b600082601f83011261169957600080fd5b813560206116a96113a183611664565b82815260059290921b840181019181810190868411156116c857600080fd5b8286015b8481101561170857803567ffffffffffffffff8111156116ec5760008081fd5b6116fa8986838b0101611382565b8452509183019183016116cc565b509695505050505050565b6000806040838503121561172657600080fd5b823567ffffffffffffffff8082111561173e57600080fd5b61174a86838701611688565b9350602085013591508082111561176057600080fd5b5061143285828601611688565b600082601f83011261177e57600080fd5b8135602061178e6113a183611664565b82815260059290921b840181019181810190868411156117ad57600080fd5b8286015b84811015611708576117c28161153f565b83529183019183016117b1565b600080604083850312156117e257600080fd5b823567ffffffffffffffff808211156117fa57600080fd5b6118068683870161176d565b9350602085013591508082111561181c57600080fd5b506114328582860161176d565b600082601f83011261183a57600080fd5b8135602061184a6113a183611664565b82815260059290921b8401810191818101908684111561186957600080fd5b8286015b84811015611708578035835291830191830161186d565b6000806040838503121561189757600080fd5b823567ffffffffffffffff808211156118af57600080fd5b6118bb86838701611829565b935060208501359150808211156118d157600080fd5b5061143285828601611829565b7f417373657274696f6e4572726f723a200000000000000000000000000000000081526000835161191681601085016020880161143c565b7f206973206e6f7420657175616c20746f20000000000000000000000000000000601091840191820152835161195381602184016020880161143c565b01602101949350505050565b60006020828403121561197157600080fd5b815167ffffffffffffffff81111561198857600080fd5b8201601f8101841361199957600080fd5b80516119a76113a18261135a565b8181528560208385010111156119bc57600080fd5b6114fa82602083016020860161143c565b6000602082840312156119df57600080fd5b5051919050565b6000602080830181845280855180835260408601915060408160051b870101925083870160005b82811015611a3b57603f19888603018452611a29858351611460565b94509285019290850190600101611a0d565b5092979650505050505050565b6020808252825182820181905260009190848201906040850190845b81811015611a895783516001600160a01b031683529284019291840191600101611a64565b50909695505050505050565b7f417373657274696f6e4572726f723a200000000000000000000000000000000081527f20426f74682076616c7565732061726500000000000000000000000000000000601082015260008251611af381602085016020870161143c565b9190910160200192915050565b6020808252825182820181905260009190848201906040850190845b81811015611a8957835183529284019291840191600101611b1c565b634e487b7160e01b600052601160045260246000fd5b8082028115828204841417610d5557610d55611b38565b80820180821115610d5557610d55611b38565b634e487b7160e01b600052603260045260246000fd5b600081611b9d57611b9d611b38565b506000190190565b600060018201611bb757611bb7611b38565b5060010190565b81810381811115610d5557610d55611b38565b60008351611be381846020880161143c565b835190830190611bf781836020880161143c565b7f2c200000000000000000000000000000000000000000000000000000000000009101908152600201949350505050565b60008351611c3a81846020880161143c565b835190830190611c4e81836020880161143c565b7f5d000000000000000000000000000000000000000000000000000000000000009101908152600101949350505050565b600082611c9c57634e487b7160e01b600052601260045260246000fd5b50049056fe436f6e7374727563746f722073686f756c6420696e697469616c697a65206461746120636f72726563746c79417373657274696f6e4572726f723a20726573756c74206973206e6f742066616c7365417373657274696f6e4572726f723a20726573756c74206973206e6f742074727565a2646970667358221220a90da2203d1f1ea0eb6025c4a7e605798e2236b48260e618cee24504887ed58364736f6c63430008110033608060405234801561001057600080fd5b50611f78806100206000396000f3fe608060405234801561001057600080fd5b50600436106100c95760003560e01c80634b64e4921161008157806374f130701161005b57806374f1307014610176578063d70968e714610189578063e7da4c7e1461019c57600080fd5b80634b64e4921461013057806360fb55d5146101505780636df864781461016357600080fd5b806331495d33116100b257806331495d331461010a578063410dbb8b1461011d57806346bdca9a146100ce57600080fd5b8063235266d2146100ce57806330191626146100f7575b600080fd5b6100e16100dc36600461163c565b6101af565b6040516100ee9190611767565b60405180910390f35b6100e1610105366004611781565b61025e565b6100e16101183660046117bf565b610318565b6100e161012b3660046117f2565b6103e9565b61014361013e366004611814565b6104e9565b6040516100ee919061182f565b6100e161015e36600461197c565b610744565b6100e1610171366004611a38565b610820565b6100e16101843660046117f2565b6108fc565b6100e16101973660046117bf565b6109fd565b6100e16101aa366004611aed565b610ac4565b6101e36040518060a00160405280600015158152602001606081526020016060815260200160608152602001606081525090565b815160208084019190912084519185019190912014808252610228578282604051602001610212929190611b47565b60408051601f1981840301815291905260208201525b604080820193909352606081019190915281518083019092526005825264195c5d585b60da1b6020830152608081019190915290565b6102926040518060a00160405280600015158152602001606081526020016060815260200160608152602001606081525090565b8282148082526102d5576102a583610ba0565b6102ae83610ba0565b6040516020016102bf929190611b47565b60408051601f1981840301815291905260208201525b6102de83610ba0565b60408201526102ec82610ba0565b6060820152604080518082019091526005815264195c5d585b60da1b6020820152608082015292915050565b61034c6040518060a00160405280600015158152602001606081526020016060815260200160608152602001606081525090565b6001600160a01b038381169083168114825260009061036c906014610c40565b90506000610384846001600160a01b03166014610c40565b83519091506103b65781816040516020016103a0929190611b47565b60408051601f1981840301815291905260208401525b604080840192909252606083015280518082019091526005815264195c5d585b60da1b6020820152608082015292915050565b61041d6040518060a00160405280600015158152602001606081526020016060815260200160608152602001606081525090565b811580825261044557604051806060016040528060238152602001611efe6023913960208201525b600182151514610472576040518060400160405280600581526020016466616c736560d81b815250610490565b604051806040016040528060048152602001637472756560e01b8152505b6040808301919091528051602080820183526000825260608401919091528151808301909252600782527f697346616c736500000000000000000000000000000000000000000000000000908201526080820152919050565b6104f1611551565b816104fa611551565b6105078160200151610e48565b50604051806060016040528060318152602001611ecd603191398160000181905250816001600160a01b0316634c7648096040518163ffffffff1660e01b8152600401600060405180830381600087803b15801561056457600080fd5b505af1158015610578573d6000803e3d6000fd5b5050505060008061058884610ec4565b915091506105a3610598826108fc565b602085015190610f3b565b506105ad84610fab565b90925090508015610646576040805160a081018252600080825282518084018452601f81527f43616c6c20746f2072656d6f746556696577536861726573206661696c656400602082810191909152808401919091528351808201855282815283850152835180820185528281526060840152835180820190945290835260808201929092529084015161064091610f3b565b5061065b565b6106596105988361ffff166103e861025e565b505b600061066685611005565b92509050610681610676836108fc565b602086015190610f3b565b5061068b8561105f565b925090508115610723576040805160a081018252600080825282518084018452601f81527f43616c6c20746f2072656d6f74655669657753616c617279206661696c656400602082810191909152808401919091528351808201855282815283850152835180820185528281526060840152835180820190945290835260808201929092529085015161071d91610f3b565b50610739565b6107376106768262ffffff1661c35061025e565b505b509195945050505050565b6107786040518060a00160405280600015158152602001606081526020016060815260200160608152602001606081525090565b816040516020016107899190611bc8565b60405160208183030381529060405280519060200120836040516020016107b09190611bc8565b60408051601f19818403018152919052805160209091012014808252610809576107d9836110b9565b6107e2836110b9565b6040516020016107f3929190611b47565b60408051601f1981840301815291905260208201525b610812836110b9565b60408201526102ec826110b9565b6108546040518060a00160405280600015158152602001606081526020016060815260200160608152602001606081525090565b816040516020016108659190611c2a565b604051602081830303815290604052805190602001208360405160200161088c9190611c2a565b60408051601f198184030181529190528051602090910120148082526108e5576108b58361118e565b6108be8361118e565b6040516020016108cf929190611b47565b60408051601f1981840301815291905260208201525b6108ee8361118e565b60408201526102ec8261118e565b6109306040518060a00160405280600015158152602001606081526020016060815260200160608152602001606081525090565b81151580825261095957604051806060016040528060228152602001611f216022913960208201525b600182151514610986576040518060400160405280600581526020016466616c736560d81b8152506109a4565b604051806040016040528060048152602001637472756560e01b8152505b6040808301919091528051602080820183526000825260608401919091528151808301909252600682527f6973547275650000000000000000000000000000000000000000000000000000908201526080820152919050565b610a316040518060a00160405280600015158152602001606081526020016060815260200160608152602001606081525090565b6001600160a01b038381169083168114158252600090610a52906014610c40565b8251909150610a825780604051602001610a6c9190611c77565b60408051601f1981840301815291905260208301525b60408083019190915280516020808201835260008252606084019190915281518083019092526005825264195c5d585b60da1b90820152608082015292915050565b610af86040518060a00160405280600015158152602001606081526020016060815260200160608152602001606081525090565b81604051602001610b099190611ce2565b6040516020818303038152906040528051906020012083604051602001610b309190611ce2565b60408051601f19818403018152919052805160209091012014808252610b8957610b598361126a565b610b628361126a565b604051602001610b73929190611b47565b60408051601f1981840301815291905260208201525b610b928361126a565b60408201526102ec8261126a565b60606000610bad8361133b565b600101905060008167ffffffffffffffff811115610bcd57610bcd611585565b6040519080825280601f01601f191660200182016040528015610bf7576020820181803683370190505b5090508181016020015b600019017f3031323334353637383961626364656600000000000000000000000000000000600a86061a8153600a8504945084610c0157509392505050565b60606000610c4f836002611d30565b610c5a906002611d47565b67ffffffffffffffff811115610c7257610c72611585565b6040519080825280601f01601f191660200182016040528015610c9c576020820181803683370190505b5090507f300000000000000000000000000000000000000000000000000000000000000081600081518110610cd357610cd3611d5a565b60200101906001600160f81b031916908160001a9053507f780000000000000000000000000000000000000000000000000000000000000081600181518110610d1e57610d1e611d5a565b60200101906001600160f81b031916908160001a9053506000610d42846002611d30565b610d4d906001611d47565b90505b6001811115610dd2577f303132333435363738396162636465660000000000000000000000000000000085600f1660108110610d8e57610d8e611d5a565b1a60f81b828281518110610da457610da4611d5a565b60200101906001600160f81b031916908160001a90535060049490941c93610dcb81611d70565b9050610d50565b508315610e3f576040517f08c379a000000000000000000000000000000000000000000000000000000000815260206004820181905260248201527f537472696e67733a20686578206c656e67746820696e73756666696369656e74604482015260640160405180910390fd5b90505b92915050565b60408051808201825260608152600060208201528151600480825260a082019093529091816020015b610ea56040518060a00160405280600015158152602001606081526020016060815260200160608152602001606081525090565b815260200190600190039081610e715750508252506000602082015290565b600080826001600160a01b03166303314efa6040518163ffffffff1660e01b8152600401602060405180830381865afa925050508015610f21575060408051601f3d908101601f19168201909252610f1e91810190611d87565b60015b610f315750600092600192509050565b9360009350915050565b604080518082019091526060815260006020820152825151602084015103610f6957610f668361141d565b92505b818360000151846020015181518110610f8457610f84611d5a565b6020026020010181905250826020018051809190610fa190611dab565b9052509192915050565b600080826001600160a01b0316636d45e2a56040518163ffffffff1660e01b8152600401602060405180830381865afa925050508015610f21575060408051601f3d908101601f19168201909252610f1e91810190611d87565b600080826001600160a01b0316630397b6526040518163ffffffff1660e01b8152600401602060405180830381865afa925050508015610f21575060408051601f3d908101601f19168201909252610f1e91810190611dc4565b600080826001600160a01b031663495744026040518163ffffffff1660e01b8152600401602060405180830381865afa925050508015610f21575060408051601f3d908101601f19168201909252610f1e91810190611dc4565b6040805180820190915260018152605b60f81b602082015260609060005b835181101561118757600184516110ee9190611de9565b811015611137578184828151811061110857611108611d5a565b6020026020010151604051602001611121929190611dfc565b6040516020818303038152906040529150611175565b8184828151811061114a5761114a611d5a565b6020026020010151604051602001611163929190611e53565b60405160208183030381529060405291505b8061117f81611dab565b9150506110d7565b5092915050565b6040805180820190915260018152605b60f81b602082015260609060005b835181101561118757600184516111c39190611de9565b81101561121f57816111f88583815181106111e0576111e0611d5a565b60200260200101516001600160a01b03166014610c40565b604051602001611209929190611dfc565b6040516020818303038152906040529150611258565b816112358583815181106111e0576111e0611d5a565b604051602001611246929190611e53565b60405160208183030381529060405291505b8061126281611dab565b9150506111ac565b6040805180820190915260018152605b60f81b602082015260609060005b8351811015611187576001845161129f9190611de9565b8110156112f057816112c98583815181106112bc576112bc611d5a565b6020026020010151610ba0565b6040516020016112da929190611dfc565b6040516020818303038152906040529150611329565b816113068583815181106112bc576112bc611d5a565b604051602001611317929190611e53565b60405160208183030381529060405291505b8061133381611dab565b915050611288565b6000807a184f03e93ff9f4daa797ed6e38ed64bf6a1f0100000000000000008310611384577a184f03e93ff9f4daa797ed6e38ed64bf6a1f010000000000000000830492506040015b6d04ee2d6d415b85acef810000000083106113b0576d04ee2d6d415b85acef8100000000830492506020015b662386f26fc1000083106113ce57662386f26fc10000830492506010015b6305f5e10083106113e6576305f5e100830492506008015b61271083106113fa57612710830492506004015b6064831061140c576064830492506002015b600a8310610e425760010192915050565b604080518082019091526060815260006020820152604080518082019091526060815260006020820152825151600290611458906003611d30565b6114629190611eaa565b67ffffffffffffffff81111561147a5761147a611585565b6040519080825280602002602001820160405280156114df57816020015b6114cc6040518060a00160405280600015158152602001606081526020016060815260200160608152602001606081525090565b8152602001906001900390816114985790505b50815260005b83515181101561153f57835180518290811061150357611503611d5a565b60200260200101518260000151828151811061152157611521611d5a565b6020026020010181905250808061153790611dab565b9150506114e5565b50602092830151928101929092525090565b604051806040016040528060608152602001611580604051806040016040528060608152602001600081525090565b905290565b634e487b7160e01b600052604160045260246000fd5b604051601f8201601f1916810167ffffffffffffffff811182821017156115c4576115c4611585565b604052919050565b600082601f8301126115dd57600080fd5b813567ffffffffffffffff8111156115f7576115f7611585565b61160a601f8201601f191660200161159b565b81815284602083860101111561161f57600080fd5b816020850160208301376000918101602001919091529392505050565b6000806040838503121561164f57600080fd5b823567ffffffffffffffff8082111561166757600080fd5b611673868387016115cc565b9350602085013591508082111561168957600080fd5b50611696858286016115cc565b9150509250929050565b60005b838110156116bb5781810151838201526020016116a3565b50506000910152565b600081518084526116dc8160208601602086016116a0565b601f01601f19169290920160200192915050565b8051151582526000602082015160a0602085015261171160a08501826116c4565b90506040830151848203604086015261172a82826116c4565b9150506060830151848203606086015261174482826116c4565b9150506080830151848203608086015261175e82826116c4565b95945050505050565b60208152600061177a60208301846116f0565b9392505050565b6000806040838503121561179457600080fd5b50508035926020909101359150565b80356001600160a01b03811681146117ba57600080fd5b919050565b600080604083850312156117d257600080fd5b6117db836117a3565b91506117e9602084016117a3565b90509250929050565b60006020828403121561180457600080fd5b81358015158114610e3f57600080fd5b60006020828403121561182657600080fd5b61177a826117a3565b60006020808352835160408285015261184b60608501826116c4565b905081850151601f198583030160408601526040820181516040845281815180845260608601915060608160051b8701019350868301925060005b818110156118b457605f198786030183526118a28585516116f0565b94509287019291870191600101611886565b505050509083015191909201529392505050565b600067ffffffffffffffff8211156118e2576118e2611585565b5060051b60200190565b600082601f8301126118fd57600080fd5b8135602061191261190d836118c8565b61159b565b82815260059290921b8401810191818101908684111561193157600080fd5b8286015b8481101561197157803567ffffffffffffffff8111156119555760008081fd5b6119638986838b01016115cc565b845250918301918301611935565b509695505050505050565b6000806040838503121561198f57600080fd5b823567ffffffffffffffff808211156119a757600080fd5b6119b3868387016118ec565b935060208501359150808211156119c957600080fd5b50611696858286016118ec565b600082601f8301126119e757600080fd5b813560206119f761190d836118c8565b82815260059290921b84018101918181019086841115611a1657600080fd5b8286015b8481101561197157611a2b816117a3565b8352918301918301611a1a565b60008060408385031215611a4b57600080fd5b823567ffffffffffffffff80821115611a6357600080fd5b611a6f868387016119d6565b93506020850135915080821115611a8557600080fd5b50611696858286016119d6565b600082601f830112611aa357600080fd5b81356020611ab361190d836118c8565b82815260059290921b84018101918181019086841115611ad257600080fd5b8286015b848110156119715780358352918301918301611ad6565b60008060408385031215611b0057600080fd5b823567ffffffffffffffff80821115611b1857600080fd5b611b2486838701611a92565b93506020850135915080821115611b3a57600080fd5b5061169685828601611a92565b7f417373657274696f6e4572726f723a2000000000000000000000000000000000815260008351611b7f8160108501602088016116a0565b7f206973206e6f7420657175616c20746f200000000000000000000000000000006010918401918201528351611bbc8160218401602088016116a0565b01602101949350505050565b6000602080830181845280855180835260408601915060408160051b870101925083870160005b82811015611c1d57603f19888603018452611c0b8583516116c4565b94509285019290850190600101611bef565b5092979650505050505050565b6020808252825182820181905260009190848201906040850190845b81811015611c6b5783516001600160a01b031683529284019291840191600101611c46565b50909695505050505050565b7f417373657274696f6e4572726f723a200000000000000000000000000000000081527f20426f74682076616c7565732061726500000000000000000000000000000000601082015260008251611cd58160208501602087016116a0565b9190910160200192915050565b6020808252825182820181905260009190848201906040850190845b81811015611c6b57835183529284019291840191600101611cfe565b634e487b7160e01b600052601160045260246000fd5b8082028115828204841417610e4257610e42611d1a565b80820180821115610e4257610e42611d1a565b634e487b7160e01b600052603260045260246000fd5b600081611d7f57611d7f611d1a565b506000190190565b600060208284031215611d9957600080fd5b815161ffff81168114610e3f57600080fd5b600060018201611dbd57611dbd611d1a565b5060010190565b600060208284031215611dd657600080fd5b815162ffffff81168114610e3f57600080fd5b81810381811115610e4257610e42611d1a565b60008351611e0e8184602088016116a0565b835190830190611e228183602088016116a0565b7f2c200000000000000000000000000000000000000000000000000000000000009101908152600201949350505050565b60008351611e658184602088016116a0565b835190830190611e798183602088016116a0565b7f5d000000000000000000000000000000000000000000000000000000000000009101908152600101949350505050565b600082611ec757634e487b7160e01b600052601260045260246000fd5b50049056fe5072697661746520766172732073686f756c64207265766572742c2068617665207075626c6963206163636573736f7273417373657274696f6e4572726f723a20726573756c74206973206e6f742066616c7365417373657274696f6e4572726f723a20726573756c74206973206e6f742074727565a2646970667358221220ce8e14232972c93fcd7abc031434ef8e71e3ba0e10aae96b29c9d06df237207f64736f6c63430008110033608060405234801561001057600080fd5b50611cfe806100206000396000f3fe608060405234801561001057600080fd5b50600436106100c95760003560e01c80634b64e4921161008157806374f130701161005b57806374f1307014610176578063d70968e714610189578063e7da4c7e1461019c57600080fd5b80634b64e4921461013057806360fb55d5146101505780636df864781461016357600080fd5b806331495d33116100b257806331495d331461010a578063410dbb8b1461011d57806346bdca9a146100ce57600080fd5b8063235266d2146100ce57806330191626146100f7575b600080fd5b6100e16100dc366004611400565b6101af565b6040516100ee919061152b565b60405180910390f35b6100e1610105366004611545565b61025e565b6100e1610118366004611583565b610318565b6100e161012b3660046115b6565b6103e9565b61014361013e3660046115d8565b6104e9565b6040516100ee91906115f3565b6100e161015e366004611740565b6105ee565b6100e16101713660046117fc565b6106ca565b6100e16101843660046115b6565b6107a6565b6100e1610197366004611583565b6108a7565b6100e16101aa3660046118b1565b61096e565b6101e36040518060a00160405280600015158152602001606081526020016060815260200160608152602001606081525090565b81516020808401919091208451918501919091201480825261022857828260405160200161021292919061190b565b60408051601f1981840301815291905260208201525b604080820193909352606081019190915281518083019092526005825264195c5d585b60da1b6020830152608081019190915290565b6102926040518060a00160405280600015158152602001606081526020016060815260200160608152602001606081525090565b8282148082526102d5576102a583610a4a565b6102ae83610a4a565b6040516020016102bf92919061190b565b60408051601f1981840301815291905260208201525b6102de83610a4a565b60408201526102ec82610a4a565b6060820152604080518082019091526005815264195c5d585b60da1b6020820152608082015292915050565b61034c6040518060a00160405280600015158152602001606081526020016060815260200160608152602001606081525090565b6001600160a01b038381169083168114825260009061036c906014610aea565b90506000610384846001600160a01b03166014610aea565b83519091506103b65781816040516020016103a092919061190b565b60408051601f1981840301815291905260208401525b604080840192909252606083015280518082019091526005815264195c5d585b60da1b6020820152608082015292915050565b61041d6040518060a00160405280600015158152602001606081526020016060815260200160608152602001606081525090565b811580825261044557604051806060016040528060238152602001611c616023913960208201525b600182151514610472576040518060400160405280600581526020016466616c736560d81b815250610490565b604051806040016040528060048152602001637472756560e01b8152505b6040808301919091528051602080820183526000825260608401919091528151808301909252600782527f697346616c736500000000000000000000000000000000000000000000000000908201526080820152919050565b6104f1611315565b816104fa611315565b6105078160200151610cf2565b50604051806060016040528060238152602001611ca6602391398152600080610531846003610d6e565b9150915080156105c9576040805160a081018252600080825282518084018452601e81527f43616c6c20746f20636865636b466f725061636b696e67206661696c6564000060208281019190915280840191909152835180820185528281528385015283518082018552828152606084015283518082019094529083526080820192909252908401516105c391610e0d565b506105e4565b6105e26105d783600061025e565b602085015190610e0d565b505b5090949350505050565b6106226040518060a00160405280600015158152602001606081526020016060815260200160608152602001606081525090565b81604051602001610633919061198c565b604051602081830303815290604052805190602001208360405160200161065a919061198c565b60408051601f198184030181529190528051602090910120148082526106b35761068383610e7d565b61068c83610e7d565b60405160200161069d92919061190b565b60408051601f1981840301815291905260208201525b6106bc83610e7d565b60408201526102ec82610e7d565b6106fe6040518060a00160405280600015158152602001606081526020016060815260200160608152602001606081525090565b8160405160200161070f91906119ee565b604051602081830303815290604052805190602001208360405160200161073691906119ee565b60408051601f1981840301815291905280516020909101201480825261078f5761075f83610f52565b61076883610f52565b60405160200161077992919061190b565b60408051601f1981840301815291905260208201525b61079883610f52565b60408201526102ec82610f52565b6107da6040518060a00160405280600015158152602001606081526020016060815260200160608152602001606081525090565b81151580825261080357604051806060016040528060228152602001611c846022913960208201525b600182151514610830576040518060400160405280600581526020016466616c736560d81b81525061084e565b604051806040016040528060048152602001637472756560e01b8152505b6040808301919091528051602080820183526000825260608401919091528151808301909252600682527f6973547275650000000000000000000000000000000000000000000000000000908201526080820152919050565b6108db6040518060a00160405280600015158152602001606081526020016060815260200160608152602001606081525090565b6001600160a01b0383811690831681141582526000906108fc906014610aea565b825190915061092c57806040516020016109169190611a3b565b60408051601f1981840301815291905260208301525b60408083019190915280516020808201835260008252606084019190915281518083019092526005825264195c5d585b60da1b90820152608082015292915050565b6109a26040518060a00160405280600015158152602001606081526020016060815260200160608152602001606081525090565b816040516020016109b39190611aa6565b60405160208183030381529060405280519060200120836040516020016109da9190611aa6565b60408051601f19818403018152919052805160209091012014808252610a3357610a038361102e565b610a0c8361102e565b604051602001610a1d92919061190b565b60408051601f1981840301815291905260208201525b610a3c8361102e565b60408201526102ec8261102e565b60606000610a57836110ff565b600101905060008167ffffffffffffffff811115610a7757610a77611349565b6040519080825280601f01601f191660200182016040528015610aa1576020820181803683370190505b5090508181016020015b600019017f3031323334353637383961626364656600000000000000000000000000000000600a86061a8153600a8504945084610aab57509392505050565b60606000610af9836002611af4565b610b04906002611b0b565b67ffffffffffffffff811115610b1c57610b1c611349565b6040519080825280601f01601f191660200182016040528015610b46576020820181803683370190505b5090507f300000000000000000000000000000000000000000000000000000000000000081600081518110610b7d57610b7d611b1e565b60200101906001600160f81b031916908160001a9053507f780000000000000000000000000000000000000000000000000000000000000081600181518110610bc857610bc8611b1e565b60200101906001600160f81b031916908160001a9053506000610bec846002611af4565b610bf7906001611b0b565b90505b6001811115610c7c577f303132333435363738396162636465660000000000000000000000000000000085600f1660108110610c3857610c38611b1e565b1a60f81b828281518110610c4e57610c4e611b1e565b60200101906001600160f81b031916908160001a90535060049490941c93610c7581611b34565b9050610bfa565b508315610ce9576040517f08c379a000000000000000000000000000000000000000000000000000000000815260206004820181905260248201527f537472696e67733a20686578206c656e67746820696e73756666696369656e74604482015260640160405180910390fd5b90505b92915050565b60408051808201825260608152600060208201528151600480825260a082019093529091816020015b610d4f6040518060a00160405280600015158152602001606081526020016060815260200160608152602001606081525090565b815260200190600190039081610d1b5750508252506000602082015290565b6040517f8f6a861a0000000000000000000000000000000000000000000000000000000081526004810182905260009081906001600160a01b03851690638f6a861a906024016020604051808303816000875af1925050508015610def575060408051601f3d908101601f19168201909252610dec91810190611b4b565b60015b610dff5750600090506001610e06565b9150600090505b9250929050565b604080518082019091526060815260006020820152825151602084015103610e3b57610e38836111e1565b92505b818360000151846020015181518110610e5657610e56611b1e565b6020026020010181905250826020018051809190610e7390611b64565b9052509192915050565b6040805180820190915260018152605b60f81b602082015260609060005b8351811015610f4b5760018451610eb29190611b7d565b811015610efb5781848281518110610ecc57610ecc611b1e565b6020026020010151604051602001610ee5929190611b90565b6040516020818303038152906040529150610f39565b81848281518110610f0e57610f0e611b1e565b6020026020010151604051602001610f27929190611be7565b60405160208183030381529060405291505b80610f4381611b64565b915050610e9b565b5092915050565b6040805180820190915260018152605b60f81b602082015260609060005b8351811015610f4b5760018451610f879190611b7d565b811015610fe35781610fbc858381518110610fa457610fa4611b1e565b60200260200101516001600160a01b03166014610aea565b604051602001610fcd929190611b90565b604051602081830303815290604052915061101c565b81610ff9858381518110610fa457610fa4611b1e565b60405160200161100a929190611be7565b60405160208183030381529060405291505b8061102681611b64565b915050610f70565b6040805180820190915260018152605b60f81b602082015260609060005b8351811015610f4b57600184516110639190611b7d565b8110156110b4578161108d85838151811061108057611080611b1e565b6020026020010151610a4a565b60405160200161109e929190611b90565b60405160208183030381529060405291506110ed565b816110ca85838151811061108057611080611b1e565b6040516020016110db929190611be7565b60405160208183030381529060405291505b806110f781611b64565b91505061104c565b6000807a184f03e93ff9f4daa797ed6e38ed64bf6a1f0100000000000000008310611148577a184f03e93ff9f4daa797ed6e38ed64bf6a1f010000000000000000830492506040015b6d04ee2d6d415b85acef81000000008310611174576d04ee2d6d415b85acef8100000000830492506020015b662386f26fc10000831061119257662386f26fc10000830492506010015b6305f5e10083106111aa576305f5e100830492506008015b61271083106111be57612710830492506004015b606483106111d0576064830492506002015b600a8310610cec5760010192915050565b60408051808201909152606081526000602082015260408051808201909152606081526000602082015282515160029061121c906003611af4565b6112269190611c3e565b67ffffffffffffffff81111561123e5761123e611349565b6040519080825280602002602001820160405280156112a357816020015b6112906040518060a00160405280600015158152602001606081526020016060815260200160608152602001606081525090565b81526020019060019003908161125c5790505b50815260005b8351518110156113035783518051829081106112c7576112c7611b1e565b6020026020010151826000015182815181106112e5576112e5611b1e565b602002602001018190525080806112fb90611b64565b9150506112a9565b50602092830151928101929092525090565b604051806040016040528060608152602001611344604051806040016040528060608152602001600081525090565b905290565b634e487b7160e01b600052604160045260246000fd5b604051601f8201601f1916810167ffffffffffffffff8111828210171561138857611388611349565b604052919050565b600082601f8301126113a157600080fd5b813567ffffffffffffffff8111156113bb576113bb611349565b6113ce601f8201601f191660200161135f565b8181528460208386010111156113e357600080fd5b816020850160208301376000918101602001919091529392505050565b6000806040838503121561141357600080fd5b823567ffffffffffffffff8082111561142b57600080fd5b61143786838701611390565b9350602085013591508082111561144d57600080fd5b5061145a85828601611390565b9150509250929050565b60005b8381101561147f578181015183820152602001611467565b50506000910152565b600081518084526114a0816020860160208601611464565b601f01601f19169290920160200192915050565b8051151582526000602082015160a060208501526114d560a0850182611488565b9050604083015184820360408601526114ee8282611488565b915050606083015184820360608601526115088282611488565b915050608083015184820360808601526115228282611488565b95945050505050565b60208152600061153e60208301846114b4565b9392505050565b6000806040838503121561155857600080fd5b50508035926020909101359150565b80356001600160a01b038116811461157e57600080fd5b919050565b6000806040838503121561159657600080fd5b61159f83611567565b91506115ad60208401611567565b90509250929050565b6000602082840312156115c857600080fd5b81358015158114610ce957600080fd5b6000602082840312156115ea57600080fd5b61153e82611567565b60006020808352835160408285015261160f6060850182611488565b905081850151601f198583030160408601526040820181516040845281815180845260608601915060608160051b8701019350868301925060005b8181101561167857605f198786030183526116668585516114b4565b9450928701929187019160010161164a565b505050509083015191909201529392505050565b600067ffffffffffffffff8211156116a6576116a6611349565b5060051b60200190565b600082601f8301126116c157600080fd5b813560206116d66116d18361168c565b61135f565b82815260059290921b840181019181810190868411156116f557600080fd5b8286015b8481101561173557803567ffffffffffffffff8111156117195760008081fd5b6117278986838b0101611390565b8452509183019183016116f9565b509695505050505050565b6000806040838503121561175357600080fd5b823567ffffffffffffffff8082111561176b57600080fd5b611777868387016116b0565b9350602085013591508082111561178d57600080fd5b5061145a858286016116b0565b600082601f8301126117ab57600080fd5b813560206117bb6116d18361168c565b82815260059290921b840181019181810190868411156117da57600080fd5b8286015b84811015611735576117ef81611567565b83529183019183016117de565b6000806040838503121561180f57600080fd5b823567ffffffffffffffff8082111561182757600080fd5b6118338683870161179a565b9350602085013591508082111561184957600080fd5b5061145a8582860161179a565b600082601f83011261186757600080fd5b813560206118776116d18361168c565b82815260059290921b8401810191818101908684111561189657600080fd5b8286015b84811015611735578035835291830191830161189a565b600080604083850312156118c457600080fd5b823567ffffffffffffffff808211156118dc57600080fd5b6118e886838701611856565b935060208501359150808211156118fe57600080fd5b5061145a85828601611856565b7f417373657274696f6e4572726f723a2000000000000000000000000000000000815260008351611943816010850160208801611464565b7f206973206e6f7420657175616c20746f200000000000000000000000000000006010918401918201528351611980816021840160208801611464565b01602101949350505050565b6000602080830181845280855180835260408601915060408160051b870101925083870160005b828110156119e157603f198886030184526119cf858351611488565b945092850192908501906001016119b3565b5092979650505050505050565b6020808252825182820181905260009190848201906040850190845b81811015611a2f5783516001600160a01b031683529284019291840191600101611a0a565b50909695505050505050565b7f417373657274696f6e4572726f723a200000000000000000000000000000000081527f20426f74682076616c7565732061726500000000000000000000000000000000601082015260008251611a99816020850160208701611464565b9190910160200192915050565b6020808252825182820181905260009190848201906040850190845b81811015611a2f57835183529284019291840191600101611ac2565b634e487b7160e01b600052601160045260246000fd5b8082028115828204841417610cec57610cec611ade565b80820180821115610cec57610cec611ade565b634e487b7160e01b600052603260045260246000fd5b600081611b4357611b43611ade565b506000190190565b600060208284031215611b5d57600080fd5b5051919050565b600060018201611b7657611b76611ade565b5060010190565b81810381811115610cec57610cec611ade565b60008351611ba2818460208801611464565b835190830190611bb6818360208801611464565b7f2c200000000000000000000000000000000000000000000000000000000000009101908152600201949350505050565b60008351611bf9818460208801611464565b835190830190611c0d818360208801611464565b7f5d000000000000000000000000000000000000000000000000000000000000009101908152600101949350505050565b600082611c5b57634e487b7160e01b600052601260045260246000fd5b50049056fe417373657274696f6e4572726f723a20726573756c74206973206e6f742066616c7365417373657274696f6e4572726f723a20726573756c74206973206e6f7420747275655661726961626c65732073686f756c64207061636b20617070726f7072696174656c79a264697066735822122087a3905a66e91f24173842179e088618a969f41d04888ff70b3e1b5a05641e8564736f6c63430008110033608060405234801561001057600080fd5b50611f57806100206000396000f3fe608060405234801561001057600080fd5b50600436106100c95760003560e01c80634b64e4921161008157806374f130701161005b57806374f1307014610176578063d70968e714610189578063e7da4c7e1461019c57600080fd5b80634b64e4921461013057806360fb55d5146101505780636df864781461016357600080fd5b806331495d33116100b257806331495d331461010a578063410dbb8b1461011d57806346bdca9a146100ce57600080fd5b8063235266d2146100ce57806330191626146100f7575b600080fd5b6100e16100dc3660046115af565b6101af565b6040516100ee91906116da565b60405180910390f35b6100e16101053660046116f4565b61025e565b6100e1610118366004611732565b610318565b6100e161012b366004611765565b6103e9565b61014361013e366004611787565b6104e9565b6040516100ee91906117a2565b6100e161015e3660046118f5565b6106e6565b6100e16101713660046119bc565b6107c2565b6100e1610184366004611765565b61089e565b6100e1610197366004611732565b61099f565b6100e16101aa366004611a7c565b610a66565b6101e36040518060a00160405280600015158152602001606081526020016060815260200160608152602001606081525090565b815160208084019190912084519185019190912014808252610228578282604051602001610212929190611ad6565b60408051601f1981840301815291905260208201525b604080820193909352606081019190915281518083019092526005825264195c5d585b60da1b6020830152608081019190915290565b6102926040518060a00160405280600015158152602001606081526020016060815260200160608152602001606081525090565b8282148082526102d5576102a583610b42565b6102ae83610b42565b6040516020016102bf929190611ad6565b60408051601f1981840301815291905260208201525b6102de83610b42565b60408201526102ec82610b42565b6060820152604080518082019091526005815264195c5d585b60da1b6020820152608082015292915050565b61034c6040518060a00160405280600015158152602001606081526020016060815260200160608152602001606081525090565b6001600160a01b038381169083168114825260009061036c906014610be2565b90506000610384846001600160a01b03166014610be2565b83519091506103b65781816040516020016103a0929190611ad6565b60408051601f1981840301815291905260208401525b604080840192909252606083015280518082019091526005815264195c5d585b60da1b6020820152608082015292915050565b61041d6040518060a00160405280600015158152602001606081526020016060815260200160608152602001606081525090565b811580825261044557604051806060016040528060238152602001611edd6023913960208201525b600182151514610472576040518060400160405280600581526020016466616c736560d81b815250610490565b604051806040016040528060048152602001637472756560e01b8152505b6040808301919091528051602080820183526000825260608401919091528151808301909252600782527f697346616c736500000000000000000000000000000000000000000000000000908201526080820152919050565b6104f16114c4565b816104fa6114c4565b6105078160200151610dea565b506040518060400160405280602081526020017f43616e206772616e74207368617265732c20726576657274203e3d20353030308152508160000181905250816001600160a01b0316634c7648096040518163ffffffff1660e01b8152600401600060405180830381600087803b15801561058157600080fd5b505af1158015610595573d6000803e3d6000fd5b505050506000806105a884611389610e66565b915091506105c36105b88261089e565b602085015190610f45565b506106066105b8836040518060400160405280600f81526020017f546f6f206d616e792073686172657300000000000000000000000000000000008152506101af565b50610613846103e8610e66565b909250905080156106ac576040805160a081018252600080825282518084018452601a81527f43616c6c20746f206772616e74536861726573206661696c656400000000000060208281019190915280840191909152835180820185528281528385015283518082018552828152606084015283518082019094529083526080820192909252908401516106a691610f45565b506106dc565b60006106b785610fb5565b925090506106d96106ce61ffff83166107d061025e565b602086015190610f45565b50505b5090949350505050565b61071a6040518060a00160405280600015158152602001606081526020016060815260200160608152602001606081525090565b8160405160200161072b9190611b57565b60405160208183030381529060405280519060200120836040516020016107529190611b57565b60408051601f198184030181529190528051602090910120148082526107ab5761077b8361102c565b6107848361102c565b604051602001610795929190611ad6565b60408051601f1981840301815291905260208201525b6107b48361102c565b60408201526102ec8261102c565b6107f66040518060a00160405280600015158152602001606081526020016060815260200160608152602001606081525090565b816040516020016108079190611bb9565b604051602081830303815290604052805190602001208360405160200161082e9190611bb9565b60408051601f198184030181529190528051602090910120148082526108875761085783611101565b61086083611101565b604051602001610871929190611ad6565b60408051601f1981840301815291905260208201525b61089083611101565b60408201526102ec82611101565b6108d26040518060a00160405280600015158152602001606081526020016060815260200160608152602001606081525090565b8115158082526108fb57604051806060016040528060228152602001611f006022913960208201525b600182151514610928576040518060400160405280600581526020016466616c736560d81b815250610946565b604051806040016040528060048152602001637472756560e01b8152505b6040808301919091528051602080820183526000825260608401919091528151808301909252600682527f6973547275650000000000000000000000000000000000000000000000000000908201526080820152919050565b6109d36040518060a00160405280600015158152602001606081526020016060815260200160608152602001606081525090565b6001600160a01b0383811690831681141582526000906109f4906014610be2565b8251909150610a245780604051602001610a0e9190611c06565b60408051601f1981840301815291905260208301525b60408083019190915280516020808201835260008252606084019190915281518083019092526005825264195c5d585b60da1b90820152608082015292915050565b610a9a6040518060a00160405280600015158152602001606081526020016060815260200160608152602001606081525090565b81604051602001610aab9190611c71565b6040516020818303038152906040528051906020012083604051602001610ad29190611c71565b60408051601f19818403018152919052805160209091012014808252610b2b57610afb836111dd565b610b04836111dd565b604051602001610b15929190611ad6565b60408051601f1981840301815291905260208201525b610b34836111dd565b60408201526102ec826111dd565b60606000610b4f836112ae565b600101905060008167ffffffffffffffff811115610b6f57610b6f6114f8565b6040519080825280601f01601f191660200182016040528015610b99576020820181803683370190505b5090508181016020015b600019017f3031323334353637383961626364656600000000000000000000000000000000600a86061a8153600a8504945084610ba357509392505050565b60606000610bf1836002611cbf565b610bfc906002611cd6565b67ffffffffffffffff811115610c1457610c146114f8565b6040519080825280601f01601f191660200182016040528015610c3e576020820181803683370190505b5090507f300000000000000000000000000000000000000000000000000000000000000081600081518110610c7557610c75611ce9565b60200101906001600160f81b031916908160001a9053507f780000000000000000000000000000000000000000000000000000000000000081600181518110610cc057610cc0611ce9565b60200101906001600160f81b031916908160001a9053506000610ce4846002611cbf565b610cef906001611cd6565b90505b6001811115610d74577f303132333435363738396162636465660000000000000000000000000000000085600f1660108110610d3057610d30611ce9565b1a60f81b828281518110610d4657610d46611ce9565b60200101906001600160f81b031916908160001a90535060049490941c93610d6d81611cff565b9050610cf2565b508315610de1576040517f08c379a000000000000000000000000000000000000000000000000000000000815260206004820181905260248201527f537472696e67733a20686578206c656e67746820696e73756666696369656e74604482015260640160405180910390fd5b90505b92915050565b60408051808201825260608152600060208201528151600480825260a082019093529091816020015b610e476040518060a00160405280600015158152602001606081526020016060815260200160608152602001606081525090565b815260200190600190039081610e135750508252506000602082015290565b6040517f52c9868900000000000000000000000000000000000000000000000000000000815261ffff821660048201526060906000906001600160a01b038516906352c9868990602401600060405180830381600087803b158015610eca57600080fd5b505af1925050508015610edb575060015b610f2b57610ee7611d16565b806308c379a003610f115750610efb611d32565b80610f065750610f13565b915060019050610f3e565b505b50506040805160208101909152600081526001610f3e565b5050604080516020810190915260008082525b9250929050565b604080518082019091526060815260006020820152825151602084015103610f7357610f7083611390565b92505b818360000151846020015181518110610f8e57610f8e611ce9565b6020026020010181905250826020018051809190610fab90611dbc565b9052509192915050565b600080826001600160a01b0316636d45e2a56040518163ffffffff1660e01b8152600401602060405180830381865afa925050508015611012575060408051601f3d908101601f1916820190925261100f91810190611dd5565b60015b6110225750600092600192509050565b9360009350915050565b6040805180820190915260018152605b60f81b602082015260609060005b83518110156110fa57600184516110619190611df9565b8110156110aa578184828151811061107b5761107b611ce9565b6020026020010151604051602001611094929190611e0c565b60405160208183030381529060405291506110e8565b818482815181106110bd576110bd611ce9565b60200260200101516040516020016110d6929190611e63565b60405160208183030381529060405291505b806110f281611dbc565b91505061104a565b5092915050565b6040805180820190915260018152605b60f81b602082015260609060005b83518110156110fa57600184516111369190611df9565b811015611192578161116b85838151811061115357611153611ce9565b60200260200101516001600160a01b03166014610be2565b60405160200161117c929190611e0c565b60405160208183030381529060405291506111cb565b816111a885838151811061115357611153611ce9565b6040516020016111b9929190611e63565b60405160208183030381529060405291505b806111d581611dbc565b91505061111f565b6040805180820190915260018152605b60f81b602082015260609060005b83518110156110fa57600184516112129190611df9565b811015611263578161123c85838151811061122f5761122f611ce9565b6020026020010151610b42565b60405160200161124d929190611e0c565b604051602081830303815290604052915061129c565b8161127985838151811061122f5761122f611ce9565b60405160200161128a929190611e63565b60405160208183030381529060405291505b806112a681611dbc565b9150506111fb565b6000807a184f03e93ff9f4daa797ed6e38ed64bf6a1f01000000000000000083106112f7577a184f03e93ff9f4daa797ed6e38ed64bf6a1f010000000000000000830492506040015b6d04ee2d6d415b85acef81000000008310611323576d04ee2d6d415b85acef8100000000830492506020015b662386f26fc10000831061134157662386f26fc10000830492506010015b6305f5e1008310611359576305f5e100830492506008015b612710831061136d57612710830492506004015b6064831061137f576064830492506002015b600a8310610de45760010192915050565b6040805180820190915260608152600060208201526040805180820190915260608152600060208201528251516002906113cb906003611cbf565b6113d59190611eba565b67ffffffffffffffff8111156113ed576113ed6114f8565b60405190808252806020026020018201604052801561145257816020015b61143f6040518060a00160405280600015158152602001606081526020016060815260200160608152602001606081525090565b81526020019060019003908161140b5790505b50815260005b8351518110156114b257835180518290811061147657611476611ce9565b60200260200101518260000151828151811061149457611494611ce9565b602002602001018190525080806114aa90611dbc565b915050611458565b50602092830151928101929092525090565b6040518060400160405280606081526020016114f3604051806040016040528060608152602001600081525090565b905290565b634e487b7160e01b600052604160045260246000fd5b601f8201601f1916810167ffffffffffffffff81118282101715611534576115346114f8565b6040525050565b600082601f83011261154c57600080fd5b813567ffffffffffffffff811115611566576115666114f8565b60405161157d601f8301601f19166020018261150e565b81815284602083860101111561159257600080fd5b816020850160208301376000918101602001919091529392505050565b600080604083850312156115c257600080fd5b823567ffffffffffffffff808211156115da57600080fd5b6115e68683870161153b565b935060208501359150808211156115fc57600080fd5b506116098582860161153b565b9150509250929050565b60005b8381101561162e578181015183820152602001611616565b50506000910152565b6000815180845261164f816020860160208601611613565b601f01601f19169290920160200192915050565b8051151582526000602082015160a0602085015261168460a0850182611637565b90506040830151848203604086015261169d8282611637565b915050606083015184820360608601526116b78282611637565b915050608083015184820360808601526116d18282611637565b95945050505050565b6020815260006116ed6020830184611663565b9392505050565b6000806040838503121561170757600080fd5b50508035926020909101359150565b80356001600160a01b038116811461172d57600080fd5b919050565b6000806040838503121561174557600080fd5b61174e83611716565b915061175c60208401611716565b90509250929050565b60006020828403121561177757600080fd5b81358015158114610de157600080fd5b60006020828403121561179957600080fd5b6116ed82611716565b6000602080835283516040828501526117be6060850182611637565b905081850151601f198583030160408601526040820181516040845281815180845260608601915060608160051b8701019350868301925060005b8181101561182757605f19878603018352611815858551611663565b945092870192918701916001016117f9565b505050509083015191909201529392505050565b600067ffffffffffffffff821115611855576118556114f8565b5060051b60200190565b600082601f83011261187057600080fd5b8135602061187d8261183b565b60405161188a828261150e565b83815260059390931b85018201928281019150868411156118aa57600080fd5b8286015b848110156118ea57803567ffffffffffffffff8111156118ce5760008081fd5b6118dc8986838b010161153b565b8452509183019183016118ae565b509695505050505050565b6000806040838503121561190857600080fd5b823567ffffffffffffffff8082111561192057600080fd5b61192c8683870161185f565b9350602085013591508082111561194257600080fd5b506116098582860161185f565b600082601f83011261196057600080fd5b8135602061196d8261183b565b60405161197a828261150e565b83815260059390931b850182019282810191508684111561199a57600080fd5b8286015b848110156118ea576119af81611716565b835291830191830161199e565b600080604083850312156119cf57600080fd5b823567ffffffffffffffff808211156119e757600080fd5b6119f38683870161194f565b93506020850135915080821115611a0957600080fd5b506116098582860161194f565b600082601f830112611a2757600080fd5b81356020611a348261183b565b604051611a41828261150e565b83815260059390931b8501820192828101915086841115611a6157600080fd5b8286015b848110156118ea5780358352918301918301611a65565b60008060408385031215611a8f57600080fd5b823567ffffffffffffffff80821115611aa757600080fd5b611ab386838701611a16565b93506020850135915080821115611ac957600080fd5b5061160985828601611a16565b7f417373657274696f6e4572726f723a2000000000000000000000000000000000815260008351611b0e816010850160208801611613565b7f206973206e6f7420657175616c20746f200000000000000000000000000000006010918401918201528351611b4b816021840160208801611613565b01602101949350505050565b6000602080830181845280855180835260408601915060408160051b870101925083870160005b82811015611bac57603f19888603018452611b9a858351611637565b94509285019290850190600101611b7e565b5092979650505050505050565b6020808252825182820181905260009190848201906040850190845b81811015611bfa5783516001600160a01b031683529284019291840191600101611bd5565b50909695505050505050565b7f417373657274696f6e4572726f723a200000000000000000000000000000000081527f20426f74682076616c7565732061726500000000000000000000000000000000601082015260008251611c64816020850160208701611613565b9190910160200192915050565b6020808252825182820181905260009190848201906040850190845b81811015611bfa57835183529284019291840191600101611c8d565b634e487b7160e01b600052601160045260246000fd5b8082028115828204841417610de457610de4611ca9565b80820180821115610de457610de4611ca9565b634e487b7160e01b600052603260045260246000fd5b600081611d0e57611d0e611ca9565b506000190190565b600060033d1115611d2f5760046000803e5060005160e01c5b90565b600060443d1015611d405790565b6040516003193d81016004833e81513d67ffffffffffffffff8160248401118184111715611d7057505050505090565b8285019150815181811115611d885750505050505090565b843d8701016020828501011115611da25750505050505090565b611db16020828601018761150e565b509095945050505050565b600060018201611dce57611dce611ca9565b5060010190565b600060208284031215611de757600080fd5b815161ffff81168114610de157600080fd5b81810381811115610de457610de4611ca9565b60008351611e1e818460208801611613565b835190830190611e32818360208801611613565b7f2c200000000000000000000000000000000000000000000000000000000000009101908152600201949350505050565b60008351611e75818460208801611613565b835190830190611e89818360208801611613565b7f5d000000000000000000000000000000000000000000000000000000000000009101908152600101949350505050565b600082611ed757634e487b7160e01b600052601260045260246000fd5b50049056fe417373657274696f6e4572726f723a20726573756c74206973206e6f742066616c7365417373657274696f6e4572726f723a20726573756c74206973206e6f742074727565a26469706673582212201984cd870058fe57a96abe890309daa975a4d2ffe150e9699dde5c08d8d3636064736f6c63430008110033",
  "devdoc": {
    "kind": "dev",
    "methods": {
      "approve(address,uint256)": {
        "details": "See {IERC721-approve}."
      },
      "balanceOf(address)": {
        "details": "See {IERC721-balanceOf}."
      },
      "getApproved(uint256)": {
        "details": "See {IERC721-getApproved}."
      },
      "isApprovedForAll(address,address)": {
        "details": "See {IERC721-isApprovedForAll}."
      },
      "name()": {
        "details": "See {IERC721Metadata-name}."
      },
      "owner()": {
        "details": "Returns the address of the current owner."
      },
      "ownerOf(uint256)": {
        "details": "See {IERC721-ownerOf}."
      },
      "renounceOwnership()": {
        "details": "Leaves the contract without owner. It will not be possible to call `onlyOwner` functions anymore. Can only be called by the current owner. NOTE: Renouncing ownership will leave the contract without an owner, thereby removing any functionality that is only available to the owner."
      },
      "safeTransferFrom(address,address,uint256)": {
        "details": "See {IERC721-safeTransferFrom}."
      },
      "safeTransferFrom(address,address,uint256,bytes)": {
        "details": "See {IERC721-safeTransferFrom}."
      },
      "setApprovalForAll(address,bool)": {
        "details": "See {IERC721-setApprovalForAll}."
      },
      "supportsInterface(bytes4)": {
        "details": "See {IERC165-supportsInterface}."
      },
      "symbol()": {
        "details": "See {IERC721Metadata-symbol}."
      },
      "transferFrom(address,address,uint256)": {
        "details": "See {IERC721-transferFrom}."
      },
      "transferOwnership(address)": {
        "details": "Transfers ownership of the contract to a new account (`newOwner`). Can only be called by the current owner."
      }
    },
    "version": 1
  },
  "userdoc": {
    "kind": "user",
    "methods": {
      "checkIfAllPassed((string,((bool,string,string,string,string)[],uint256))[])": {
        "notice": "Check each assert in each test to see if any failed. Note:  The check is here instead of setting a `passed` bool in `TestResult` to reduce the amount of code in each unit test."
      }
    },
    "version": 1
  },
  "storageLayout": {
    "storage": [
      {
        "astId": 882,
        "contract": "contracts/StorageUnitTest.sol:StorageUT",
        "label": "_name",
        "offset": 0,
        "slot": "0",
        "type": "t_string_storage"
      },
      {
        "astId": 884,
        "contract": "contracts/StorageUnitTest.sol:StorageUT",
        "label": "_symbol",
        "offset": 0,
        "slot": "1",
        "type": "t_string_storage"
      },
      {
        "astId": 888,
        "contract": "contracts/StorageUnitTest.sol:StorageUT",
        "label": "_owners",
        "offset": 0,
        "slot": "2",
        "type": "t_mapping(t_uint256,t_address)"
      },
      {
        "astId": 892,
        "contract": "contracts/StorageUnitTest.sol:StorageUT",
        "label": "_balances",
        "offset": 0,
        "slot": "3",
        "type": "t_mapping(t_address,t_uint256)"
      },
      {
        "astId": 896,
        "contract": "contracts/StorageUnitTest.sol:StorageUT",
        "label": "_tokenApprovals",
        "offset": 0,
        "slot": "4",
        "type": "t_mapping(t_uint256,t_address)"
      },
      {
        "astId": 902,
        "contract": "contracts/StorageUnitTest.sol:StorageUT",
        "label": "_operatorApprovals",
        "offset": 0,
        "slot": "5",
        "type": "t_mapping(t_address,t_mapping(t_address,t_bool))"
      },
      {
        "astId": 7,
        "contract": "contracts/StorageUnitTest.sol:StorageUT",
        "label": "_owner",
        "offset": 0,
        "slot": "6",
        "type": "t_address"
      },
      {
        "astId": 123,
        "contract": "contracts/StorageUnitTest.sol:StorageUT",
        "label": "_status",
        "offset": 0,
        "slot": "7",
        "type": "t_uint256"
      },
      {
        "astId": 6525,
        "contract": "contracts/StorageUnitTest.sol:StorageUT",
        "label": "tokenIds",
        "offset": 0,
        "slot": "8",
        "type": "t_struct(Counter)2320_storage"
      },
      {
        "astId": 6529,
        "contract": "contracts/StorageUnitTest.sol:StorageUT",
        "label": "owners",
        "offset": 0,
        "slot": "9",
        "type": "t_mapping(t_address,t_bool)"
      },
      {
        "astId": 6533,
        "contract": "contracts/StorageUnitTest.sol:StorageUT",
        "label": "submittedContracts",
        "offset": 0,
        "slot": "10",
        "type": "t_mapping(t_address,t_bool)"
      },
      {
        "astId": 6536,
        "contract": "contracts/StorageUnitTest.sol:StorageUT",
        "label": "active",
        "offset": 0,
        "slot": "11",
        "type": "t_bool"
      },
      {
        "astId": 6539,
        "contract": "contracts/StorageUnitTest.sol:StorageUT",
        "label": "AllTokenURI",
        "offset": 0,
        "slot": "12",
        "type": "t_string_storage"
      },
      {
        "astId": 6559,
        "contract": "contracts/StorageUnitTest.sol:StorageUT",
        "label": "tests",
        "offset": 0,
        "slot": "13",
        "type": "t_array(t_contract(ITest)6495)dyn_storage"
      },
      {
        "astId": 6563,
        "contract": "contracts/StorageUnitTest.sol:StorageUT",
        "label": "deployer",
        "offset": 0,
        "slot": "14",
        "type": "t_contract(IDeploy)6506"
      }
    ],
    "types": {
      "t_address": {
        "encoding": "inplace",
        "label": "address",
        "numberOfBytes": "20"
      },
      "t_array(t_contract(ITest)6495)dyn_storage": {
        "base": "t_contract(ITest)6495",
        "encoding": "dynamic_array",
        "label": "contract ITest[]",
        "numberOfBytes": "32"
      },
      "t_bool": {
        "encoding": "inplace",
        "label": "bool",
        "numberOfBytes": "1"
      },
      "t_contract(IDeploy)6506": {
        "encoding": "inplace",
        "label": "contract IDeploy",
        "numberOfBytes": "20"
      },
      "t_contract(ITest)6495": {
        "encoding": "inplace",
        "label": "contract ITest",
        "numberOfBytes": "20"
      },
      "t_mapping(t_address,t_bool)": {
        "encoding": "mapping",
        "key": "t_address",
        "label": "mapping(address => bool)",
        "numberOfBytes": "32",
        "value": "t_bool"
      },
      "t_mapping(t_address,t_mapping(t_address,t_bool))": {
        "encoding": "mapping",
        "key": "t_address",
        "label": "mapping(address => mapping(address => bool))",
        "numberOfBytes": "32",
        "value": "t_mapping(t_address,t_bool)"
      },
      "t_mapping(t_address,t_uint256)": {
        "encoding": "mapping",
        "key": "t_address",
        "label": "mapping(address => uint256)",
        "numberOfBytes": "32",
        "value": "t_uint256"
      },
      "t_mapping(t_uint256,t_address)": {
        "encoding": "mapping",
        "key": "t_uint256",
        "label": "mapping(uint256 => address)",
        "numberOfBytes": "32",
        "value": "t_address"
      },
      "t_string_storage": {
        "encoding": "bytes",
        "label": "string",
        "numberOfBytes": "32"
      },
      "t_struct(Counter)2320_storage": {
        "encoding": "inplace",
        "label": "struct Counters.Counter",
        "members": [
          {
            "astId": 2319,
            "contract": "contracts/StorageUnitTest.sol:StorageUT",
            "label": "_value",
            "offset": 0,
            "slot": "0",
            "type": "t_uint256"
          }
        ],
        "numberOfBytes": "32"
      },
      "t_uint256": {
        "encoding": "inplace",
        "label": "uint256",
        "numberOfBytes": "32"
      }
    }
  }
}