{
  "address": "0x889AC78027Be87ccf795eb79201B6E246e907384",
  "abi": [
    {
      "inputs": [
        {
          "internalType": "address",
          "name": "_secondCallerAddress",
          "type": "address"
        }
      ],
      "stateMutability": "nonpayable",
      "type": "constructor"
    },
    {
      "inputs": [],
      "name": "NotActive",
      "type": "error"
    },
    {
      "inputs": [],
      "name": "SoulboundToken",
      "type": "error"
    },
    {
      "anonymous": false,
      "inputs": [
        {
          "indexed": true,
          "internalType": "address",
          "name": "owner",
          "type": "address"
        },
        {
          "indexed": true,
          "internalType": "address",
          "name": "approved",
          "type": "address"
        },
        {
          "indexed": true,
          "internalType": "uint256",
          "name": "tokenId",
          "type": "uint256"
        }
      ],
      "name": "Approval",
      "type": "event"
    },
    {
      "anonymous": false,
      "inputs": [
        {
          "indexed": true,
          "internalType": "address",
          "name": "owner",
          "type": "address"
        },
        {
          "indexed": true,
          "internalType": "address",
          "name": "operator",
          "type": "address"
        },
        {
          "indexed": false,
          "internalType": "bool",
          "name": "approved",
          "type": "bool"
        }
      ],
      "name": "ApprovalForAll",
      "type": "event"
    },
    {
      "anonymous": false,
      "inputs": [
        {
          "indexed": true,
          "internalType": "address",
          "name": "previousOwner",
          "type": "address"
        },
        {
          "indexed": true,
          "internalType": "address",
          "name": "newOwner",
          "type": "address"
        }
      ],
      "name": "OwnershipTransferred",
      "type": "event"
    },
    {
      "anonymous": false,
      "inputs": [
        {
          "indexed": false,
          "internalType": "address",
          "name": "submission",
          "type": "address"
        },
        {
          "indexed": false,
          "internalType": "bool",
          "name": "passed",
          "type": "bool"
        },
        {
          "components": [
            {
              "internalType": "string",
              "name": "message",
              "type": "string"
            },
            {
              "components": [
                {
                  "components": [
                    {
                      "internalType": "bool",
                      "name": "passed",
                      "type": "bool"
                    },
                    {
                      "internalType": "string",
                      "name": "assertionError",
                      "type": "string"
                    },
                    {
                      "internalType": "string",
                      "name": "returnedAsString",
                      "type": "string"
                    },
                    {
                      "internalType": "string",
                      "name": "expectedAsString",
                      "type": "string"
                    },
                    {
                      "internalType": "string",
                      "name": "methodName",
                      "type": "string"
                    }
                  ],
                  "internalType": "struct Assert.AssertResult[]",
                  "name": "elements",
                  "type": "tuple[]"
                },
                {
                  "internalType": "uint256",
                  "name": "num",
                  "type": "uint256"
                }
              ],
              "internalType": "struct List.ARList",
              "name": "assertResults",
              "type": "tuple"
            }
          ],
          "indexed": false,
          "internalType": "struct Cafe.TestResult[]",
          "name": "testResults",
          "type": "tuple[]"
        }
      ],
      "name": "TestSuiteResult",
      "type": "event"
    },
    {
      "anonymous": false,
      "inputs": [
        {
          "indexed": true,
          "internalType": "address",
          "name": "from",
          "type": "address"
        },
        {
          "indexed": true,
          "internalType": "address",
          "name": "to",
          "type": "address"
        },
        {
          "indexed": true,
          "internalType": "uint256",
          "name": "tokenId",
          "type": "uint256"
        }
      ],
      "name": "Transfer",
      "type": "event"
    },
    {
      "inputs": [
        {
          "internalType": "address",
          "name": "to",
          "type": "address"
        },
        {
          "internalType": "uint256",
          "name": "tokenId",
          "type": "uint256"
        }
      ],
      "name": "approve",
      "outputs": [],
      "stateMutability": "nonpayable",
      "type": "function"
    },
    {
      "inputs": [
        {
          "internalType": "address",
          "name": "owner",
          "type": "address"
        }
      ],
      "name": "balanceOf",
      "outputs": [
        {
          "internalType": "uint256",
          "name": "",
          "type": "uint256"
        }
      ],
      "stateMutability": "view",
      "type": "function"
    },
    {
      "inputs": [
        {
          "components": [
            {
              "internalType": "string",
              "name": "message",
              "type": "string"
            },
            {
              "components": [
                {
                  "components": [
                    {
                      "internalType": "bool",
                      "name": "passed",
                      "type": "bool"
                    },
                    {
                      "internalType": "string",
                      "name": "assertionError",
                      "type": "string"
                    },
                    {
                      "internalType": "string",
                      "name": "returnedAsString",
                      "type": "string"
                    },
                    {
                      "internalType": "string",
                      "name": "expectedAsString",
                      "type": "string"
                    },
                    {
                      "internalType": "string",
                      "name": "methodName",
                      "type": "string"
                    }
                  ],
                  "internalType": "struct Assert.AssertResult[]",
                  "name": "elements",
                  "type": "tuple[]"
                },
                {
                  "internalType": "uint256",
                  "name": "num",
                  "type": "uint256"
                }
              ],
              "internalType": "struct List.ARList",
              "name": "assertResults",
              "type": "tuple"
            }
          ],
          "internalType": "struct Cafe.TestResult[]",
          "name": "_testResults",
          "type": "tuple[]"
        }
      ],
      "name": "checkIfAllPassed",
      "outputs": [
        {
          "internalType": "bool",
          "name": "",
          "type": "bool"
        }
      ],
      "stateMutability": "pure",
      "type": "function"
    },
    {
      "inputs": [
        {
          "internalType": "bytes",
          "name": "a",
          "type": "bytes"
        },
        {
          "internalType": "bytes",
          "name": "b",
          "type": "bytes"
        }
      ],
      "name": "equal",
      "outputs": [
        {
          "components": [
            {
              "internalType": "bool",
              "name": "passed",
              "type": "bool"
            },
            {
              "internalType": "string",
              "name": "assertionError",
              "type": "string"
            },
            {
              "internalType": "string",
              "name": "returnedAsString",
              "type": "string"
            },
            {
              "internalType": "string",
              "name": "expectedAsString",
              "type": "string"
            },
            {
              "internalType": "string",
              "name": "methodName",
              "type": "string"
            }
          ],
          "internalType": "struct Assert.AssertResult",
          "name": "result",
          "type": "tuple"
        }
      ],
      "stateMutability": "pure",
      "type": "function"
    },
    {
      "inputs": [
        {
          "internalType": "uint256",
          "name": "a",
          "type": "uint256"
        },
        {
          "internalType": "uint256",
          "name": "b",
          "type": "uint256"
        }
      ],
      "name": "equal",
      "outputs": [
        {
          "components": [
            {
              "internalType": "bool",
              "name": "passed",
              "type": "bool"
            },
            {
              "internalType": "string",
              "name": "assertionError",
              "type": "string"
            },
            {
              "internalType": "string",
              "name": "returnedAsString",
              "type": "string"
            },
            {
              "internalType": "string",
              "name": "expectedAsString",
              "type": "string"
            },
            {
              "internalType": "string",
              "name": "methodName",
              "type": "string"
            }
          ],
          "internalType": "struct Assert.AssertResult",
          "name": "result",
          "type": "tuple"
        }
      ],
      "stateMutability": "pure",
      "type": "function"
    },
    {
      "inputs": [
        {
          "internalType": "address",
          "name": "a",
          "type": "address"
        },
        {
          "internalType": "address",
          "name": "b",
          "type": "address"
        }
      ],
      "name": "equal",
      "outputs": [
        {
          "components": [
            {
              "internalType": "bool",
              "name": "passed",
              "type": "bool"
            },
            {
              "internalType": "string",
              "name": "assertionError",
              "type": "string"
            },
            {
              "internalType": "string",
              "name": "returnedAsString",
              "type": "string"
            },
            {
              "internalType": "string",
              "name": "expectedAsString",
              "type": "string"
            },
            {
              "internalType": "string",
              "name": "methodName",
              "type": "string"
            }
          ],
          "internalType": "struct Assert.AssertResult",
          "name": "result",
          "type": "tuple"
        }
      ],
      "stateMutability": "pure",
      "type": "function"
    },
    {
      "inputs": [
        {
          "internalType": "string",
          "name": "a",
          "type": "string"
        },
        {
          "internalType": "string",
          "name": "b",
          "type": "string"
        }
      ],
      "name": "equal",
      "outputs": [
        {
          "components": [
            {
              "internalType": "bool",
              "name": "passed",
              "type": "bool"
            },
            {
              "internalType": "string",
              "name": "assertionError",
              "type": "string"
            },
            {
              "internalType": "string",
              "name": "returnedAsString",
              "type": "string"
            },
            {
              "internalType": "string",
              "name": "expectedAsString",
              "type": "string"
            },
            {
              "internalType": "string",
              "name": "methodName",
              "type": "string"
            }
          ],
          "internalType": "struct Assert.AssertResult",
          "name": "result",
          "type": "tuple"
        }
      ],
      "stateMutability": "pure",
      "type": "function"
    },
    {
      "inputs": [
        {
          "internalType": "string[]",
          "name": "a",
          "type": "string[]"
        },
        {
          "internalType": "string[]",
          "name": "b",
          "type": "string[]"
        }
      ],
      "name": "equal",
      "outputs": [
        {
          "components": [
            {
              "internalType": "bool",
              "name": "passed",
              "type": "bool"
            },
            {
              "internalType": "string",
              "name": "assertionError",
              "type": "string"
            },
            {
              "internalType": "string",
              "name": "returnedAsString",
              "type": "string"
            },
            {
              "internalType": "string",
              "name": "expectedAsString",
              "type": "string"
            },
            {
              "internalType": "string",
              "name": "methodName",
              "type": "string"
            }
          ],
          "internalType": "struct Assert.AssertResult",
          "name": "result",
          "type": "tuple"
        }
      ],
      "stateMutability": "pure",
      "type": "function"
    },
    {
      "inputs": [
        {
          "internalType": "address[]",
          "name": "a",
          "type": "address[]"
        },
        {
          "internalType": "address[]",
          "name": "b",
          "type": "address[]"
        }
      ],
      "name": "equal",
      "outputs": [
        {
          "components": [
            {
              "internalType": "bool",
              "name": "passed",
              "type": "bool"
            },
            {
              "internalType": "string",
              "name": "assertionError",
              "type": "string"
            },
            {
              "internalType": "string",
              "name": "returnedAsString",
              "type": "string"
            },
            {
              "internalType": "string",
              "name": "expectedAsString",
              "type": "string"
            },
            {
              "internalType": "string",
              "name": "methodName",
              "type": "string"
            }
          ],
          "internalType": "struct Assert.AssertResult",
          "name": "result",
          "type": "tuple"
        }
      ],
      "stateMutability": "pure",
      "type": "function"
    },
    {
      "inputs": [
        {
          "internalType": "uint256[]",
          "name": "a",
          "type": "uint256[]"
        },
        {
          "internalType": "uint256[]",
          "name": "b",
          "type": "uint256[]"
        }
      ],
      "name": "equal",
      "outputs": [
        {
          "components": [
            {
              "internalType": "bool",
              "name": "passed",
              "type": "bool"
            },
            {
              "internalType": "string",
              "name": "assertionError",
              "type": "string"
            },
            {
              "internalType": "string",
              "name": "returnedAsString",
              "type": "string"
            },
            {
              "internalType": "string",
              "name": "expectedAsString",
              "type": "string"
            },
            {
              "internalType": "string",
              "name": "methodName",
              "type": "string"
            }
          ],
          "internalType": "struct Assert.AssertResult",
          "name": "result",
          "type": "tuple"
        }
      ],
      "stateMutability": "pure",
      "type": "function"
    },
    {
      "inputs": [
        {
          "internalType": "uint256",
          "name": "tokenId",
          "type": "uint256"
        }
      ],
      "name": "getApproved",
      "outputs": [
        {
          "internalType": "address",
          "name": "",
          "type": "address"
        }
      ],
      "stateMutability": "view",
      "type": "function"
    },
    {
      "inputs": [
        {
          "internalType": "address",
          "name": "owner",
          "type": "address"
        },
        {
          "internalType": "address",
          "name": "operator",
          "type": "address"
        }
      ],
      "name": "isApprovedForAll",
      "outputs": [
        {
          "internalType": "bool",
          "name": "",
          "type": "bool"
        }
      ],
      "stateMutability": "view",
      "type": "function"
    },
    {
      "inputs": [
        {
          "internalType": "bool",
          "name": "a",
          "type": "bool"
        }
      ],
      "name": "isFalse",
      "outputs": [
        {
          "components": [
            {
              "internalType": "bool",
              "name": "passed",
              "type": "bool"
            },
            {
              "internalType": "string",
              "name": "assertionError",
              "type": "string"
            },
            {
              "internalType": "string",
              "name": "returnedAsString",
              "type": "string"
            },
            {
              "internalType": "string",
              "name": "expectedAsString",
              "type": "string"
            },
            {
              "internalType": "string",
              "name": "methodName",
              "type": "string"
            }
          ],
          "internalType": "struct Assert.AssertResult",
          "name": "result",
          "type": "tuple"
        }
      ],
      "stateMutability": "pure",
      "type": "function"
    },
    {
      "inputs": [
        {
          "internalType": "bool",
          "name": "a",
          "type": "bool"
        }
      ],
      "name": "isTrue",
      "outputs": [
        {
          "components": [
            {
              "internalType": "bool",
              "name": "passed",
              "type": "bool"
            },
            {
              "internalType": "string",
              "name": "assertionError",
              "type": "string"
            },
            {
              "internalType": "string",
              "name": "returnedAsString",
              "type": "string"
            },
            {
              "internalType": "string",
              "name": "expectedAsString",
              "type": "string"
            },
            {
              "internalType": "string",
              "name": "methodName",
              "type": "string"
            }
          ],
          "internalType": "struct Assert.AssertResult",
          "name": "result",
          "type": "tuple"
        }
      ],
      "stateMutability": "pure",
      "type": "function"
    },
    {
      "inputs": [],
      "name": "name",
      "outputs": [
        {
          "internalType": "string",
          "name": "",
          "type": "string"
        }
      ],
      "stateMutability": "view",
      "type": "function"
    },
    {
      "inputs": [
        {
          "internalType": "address",
          "name": "a",
          "type": "address"
        },
        {
          "internalType": "address",
          "name": "b",
          "type": "address"
        }
      ],
      "name": "notEqual",
      "outputs": [
        {
          "components": [
            {
              "internalType": "bool",
              "name": "passed",
              "type": "bool"
            },
            {
              "internalType": "string",
              "name": "assertionError",
              "type": "string"
            },
            {
              "internalType": "string",
              "name": "returnedAsString",
              "type": "string"
            },
            {
              "internalType": "string",
              "name": "expectedAsString",
              "type": "string"
            },
            {
              "internalType": "string",
              "name": "methodName",
              "type": "string"
            }
          ],
          "internalType": "struct Assert.AssertResult",
          "name": "result",
          "type": "tuple"
        }
      ],
      "stateMutability": "pure",
      "type": "function"
    },
    {
      "inputs": [],
      "name": "owner",
      "outputs": [
        {
          "internalType": "address",
          "name": "",
          "type": "address"
        }
      ],
      "stateMutability": "view",
      "type": "function"
    },
    {
      "inputs": [
        {
          "internalType": "uint256",
          "name": "tokenId",
          "type": "uint256"
        }
      ],
      "name": "ownerOf",
      "outputs": [
        {
          "internalType": "address",
          "name": "",
          "type": "address"
        }
      ],
      "stateMutability": "view",
      "type": "function"
    },
    {
      "inputs": [
        {
          "internalType": "address",
          "name": "",
          "type": "address"
        }
      ],
      "name": "owners",
      "outputs": [
        {
          "internalType": "bool",
          "name": "",
          "type": "bool"
        }
      ],
      "stateMutability": "view",
      "type": "function"
    },
    {
      "inputs": [],
      "name": "renounceOwnership",
      "outputs": [],
      "stateMutability": "nonpayable",
      "type": "function"
    },
    {
      "inputs": [
        {
          "internalType": "address",
          "name": "from",
          "type": "address"
        },
        {
          "internalType": "address",
          "name": "to",
          "type": "address"
        },
        {
          "internalType": "uint256",
          "name": "tokenId",
          "type": "uint256"
        }
      ],
      "name": "safeTransferFrom",
      "outputs": [],
      "stateMutability": "nonpayable",
      "type": "function"
    },
    {
      "inputs": [
        {
          "internalType": "address",
          "name": "from",
          "type": "address"
        },
        {
          "internalType": "address",
          "name": "to",
          "type": "address"
        },
        {
          "internalType": "uint256",
          "name": "tokenId",
          "type": "uint256"
        },
        {
          "internalType": "bytes",
          "name": "data",
          "type": "bytes"
        }
      ],
      "name": "safeTransferFrom",
      "outputs": [],
      "stateMutability": "nonpayable",
      "type": "function"
    },
    {
      "inputs": [
        {
          "internalType": "bool",
          "name": "_setActiveTo",
          "type": "bool"
        }
      ],
      "name": "setActive",
      "outputs": [],
      "stateMutability": "nonpayable",
      "type": "function"
    },
    {
      "inputs": [
        {
          "internalType": "address",
          "name": "operator",
          "type": "address"
        },
        {
          "internalType": "bool",
          "name": "approved",
          "type": "bool"
        }
      ],
      "name": "setApprovalForAll",
      "outputs": [],
      "stateMutability": "nonpayable",
      "type": "function"
    },
    {
      "inputs": [
        {
          "internalType": "string",
          "name": "_tokenURI",
          "type": "string"
        }
      ],
      "name": "setTokenURI",
      "outputs": [],
      "stateMutability": "nonpayable",
      "type": "function"
    },
    {
      "inputs": [
        {
          "internalType": "bytes4",
          "name": "interfaceId",
          "type": "bytes4"
        }
      ],
      "name": "supportsInterface",
      "outputs": [
        {
          "internalType": "bool",
          "name": "",
          "type": "bool"
        }
      ],
      "stateMutability": "view",
      "type": "function"
    },
    {
      "inputs": [],
      "name": "symbol",
      "outputs": [
        {
          "internalType": "string",
          "name": "",
          "type": "string"
        }
      ],
      "stateMutability": "view",
      "type": "function"
    },
    {
      "inputs": [
        {
          "internalType": "address",
          "name": "_submissionAddress",
          "type": "address"
        }
      ],
      "name": "testContract",
      "outputs": [],
      "stateMutability": "nonpayable",
      "type": "function"
    },
    {
      "inputs": [
        {
          "internalType": "uint256",
          "name": "",
          "type": "uint256"
        }
      ],
      "name": "tokenURI",
      "outputs": [
        {
          "internalType": "string",
          "name": "",
          "type": "string"
        }
      ],
      "stateMutability": "view",
      "type": "function"
    },
    {
      "inputs": [
        {
          "internalType": "address",
          "name": "from",
          "type": "address"
        },
        {
          "internalType": "address",
          "name": "to",
          "type": "address"
        },
        {
          "internalType": "uint256",
          "name": "tokenId",
          "type": "uint256"
        }
      ],
      "name": "transferFrom",
      "outputs": [],
      "stateMutability": "nonpayable",
      "type": "function"
    },
    {
      "inputs": [
        {
          "internalType": "address",
          "name": "newOwner",
          "type": "address"
        }
      ],
      "name": "transferOwnership",
      "outputs": [],
      "stateMutability": "nonpayable",
      "type": "function"
    }
  ],
  "transactionHash": "0xc9cb50ce07f2b9e903418c5a2b7d8767cd3f41a3b2aaeae40f9fda84b812aa3e",
  "args": [
    "0xdB9189b5Ed58d645F9CAd4E32194C7191d89dAC5"
  ],
  "numDeployments": 2,
  "solcInputHash": "cce5e99710aedb2b7694c5fe3ee6e1a0",
  "bytecode": "0x600b805460ff1916600117905560a060405260006080908152600c90620000279082620002ce565b503480156200003557600080fd5b50604051620083f2380380620083f283398101604081905262000058916200039a565b6040518060400160405280600c81526020016b26b0b83834b733b9902834b760a11b815250604051806040016040528060048152602001635343444d60e01b8152508160009081620000ab9190620002ce565b506001620000ba8282620002ce565b505050620000d7620000d1620001b760201b60201c565b620001bb565b6001600755604051600d90620000ed906200020d565b604051809103906000f0801580156200010a573d6000803e3d6000fd5b5081546001810183556000928352602090922090910180546001600160a01b0319166001600160a01b03909216919091179055604051600d90829062000150906200021b565b6001600160a01b039091168152602001604051809103906000f0801580156200017d573d6000803e3d6000fd5b5081546001810183556000928352602090922090910180546001600160a01b0319166001600160a01b0390921691909117905550620003cc565b3390565b600680546001600160a01b038381166001600160a01b0319831681179093556040519116919082907f8be0079c531659141344cd1fd0a4f28419497f9722a3daafe3b4186f6b6457e090600090a35050565b61204f8062003d8483390190565b61261f8062005dd383390190565b634e487b7160e01b600052604160045260246000fd5b600181811c908216806200025457607f821691505b6020821081036200027557634e487b7160e01b600052602260045260246000fd5b50919050565b601f821115620002c957600081815260208120601f850160051c81016020861015620002a45750805b601f850160051c820191505b81811015620002c557828155600101620002b0565b5050505b505050565b81516001600160401b03811115620002ea57620002ea62000229565b6200030281620002fb84546200023f565b846200027b565b602080601f8311600181146200033a5760008415620003215750858301515b600019600386901b1c1916600185901b178555620002c5565b600085815260208120601f198616915b828110156200036b578886015182559484019460019091019084016200034a565b50858210156200038a5787850151600019600388901b60f8161c191681555b5050505050600190811b01905550565b600060208284031215620003ad57600080fd5b81516001600160a01b0381168114620003c557600080fd5b9392505050565b6139a880620003dc6000396000f3fe608060405234801561001057600080fd5b50600436106101e55760003560e01c80636df864781161010f578063b88d4fde116100a2578063e7da4c7e11610071578063e7da4c7e1461041c578063e985e9c51461042f578063f2fde38b1461046b578063fa084b9b1461047e57600080fd5b8063b88d4fde146103d0578063c87b56dd146103e3578063d70968e7146103f6578063e0df5b6f1461040957600080fd5b80638da5cb5b116100de5780638da5cb5b1461039157806395d89b41146103a2578063a22cb465146103aa578063acec338a146103bd57600080fd5b80636df864781461034257806370a0823114610355578063715018a61461037657806374f130701461037e57600080fd5b806323b872dd1161018757806342842e0e1161015657806342842e0e1461030957806346bdca9a1461029d57806360fb55d51461031c5780636352211e1461032f57600080fd5b806323b872dd146102bd57806330191626146102d057806331495d33146102e3578063410dbb8b146102f657600080fd5b806306fdde03116101c357806306fdde031461024a578063081812fc1461025f578063095ea7b31461028a578063235266d21461029d57600080fd5b806301ffc9a7146101ea578063022914a71461021257806306d82f2914610235575b600080fd5b6101fd6101f83660046126ad565b610491565b60405190151581526020015b60405180910390f35b6101fd6102203660046126df565b60096020526000908152604090205460ff1681565b6102486102433660046126df565b61052e565b005b6102526107f1565b604051610209919061274c565b61027261026d36600461275f565b610883565b6040516001600160a01b039091168152602001610209565b610248610298366004612778565b6108aa565b6102b06102ab3660046128b5565b6109fe565b6040516102099190612990565b6102486102cb3660046129a3565b610aad565b6102b06102de3660046129e4565b610b24565b6102b06102f1366004612a06565b610bde565b6102b0610304366004612a5d565b610caf565b6102486103173660046129a3565b610daf565b6102b061032a366004612b29565b610dca565b61027261033d36600461275f565b610ea6565b6102b0610350366004612be7565b610f0b565b6103686103633660046126df565b610fe7565b604051908152602001610209565b610248611081565b6102b061038c366004612a5d565b611095565b6006546001600160a01b0316610272565b610252611196565b6102486103b8366004612c41565b6111a5565b6102486103cb366004612a5d565b6111b4565b6102486103de366004612c6f565b6111cf565b6102526103f136600461275f565b611247565b6102b0610404366004612a06565b6112db565b610248610417366004612cdb565b6113a2565b6102b061042a366004612d6b565b6113b6565b6101fd61043d366004612a06565b6001600160a01b03918216600090815260056020908152604080832093909416825291909152205460ff1690565b6102486104793660046126df565b611492565b6101fd61048c366004612dc5565b611522565b60006001600160e01b031982167f80ac58cd0000000000000000000000000000000000000000000000000000000014806104f457506001600160e01b031982167f5b5e139f00000000000000000000000000000000000000000000000000000000145b8061052857507f01ffc9a7000000000000000000000000000000000000000000000000000000006001600160e01b03198316145b92915050565b600b5460ff1661056a576040517f80cb55e200000000000000000000000000000000000000000000000000000000815260040160405180910390fd5b600e5460609060009083906001600160a01b0316156106a657600d54610591906001613102565b67ffffffffffffffff8111156105a9576105a96127a4565b6040519080825280602002602001820160405280156105e257816020015b6105cf612663565b8152602001906001900390816105c75790505b509250816105ef81613115565b600e546040517f4c96a3890000000000000000000000000000000000000000000000000000000081526001600160a01b03888116600483015292955091169150634c96a389906024016000604051808303816000875af1158015610657573d6000803e3d6000fd5b505050506040513d6000823e601f3d908101601f1916820160405261067f9190810190613345565b846000815181106106925761069261338c565b6020026020010181935082905250506106fe565b600d5467ffffffffffffffff8111156106c1576106c16127a4565b6040519080825280602002602001820160405280156106fa57816020015b6106e7612663565b8152602001906001900390816106df5790505b5092505b600d548210156107e157600d828154811061071b5761071b61338c565b6000918252602090912001546040517f4b64e4920000000000000000000000000000000000000000000000000000000081526001600160a01b03838116600483015290911690634b64e492906024016000604051808303816000875af1158015610789573d6000803e3d6000fd5b505050506040513d6000823e601f3d908101601f191682016040526107b191908101906133a2565b8383815181106107c3576107c361338c565b602002602001018190525081806107d990613115565b9250506106fe565b6107eb84846115d6565b50505050565b606060008054610800906133d7565b80601f016020809104026020016040519081016040528092919081815260200182805461082c906133d7565b80156108795780601f1061084e57610100808354040283529160200191610879565b820191906000526020600020905b81548152906001019060200180831161085c57829003601f168201915b5050505050905090565b600061088e826116dd565b506000908152600460205260409020546001600160a01b031690565b60006108b582610ea6565b9050806001600160a01b0316836001600160a01b0316036109435760405162461bcd60e51b815260206004820152602160248201527f4552433732313a20617070726f76616c20746f2063757272656e74206f776e6560448201527f720000000000000000000000000000000000000000000000000000000000000060648201526084015b60405180910390fd5b336001600160a01b038216148061097d57506001600160a01b038116600090815260056020908152604080832033845290915290205460ff165b6109ef5760405162461bcd60e51b815260206004820152603d60248201527f4552433732313a20617070726f76652063616c6c6572206973206e6f7420746f60448201527f6b656e206f776e6572206f7220617070726f76656420666f7220616c6c000000606482015260840161093a565b6109f98383611741565b505050565b610a326040518060a00160405280600015158152602001606081526020016060815260200160608152602001606081525090565b815160208084019190912084519185019190912014808252610a77578282604051602001610a61929190613411565b60408051601f1981840301815291905260208201525b604080820193909352606081019190915281518083019092526005825264195c5d585b60da1b6020830152608081019190915290565b610ab733826117bc565b610b195760405162461bcd60e51b815260206004820152602d60248201527f4552433732313a2063616c6c6572206973206e6f7420746f6b656e206f776e6560448201526c1c881bdc88185c1c1c9bdd9959609a1b606482015260840161093a565b6109f983838361183b565b610b586040518060a00160405280600015158152602001606081526020016060815260200160608152602001606081525090565b828214808252610b9b57610b6b83611a4e565b610b7483611a4e565b604051602001610b85929190613411565b60408051601f1981840301815291905260208201525b610ba483611a4e565b6040820152610bb282611a4e565b6060820152604080518082019091526005815264195c5d585b60da1b6020820152608082015292915050565b610c126040518060a00160405280600015158152602001606081526020016060815260200160608152602001606081525090565b6001600160a01b0383811690831681148252600090610c32906014611aee565b90506000610c4a846001600160a01b03166014611aee565b8351909150610c7c578181604051602001610c66929190613411565b60408051601f1981840301815291905260208401525b604080840192909252606083015280518082019091526005815264195c5d585b60da1b6020820152608082015292915050565b610ce36040518060a00160405280600015158152602001606081526020016060815260200160608152602001606081525090565b8115808252610d0b5760405180606001604052806023815260200161392e6023913960208201525b600182151514610d38576040518060400160405280600581526020016466616c736560d81b815250610d56565b604051806040016040528060048152602001637472756560e01b8152505b6040808301919091528051602080820183526000825260608401919091528151808301909252600782527f697346616c736500000000000000000000000000000000000000000000000000908201526080820152919050565b6109f9838383604051806020016040528060008152506111cf565b610dfe6040518060a00160405280600015158152602001606081526020016060815260200160608152602001606081525090565b81604051602001610e0f9190613492565b6040516020818303038152906040528051906020012083604051602001610e369190613492565b60408051601f19818403018152919052805160209091012014808252610e8f57610e5f83611cd6565b610e6883611cd6565b604051602001610e79929190613411565b60408051601f1981840301815291905260208201525b610e9883611cd6565b6040820152610bb282611cd6565b6000818152600260205260408120546001600160a01b0316806105285760405162461bcd60e51b815260206004820152601860248201527f4552433732313a20696e76616c696420746f6b656e2049440000000000000000604482015260640161093a565b610f3f6040518060a00160405280600015158152602001606081526020016060815260200160608152602001606081525090565b81604051602001610f5091906134f4565b6040516020818303038152906040528051906020012083604051602001610f7791906134f4565b60408051601f19818403018152919052805160209091012014808252610fd057610fa083611dab565b610fa983611dab565b604051602001610fba929190613411565b60408051601f1981840301815291905260208201525b610fd983611dab565b6040820152610bb282611dab565b60006001600160a01b0382166110655760405162461bcd60e51b815260206004820152602960248201527f4552433732313a2061646472657373207a65726f206973206e6f74206120766160448201527f6c6964206f776e65720000000000000000000000000000000000000000000000606482015260840161093a565b506001600160a01b031660009081526003602052604090205490565b611089611e87565b6110936000611ee1565b565b6110c96040518060a00160405280600015158152602001606081526020016060815260200160608152602001606081525090565b8115158082526110f2576040518060600160405280602281526020016139516022913960208201525b60018215151461111f576040518060400160405280600581526020016466616c736560d81b81525061113d565b604051806040016040528060048152602001637472756560e01b8152505b6040808301919091528051602080820183526000825260608401919091528151808301909252600682527f6973547275650000000000000000000000000000000000000000000000000000908201526080820152919050565b606060018054610800906133d7565b6111b0338383611f40565b5050565b6111bc611e87565b600b805460ff1916911515919091179055565b6111d933836117bc565b61123b5760405162461bcd60e51b815260206004820152602d60248201527f4552433732313a2063616c6c6572206973206e6f7420746f6b656e206f776e6560448201526c1c881bdc88185c1c1c9bdd9959609a1b606482015260840161093a565b6107eb8484848461200e565b6060600c8054611256906133d7565b80601f0160208091040260200160405190810160405280929190818152602001828054611282906133d7565b80156112cf5780601f106112a4576101008083540402835291602001916112cf565b820191906000526020600020905b8154815290600101906020018083116112b257829003601f168201915b50505050509050919050565b61130f6040518060a00160405280600015158152602001606081526020016060815260200160608152602001606081525090565b6001600160a01b038381169083168114158252600090611330906014611aee565b8251909150611360578060405160200161134a9190613541565b60408051601f1981840301815291905260208301525b60408083019190915280516020808201835260008252606084019190915281518083019092526005825264195c5d585b60da1b90820152608082015292915050565b6113aa611e87565b600c6111b082826135fa565b6113ea6040518060a00160405280600015158152602001606081526020016060815260200160608152602001606081525090565b816040516020016113fb91906136ba565b604051602081830303815290604052805190602001208360405160200161142291906136ba565b60408051601f1981840301815291905280516020909101201480825261147b5761144b8361208c565b6114548361208c565b604051602001611465929190613411565b60408051601f1981840301815291905260208201525b6114848361208c565b6040820152610bb28261208c565b61149a611e87565b6001600160a01b0381166115165760405162461bcd60e51b815260206004820152602660248201527f4f776e61626c653a206e6577206f776e657220697320746865207a65726f206160448201527f6464726573730000000000000000000000000000000000000000000000000000606482015260840161093a565b61151f81611ee1565b50565b6000805b82518110156115cd5760005b8382815181106115445761154461338c565b602002602001015160200151602001518110156115ba5783828151811061156d5761156d61338c565b60200260200101516020015160000151818151811061158e5761158e61338c565b6020026020010151600001516115a8575060009392505050565b806115b281613115565b915050611532565b50806115c581613115565b915050611526565b50600192915050565b6115de61215d565b60006115e982611522565b90507f53d51c5f8eaf1bdbf1288871cbf97a9295da23a9868b15b526b4256ede348db983828460405161161e939291906136f2565b60405180910390a16001600160a01b0383166000908152600a602052604090205460ff1615801561165f57503360009081526009602052604090205460ff16155b80156116685750805b156116af5761167b600880546001019055565b600061168660085490565b336000818152600960205260409020805460ff191660011790559091506116ad90826121b6565b505b506001600160a01b0382166000908152600a60205260409020805460ff191660011790556111b06001600755565b6000818152600260205260409020546001600160a01b031661151f5760405162461bcd60e51b815260206004820152601860248201527f4552433732313a20696e76616c696420746f6b656e2049440000000000000000604482015260640161093a565b6000818152600460205260409020805473ffffffffffffffffffffffffffffffffffffffff19166001600160a01b038416908117909155819061178382610ea6565b6001600160a01b03167f8c5be1e5ebec7d5bd14f71427d1e84f3dd0314c0f7b2291e5b200ac8c7c3b92560405160405180910390a45050565b6000806117c883610ea6565b9050806001600160a01b0316846001600160a01b0316148061180f57506001600160a01b0380821660009081526005602090815260408083209388168352929052205460ff165b806118335750836001600160a01b031661182884610883565b6001600160a01b0316145b949350505050565b826001600160a01b031661184e82610ea6565b6001600160a01b0316146118b25760405162461bcd60e51b815260206004820152602560248201527f4552433732313a207472616e736665722066726f6d20696e636f72726563742060448201526437bbb732b960d91b606482015260840161093a565b6001600160a01b03821661192d5760405162461bcd60e51b8152602060048201526024808201527f4552433732313a207472616e7366657220746f20746865207a65726f2061646460448201527f7265737300000000000000000000000000000000000000000000000000000000606482015260840161093a565b61193a83838360016121d0565b826001600160a01b031661194d82610ea6565b6001600160a01b0316146119b15760405162461bcd60e51b815260206004820152602560248201527f4552433732313a207472616e736665722066726f6d20696e636f72726563742060448201526437bbb732b960d91b606482015260840161093a565b6000818152600460209081526040808320805473ffffffffffffffffffffffffffffffffffffffff199081169091556001600160a01b0387811680865260038552838620805460001901905590871680865283862080546001019055868652600290945282852080549092168417909155905184937fddf252ad1be2c89b69c2b068fc378daa952ba7f163c4a11628f55a4df523b3ef91a4505050565b60606000611a5b83612211565b600101905060008167ffffffffffffffff811115611a7b57611a7b6127a4565b6040519080825280601f01601f191660200182016040528015611aa5576020820181803683370190505b5090508181016020015b600019017f3031323334353637383961626364656600000000000000000000000000000000600a86061a8153600a8504945084611aaf57509392505050565b60606000611afd8360026137e5565b611b08906002613102565b67ffffffffffffffff811115611b2057611b206127a4565b6040519080825280601f01601f191660200182016040528015611b4a576020820181803683370190505b5090507f300000000000000000000000000000000000000000000000000000000000000081600081518110611b8157611b8161338c565b60200101906001600160f81b031916908160001a9053507f780000000000000000000000000000000000000000000000000000000000000081600181518110611bcc57611bcc61338c565b60200101906001600160f81b031916908160001a9053506000611bf08460026137e5565b611bfb906001613102565b90505b6001811115611c80577f303132333435363738396162636465660000000000000000000000000000000085600f1660108110611c3c57611c3c61338c565b1a60f81b828281518110611c5257611c5261338c565b60200101906001600160f81b031916908160001a90535060049490941c93611c79816137fc565b9050611bfe565b508315611ccf5760405162461bcd60e51b815260206004820181905260248201527f537472696e67733a20686578206c656e67746820696e73756666696369656e74604482015260640161093a565b9392505050565b6040805180820190915260018152605b60f81b602082015260609060005b8351811015611da45760018451611d0b9190613813565b811015611d545781848281518110611d2557611d2561338c565b6020026020010151604051602001611d3e929190613826565b6040516020818303038152906040529150611d92565b81848281518110611d6757611d6761338c565b6020026020010151604051602001611d8092919061387d565b60405160208183030381529060405291505b80611d9c81613115565b915050611cf4565b5092915050565b6040805180820190915260018152605b60f81b602082015260609060005b8351811015611da45760018451611de09190613813565b811015611e3c5781611e15858381518110611dfd57611dfd61338c565b60200260200101516001600160a01b03166014611aee565b604051602001611e26929190613826565b6040516020818303038152906040529150611e75565b81611e52858381518110611dfd57611dfd61338c565b604051602001611e6392919061387d565b60405160208183030381529060405291505b80611e7f81613115565b915050611dc9565b6006546001600160a01b031633146110935760405162461bcd60e51b815260206004820181905260248201527f4f776e61626c653a2063616c6c6572206973206e6f7420746865206f776e6572604482015260640161093a565b600680546001600160a01b0383811673ffffffffffffffffffffffffffffffffffffffff19831681179093556040519116919082907f8be0079c531659141344cd1fd0a4f28419497f9722a3daafe3b4186f6b6457e090600090a35050565b816001600160a01b0316836001600160a01b031603611fa15760405162461bcd60e51b815260206004820152601960248201527f4552433732313a20617070726f766520746f2063616c6c657200000000000000604482015260640161093a565b6001600160a01b03838116600081815260056020908152604080832094871680845294825291829020805460ff191686151590811790915591519182527f17307eab39ab6107e8899845ad3d59bd9653f200f220920489ca2b5937696c31910160405180910390a3505050565b61201984848461183b565b612025848484846122f3565b6107eb5760405162461bcd60e51b815260206004820152603260248201527f4552433732313a207472616e7366657220746f206e6f6e20455243373231526560448201527131b2b4bb32b91034b6b83632b6b2b73a32b960711b606482015260840161093a565b6040805180820190915260018152605b60f81b602082015260609060005b8351811015611da457600184516120c19190613813565b81101561211257816120eb8583815181106120de576120de61338c565b6020026020010151611a4e565b6040516020016120fc929190613826565b604051602081830303815290604052915061214b565b816121288583815181106120de576120de61338c565b60405160200161213992919061387d565b60405160208183030381529060405291505b8061215581613115565b9150506120aa565b6002600754036121af5760405162461bcd60e51b815260206004820152601f60248201527f5265656e7472616e637947756172643a207265656e7472616e742063616c6c00604482015260640161093a565b6002600755565b6111b082826040518060200160405280600081525061243f565b6001600160a01b038416156107eb576040517f6e10574900000000000000000000000000000000000000000000000000000000815260040160405180910390fd5b6000807a184f03e93ff9f4daa797ed6e38ed64bf6a1f010000000000000000831061225a577a184f03e93ff9f4daa797ed6e38ed64bf6a1f010000000000000000830492506040015b6d04ee2d6d415b85acef81000000008310612286576d04ee2d6d415b85acef8100000000830492506020015b662386f26fc1000083106122a457662386f26fc10000830492506010015b6305f5e10083106122bc576305f5e100830492506008015b61271083106122d057612710830492506004015b606483106122e2576064830492506002015b600a83106105285760010192915050565b60006001600160a01b0384163b1561243457604051630a85bd0160e11b81526001600160a01b0385169063150b7a02906123379033908990889088906004016138d4565b6020604051808303816000875af1925050508015612372575060408051601f3d908101601f1916820190925261236f91810190613910565b60015b61241a573d8080156123a0576040519150601f19603f3d011682016040523d82523d6000602084013e6123a5565b606091505b5080516000036124125760405162461bcd60e51b815260206004820152603260248201527f4552433732313a207472616e7366657220746f206e6f6e20455243373231526560448201527131b2b4bb32b91034b6b83632b6b2b73a32b960711b606482015260840161093a565b805181602001fd5b6001600160e01b031916630a85bd0160e11b149050611833565b506001949350505050565b61244983836124bd565b61245660008484846122f3565b6109f95760405162461bcd60e51b815260206004820152603260248201527f4552433732313a207472616e7366657220746f206e6f6e20455243373231526560448201527131b2b4bb32b91034b6b83632b6b2b73a32b960711b606482015260840161093a565b6001600160a01b0382166125135760405162461bcd60e51b815260206004820181905260248201527f4552433732313a206d696e7420746f20746865207a65726f2061646472657373604482015260640161093a565b6000818152600260205260409020546001600160a01b0316156125785760405162461bcd60e51b815260206004820152601c60248201527f4552433732313a20746f6b656e20616c7265616479206d696e74656400000000604482015260640161093a565b6125866000838360016121d0565b6000818152600260205260409020546001600160a01b0316156125eb5760405162461bcd60e51b815260206004820152601c60248201527f4552433732313a20746f6b656e20616c7265616479206d696e74656400000000604482015260640161093a565b6001600160a01b0382166000818152600360209081526040808320805460010190558483526002909152808220805473ffffffffffffffffffffffffffffffffffffffff19168417905551839291907fddf252ad1be2c89b69c2b068fc378daa952ba7f163c4a11628f55a4df523b3ef908290a45050565b604051806040016040528060608152602001612692604051806040016040528060608152602001600081525090565b905290565b6001600160e01b03198116811461151f57600080fd5b6000602082840312156126bf57600080fd5b8135611ccf81612697565b6001600160a01b038116811461151f57600080fd5b6000602082840312156126f157600080fd5b8135611ccf816126ca565b60005b838110156127175781810151838201526020016126ff565b50506000910152565b600081518084526127388160208601602086016126fc565b601f01601f19169290920160200192915050565b602081526000611ccf6020830184612720565b60006020828403121561277157600080fd5b5035919050565b6000806040838503121561278b57600080fd5b8235612796816126ca565b946020939093013593505050565b634e487b7160e01b600052604160045260246000fd5b6040805190810167ffffffffffffffff811182821017156127dd576127dd6127a4565b60405290565b60405160a0810167ffffffffffffffff811182821017156127dd576127dd6127a4565b604051601f8201601f1916810167ffffffffffffffff8111828210171561282f5761282f6127a4565b604052919050565b600067ffffffffffffffff821115612851576128516127a4565b50601f01601f191660200190565b600082601f83011261287057600080fd5b813561288361287e82612837565b612806565b81815284602083860101111561289857600080fd5b816020850160208301376000918101602001919091529392505050565b600080604083850312156128c857600080fd5b823567ffffffffffffffff808211156128e057600080fd5b6128ec8683870161285f565b9350602085013591508082111561290257600080fd5b5061290f8582860161285f565b9150509250929050565b8051151582526000602082015160a0602085015261293a60a0850182612720565b9050604083015184820360408601526129538282612720565b9150506060830151848203606086015261296d8282612720565b915050608083015184820360808601526129878282612720565b95945050505050565b602081526000611ccf6020830184612919565b6000806000606084860312156129b857600080fd5b83356129c3816126ca565b925060208401356129d3816126ca565b929592945050506040919091013590565b600080604083850312156129f757600080fd5b50508035926020909101359150565b60008060408385031215612a1957600080fd5b8235612a24816126ca565b91506020830135612a34816126ca565b809150509250929050565b801515811461151f57600080fd5b8035612a5881612a3f565b919050565b600060208284031215612a6f57600080fd5b8135611ccf81612a3f565b600067ffffffffffffffff821115612a9457612a946127a4565b5060051b60200190565b600082601f830112612aaf57600080fd5b81356020612abf61287e83612a7a565b82815260059290921b84018101918181019086841115612ade57600080fd5b8286015b84811015612b1e57803567ffffffffffffffff811115612b025760008081fd5b612b108986838b010161285f565b845250918301918301612ae2565b509695505050505050565b60008060408385031215612b3c57600080fd5b823567ffffffffffffffff80821115612b5457600080fd5b612b6086838701612a9e565b93506020850135915080821115612b7657600080fd5b5061290f85828601612a9e565b600082601f830112612b9457600080fd5b81356020612ba461287e83612a7a565b82815260059290921b84018101918181019086841115612bc357600080fd5b8286015b84811015612b1e578035612bda816126ca565b8352918301918301612bc7565b60008060408385031215612bfa57600080fd5b823567ffffffffffffffff80821115612c1257600080fd5b612c1e86838701612b83565b93506020850135915080821115612c3457600080fd5b5061290f85828601612b83565b60008060408385031215612c5457600080fd5b8235612c5f816126ca565b91506020830135612a3481612a3f565b60008060008060808587031215612c8557600080fd5b8435612c90816126ca565b93506020850135612ca0816126ca565b925060408501359150606085013567ffffffffffffffff811115612cc357600080fd5b612ccf8782880161285f565b91505092959194509250565b600060208284031215612ced57600080fd5b813567ffffffffffffffff811115612d0457600080fd5b6118338482850161285f565b600082601f830112612d2157600080fd5b81356020612d3161287e83612a7a565b82815260059290921b84018101918181019086841115612d5057600080fd5b8286015b84811015612b1e5780358352918301918301612d54565b60008060408385031215612d7e57600080fd5b823567ffffffffffffffff80821115612d9657600080fd5b612da286838701612d10565b93506020850135915080821115612db857600080fd5b5061290f85828601612d10565b600060208284031215612dd757600080fd5b67ffffffffffffffff82351115612ded57600080fd5b82601f833584010112612dff57600080fd5b612e0f61287e8335840135612a7a565b8235830180358083526020808401939260059290921b90910101851015612e3557600080fd5b602084358501015b84358501803560051b016020018110156130e35767ffffffffffffffff81351115612e6757600080fd5b6040853586018235018703601f19011215612e8157600080fd5b612e896127ba565b67ffffffffffffffff60208335883589010101351115612ea857600080fd5b612ec0876020843589358a010181810135010161285f565b815267ffffffffffffffff60408335883589010101351115612ee157600080fd5b60408635870183350180820135018803601f19011215612f0057600080fd5b612f086127ba565b67ffffffffffffffff87358801843501604081013501602001351115612f2d57600080fd5b86358701833501604081013501602081013501603f81018913612f4f57600080fd5b612f5f61287e6020830135612a7a565b602082810135808352908201919060051b83016040018b1015612f8157600080fd5b604083015b6040602085013560051b8501018110156130b15767ffffffffffffffff81351115612fb057600080fd5b8035840160a0818e03603f19011215612fc857600080fd5b612fd06127e3565b612fdc60408301612a4d565b815267ffffffffffffffff60608301351115612ff757600080fd5b61300a8e6040606085013585010161285f565b602082015267ffffffffffffffff6080830135111561302857600080fd5b61303b8e6040608085013585010161285f565b604082015267ffffffffffffffff60a0830135111561305957600080fd5b61306c8e604060a085013585010161285f565b606082015267ffffffffffffffff60c0830135111561308a57600080fd5b61309d8e604060c085013585010161285f565b608082015284525060209283019201612f86565b508352505060408335883589010181810135010135602080830191909152828101919091529084529283019201612e3d565b50949350505050565b634e487b7160e01b600052601160045260246000fd5b80820180821115610528576105286130ec565b600060018201613127576131276130ec565b5060010190565b600082601f83011261313f57600080fd5b815161314d61287e82612837565b81815284602083860101111561316257600080fd5b6118338260208301602087016126fc565b8051612a5881612a3f565b60006040828403121561319057600080fd5b6131986127ba565b9050815167ffffffffffffffff808211156131b257600080fd5b6131be8583860161312e565b83526020915081840151818111156131d557600080fd5b8401604081870312156131e757600080fd5b6131ef6127ba565b8151838111156131fe57600080fd5b8201601f8101881361320f57600080fd5b805161321d61287e82612a7a565b81815260059190911b8201860190868101908a83111561323c57600080fd5b8784015b838110156133295780518881111561325757600080fd5b850160a0818e03601f1901121561326d57600080fd5b6132756127e3565b6132808b8301613173565b815260408201518a81111561329457600080fd5b6132a28f8d8386010161312e565b8c8301525060608201518a8111156132b957600080fd5b6132c78f8d8386010161312e565b60408301525060808201518a8111156132e05760008081fd5b6132ee8f8d8386010161312e565b60608301525060a08201518a8111156133075760008081fd5b6133158f8d8386010161312e565b608083015250845250918801918801613240565b5084525050509083015183820152918301919091525092915050565b6000806040838503121561335857600080fd5b825167ffffffffffffffff81111561336f57600080fd5b61337b8582860161317e565b9250506020830151612a34816126ca565b634e487b7160e01b600052603260045260246000fd5b6000602082840312156133b457600080fd5b815167ffffffffffffffff8111156133cb57600080fd5b6118338482850161317e565b600181811c908216806133eb57607f821691505b60208210810361340b57634e487b7160e01b600052602260045260246000fd5b50919050565b7f417373657274696f6e4572726f723a20000000000000000000000000000000008152600083516134498160108501602088016126fc565b7f206973206e6f7420657175616c20746f2000000000000000000000000000000060109184019182015283516134868160218401602088016126fc565b01602101949350505050565b6000602080830181845280855180835260408601915060408160051b870101925083870160005b828110156134e757603f198886030184526134d5858351612720565b945092850192908501906001016134b9565b5092979650505050505050565b6020808252825182820181905260009190848201906040850190845b818110156135355783516001600160a01b031683529284019291840191600101613510565b50909695505050505050565b7f417373657274696f6e4572726f723a200000000000000000000000000000000081527f20426f74682076616c756573206172650000000000000000000000000000000060108201526000825161359f8160208501602087016126fc565b9190910160200192915050565b601f8211156109f957600081815260208120601f850160051c810160208610156135d35750805b601f850160051c820191505b818110156135f2578281556001016135df565b505050505050565b815167ffffffffffffffff811115613614576136146127a4565b6136288161362284546133d7565b846135ac565b602080601f83116001811461365d57600084156136455750858301515b600019600386901b1c1916600185901b1785556135f2565b600085815260208120601f198616915b8281101561368c5788860151825594840194600190910190840161366d565b50858210156136aa5787850151600019600388901b60f8161c191681555b5050505050600190811b01905550565b6020808252825182820181905260009190848201906040850190845b81811015613535578351835292840192918401916001016136d6565b600060608083016001600160a01b03871684526020861515818601526040838187015282875180855260808801915060808160051b89010194508389016000805b838110156137d3578a8803607f1901855282518051878a52613757888b0182612720565b918901518a83038b8b0152805189845280518a850181905291939250600582901b83018d0191908b01908d840190875b818110156137b557605f198686030183526137a3858551612919565b9450928d0192918d0191600101613787565b50505050918901519089015297509386019391860191600101613733565b50959c9b505050505050505050505050565b8082028115828204841417610528576105286130ec565b60008161380b5761380b6130ec565b506000190190565b81810381811115610528576105286130ec565b600083516138388184602088016126fc565b83519083019061384c8183602088016126fc565b7f2c200000000000000000000000000000000000000000000000000000000000009101908152600201949350505050565b6000835161388f8184602088016126fc565b8351908301906138a38183602088016126fc565b7f5d000000000000000000000000000000000000000000000000000000000000009101908152600101949350505050565b60006001600160a01b038087168352808616602084015250836040830152608060608301526139066080830184612720565b9695505050505050565b60006020828403121561392257600080fd5b8151611ccf8161269756fe417373657274696f6e4572726f723a20726573756c74206973206e6f742066616c7365417373657274696f6e4572726f723a20726573756c74206973206e6f742074727565a2646970667358221220f2743b345d44605c0a69816d8d42d1d4698af75392a8c7034c992ff4c7c34cc264736f6c63430008110033608060405234801561001057600080fd5b5061202f806100206000396000f3fe608060405234801561001057600080fd5b50600436106100c95760003560e01c80634b64e4921161008157806374f130701161005b57806374f1307014610176578063d70968e714610189578063e7da4c7e1461019c57600080fd5b80634b64e4921461013057806360fb55d5146101505780636df864781461016357600080fd5b806331495d33116100b257806331495d331461010a578063410dbb8b1461011d57806346bdca9a146100ce57600080fd5b8063235266d2146100ce57806330191626146100f7575b600080fd5b6100e16100dc366004611664565b6101af565b6040516100ee919061178f565b60405180910390f35b6100e16101053660046117a9565b61025e565b6100e16101183660046117e7565b610318565b6100e161012b36600461181a565b6103e9565b61014361013e36600461183c565b6104e9565b6040516100ee9190611857565b6100e161015e36600461199f565b610866565b6100e1610171366004611a5b565b610942565b6100e161018436600461181a565b610a1e565b6100e16101973660046117e7565b610b1f565b6100e16101aa366004611b10565b610be6565b6101e36040518060a00160405280600015158152602001606081526020016060815260200160608152602001606081525090565b815160208084019190912084519185019190912014808252610228578282604051602001610212929190611b6a565b60408051601f1981840301815291905260208201525b604080820193909352606081019190915281518083019092526005825264195c5d585b60da1b6020830152608081019190915290565b6102926040518060a00160405280600015158152602001606081526020016060815260200160608152602001606081525090565b8282148082526102d5576102a583610cc2565b6102ae83610cc2565b6040516020016102bf929190611b6a565b60408051601f1981840301815291905260208201525b6102de83610cc2565b60408201526102ec82610cc2565b6060820152604080518082019091526005815264195c5d585b60da1b6020820152608082015292915050565b61034c6040518060a00160405280600015158152602001606081526020016060815260200160608152602001606081525090565b6001600160a01b038381169083168114825260009061036c906014610d62565b90506000610384846001600160a01b03166014610d62565b83519091506103b65781816040516020016103a0929190611b6a565b60408051601f1981840301815291905260208401525b604080840192909252606083015280518082019091526005815264195c5d585b60da1b6020820152608082015292915050565b61041d6040518060a00160405280600015158152602001606081526020016060815260200160608152602001606081525090565b811580825261044557604051806060016040528060238152602001611f946023913960208201525b600182151514610472576040518060400160405280600581526020016466616c736560d81b815250610490565b604051806040016040528060048152602001637472756560e01b8152505b6040808301919091528051602080820183526000825260608401919091528151808301909252600782527f697346616c736500000000000000000000000000000000000000000000000000908201526080820152919050565b6104f161156b565b816104fa61156b565b6105078160200151610f6a565b5060408051808201909152601e81527f53686f756c642072657475726e2074686520636f7272656374206c69737400006020820152815260008061054a84610fe6565b9150915080156105cb576105c56040518060a00160405280600015158152602001604051806060016040528060218152602001611fd960219139815260408051602081810183526000808352818501929092528251808201845282815283850152825180820190935290825260609092015285015190611063565b5061085c565b6040805161016081018252600861012082019081527f546872696c6c65720000000000000000000000000000000000000000000000006101408084019190915290825282518084018452600d8082527f4261636b20696e20426c61636b0000000000000000000000000000000000000060208084019190915280850192909252845180860186529081527f54686520426f6479677561726400000000000000000000000000000000000000818301528385015283518085018552601981527f546865204461726b2053696465206f6620746865204d6f6f6e0000000000000081830152606084015283518085018552601f81527f546865697220477265617465737420486974732028313937312d31393735290081830152608084015283518085018552601081527f486f74656c2043616c69666f726e6961000000000000000000000000000000008183015260a084015283518085018552600c81527f436f6d65204f6e204f76657200000000000000000000000000000000000000008183015260c084015283518085018552600781527f52756d6f757273000000000000000000000000000000000000000000000000008183015260e084015283518085018552601481527f5361747572646179204e696768742046657665720000000000000000000000008183015261010084015283516009808252928101909452919260009290919082015b60608152602001906001900390816107d557905050905060005b815181101561083f5782816009811061080a5761080a611beb565b602002015182828151811061082157610821611beb565b6020026020010181905250808061083790611c17565b9150506107ef565b5061085861084d8583610866565b602087015190611063565b5050505b5090949350505050565b61089a6040518060a00160405280600015158152602001606081526020016060815260200160608152602001606081525090565b816040516020016108ab9190611c30565b60405160208183030381529060405280519060200120836040516020016108d29190611c30565b60408051601f1981840301815291905280516020909101201480825261092b576108fb836110d3565b610904836110d3565b604051602001610915929190611b6a565b60408051601f1981840301815291905260208201525b610934836110d3565b60408201526102ec826110d3565b6109766040518060a00160405280600015158152602001606081526020016060815260200160608152602001606081525090565b816040516020016109879190611c92565b60405160208183030381529060405280519060200120836040516020016109ae9190611c92565b60408051601f19818403018152919052805160209091012014808252610a07576109d7836111a8565b6109e0836111a8565b6040516020016109f1929190611b6a565b60408051601f1981840301815291905260208201525b610a10836111a8565b60408201526102ec826111a8565b610a526040518060a00160405280600015158152602001606081526020016060815260200160608152602001606081525090565b811515808252610a7b57604051806060016040528060228152602001611fb76022913960208201525b600182151514610aa8576040518060400160405280600581526020016466616c736560d81b815250610ac6565b604051806040016040528060048152602001637472756560e01b8152505b6040808301919091528051602080820183526000825260608401919091528151808301909252600682527f6973547275650000000000000000000000000000000000000000000000000000908201526080820152919050565b610b536040518060a00160405280600015158152602001606081526020016060815260200160608152602001606081525090565b6001600160a01b038381169083168114158252600090610b74906014610d62565b8251909150610ba45780604051602001610b8e9190611cdf565b60408051601f1981840301815291905260208301525b60408083019190915280516020808201835260008252606084019190915281518083019092526005825264195c5d585b60da1b90820152608082015292915050565b610c1a6040518060a00160405280600015158152602001606081526020016060815260200160608152602001606081525090565b81604051602001610c2b9190611d4a565b6040516020818303038152906040528051906020012083604051602001610c529190611d4a565b60408051601f19818403018152919052805160209091012014808252610cab57610c7b83611284565b610c8483611284565b604051602001610c95929190611b6a565b60408051601f1981840301815291905260208201525b610cb483611284565b60408201526102ec82611284565b60606000610ccf83611355565b600101905060008167ffffffffffffffff811115610cef57610cef61159f565b6040519080825280601f01601f191660200182016040528015610d19576020820181803683370190505b5090508181016020015b600019017f3031323334353637383961626364656600000000000000000000000000000000600a86061a8153600a8504945084610d2357509392505050565b60606000610d71836002611d82565b610d7c906002611d99565b67ffffffffffffffff811115610d9457610d9461159f565b6040519080825280601f01601f191660200182016040528015610dbe576020820181803683370190505b5090507f300000000000000000000000000000000000000000000000000000000000000081600081518110610df557610df5611beb565b60200101906001600160f81b031916908160001a9053507f780000000000000000000000000000000000000000000000000000000000000081600181518110610e4057610e40611beb565b60200101906001600160f81b031916908160001a9053506000610e64846002611d82565b610e6f906001611d99565b90505b6001811115610ef4577f303132333435363738396162636465660000000000000000000000000000000085600f1660108110610eb057610eb0611beb565b1a60f81b828281518110610ec657610ec6611beb565b60200101906001600160f81b031916908160001a90535060049490941c93610eed81611dac565b9050610e72565b508315610f61576040517f08c379a000000000000000000000000000000000000000000000000000000000815260206004820181905260248201527f537472696e67733a20686578206c656e67746820696e73756666696369656e74604482015260640160405180910390fd5b90505b92915050565b60408051808201825260608152600060208201528151600480825260a082019093529091816020015b610fc76040518060a00160405280600015158152602001606081526020016060815260200160608152602001606081525090565b815260200190600190039081610f935750508252506000602082015290565b60606000826001600160a01b0316631cf0830b6040518163ffffffff1660e01b8152600401600060405180830381865afa92505050801561104957506040513d6000823e601f3d908101601f191682016040526110469190810190611dc3565b60015b6110595750606092600192509050565b9360009350915050565b6040805180820190915260608152600060208201528251516020840151036110915761108e83611437565b92505b8183600001518460200151815181106110ac576110ac611beb565b60200260200101819052508260200180518091906110c990611c17565b9052509192915050565b6040805180820190915260018152605b60f81b602082015260609060005b83518110156111a157600184516111089190611eb0565b811015611151578184828151811061112257611122611beb565b602002602001015160405160200161113b929190611ec3565b604051602081830303815290604052915061118f565b8184828151811061116457611164611beb565b602002602001015160405160200161117d929190611f1a565b60405160208183030381529060405291505b8061119981611c17565b9150506110f1565b5092915050565b6040805180820190915260018152605b60f81b602082015260609060005b83518110156111a157600184516111dd9190611eb0565b81101561123957816112128583815181106111fa576111fa611beb565b60200260200101516001600160a01b03166014610d62565b604051602001611223929190611ec3565b6040516020818303038152906040529150611272565b8161124f8583815181106111fa576111fa611beb565b604051602001611260929190611f1a565b60405160208183030381529060405291505b8061127c81611c17565b9150506111c6565b6040805180820190915260018152605b60f81b602082015260609060005b83518110156111a157600184516112b99190611eb0565b81101561130a57816112e38583815181106112d6576112d6611beb565b6020026020010151610cc2565b6040516020016112f4929190611ec3565b6040516020818303038152906040529150611343565b816113208583815181106112d6576112d6611beb565b604051602001611331929190611f1a565b60405160208183030381529060405291505b8061134d81611c17565b9150506112a2565b6000807a184f03e93ff9f4daa797ed6e38ed64bf6a1f010000000000000000831061139e577a184f03e93ff9f4daa797ed6e38ed64bf6a1f010000000000000000830492506040015b6d04ee2d6d415b85acef810000000083106113ca576d04ee2d6d415b85acef8100000000830492506020015b662386f26fc1000083106113e857662386f26fc10000830492506010015b6305f5e1008310611400576305f5e100830492506008015b612710831061141457612710830492506004015b60648310611426576064830492506002015b600a8310610f645760010192915050565b604080518082019091526060815260006020820152604080518082019091526060815260006020820152825151600290611472906003611d82565b61147c9190611f71565b67ffffffffffffffff8111156114945761149461159f565b6040519080825280602002602001820160405280156114f957816020015b6114e66040518060a00160405280600015158152602001606081526020016060815260200160608152602001606081525090565b8152602001906001900390816114b25790505b50815260005b83515181101561155957835180518290811061151d5761151d611beb565b60200260200101518260000151828151811061153b5761153b611beb565b6020026020010181905250808061155190611c17565b9150506114ff565b50602092830151928101929092525090565b60405180604001604052806060815260200161159a604051806040016040528060608152602001600081525090565b905290565b634e487b7160e01b600052604160045260246000fd5b604051601f8201601f1916810167ffffffffffffffff811182821017156115de576115de61159f565b604052919050565b600067ffffffffffffffff8211156116005761160061159f565b50601f01601f191660200190565b600082601f83011261161f57600080fd5b813561163261162d826115e6565b6115b5565b81815284602083860101111561164757600080fd5b816020850160208301376000918101602001919091529392505050565b6000806040838503121561167757600080fd5b823567ffffffffffffffff8082111561168f57600080fd5b61169b8683870161160e565b935060208501359150808211156116b157600080fd5b506116be8582860161160e565b9150509250929050565b60005b838110156116e35781810151838201526020016116cb565b50506000910152565b600081518084526117048160208601602086016116c8565b601f01601f19169290920160200192915050565b8051151582526000602082015160a0602085015261173960a08501826116ec565b90506040830151848203604086015261175282826116ec565b9150506060830151848203606086015261176c82826116ec565b9150506080830151848203608086015261178682826116ec565b95945050505050565b6020815260006117a26020830184611718565b9392505050565b600080604083850312156117bc57600080fd5b50508035926020909101359150565b80356001600160a01b03811681146117e257600080fd5b919050565b600080604083850312156117fa57600080fd5b611803836117cb565b9150611811602084016117cb565b90509250929050565b60006020828403121561182c57600080fd5b81358015158114610f6157600080fd5b60006020828403121561184e57600080fd5b6117a2826117cb565b60006020808352835160408285015261187360608501826116ec565b905081850151601f198583030160408601526040820181516040845281815180845260608601915060608160051b8701019350868301925060005b818110156118dc57605f198786030183526118ca858551611718565b945092870192918701916001016118ae565b505050509083015191909201529392505050565b600067ffffffffffffffff82111561190a5761190a61159f565b5060051b60200190565b600082601f83011261192557600080fd5b8135602061193561162d836118f0565b82815260059290921b8401810191818101908684111561195457600080fd5b8286015b8481101561199457803567ffffffffffffffff8111156119785760008081fd5b6119868986838b010161160e565b845250918301918301611958565b509695505050505050565b600080604083850312156119b257600080fd5b823567ffffffffffffffff808211156119ca57600080fd5b6119d686838701611914565b935060208501359150808211156119ec57600080fd5b506116be85828601611914565b600082601f830112611a0a57600080fd5b81356020611a1a61162d836118f0565b82815260059290921b84018101918181019086841115611a3957600080fd5b8286015b8481101561199457611a4e816117cb565b8352918301918301611a3d565b60008060408385031215611a6e57600080fd5b823567ffffffffffffffff80821115611a8657600080fd5b611a92868387016119f9565b93506020850135915080821115611aa857600080fd5b506116be858286016119f9565b600082601f830112611ac657600080fd5b81356020611ad661162d836118f0565b82815260059290921b84018101918181019086841115611af557600080fd5b8286015b848110156119945780358352918301918301611af9565b60008060408385031215611b2357600080fd5b823567ffffffffffffffff80821115611b3b57600080fd5b611b4786838701611ab5565b93506020850135915080821115611b5d57600080fd5b506116be85828601611ab5565b7f417373657274696f6e4572726f723a2000000000000000000000000000000000815260008351611ba28160108501602088016116c8565b7f206973206e6f7420657175616c20746f200000000000000000000000000000006010918401918201528351611bdf8160218401602088016116c8565b01602101949350505050565b634e487b7160e01b600052603260045260246000fd5b634e487b7160e01b600052601160045260246000fd5b600060018201611c2957611c29611c01565b5060010190565b6000602080830181845280855180835260408601915060408160051b870101925083870160005b82811015611c8557603f19888603018452611c738583516116ec565b94509285019290850190600101611c57565b5092979650505050505050565b6020808252825182820181905260009190848201906040850190845b81811015611cd35783516001600160a01b031683529284019291840191600101611cae565b50909695505050505050565b7f417373657274696f6e4572726f723a200000000000000000000000000000000081527f20426f74682076616c7565732061726500000000000000000000000000000000601082015260008251611d3d8160208501602087016116c8565b9190910160200192915050565b6020808252825182820181905260009190848201906040850190845b81811015611cd357835183529284019291840191600101611d66565b8082028115828204841417610f6457610f64611c01565b80820180821115610f6457610f64611c01565b600081611dbb57611dbb611c01565b506000190190565b60006020808385031215611dd657600080fd5b825167ffffffffffffffff80821115611dee57600080fd5b818501915085601f830112611e0257600080fd5b8151611e1061162d826118f0565b81815260059190911b83018401908481019088831115611e2f57600080fd5b8585015b83811015611ea357805185811115611e4b5760008081fd5b8601603f81018b13611e5d5760008081fd5b878101516040611e6f61162d836115e6565b8281528d82848601011115611e845760008081fd5b611e93838c83018487016116c8565b8652505050918601918601611e33565b5098975050505050505050565b81810381811115610f6457610f64611c01565b60008351611ed58184602088016116c8565b835190830190611ee98183602088016116c8565b7f2c200000000000000000000000000000000000000000000000000000000000009101908152600201949350505050565b60008351611f2c8184602088016116c8565b835190830190611f408183602088016116c8565b7f5d000000000000000000000000000000000000000000000000000000000000009101908152600101949350505050565b600082611f8e57634e487b7160e01b600052601260045260246000fd5b50049056fe417373657274696f6e4572726f723a20726573756c74206973206e6f742066616c7365417373657274696f6e4572726f723a20726573756c74206973206e6f74207472756543616c6c20746f20676574417070726f7665645265636f726473206661696c6564a2646970667358221220d123c72b266f0a4a2d9ea1f37d105c25911132b0f14ec3909375e83b4bb450d764736f6c6343000811003360806040523480156200001157600080fd5b506040516200261f3803806200261f83398101604081905262000034916200005a565b600080546001600160a01b0319166001600160a01b03929092169190911790556200008c565b6000602082840312156200006d57600080fd5b81516001600160a01b03811681146200008557600080fd5b9392505050565b612583806200009c6000396000f3fe608060405234801561001057600080fd5b50600436106100c95760003560e01c80634b64e4921161008157806374f130701161005b57806374f1307014610176578063d70968e714610189578063e7da4c7e1461019c57600080fd5b80634b64e4921461013057806360fb55d5146101505780636df864781461016357600080fd5b806331495d33116100b257806331495d331461010a578063410dbb8b1461011d57806346bdca9a146100ce57600080fd5b8063235266d2146100ce57806330191626146100f7575b600080fd5b6100e16100dc366004611b75565b6101af565b6040516100ee9190611ca0565b60405180910390f35b6100e1610105366004611cba565b61025e565b6100e1610118366004611cf8565b610318565b6100e161012b366004611d3c565b6103e9565b61014361013e366004611d59565b6104e9565b6040516100ee9190611d74565b6100e161015e366004611ebc565b610cc9565b6100e1610171366004611f78565b610da5565b6100e1610184366004611d3c565b610e81565b6100e1610197366004611cf8565b610f82565b6100e16101aa36600461202d565b611049565b6101e36040518060a00160405280600015158152602001606081526020016060815260200160608152602001606081525090565b815160208084019190912084519185019190912014808252610228578282604051602001610212929190612087565b60408051601f1981840301815291905260208201525b604080820193909352606081019190915281518083019092526005825264195c5d585b60da1b6020830152608081019190915290565b6102926040518060a00160405280600015158152602001606081526020016060815260200160608152602001606081525090565b8282148082526102d5576102a583611125565b6102ae83611125565b6040516020016102bf929190612087565b60408051601f1981840301815291905260208201525b6102de83611125565b60408201526102ec82611125565b6060820152604080518082019091526005815264195c5d585b60da1b6020820152608082015292915050565b61034c6040518060a00160405280600015158152602001606081526020016060815260200160608152602001606081525090565b6001600160a01b038381169083168114825260009061036c9060146111c5565b90506000610384846001600160a01b031660146111c5565b83519091506103b65781816040516020016103a0929190612087565b60408051601f1981840301815291905260208401525b604080840192909252606083015280518082019091526005815264195c5d585b60da1b6020820152608082015292915050565b61041d6040518060a00160405280600015158152602001606081526020016060815260200160608152602001606081525090565b8115808252610445576040518060600160405280602381526020016124e16023913960208201525b600182151514610472576040518060400160405280600581526020016466616c736560d81b815250610490565b604051806040016040528060048152602001637472756560e01b8152505b6040808301919091528051602080820183526000825260608401919091528151808301909252600782527f697346616c736500000000000000000000000000000000000000000000000000908201526080820152919050565b6104f1611a7c565b816104fa611a7c565b61050781602001516113cd565b50604051806060016040528060288152602001612526602891398160000181905250816001600160a01b031663837f88786040518163ffffffff1660e01b8152600401600060405180830381600087803b15801561056457600080fd5b505af1158015610578573d6000803e3d6000fd5b50506000546040517f0694806b0000000000000000000000000000000000000000000000000000000081526001600160a01b0386811660048301529091169250630694806b9150602401600060405180830381600087803b1580156105dc57600080fd5b505af11580156105f0573d6000803e3d6000fd5b50505050600061062083604051806040016040528060088152602001672a343934b63632b960c11b815250611449565b905080156106b2576040805160a081018252600080825282518084018452601881527f43616c6c20746f206164645265636f7264206661696c6564000000000000000060208281019190915280840191909152835180820185528281528385015283518082018552828152606084015283518082019094529083526080820192909252908301516106b0916114d0565b505b6106e1836040518060400160405280600d81526020016c4261636b20696e20426c61636b60981b815250611449565b90508015610773576040805160a081018252600080825282518084018452601881527f43616c6c20746f206164645265636f7264206661696c656400000000000000006020828101919091528084019190915283518082018552828152838501528351808201855282815260608401528351808201909452908352608082019290925290830151610771916114d0565b505b6000806107808530611540565b915091508015610818576040805160a081018252600080825282518084018452601f81527f43616c6c20746f20676574557365724661766f7269746573206661696c6564006020828101919091528084019190915283518082018552828152838501528351808201855282815260608401528351808201909452908352608082019290925290850151610812916114d0565b506108e5565b60408051600280825260608201909252600091816020015b6060815260200190600190039081610830579050509050604051806040016040528060088152602001672a343934b63632b960c11b8152508160008151811061087b5761087b612108565b60200260200101819052506040518060400160405280600d81526020016c4261636b20696e20426c61636b60981b815250816001815181106108bf576108bf612108565b60200260200101819052506108e26108d78483610cc9565b6020870151906114d0565b50505b6000546040805163caa445b160e01b81526001600160a01b0388811660048301526024820192909252600760448201526652756d6f75727360c81b606482015291169063caa445b1906084016020604051808303816000875af1158015610950573d6000803e3d6000fd5b505050506040513d601f19601f82011682018060405250810190610974919061211e565b92508215610a06576040805160a081018252600080825282518084018452601881527f43616c6c20746f206164645265636f7264206661696c656400000000000000006020828101919091528084019190915283518082018552828152838501528351808201855282815260608401528351808201909452908352608082019290925290850151610a04916114d0565b505b6000546040805163caa445b160e01b81526001600160a01b0388811660048301526024820192909252601460448201527f5361747572646179204e69676874204665766572000000000000000000000000606482015291169063caa445b1906084016020604051808303816000875af1158015610a87573d6000803e3d6000fd5b505050506040513d601f19601f82011682018060405250810190610aab919061211e565b92508215610b3d576040805160a081018252600080825282518084018452601881527f43616c6c20746f206164645265636f7264206661696c656400000000000000006020828101919091528084019190915283518082018552828152838501528351808201855282815260608401528351808201909452908352608082019290925290850151610b3b916114d0565b505b600054610b549086906001600160a01b0316611540565b90925090508015610bed576040805160a081018252600080825282518084018452601f81527f43616c6c20746f20676574557365724661766f7269746573206661696c6564006020828101919091528084019190915283518082018552828152838501528351808201855282815260608401528351808201909452908352608082019290925290850151610be7916114d0565b50610cbe565b60408051600280825260608201909252600091816020015b6060815260200190600190039081610c055790505090506040518060400160405280600781526020016652756d6f75727360c81b81525081600081518110610c4f57610c4f612108565b60200260200101819052506040518060400160405280601481526020017f5361747572646179204e6967687420466576657200000000000000000000000081525081600181518110610ca357610ca3612108565b6020026020010181905250610cbb6108d78483610cc9565b50505b509195945050505050565b610cfd6040518060a00160405280600015158152602001606081526020016060815260200160608152602001606081525090565b81604051602001610d0e919061213b565b6040516020818303038152906040528051906020012083604051602001610d35919061213b565b60408051601f19818403018152919052805160209091012014808252610d8e57610d5e836115e4565b610d67836115e4565b604051602001610d78929190612087565b60408051601f1981840301815291905260208201525b610d97836115e4565b60408201526102ec826115e4565b610dd96040518060a00160405280600015158152602001606081526020016060815260200160608152602001606081525090565b81604051602001610dea919061219d565b6040516020818303038152906040528051906020012083604051602001610e11919061219d565b60408051601f19818403018152919052805160209091012014808252610e6a57610e3a836116b9565b610e43836116b9565b604051602001610e54929190612087565b60408051601f1981840301815291905260208201525b610e73836116b9565b60408201526102ec826116b9565b610eb56040518060a00160405280600015158152602001606081526020016060815260200160608152602001606081525090565b811515808252610ede576040518060600160405280602281526020016125046022913960208201525b600182151514610f0b576040518060400160405280600581526020016466616c736560d81b815250610f29565b604051806040016040528060048152602001637472756560e01b8152505b6040808301919091528051602080820183526000825260608401919091528151808301909252600682527f6973547275650000000000000000000000000000000000000000000000000000908201526080820152919050565b610fb66040518060a00160405280600015158152602001606081526020016060815260200160608152602001606081525090565b6001600160a01b038381169083168114158252600090610fd79060146111c5565b82519091506110075780604051602001610ff191906121ea565b60408051601f1981840301815291905260208301525b60408083019190915280516020808201835260008252606084019190915281518083019092526005825264195c5d585b60da1b90820152608082015292915050565b61107d6040518060a00160405280600015158152602001606081526020016060815260200160608152602001606081525090565b8160405160200161108e9190612255565b60405160208183030381529060405280519060200120836040516020016110b59190612255565b60408051601f1981840301815291905280516020909101201480825261110e576110de83611795565b6110e783611795565b6040516020016110f8929190612087565b60408051601f1981840301815291905260208201525b61111783611795565b60408201526102ec82611795565b6060600061113283611866565b600101905060008167ffffffffffffffff81111561115257611152611ab0565b6040519080825280601f01601f19166020018201604052801561117c576020820181803683370190505b5090508181016020015b600019017f3031323334353637383961626364656600000000000000000000000000000000600a86061a8153600a850494508461118657509392505050565b606060006111d48360026122a3565b6111df9060026122ba565b67ffffffffffffffff8111156111f7576111f7611ab0565b6040519080825280601f01601f191660200182016040528015611221576020820181803683370190505b5090507f30000000000000000000000000000000000000000000000000000000000000008160008151811061125857611258612108565b60200101906001600160f81b031916908160001a9053507f7800000000000000000000000000000000000000000000000000000000000000816001815181106112a3576112a3612108565b60200101906001600160f81b031916908160001a90535060006112c78460026122a3565b6112d29060016122ba565b90505b6001811115611357577f303132333435363738396162636465660000000000000000000000000000000085600f166010811061131357611313612108565b1a60f81b82828151811061132957611329612108565b60200101906001600160f81b031916908160001a90535060049490941c93611350816122cd565b90506112d5565b5083156113c4576040517f08c379a000000000000000000000000000000000000000000000000000000000815260206004820181905260248201527f537472696e67733a20686578206c656e67746820696e73756666696369656e74604482015260640160405180910390fd5b90505b92915050565b60408051808201825260608152600060208201528151600480825260a082019093529091816020015b61142a6040518060a00160405280600015158152602001606081526020016060815260200160608152602001606081525090565b8152602001906001900390816113f65750508252506000602082015290565b6040517fd81aa8c40000000000000000000000000000000000000000000000000000000081526000906001600160a01b0384169063d81aa8c4906114919085906004016122e4565b600060405180830381600087803b1580156114ab57600080fd5b505af19250505080156114bc575060015b6114c8575060016113c7565b5060006113c7565b6040805180820190915260608152600060208201528251516020840151036114fe576114fb83611948565b92505b81836000015184602001518151811061151957611519612108565b6020026020010181905250826020018051809190611536906122f7565b9052509192915050565b6040517fc78531480000000000000000000000000000000000000000000000000000000081526001600160a01b03828116600483015260609160009185169063c785314890602401600060405180830381865afa9250505080156115c657506040513d6000823e601f3d908101601f191682016040526115c39190810190612310565b60015b6115d657506060905060016115dd565b9150600090505b9250929050565b6040805180820190915260018152605b60f81b602082015260609060005b83518110156116b2576001845161161991906123fd565b811015611662578184828151811061163357611633612108565b602002602001015160405160200161164c929190612410565b60405160208183030381529060405291506116a0565b8184828151811061167557611675612108565b602002602001015160405160200161168e929190612467565b60405160208183030381529060405291505b806116aa816122f7565b915050611602565b5092915050565b6040805180820190915260018152605b60f81b602082015260609060005b83518110156116b257600184516116ee91906123fd565b81101561174a578161172385838151811061170b5761170b612108565b60200260200101516001600160a01b031660146111c5565b604051602001611734929190612410565b6040516020818303038152906040529150611783565b8161176085838151811061170b5761170b612108565b604051602001611771929190612467565b60405160208183030381529060405291505b8061178d816122f7565b9150506116d7565b6040805180820190915260018152605b60f81b602082015260609060005b83518110156116b257600184516117ca91906123fd565b81101561181b57816117f48583815181106117e7576117e7612108565b6020026020010151611125565b604051602001611805929190612410565b6040516020818303038152906040529150611854565b816118318583815181106117e7576117e7612108565b604051602001611842929190612467565b60405160208183030381529060405291505b8061185e816122f7565b9150506117b3565b6000807a184f03e93ff9f4daa797ed6e38ed64bf6a1f01000000000000000083106118af577a184f03e93ff9f4daa797ed6e38ed64bf6a1f010000000000000000830492506040015b6d04ee2d6d415b85acef810000000083106118db576d04ee2d6d415b85acef8100000000830492506020015b662386f26fc1000083106118f957662386f26fc10000830492506010015b6305f5e1008310611911576305f5e100830492506008015b612710831061192557612710830492506004015b60648310611937576064830492506002015b600a83106113c75760010192915050565b6040805180820190915260608152600060208201526040805180820190915260608152600060208201528251516002906119839060036122a3565b61198d91906124be565b67ffffffffffffffff8111156119a5576119a5611ab0565b604051908082528060200260200182016040528015611a0a57816020015b6119f76040518060a00160405280600015158152602001606081526020016060815260200160608152602001606081525090565b8152602001906001900390816119c35790505b50815260005b835151811015611a6a578351805182908110611a2e57611a2e612108565b602002602001015182600001518281518110611a4c57611a4c612108565b60200260200101819052508080611a62906122f7565b915050611a10565b50602092830151928101929092525090565b604051806040016040528060608152602001611aab604051806040016040528060608152602001600081525090565b905290565b634e487b7160e01b600052604160045260246000fd5b604051601f8201601f1916810167ffffffffffffffff81118282101715611aef57611aef611ab0565b604052919050565b600067ffffffffffffffff821115611b1157611b11611ab0565b50601f01601f191660200190565b600082601f830112611b3057600080fd5b8135611b43611b3e82611af7565b611ac6565b818152846020838601011115611b5857600080fd5b816020850160208301376000918101602001919091529392505050565b60008060408385031215611b8857600080fd5b823567ffffffffffffffff80821115611ba057600080fd5b611bac86838701611b1f565b93506020850135915080821115611bc257600080fd5b50611bcf85828601611b1f565b9150509250929050565b60005b83811015611bf4578181015183820152602001611bdc565b50506000910152565b60008151808452611c15816020860160208601611bd9565b601f01601f19169290920160200192915050565b8051151582526000602082015160a06020850152611c4a60a0850182611bfd565b905060408301518482036040860152611c638282611bfd565b91505060608301518482036060860152611c7d8282611bfd565b91505060808301518482036080860152611c978282611bfd565b95945050505050565b602081526000611cb36020830184611c29565b9392505050565b60008060408385031215611ccd57600080fd5b50508035926020909101359150565b80356001600160a01b0381168114611cf357600080fd5b919050565b60008060408385031215611d0b57600080fd5b611d1483611cdc565b9150611d2260208401611cdc565b90509250929050565b8015158114611d3957600080fd5b50565b600060208284031215611d4e57600080fd5b81356113c481611d2b565b600060208284031215611d6b57600080fd5b611cb382611cdc565b600060208083528351604082850152611d906060850182611bfd565b905081850151601f198583030160408601526040820181516040845281815180845260608601915060608160051b8701019350868301925060005b81811015611df957605f19878603018352611de7858551611c29565b94509287019291870191600101611dcb565b505050509083015191909201529392505050565b600067ffffffffffffffff821115611e2757611e27611ab0565b5060051b60200190565b600082601f830112611e4257600080fd5b81356020611e52611b3e83611e0d565b82815260059290921b84018101918181019086841115611e7157600080fd5b8286015b84811015611eb157803567ffffffffffffffff811115611e955760008081fd5b611ea38986838b0101611b1f565b845250918301918301611e75565b509695505050505050565b60008060408385031215611ecf57600080fd5b823567ffffffffffffffff80821115611ee757600080fd5b611ef386838701611e31565b93506020850135915080821115611f0957600080fd5b50611bcf85828601611e31565b600082601f830112611f2757600080fd5b81356020611f37611b3e83611e0d565b82815260059290921b84018101918181019086841115611f5657600080fd5b8286015b84811015611eb157611f6b81611cdc565b8352918301918301611f5a565b60008060408385031215611f8b57600080fd5b823567ffffffffffffffff80821115611fa357600080fd5b611faf86838701611f16565b93506020850135915080821115611fc557600080fd5b50611bcf85828601611f16565b600082601f830112611fe357600080fd5b81356020611ff3611b3e83611e0d565b82815260059290921b8401810191818101908684111561201257600080fd5b8286015b84811015611eb15780358352918301918301612016565b6000806040838503121561204057600080fd5b823567ffffffffffffffff8082111561205857600080fd5b61206486838701611fd2565b9350602085013591508082111561207a57600080fd5b50611bcf85828601611fd2565b7f417373657274696f6e4572726f723a20000000000000000000000000000000008152600083516120bf816010850160208801611bd9565b7f206973206e6f7420657175616c20746f2000000000000000000000000000000060109184019182015283516120fc816021840160208801611bd9565b01602101949350505050565b634e487b7160e01b600052603260045260246000fd5b60006020828403121561213057600080fd5b81516113c481611d2b565b6000602080830181845280855180835260408601915060408160051b870101925083870160005b8281101561219057603f1988860301845261217e858351611bfd565b94509285019290850190600101612162565b5092979650505050505050565b6020808252825182820181905260009190848201906040850190845b818110156121de5783516001600160a01b0316835292840192918401916001016121b9565b50909695505050505050565b7f417373657274696f6e4572726f723a200000000000000000000000000000000081527f20426f74682076616c7565732061726500000000000000000000000000000000601082015260008251612248816020850160208701611bd9565b9190910160200192915050565b6020808252825182820181905260009190848201906040850190845b818110156121de57835183529284019291840191600101612271565b634e487b7160e01b600052601160045260246000fd5b80820281158282048414176113c7576113c761228d565b808201808211156113c7576113c761228d565b6000816122dc576122dc61228d565b506000190190565b602081526000611cb36020830184611bfd565b6000600182016123095761230961228d565b5060010190565b6000602080838503121561232357600080fd5b825167ffffffffffffffff8082111561233b57600080fd5b818501915085601f83011261234f57600080fd5b815161235d611b3e82611e0d565b81815260059190911b8301840190848101908883111561237c57600080fd5b8585015b838110156123f0578051858111156123985760008081fd5b8601603f81018b136123aa5760008081fd5b8781015160406123bc611b3e83611af7565b8281528d828486010111156123d15760008081fd5b6123e0838c8301848701611bd9565b8652505050918601918601612380565b5098975050505050505050565b818103818111156113c7576113c761228d565b60008351612422818460208801611bd9565b835190830190612436818360208801611bd9565b7f2c200000000000000000000000000000000000000000000000000000000000009101908152600201949350505050565b60008351612479818460208801611bd9565b83519083019061248d818360208801611bd9565b7f5d000000000000000000000000000000000000000000000000000000000000009101908152600101949350505050565b6000826124db57634e487b7160e01b600052601260045260246000fd5b50049056fe417373657274696f6e4572726f723a20726573756c74206973206e6f742066616c7365417373657274696f6e4572726f723a20726573756c74206973206e6f74207472756553686f756c64207361766520616e642062652061626c6520746f20676574206661766f7269746573a264697066735822122069186a6d6727c5b0d731fa6657ebcb159de8492dfee15e85c7bd71ec9bddeaf564736f6c63430008110033",
  "devdoc": {
    "kind": "dev",
    "methods": {
      "approve(address,uint256)": {
        "details": "See {IERC721-approve}."
      },
      "balanceOf(address)": {
        "details": "See {IERC721-balanceOf}."
      },
      "getApproved(uint256)": {
        "details": "See {IERC721-getApproved}."
      },
      "isApprovedForAll(address,address)": {
        "details": "See {IERC721-isApprovedForAll}."
      },
      "name()": {
        "details": "See {IERC721Metadata-name}."
      },
      "owner()": {
        "details": "Returns the address of the current owner."
      },
      "ownerOf(uint256)": {
        "details": "See {IERC721-ownerOf}."
      },
      "renounceOwnership()": {
        "details": "Leaves the contract without owner. It will not be possible to call `onlyOwner` functions anymore. Can only be called by the current owner. NOTE: Renouncing ownership will leave the contract without an owner, thereby removing any functionality that is only available to the owner."
      },
      "safeTransferFrom(address,address,uint256)": {
        "details": "See {IERC721-safeTransferFrom}."
      },
      "safeTransferFrom(address,address,uint256,bytes)": {
        "details": "See {IERC721-safeTransferFrom}."
      },
      "setApprovalForAll(address,bool)": {
        "details": "See {IERC721-setApprovalForAll}."
      },
      "supportsInterface(bytes4)": {
        "details": "See {IERC165-supportsInterface}."
      },
      "symbol()": {
        "details": "See {IERC721Metadata-symbol}."
      },
      "transferFrom(address,address,uint256)": {
        "details": "See {IERC721-transferFrom}."
      },
      "transferOwnership(address)": {
        "details": "Transfers ownership of the contract to a new account (`newOwner`). Can only be called by the current owner."
      }
    },
    "version": 1
  },
  "userdoc": {
    "kind": "user",
    "methods": {
      "checkIfAllPassed((string,((bool,string,string,string,string)[],uint256))[])": {
        "notice": "Check each assert in each test to see if any failed. Note:  The check is here instead of setting a `passed` bool in `TestResult` to reduce the amount of code in each unit test."
      }
    },
    "version": 1
  },
  "storageLayout": {
    "storage": [
      {
        "astId": 882,
        "contract": "contracts/MappingsUT.sol:MappingsUT",
        "label": "_name",
        "offset": 0,
        "slot": "0",
        "type": "t_string_storage"
      },
      {
        "astId": 884,
        "contract": "contracts/MappingsUT.sol:MappingsUT",
        "label": "_symbol",
        "offset": 0,
        "slot": "1",
        "type": "t_string_storage"
      },
      {
        "astId": 888,
        "contract": "contracts/MappingsUT.sol:MappingsUT",
        "label": "_owners",
        "offset": 0,
        "slot": "2",
        "type": "t_mapping(t_uint256,t_address)"
      },
      {
        "astId": 892,
        "contract": "contracts/MappingsUT.sol:MappingsUT",
        "label": "_balances",
        "offset": 0,
        "slot": "3",
        "type": "t_mapping(t_address,t_uint256)"
      },
      {
        "astId": 896,
        "contract": "contracts/MappingsUT.sol:MappingsUT",
        "label": "_tokenApprovals",
        "offset": 0,
        "slot": "4",
        "type": "t_mapping(t_uint256,t_address)"
      },
      {
        "astId": 902,
        "contract": "contracts/MappingsUT.sol:MappingsUT",
        "label": "_operatorApprovals",
        "offset": 0,
        "slot": "5",
        "type": "t_mapping(t_address,t_mapping(t_address,t_bool))"
      },
      {
        "astId": 7,
        "contract": "contracts/MappingsUT.sol:MappingsUT",
        "label": "_owner",
        "offset": 0,
        "slot": "6",
        "type": "t_address"
      },
      {
        "astId": 123,
        "contract": "contracts/MappingsUT.sol:MappingsUT",
        "label": "_status",
        "offset": 0,
        "slot": "7",
        "type": "t_uint256"
      },
      {
        "astId": 6525,
        "contract": "contracts/MappingsUT.sol:MappingsUT",
        "label": "tokenIds",
        "offset": 0,
        "slot": "8",
        "type": "t_struct(Counter)2320_storage"
      },
      {
        "astId": 6529,
        "contract": "contracts/MappingsUT.sol:MappingsUT",
        "label": "owners",
        "offset": 0,
        "slot": "9",
        "type": "t_mapping(t_address,t_bool)"
      },
      {
        "astId": 6533,
        "contract": "contracts/MappingsUT.sol:MappingsUT",
        "label": "submittedContracts",
        "offset": 0,
        "slot": "10",
        "type": "t_mapping(t_address,t_bool)"
      },
      {
        "astId": 6536,
        "contract": "contracts/MappingsUT.sol:MappingsUT",
        "label": "active",
        "offset": 0,
        "slot": "11",
        "type": "t_bool"
      },
      {
        "astId": 6539,
        "contract": "contracts/MappingsUT.sol:MappingsUT",
        "label": "AllTokenURI",
        "offset": 0,
        "slot": "12",
        "type": "t_string_storage"
      },
      {
        "astId": 6559,
        "contract": "contracts/MappingsUT.sol:MappingsUT",
        "label": "tests",
        "offset": 0,
        "slot": "13",
        "type": "t_array(t_contract(ITest)6495)dyn_storage"
      },
      {
        "astId": 6563,
        "contract": "contracts/MappingsUT.sol:MappingsUT",
        "label": "deployer",
        "offset": 0,
        "slot": "14",
        "type": "t_contract(IDeploy)6506"
      }
    ],
    "types": {
      "t_address": {
        "encoding": "inplace",
        "label": "address",
        "numberOfBytes": "20"
      },
      "t_array(t_contract(ITest)6495)dyn_storage": {
        "base": "t_contract(ITest)6495",
        "encoding": "dynamic_array",
        "label": "contract ITest[]",
        "numberOfBytes": "32"
      },
      "t_bool": {
        "encoding": "inplace",
        "label": "bool",
        "numberOfBytes": "1"
      },
      "t_contract(IDeploy)6506": {
        "encoding": "inplace",
        "label": "contract IDeploy",
        "numberOfBytes": "20"
      },
      "t_contract(ITest)6495": {
        "encoding": "inplace",
        "label": "contract ITest",
        "numberOfBytes": "20"
      },
      "t_mapping(t_address,t_bool)": {
        "encoding": "mapping",
        "key": "t_address",
        "label": "mapping(address => bool)",
        "numberOfBytes": "32",
        "value": "t_bool"
      },
      "t_mapping(t_address,t_mapping(t_address,t_bool))": {
        "encoding": "mapping",
        "key": "t_address",
        "label": "mapping(address => mapping(address => bool))",
        "numberOfBytes": "32",
        "value": "t_mapping(t_address,t_bool)"
      },
      "t_mapping(t_address,t_uint256)": {
        "encoding": "mapping",
        "key": "t_address",
        "label": "mapping(address => uint256)",
        "numberOfBytes": "32",
        "value": "t_uint256"
      },
      "t_mapping(t_uint256,t_address)": {
        "encoding": "mapping",
        "key": "t_uint256",
        "label": "mapping(uint256 => address)",
        "numberOfBytes": "32",
        "value": "t_address"
      },
      "t_string_storage": {
        "encoding": "bytes",
        "label": "string",
        "numberOfBytes": "32"
      },
      "t_struct(Counter)2320_storage": {
        "encoding": "inplace",
        "label": "struct Counters.Counter",
        "members": [
          {
            "astId": 2319,
            "contract": "contracts/MappingsUT.sol:MappingsUT",
            "label": "_value",
            "offset": 0,
            "slot": "0",
            "type": "t_uint256"
          }
        ],
        "numberOfBytes": "32"
      },
      "t_uint256": {
        "encoding": "inplace",
        "label": "uint256",
        "numberOfBytes": "32"
      }
    }
  }
}