{
  "address": "0x15534ED3d1dBA55148695B2Ba4164F147E47a10c",
  "abi": [
    {
      "inputs": [
        {
          "internalType": "address",
          "name": "_secondCallerAddress",
          "type": "address"
        },
        {
          "internalType": "address",
          "name": "_thirdCallerAddress",
          "type": "address"
        },
        {
          "internalType": "address",
          "name": "_fourthCallerAddress",
          "type": "address"
        }
      ],
      "stateMutability": "nonpayable",
      "type": "constructor"
    },
    {
      "inputs": [],
      "name": "NotActive",
      "type": "error"
    },
    {
      "inputs": [],
      "name": "SoulboundToken",
      "type": "error"
    },
    {
      "anonymous": false,
      "inputs": [
        {
          "indexed": true,
          "internalType": "address",
          "name": "owner",
          "type": "address"
        },
        {
          "indexed": true,
          "internalType": "address",
          "name": "approved",
          "type": "address"
        },
        {
          "indexed": true,
          "internalType": "uint256",
          "name": "tokenId",
          "type": "uint256"
        }
      ],
      "name": "Approval",
      "type": "event"
    },
    {
      "anonymous": false,
      "inputs": [
        {
          "indexed": true,
          "internalType": "address",
          "name": "owner",
          "type": "address"
        },
        {
          "indexed": true,
          "internalType": "address",
          "name": "operator",
          "type": "address"
        },
        {
          "indexed": false,
          "internalType": "bool",
          "name": "approved",
          "type": "bool"
        }
      ],
      "name": "ApprovalForAll",
      "type": "event"
    },
    {
      "anonymous": false,
      "inputs": [
        {
          "indexed": true,
          "internalType": "address",
          "name": "previousOwner",
          "type": "address"
        },
        {
          "indexed": true,
          "internalType": "address",
          "name": "newOwner",
          "type": "address"
        }
      ],
      "name": "OwnershipTransferred",
      "type": "event"
    },
    {
      "anonymous": false,
      "inputs": [
        {
          "indexed": false,
          "internalType": "address",
          "name": "submission",
          "type": "address"
        },
        {
          "indexed": false,
          "internalType": "bool",
          "name": "passed",
          "type": "bool"
        },
        {
          "components": [
            {
              "internalType": "string",
              "name": "message",
              "type": "string"
            },
            {
              "components": [
                {
                  "components": [
                    {
                      "internalType": "bool",
                      "name": "passed",
                      "type": "bool"
                    },
                    {
                      "internalType": "string",
                      "name": "assertionError",
                      "type": "string"
                    },
                    {
                      "internalType": "string",
                      "name": "returnedAsString",
                      "type": "string"
                    },
                    {
                      "internalType": "string",
                      "name": "expectedAsString",
                      "type": "string"
                    },
                    {
                      "internalType": "string",
                      "name": "methodName",
                      "type": "string"
                    }
                  ],
                  "internalType": "struct Assert.AssertResult[]",
                  "name": "elements",
                  "type": "tuple[]"
                },
                {
                  "internalType": "uint256",
                  "name": "num",
                  "type": "uint256"
                }
              ],
              "internalType": "struct List.ARList",
              "name": "assertResults",
              "type": "tuple"
            }
          ],
          "indexed": false,
          "internalType": "struct Cafe.TestResult[]",
          "name": "testResults",
          "type": "tuple[]"
        }
      ],
      "name": "TestSuiteResult",
      "type": "event"
    },
    {
      "anonymous": false,
      "inputs": [
        {
          "indexed": true,
          "internalType": "address",
          "name": "from",
          "type": "address"
        },
        {
          "indexed": true,
          "internalType": "address",
          "name": "to",
          "type": "address"
        },
        {
          "indexed": true,
          "internalType": "uint256",
          "name": "tokenId",
          "type": "uint256"
        }
      ],
      "name": "Transfer",
      "type": "event"
    },
    {
      "inputs": [
        {
          "internalType": "address",
          "name": "to",
          "type": "address"
        },
        {
          "internalType": "uint256",
          "name": "tokenId",
          "type": "uint256"
        }
      ],
      "name": "approve",
      "outputs": [],
      "stateMutability": "nonpayable",
      "type": "function"
    },
    {
      "inputs": [
        {
          "internalType": "address",
          "name": "owner",
          "type": "address"
        }
      ],
      "name": "balanceOf",
      "outputs": [
        {
          "internalType": "uint256",
          "name": "",
          "type": "uint256"
        }
      ],
      "stateMutability": "view",
      "type": "function"
    },
    {
      "inputs": [
        {
          "components": [
            {
              "internalType": "string",
              "name": "message",
              "type": "string"
            },
            {
              "components": [
                {
                  "components": [
                    {
                      "internalType": "bool",
                      "name": "passed",
                      "type": "bool"
                    },
                    {
                      "internalType": "string",
                      "name": "assertionError",
                      "type": "string"
                    },
                    {
                      "internalType": "string",
                      "name": "returnedAsString",
                      "type": "string"
                    },
                    {
                      "internalType": "string",
                      "name": "expectedAsString",
                      "type": "string"
                    },
                    {
                      "internalType": "string",
                      "name": "methodName",
                      "type": "string"
                    }
                  ],
                  "internalType": "struct Assert.AssertResult[]",
                  "name": "elements",
                  "type": "tuple[]"
                },
                {
                  "internalType": "uint256",
                  "name": "num",
                  "type": "uint256"
                }
              ],
              "internalType": "struct List.ARList",
              "name": "assertResults",
              "type": "tuple"
            }
          ],
          "internalType": "struct Cafe.TestResult[]",
          "name": "_testResults",
          "type": "tuple[]"
        }
      ],
      "name": "checkIfAllPassed",
      "outputs": [
        {
          "internalType": "bool",
          "name": "",
          "type": "bool"
        }
      ],
      "stateMutability": "pure",
      "type": "function"
    },
    {
      "inputs": [
        {
          "internalType": "bytes",
          "name": "a",
          "type": "bytes"
        },
        {
          "internalType": "bytes",
          "name": "b",
          "type": "bytes"
        }
      ],
      "name": "equal",
      "outputs": [
        {
          "components": [
            {
              "internalType": "bool",
              "name": "passed",
              "type": "bool"
            },
            {
              "internalType": "string",
              "name": "assertionError",
              "type": "string"
            },
            {
              "internalType": "string",
              "name": "returnedAsString",
              "type": "string"
            },
            {
              "internalType": "string",
              "name": "expectedAsString",
              "type": "string"
            },
            {
              "internalType": "string",
              "name": "methodName",
              "type": "string"
            }
          ],
          "internalType": "struct Assert.AssertResult",
          "name": "result",
          "type": "tuple"
        }
      ],
      "stateMutability": "pure",
      "type": "function"
    },
    {
      "inputs": [
        {
          "internalType": "uint256",
          "name": "a",
          "type": "uint256"
        },
        {
          "internalType": "uint256",
          "name": "b",
          "type": "uint256"
        }
      ],
      "name": "equal",
      "outputs": [
        {
          "components": [
            {
              "internalType": "bool",
              "name": "passed",
              "type": "bool"
            },
            {
              "internalType": "string",
              "name": "assertionError",
              "type": "string"
            },
            {
              "internalType": "string",
              "name": "returnedAsString",
              "type": "string"
            },
            {
              "internalType": "string",
              "name": "expectedAsString",
              "type": "string"
            },
            {
              "internalType": "string",
              "name": "methodName",
              "type": "string"
            }
          ],
          "internalType": "struct Assert.AssertResult",
          "name": "result",
          "type": "tuple"
        }
      ],
      "stateMutability": "pure",
      "type": "function"
    },
    {
      "inputs": [
        {
          "internalType": "address",
          "name": "a",
          "type": "address"
        },
        {
          "internalType": "address",
          "name": "b",
          "type": "address"
        }
      ],
      "name": "equal",
      "outputs": [
        {
          "components": [
            {
              "internalType": "bool",
              "name": "passed",
              "type": "bool"
            },
            {
              "internalType": "string",
              "name": "assertionError",
              "type": "string"
            },
            {
              "internalType": "string",
              "name": "returnedAsString",
              "type": "string"
            },
            {
              "internalType": "string",
              "name": "expectedAsString",
              "type": "string"
            },
            {
              "internalType": "string",
              "name": "methodName",
              "type": "string"
            }
          ],
          "internalType": "struct Assert.AssertResult",
          "name": "result",
          "type": "tuple"
        }
      ],
      "stateMutability": "pure",
      "type": "function"
    },
    {
      "inputs": [
        {
          "internalType": "string",
          "name": "a",
          "type": "string"
        },
        {
          "internalType": "string",
          "name": "b",
          "type": "string"
        }
      ],
      "name": "equal",
      "outputs": [
        {
          "components": [
            {
              "internalType": "bool",
              "name": "passed",
              "type": "bool"
            },
            {
              "internalType": "string",
              "name": "assertionError",
              "type": "string"
            },
            {
              "internalType": "string",
              "name": "returnedAsString",
              "type": "string"
            },
            {
              "internalType": "string",
              "name": "expectedAsString",
              "type": "string"
            },
            {
              "internalType": "string",
              "name": "methodName",
              "type": "string"
            }
          ],
          "internalType": "struct Assert.AssertResult",
          "name": "result",
          "type": "tuple"
        }
      ],
      "stateMutability": "pure",
      "type": "function"
    },
    {
      "inputs": [
        {
          "internalType": "string[]",
          "name": "a",
          "type": "string[]"
        },
        {
          "internalType": "string[]",
          "name": "b",
          "type": "string[]"
        }
      ],
      "name": "equal",
      "outputs": [
        {
          "components": [
            {
              "internalType": "bool",
              "name": "passed",
              "type": "bool"
            },
            {
              "internalType": "string",
              "name": "assertionError",
              "type": "string"
            },
            {
              "internalType": "string",
              "name": "returnedAsString",
              "type": "string"
            },
            {
              "internalType": "string",
              "name": "expectedAsString",
              "type": "string"
            },
            {
              "internalType": "string",
              "name": "methodName",
              "type": "string"
            }
          ],
          "internalType": "struct Assert.AssertResult",
          "name": "result",
          "type": "tuple"
        }
      ],
      "stateMutability": "pure",
      "type": "function"
    },
    {
      "inputs": [
        {
          "internalType": "address[]",
          "name": "a",
          "type": "address[]"
        },
        {
          "internalType": "address[]",
          "name": "b",
          "type": "address[]"
        }
      ],
      "name": "equal",
      "outputs": [
        {
          "components": [
            {
              "internalType": "bool",
              "name": "passed",
              "type": "bool"
            },
            {
              "internalType": "string",
              "name": "assertionError",
              "type": "string"
            },
            {
              "internalType": "string",
              "name": "returnedAsString",
              "type": "string"
            },
            {
              "internalType": "string",
              "name": "expectedAsString",
              "type": "string"
            },
            {
              "internalType": "string",
              "name": "methodName",
              "type": "string"
            }
          ],
          "internalType": "struct Assert.AssertResult",
          "name": "result",
          "type": "tuple"
        }
      ],
      "stateMutability": "pure",
      "type": "function"
    },
    {
      "inputs": [
        {
          "internalType": "uint256[]",
          "name": "a",
          "type": "uint256[]"
        },
        {
          "internalType": "uint256[]",
          "name": "b",
          "type": "uint256[]"
        }
      ],
      "name": "equal",
      "outputs": [
        {
          "components": [
            {
              "internalType": "bool",
              "name": "passed",
              "type": "bool"
            },
            {
              "internalType": "string",
              "name": "assertionError",
              "type": "string"
            },
            {
              "internalType": "string",
              "name": "returnedAsString",
              "type": "string"
            },
            {
              "internalType": "string",
              "name": "expectedAsString",
              "type": "string"
            },
            {
              "internalType": "string",
              "name": "methodName",
              "type": "string"
            }
          ],
          "internalType": "struct Assert.AssertResult",
          "name": "result",
          "type": "tuple"
        }
      ],
      "stateMutability": "pure",
      "type": "function"
    },
    {
      "inputs": [
        {
          "internalType": "uint256",
          "name": "tokenId",
          "type": "uint256"
        }
      ],
      "name": "getApproved",
      "outputs": [
        {
          "internalType": "address",
          "name": "",
          "type": "address"
        }
      ],
      "stateMutability": "view",
      "type": "function"
    },
    {
      "inputs": [
        {
          "internalType": "address",
          "name": "owner",
          "type": "address"
        },
        {
          "internalType": "address",
          "name": "operator",
          "type": "address"
        }
      ],
      "name": "isApprovedForAll",
      "outputs": [
        {
          "internalType": "bool",
          "name": "",
          "type": "bool"
        }
      ],
      "stateMutability": "view",
      "type": "function"
    },
    {
      "inputs": [
        {
          "internalType": "bool",
          "name": "a",
          "type": "bool"
        }
      ],
      "name": "isFalse",
      "outputs": [
        {
          "components": [
            {
              "internalType": "bool",
              "name": "passed",
              "type": "bool"
            },
            {
              "internalType": "string",
              "name": "assertionError",
              "type": "string"
            },
            {
              "internalType": "string",
              "name": "returnedAsString",
              "type": "string"
            },
            {
              "internalType": "string",
              "name": "expectedAsString",
              "type": "string"
            },
            {
              "internalType": "string",
              "name": "methodName",
              "type": "string"
            }
          ],
          "internalType": "struct Assert.AssertResult",
          "name": "result",
          "type": "tuple"
        }
      ],
      "stateMutability": "pure",
      "type": "function"
    },
    {
      "inputs": [
        {
          "internalType": "bool",
          "name": "a",
          "type": "bool"
        }
      ],
      "name": "isTrue",
      "outputs": [
        {
          "components": [
            {
              "internalType": "bool",
              "name": "passed",
              "type": "bool"
            },
            {
              "internalType": "string",
              "name": "assertionError",
              "type": "string"
            },
            {
              "internalType": "string",
              "name": "returnedAsString",
              "type": "string"
            },
            {
              "internalType": "string",
              "name": "expectedAsString",
              "type": "string"
            },
            {
              "internalType": "string",
              "name": "methodName",
              "type": "string"
            }
          ],
          "internalType": "struct Assert.AssertResult",
          "name": "result",
          "type": "tuple"
        }
      ],
      "stateMutability": "pure",
      "type": "function"
    },
    {
      "inputs": [],
      "name": "name",
      "outputs": [
        {
          "internalType": "string",
          "name": "",
          "type": "string"
        }
      ],
      "stateMutability": "view",
      "type": "function"
    },
    {
      "inputs": [
        {
          "internalType": "address",
          "name": "a",
          "type": "address"
        },
        {
          "internalType": "address",
          "name": "b",
          "type": "address"
        }
      ],
      "name": "notEqual",
      "outputs": [
        {
          "components": [
            {
              "internalType": "bool",
              "name": "passed",
              "type": "bool"
            },
            {
              "internalType": "string",
              "name": "assertionError",
              "type": "string"
            },
            {
              "internalType": "string",
              "name": "returnedAsString",
              "type": "string"
            },
            {
              "internalType": "string",
              "name": "expectedAsString",
              "type": "string"
            },
            {
              "internalType": "string",
              "name": "methodName",
              "type": "string"
            }
          ],
          "internalType": "struct Assert.AssertResult",
          "name": "result",
          "type": "tuple"
        }
      ],
      "stateMutability": "pure",
      "type": "function"
    },
    {
      "inputs": [],
      "name": "owner",
      "outputs": [
        {
          "internalType": "address",
          "name": "",
          "type": "address"
        }
      ],
      "stateMutability": "view",
      "type": "function"
    },
    {
      "inputs": [
        {
          "internalType": "uint256",
          "name": "tokenId",
          "type": "uint256"
        }
      ],
      "name": "ownerOf",
      "outputs": [
        {
          "internalType": "address",
          "name": "",
          "type": "address"
        }
      ],
      "stateMutability": "view",
      "type": "function"
    },
    {
      "inputs": [
        {
          "internalType": "address",
          "name": "",
          "type": "address"
        }
      ],
      "name": "owners",
      "outputs": [
        {
          "internalType": "bool",
          "name": "",
          "type": "bool"
        }
      ],
      "stateMutability": "view",
      "type": "function"
    },
    {
      "inputs": [],
      "name": "renounceOwnership",
      "outputs": [],
      "stateMutability": "nonpayable",
      "type": "function"
    },
    {
      "inputs": [
        {
          "internalType": "address",
          "name": "from",
          "type": "address"
        },
        {
          "internalType": "address",
          "name": "to",
          "type": "address"
        },
        {
          "internalType": "uint256",
          "name": "tokenId",
          "type": "uint256"
        }
      ],
      "name": "safeTransferFrom",
      "outputs": [],
      "stateMutability": "nonpayable",
      "type": "function"
    },
    {
      "inputs": [
        {
          "internalType": "address",
          "name": "from",
          "type": "address"
        },
        {
          "internalType": "address",
          "name": "to",
          "type": "address"
        },
        {
          "internalType": "uint256",
          "name": "tokenId",
          "type": "uint256"
        },
        {
          "internalType": "bytes",
          "name": "data",
          "type": "bytes"
        }
      ],
      "name": "safeTransferFrom",
      "outputs": [],
      "stateMutability": "nonpayable",
      "type": "function"
    },
    {
      "inputs": [
        {
          "internalType": "bool",
          "name": "_setActiveTo",
          "type": "bool"
        }
      ],
      "name": "setActive",
      "outputs": [],
      "stateMutability": "nonpayable",
      "type": "function"
    },
    {
      "inputs": [
        {
          "internalType": "address",
          "name": "operator",
          "type": "address"
        },
        {
          "internalType": "bool",
          "name": "approved",
          "type": "bool"
        }
      ],
      "name": "setApprovalForAll",
      "outputs": [],
      "stateMutability": "nonpayable",
      "type": "function"
    },
    {
      "inputs": [
        {
          "internalType": "string",
          "name": "_tokenURI",
          "type": "string"
        }
      ],
      "name": "setTokenURI",
      "outputs": [],
      "stateMutability": "nonpayable",
      "type": "function"
    },
    {
      "inputs": [
        {
          "internalType": "bytes4",
          "name": "interfaceId",
          "type": "bytes4"
        }
      ],
      "name": "supportsInterface",
      "outputs": [
        {
          "internalType": "bool",
          "name": "",
          "type": "bool"
        }
      ],
      "stateMutability": "view",
      "type": "function"
    },
    {
      "inputs": [],
      "name": "symbol",
      "outputs": [
        {
          "internalType": "string",
          "name": "",
          "type": "string"
        }
      ],
      "stateMutability": "view",
      "type": "function"
    },
    {
      "inputs": [
        {
          "internalType": "address",
          "name": "_submissionAddress",
          "type": "address"
        }
      ],
      "name": "testContract",
      "outputs": [],
      "stateMutability": "nonpayable",
      "type": "function"
    },
    {
      "inputs": [],
      "name": "tokenIds",
      "outputs": [
        {
          "internalType": "uint256",
          "name": "_value",
          "type": "uint256"
        }
      ],
      "stateMutability": "view",
      "type": "function"
    },
    {
      "inputs": [
        {
          "internalType": "uint256",
          "name": "",
          "type": "uint256"
        }
      ],
      "name": "tokenURI",
      "outputs": [
        {
          "internalType": "string",
          "name": "",
          "type": "string"
        }
      ],
      "stateMutability": "view",
      "type": "function"
    },
    {
      "inputs": [
        {
          "internalType": "address",
          "name": "from",
          "type": "address"
        },
        {
          "internalType": "address",
          "name": "to",
          "type": "address"
        },
        {
          "internalType": "uint256",
          "name": "tokenId",
          "type": "uint256"
        }
      ],
      "name": "transferFrom",
      "outputs": [],
      "stateMutability": "nonpayable",
      "type": "function"
    },
    {
      "inputs": [
        {
          "internalType": "address",
          "name": "newOwner",
          "type": "address"
        }
      ],
      "name": "transferOwnership",
      "outputs": [],
      "stateMutability": "nonpayable",
      "type": "function"
    }
  ],
  "transactionHash": "0xed8b351a5e57459d7cdfe8f8cbcaec30984deac6986c3317cdcde1bb50c86a7c",
  "args": [
    "0x17a4405c9ECf0a9F9aB9dB3d842A97127884C6e5",
    "0x6E48A8BA76B70e3D3f9Bf6e86909018aB55aBb85",
    "0xf7f7adCE0a37652B7FeC025b20Dc6510485ACcCd"
  ],
  "numDeployments": 1,
  "solcInputHash": "6a581879d712a9c25e4fb247f22274cf",
  "bytecode": "0x600b805460ff1916600117905560a060405260006080908152600c9062000027908262000300565b503480156200003557600080fd5b506040516200943e3803806200943e8339810160408190526200005891620003e9565b6040518060400160405280600e81526020016d29a1a21022a9219b9918902834b760911b8152506040518060400160405280600981526020016853434445524337323160b81b8152508160009081620000b2919062000300565b506001620000c1828262000300565b505050620000de620000d8620001e760201b60201c565b620001eb565b6001600755604051600d908490620000f6906200023d565b6001600160a01b039091168152602001604051809103906000f08015801562000123573d6000803e3d6000fd5b5081546001810183556000928352602090922090910180546001600160a01b0319166001600160a01b03909216919091179055604051600d908490849084906200016d906200024b565b6001600160a01b03938416815291831660208301529091166040820152606001604051809103906000f080158015620001aa573d6000803e3d6000fd5b5081546001810183556000928352602090922090910180546001600160a01b0319166001600160a01b039092169190911790555062000433915050565b3390565b600680546001600160a01b038381166001600160a01b0319831681179093556040519116919082907f8be0079c531659141344cd1fd0a4f28419497f9722a3daafe3b4186f6b6457e090600090a35050565b6124788062003dd483390190565b6131f2806200624c83390190565b634e487b7160e01b600052604160045260246000fd5b600181811c908216806200028457607f821691505b602082108103620002a557634e487b7160e01b600052602260045260246000fd5b50919050565b601f821115620002fb576000816000526020600020601f850160051c81016020861015620002d65750805b601f850160051c820191505b81811015620002f757828155600101620002e2565b5050505b505050565b81516001600160401b038111156200031c576200031c62000259565b62000334816200032d84546200026f565b84620002ab565b602080601f8311600181146200036c5760008415620003535750858301515b600019600386901b1c1916600185901b178555620002f7565b600085815260208120601f198616915b828110156200039d578886015182559484019460019091019084016200037c565b5085821015620003bc5787850151600019600388901b60f8161c191681555b5050505050600190811b01905550565b80516001600160a01b0381168114620003e457600080fd5b919050565b600080600060608486031215620003ff57600080fd5b6200040a84620003cc565b92506200041a60208501620003cc565b91506200042a60408501620003cc565b90509250925092565b61399180620004436000396000f3fe608060405234801561001057600080fd5b50600436106101f05760003560e01c806370a082311161010f578063b88d4fde116100a2578063e7da4c7e11610071578063e7da4c7e14610431578063e985e9c514610444578063f2fde38b14610480578063fa084b9b1461049357600080fd5b8063b88d4fde146103e5578063c87b56dd146103f8578063d70968e71461040b578063e0df5b6f1461041e57600080fd5b80638da5cb5b116100de5780638da5cb5b146103a657806395d89b41146103b7578063a22cb465146103bf578063acec338a146103d257600080fd5b806370a0823114610360578063714cff5614610381578063715018a61461038b57806374f130701461039357600080fd5b8063301916261161018757806346bdca9a1161015657806346bdca9a146102a857806360fb55d5146103275780636352211e1461033a5780636df864781461034d57600080fd5b806330191626146102db57806331495d33146102ee578063410dbb8b1461030157806342842e0e1461031457600080fd5b8063081812fc116101c3578063081812fc1461026a578063095ea7b314610295578063235266d2146102a857806323b872dd146102c857600080fd5b806301ffc9a7146101f5578063022914a71461021d57806306d82f291461024057806306fdde0314610255575b600080fd5b610208610203366004612688565b6104a6565b60405190151581526020015b60405180910390f35b61020861022b3660046126ba565b60096020526000908152604090205460ff1681565b61025361024e3660046126ba565b610543565b005b61025d6107fe565b6040516102149190612727565b61027d61027836600461273a565b610890565b6040516001600160a01b039091168152602001610214565b6102536102a3366004612753565b6108b7565b6102bb6102b6366004612890565b610a0b565b604051610214919061296b565b6102536102d636600461297e565b610aba565b6102bb6102e93660046129bf565b610b31565b6102bb6102fc3660046129e1565b610beb565b6102bb61030f366004612a38565b610cbc565b61025361032236600461297e565b610dbc565b6102bb610335366004612b04565b610dd7565b61027d61034836600461273a565b610eb3565b6102bb61035b366004612bc6565b610f18565b61037361036e3660046126ba565b610ff4565b604051908152602001610214565b6008546103739081565b61025361108e565b6102bb6103a1366004612a38565b6110a2565b6006546001600160a01b031661027d565b61025d6111a3565b6102536103cd366004612c20565b6111b2565b6102536103e0366004612a38565b6111c1565b6102536103f3366004612c4e565b6111dc565b61025d61040636600461273a565b611254565b6102bb6104193660046129e1565b6112e8565b61025361042c366004612cba565b6113af565b6102bb61043f366004612d4e565b6113c3565b6102086104523660046129e1565b6001600160a01b03918216600090815260056020908152604080832093909416825291909152205460ff1690565b61025361048e3660046126ba565b61149f565b6102086104a1366004612da8565b61152f565b60006001600160e01b031982167f80ac58cd00000000000000000000000000000000000000000000000000000000148061050957506001600160e01b031982167f5b5e139f00000000000000000000000000000000000000000000000000000000145b8061053d57507f01ffc9a7000000000000000000000000000000000000000000000000000000006001600160e01b03198316145b92915050565b600b5460ff1661057f576040517f80cb55e200000000000000000000000000000000000000000000000000000000815260040160405180910390fd5b600e5460609060009083906001600160a01b0316156106bb57600d546105a69060016130e5565b67ffffffffffffffff8111156105be576105be61277f565b6040519080825280602002602001820160405280156105f757816020015b6105e461263e565b8152602001906001900390816105dc5790505b50925081610604816130f8565b600e546040517f4c96a3890000000000000000000000000000000000000000000000000000000081526001600160a01b03888116600483015292955091169150634c96a389906024016000604051808303816000875af115801561066c573d6000803e3d6000fd5b505050506040513d6000823e601f3d908101601f191682016040526106949190810190613328565b846000815181106106a7576106a761336f565b602002602001018193508290525050610713565b600d5467ffffffffffffffff8111156106d6576106d661277f565b60405190808252806020026020018201604052801561070f57816020015b6106fc61263e565b8152602001906001900390816106f45790505b5092505b600d548210156107ee57600d82815481106107305761073061336f565b6000918252602090912001546040517f4b64e4920000000000000000000000000000000000000000000000000000000081526001600160a01b03838116600483015290911690634b64e492906024016000604051808303816000875af115801561079e573d6000803e3d6000fd5b505050506040513d6000823e601f3d908101601f191682016040526107c69190810190613385565b8383815181106107d8576107d861336f565b6020908102919091010152600190910190610713565b6107f884846115cf565b50505050565b60606000805461080d906133ba565b80601f0160208091040260200160405190810160405280929190818152602001828054610839906133ba565b80156108865780601f1061085b57610100808354040283529160200191610886565b820191906000526020600020905b81548152906001019060200180831161086957829003601f168201915b5050505050905090565b600061089b826116d6565b506000908152600460205260409020546001600160a01b031690565b60006108c282610eb3565b9050806001600160a01b0316836001600160a01b0316036109505760405162461bcd60e51b815260206004820152602160248201527f4552433732313a20617070726f76616c20746f2063757272656e74206f776e6560448201527f720000000000000000000000000000000000000000000000000000000000000060648201526084015b60405180910390fd5b336001600160a01b038216148061098a57506001600160a01b038116600090815260056020908152604080832033845290915290205460ff165b6109fc5760405162461bcd60e51b815260206004820152603d60248201527f4552433732313a20617070726f76652063616c6c6572206973206e6f7420746f60448201527f6b656e206f776e6572206f7220617070726f76656420666f7220616c6c0000006064820152608401610947565b610a06838361173a565b505050565b610a3f6040518060a00160405280600015158152602001606081526020016060815260200160608152602001606081525090565b815160208084019190912084519185019190912014808252610a84578282604051602001610a6e9291906133f4565b60408051601f1981840301815291905260208201525b604080820193909352606081019190915281518083019092526005825264195c5d585b60da1b6020830152608081019190915290565b610ac433826117b5565b610b265760405162461bcd60e51b815260206004820152602d60248201527f4552433732313a2063616c6c6572206973206e6f7420746f6b656e206f776e6560448201526c1c881bdc88185c1c1c9bdd9959609a1b6064820152608401610947565b610a06838383611834565b610b656040518060a00160405280600015158152602001606081526020016060815260200160608152602001606081525090565b828214808252610ba857610b7883611a47565b610b8183611a47565b604051602001610b929291906133f4565b60408051601f1981840301815291905260208201525b610bb183611a47565b6040820152610bbf82611a47565b6060820152604080518082019091526005815264195c5d585b60da1b6020820152608082015292915050565b610c1f6040518060a00160405280600015158152602001606081526020016060815260200160608152602001606081525090565b6001600160a01b0383811690831681148252600090610c3f906014611ae7565b90506000610c57846001600160a01b03166014611ae7565b8351909150610c89578181604051602001610c739291906133f4565b60408051601f1981840301815291905260208401525b604080840192909252606083015280518082019091526005815264195c5d585b60da1b6020820152608082015292915050565b610cf06040518060a00160405280600015158152602001606081526020016060815260200160608152602001606081525090565b8115808252610d18576040518060600160405280602381526020016139176023913960208201525b600182151514610d45576040518060400160405280600581526020016466616c736560d81b815250610d63565b604051806040016040528060048152602001637472756560e01b8152505b6040808301919091528051602080820183526000825260608401919091528151808301909252600782527f697346616c736500000000000000000000000000000000000000000000000000908201526080820152919050565b610a06838383604051806020016040528060008152506111dc565b610e0b6040518060a00160405280600015158152602001606081526020016060815260200160608152602001606081525090565b81604051602001610e1c9190613475565b6040516020818303038152906040528051906020012083604051602001610e439190613475565b60408051601f19818403018152919052805160209091012014808252610e9c57610e6c83611ccf565b610e7583611ccf565b604051602001610e869291906133f4565b60408051601f1981840301815291905260208201525b610ea583611ccf565b6040820152610bbf82611ccf565b6000818152600260205260408120546001600160a01b03168061053d5760405162461bcd60e51b815260206004820152601860248201527f4552433732313a20696e76616c696420746f6b656e20494400000000000000006044820152606401610947565b610f4c6040518060a00160405280600015158152602001606081526020016060815260200160608152602001606081525090565b81604051602001610f5d91906134d9565b6040516020818303038152906040528051906020012083604051602001610f8491906134d9565b60408051601f19818403018152919052805160209091012014808252610fdd57610fad83611d9a565b610fb683611d9a565b604051602001610fc79291906133f4565b60408051601f1981840301815291905260208201525b610fe683611d9a565b6040820152610bbf82611d9a565b60006001600160a01b0382166110725760405162461bcd60e51b815260206004820152602960248201527f4552433732313a2061646472657373207a65726f206973206e6f74206120766160448201527f6c6964206f776e657200000000000000000000000000000000000000000000006064820152608401610947565b506001600160a01b031660009081526003602052604090205490565b611096611e6c565b6110a06000611ec6565b565b6110d66040518060a00160405280600015158152602001606081526020016060815260200160608152602001606081525090565b8115158082526110ff5760405180606001604052806022815260200161393a6022913960208201525b60018215151461112c576040518060400160405280600581526020016466616c736560d81b81525061114a565b604051806040016040528060048152602001637472756560e01b8152505b6040808301919091528051602080820183526000825260608401919091528151808301909252600682527f6973547275650000000000000000000000000000000000000000000000000000908201526080820152919050565b60606001805461080d906133ba565b6111bd338383611f25565b5050565b6111c9611e6c565b600b805460ff1916911515919091179055565b6111e633836117b5565b6112485760405162461bcd60e51b815260206004820152602d60248201527f4552433732313a2063616c6c6572206973206e6f7420746f6b656e206f776e6560448201526c1c881bdc88185c1c1c9bdd9959609a1b6064820152608401610947565b6107f884848484611ff3565b6060600c8054611263906133ba565b80601f016020809104026020016040519081016040528092919081815260200182805461128f906133ba565b80156112dc5780601f106112b1576101008083540402835291602001916112dc565b820191906000526020600020905b8154815290600101906020018083116112bf57829003601f168201915b50505050509050919050565b61131c6040518060a00160405280600015158152602001606081526020016060815260200160608152602001606081525090565b6001600160a01b03838116908316811415825260009061133d906014611ae7565b825190915061136d57806040516020016113579190613526565b60408051601f1981840301815291905260208301525b60408083019190915280516020808201835260008252606084019190915281518083019092526005825264195c5d585b60da1b90820152608082015292915050565b6113b7611e6c565b600c6111bd82826135e1565b6113f76040518060a00160405280600015158152602001606081526020016060815260200160608152602001606081525090565b8160405160200161140891906136a1565b604051602081830303815290604052805190602001208360405160200161142f91906136a1565b60408051601f198184030181529190528051602090910120148082526114885761145883612071565b61146183612071565b6040516020016114729291906133f4565b60408051601f1981840301815291905260208201525b61149183612071565b6040820152610bbf82612071565b6114a7611e6c565b6001600160a01b0381166115235760405162461bcd60e51b815260206004820152602660248201527f4f776e61626c653a206e6577206f776e657220697320746865207a65726f206160448201527f64647265737300000000000000000000000000000000000000000000000000006064820152608401610947565b61152c81611ec6565b50565b6000805b82518110156115c65760005b8382815181106115515761155161336f565b602002602001015160200151602001518110156115bd5783828151811061157a5761157a61336f565b60200260200101516020015160000151818151811061159b5761159b61336f565b6020026020010151600001516115b5575060009392505050565b60010161153f565b50600101611533565b50600192915050565b6115d7612138565b60006115e28261152f565b90507f53d51c5f8eaf1bdbf1288871cbf97a9295da23a9868b15b526b4256ede348db9838284604051611617939291906136d9565b60405180910390a16001600160a01b0383166000908152600a602052604090205460ff1615801561165857503360009081526009602052604090205460ff16155b80156116615750805b156116a857611674600880546001019055565b600061167f60085490565b336000818152600960205260409020805460ff191660011790559091506116a69082612191565b505b506001600160a01b0382166000908152600a60205260409020805460ff191660011790556111bd6001600755565b6000818152600260205260409020546001600160a01b031661152c5760405162461bcd60e51b815260206004820152601860248201527f4552433732313a20696e76616c696420746f6b656e20494400000000000000006044820152606401610947565b6000818152600460205260409020805473ffffffffffffffffffffffffffffffffffffffff19166001600160a01b038416908117909155819061177c82610eb3565b6001600160a01b03167f8c5be1e5ebec7d5bd14f71427d1e84f3dd0314c0f7b2291e5b200ac8c7c3b92560405160405180910390a45050565b6000806117c183610eb3565b9050806001600160a01b0316846001600160a01b0316148061180857506001600160a01b0380821660009081526005602090815260408083209388168352929052205460ff165b8061182c5750836001600160a01b031661182184610890565b6001600160a01b0316145b949350505050565b826001600160a01b031661184782610eb3565b6001600160a01b0316146118ab5760405162461bcd60e51b815260206004820152602560248201527f4552433732313a207472616e736665722066726f6d20696e636f72726563742060448201526437bbb732b960d91b6064820152608401610947565b6001600160a01b0382166119265760405162461bcd60e51b8152602060048201526024808201527f4552433732313a207472616e7366657220746f20746865207a65726f2061646460448201527f72657373000000000000000000000000000000000000000000000000000000006064820152608401610947565b61193383838360016121ab565b826001600160a01b031661194682610eb3565b6001600160a01b0316146119aa5760405162461bcd60e51b815260206004820152602560248201527f4552433732313a207472616e736665722066726f6d20696e636f72726563742060448201526437bbb732b960d91b6064820152608401610947565b6000818152600460209081526040808320805473ffffffffffffffffffffffffffffffffffffffff199081169091556001600160a01b0387811680865260038552838620805460001901905590871680865283862080546001019055868652600290945282852080549092168417909155905184937fddf252ad1be2c89b69c2b068fc378daa952ba7f163c4a11628f55a4df523b3ef91a4505050565b60606000611a54836121ec565b600101905060008167ffffffffffffffff811115611a7457611a7461277f565b6040519080825280601f01601f191660200182016040528015611a9e576020820181803683370190505b5090508181016020015b600019017f3031323334353637383961626364656600000000000000000000000000000000600a86061a8153600a8504945084611aa857509392505050565b60606000611af68360026137ce565b611b019060026130e5565b67ffffffffffffffff811115611b1957611b1961277f565b6040519080825280601f01601f191660200182016040528015611b43576020820181803683370190505b5090507f300000000000000000000000000000000000000000000000000000000000000081600081518110611b7a57611b7a61336f565b60200101906001600160f81b031916908160001a9053507f780000000000000000000000000000000000000000000000000000000000000081600181518110611bc557611bc561336f565b60200101906001600160f81b031916908160001a9053506000611be98460026137ce565b611bf49060016130e5565b90505b6001811115611c79577f303132333435363738396162636465660000000000000000000000000000000085600f1660108110611c3557611c3561336f565b1a60f81b828281518110611c4b57611c4b61336f565b60200101906001600160f81b031916908160001a90535060049490941c93611c72816137e5565b9050611bf7565b508315611cc85760405162461bcd60e51b815260206004820181905260248201527f537472696e67733a20686578206c656e67746820696e73756666696369656e746044820152606401610947565b9392505050565b6040805180820190915260018152605b60f81b602082015260609060005b8351811015611d935760018451611d0491906137fc565b811015611d4d5781848281518110611d1e57611d1e61336f565b6020026020010151604051602001611d3792919061380f565b6040516020818303038152906040529150611d8b565b81848281518110611d6057611d6061336f565b6020026020010151604051602001611d79929190613866565b60405160208183030381529060405291505b600101611ced565b5092915050565b6040805180820190915260018152605b60f81b602082015260609060005b8351811015611d935760018451611dcf91906137fc565b811015611e2b5781611e04858381518110611dec57611dec61336f565b60200260200101516001600160a01b03166014611ae7565b604051602001611e1592919061380f565b6040516020818303038152906040529150611e64565b81611e41858381518110611dec57611dec61336f565b604051602001611e52929190613866565b60405160208183030381529060405291505b600101611db8565b6006546001600160a01b031633146110a05760405162461bcd60e51b815260206004820181905260248201527f4f776e61626c653a2063616c6c6572206973206e6f7420746865206f776e65726044820152606401610947565b600680546001600160a01b0383811673ffffffffffffffffffffffffffffffffffffffff19831681179093556040519116919082907f8be0079c531659141344cd1fd0a4f28419497f9722a3daafe3b4186f6b6457e090600090a35050565b816001600160a01b0316836001600160a01b031603611f865760405162461bcd60e51b815260206004820152601960248201527f4552433732313a20617070726f766520746f2063616c6c6572000000000000006044820152606401610947565b6001600160a01b03838116600081815260056020908152604080832094871680845294825291829020805460ff191686151590811790915591519182527f17307eab39ab6107e8899845ad3d59bd9653f200f220920489ca2b5937696c31910160405180910390a3505050565b611ffe848484611834565b61200a848484846122ce565b6107f85760405162461bcd60e51b815260206004820152603260248201527f4552433732313a207472616e7366657220746f206e6f6e20455243373231526560448201527131b2b4bb32b91034b6b83632b6b2b73a32b960711b6064820152608401610947565b6040805180820190915260018152605b60f81b602082015260609060005b8351811015611d9357600184516120a691906137fc565b8110156120f757816120d08583815181106120c3576120c361336f565b6020026020010151611a47565b6040516020016120e192919061380f565b6040516020818303038152906040529150612130565b8161210d8583815181106120c3576120c361336f565b60405160200161211e929190613866565b60405160208183030381529060405291505b60010161208f565b60026007540361218a5760405162461bcd60e51b815260206004820152601f60248201527f5265656e7472616e637947756172643a207265656e7472616e742063616c6c006044820152606401610947565b6002600755565b6111bd82826040518060200160405280600081525061241a565b6001600160a01b038416156107f8576040517f6e10574900000000000000000000000000000000000000000000000000000000815260040160405180910390fd5b6000807a184f03e93ff9f4daa797ed6e38ed64bf6a1f0100000000000000008310612235577a184f03e93ff9f4daa797ed6e38ed64bf6a1f010000000000000000830492506040015b6d04ee2d6d415b85acef81000000008310612261576d04ee2d6d415b85acef8100000000830492506020015b662386f26fc10000831061227f57662386f26fc10000830492506010015b6305f5e1008310612297576305f5e100830492506008015b61271083106122ab57612710830492506004015b606483106122bd576064830492506002015b600a831061053d5760010192915050565b60006001600160a01b0384163b1561240f57604051630a85bd0160e11b81526001600160a01b0385169063150b7a02906123129033908990889088906004016138bd565b6020604051808303816000875af192505050801561234d575060408051601f3d908101601f1916820190925261234a918101906138f9565b60015b6123f5573d80801561237b576040519150601f19603f3d011682016040523d82523d6000602084013e612380565b606091505b5080516000036123ed5760405162461bcd60e51b815260206004820152603260248201527f4552433732313a207472616e7366657220746f206e6f6e20455243373231526560448201527131b2b4bb32b91034b6b83632b6b2b73a32b960711b6064820152608401610947565b805181602001fd5b6001600160e01b031916630a85bd0160e11b14905061182c565b506001949350505050565b6124248383612498565b61243160008484846122ce565b610a065760405162461bcd60e51b815260206004820152603260248201527f4552433732313a207472616e7366657220746f206e6f6e20455243373231526560448201527131b2b4bb32b91034b6b83632b6b2b73a32b960711b6064820152608401610947565b6001600160a01b0382166124ee5760405162461bcd60e51b815260206004820181905260248201527f4552433732313a206d696e7420746f20746865207a65726f20616464726573736044820152606401610947565b6000818152600260205260409020546001600160a01b0316156125535760405162461bcd60e51b815260206004820152601c60248201527f4552433732313a20746f6b656e20616c7265616479206d696e746564000000006044820152606401610947565b6125616000838360016121ab565b6000818152600260205260409020546001600160a01b0316156125c65760405162461bcd60e51b815260206004820152601c60248201527f4552433732313a20746f6b656e20616c7265616479206d696e746564000000006044820152606401610947565b6001600160a01b0382166000818152600360209081526040808320805460010190558483526002909152808220805473ffffffffffffffffffffffffffffffffffffffff19168417905551839291907fddf252ad1be2c89b69c2b068fc378daa952ba7f163c4a11628f55a4df523b3ef908290a45050565b60405180604001604052806060815260200161266d604051806040016040528060608152602001600081525090565b905290565b6001600160e01b03198116811461152c57600080fd5b60006020828403121561269a57600080fd5b8135611cc881612672565b6001600160a01b038116811461152c57600080fd5b6000602082840312156126cc57600080fd5b8135611cc8816126a5565b60005b838110156126f25781810151838201526020016126da565b50506000910152565b600081518084526127138160208601602086016126d7565b601f01601f19169290920160200192915050565b602081526000611cc860208301846126fb565b60006020828403121561274c57600080fd5b5035919050565b6000806040838503121561276657600080fd5b8235612771816126a5565b946020939093013593505050565b634e487b7160e01b600052604160045260246000fd5b6040805190810167ffffffffffffffff811182821017156127b8576127b861277f565b60405290565b60405160a0810167ffffffffffffffff811182821017156127b8576127b861277f565b604051601f8201601f1916810167ffffffffffffffff8111828210171561280a5761280a61277f565b604052919050565b600067ffffffffffffffff82111561282c5761282c61277f565b50601f01601f191660200190565b600082601f83011261284b57600080fd5b813561285e61285982612812565b6127e1565b81815284602083860101111561287357600080fd5b816020850160208301376000918101602001919091529392505050565b600080604083850312156128a357600080fd5b823567ffffffffffffffff808211156128bb57600080fd5b6128c78683870161283a565b935060208501359150808211156128dd57600080fd5b506128ea8582860161283a565b9150509250929050565b8051151582526000602082015160a0602085015261291560a08501826126fb565b90506040830151848203604086015261292e82826126fb565b9150506060830151848203606086015261294882826126fb565b9150506080830151848203608086015261296282826126fb565b95945050505050565b602081526000611cc860208301846128f4565b60008060006060848603121561299357600080fd5b833561299e816126a5565b925060208401356129ae816126a5565b929592945050506040919091013590565b600080604083850312156129d257600080fd5b50508035926020909101359150565b600080604083850312156129f457600080fd5b82356129ff816126a5565b91506020830135612a0f816126a5565b809150509250929050565b801515811461152c57600080fd5b8035612a3381612a1a565b919050565b600060208284031215612a4a57600080fd5b8135611cc881612a1a565b600067ffffffffffffffff821115612a6f57612a6f61277f565b5060051b60200190565b600082601f830112612a8a57600080fd5b81356020612a9a61285983612a55565b82815260059290921b84018101918181019086841115612ab957600080fd5b8286015b84811015612af957803567ffffffffffffffff811115612add5760008081fd5b612aeb8986838b010161283a565b845250918301918301612abd565b509695505050505050565b60008060408385031215612b1757600080fd5b823567ffffffffffffffff80821115612b2f57600080fd5b612b3b86838701612a79565b93506020850135915080821115612b5157600080fd5b506128ea85828601612a79565b600082601f830112612b6f57600080fd5b81356020612b7f61285983612a55565b8083825260208201915060208460051b870101935086841115612ba157600080fd5b602086015b84811015612af9578035612bb9816126a5565b8352918301918301612ba6565b60008060408385031215612bd957600080fd5b823567ffffffffffffffff80821115612bf157600080fd5b612bfd86838701612b5e565b93506020850135915080821115612c1357600080fd5b506128ea85828601612b5e565b60008060408385031215612c3357600080fd5b8235612c3e816126a5565b91506020830135612a0f81612a1a565b60008060008060808587031215612c6457600080fd5b8435612c6f816126a5565b93506020850135612c7f816126a5565b925060408501359150606085013567ffffffffffffffff811115612ca257600080fd5b612cae8782880161283a565b91505092959194509250565b600060208284031215612ccc57600080fd5b813567ffffffffffffffff811115612ce357600080fd5b61182c8482850161283a565b600082601f830112612d0057600080fd5b81356020612d1061285983612a55565b8083825260208201915060208460051b870101935086841115612d3257600080fd5b602086015b84811015612af95780358352918301918301612d37565b60008060408385031215612d6157600080fd5b823567ffffffffffffffff80821115612d7957600080fd5b612d8586838701612cef565b93506020850135915080821115612d9b57600080fd5b506128ea85828601612cef565b600060208284031215612dba57600080fd5b67ffffffffffffffff82351115612dd057600080fd5b82601f833584010112612de257600080fd5b612df26128598335840135612a55565b8235830180358083526020808401939260059290921b90910101851015612e1857600080fd5b602084358501015b84358501803560051b016020018110156130c65767ffffffffffffffff81351115612e4a57600080fd5b6040853586018235018703601f19011215612e6457600080fd5b612e6c612795565b67ffffffffffffffff60208335883589010101351115612e8b57600080fd5b612ea3876020843589358a010181810135010161283a565b815267ffffffffffffffff60408335883589010101351115612ec457600080fd5b60408635870183350180820135018803601f19011215612ee357600080fd5b612eeb612795565b67ffffffffffffffff87358801843501604081013501602001351115612f1057600080fd5b86358701833501604081013501602081013501603f81018913612f3257600080fd5b612f426128596020830135612a55565b602082810135808352908201919060051b83016040018b1015612f6457600080fd5b604083015b6040602085013560051b8501018110156130945767ffffffffffffffff81351115612f9357600080fd5b8035840160a0818e03603f19011215612fab57600080fd5b612fb36127be565b612fbf60408301612a28565b815267ffffffffffffffff60608301351115612fda57600080fd5b612fed8e6040606085013585010161283a565b602082015267ffffffffffffffff6080830135111561300b57600080fd5b61301e8e6040608085013585010161283a565b604082015267ffffffffffffffff60a0830135111561303c57600080fd5b61304f8e604060a085013585010161283a565b606082015267ffffffffffffffff60c0830135111561306d57600080fd5b6130808e604060c085013585010161283a565b608082015284525060209283019201612f69565b508352505060408335883589010181810135010135602080830191909152828101919091529084529283019201612e20565b50949350505050565b634e487b7160e01b600052601160045260246000fd5b8082018082111561053d5761053d6130cf565b60006001820161310a5761310a6130cf565b5060010190565b600082601f83011261312257600080fd5b815161313061285982612812565b81815284602083860101111561314557600080fd5b61182c8260208301602087016126d7565b8051612a3381612a1a565b60006040828403121561317357600080fd5b61317b612795565b9050815167ffffffffffffffff8082111561319557600080fd5b6131a185838601613111565b83526020915081840151818111156131b857600080fd5b8401604081870312156131ca57600080fd5b6131d2612795565b8151838111156131e157600080fd5b8201601f810188136131f257600080fd5b805161320061285982612a55565b81815260059190911b8201860190868101908a83111561321f57600080fd5b8784015b8381101561330c5780518881111561323a57600080fd5b850160a0818e03601f1901121561325057600080fd5b6132586127be565b6132638b8301613156565b815260408201518a81111561327757600080fd5b6132858f8d83860101613111565b8c8301525060608201518a81111561329c57600080fd5b6132aa8f8d83860101613111565b60408301525060808201518a8111156132c35760008081fd5b6132d18f8d83860101613111565b60608301525060a08201518a8111156132ea5760008081fd5b6132f88f8d83860101613111565b608083015250845250918801918801613223565b5084525050509083015183820152918301919091525092915050565b6000806040838503121561333b57600080fd5b825167ffffffffffffffff81111561335257600080fd5b61335e85828601613161565b9250506020830151612a0f816126a5565b634e487b7160e01b600052603260045260246000fd5b60006020828403121561339757600080fd5b815167ffffffffffffffff8111156133ae57600080fd5b61182c84828501613161565b600181811c908216806133ce57607f821691505b6020821081036133ee57634e487b7160e01b600052602260045260246000fd5b50919050565b7f417373657274696f6e4572726f723a200000000000000000000000000000000081526000835161342c8160108501602088016126d7565b7f206973206e6f7420657175616c20746f2000000000000000000000000000000060109184019182015283516134698160218401602088016126d7565b01602101949350505050565b600060208083016020845280855180835260408601915060408160051b87010192506020870160005b828110156134cc57603f198886030184526134ba8583516126fb565b9450928501929085019060010161349e565b5092979650505050505050565b6020808252825182820181905260009190848201906040850190845b8181101561351a5783516001600160a01b0316835292840192918401916001016134f5565b50909695505050505050565b7f417373657274696f6e4572726f723a200000000000000000000000000000000081527f20426f74682076616c75657320617265000000000000000000000000000000006010820152600082516135848160208501602087016126d7565b9190910160200192915050565b601f821115610a06576000816000526020600020601f850160051c810160208610156135ba5750805b601f850160051c820191505b818110156135d9578281556001016135c6565b505050505050565b815167ffffffffffffffff8111156135fb576135fb61277f565b61360f8161360984546133ba565b84613591565b602080601f831160018114613644576000841561362c5750858301515b600019600386901b1c1916600185901b1785556135d9565b600085815260208120601f198616915b8281101561367357888601518255948401946001909101908401613654565b50858210156136915787850151600019600388901b60f8161c191681555b5050505050600190811b01905550565b6020808252825182820181905260009190848201906040850190845b8181101561351a578351835292840192918401916001016136bd565b600060608083016001600160a01b038716845260208615158186015260406060604087015282875180855260808801915060808160051b89010194508389016000805b838110156137bc578a8803607f1901855282518051878a52613740888b01826126fb565b918901518a83038b8b0152805189845280518a850181905291939250600582901b83018d0191908b01908d840190875b8181101561379e57605f1986860301835261378c8585516128f4565b9450928d0192918d0191600101613770565b5050505091890151908901529750938601939186019160010161371c565b50959c9b505050505050505050505050565b808202811582820484141761053d5761053d6130cf565b6000816137f4576137f46130cf565b506000190190565b8181038181111561053d5761053d6130cf565b600083516138218184602088016126d7565b8351908301906138358183602088016126d7565b7f2c200000000000000000000000000000000000000000000000000000000000009101908152600201949350505050565b600083516138788184602088016126d7565b83519083019061388c8183602088016126d7565b7f5d000000000000000000000000000000000000000000000000000000000000009101908152600101949350505050565b60006001600160a01b038087168352808616602084015250836040830152608060608301526138ef60808301846126fb565b9695505050505050565b60006020828403121561390b57600080fd5b8151611cc88161267256fe417373657274696f6e4572726f723a20726573756c74206973206e6f742066616c7365417373657274696f6e4572726f723a20726573756c74206973206e6f742074727565a2646970667358221220427862ab1be86d11809d8524ab3493dbfce531f272a441dfb50a894420af859564736f6c63430008170033608060405234801561001057600080fd5b50604051620024783803806200247883398101604081905261003191610056565b600080546001600160a01b0319166001600160a01b0392909216919091179055610086565b60006020828403121561006857600080fd5b81516001600160a01b038116811461007f57600080fd5b9392505050565b6123e280620000966000396000f3fe608060405234801561001057600080fd5b50600436106100d45760003560e01c80634b64e4921161008157806374f130701161005b57806374f13070146101e6578063d70968e7146101f9578063e7da4c7e1461020c57600080fd5b80634b64e492146101a057806360fb55d5146101c05780636df86478146101d357600080fd5b806331495d33116100b257806331495d331461017a578063410dbb8b1461018d57806346bdca9a1461014757600080fd5b8063150b7a02146100d9578063235266d2146101475780633019162614610167575b600080fd5b6101116100e7366004611869565b7f150b7a020000000000000000000000000000000000000000000000000000000095945050505050565b6040517fffffffff0000000000000000000000000000000000000000000000000000000090911681526020015b60405180910390f35b61015a6101553660046119cd565b61021f565b60405161013e9190611af8565b61015a610175366004611b12565b6102ce565b61015a610188366004611b34565b610388565b61015a61019b366004611b7b565b610459565b6101b36101ae366004611b98565b610559565b60405161013e9190611bb5565b61015a6101ce366004611cfd565b610a41565b61015a6101e1366004611dbf565b610b1d565b61015a6101f4366004611b7b565b610bf9565b61015a610207366004611b34565b610cfa565b61015a61021a366004611e78565b610dc1565b6102536040518060a00160405280600015158152602001606081526020016060815260200160608152602001606081525090565b815160208084019190912084519185019190912014808252610298578282604051602001610282929190611ed2565b60408051601f1981840301815291905260208201525b604080820193909352606081019190915281518083019092526005825264195c5d585b60da1b6020830152608081019190915290565b6103026040518060a00160405280600015158152602001606081526020016060815260200160608152602001606081525090565b8282148082526103455761031583610e9d565b61031e83610e9d565b60405160200161032f929190611ed2565b60408051601f1981840301815291905260208201525b61034e83610e9d565b604082015261035c82610e9d565b6060820152604080518082019091526005815264195c5d585b60da1b6020820152608082015292915050565b6103bc6040518060a00160405280600015158152602001606081526020016060815260200160608152602001606081525090565b6001600160a01b03838116908316811482526000906103dc906014610f3d565b905060006103f4846001600160a01b03166014610f3d565b8351909150610426578181604051602001610410929190611ed2565b60408051601f1981840301815291905260208401525b604080840192909252606083015280518082019091526005815264195c5d585b60da1b6020820152608082015292915050565b61048d6040518060a00160405280600015158152602001606081526020016060815260200160608152602001606081525090565b81158082526104b5576040518060600160405280602381526020016123426023913960208201525b6001821515146104e2576040518060400160405280600581526020016466616c736560d81b815250610500565b604051806040016040528060048152602001637472756560e01b8152505b6040808301919091528051602080820183526000825260608401919091528151808301909252600782527f697346616c736500000000000000000000000000000000000000000000000000908201526080820152919050565b61056161181d565b8161056a61181d565b6105778160200151611145565b5060405180606001604052806035815260200161230d603591398160000181905250600080610647846040518060400160405280601281526020017f5468697320697320616e20617474656d707400000000000000000000000000008152506040518060400160405280601781526020017f546f20637265617465206120756e6971756520706f656d0000000000000000008152506040518060400160405280601881526020017f49742073686f756c64207061737320746869732074696d6500000000000000008152506111c1565b9150915080156106db576040805160a081018252600080825282518084018452601881527f43616c6c20746f206d696e744861696b75206661696c6564000000000000000060208281019190915280840191909152835180820185528281528385015283518082018552828152606084015283518082019094529083526080820192909252908401516106d99161127b565b505b60006106e6856112eb565b91945092509050811561076a576107646040518060a001604052806000151581526020016040518060600160405280602681526020016123876026913981526040805160208181018352600080835281850192909252825180820184528281528385015282518082019093529082526060909201528601519061127b565b50610802565b60006001600160a01b038616636352211e610786600185611f69565b6040518263ffffffff1660e01b81526004016107a491815260200190565b602060405180830381865afa1580156107c1573d6000803e3d6000fd5b505050506040513d601f19601f820116820180604052508101906107e59190611f7c565b90506107ff6107f48230610388565b60208701519061127b565b50505b6000546040517fc9e2c9880000000000000000000000000000000000000000000000000000000081526001600160a01b03878116600483015260806024830152601260848301527f5468697320697320616e20617474656d7074000000000000000000000000000060a483015260c06044830152601560c48301527f546f20636f707920616e6f746865727320776f726b000000000000000000000060e4830152610100606483015260186101048301527f49742073686f756c64206661696c20746869732074696d6500000000000000006101248301529091169063c9e2c98890610144016000604051808303816000875af1158015610907573d6000803e3d6000fd5b505050506040513d6000823e601f3d908101601f1916820160405261092f9190810190611f99565b9093509150816109c3576040805160a08101825260008082528251808401845260208082527f43616c6c20746f206d696e744861696b7520646964206e6f74207265766572748282015280840191909152835180820185528281528385015283518082018552828152606084015283518082019094529083526080820192909252908501516109bd9161127b565b50610a36565b6040805160048152602481019091526020810180517bffffffffffffffffffffffffffffffffffffffffffffffffffffffff167f693a889e00000000000000000000000000000000000000000000000000000000179052610a3490610a2990859061021f565b60208601519061127b565b505b509195945050505050565b610a756040518060a00160405280600015158152602001606081526020016060815260200160608152602001606081525090565b81604051602001610a86919061201c565b6040516020818303038152906040528051906020012083604051602001610aad919061201c565b60408051601f19818403018152919052805160209091012014808252610b0657610ad6836113ae565b610adf836113ae565b604051602001610af0929190611ed2565b60408051601f1981840301815291905260208201525b610b0f836113ae565b604082015261035c826113ae565b610b516040518060a00160405280600015158152602001606081526020016060815260200160608152602001606081525090565b81604051602001610b629190612080565b6040516020818303038152906040528051906020012083604051602001610b899190612080565b60408051601f19818403018152919052805160209091012014808252610be257610bb283611479565b610bbb83611479565b604051602001610bcc929190611ed2565b60408051601f1981840301815291905260208201525b610beb83611479565b604082015261035c82611479565b610c2d6040518060a00160405280600015158152602001606081526020016060815260200160608152602001606081525090565b811515808252610c56576040518060600160405280602281526020016123656022913960208201525b600182151514610c83576040518060400160405280600581526020016466616c736560d81b815250610ca1565b604051806040016040528060048152602001637472756560e01b8152505b6040808301919091528051602080820183526000825260608401919091528151808301909252600682527f6973547275650000000000000000000000000000000000000000000000000000908201526080820152919050565b610d2e6040518060a00160405280600015158152602001606081526020016060815260200160608152602001606081525090565b6001600160a01b038381169083168114158252600090610d4f906014610f3d565b8251909150610d7f5780604051602001610d6991906120cd565b60408051601f1981840301815291905260208301525b60408083019190915280516020808201835260008252606084019190915281518083019092526005825264195c5d585b60da1b90820152608082015292915050565b610df56040518060a00160405280600015158152602001606081526020016060815260200160608152602001606081525090565b81604051602001610e069190612138565b6040516020818303038152906040528051906020012083604051602001610e2d9190612138565b60408051601f19818403018152919052805160209091012014808252610e8657610e568361154b565b610e5f8361154b565b604051602001610e70929190611ed2565b60408051601f1981840301815291905260208201525b610e8f8361154b565b604082015261035c8261154b565b60606000610eaa83611612565b600101905060008167ffffffffffffffff811115610eca57610eca611908565b6040519080825280601f01601f191660200182016040528015610ef4576020820181803683370190505b5090508181016020015b600019017f3031323334353637383961626364656600000000000000000000000000000000600a86061a8153600a8504945084610efe57509392505050565b60606000610f4c836002612170565b610f57906002612187565b67ffffffffffffffff811115610f6f57610f6f611908565b6040519080825280601f01601f191660200182016040528015610f99576020820181803683370190505b5090507f300000000000000000000000000000000000000000000000000000000000000081600081518110610fd057610fd061219a565b60200101906001600160f81b031916908160001a9053507f78000000000000000000000000000000000000000000000000000000000000008160018151811061101b5761101b61219a565b60200101906001600160f81b031916908160001a905350600061103f846002612170565b61104a906001612187565b90505b60018111156110cf577f303132333435363738396162636465660000000000000000000000000000000085600f166010811061108b5761108b61219a565b1a60f81b8282815181106110a1576110a161219a565b60200101906001600160f81b031916908160001a90535060049490941c936110c8816121b0565b905061104d565b50831561113c576040517f08c379a000000000000000000000000000000000000000000000000000000000815260206004820181905260248201527f537472696e67733a20686578206c656e67746820696e73756666696369656e74604482015260640160405180910390fd5b90505b92915050565b60408051808201825260608152600060208201528151600480825260a082019093529091816020015b6111a26040518060a00160405280600015158152602001606081526020016060815260200160608152602001606081525090565b81526020019060019003908161116e5750508252506000602082015290565b60606000856001600160a01b031663350fe1658686866040518463ffffffff1660e01b81526004016111f5939291906121c7565b600060405180830381600087803b15801561120f57600080fd5b505af1925050508015611220575060015b61125f573d80801561124e576040519150601f19603f3d011682016040523d82523d6000602084013e611253565b606091505b50915060019050611272565b5050604080516020810190915260008082525b94509492505050565b6040805180820190915260608152600060208201528251516020840151036112a9576112a6836116f4565b92505b8183600001518460200151815181106112c4576112c461219a565b60200260200101819052508260200180518091906112e19061220a565b9052509192915050565b6060600080836001600160a01b03166361bc221a6040518163ffffffff1660e01b8152600401602060405180830381865afa92505050801561134a575060408051601f3d908101601f1916820190925261134791810190612223565b60015b61138f57505060408051808201909152600b81527f43616c6c206661696c656400000000000000000000000000000000000000000060208201529050600160006113a7565b60408051602081019091526000808252909450925090505b9193909250565b6040805180820190915260018152605b60f81b602082015260609060005b835181101561147257600184516113e39190611f69565b81101561142c57818482815181106113fd576113fd61219a565b602002602001015160405160200161141692919061223c565b604051602081830303815290604052915061146a565b8184828151811061143f5761143f61219a565b6020026020010151604051602001611458929190612293565b60405160208183030381529060405291505b6001016113cc565b5092915050565b6040805180820190915260018152605b60f81b602082015260609060005b835181101561147257600184516114ae9190611f69565b81101561150a57816114e38583815181106114cb576114cb61219a565b60200260200101516001600160a01b03166014610f3d565b6040516020016114f492919061223c565b6040516020818303038152906040529150611543565b816115208583815181106114cb576114cb61219a565b604051602001611531929190612293565b60405160208183030381529060405291505b600101611497565b6040805180820190915260018152605b60f81b602082015260609060005b835181101561147257600184516115809190611f69565b8110156115d157816115aa85838151811061159d5761159d61219a565b6020026020010151610e9d565b6040516020016115bb92919061223c565b604051602081830303815290604052915061160a565b816115e785838151811061159d5761159d61219a565b6040516020016115f8929190612293565b60405160208183030381529060405291505b600101611569565b6000807a184f03e93ff9f4daa797ed6e38ed64bf6a1f010000000000000000831061165b577a184f03e93ff9f4daa797ed6e38ed64bf6a1f010000000000000000830492506040015b6d04ee2d6d415b85acef81000000008310611687576d04ee2d6d415b85acef8100000000830492506020015b662386f26fc1000083106116a557662386f26fc10000830492506010015b6305f5e10083106116bd576305f5e100830492506008015b61271083106116d157612710830492506004015b606483106116e3576064830492506002015b600a831061113f5760010192915050565b60408051808201909152606081526000602082015260408051808201909152606081526000602082015282515160029061172f906003612170565b61173991906122ea565b67ffffffffffffffff81111561175157611751611908565b6040519080825280602002602001820160405280156117b657816020015b6117a36040518060a00160405280600015158152602001606081526020016060815260200160608152602001606081525090565b81526020019060019003908161176f5790505b50815260005b83515181101561180b5783518051829081106117da576117da61219a565b6020026020010151826000015182815181106117f8576117f861219a565b60209081029190910101526001016117bc565b50602092830151928101929092525090565b60405180604001604052806060815260200161184c604051806040016040528060608152602001600081525090565b905290565b6001600160a01b038116811461186657600080fd5b50565b60008060008060006080868803121561188157600080fd5b853561188c81611851565b9450602086013561189c81611851565b935060408601359250606086013567ffffffffffffffff808211156118c057600080fd5b818801915088601f8301126118d457600080fd5b8135818111156118e357600080fd5b8960208285010111156118f557600080fd5b9699959850939650602001949392505050565b634e487b7160e01b600052604160045260246000fd5b604051601f8201601f1916810167ffffffffffffffff8111828210171561194757611947611908565b604052919050565b600067ffffffffffffffff82111561196957611969611908565b50601f01601f191660200190565b600082601f83011261198857600080fd5b813561199b6119968261194f565b61191e565b8181528460208386010111156119b057600080fd5b816020850160208301376000918101602001919091529392505050565b600080604083850312156119e057600080fd5b823567ffffffffffffffff808211156119f857600080fd5b611a0486838701611977565b93506020850135915080821115611a1a57600080fd5b50611a2785828601611977565b9150509250929050565b60005b83811015611a4c578181015183820152602001611a34565b50506000910152565b60008151808452611a6d816020860160208601611a31565b601f01601f19169290920160200192915050565b8051151582526000602082015160a06020850152611aa260a0850182611a55565b905060408301518482036040860152611abb8282611a55565b91505060608301518482036060860152611ad58282611a55565b91505060808301518482036080860152611aef8282611a55565b95945050505050565b602081526000611b0b6020830184611a81565b9392505050565b60008060408385031215611b2557600080fd5b50508035926020909101359150565b60008060408385031215611b4757600080fd5b8235611b5281611851565b91506020830135611b6281611851565b809150509250929050565b801515811461186657600080fd5b600060208284031215611b8d57600080fd5b813561113c81611b6d565b600060208284031215611baa57600080fd5b813561113c81611851565b600060208083528351604082850152611bd16060850182611a55565b905081850151601f198583030160408601526040820181516040845281815180845260608601915060608160051b8701019350868301925060005b81811015611c3a57605f19878603018352611c28858551611a81565b94509287019291870191600101611c0c565b505050509083015191909201529392505050565b600067ffffffffffffffff821115611c6857611c68611908565b5060051b60200190565b600082601f830112611c8357600080fd5b81356020611c9361199683611c4e565b82815260059290921b84018101918181019086841115611cb257600080fd5b8286015b84811015611cf257803567ffffffffffffffff811115611cd65760008081fd5b611ce48986838b0101611977565b845250918301918301611cb6565b509695505050505050565b60008060408385031215611d1057600080fd5b823567ffffffffffffffff80821115611d2857600080fd5b611d3486838701611c72565b93506020850135915080821115611d4a57600080fd5b50611a2785828601611c72565b600082601f830112611d6857600080fd5b81356020611d7861199683611c4e565b8083825260208201915060208460051b870101935086841115611d9a57600080fd5b602086015b84811015611cf2578035611db281611851565b8352918301918301611d9f565b60008060408385031215611dd257600080fd5b823567ffffffffffffffff80821115611dea57600080fd5b611df686838701611d57565b93506020850135915080821115611e0c57600080fd5b50611a2785828601611d57565b600082601f830112611e2a57600080fd5b81356020611e3a61199683611c4e565b8083825260208201915060208460051b870101935086841115611e5c57600080fd5b602086015b84811015611cf25780358352918301918301611e61565b60008060408385031215611e8b57600080fd5b823567ffffffffffffffff80821115611ea357600080fd5b611eaf86838701611e19565b93506020850135915080821115611ec557600080fd5b50611a2785828601611e19565b7f417373657274696f6e4572726f723a2000000000000000000000000000000000815260008351611f0a816010850160208801611a31565b7f206973206e6f7420657175616c20746f200000000000000000000000000000006010918401918201528351611f47816021840160208801611a31565b01602101949350505050565b634e487b7160e01b600052601160045260246000fd5b8181038181111561113f5761113f611f53565b600060208284031215611f8e57600080fd5b815161113c81611851565b60008060408385031215611fac57600080fd5b825167ffffffffffffffff811115611fc357600080fd5b8301601f81018513611fd457600080fd5b8051611fe26119968261194f565b818152866020838501011115611ff757600080fd5b612008826020830160208601611a31565b8094505050506020830151611b6281611b6d565b600060208083016020845280855180835260408601915060408160051b87010192506020870160005b8281101561207357603f19888603018452612061858351611a55565b94509285019290850190600101612045565b5092979650505050505050565b6020808252825182820181905260009190848201906040850190845b818110156120c15783516001600160a01b03168352928401929184019160010161209c565b50909695505050505050565b7f417373657274696f6e4572726f723a200000000000000000000000000000000081527f20426f74682076616c756573206172650000000000000000000000000000000060108201526000825161212b816020850160208701611a31565b9190910160200192915050565b6020808252825182820181905260009190848201906040850190845b818110156120c157835183529284019291840191600101612154565b808202811582820484141761113f5761113f611f53565b8082018082111561113f5761113f611f53565b634e487b7160e01b600052603260045260246000fd5b6000816121bf576121bf611f53565b506000190190565b6060815260006121da6060830186611a55565b82810360208401526121ec8186611a55565b905082810360408401526122008185611a55565b9695505050505050565b60006001820161221c5761221c611f53565b5060010190565b60006020828403121561223557600080fd5b5051919050565b6000835161224e818460208801611a31565b835190830190612262818360208801611a31565b7f2c200000000000000000000000000000000000000000000000000000000000009101908152600201949350505050565b600083516122a5818460208801611a31565b8351908301906122b9818360208801611a31565b7f5d000000000000000000000000000000000000000000000000000000000000009101908152600101949350505050565b60008261230757634e487b7160e01b600052601260045260246000fd5b50049056fe53686f756c642062652061626c6520746f206d696e7420756e69717565206861696b75732062757420626c6f636b20636f70696573417373657274696f6e4572726f723a20726573756c74206973206e6f742066616c7365417373657274696f6e4572726f723a20726573756c74206973206e6f74207472756543616c6c20746f20636f756e746572206661696c65642e20204973206974207075626c69633fa264697066735822122030b326309b3a5aa2108371423e7d0eb18081ae490d074506629318bd001d10e564736f6c6343000817003360806040523480156200001157600080fd5b50604051620031f2380380620031f2833981016040819052620000349162000094565b600080546001600160a01b039485166001600160a01b031991821617909155600180549385169382169390931790925560028054919093169116179055620000de565b80516001600160a01b03811681146200008f57600080fd5b919050565b600080600060608486031215620000aa57600080fd5b620000b58462000077565b9250620000c56020850162000077565b9150620000d56040850162000077565b90509250925092565b61310480620000ee6000396000f3fe608060405234801561001057600080fd5b50600436106100d45760003560e01c80634b64e4921161008157806374f130701161005b57806374f13070146101e6578063d70968e7146101f9578063e7da4c7e1461020c57600080fd5b80634b64e492146101a057806360fb55d5146101c05780636df86478146101d357600080fd5b806331495d33116100b257806331495d331461017a578063410dbb8b1461018d57806346bdca9a1461014757600080fd5b8063150b7a02146100d9578063235266d2146101475780633019162614610167575b600080fd5b6101116100e7366004612389565b7f150b7a020000000000000000000000000000000000000000000000000000000095945050505050565b6040517fffffffff0000000000000000000000000000000000000000000000000000000090911681526020015b60405180910390f35b61015a610155366004612516565b61021f565b60405161013e9190612641565b61015a61017536600461265b565b6102ce565b61015a61018836600461267d565b610388565b61015a61019b3660046126c4565b610459565b6101b36101ae3660046126e1565b610559565b60405161013e91906126fe565b61015a6101ce366004612846565b61148d565b61015a6101e1366004612908565b611569565b61015a6101f43660046126c4565b611645565b61015a61020736600461267d565b611746565b61015a61021a3660046129c1565b61180d565b6102536040518060a00160405280600015158152602001606081526020016060815260200160608152602001606081525090565b815160208084019190912084519185019190912014808252610298578282604051602001610282929190612a1b565b60408051601f1981840301815291905260208201525b604080820193909352606081019190915281518083019092526005825264195c5d585b60da1b6020830152608081019190915290565b6103026040518060a00160405280600015158152602001606081526020016060815260200160608152602001606081525090565b82821480825261034557610315836118e9565b61031e836118e9565b60405160200161032f929190612a1b565b60408051601f1981840301815291905260208201525b61034e836118e9565b604082015261035c826118e9565b6060820152604080518082019091526005815264195c5d585b60da1b6020820152608082015292915050565b6103bc6040518060a00160405280600015158152602001606081526020016060815260200160608152602001606081525090565b6001600160a01b03838116908316811482526000906103dc906014611989565b905060006103f4846001600160a01b03166014611989565b8351909150610426578181604051602001610410929190612a1b565b60408051601f1981840301815291905260208401525b604080840192909252606083015280518082019091526005815264195c5d585b60da1b6020820152608082015292915050565b61048d6040518060a00160405280600015158152602001606081526020016060815260200160608152602001606081525090565b81158082526104b557604051806060016040528060238152602001612fe26023913960208201525b6001821515146104e2576040518060400160405280600581526020016466616c736560d81b815250610500565b604051806040016040528060048152602001637472756560e01b8152505b6040808301919091528051602080820183526000825260608401919091528151808301909252600782527f697346616c736500000000000000000000000000000000000000000000000000908201526080820152919050565b61056161233d565b8161056a61233d565b6105778160200151611b91565b50604051806060016040528060288152602001613059602891398160000181905250600080610647846040518060400160405280601581526020017f416e6f746865722061646472657373206d696e747300000000000000000000008152506040518060400160405280601381526020017f4d6f72652062616420706f65747279206e6f77000000000000000000000000008152506040518060400160405280601181526020017f57696c6c20616e796f6e6520636172653f000000000000000000000000000000815250611c0d565b91509150600061065685611cc7565b9194509250905081156106da576106d46040518060a0016040528060001515815260200160405180606001604052806026815260200161308160269139815260408051602081810183526000808352818501929092528251808201845282815283850152825180820190935290825260609092015286015190611d8a565b50610772565b60006001600160a01b038616636352211e6106f6600185612ab2565b6040518263ffffffff1660e01b815260040161071491815260200190565b602060405180830381865afa158015610731573d6000803e3d6000fd5b505050506040513d601f19601f820116820180604052508101906107559190612ac5565b905061076f6107648230610388565b602087015190611d8a565b50505b60005460405163193c593160e31b81526001600160a01b03878116600483015260806024830152600d60848301527f4f726967696e616c20776f726b0000000000000000000000000000000000000060a483015260c06044830152601360c48301527f4e6f77206974206d696e747320616e204e46540000000000000000000000000060e4830152610100606483015260126101048301527f57686f20746f206769766520697420746f3f00000000000000000000000000006101248301529091169063c9e2c98890610144016000604051808303816000875af115801561085e573d6000803e3d6000fd5b505050506040513d6000823e601f3d908101601f191682016040526108869190810190612b2f565b909350915061089485611cc7565b919450925090508115610918576109126040518060a0016040528060001515815260200160405180606001604052806026815260200161308160269139815260408051602081810183526000808352818501929092528251808201845282815283850152825180820190935290825260609092015286015190611d8a565b506109b4565b60006001600160a01b038616636352211e610934600185612ab2565b6040518263ffffffff1660e01b815260040161095291815260200190565b602060405180830381865afa15801561096f573d6000803e3d6000fd5b505050506040513d601f19601f820116820180604052508101906109939190612ac5565b6000549091506109b1906107649083906001600160a01b0316610388565b50505b60015460405163193c593160e31b81526001600160a01b03878116600483015260806024830152601160848301527f436f70792f7061737465206572726f727300000000000000000000000000000060a483015260c06044830152601b60c48301527f4d616b65206861726420746f2064656275672070726f626c656d73000000000060e4830152610100606483015260136101048301527f57696c6c2077652065766572206c6561726e3f000000000000000000000000006101248301529091169063c9e2c98890610144016000604051808303816000875af1158015610aa0573d6000803e3d6000fd5b505050506040513d6000823e601f3d908101601f19168201604052610ac89190810190612b2f565b9093509150610ad685611cc7565b919450925090508115610b5a57610b546040518060a0016040528060001515815260200160405180606001604052806026815260200161308160269139815260408051602081810183526000808352818501929092528251808201845282815283850152825180820190935290825260609092015286015190611d8a565b50610bf6565b60006001600160a01b038616636352211e610b76600185612ab2565b6040518263ffffffff1660e01b8152600401610b9491815260200190565b602060405180830381865afa158015610bb1573d6000803e3d6000fd5b505050506040513d601f19601f82011682018060405250810190610bd59190612ac5565b600154909150610bf3906107649083906001600160a01b0316610388565b50505b60025460405163462b412d60e01b81526001600160a01b038781166004830152606092169063462b412d90602401600060405180830381865afa158015610c41573d6000803e3d6000fd5b505050506040513d6000823e601f3d908101601f19168201604052610c699190810190612b76565b9195509350905082610cec57610ce66040518060a001604052806000151581526020016040518060600160405280602881526020016130a760289139815260408051602081810183526000808352818501929092528251808201845282815283850152825180820190935290825260609092015287015190611d8a565b50610d54565b6040805160048152602481019091526020810180517bffffffffffffffffffffffffffffffffffffffffffffffffffffffff167ff8826a6900000000000000000000000000000000000000000000000000000000179052610d529061076490869061021f565b505b610d5d86611cc7565b919550935091508215610de157610ddb6040518060a0016040528060001515815260200160405180606001604052806026815260200161308160269139815260408051602081810183526000808352818501929092528251808201845282815283850152825180820190935290825260609092015287015190611d8a565b50611244565b610e0186610df0600185612ab2565b6002546001600160a01b0316611dfa565b909450925082610e8257610e7c6040518060a0016040528060001515815260200160405180606001604052806032815260200161302760329139815260408051602081810183526000808352818501929092528251808201845282815283850152825180820190935290825260609092015287015190611d8a565b50610f05565b610f0361076485610e94600186612ab2565b604051602401610ea691815260200190565b60408051601f198184030181529190526020810180517bffffffffffffffffffffffffffffffffffffffffffffffffffffffff167f03ce4e320000000000000000000000000000000000000000000000000000000017905261021f565b505b610f1486610df0600385612ab2565b90945092508215610fa9576040805160a081018252600080825282518084018452601981527f43616c6c20746f2073686172654861696b75206661696c6564000000000000006020828101919091528084019190915283518082018552828152838501528351808201855282815260608401528351808201909452908352608082019290925290860151610fa791611d8a565b505b6000546001600160a01b031663b59dad4387610fc6600286612ab2565b60025460405160e085901b7fffffffff000000000000000000000000000000000000000000000000000000001681526001600160a01b03938416600482015260248101929092529190911660448201526064016000604051808303816000875af1158015611038573d6000803e3d6000fd5b505050506040513d6000823e601f3d908101601f191682016040526110609190810190612b2f565b909450925082156110f5576040805160a081018252600080825282518084018452601981527f43616c6c20746f2073686172654861696b75206661696c65640000000000000060208281019190915280840191909152835180820185528281528385015283518082018552828152606084015283518082019094529083526080820192909252908601516110f391611d8a565b505b600180546001600160a01b03169063b59dad439088906111159086612ab2565b60025460405160e085901b7fffffffff000000000000000000000000000000000000000000000000000000001681526001600160a01b03938416600482015260248101929092529190911660448201526064016000604051808303816000875af1158015611187573d6000803e3d6000fd5b505050506040513d6000823e601f3d908101601f191682016040526111af9190810190612b2f565b90945092508215611244576040805160a081018252600080825282518084018452601981527f43616c6c20746f2073686172654861696b75206661696c656400000000000000602082810191909152808401919091528351808201855282815283850152835180820185528281526060840152835180820190945290835260808201929092529086015161124291611d8a565b505b60025460405163462b412d60e01b81526001600160a01b0388811660048301529091169063462b412d90602401600060405180830381865afa15801561128e573d6000803e3d6000fd5b505050506040513d6000823e601f3d908101601f191682016040526112b69190810190612b76565b91955093509050821561134d576040805160a08101825260008082528251808401845260208082527f43616c6c20746f206765744d795368617265644861696b7573206661696c656482820152808401919091528351808201855282815283850152835180820185528281526060840152835180820190945290835260808201929092529086015161134791611d8a565b50611481565b61135c610764825160036102ce565b506113bd6107648260008151811061137657611376612cf1565b6020026020010151602001516040518060400160405280601581526020017f416e6f746865722061646472657373206d696e7473000000000000000000000081525061021f565b5061141e610764826001815181106113d7576113d7612cf1565b6020026020010151604001516040518060400160405280601381526020017f4e6f77206974206d696e747320616e204e46540000000000000000000000000081525061021f565b5061147f6107648260018151811061143857611438612cf1565b6020026020010151604001516040518060400160405280601381526020017f57696c6c2077652065766572206c6561726e3f0000000000000000000000000081525061021f565b505b50929695505050505050565b6114c16040518060a00160405280600015158152602001606081526020016060815260200160608152602001606081525090565b816040516020016114d29190612d07565b60405160208183030381529060405280519060200120836040516020016114f99190612d07565b60408051601f198184030181529190528051602090910120148082526115525761152283611ece565b61152b83611ece565b60405160200161153c929190612a1b565b60408051601f1981840301815291905260208201525b61155b83611ece565b604082015261035c82611ece565b61159d6040518060a00160405280600015158152602001606081526020016060815260200160608152602001606081525090565b816040516020016115ae9190612d6b565b60405160208183030381529060405280519060200120836040516020016115d59190612d6b565b60408051601f1981840301815291905280516020909101201480825261162e576115fe83611f99565b61160783611f99565b604051602001611618929190612a1b565b60408051601f1981840301815291905260208201525b61163783611f99565b604082015261035c82611f99565b6116796040518060a00160405280600015158152602001606081526020016060815260200160608152602001606081525090565b8115158082526116a2576040518060600160405280602281526020016130056022913960208201525b6001821515146116cf576040518060400160405280600581526020016466616c736560d81b8152506116ed565b604051806040016040528060048152602001637472756560e01b8152505b6040808301919091528051602080820183526000825260608401919091528151808301909252600682527f6973547275650000000000000000000000000000000000000000000000000000908201526080820152919050565b61177a6040518060a00160405280600015158152602001606081526020016060815260200160608152602001606081525090565b6001600160a01b03838116908316811415825260009061179b906014611989565b82519091506117cb57806040516020016117b59190612db8565b60408051601f1981840301815291905260208301525b60408083019190915280516020808201835260008252606084019190915281518083019092526005825264195c5d585b60da1b90820152608082015292915050565b6118416040518060a00160405280600015158152602001606081526020016060815260200160608152602001606081525090565b816040516020016118529190612e23565b60405160208183030381529060405280519060200120836040516020016118799190612e23565b60408051601f198184030181529190528051602090910120148082526118d2576118a28361206b565b6118ab8361206b565b6040516020016118bc929190612a1b565b60408051601f1981840301815291905260208201525b6118db8361206b565b604082015261035c8261206b565b606060006118f683612132565b600101905060008167ffffffffffffffff81111561191657611916612428565b6040519080825280601f01601f191660200182016040528015611940576020820181803683370190505b5090508181016020015b600019017f3031323334353637383961626364656600000000000000000000000000000000600a86061a8153600a850494508461194a57509392505050565b60606000611998836002612e5b565b6119a3906002612e72565b67ffffffffffffffff8111156119bb576119bb612428565b6040519080825280601f01601f1916602001820160405280156119e5576020820181803683370190505b5090507f300000000000000000000000000000000000000000000000000000000000000081600081518110611a1c57611a1c612cf1565b60200101906001600160f81b031916908160001a9053507f780000000000000000000000000000000000000000000000000000000000000081600181518110611a6757611a67612cf1565b60200101906001600160f81b031916908160001a9053506000611a8b846002612e5b565b611a96906001612e72565b90505b6001811115611b1b577f303132333435363738396162636465660000000000000000000000000000000085600f1660108110611ad757611ad7612cf1565b1a60f81b828281518110611aed57611aed612cf1565b60200101906001600160f81b031916908160001a90535060049490941c93611b1481612e85565b9050611a99565b508315611b88576040517f08c379a000000000000000000000000000000000000000000000000000000000815260206004820181905260248201527f537472696e67733a20686578206c656e67746820696e73756666696369656e74604482015260640160405180910390fd5b90505b92915050565b60408051808201825260608152600060208201528151600480825260a082019093529091816020015b611bee6040518060a00160405280600015158152602001606081526020016060815260200160608152602001606081525090565b815260200190600190039081611bba5750508252506000602082015290565b60606000856001600160a01b031663350fe1658686866040518463ffffffff1660e01b8152600401611c4193929190612e9c565b600060405180830381600087803b158015611c5b57600080fd5b505af1925050508015611c6c575060015b611cab573d808015611c9a576040519150601f19603f3d011682016040523d82523d6000602084013e611c9f565b606091505b50915060019050611cbe565b5050604080516020810190915260008082525b94509492505050565b6060600080836001600160a01b03166361bc221a6040518163ffffffff1660e01b8152600401602060405180830381865afa925050508015611d26575060408051601f3d908101601f19168201909252611d2391810190612edf565b60015b611d6b57505060408051808201909152600b81527f43616c6c206661696c65640000000000000000000000000000000000000000006020820152905060016000611d83565b60408051602081019091526000808252909450925090505b9193909250565b604080518082019091526060815260006020820152825151602084015103611db857611db583612214565b92505b818360000151846020015181518110611dd357611dd3612cf1565b6020026020010181905250826020018051809190611df090612ef8565b9052509192915050565b6040517f2c83ea56000000000000000000000000000000000000000000000000000000008152600481018390526001600160a01b038281166024830152606091600091861690632c83ea5690604401600060405180830381600087803b158015611e6357600080fd5b505af1925050508015611e74575060015b611eb3573d808015611ea2576040519150601f19603f3d011682016040523d82523d6000602084013e611ea7565b606091505b50915060019050611ec6565b5050604080516020810190915260008082525b935093915050565b6040805180820190915260018152605b60f81b602082015260609060005b8351811015611f925760018451611f039190612ab2565b811015611f4c5781848281518110611f1d57611f1d612cf1565b6020026020010151604051602001611f36929190612f11565b6040516020818303038152906040529150611f8a565b81848281518110611f5f57611f5f612cf1565b6020026020010151604051602001611f78929190612f68565b60405160208183030381529060405291505b600101611eec565b5092915050565b6040805180820190915260018152605b60f81b602082015260609060005b8351811015611f925760018451611fce9190612ab2565b81101561202a5781612003858381518110611feb57611feb612cf1565b60200260200101516001600160a01b03166014611989565b604051602001612014929190612f11565b6040516020818303038152906040529150612063565b81612040858381518110611feb57611feb612cf1565b604051602001612051929190612f68565b60405160208183030381529060405291505b600101611fb7565b6040805180820190915260018152605b60f81b602082015260609060005b8351811015611f9257600184516120a09190612ab2565b8110156120f157816120ca8583815181106120bd576120bd612cf1565b60200260200101516118e9565b6040516020016120db929190612f11565b604051602081830303815290604052915061212a565b816121078583815181106120bd576120bd612cf1565b604051602001612118929190612f68565b60405160208183030381529060405291505b600101612089565b6000807a184f03e93ff9f4daa797ed6e38ed64bf6a1f010000000000000000831061217b577a184f03e93ff9f4daa797ed6e38ed64bf6a1f010000000000000000830492506040015b6d04ee2d6d415b85acef810000000083106121a7576d04ee2d6d415b85acef8100000000830492506020015b662386f26fc1000083106121c557662386f26fc10000830492506010015b6305f5e10083106121dd576305f5e100830492506008015b61271083106121f157612710830492506004015b60648310612203576064830492506002015b600a8310611b8b5760010192915050565b60408051808201909152606081526000602082015260408051808201909152606081526000602082015282515160029061224f906003612e5b565b6122599190612fbf565b67ffffffffffffffff81111561227157612271612428565b6040519080825280602002602001820160405280156122d657816020015b6122c36040518060a00160405280600015158152602001606081526020016060815260200160608152602001606081525090565b81526020019060019003908161228f5790505b50815260005b83515181101561232b5783518051829081106122fa576122fa612cf1565b60200260200101518260000151828151811061231857612318612cf1565b60209081029190910101526001016122dc565b50602092830151928101929092525090565b60405180604001604052806060815260200161236c604051806040016040528060608152602001600081525090565b905290565b6001600160a01b038116811461238657600080fd5b50565b6000806000806000608086880312156123a157600080fd5b85356123ac81612371565b945060208601356123bc81612371565b935060408601359250606086013567ffffffffffffffff808211156123e057600080fd5b818801915088601f8301126123f457600080fd5b81358181111561240357600080fd5b89602082850101111561241557600080fd5b9699959850939650602001949392505050565b634e487b7160e01b600052604160045260246000fd5b6040516080810167ffffffffffffffff8111828210171561246157612461612428565b60405290565b604051601f8201601f1916810167ffffffffffffffff8111828210171561249057612490612428565b604052919050565b600067ffffffffffffffff8211156124b2576124b2612428565b50601f01601f191660200190565b600082601f8301126124d157600080fd5b81356124e46124df82612498565b612467565b8181528460208386010111156124f957600080fd5b816020850160208301376000918101602001919091529392505050565b6000806040838503121561252957600080fd5b823567ffffffffffffffff8082111561254157600080fd5b61254d868387016124c0565b9350602085013591508082111561256357600080fd5b50612570858286016124c0565b9150509250929050565b60005b8381101561259557818101518382015260200161257d565b50506000910152565b600081518084526125b681602086016020860161257a565b601f01601f19169290920160200192915050565b8051151582526000602082015160a060208501526125eb60a085018261259e565b905060408301518482036040860152612604828261259e565b9150506060830151848203606086015261261e828261259e565b91505060808301518482036080860152612638828261259e565b95945050505050565b60208152600061265460208301846125ca565b9392505050565b6000806040838503121561266e57600080fd5b50508035926020909101359150565b6000806040838503121561269057600080fd5b823561269b81612371565b915060208301356126ab81612371565b809150509250929050565b801515811461238657600080fd5b6000602082840312156126d657600080fd5b8135611b88816126b6565b6000602082840312156126f357600080fd5b8135611b8881612371565b60006020808352835160408285015261271a606085018261259e565b905081850151601f198583030160408601526040820181516040845281815180845260608601915060608160051b8701019350868301925060005b8181101561278357605f198786030183526127718585516125ca565b94509287019291870191600101612755565b505050509083015191909201529392505050565b600067ffffffffffffffff8211156127b1576127b1612428565b5060051b60200190565b600082601f8301126127cc57600080fd5b813560206127dc6124df83612797565b82815260059290921b840181019181810190868411156127fb57600080fd5b8286015b8481101561283b57803567ffffffffffffffff81111561281f5760008081fd5b61282d8986838b01016124c0565b8452509183019183016127ff565b509695505050505050565b6000806040838503121561285957600080fd5b823567ffffffffffffffff8082111561287157600080fd5b61287d868387016127bb565b9350602085013591508082111561289357600080fd5b50612570858286016127bb565b600082601f8301126128b157600080fd5b813560206128c16124df83612797565b8083825260208201915060208460051b8701019350868411156128e357600080fd5b602086015b8481101561283b5780356128fb81612371565b83529183019183016128e8565b6000806040838503121561291b57600080fd5b823567ffffffffffffffff8082111561293357600080fd5b61293f868387016128a0565b9350602085013591508082111561295557600080fd5b50612570858286016128a0565b600082601f83011261297357600080fd5b813560206129836124df83612797565b8083825260208201915060208460051b8701019350868411156129a557600080fd5b602086015b8481101561283b57803583529183019183016129aa565b600080604083850312156129d457600080fd5b823567ffffffffffffffff808211156129ec57600080fd5b6129f886838701612962565b93506020850135915080821115612a0e57600080fd5b5061257085828601612962565b7f417373657274696f6e4572726f723a2000000000000000000000000000000000815260008351612a5381601085016020880161257a565b7f206973206e6f7420657175616c20746f200000000000000000000000000000006010918401918201528351612a9081602184016020880161257a565b01602101949350505050565b634e487b7160e01b600052601160045260246000fd5b81810381811115611b8b57611b8b612a9c565b600060208284031215612ad757600080fd5b8151611b8881612371565b600082601f830112612af357600080fd5b8151612b016124df82612498565b818152846020838601011115612b1657600080fd5b612b2782602083016020870161257a565b949350505050565b60008060408385031215612b4257600080fd5b825167ffffffffffffffff811115612b5957600080fd5b612b6585828601612ae2565b92505060208301516126ab816126b6565b600080600060608486031215612b8b57600080fd5b835167ffffffffffffffff80821115612ba357600080fd5b612baf87838801612ae2565b94506020915081860151612bc2816126b6565b604087015190945081811115612bd757600080fd5b8601601f81018813612be857600080fd5b8051612bf66124df82612797565b81815260059190911b8201840190848101908a831115612c1557600080fd5b8584015b83811015612ce057805186811115612c3057600080fd5b85016080818e03601f19011215612c475760008081fd5b612c4f61243e565b88820151612c5c81612371565b8152604082015188811115612c715760008081fd5b612c7f8f8b83860101612ae2565b8a83015250606082015188811115612c975760008081fd5b612ca58f8b83860101612ae2565b604083015250608082015188811115612cbe5760008081fd5b612ccc8f8b83860101612ae2565b606083015250845250918601918601612c19565b508096505050505050509250925092565b634e487b7160e01b600052603260045260246000fd5b600060208083016020845280855180835260408601915060408160051b87010192506020870160005b82811015612d5e57603f19888603018452612d4c85835161259e565b94509285019290850190600101612d30565b5092979650505050505050565b6020808252825182820181905260009190848201906040850190845b81811015612dac5783516001600160a01b031683529284019291840191600101612d87565b50909695505050505050565b7f417373657274696f6e4572726f723a200000000000000000000000000000000081527f20426f74682076616c7565732061726500000000000000000000000000000000601082015260008251612e1681602085016020870161257a565b9190910160200192915050565b6020808252825182820181905260009190848201906040850190845b81811015612dac57835183529284019291840191600101612e3f565b8082028115828204841417611b8b57611b8b612a9c565b80820180821115611b8b57611b8b612a9c565b600081612e9457612e94612a9c565b506000190190565b606081526000612eaf606083018661259e565b8281036020840152612ec1818661259e565b90508281036040840152612ed5818561259e565b9695505050505050565b600060208284031215612ef157600080fd5b5051919050565b600060018201612f0a57612f0a612a9c565b5060010190565b60008351612f2381846020880161257a565b835190830190612f3781836020880161257a565b7f2c200000000000000000000000000000000000000000000000000000000000009101908152600201949350505050565b60008351612f7a81846020880161257a565b835190830190612f8e81836020880161257a565b7f5d000000000000000000000000000000000000000000000000000000000000009101908152600101949350505050565b600082612fdc57634e487b7160e01b600052601260045260246000fd5b50049056fe417373657274696f6e4572726f723a20726573756c74206973206e6f742066616c7365417373657274696f6e4572726f723a20726573756c74206973206e6f74207472756543616c6c20746f2073686172654861696b752073686f756c64207265766572742077697468204e6f74596f75724861696b7553686f756c642063726561746520616e642073686172652061636365737320746f206861696b757343616c6c20746f20636f756e746572206661696c65642e20204973206974207075626c69633f43616c6c20746f206765744d795368617265644861696b757320646964206e6f7420726576657274a2646970667358221220de47bb47a7540f0adeb72333d5a73ac3c6498df578b4a6c2da8f9a6217fe801264736f6c63430008170033",
  "devdoc": {
    "events": {
      "Approval(address,address,uint256)": {
        "details": "Emitted when `owner` enables `approved` to manage the `tokenId` token."
      },
      "ApprovalForAll(address,address,bool)": {
        "details": "Emitted when `owner` enables or disables (`approved`) `operator` to manage all of its assets."
      },
      "Transfer(address,address,uint256)": {
        "details": "Emitted when `tokenId` token is transferred from `from` to `to`."
      }
    },
    "kind": "dev",
    "methods": {
      "approve(address,uint256)": {
        "details": "See {IERC721-approve}."
      },
      "balanceOf(address)": {
        "details": "See {IERC721-balanceOf}."
      },
      "getApproved(uint256)": {
        "details": "See {IERC721-getApproved}."
      },
      "isApprovedForAll(address,address)": {
        "details": "See {IERC721-isApprovedForAll}."
      },
      "name()": {
        "details": "See {IERC721Metadata-name}."
      },
      "owner()": {
        "details": "Returns the address of the current owner."
      },
      "ownerOf(uint256)": {
        "details": "See {IERC721-ownerOf}."
      },
      "renounceOwnership()": {
        "details": "Leaves the contract without owner. It will not be possible to call `onlyOwner` functions. Can only be called by the current owner. NOTE: Renouncing ownership will leave the contract without an owner, thereby disabling any functionality that is only available to the owner."
      },
      "safeTransferFrom(address,address,uint256)": {
        "details": "See {IERC721-safeTransferFrom}."
      },
      "safeTransferFrom(address,address,uint256,bytes)": {
        "details": "See {IERC721-safeTransferFrom}."
      },
      "setApprovalForAll(address,bool)": {
        "details": "See {IERC721-setApprovalForAll}."
      },
      "supportsInterface(bytes4)": {
        "details": "See {IERC165-supportsInterface}."
      },
      "symbol()": {
        "details": "See {IERC721Metadata-symbol}."
      },
      "transferFrom(address,address,uint256)": {
        "details": "See {IERC721-transferFrom}."
      },
      "transferOwnership(address)": {
        "details": "Transfers ownership of the contract to a new account (`newOwner`). Can only be called by the current owner."
      }
    },
    "version": 1
  },
  "userdoc": {
    "kind": "user",
    "methods": {
      "checkIfAllPassed((string,((bool,string,string,string,string)[],uint256))[])": {
        "notice": "Check each assert in each test to see if any failed. Note:  The check is here instead of setting a `passed` bool in `TestResult` to reduce the amount of code in each unit test."
      }
    },
    "version": 1
  },
  "storageLayout": {
    "storage": [
      {
        "astId": 893,
        "contract": "contracts/ERC721UT.sol:ERC721UT",
        "label": "_name",
        "offset": 0,
        "slot": "0",
        "type": "t_string_storage"
      },
      {
        "astId": 895,
        "contract": "contracts/ERC721UT.sol:ERC721UT",
        "label": "_symbol",
        "offset": 0,
        "slot": "1",
        "type": "t_string_storage"
      },
      {
        "astId": 899,
        "contract": "contracts/ERC721UT.sol:ERC721UT",
        "label": "_owners",
        "offset": 0,
        "slot": "2",
        "type": "t_mapping(t_uint256,t_address)"
      },
      {
        "astId": 903,
        "contract": "contracts/ERC721UT.sol:ERC721UT",
        "label": "_balances",
        "offset": 0,
        "slot": "3",
        "type": "t_mapping(t_address,t_uint256)"
      },
      {
        "astId": 907,
        "contract": "contracts/ERC721UT.sol:ERC721UT",
        "label": "_tokenApprovals",
        "offset": 0,
        "slot": "4",
        "type": "t_mapping(t_uint256,t_address)"
      },
      {
        "astId": 913,
        "contract": "contracts/ERC721UT.sol:ERC721UT",
        "label": "_operatorApprovals",
        "offset": 0,
        "slot": "5",
        "type": "t_mapping(t_address,t_mapping(t_address,t_bool))"
      },
      {
        "astId": 7,
        "contract": "contracts/ERC721UT.sol:ERC721UT",
        "label": "_owner",
        "offset": 0,
        "slot": "6",
        "type": "t_address"
      },
      {
        "astId": 123,
        "contract": "contracts/ERC721UT.sol:ERC721UT",
        "label": "_status",
        "offset": 0,
        "slot": "7",
        "type": "t_uint256"
      },
      {
        "astId": 6686,
        "contract": "contracts/ERC721UT.sol:ERC721UT",
        "label": "tokenIds",
        "offset": 0,
        "slot": "8",
        "type": "t_struct(Counter)2321_storage"
      },
      {
        "astId": 6690,
        "contract": "contracts/ERC721UT.sol:ERC721UT",
        "label": "owners",
        "offset": 0,
        "slot": "9",
        "type": "t_mapping(t_address,t_bool)"
      },
      {
        "astId": 6694,
        "contract": "contracts/ERC721UT.sol:ERC721UT",
        "label": "submittedContracts",
        "offset": 0,
        "slot": "10",
        "type": "t_mapping(t_address,t_bool)"
      },
      {
        "astId": 6697,
        "contract": "contracts/ERC721UT.sol:ERC721UT",
        "label": "active",
        "offset": 0,
        "slot": "11",
        "type": "t_bool"
      },
      {
        "astId": 6700,
        "contract": "contracts/ERC721UT.sol:ERC721UT",
        "label": "AllTokenURI",
        "offset": 0,
        "slot": "12",
        "type": "t_string_storage"
      },
      {
        "astId": 6720,
        "contract": "contracts/ERC721UT.sol:ERC721UT",
        "label": "tests",
        "offset": 0,
        "slot": "13",
        "type": "t_array(t_contract(ITest)6656)dyn_storage"
      },
      {
        "astId": 6724,
        "contract": "contracts/ERC721UT.sol:ERC721UT",
        "label": "deployer",
        "offset": 0,
        "slot": "14",
        "type": "t_contract(IDeploy)6667"
      }
    ],
    "types": {
      "t_address": {
        "encoding": "inplace",
        "label": "address",
        "numberOfBytes": "20"
      },
      "t_array(t_contract(ITest)6656)dyn_storage": {
        "base": "t_contract(ITest)6656",
        "encoding": "dynamic_array",
        "label": "contract ITest[]",
        "numberOfBytes": "32"
      },
      "t_bool": {
        "encoding": "inplace",
        "label": "bool",
        "numberOfBytes": "1"
      },
      "t_contract(IDeploy)6667": {
        "encoding": "inplace",
        "label": "contract IDeploy",
        "numberOfBytes": "20"
      },
      "t_contract(ITest)6656": {
        "encoding": "inplace",
        "label": "contract ITest",
        "numberOfBytes": "20"
      },
      "t_mapping(t_address,t_bool)": {
        "encoding": "mapping",
        "key": "t_address",
        "label": "mapping(address => bool)",
        "numberOfBytes": "32",
        "value": "t_bool"
      },
      "t_mapping(t_address,t_mapping(t_address,t_bool))": {
        "encoding": "mapping",
        "key": "t_address",
        "label": "mapping(address => mapping(address => bool))",
        "numberOfBytes": "32",
        "value": "t_mapping(t_address,t_bool)"
      },
      "t_mapping(t_address,t_uint256)": {
        "encoding": "mapping",
        "key": "t_address",
        "label": "mapping(address => uint256)",
        "numberOfBytes": "32",
        "value": "t_uint256"
      },
      "t_mapping(t_uint256,t_address)": {
        "encoding": "mapping",
        "key": "t_uint256",
        "label": "mapping(uint256 => address)",
        "numberOfBytes": "32",
        "value": "t_address"
      },
      "t_string_storage": {
        "encoding": "bytes",
        "label": "string",
        "numberOfBytes": "32"
      },
      "t_struct(Counter)2321_storage": {
        "encoding": "inplace",
        "label": "struct Counters.Counter",
        "members": [
          {
            "astId": 2320,
            "contract": "contracts/ERC721UT.sol:ERC721UT",
            "label": "_value",
            "offset": 0,
            "slot": "0",
            "type": "t_uint256"
          }
        ],
        "numberOfBytes": "32"
      },
      "t_uint256": {
        "encoding": "inplace",
        "label": "uint256",
        "numberOfBytes": "32"
      }
    }
  }
}