{
  "address": "0x823E5E2E812e72D7392302E604CF4eE76e0d3e82",
  "abi": [
    {
      "inputs": [],
      "name": "deploy",
      "outputs": [
        {
          "internalType": "address",
          "name": "",
          "type": "address"
        }
      ],
      "stateMutability": "nonpayable",
      "type": "function"
    }
  ],
  "transactionHash": "0x0d389aa265d140272a9b2844992ce46b527bc5a5b073be3ecab2911ad42bfa44",
  "args": [],
  "numDeployments": 1,
  "solcInputHash": "6a581879d712a9c25e4fb247f22274cf",
  "bytecode": "0x608060405234801561001057600080fd5b5061142a806100206000396000f3fe608060405234801561001057600080fd5b506004361061002b5760003560e01c8063775c300c14610030575b600080fd5b610038610061565b60405173ffffffffffffffffffffffffffffffffffffffff909116815260200160405180910390f35b60008033604051610071906100b1565b73ffffffffffffffffffffffffffffffffffffffff9091168152602001604051809103906000f0801580156100aa573d6000803e3d6000fd5b5092915050565b611336806100bf8339019056fe608060405260006004553480156200001657600080fd5b506040516200133638038062001336833981016040819052620000399162000187565b620000443362000056565b6200004f81620000a6565b50620001b9565b600080546001600160a01b038381166001600160a01b0319831681178455604051919092169283917f8be0079c531659141344cd1fd0a4f28419497f9722a3daafe3b4186f6b6457e09190a35050565b620000b062000129565b6001600160a01b0381166200011b5760405162461bcd60e51b815260206004820152602660248201527f4f776e61626c653a206e6577206f776e657220697320746865207a65726f206160448201526564647265737360d01b60648201526084015b60405180910390fd5b620001268162000056565b50565b6000546001600160a01b03163314620001855760405162461bcd60e51b815260206004820181905260248201527f4f776e61626c653a2063616c6c6572206973206e6f7420746865206f776e6572604482015260640162000112565b565b6000602082840312156200019a57600080fd5b81516001600160a01b0381168114620001b257600080fd5b9392505050565b61116d80620001c96000396000f3fe608060405234801561001057600080fd5b50600436106100885760003560e01c8063e0f478cb1161005b578063e0f478cb146100dd578063e6505e1e146100ff578063ef1d6ddd1461011f578063f2fde38b1461013457600080fd5b80633f06f6e81461008d578063715018a6146100a25780638da5cb5b146100aa578063b9ed6fca146100ca575b600080fd5b6100a061009b366004610cd7565b610147565b005b6100a06101f8565b6000546040516001600160a01b0390911681526020015b60405180910390f35b6100a06100d8366004610dc4565b61020c565b6100f06100eb366004610dc4565b6102ac565b6040516100c193929190610e23565b61011261010d366004610dc4565b6103de565b6040516100c19190610ede565b6101276105ad565b6040516100c19190610ef1565b6100a0610142366004610f55565b61082f565b61014f6108bf565b604080516080810182526004548082526020808301878152838501879052606084018690526000928352600191829052939091208251815592519192919082019061019a9082611009565b50604082015160028201906101af9082611009565b50606082015180516101cb916003840191602090910190610b6c565b50506004546101dd9150600290610919565b50600480549060006101ee836110df565b9190505550505050565b6102006108bf565b61020a600061092e565b565b6102146108bf565b61021f600282610996565b61025d576040517ff55dec00000000000000000000000000000000000000000000000000000000008152600481018290526024015b60405180910390fd5b60008181526001602081905260408220828155919061027e90830182610bb7565b61028c600283016000610bb7565b61029a600383016000610bf1565b506102a890506002826109ae565b5050565b6001602081905260009182526040909120805491810180546102cd90610f7e565b80601f01602080910402602001604051908101604052809291908181526020018280546102f990610f7e565b80156103465780601f1061031b57610100808354040283529160200191610346565b820191906000526020600020905b81548152906001019060200180831161032957829003601f168201915b50505050509080600201805461035b90610f7e565b80601f016020809104026020016040519081016040528092919081815260200182805461038790610f7e565b80156103d45780601f106103a9576101008083540402835291602001916103d4565b820191906000526020600020905b8154815290600101906020018083116103b757829003601f168201915b5050505050905083565b6104096040518060800160405280600081526020016060815260200160608152602001606081525090565b6000828152600160208181526040928390208351608081019094528054845291820180549184019161043a90610f7e565b80601f016020809104026020016040519081016040528092919081815260200182805461046690610f7e565b80156104b35780601f10610488576101008083540402835291602001916104b3565b820191906000526020600020905b81548152906001019060200180831161049657829003601f168201915b505050505081526020016002820180546104cc90610f7e565b80601f01602080910402602001604051908101604052809291908181526020018280546104f890610f7e565b80156105455780601f1061051a57610100808354040283529160200191610545565b820191906000526020600020905b81548152906001019060200180831161052857829003601f168201915b505050505081526020016003820180548060200260200160405190810160405280929190818152602001828054801561059d57602002820191906000526020600020905b815481526020019060010190808311610589575b5050505050815250509050919050565b606060006105bb60026109ba565b805190915060008167ffffffffffffffff8111156105db576105db610c20565b60405190808252806020026020018201604052801561063757816020015b6106246040518060800160405280600081526020016060815260200160608152602001606081525090565b8152602001906001900390816105f95790505b50905060005b82811015610827576001600085838151811061065b5761065b6110f8565b602002602001015181526020019081526020016000206040518060800160405290816000820154815260200160018201805461069690610f7e565b80601f01602080910402602001604051908101604052809291908181526020018280546106c290610f7e565b801561070f5780601f106106e45761010080835404028352916020019161070f565b820191906000526020600020905b8154815290600101906020018083116106f257829003601f168201915b5050505050815260200160028201805461072890610f7e565b80601f016020809104026020016040519081016040528092919081815260200182805461075490610f7e565b80156107a15780601f10610776576101008083540402835291602001916107a1565b820191906000526020600020905b81548152906001019060200180831161078457829003601f168201915b50505050508152602001600382018054806020026020016040519081016040528092919081815260200182805480156107f957602002820191906000526020600020905b8154815260200190600101908083116107e5575b505050505081525050828281518110610814576108146110f8565b602090810291909101015260010161063d565b509392505050565b6108376108bf565b6001600160a01b0381166108b35760405162461bcd60e51b815260206004820152602660248201527f4f776e61626c653a206e6577206f776e657220697320746865207a65726f206160448201527f64647265737300000000000000000000000000000000000000000000000000006064820152608401610254565b6108bc8161092e565b50565b6000546001600160a01b0316331461020a5760405162461bcd60e51b815260206004820181905260248201527f4f776e61626c653a2063616c6c6572206973206e6f7420746865206f776e65726044820152606401610254565b600061092583836109ce565b90505b92915050565b600080546001600160a01b038381167fffffffffffffffffffffffff0000000000000000000000000000000000000000831681178455604051919092169283917f8be0079c531659141344cd1fd0a4f28419497f9722a3daafe3b4186f6b6457e09190a35050565b60008181526001830160205260408120541515610925565b60006109258383610a1d565b606060006109c783610b10565b9392505050565b6000818152600183016020526040812054610a1557508154600181810184556000848152602080822090930184905584548482528286019093526040902091909155610928565b506000610928565b60008181526001830160205260408120548015610b06576000610a4160018361110e565b8554909150600090610a559060019061110e565b9050818114610aba576000866000018281548110610a7557610a756110f8565b9060005260206000200154905080876000018481548110610a9857610a986110f8565b6000918252602080832090910192909255918252600188019052604090208390555b8554869080610acb57610acb611121565b600190038181906000526020600020016000905590558560010160008681526020019081526020016000206000905560019350505050610928565b6000915050610928565b606081600001805480602002602001604051908101604052809291908181526020018280548015610b6057602002820191906000526020600020905b815481526020019060010190808311610b4c575b50505050509050919050565b828054828255906000526020600020908101928215610ba7579160200282015b82811115610ba7578251825591602001919060010190610b8c565b50610bb3929150610c0b565b5090565b508054610bc390610f7e565b6000825580601f10610bd3575050565b601f0160209004906000526020600020908101906108bc9190610c0b565b50805460008255906000526020600020908101906108bc91905b5b80821115610bb35760008155600101610c0c565b634e487b7160e01b600052604160045260246000fd5b604051601f8201601f1916810167ffffffffffffffff81118282101715610c5f57610c5f610c20565b604052919050565b600082601f830112610c7857600080fd5b813567ffffffffffffffff811115610c9257610c92610c20565b610ca5601f8201601f1916602001610c36565b818152846020838601011115610cba57600080fd5b816020850160208301376000918101602001919091529392505050565b600080600060608486031215610cec57600080fd5b833567ffffffffffffffff80821115610d0457600080fd5b610d1087838801610c67565b9450602091508186013581811115610d2757600080fd5b610d3388828901610c67565b945050604086013581811115610d4857600080fd5b8601601f81018813610d5957600080fd5b803582811115610d6b57610d6b610c20565b8060051b9250610d7c848401610c36565b818152928201840192848101908a851115610d9657600080fd5b928501925b84841015610db457833582529285019290850190610d9b565b8096505050505050509250925092565b600060208284031215610dd657600080fd5b5035919050565b6000815180845260005b81811015610e0357602081850181015186830182015201610de7565b506000602082860101526020601f19601f83011685010191505092915050565b838152606060208201526000610e3c6060830185610ddd565b8281036040840152610e4e8185610ddd565b9695505050505050565b805182526000602080830151608082860152610e776080860182610ddd565b905060408401518582036040870152610e908282610ddd565b606086810151888303918901919091528051808352908501935060009250908401905b80831015610ed35783518252928401926001929092019190840190610eb3565b509695505050505050565b6020815260006109256020830184610e58565b600060208083016020845280855180835260408601915060408160051b87010192506020870160005b82811015610f4857603f19888603018452610f36858351610e58565b94509285019290850190600101610f1a565b5092979650505050505050565b600060208284031215610f6757600080fd5b81356001600160a01b03811681146109c757600080fd5b600181811c90821680610f9257607f821691505b602082108103610fb257634e487b7160e01b600052602260045260246000fd5b50919050565b601f821115611004576000816000526020600020601f850160051c81016020861015610fe15750805b601f850160051c820191505b8181101561100057828155600101610fed565b5050505b505050565b815167ffffffffffffffff81111561102357611023610c20565b611037816110318454610f7e565b84610fb8565b602080601f83116001811461106c57600084156110545750858301515b600019600386901b1c1916600185901b178555611000565b600085815260208120601f198616915b8281101561109b5788860151825594840194600190910190840161107c565b50858210156110b95787850151600019600388901b60f8161c191681555b5050505050600190811b01905550565b634e487b7160e01b600052601160045260246000fd5b6000600182016110f1576110f16110c9565b5060010190565b634e487b7160e01b600052603260045260246000fd5b81810381811115610928576109286110c9565b634e487b7160e01b600052603160045260246000fdfea2646970667358221220c1b93fbe88b774dd36253cffa3cbe74311f8ffbfe8b70926e82be907a110773664736f6c63430008170033a264697066735822122065eefaff6f9cf8a6885e85d01c29866c822723b1d843a707e4d5375d9e2ac27e64736f6c63430008170033",
  "devdoc": {
    "kind": "dev",
    "methods": {},
    "version": 1
  },
  "userdoc": {
    "kind": "user",
    "methods": {},
    "version": 1
  },
  "storageLayout": {
    "storage": [],
    "types": null
  }
}