{
  "address": "0x55D6EA11d51141e3Ed1589515091aF241eF8d899",
  "abi": [
    {
      "inputs": [],
      "name": "afterY2K",
      "outputs": [
        {
          "internalType": "uint256[]",
          "name": "",
          "type": "uint256[]"
        },
        {
          "internalType": "address[]",
          "name": "",
          "type": "address[]"
        }
      ],
      "stateMutability": "view",
      "type": "function"
    },
    {
      "inputs": [
        {
          "internalType": "uint256[]",
          "name": "_toAppend",
          "type": "uint256[]"
        }
      ],
      "name": "appendToNumbers",
      "outputs": [],
      "stateMutability": "nonpayable",
      "type": "function"
    },
    {
      "inputs": [],
      "name": "getNumbers",
      "outputs": [
        {
          "internalType": "uint256[]",
          "name": "",
          "type": "uint256[]"
        }
      ],
      "stateMutability": "view",
      "type": "function"
    },
    {
      "inputs": [
        {
          "internalType": "uint256",
          "name": "",
          "type": "uint256"
        }
      ],
      "name": "numbers",
      "outputs": [
        {
          "internalType": "uint256",
          "name": "",
          "type": "uint256"
        }
      ],
      "stateMutability": "view",
      "type": "function"
    },
    {
      "inputs": [],
      "name": "resetNumbers",
      "outputs": [],
      "stateMutability": "nonpayable",
      "type": "function"
    },
    {
      "inputs": [],
      "name": "resetSenders",
      "outputs": [],
      "stateMutability": "nonpayable",
      "type": "function"
    },
    {
      "inputs": [],
      "name": "resetTimestamps",
      "outputs": [],
      "stateMutability": "nonpayable",
      "type": "function"
    },
    {
      "inputs": [
        {
          "internalType": "uint256",
          "name": "_unixTimestamp",
          "type": "uint256"
        }
      ],
      "name": "saveTimestamp",
      "outputs": [],
      "stateMutability": "nonpayable",
      "type": "function"
    },
    {
      "inputs": [
        {
          "internalType": "uint256",
          "name": "",
          "type": "uint256"
        }
      ],
      "name": "senders",
      "outputs": [
        {
          "internalType": "address",
          "name": "",
          "type": "address"
        }
      ],
      "stateMutability": "view",
      "type": "function"
    },
    {
      "inputs": [
        {
          "internalType": "uint256",
          "name": "",
          "type": "uint256"
        }
      ],
      "name": "timestamps",
      "outputs": [
        {
          "internalType": "uint256",
          "name": "",
          "type": "uint256"
        }
      ],
      "stateMutability": "view",
      "type": "function"
    }
  ],
  "transactionHash": "0xb755b12ff7918ba24a860c534c723fdd420dd93b66bed0f3f015b6344705a914",
  "args": [],
  "numDeployments": 1,
  "solcInputHash": "840ae9efa03c3cca22907454cb805100",
  "bytecode": "0x6101c060405260016080908152600260a052600360c052600460e052600561010052600661012052600761014052600861016052600961018052600a6101a081905261004d91600091610060565b5034801561005a57600080fd5b506100c5565b8280548282559060005260206000209081019282156100a0579160200282015b828111156100a0578251829060ff16905591602001919060010190610080565b506100ac9291506100b0565b5090565b5b808211156100ac57600081556001016100b1565b6108f7806100d46000396000f3fe608060405234801561001057600080fd5b50600436106100be5760003560e01c80639977c78a11610076578063ade82bfd1161005b578063ade82bfd146101f2578063b1cebac5146101fa578063d39fa2331461020257600080fd5b80639977c78a14610135578063a00b7acd1461016057600080fd5b80637f66b1b8116100a75780637f66b1b8146100f757806389f915f6146100ff5780638bc33af31461011457600080fd5b806320aaf79a146100c35780634f9377db146100e2575b600080fd5b6100cb610215565b6040516100d9929190610732565b60405180910390f35b6100f56100f0366004610792565b6103a2565b005b6100f56104b4565b6101076104c2565b6040516100d99190610807565b610127610122366004610821565b61051a565b6040519081526020016100d9565b610148610143366004610821565b61053b565b6040516001600160a01b0390911681526020016100d9565b6100f561016e366004610821565b6001805480820182557fb10e2d527612073b26eecdfd717e6a320cf44b4afac2b0732d9fcbe2b7fa0cf60180547fffffffffffffffffffffffff000000000000000000000000000000000000000016331790556002805491820181556000527f405787fa12a823e0f2b7631cc41b3ba8828b3321ca811111fa75cd3aa3bb5ace0155565b6100f5610565565b6100f5610571565b610127610210366004610821565b6105d4565b60608060006102226105e4565b905060008167ffffffffffffffff81111561023f5761023f61083a565b604051908082528060200260200182016040528015610268578160200160208202803683370190505b50905060008267ffffffffffffffff8111156102865761028661083a565b6040519080825280602002602001820160405280156102af578160200160208202803683370190505b5090506000805b6002548110156103965763386d89d0600282815481106102d8576102d8610850565b9060005260206000200154111561038e57600281815481106102fc576102fc610850565b906000526020600020015484838151811061031957610319610850565b6020026020010181815250506001818154811061033857610338610850565b9060005260206000200160009054906101000a90046001600160a01b031683838151811061036857610368610850565b6001600160a01b03909216602092830291909101909101528161038a8161087c565b9250505b6001016102b6565b50919590945092505050565b600080546103b1908390610895565b67ffffffffffffffff8111156103c9576103c961083a565b6040519080825280602002602001820160405280156103f2578160200160208202803683370190505b50905060005b815181101561049a5760005481101561044c576000818154811061041e5761041e610850565b906000526020600020015482828151811061043b5761043b610850565b602002602001018181525050610492565b6000548490849061045d90846108ae565b81811061046c5761046c610850565b9050602002013582828151811061048557610485610850565b6020026020010181815250505b6001016103f8565b5080516104ae906000906020840190610638565b50505050565b6104c060016000610683565b565b6060600080548060200260200160405190810160405280929190818152602001828054801561051057602002820191906000526020600020905b8154815260200190600101908083116104fc575b5050505050905090565b6002818154811061052a57600080fd5b600091825260209091200154905081565b6001818154811061054b57600080fd5b6000918252602090912001546001600160a01b0316905081565b6104c060026000610683565b604080516101408101825260018152600260208201526003918101919091526004606082015260056080820152600660a0820152600760c0820152600860e08201526009610100820152600a61012082018190526105d1916000916106a1565b50565b6000818154811061052a57600080fd5b600080805b6002548110156106325763386d89d06002828154811061060b5761060b610850565b9060005260206000200154111561062a57816106268161087c565b9250505b6001016105e9565b50919050565b828054828255906000526020600020908101928215610673579160200282015b82811115610673578251825591602001919060010190610658565b5061067f9291506106e1565b5090565b50805460008255906000526020600020908101906105d191906106e1565b828054828255906000526020600020908101928215610673579160200282015b82811115610673578251829060ff169055916020019190600101906106c1565b5b8082111561067f57600081556001016106e2565b60008151808452602080850194506020840160005b838110156107275781518752958201959082019060010161070b565b509495945050505050565b60408152600061074560408301856106f6565b82810360208481019190915284518083528582019282019060005b818110156107855784516001600160a01b031683529383019391830191600101610760565b5090979650505050505050565b600080602083850312156107a557600080fd5b823567ffffffffffffffff808211156107bd57600080fd5b818501915085601f8301126107d157600080fd5b8135818111156107e057600080fd5b8660208260051b85010111156107f557600080fd5b60209290920196919550909350505050565b60208152600061081a60208301846106f6565b9392505050565b60006020828403121561083357600080fd5b5035919050565b634e487b7160e01b600052604160045260246000fd5b634e487b7160e01b600052603260045260246000fd5b634e487b7160e01b600052601160045260246000fd5b60006001820161088e5761088e610866565b5060010190565b808201808211156108a8576108a8610866565b92915050565b818103818111156108a8576108a861086656fea2646970667358221220b0e82bfae830b3b7dc7f88db52f498cc084831395fb5c0f343a53b053c4b309464736f6c63430008170033",
  "devdoc": {
    "kind": "dev",
    "methods": {},
    "version": 1
  },
  "userdoc": {
    "kind": "user",
    "methods": {},
    "version": 1
  },
  "storageLayout": {
    "storage": [
      {
        "astId": 10990,
        "contract": "contracts/Exemplars/ArraysExercise.sol:ArraysExercise",
        "label": "numbers",
        "offset": 0,
        "slot": "0",
        "type": "t_array(t_uint256)dyn_storage"
      },
      {
        "astId": 11088,
        "contract": "contracts/Exemplars/ArraysExercise.sol:ArraysExercise",
        "label": "senders",
        "offset": 0,
        "slot": "1",
        "type": "t_array(t_address)dyn_storage"
      },
      {
        "astId": 11091,
        "contract": "contracts/Exemplars/ArraysExercise.sol:ArraysExercise",
        "label": "timestamps",
        "offset": 0,
        "slot": "2",
        "type": "t_array(t_uint256)dyn_storage"
      }
    ],
    "types": {
      "t_address": {
        "encoding": "inplace",
        "label": "address",
        "numberOfBytes": "20"
      },
      "t_array(t_address)dyn_storage": {
        "base": "t_address",
        "encoding": "dynamic_array",
        "label": "address[]",
        "numberOfBytes": "32"
      },
      "t_array(t_uint256)dyn_storage": {
        "base": "t_uint256",
        "encoding": "dynamic_array",
        "label": "uint256[]",
        "numberOfBytes": "32"
      },
      "t_uint256": {
        "encoding": "inplace",
        "label": "uint256",
        "numberOfBytes": "32"
      }
    }
  }
}