{
  "address": "0x28Ccf46EeF36e49d7128f3F8d12f2FffdB079b1A",
  "abi": [
    {
      "inputs": [
        {
          "internalType": "uint256",
          "name": "_time",
          "type": "uint256"
        }
      ],
      "name": "AfterHours",
      "type": "error"
    },
    {
      "inputs": [
        {
          "internalType": "uint256",
          "name": "_time",
          "type": "uint256"
        }
      ],
      "name": "doNotDisturb",
      "outputs": [
        {
          "internalType": "string",
          "name": "",
          "type": "string"
        }
      ],
      "stateMutability": "pure",
      "type": "function"
    },
    {
      "inputs": [
        {
          "internalType": "uint256",
          "name": "_number",
          "type": "uint256"
        }
      ],
      "name": "fizzBuzz",
      "outputs": [
        {
          "internalType": "string",
          "name": "",
          "type": "string"
        }
      ],
      "stateMutability": "pure",
      "type": "function"
    }
  ],
  "transactionHash": "0x3e9064b9e9e78db28f7e75368c586efbe5f81d86035f51f46c6d512737e255e8",
  "args": [],
  "numDeployments": 1,
  "solcInputHash": "840ae9efa03c3cca22907454cb805100",
  "bytecode": "0x608060405234801561001057600080fd5b50610433806100206000396000f3fe608060405234801561001057600080fd5b50600436106100365760003560e01c8063440c93e21461003b578063e655b7bb14610064575b600080fd5b61004e61004936600461035d565b610077565b60405161005b9190610376565b60405180910390f35b61004e61007236600461035d565b6101a6565b60606100846003836103c5565b15801561009957506100976005836103c5565b155b156100d757505060408051808201909152600881527f46697a7a42757a7a000000000000000000000000000000000000000000000000602082015290565b6100e26003836103c5565b60000361012257505060408051808201909152600481527f46697a7a00000000000000000000000000000000000000000000000000000000602082015290565b61012d6005836103c5565b60000361016d57505060408051808201909152600481527f42757a7a00000000000000000000000000000000000000000000000000000000602082015290565b505060408051808201909152600581527f53706c6174000000000000000000000000000000000000000000000000000000602082015290565b606061096082106101b9576101b96103e7565b6108988211806101ca575061032082105b15610209576040517fa4bf701e000000000000000000000000000000000000000000000000000000008152600481018390526024015b60405180910390fd5b6104b082108061021a57506104eb82115b610280576040517f08c379a000000000000000000000000000000000000000000000000000000000815260206004820152600960248201527f4174206c756e63682100000000000000000000000000000000000000000000006044820152606401610200565b610320821015801561029457506104af8211155b156102d257505060408051808201909152600881527f4d6f726e696e6721000000000000000000000000000000000000000000000000602082015290565b61051482101580156102e657506107078211155b1561032457505060408051808201909152600a81527f41667465726e6f6f6e2100000000000000000000000000000000000000000000602082015290565b505060408051808201909152600881527f4576656e696e6721000000000000000000000000000000000000000000000000602082015290565b60006020828403121561036f57600080fd5b5035919050565b60006020808352835180602085015260005b818110156103a457858101830151858201604001528201610388565b506000604082860101526040601f19601f8301168501019250505092915050565b6000826103e257634e487b7160e01b600052601260045260246000fd5b500690565b634e487b7160e01b600052600160045260246000fdfea264697066735822122099cff4a24ac9b8e28eca7452eb35637aaa9481308b49f99190082a052da24c8864736f6c63430008170033",
  "devdoc": {
    "kind": "dev",
    "methods": {},
    "version": 1
  },
  "userdoc": {
    "kind": "user",
    "methods": {},
    "version": 1
  },
  "storageLayout": {
    "storage": [],
    "types": null
  }
}