{
  "address": "0xc27356AC75CC681C6ECfF231DF7486F834583fb8",
  "abi": [
    {
      "inputs": [
        {
          "internalType": "uint16",
          "name": "_shares",
          "type": "uint16"
        },
        {
          "internalType": "string",
          "name": "_name",
          "type": "string"
        },
        {
          "internalType": "uint24",
          "name": "_salary",
          "type": "uint24"
        },
        {
          "internalType": "uint256",
          "name": "_idNumber",
          "type": "uint256"
        }
      ],
      "stateMutability": "nonpayable",
      "type": "constructor"
    },
    {
      "inputs": [
        {
          "internalType": "uint256",
          "name": "_totalShares",
          "type": "uint256"
        }
      ],
      "name": "TooManyShares",
      "type": "error"
    },
    {
      "inputs": [
        {
          "internalType": "uint256",
          "name": "_slot",
          "type": "uint256"
        }
      ],
      "name": "checkForPacking",
      "outputs": [
        {
          "internalType": "uint256",
          "name": "r",
          "type": "uint256"
        }
      ],
      "stateMutability": "view",
      "type": "function"
    },
    {
      "inputs": [],
      "name": "debugResetShares",
      "outputs": [],
      "stateMutability": "nonpayable",
      "type": "function"
    },
    {
      "inputs": [
        {
          "internalType": "uint16",
          "name": "_newShares",
          "type": "uint16"
        }
      ],
      "name": "grantShares",
      "outputs": [],
      "stateMutability": "nonpayable",
      "type": "function"
    },
    {
      "inputs": [],
      "name": "idNumber",
      "outputs": [
        {
          "internalType": "uint256",
          "name": "",
          "type": "uint256"
        }
      ],
      "stateMutability": "view",
      "type": "function"
    },
    {
      "inputs": [],
      "name": "name",
      "outputs": [
        {
          "internalType": "string",
          "name": "",
          "type": "string"
        }
      ],
      "stateMutability": "view",
      "type": "function"
    },
    {
      "inputs": [],
      "name": "viewSalary",
      "outputs": [
        {
          "internalType": "uint24",
          "name": "",
          "type": "uint24"
        }
      ],
      "stateMutability": "view",
      "type": "function"
    },
    {
      "inputs": [],
      "name": "viewShares",
      "outputs": [
        {
          "internalType": "uint16",
          "name": "",
          "type": "uint16"
        }
      ],
      "stateMutability": "view",
      "type": "function"
    }
  ],
  "transactionHash": "0xe75f3e6f0aa16931394e6a9a4e7a937f5c8778418c98e51df2cb44c9f89d255c",
  "args": [
    1000,
    "Pat",
    50000,
    112358132134
  ],
  "numDeployments": 1,
  "solcInputHash": "840ae9efa03c3cca22907454cb805100",
  "bytecode": "0x608060405234801561001057600080fd5b506040516106ca3803806106ca83398101604081905261002f916100a0565b600061003b8482610227565b506002805460019290925561ffff9490941664ffffffffff19909116176201000062ffffff929092169190910217909155506102e6565b634e487b7160e01b600052604160045260246000fd5b805162ffffff8116811461009b57600080fd5b919050565b600080600080608085870312156100b657600080fd5b845161ffff811681146100c857600080fd5b602086810151919550906001600160401b03808211156100e757600080fd5b818801915088601f8301126100fb57600080fd5b81518181111561010d5761010d610072565b604051601f8201601f19908116603f0116810190838211818310171561013557610135610072565b816040528281528b8684870101111561014d57600080fd5b600093505b8284101561016f5784840186015181850187015292850192610152565b600086848301015280985050505050505061018c60408601610088565b6060959095015193969295505050565b600181811c908216806101b057607f821691505b6020821081036101d057634e487b7160e01b600052602260045260246000fd5b50919050565b601f821115610222576000816000526020600020601f850160051c810160208610156101ff5750805b601f850160051c820191505b8181101561021e5782815560010161020b565b5050505b505050565b81516001600160401b0381111561024057610240610072565b6102548161024e845461019c565b846101d6565b602080601f83116001811461028957600084156102715750858301515b600019600386901b1c1916600185901b17855561021e565b600085815260208120601f198616915b828110156102b857888601518255948401946001909101908401610299565b50858210156102d65787850151600019600388901b60f8161c191681555b5050505050600190811b01905550565b6103d5806102f56000396000f3fe608060405234801561001057600080fd5b506004361061007d5760003560e01c80634c7648091161005b5780634c764809146100d957806352c98689146100ef5780636d45e2a5146101025780638f6a861a1461011857600080fd5b806306fdde03146100825780633f83ea3b146100a057806349574402146100b7575b600080fd5b61008a61012a565b60405161009791906102a2565b60405180910390f35b6100a960015481565b604051908152602001610097565b60025462010000900462ffffff1660405162ffffff9091168152602001610097565b6100ed6002805461ffff19166103e8179055565b005b6100ed6100fd3660046102f1565b6101b8565b60025460405161ffff9091168152602001610097565b6100a961012636600461031c565b5490565b6000805461013790610335565b80601f016020809104026020016040519081016040528092919081815260200182805461016390610335565b80156101b05780601f10610185576101008083540402835291602001916101b0565b820191906000526020600020905b81548152906001019060200180831161019357829003601f168201915b505050505081565b6002546000906101cc9061ffff168361036f565b90506113888261ffff161115610243576040517f08c379a000000000000000000000000000000000000000000000000000000000815260206004820152600f60248201527f546f6f206d616e7920736861726573000000000000000000000000000000000060448201526064015b60405180910390fd5b6113888161ffff161115610289576040517f0f7d410900000000000000000000000000000000000000000000000000000000815261ffff8216600482015260240161023a565b6002805461ffff191661ffff9290921691909117905550565b60006020808352835180602085015260005b818110156102d0578581018301518582016040015282016102b4565b506000604082860101526040601f19601f8301168501019250505092915050565b60006020828403121561030357600080fd5b813561ffff8116811461031557600080fd5b9392505050565b60006020828403121561032e57600080fd5b5035919050565b600181811c9082168061034957607f821691505b60208210810361036957634e487b7160e01b600052602260045260246000fd5b50919050565b61ffff81811683821601908082111561039857634e487b7160e01b600052601160045260246000fd5b509291505056fea2646970667358221220cf4c02d246a04b3d797c8f6456826363d1e66e44e9e346796bb63ecb7658146b64736f6c63430008170033",
  "devdoc": {
    "kind": "dev",
    "methods": {},
    "version": 1
  },
  "userdoc": {
    "kind": "user",
    "methods": {
      "checkForPacking(uint256)": {
        "notice": "Do not modify this function.  It is used to enable the unit test for this pin to check whether or not you have configured your storage variables to make use of packing. If you wish to cheat, simply modify this function to always return `0` I'm not your boss ¯\\_(ツ)_/¯ Fair warning though, if you do cheat, it will be on the blockchain having been deployed by you wallet....FOREVER!"
      }
    },
    "version": 1
  },
  "storageLayout": {
    "storage": [
      {
        "astId": 11442,
        "contract": "contracts/Exemplars/EmployeeStorage.sol:EmployeeStorage",
        "label": "name",
        "offset": 0,
        "slot": "0",
        "type": "t_string_storage"
      },
      {
        "astId": 11444,
        "contract": "contracts/Exemplars/EmployeeStorage.sol:EmployeeStorage",
        "label": "idNumber",
        "offset": 0,
        "slot": "1",
        "type": "t_uint256"
      },
      {
        "astId": 11446,
        "contract": "contracts/Exemplars/EmployeeStorage.sol:EmployeeStorage",
        "label": "shares",
        "offset": 0,
        "slot": "2",
        "type": "t_uint16"
      },
      {
        "astId": 11448,
        "contract": "contracts/Exemplars/EmployeeStorage.sol:EmployeeStorage",
        "label": "salary",
        "offset": 2,
        "slot": "2",
        "type": "t_uint24"
      }
    ],
    "types": {
      "t_string_storage": {
        "encoding": "bytes",
        "label": "string",
        "numberOfBytes": "32"
      },
      "t_uint16": {
        "encoding": "inplace",
        "label": "uint16",
        "numberOfBytes": "2"
      },
      "t_uint24": {
        "encoding": "inplace",
        "label": "uint24",
        "numberOfBytes": "3"
      },
      "t_uint256": {
        "encoding": "inplace",
        "label": "uint256",
        "numberOfBytes": "32"
      }
    }
  }
}