{
  "address": "0xe673b21039b1e098d68782AB6801f1836E2e0E9b",
  "abi": [
    {
      "inputs": [
        {
          "internalType": "uint256",
          "name": "_annualSalary",
          "type": "uint256"
        },
        {
          "internalType": "uint256",
          "name": "_idNumber",
          "type": "uint256"
        },
        {
          "internalType": "uint256",
          "name": "_managerId",
          "type": "uint256"
        }
      ],
      "stateMutability": "nonpayable",
      "type": "constructor"
    },
    {
      "inputs": [
        {
          "internalType": "uint256",
          "name": "_id",
          "type": "uint256"
        }
      ],
      "name": "addReport",
      "outputs": [],
      "stateMutability": "nonpayable",
      "type": "function"
    },
    {
      "inputs": [],
      "name": "annualSalary",
      "outputs": [
        {
          "internalType": "uint256",
          "name": "",
          "type": "uint256"
        }
      ],
      "stateMutability": "view",
      "type": "function"
    },
    {
      "inputs": [],
      "name": "getAnnualCost",
      "outputs": [
        {
          "internalType": "uint256",
          "name": "",
          "type": "uint256"
        }
      ],
      "stateMutability": "view",
      "type": "function"
    },
    {
      "inputs": [],
      "name": "idNumber",
      "outputs": [
        {
          "internalType": "uint256",
          "name": "",
          "type": "uint256"
        }
      ],
      "stateMutability": "view",
      "type": "function"
    },
    {
      "inputs": [],
      "name": "managerId",
      "outputs": [
        {
          "internalType": "uint256",
          "name": "",
          "type": "uint256"
        }
      ],
      "stateMutability": "view",
      "type": "function"
    },
    {
      "inputs": [
        {
          "internalType": "uint256",
          "name": "",
          "type": "uint256"
        }
      ],
      "name": "reportIds",
      "outputs": [
        {
          "internalType": "uint256",
          "name": "",
          "type": "uint256"
        }
      ],
      "stateMutability": "view",
      "type": "function"
    },
    {
      "inputs": [],
      "name": "resetReports",
      "outputs": [],
      "stateMutability": "nonpayable",
      "type": "function"
    }
  ],
  "transactionHash": "0xcaab088453130837af1a511d89be7a7729adc834aff466f55a725e1cf78f16f5",
  "args": [
    200000,
    54321,
    11111
  ],
  "numDeployments": 1,
  "solcInputHash": "840ae9efa03c3cca22907454cb805100",
  "bytecode": "0x608060405234801561001057600080fd5b5060405161024c38038061024c83398101604081905261002f91610040565b60009190915560015560025561006e565b60008060006060848603121561005557600080fd5b8351925060208401519150604084015190509250925092565b6101cf8061007d6000396000f3fe608060405234801561001057600080fd5b506004361061007d5760003560e01c806386e73dc31161005b57806386e73dc3146100ae57806387cc66de146100f3578063a596d3c814610106578063f5895a0a1461010e57600080fd5b80633f83ea3b1461008257806350dca6ab1461009d5780635cdee0c0146100a6575b600080fd5b61008b60005481565b60405190815260200160405180910390f35b61008b60025481565b60025461008b565b6100f16100bc366004610180565b600380546001810182556000919091527fc2575a0e9e593c00f959f8c92f12db2869c3395a3b0502d05e2516446f71f85b0155565b005b61008b610101366004610180565b610117565b6100f1610138565b61008b60015481565b6003818154811061012757600080fd5b600091825260209091200154905081565b61014460036000610146565b565b50805460008255906000526020600020908101906101649190610167565b50565b5b8082111561017c5760008155600101610168565b5090565b60006020828403121561019257600080fd5b503591905056fea264697066735822122073a92b50c474b2cf7ccd4b2474a9274c3629c1061a451e3c92ccaa6b14774bff64736f6c63430008170033",
  "devdoc": {
    "kind": "dev",
    "methods": {},
    "version": 1
  },
  "userdoc": {
    "kind": "user",
    "methods": {},
    "version": 1
  },
  "storageLayout": {
    "storage": [
      {
        "astId": 12457,
        "contract": "contracts/Exemplars/InheritanceExercise.sol:EngineeringManager",
        "label": "idNumber",
        "offset": 0,
        "slot": "0",
        "type": "t_uint256"
      },
      {
        "astId": 12459,
        "contract": "contracts/Exemplars/InheritanceExercise.sol:EngineeringManager",
        "label": "managerId",
        "offset": 0,
        "slot": "1",
        "type": "t_uint256"
      },
      {
        "astId": 12485,
        "contract": "contracts/Exemplars/InheritanceExercise.sol:EngineeringManager",
        "label": "annualSalary",
        "offset": 0,
        "slot": "2",
        "type": "t_uint256"
      },
      {
        "astId": 12550,
        "contract": "contracts/Exemplars/InheritanceExercise.sol:EngineeringManager",
        "label": "reportIds",
        "offset": 0,
        "slot": "3",
        "type": "t_array(t_uint256)dyn_storage"
      }
    ],
    "types": {
      "t_array(t_uint256)dyn_storage": {
        "base": "t_uint256",
        "encoding": "dynamic_array",
        "label": "uint256[]",
        "numberOfBytes": "32"
      },
      "t_uint256": {
        "encoding": "inplace",
        "label": "uint256",
        "numberOfBytes": "32"
      }
    }
  }
}