{
  "address": "0x1874CD8447434F9FD51f4F82C391112CD30eB2C2",
  "abi": [
    {
      "inputs": [
        {
          "internalType": "contract ISubmission",
          "name": "_submission",
          "type": "address"
        }
      ],
      "name": "claim",
      "outputs": [
        {
          "internalType": "string",
          "name": "",
          "type": "string"
        },
        {
          "internalType": "bool",
          "name": "",
          "type": "bool"
        }
      ],
      "stateMutability": "nonpayable",
      "type": "function"
    },
    {
      "inputs": [
        {
          "internalType": "contract ISubmission",
          "name": "_submission",
          "type": "address"
        },
        {
          "internalType": "uint256",
          "name": "_id",
          "type": "uint256"
        },
        {
          "internalType": "enum ISubmission.Vote",
          "name": "_vote",
          "type": "uint8"
        }
      ],
      "name": "vote",
      "outputs": [
        {
          "internalType": "string",
          "name": "",
          "type": "string"
        },
        {
          "internalType": "bool",
          "name": "",
          "type": "bool"
        }
      ],
      "stateMutability": "nonpayable",
      "type": "function"
    }
  ],
  "transactionHash": "0xcb8d3061933f4c25d63ace670117a5bc6493adaacc12cba57281fce6d210b92b",
  "args": [],
  "numDeployments": 1,
  "solcInputHash": "6a581879d712a9c25e4fb247f22274cf",
  "bytecode": "0x608060405234801561001057600080fd5b50610385806100206000396000f3fe608060405234801561001057600080fd5b50600436106100365760003560e01c80631e83409a1461003b5780636a348b7b14610065575b600080fd5b61004e610049366004610247565b610078565b60405161005c929190610269565b60405180910390f35b61004e6100733660046102c0565b61008e565b60606000610085836100aa565b91509150915091565b6060600061009d85858561015e565b915091505b935093915050565b606060008273ffffffffffffffffffffffffffffffffffffffff16634e71d92d6040518163ffffffff1660e01b8152600401600060405180830381600087803b1580156100f657600080fd5b505af1925050508015610107575060015b610145573d808015610135576040519150601f19603f3d011682016040523d82523d6000602084013e61013a565b606091505b509360019350915050565b5050604080516020810190915260008082529092909150565b606060008473ffffffffffffffffffffffffffffffffffffffff1663943e821685856040518363ffffffff1660e01b815260040161019d929190610304565b600060405180830381600087803b1580156101b757600080fd5b505af19250505080156101c8575060015b610207573d8080156101f6576040519150601f19603f3d011682016040523d82523d6000602084013e6101fb565b606091505b509150600190506100a2565b5050604080516020810190915260008082526100a2565b803573ffffffffffffffffffffffffffffffffffffffff8116811461024257600080fd5b919050565b60006020828403121561025957600080fd5b6102628261021e565b9392505050565b604081526000835180604084015260005b81811015610297576020818701810151606086840101520161027a565b506000606082850101526060601f19601f83011684010191505082151560208301529392505050565b6000806000606084860312156102d557600080fd5b6102de8461021e565b9250602084013591506040840135600381106102f957600080fd5b809150509250925092565b8281526040810160038310610342577f4e487b7100000000000000000000000000000000000000000000000000000000600052602160045260246000fd5b826020830152939250505056fea2646970667358221220dcbad783143fe985db06276046d9869c8809e749df932459056e90275575331464736f6c63430008170033",
  "devdoc": {
    "kind": "dev",
    "methods": {},
    "version": 1
  },
  "userdoc": {
    "kind": "user",
    "methods": {},
    "version": 1
  },
  "storageLayout": {
    "storage": [],
    "types": null
  }
}