{
  "address": "0xf7f7adCE0a37652B7FeC025b20Dc6510485ACcCd",
  "abi": [
    {
      "inputs": [
        {
          "internalType": "contract ISubmission",
          "name": "_submission",
          "type": "address"
        }
      ],
      "name": "getMySharedHaikus",
      "outputs": [
        {
          "internalType": "string",
          "name": "",
          "type": "string"
        },
        {
          "internalType": "bool",
          "name": "",
          "type": "bool"
        },
        {
          "components": [
            {
              "internalType": "address",
              "name": "author",
              "type": "address"
            },
            {
              "internalType": "string",
              "name": "line1",
              "type": "string"
            },
            {
              "internalType": "string",
              "name": "line2",
              "type": "string"
            },
            {
              "internalType": "string",
              "name": "line3",
              "type": "string"
            }
          ],
          "internalType": "struct ISubmission.Haiku[]",
          "name": "",
          "type": "tuple[]"
        }
      ],
      "stateMutability": "view",
      "type": "function"
    },
    {
      "inputs": [
        {
          "internalType": "contract ISubmission",
          "name": "_submission",
          "type": "address"
        },
        {
          "internalType": "string",
          "name": "_line1",
          "type": "string"
        },
        {
          "internalType": "string",
          "name": "_line2",
          "type": "string"
        },
        {
          "internalType": "string",
          "name": "_line3",
          "type": "string"
        }
      ],
      "name": "mintHaiku",
      "outputs": [
        {
          "internalType": "string",
          "name": "",
          "type": "string"
        },
        {
          "internalType": "bool",
          "name": "",
          "type": "bool"
        }
      ],
      "stateMutability": "nonpayable",
      "type": "function"
    },
    {
      "inputs": [
        {
          "internalType": "address",
          "name": "operator",
          "type": "address"
        },
        {
          "internalType": "address",
          "name": "from",
          "type": "address"
        },
        {
          "internalType": "uint256",
          "name": "tokenId",
          "type": "uint256"
        },
        {
          "internalType": "bytes",
          "name": "data",
          "type": "bytes"
        }
      ],
      "name": "onERC721Received",
      "outputs": [
        {
          "internalType": "bytes4",
          "name": "",
          "type": "bytes4"
        }
      ],
      "stateMutability": "nonpayable",
      "type": "function"
    },
    {
      "inputs": [
        {
          "internalType": "contract ISubmission",
          "name": "_submission",
          "type": "address"
        },
        {
          "internalType": "uint256",
          "name": "_id",
          "type": "uint256"
        },
        {
          "internalType": "address",
          "name": "_to",
          "type": "address"
        }
      ],
      "name": "shareHaiku",
      "outputs": [
        {
          "internalType": "string",
          "name": "",
          "type": "string"
        },
        {
          "internalType": "bool",
          "name": "",
          "type": "bool"
        }
      ],
      "stateMutability": "nonpayable",
      "type": "function"
    }
  ],
  "transactionHash": "0x2b0a00780a2f9a989e9bd8f7b58485b95a8e50cb5c0d80c225111b00c537d706",
  "args": [],
  "numDeployments": 1,
  "solcInputHash": "6a581879d712a9c25e4fb247f22274cf",
  "bytecode": "0x608060405234801561001057600080fd5b506109d5806100206000396000f3fe608060405234801561001057600080fd5b506004361061004c5760003560e01c8063150b7a0214610051578063462b412d146100bf578063b59dad43146100e1578063c9e2c98814610102575b600080fd5b61008961005f3660046103cd565b7f150b7a020000000000000000000000000000000000000000000000000000000095945050505050565b6040517fffffffff0000000000000000000000000000000000000000000000000000000090911681526020015b60405180910390f35b6100d26100cd36600461046c565b610115565b6040516100b6939291906104e0565b6100f46100ef3660046105af565b610132565b6040516100b69291906105f1565b6100f461011036600461071c565b61014e565b6060600060606101248461016c565b9250925092505b9193909250565b60606000610141858585610230565b915091505b935093915050565b6060600061015e86868686610300565b915091505b94509492505050565b606060006060836001600160a01b03166349af5bfe6040518163ffffffff1660e01b8152600401600060405180830381865afa9250505080156101d157506040513d6000823e601f3d908101601f191682016040526101ce9190810190610804565b60015b610214573d8080156101ff576040519150601f19603f3d011682016040523d82523d6000602084013e610204565b606091505b509250600191506060905061012b565b604080516020810190915260008082529094509250905061012b565b6040517f2c83ea56000000000000000000000000000000000000000000000000000000008152600481018390526001600160a01b038281166024830152606091600091861690632c83ea5690604401600060405180830381600087803b15801561029957600080fd5b505af19250505080156102aa575060015b6102e9573d8080156102d8576040519150601f19603f3d011682016040523d82523d6000602084013e6102dd565b606091505b50915060019050610146565b505060408051602081019091526000808252610146565b60606000856001600160a01b031663350fe1658686866040518463ffffffff1660e01b81526004016103349392919061095c565b600060405180830381600087803b15801561034e57600080fd5b505af192505050801561035f575060015b61039e573d80801561038d576040519150601f19603f3d011682016040523d82523d6000602084013e610392565b606091505b50915060019050610163565b505060408051602081019091526000808252610163565b6001600160a01b03811681146103ca57600080fd5b50565b6000806000806000608086880312156103e557600080fd5b85356103f0816103b5565b94506020860135610400816103b5565b935060408601359250606086013567ffffffffffffffff8082111561042457600080fd5b818801915088601f83011261043857600080fd5b81358181111561044757600080fd5b89602082850101111561045957600080fd5b9699959850939650602001949392505050565b60006020828403121561047e57600080fd5b8135610489816103b5565b9392505050565b60005b838110156104ab578181015183820152602001610493565b50506000910152565b600081518084526104cc816020860160208601610490565b601f01601f19169290920160200192915050565b600060608083526104f460608401876104b4565b602086151581860152604085830360408701528287518085528385019150838160051b860101848a0160005b8381101561059d57601f19888403018552815160806001600160a01b03825116855288820151818a870152610557828701826104b4565b915050878201518582038987015261056f82826104b4565b9150508a82015191508481038b86015261058981836104b4565b968901969450505090860190600101610520565b50909c9b505050505050505050505050565b6000806000606084860312156105c457600080fd5b83356105cf816103b5565b92506020840135915060408401356105e6816103b5565b809150509250925092565b60408152600061060460408301856104b4565b905082151560208301529392505050565b7f4e487b7100000000000000000000000000000000000000000000000000000000600052604160045260246000fd5b6040516080810167ffffffffffffffff8111828210171561066757610667610615565b60405290565b604051601f8201601f1916810167ffffffffffffffff8111828210171561069657610696610615565b604052919050565b600067ffffffffffffffff8211156106b8576106b8610615565b50601f01601f191660200190565b600082601f8301126106d757600080fd5b81356106ea6106e58261069e565b61066d565b8181528460208386010111156106ff57600080fd5b816020850160208301376000918101602001919091529392505050565b6000806000806080858703121561073257600080fd5b843561073d816103b5565b9350602085013567ffffffffffffffff8082111561075a57600080fd5b610766888389016106c6565b9450604087013591508082111561077c57600080fd5b610788888389016106c6565b9350606087013591508082111561079e57600080fd5b506107ab878288016106c6565b91505092959194509250565b600082601f8301126107c857600080fd5b81516107d66106e58261069e565b8181528460208386010111156107eb57600080fd5b6107fc826020830160208701610490565b949350505050565b6000602080838503121561081757600080fd5b825167ffffffffffffffff8082111561082f57600080fd5b818501915085601f83011261084357600080fd5b81518181111561085557610855610615565b8060051b61086485820161066d565b918252838101850191858101908984111561087e57600080fd5b86860192505b8383101561094f5782518581111561089b57600080fd5b86016080818c03601f190112156108b25760008081fd5b6108ba610644565b888201516108c7816103b5565b8152604082810151888111156108dd5760008081fd5b6108eb8e8c838701016107b7565b8b84015250606080840151898111156109045760008081fd5b6109128f8d838801016107b7565b8385015250608084015191508882111561092c5760008081fd5b61093a8e8c848701016107b7565b90830152508352509186019190860190610884565b9998505050505050505050565b60608152600061096f60608301866104b4565b828103602084015261098181866104b4565b9050828103604084015261099581856104b4565b969550505050505056fea264697066735822122093fd27eb1384f511260888832f0c2c5e4ff95518e6168a67f31cf097356b574364736f6c63430008170033",
  "devdoc": {
    "kind": "dev",
    "methods": {},
    "version": 1
  },
  "userdoc": {
    "kind": "user",
    "methods": {},
    "version": 1
  },
  "storageLayout": {
    "storage": [],
    "types": null
  }
}