{
  "address": "0x734b302F1D92EcF880A2E4D1567c62a4DF2cc145",
  "abi": [
    {
      "inputs": [
        {
          "internalType": "uint256",
          "name": "_num",
          "type": "uint256"
        }
      ],
      "name": "addToArr",
      "outputs": [],
      "stateMutability": "nonpayable",
      "type": "function"
    },
    {
      "inputs": [
        {
          "internalType": "uint256",
          "name": "_base",
          "type": "uint256"
        },
        {
          "internalType": "int256",
          "name": "_modifier",
          "type": "int256"
        }
      ],
      "name": "applyModifier",
      "outputs": [
        {
          "internalType": "uint256",
          "name": "",
          "type": "uint256"
        }
      ],
      "stateMutability": "pure",
      "type": "function"
    },
    {
      "inputs": [
        {
          "internalType": "uint256",
          "name": "_a",
          "type": "uint256"
        },
        {
          "internalType": "uint256",
          "name": "_b",
          "type": "uint256"
        },
        {
          "internalType": "uint256",
          "name": "_c",
          "type": "uint256"
        },
        {
          "internalType": "uint256",
          "name": "_d",
          "type": "uint256"
        }
      ],
      "name": "diffWithNeighbor",
      "outputs": [
        {
          "internalType": "uint256[]",
          "name": "",
          "type": "uint256[]"
        }
      ],
      "stateMutability": "pure",
      "type": "function"
    },
    {
      "inputs": [],
      "name": "getArr",
      "outputs": [
        {
          "internalType": "uint256[]",
          "name": "",
          "type": "uint256[]"
        }
      ],
      "stateMutability": "view",
      "type": "function"
    },
    {
      "inputs": [],
      "name": "popWithReturn",
      "outputs": [
        {
          "internalType": "uint256",
          "name": "",
          "type": "uint256"
        }
      ],
      "stateMutability": "nonpayable",
      "type": "function"
    },
    {
      "inputs": [],
      "name": "resetArr",
      "outputs": [],
      "stateMutability": "nonpayable",
      "type": "function"
    }
  ],
  "transactionHash": "0xb3b51e191908fb33d7d7c09f9eaf71b7287cd9a2eefd38f45507b968490d78f9",
  "args": [],
  "numDeployments": 1,
  "solcInputHash": "840ae9efa03c3cca22907454cb805100",
  "bytecode": "0x608060405234801561001057600080fd5b506105a4806100206000396000f3fe608060405234801561001057600080fd5b50600436106100725760003560e01c8063e1819ff911610050578063e1819ff9146100bc578063f74e51ea146100fc578063fb8cbced1461010f57600080fd5b80631abe2ac214610077578063294323141461009257806364529db5146100b2575b600080fd5b61007f610117565b6040519081526020015b60405180910390f35b6100a56100a03660046103cd565b61017b565b60405161008991906103ff565b6100ba610319565b005b6100ba6100ca366004610443565b600080546001810182559080527f290decd9548b62a8d60345a988386fc84ba6bc95484008f6362f93160ef3e5630155565b61007f61010a36600461045c565b610326565b6100a561033b565b60008054819061012990600190610494565b9050600080828154811061013f5761013f6104a7565b90600052602060002001549050600080548061015d5761015d6104bd565b60019003818190600052602060002001600090559055809250505090565b60408051600380825260808201909252606091600091906020820184803683375050604080516003808252608082019092529293506000929150602082016060803683370190505090506101cf86886104d3565b826000815181106101e2576101e26104a7565b60209081029190910101526101f785876104d3565b8260018151811061020a5761020a6104a7565b602090810291909101015261021f84866104d3565b82600281518110610232576102326104a7565b60200260200101818152505060005b600381101561030e57600083828151811061025e5761025e6104a7565b60200260200101511261028a5782818151811061027d5761027d6104a7565b60200260200101516102b1565b82818151811061029c5761029c6104a7565b60200260200101516000196102b191906104fa565b8382815181106102c3576102c36104a7565b6020026020010181815250508281815181106102e1576102e16104a7565b60200260200101518282815181106102fb576102fb6104a7565b6020908102919091010152600101610241565b509695505050505050565b610324600080610393565b565b60006103328284610546565b90505b92915050565b6060600080548060200260200160405190810160405280929190818152602001828054801561038957602002820191906000526020600020905b815481526020019060010190808311610375575b5050505050905090565b50805460008255906000526020600020908101906103b191906103b4565b50565b5b808211156103c957600081556001016103b5565b5090565b600080600080608085870312156103e357600080fd5b5050823594602084013594506040840135936060013592509050565b6020808252825182820181905260009190848201906040850190845b818110156104375783518352928401929184019160010161041b565b50909695505050505050565b60006020828403121561045557600080fd5b5035919050565b6000806040838503121561046f57600080fd5b50508035926020909101359150565b634e487b7160e01b600052601160045260246000fd5b818103818111156103355761033561047e565b634e487b7160e01b600052603260045260246000fd5b634e487b7160e01b600052603160045260246000fd5b81810360008312801583831316838312821617156104f3576104f361047e565b5092915050565b808202600082127f8000000000000000000000000000000000000000000000000000000000000000841416156105325761053261047e565b81810583148215176103355761033561047e565b80820182811260008312801582168215821617156105665761056661047e565b50509291505056fea2646970667358221220f988770f9c8a57ab565137c404d4c2f04305aeadfdd3f31ed3e1d1022c1d17ea64736f6c63430008170033",
  "devdoc": {
    "kind": "dev",
    "methods": {},
    "version": 1
  },
  "userdoc": {
    "kind": "user",
    "methods": {
      "applyModifier(uint256,int256)": {
        "notice": "Changes the _base by the value of _modifier.  Base is always > 1000.  Modifiers can be between positive and negative 100;"
      },
      "diffWithNeighbor(uint256,uint256,uint256,uint256)": {
        "notice": "Finds the difference between each uint with it's neighbor (a to b, b to c, etc.) and returns a uint array with the absolute integer difference of each pairing."
      }
    },
    "version": 1
  },
  "storageLayout": {
    "storage": [
      {
        "astId": 11699,
        "contract": "contracts/Exemplars/ErrorTriageExercise.sol:ErrorTriageExercise",
        "label": "arr",
        "offset": 0,
        "slot": "0",
        "type": "t_array(t_uint256)dyn_storage"
      }
    ],
    "types": {
      "t_array(t_uint256)dyn_storage": {
        "base": "t_uint256",
        "encoding": "dynamic_array",
        "label": "uint256[]",
        "numberOfBytes": "32"
      },
      "t_uint256": {
        "encoding": "inplace",
        "label": "uint256",
        "numberOfBytes": "32"
      }
    }
  }
}