{
  "address": "0xFc9f5C2f154Bc703f2BcE63Cf9abDd00108E1401",
  "abi": [
    {
      "inputs": [],
      "stateMutability": "nonpayable",
      "type": "constructor"
    },
    {
      "inputs": [
        {
          "internalType": "string",
          "name": "recordName",
          "type": "string"
        }
      ],
      "name": "NotApproved",
      "type": "error"
    },
    {
      "inputs": [
        {
          "internalType": "string",
          "name": "_albumName",
          "type": "string"
        }
      ],
      "name": "addRecord",
      "outputs": [],
      "stateMutability": "nonpayable",
      "type": "function"
    },
    {
      "inputs": [
        {
          "internalType": "string",
          "name": "",
          "type": "string"
        }
      ],
      "name": "approvedRecords",
      "outputs": [
        {
          "internalType": "bool",
          "name": "",
          "type": "bool"
        }
      ],
      "stateMutability": "view",
      "type": "function"
    },
    {
      "inputs": [],
      "name": "getApprovedRecords",
      "outputs": [
        {
          "internalType": "string[]",
          "name": "",
          "type": "string[]"
        }
      ],
      "stateMutability": "view",
      "type": "function"
    },
    {
      "inputs": [
        {
          "internalType": "address",
          "name": "_address",
          "type": "address"
        }
      ],
      "name": "getUserFavorites",
      "outputs": [
        {
          "internalType": "string[]",
          "name": "",
          "type": "string[]"
        }
      ],
      "stateMutability": "view",
      "type": "function"
    },
    {
      "inputs": [],
      "name": "resetUserFavorites",
      "outputs": [],
      "stateMutability": "nonpayable",
      "type": "function"
    },
    {
      "inputs": [
        {
          "internalType": "address",
          "name": "",
          "type": "address"
        },
        {
          "internalType": "uint256",
          "name": "",
          "type": "uint256"
        }
      ],
      "name": "userFavorites",
      "outputs": [
        {
          "internalType": "string",
          "name": "",
          "type": "string"
        }
      ],
      "stateMutability": "view",
      "type": "function"
    }
  ],
  "transactionHash": "0x0c3acce7500cbf2fed581a9ed3e00ec3e0084824b1d8c857369c0555c344e477",
  "args": [],
  "numDeployments": 1,
  "solcInputHash": "840ae9efa03c3cca22907454cb805100",
  "bytecode": "0x60806040523480156200001157600080fd5b506040805180820190915260088152672a343934b63632b960c11b60208201526200003c90620001e6565b60408051808201909152600d81526c4261636b20696e20426c61636b60981b60208201526200006b90620001e6565b60408051808201909152600d81526c151a1948109bd91e59dd585c99609a1b60208201526200009a90620001e6565b60408051808201909152601981527f546865204461726b2053696465206f6620746865204d6f6f6e000000000000006020820152620000d990620001e6565b60408051808201909152601f81527f546865697220477265617465737420486974732028313937312d31393735290060208201526200011890620001e6565b60408051808201909152601081526f486f74656c2043616c69666f726e696160801b60208201526200014a90620001e6565b60408051808201909152600c81526b21b7b6b29027b71027bb32b960a11b60208201526200017890620001e6565b60408051808201909152600781526652756d6f75727360c81b6020820152620001a190620001e6565b60408051808201909152601481527f5361747572646179204e696768742046657665720000000000000000000000006020820152620001e090620001e6565b6200043e565b6001600082604051620001fa919062000272565b908152604051908190036020019020805491151560ff199092169190911790556001805480820182556000919091527fb10e2d527612073b26eecdfd717e6a320cf44b4afac2b0732d9fcbe2b7fa0cf6016200025782826200034a565b50600280549060006200026a8362000416565b919050555050565b6000825160005b8181101562000295576020818601810151858301520162000279565b506000920191825250919050565b634e487b7160e01b600052604160045260246000fd5b600181811c90821680620002ce57607f821691505b602082108103620002ef57634e487b7160e01b600052602260045260246000fd5b50919050565b601f82111562000345576000816000526020600020601f850160051c81016020861015620003205750805b601f850160051c820191505b8181101562000341578281556001016200032c565b5050505b505050565b81516001600160401b03811115620003665762000366620002a3565b6200037e81620003778454620002b9565b84620002f5565b602080601f831160018114620003b657600084156200039d5750858301515b600019600386901b1c1916600185901b17855562000341565b600085815260208120601f198616915b82811015620003e757888601518255948401946001909101908401620003c6565b5085821015620004065787850151600019600388901b60f8161c191681555b5050505050600190811b01905550565b6000600182016200043757634e487b7160e01b600052601160045260246000fd5b5060010190565b610888806200044e6000396000f3fe608060405234801561001057600080fd5b50600436106100725760003560e01c8063b374ac5911610050578063b374ac59146100bf578063c7853148146100fd578063d81aa8c41461011057600080fd5b80631cf0830b14610077578063837f887814610095578063aa070fb51461009f575b600080fd5b61007f610123565b60405161008c9190610538565b60405180910390f35b61009d6101fc565b005b6100b26100ad3660046105c5565b610216565b60405161008c91906105ef565b6100ed6100cd36600461061f565b805160208183018101805160008252928201919093012091525460ff1681565b604051901515815260200161008c565b61007f61010b3660046106d0565b6102cf565b61009d61011e36600461061f565b6103cb565b60606001805480602002602001604051908101604052809291908181526020016000905b828210156101f3578382906000526020600020018054610166906106eb565b80601f0160208091040260200160405190810160405280929190818152602001828054610192906106eb565b80156101df5780601f106101b4576101008083540402835291602001916101df565b820191906000526020600020905b8154815290600101906020018083116101c257829003601f168201915b505050505081526020019060010190610147565b50505050905090565b3360009081526003602052604081206102149161045c565b565b6003602052816000526040600020818154811061023257600080fd5b9060005260206000200160009150915050805461024e906106eb565b80601f016020809104026020016040519081016040528092919081815260200182805461027a906106eb565b80156102c75780601f1061029c576101008083540402835291602001916102c7565b820191906000526020600020905b8154815290600101906020018083116102aa57829003601f168201915b505050505081565b73ffffffffffffffffffffffffffffffffffffffff81166000908152600360209081526040808320805482518185028101850190935280835260609492939192909184015b828210156103c0578382906000526020600020018054610333906106eb565b80601f016020809104026020016040519081016040528092919081815260200182805461035f906106eb565b80156103ac5780601f10610381576101008083540402835291602001916103ac565b820191906000526020600020905b81548152906001019060200180831161038f57829003601f168201915b505050505081526020019060010190610314565b505050509050919050565b6000816040516103db9190610725565b9081526040519081900360200190205460ff1661042f57806040517f4f0ffc1b00000000000000000000000000000000000000000000000000000000815260040161042691906105ef565b60405180910390fd5b336000908152600360209081526040822080546001810182559083529120016104588282610792565b5050565b508054600082559060005260206000209081019061047a919061047d565b50565b8082111561049a576000610491828261049e565b5060010161047d565b5090565b5080546104aa906106eb565b6000825580601f106104ba575050565b601f01602090049060005260206000209081019061047a91905b8082111561049a57600081556001016104d4565b60005b838110156105035781810151838201526020016104eb565b50506000910152565b600081518084526105248160208601602086016104e8565b601f01601f19169290920160200192915050565b600060208083016020845280855180835260408601915060408160051b87010192506020870160005b8281101561058f57603f1988860301845261057d85835161050c565b94509285019290850190600101610561565b5092979650505050505050565b803573ffffffffffffffffffffffffffffffffffffffff811681146105c057600080fd5b919050565b600080604083850312156105d857600080fd5b6105e18361059c565b946020939093013593505050565b602081526000610602602083018461050c565b9392505050565b634e487b7160e01b600052604160045260246000fd5b60006020828403121561063157600080fd5b813567ffffffffffffffff8082111561064957600080fd5b818401915084601f83011261065d57600080fd5b81358181111561066f5761066f610609565b604051601f8201601f19908116603f0116810190838211818310171561069757610697610609565b816040528281528760208487010111156106b057600080fd5b826020860160208301376000928101602001929092525095945050505050565b6000602082840312156106e257600080fd5b6106028261059c565b600181811c908216806106ff57607f821691505b60208210810361071f57634e487b7160e01b600052602260045260246000fd5b50919050565b600082516107378184602087016104e8565b9190910192915050565b601f82111561078d576000816000526020600020601f850160051c8101602086101561076a5750805b601f850160051c820191505b8181101561078957828155600101610776565b5050505b505050565b815167ffffffffffffffff8111156107ac576107ac610609565b6107c0816107ba84546106eb565b84610741565b602080601f8311600181146107f557600084156107dd5750858301515b600019600386901b1c1916600185901b178555610789565b600085815260208120601f198616915b8281101561082457888601518255948401946001909101908401610805565b50858210156108425787850151600019600388901b60f8161c191681555b5050505050600190811b0190555056fea2646970667358221220bbebf2d97154d4d7122af1eda02e9c56c61de9dc5b622b957404cd04cd5b4dd364736f6c63430008170033",
  "devdoc": {
    "kind": "dev",
    "methods": {},
    "version": 1
  },
  "userdoc": {
    "kind": "user",
    "methods": {},
    "version": 1
  },
  "storageLayout": {
    "storage": [
      {
        "astId": 12635,
        "contract": "contracts/Exemplars/MappingsExercise.sol:FavoriteRecords",
        "label": "approvedRecords",
        "offset": 0,
        "slot": "0",
        "type": "t_mapping(t_string_memory_ptr,t_bool)"
      },
      {
        "astId": 12638,
        "contract": "contracts/Exemplars/MappingsExercise.sol:FavoriteRecords",
        "label": "listOfApproved",
        "offset": 0,
        "slot": "1",
        "type": "t_array(t_string_storage)dyn_storage"
      },
      {
        "astId": 12640,
        "contract": "contracts/Exemplars/MappingsExercise.sol:FavoriteRecords",
        "label": "numApprovedRecords",
        "offset": 0,
        "slot": "2",
        "type": "t_uint256"
      },
      {
        "astId": 12645,
        "contract": "contracts/Exemplars/MappingsExercise.sol:FavoriteRecords",
        "label": "userFavorites",
        "offset": 0,
        "slot": "3",
        "type": "t_mapping(t_address,t_array(t_string_storage)dyn_storage)"
      }
    ],
    "types": {
      "t_address": {
        "encoding": "inplace",
        "label": "address",
        "numberOfBytes": "20"
      },
      "t_array(t_string_storage)dyn_storage": {
        "base": "t_string_storage",
        "encoding": "dynamic_array",
        "label": "string[]",
        "numberOfBytes": "32"
      },
      "t_bool": {
        "encoding": "inplace",
        "label": "bool",
        "numberOfBytes": "1"
      },
      "t_mapping(t_address,t_array(t_string_storage)dyn_storage)": {
        "encoding": "mapping",
        "key": "t_address",
        "label": "mapping(address => string[])",
        "numberOfBytes": "32",
        "value": "t_array(t_string_storage)dyn_storage"
      },
      "t_mapping(t_string_memory_ptr,t_bool)": {
        "encoding": "mapping",
        "key": "t_string_memory_ptr",
        "label": "mapping(string => bool)",
        "numberOfBytes": "32",
        "value": "t_bool"
      },
      "t_string_memory_ptr": {
        "encoding": "bytes",
        "label": "string",
        "numberOfBytes": "32"
      },
      "t_string_storage": {
        "encoding": "bytes",
        "label": "string",
        "numberOfBytes": "32"
      },
      "t_uint256": {
        "encoding": "inplace",
        "label": "uint256",
        "numberOfBytes": "32"
      }
    }
  }
}