{
  "address": "0x015724e49EA746a281Ca2c09414468Be737672D8",
  "abi": [
    {
      "inputs": [
        {
          "internalType": "uint256",
          "name": "",
          "type": "uint256"
        }
      ],
      "name": "BadCarIndex",
      "type": "error"
    },
    {
      "inputs": [
        {
          "internalType": "string",
          "name": "_make",
          "type": "string"
        },
        {
          "internalType": "string",
          "name": "_model",
          "type": "string"
        },
        {
          "internalType": "string",
          "name": "_color",
          "type": "string"
        },
        {
          "internalType": "uint256",
          "name": "_numberOfDoors",
          "type": "uint256"
        }
      ],
      "name": "addCar",
      "outputs": [],
      "stateMutability": "nonpayable",
      "type": "function"
    },
    {
      "inputs": [
        {
          "internalType": "address",
          "name": "",
          "type": "address"
        },
        {
          "internalType": "uint256",
          "name": "",
          "type": "uint256"
        }
      ],
      "name": "garage",
      "outputs": [
        {
          "internalType": "string",
          "name": "make",
          "type": "string"
        },
        {
          "internalType": "string",
          "name": "model",
          "type": "string"
        },
        {
          "internalType": "string",
          "name": "color",
          "type": "string"
        },
        {
          "internalType": "uint256",
          "name": "numberOfDoors",
          "type": "uint256"
        }
      ],
      "stateMutability": "view",
      "type": "function"
    },
    {
      "inputs": [],
      "name": "getMyCars",
      "outputs": [
        {
          "components": [
            {
              "internalType": "string",
              "name": "make",
              "type": "string"
            },
            {
              "internalType": "string",
              "name": "model",
              "type": "string"
            },
            {
              "internalType": "string",
              "name": "color",
              "type": "string"
            },
            {
              "internalType": "uint256",
              "name": "numberOfDoors",
              "type": "uint256"
            }
          ],
          "internalType": "struct GarageManager.Car[]",
          "name": "",
          "type": "tuple[]"
        }
      ],
      "stateMutability": "view",
      "type": "function"
    },
    {
      "inputs": [
        {
          "internalType": "address",
          "name": "_user",
          "type": "address"
        }
      ],
      "name": "getUserCars",
      "outputs": [
        {
          "components": [
            {
              "internalType": "string",
              "name": "make",
              "type": "string"
            },
            {
              "internalType": "string",
              "name": "model",
              "type": "string"
            },
            {
              "internalType": "string",
              "name": "color",
              "type": "string"
            },
            {
              "internalType": "uint256",
              "name": "numberOfDoors",
              "type": "uint256"
            }
          ],
          "internalType": "struct GarageManager.Car[]",
          "name": "",
          "type": "tuple[]"
        }
      ],
      "stateMutability": "view",
      "type": "function"
    },
    {
      "inputs": [],
      "name": "resetMyGarage",
      "outputs": [],
      "stateMutability": "nonpayable",
      "type": "function"
    },
    {
      "inputs": [
        {
          "internalType": "uint256",
          "name": "_index",
          "type": "uint256"
        },
        {
          "internalType": "string",
          "name": "_make",
          "type": "string"
        },
        {
          "internalType": "string",
          "name": "_model",
          "type": "string"
        },
        {
          "internalType": "string",
          "name": "_color",
          "type": "string"
        },
        {
          "internalType": "uint256",
          "name": "_numberOfDoors",
          "type": "uint256"
        }
      ],
      "name": "updateCar",
      "outputs": [],
      "stateMutability": "nonpayable",
      "type": "function"
    }
  ],
  "transactionHash": "0x8541964ca6f11cf59b995dca801e6114d99658f912a66149f1d7be0797e4d8a1",
  "args": [],
  "numDeployments": 1,
  "solcInputHash": "840ae9efa03c3cca22907454cb805100",
  "bytecode": "0x608060405234801561001057600080fd5b50610c92806100206000396000f3fe608060405234801561001057600080fd5b50600436106100725760003560e01c80634cd1ed3d116100505780634cd1ed3d146100cb5780636dcb7896146100e0578063d2d50bd8146100e857600080fd5b80632698286c14610077578063341fa05d146100a05780633ecd55a9146100a8575b600080fd5b61008a6100853660046107a3565b6100fb565b604051610097919061080b565b60405180910390f35b61008a61033b565b6100bb6100b63660046108b9565b61034b565b60405161009794939291906108e3565b6100de6100d93660046109d1565b610530565b005b6100de61061f565b6100de6100f6366004610a6b565b610639565b73ffffffffffffffffffffffffffffffffffffffff8116600090815260208181526040808320805482518185028101850190935280835260609492939192909184015b82821015610330578382906000526020600020906004020160405180608001604052908160008201805461017190610afb565b80601f016020809104026020016040519081016040528092919081815260200182805461019d90610afb565b80156101ea5780601f106101bf576101008083540402835291602001916101ea565b820191906000526020600020905b8154815290600101906020018083116101cd57829003601f168201915b5050505050815260200160018201805461020390610afb565b80601f016020809104026020016040519081016040528092919081815260200182805461022f90610afb565b801561027c5780601f106102515761010080835404028352916020019161027c565b820191906000526020600020905b81548152906001019060200180831161025f57829003601f168201915b5050505050815260200160028201805461029590610afb565b80601f01602080910402602001604051908101604052809291908181526020018280546102c190610afb565b801561030e5780601f106102e35761010080835404028352916020019161030e565b820191906000526020600020905b8154815290600101906020018083116102f157829003601f168201915b505050505081526020016003820154815250508152602001906001019061013e565b505050509050919050565b6060610346336100fb565b905090565b6000602052816000526040600020818154811061036757600080fd5b90600052602060002090600402016000915091505080600001805461038b90610afb565b80601f01602080910402602001604051908101604052809291908181526020018280546103b790610afb565b80156104045780601f106103d957610100808354040283529160200191610404565b820191906000526020600020905b8154815290600101906020018083116103e757829003601f168201915b50505050509080600101805461041990610afb565b80601f016020809104026020016040519081016040528092919081815260200182805461044590610afb565b80156104925780601f1061046757610100808354040283529160200191610492565b820191906000526020600020905b81548152906001019060200180831161047557829003601f168201915b5050505050908060020180546104a790610afb565b80601f01602080910402602001604051908101604052809291908181526020018280546104d390610afb565b80156105205780601f106104f557610100808354040283529160200191610520565b820191906000526020600020905b81548152906001019060200180831161050357829003601f168201915b5050505050908060030154905084565b33600090815260208190526040902054851061057f576040517f40c901ce0000000000000000000000000000000000000000000000000000000081526004810186905260240160405180910390fd5b6040805160808101825285815260208082018690528183018590526060820184905233600090815290819052919091208054879081106105c1576105c1610b35565b6000918252602090912082516004909202019081906105e09082610b9c565b50602082015160018201906105f59082610b9c565b506040820151600282019061060a9082610b9c565b50606082015181600301559050505050505050565b336000908152602081905260408120610637916106c8565b565b33600090815260208181526040808320815160808101835288815280840188905291820186905260608201859052805460018101825590845291909220825160049092020190819061068b9082610b9c565b50602082015160018201906106a09082610b9c565b50604082015160028201906106b59082610b9c565b5060608201518160030155505050505050565b50805460008255600402906000526020600020908101906106e991906106ec565b50565b8082111561072c5760006107008282610730565b61070e600183016000610730565b61071c600283016000610730565b50600060038201556004016106ec565b5090565b50805461073c90610afb565b6000825580601f1061074c575050565b601f0160209004906000526020600020908101906106e991905b8082111561072c5760008155600101610766565b803573ffffffffffffffffffffffffffffffffffffffff8116811461079e57600080fd5b919050565b6000602082840312156107b557600080fd5b6107be8261077a565b9392505050565b6000815180845260005b818110156107eb576020818501810151868301820152016107cf565b506000602082860101526020601f19601f83011685010191505092915050565b600060208083018184528085518083526040925060408601915060408160051b87010184880160005b838110156108ab57603f1989840301855281516080815181865261085a828701826107c5565b915050888201518582038a87015261087282826107c5565b915050878201518582038987015261088a82826107c5565b60609384015196909301959095525094870194925090860190600101610834565b509098975050505050505050565b600080604083850312156108cc57600080fd5b6108d58361077a565b946020939093013593505050565b6080815260006108f660808301876107c5565b828103602084015261090881876107c5565b9050828103604084015261091c81866107c5565b91505082606083015295945050505050565b634e487b7160e01b600052604160045260246000fd5b600082601f83011261095557600080fd5b813567ffffffffffffffff808211156109705761097061092e565b604051601f8301601f19908116603f011681019082821181831017156109985761099861092e565b816040528381528660208588010111156109b157600080fd5b836020870160208301376000602085830101528094505050505092915050565b600080600080600060a086880312156109e957600080fd5b85359450602086013567ffffffffffffffff80821115610a0857600080fd5b610a1489838a01610944565b95506040880135915080821115610a2a57600080fd5b610a3689838a01610944565b94506060880135915080821115610a4c57600080fd5b50610a5988828901610944565b95989497509295608001359392505050565b60008060008060808587031215610a8157600080fd5b843567ffffffffffffffff80821115610a9957600080fd5b610aa588838901610944565b95506020870135915080821115610abb57600080fd5b610ac788838901610944565b94506040870135915080821115610add57600080fd5b50610aea87828801610944565b949793965093946060013593505050565b600181811c90821680610b0f57607f821691505b602082108103610b2f57634e487b7160e01b600052602260045260246000fd5b50919050565b634e487b7160e01b600052603260045260246000fd5b601f821115610b97576000816000526020600020601f850160051c81016020861015610b745750805b601f850160051c820191505b81811015610b9357828155600101610b80565b5050505b505050565b815167ffffffffffffffff811115610bb657610bb661092e565b610bca81610bc48454610afb565b84610b4b565b602080601f831160018114610bff5760008415610be75750858301515b600019600386901b1c1916600185901b178555610b93565b600085815260208120601f198616915b82811015610c2e57888601518255948401946001909101908401610c0f565b5085821015610c4c5787850151600019600388901b60f8161c191681555b5050505050600190811b0190555056fea264697066735822122056e02b249bd5ab434af8bd171ab606017cc630d3d542dbd204bef4ea04d4ee1c64736f6c63430008170033",
  "devdoc": {
    "kind": "dev",
    "methods": {},
    "version": 1
  },
  "userdoc": {
    "kind": "user",
    "methods": {},
    "version": 1
  },
  "storageLayout": {
    "storage": [
      {
        "astId": 13231,
        "contract": "contracts/Exemplars/StructsExercise.sol:GarageManager",
        "label": "garage",
        "offset": 0,
        "slot": "0",
        "type": "t_mapping(t_address,t_array(t_struct(Car)13225_storage)dyn_storage)"
      }
    ],
    "types": {
      "t_address": {
        "encoding": "inplace",
        "label": "address",
        "numberOfBytes": "20"
      },
      "t_array(t_struct(Car)13225_storage)dyn_storage": {
        "base": "t_struct(Car)13225_storage",
        "encoding": "dynamic_array",
        "label": "struct GarageManager.Car[]",
        "numberOfBytes": "32"
      },
      "t_mapping(t_address,t_array(t_struct(Car)13225_storage)dyn_storage)": {
        "encoding": "mapping",
        "key": "t_address",
        "label": "mapping(address => struct GarageManager.Car[])",
        "numberOfBytes": "32",
        "value": "t_array(t_struct(Car)13225_storage)dyn_storage"
      },
      "t_string_storage": {
        "encoding": "bytes",
        "label": "string",
        "numberOfBytes": "32"
      },
      "t_struct(Car)13225_storage": {
        "encoding": "inplace",
        "label": "struct GarageManager.Car",
        "members": [
          {
            "astId": 13218,
            "contract": "contracts/Exemplars/StructsExercise.sol:GarageManager",
            "label": "make",
            "offset": 0,
            "slot": "0",
            "type": "t_string_storage"
          },
          {
            "astId": 13220,
            "contract": "contracts/Exemplars/StructsExercise.sol:GarageManager",
            "label": "model",
            "offset": 0,
            "slot": "1",
            "type": "t_string_storage"
          },
          {
            "astId": 13222,
            "contract": "contracts/Exemplars/StructsExercise.sol:GarageManager",
            "label": "color",
            "offset": 0,
            "slot": "2",
            "type": "t_string_storage"
          },
          {
            "astId": 13224,
            "contract": "contracts/Exemplars/StructsExercise.sol:GarageManager",
            "label": "numberOfDoors",
            "offset": 0,
            "slot": "3",
            "type": "t_uint256"
          }
        ],
        "numberOfBytes": "128"
      },
      "t_uint256": {
        "encoding": "inplace",
        "label": "uint256",
        "numberOfBytes": "32"
      }
    }
  }
}