{
  "address": "0xA1463cCAA61502924eE983E6fB15a5b2BcCF2C25",
  "abi": [
    {
      "inputs": [
        {
          "internalType": "string",
          "name": "_name",
          "type": "string"
        },
        {
          "internalType": "string",
          "name": "_symbol",
          "type": "string"
        }
      ],
      "stateMutability": "nonpayable",
      "type": "constructor"
    },
    {
      "inputs": [],
      "name": "HaikuNotUnique",
      "type": "error"
    },
    {
      "inputs": [],
      "name": "NoHaikusShared",
      "type": "error"
    },
    {
      "inputs": [
        {
          "internalType": "uint256",
          "name": "",
          "type": "uint256"
        }
      ],
      "name": "NotYourHaiku",
      "type": "error"
    },
    {
      "anonymous": false,
      "inputs": [
        {
          "indexed": true,
          "internalType": "address",
          "name": "owner",
          "type": "address"
        },
        {
          "indexed": true,
          "internalType": "address",
          "name": "approved",
          "type": "address"
        },
        {
          "indexed": true,
          "internalType": "uint256",
          "name": "tokenId",
          "type": "uint256"
        }
      ],
      "name": "Approval",
      "type": "event"
    },
    {
      "anonymous": false,
      "inputs": [
        {
          "indexed": true,
          "internalType": "address",
          "name": "owner",
          "type": "address"
        },
        {
          "indexed": true,
          "internalType": "address",
          "name": "operator",
          "type": "address"
        },
        {
          "indexed": false,
          "internalType": "bool",
          "name": "approved",
          "type": "bool"
        }
      ],
      "name": "ApprovalForAll",
      "type": "event"
    },
    {
      "anonymous": false,
      "inputs": [
        {
          "indexed": true,
          "internalType": "address",
          "name": "from",
          "type": "address"
        },
        {
          "indexed": true,
          "internalType": "address",
          "name": "to",
          "type": "address"
        },
        {
          "indexed": true,
          "internalType": "uint256",
          "name": "tokenId",
          "type": "uint256"
        }
      ],
      "name": "Transfer",
      "type": "event"
    },
    {
      "inputs": [
        {
          "internalType": "address",
          "name": "to",
          "type": "address"
        },
        {
          "internalType": "uint256",
          "name": "tokenId",
          "type": "uint256"
        }
      ],
      "name": "approve",
      "outputs": [],
      "stateMutability": "nonpayable",
      "type": "function"
    },
    {
      "inputs": [
        {
          "internalType": "address",
          "name": "owner",
          "type": "address"
        }
      ],
      "name": "balanceOf",
      "outputs": [
        {
          "internalType": "uint256",
          "name": "",
          "type": "uint256"
        }
      ],
      "stateMutability": "view",
      "type": "function"
    },
    {
      "inputs": [],
      "name": "counter",
      "outputs": [
        {
          "internalType": "uint256",
          "name": "",
          "type": "uint256"
        }
      ],
      "stateMutability": "view",
      "type": "function"
    },
    {
      "inputs": [
        {
          "internalType": "uint256",
          "name": "tokenId",
          "type": "uint256"
        }
      ],
      "name": "getApproved",
      "outputs": [
        {
          "internalType": "address",
          "name": "",
          "type": "address"
        }
      ],
      "stateMutability": "view",
      "type": "function"
    },
    {
      "inputs": [],
      "name": "getMySharedHaikus",
      "outputs": [
        {
          "components": [
            {
              "internalType": "address",
              "name": "author",
              "type": "address"
            },
            {
              "internalType": "string",
              "name": "line1",
              "type": "string"
            },
            {
              "internalType": "string",
              "name": "line2",
              "type": "string"
            },
            {
              "internalType": "string",
              "name": "line3",
              "type": "string"
            }
          ],
          "internalType": "struct HaikuNFT.Haiku[]",
          "name": "",
          "type": "tuple[]"
        }
      ],
      "stateMutability": "view",
      "type": "function"
    },
    {
      "inputs": [
        {
          "internalType": "uint256",
          "name": "",
          "type": "uint256"
        }
      ],
      "name": "haikus",
      "outputs": [
        {
          "internalType": "address",
          "name": "author",
          "type": "address"
        },
        {
          "internalType": "string",
          "name": "line1",
          "type": "string"
        },
        {
          "internalType": "string",
          "name": "line2",
          "type": "string"
        },
        {
          "internalType": "string",
          "name": "line3",
          "type": "string"
        }
      ],
      "stateMutability": "view",
      "type": "function"
    },
    {
      "inputs": [
        {
          "internalType": "address",
          "name": "owner",
          "type": "address"
        },
        {
          "internalType": "address",
          "name": "operator",
          "type": "address"
        }
      ],
      "name": "isApprovedForAll",
      "outputs": [
        {
          "internalType": "bool",
          "name": "",
          "type": "bool"
        }
      ],
      "stateMutability": "view",
      "type": "function"
    },
    {
      "inputs": [
        {
          "internalType": "string",
          "name": "",
          "type": "string"
        }
      ],
      "name": "lineUsed",
      "outputs": [
        {
          "internalType": "bool",
          "name": "",
          "type": "bool"
        }
      ],
      "stateMutability": "view",
      "type": "function"
    },
    {
      "inputs": [
        {
          "internalType": "string",
          "name": "_line1",
          "type": "string"
        },
        {
          "internalType": "string",
          "name": "_line2",
          "type": "string"
        },
        {
          "internalType": "string",
          "name": "_line3",
          "type": "string"
        }
      ],
      "name": "mintHaiku",
      "outputs": [],
      "stateMutability": "nonpayable",
      "type": "function"
    },
    {
      "inputs": [],
      "name": "name",
      "outputs": [
        {
          "internalType": "string",
          "name": "",
          "type": "string"
        }
      ],
      "stateMutability": "view",
      "type": "function"
    },
    {
      "inputs": [
        {
          "internalType": "uint256",
          "name": "tokenId",
          "type": "uint256"
        }
      ],
      "name": "ownerOf",
      "outputs": [
        {
          "internalType": "address",
          "name": "",
          "type": "address"
        }
      ],
      "stateMutability": "view",
      "type": "function"
    },
    {
      "inputs": [
        {
          "internalType": "address",
          "name": "from",
          "type": "address"
        },
        {
          "internalType": "address",
          "name": "to",
          "type": "address"
        },
        {
          "internalType": "uint256",
          "name": "tokenId",
          "type": "uint256"
        }
      ],
      "name": "safeTransferFrom",
      "outputs": [],
      "stateMutability": "nonpayable",
      "type": "function"
    },
    {
      "inputs": [
        {
          "internalType": "address",
          "name": "from",
          "type": "address"
        },
        {
          "internalType": "address",
          "name": "to",
          "type": "address"
        },
        {
          "internalType": "uint256",
          "name": "tokenId",
          "type": "uint256"
        },
        {
          "internalType": "bytes",
          "name": "data",
          "type": "bytes"
        }
      ],
      "name": "safeTransferFrom",
      "outputs": [],
      "stateMutability": "nonpayable",
      "type": "function"
    },
    {
      "inputs": [
        {
          "internalType": "address",
          "name": "operator",
          "type": "address"
        },
        {
          "internalType": "bool",
          "name": "approved",
          "type": "bool"
        }
      ],
      "name": "setApprovalForAll",
      "outputs": [],
      "stateMutability": "nonpayable",
      "type": "function"
    },
    {
      "inputs": [
        {
          "internalType": "uint256",
          "name": "_id",
          "type": "uint256"
        },
        {
          "internalType": "address",
          "name": "_to",
          "type": "address"
        }
      ],
      "name": "shareHaiku",
      "outputs": [],
      "stateMutability": "nonpayable",
      "type": "function"
    },
    {
      "inputs": [
        {
          "internalType": "address",
          "name": "",
          "type": "address"
        },
        {
          "internalType": "uint256",
          "name": "",
          "type": "uint256"
        }
      ],
      "name": "sharedHaikus",
      "outputs": [
        {
          "internalType": "uint256",
          "name": "",
          "type": "uint256"
        }
      ],
      "stateMutability": "view",
      "type": "function"
    },
    {
      "inputs": [
        {
          "internalType": "bytes4",
          "name": "interfaceId",
          "type": "bytes4"
        }
      ],
      "name": "supportsInterface",
      "outputs": [
        {
          "internalType": "bool",
          "name": "",
          "type": "bool"
        }
      ],
      "stateMutability": "view",
      "type": "function"
    },
    {
      "inputs": [],
      "name": "symbol",
      "outputs": [
        {
          "internalType": "string",
          "name": "",
          "type": "string"
        }
      ],
      "stateMutability": "view",
      "type": "function"
    },
    {
      "inputs": [
        {
          "internalType": "uint256",
          "name": "tokenId",
          "type": "uint256"
        }
      ],
      "name": "tokenURI",
      "outputs": [
        {
          "internalType": "string",
          "name": "",
          "type": "string"
        }
      ],
      "stateMutability": "view",
      "type": "function"
    },
    {
      "inputs": [
        {
          "internalType": "address",
          "name": "from",
          "type": "address"
        },
        {
          "internalType": "address",
          "name": "to",
          "type": "address"
        },
        {
          "internalType": "uint256",
          "name": "tokenId",
          "type": "uint256"
        }
      ],
      "name": "transferFrom",
      "outputs": [],
      "stateMutability": "nonpayable",
      "type": "function"
    }
  ],
  "transactionHash": "0xbdc1242dcb51d0a65d759899778d3221d3c67b7f293099c2fef73fc2166058b8",
  "args": [
    "MyHaiku",
    "MH"
  ],
  "numDeployments": 1,
  "solcInputHash": "6a581879d712a9c25e4fb247f22274cf",
  "bytecode": "0x608060405260016006553480156200001657600080fd5b506040516200247e3803806200247e833981016040819052620000399162000138565b8181600062000049838262000233565b50600162000058828262000233565b505060078054600101815560005250620002ff915050565b634e487b7160e01b600052604160045260246000fd5b600082601f8301126200009857600080fd5b81516001600160401b0380821115620000b557620000b562000070565b604051601f8301601f19908116603f01168101908282118183101715620000e057620000e062000070565b8160405283815260209250866020858801011115620000fe57600080fd5b600091505b8382101562000122578582018301518183018401529082019062000103565b6000602085830101528094505050505092915050565b600080604083850312156200014c57600080fd5b82516001600160401b03808211156200016457600080fd5b620001728683870162000086565b935060208501519150808211156200018957600080fd5b50620001988582860162000086565b9150509250929050565b600181811c90821680620001b757607f821691505b602082108103620001d857634e487b7160e01b600052602260045260246000fd5b50919050565b601f8211156200022e576000816000526020600020601f850160051c81016020861015620002095750805b601f850160051c820191505b818110156200022a5782815560010162000215565b5050505b505050565b81516001600160401b038111156200024f576200024f62000070565b6200026781620002608454620001a2565b84620001de565b602080601f8311600181146200029f5760008415620002865750858301515b600019600386901b1c1916600185901b1785556200022a565b600085815260208120601f198616915b82811015620002d057888601518255948401946001909101908401620002af565b5085821015620002ef5787850151600019600388901b60f8161c191681555b5050505050600190811b01905550565b61216f806200030f6000396000f3fe608060405234801561001057600080fd5b506004361061016c5760003560e01c806361bc221a116100cd57806397afe82d11610081578063b88d4fde11610066578063b88d4fde1461030b578063c87b56dd1461031e578063e985e9c51461033157600080fd5b806397afe82d146102e5578063a22cb465146102f857600080fd5b806370a08231116100b257806370a08231146102a75780637cb82b2a146102ba57806395d89b41146102dd57600080fd5b806361bc221a1461027d5780636352211e1461029457600080fd5b806323b872dd11610124578063350fe16511610109578063350fe1651461024257806342842e0e1461025557806349af5bfe1461026857600080fd5b806323b872dd1461021c5780632c83ea561461022f57600080fd5b8063081812fc11610155578063081812fc146101ae578063095ea7b3146101d95780630c55de91146101ee57600080fd5b806301ffc9a71461017157806306fdde0314610199575b600080fd5b61018461017f366004611a57565b61036d565b60405190151581526020015b60405180910390f35b6101a161040a565b6040516101909190611ac4565b6101c16101bc366004611ad7565b61049c565b6040516001600160a01b039091168152602001610190565b6101ec6101e7366004611b0c565b6104c3565b005b6101846101fc366004611be2565b805160208183018101805160098252928201919093012091525460ff1681565b6101ec61022a366004611c17565b6105f9565b6101ec61023d366004611c53565b610670565b6101ec610250366004611c7f565b6106f0565b6101ec610263366004611c17565b61093a565b610270610955565b6040516101909190611d07565b61028660065481565b604051908152602001610190565b6101c16102a2366004611ad7565b610c72565b6102866102b5366004611dbe565b610cd7565b6102cd6102c8366004611ad7565b610d71565b6040516101909493929190611dd9565b6101a1610f4f565b6102866102f3366004611b0c565b610f5e565b6101ec610306366004611e2c565b610f8f565b6101ec610319366004611e68565b610f9e565b6101a161032c366004611ad7565b61101c565b61018461033f366004611ee4565b6001600160a01b03918216600090815260056020908152604080832093909416825291909152205460ff1690565b60006001600160e01b031982167f80ac58cd0000000000000000000000000000000000000000000000000000000014806103d057506001600160e01b031982167f5b5e139f00000000000000000000000000000000000000000000000000000000145b8061040457507f01ffc9a7000000000000000000000000000000000000000000000000000000006001600160e01b03198316145b92915050565b60606000805461041990611f0e565b80601f016020809104026020016040519081016040528092919081815260200182805461044590611f0e565b80156104925780601f1061046757610100808354040283529160200191610492565b820191906000526020600020905b81548152906001019060200180831161047557829003601f168201915b5050505050905090565b60006104a782611090565b506000908152600460205260409020546001600160a01b031690565b60006104ce82610c72565b9050806001600160a01b0316836001600160a01b03160361055c5760405162461bcd60e51b815260206004820152602160248201527f4552433732313a20617070726f76616c20746f2063757272656e74206f776e6560448201527f720000000000000000000000000000000000000000000000000000000000000060648201526084015b60405180910390fd5b336001600160a01b03821614806105785750610578813361033f565b6105ea5760405162461bcd60e51b815260206004820152603d60248201527f4552433732313a20617070726f76652063616c6c6572206973206e6f7420746f60448201527f6b656e206f776e6572206f7220617070726f76656420666f7220616c6c0000006064820152608401610553565b6105f483836110f7565b505050565b6106033382611172565b6106655760405162461bcd60e51b815260206004820152602d60248201527f4552433732313a2063616c6c6572206973206e6f7420746f6b656e206f776e6560448201526c1c881bdc88185c1c1c9bdd9959609a1b6064820152608401610553565b6105f48383836111f1565b61067982610c72565b6001600160a01b0316336001600160a01b0316146106c6576040517f03ce4e3200000000000000000000000000000000000000000000000000000000815260048101839052602401610553565b6001600160a01b031660009081526008602090815260408220805460018101825590835291200155565b6009836040516107009190611f48565b9081526040519081900360200190205460ff168061073d57506009826040516107299190611f48565b9081526040519081900360200190205460ff165b8061076757506009816040516107539190611f48565b9081526040519081900360200190205460ff165b1561079e576040517f693a889e00000000000000000000000000000000000000000000000000000000815260040160405180910390fd5b60016009846040516107b09190611f48565b908152604051908190036020018120805492151560ff19909316929092179091556001906009906107e2908590611f48565b908152604051908190036020018120805492151560ff1990931692909217909155600190600990610814908490611f48565b9081526040805160209281900383018120805460ff191694151594909417909355608083018152338352908201858152908201849052606082018390526007805460018101825560009190915282517fa66cc928b5edb82af9bd49922954155ab7b0942694bea4ce44661d9a8736c6886004909202918201805473ffffffffffffffffffffffffffffffffffffffff19166001600160a01b0390921691909117815591517fa66cc928b5edb82af9bd49922954155ab7b0942694bea4ce44661d9a8736c689909101906108e79082611fb4565b50604082015160028201906108fc9082611fb4565b50606082015160038201906109119082611fb4565b505050610920336006546113f7565b6006805490600061093083612074565b9190505550505050565b6105f483838360405180602001604052806000815250610f9e565b3360009081526008602052604081208054606092036109a0576040517ff8826a6900000000000000000000000000000000000000000000000000000000815260040160405180910390fd5b805460009067ffffffffffffffff8111156109bd576109bd611b36565b604051908082528060200260200182016040528015610a2257816020015b610a0f604051806080016040528060006001600160a01b031681526020016060815260200160608152602001606081525090565b8152602001906001900390816109db5790505b50905060005b8151811015610c6b576007838281548110610a4557610a4561209b565b906000526020600020015481548110610a6057610a6061209b565b6000918252602091829020604080516080810190915260049092020180546001600160a01b031682526001810180549293919291840191610aa090611f0e565b80601f0160208091040260200160405190810160405280929190818152602001828054610acc90611f0e565b8015610b195780601f10610aee57610100808354040283529160200191610b19565b820191906000526020600020905b815481529060010190602001808311610afc57829003601f168201915b50505050508152602001600282018054610b3290611f0e565b80601f0160208091040260200160405190810160405280929190818152602001828054610b5e90611f0e565b8015610bab5780601f10610b8057610100808354040283529160200191610bab565b820191906000526020600020905b815481529060010190602001808311610b8e57829003601f168201915b50505050508152602001600382018054610bc490611f0e565b80601f0160208091040260200160405190810160405280929190818152602001828054610bf090611f0e565b8015610c3d5780601f10610c1257610100808354040283529160200191610c3d565b820191906000526020600020905b815481529060010190602001808311610c2057829003601f168201915b505050505081525050828281518110610c5857610c5861209b565b6020908102919091010152600101610a28565b5092915050565b6000818152600260205260408120546001600160a01b0316806104045760405162461bcd60e51b815260206004820152601860248201527f4552433732313a20696e76616c696420746f6b656e20494400000000000000006044820152606401610553565b60006001600160a01b038216610d555760405162461bcd60e51b815260206004820152602960248201527f4552433732313a2061646472657373207a65726f206973206e6f74206120766160448201527f6c6964206f776e657200000000000000000000000000000000000000000000006064820152608401610553565b506001600160a01b031660009081526003602052604090205490565b60078181548110610d8157600080fd5b6000918252602090912060049091020180546001820180546001600160a01b03909216935090610db090611f0e565b80601f0160208091040260200160405190810160405280929190818152602001828054610ddc90611f0e565b8015610e295780601f10610dfe57610100808354040283529160200191610e29565b820191906000526020600020905b815481529060010190602001808311610e0c57829003601f168201915b505050505090806002018054610e3e90611f0e565b80601f0160208091040260200160405190810160405280929190818152602001828054610e6a90611f0e565b8015610eb75780601f10610e8c57610100808354040283529160200191610eb7565b820191906000526020600020905b815481529060010190602001808311610e9a57829003601f168201915b505050505090806003018054610ecc90611f0e565b80601f0160208091040260200160405190810160405280929190818152602001828054610ef890611f0e565b8015610f455780601f10610f1a57610100808354040283529160200191610f45565b820191906000526020600020905b815481529060010190602001808311610f2857829003601f168201915b5050505050905084565b60606001805461041990611f0e565b60086020528160005260406000208181548110610f7a57600080fd5b90600052602060002001600091509150505481565b610f9a338383611411565b5050565b610fa83383611172565b61100a5760405162461bcd60e51b815260206004820152602d60248201527f4552433732313a2063616c6c6572206973206e6f7420746f6b656e206f776e6560448201526c1c881bdc88185c1c1c9bdd9959609a1b6064820152608401610553565b611016848484846114df565b50505050565b606061102782611090565b600061103e60408051602081019091526000815290565b9050600081511161105e5760405180602001604052806000815250611089565b806110688461155d565b6040516020016110799291906120b1565b6040516020818303038152906040525b9392505050565b6000818152600260205260409020546001600160a01b03166110f45760405162461bcd60e51b815260206004820152601860248201527f4552433732313a20696e76616c696420746f6b656e20494400000000000000006044820152606401610553565b50565b6000818152600460205260409020805473ffffffffffffffffffffffffffffffffffffffff19166001600160a01b038416908117909155819061113982610c72565b6001600160a01b03167f8c5be1e5ebec7d5bd14f71427d1e84f3dd0314c0f7b2291e5b200ac8c7c3b92560405160405180910390a45050565b60008061117e83610c72565b9050806001600160a01b0316846001600160a01b031614806111c557506001600160a01b0380821660009081526005602090815260408083209388168352929052205460ff165b806111e95750836001600160a01b03166111de8461049c565b6001600160a01b0316145b949350505050565b826001600160a01b031661120482610c72565b6001600160a01b0316146112685760405162461bcd60e51b815260206004820152602560248201527f4552433732313a207472616e736665722066726f6d20696e636f72726563742060448201526437bbb732b960d91b6064820152608401610553565b6001600160a01b0382166112e35760405162461bcd60e51b8152602060048201526024808201527f4552433732313a207472616e7366657220746f20746865207a65726f2061646460448201527f72657373000000000000000000000000000000000000000000000000000000006064820152608401610553565b826001600160a01b03166112f682610c72565b6001600160a01b03161461135a5760405162461bcd60e51b815260206004820152602560248201527f4552433732313a207472616e736665722066726f6d20696e636f72726563742060448201526437bbb732b960d91b6064820152608401610553565b6000818152600460209081526040808320805473ffffffffffffffffffffffffffffffffffffffff199081169091556001600160a01b0387811680865260038552838620805460001901905590871680865283862080546001019055868652600290945282852080549092168417909155905184937fddf252ad1be2c89b69c2b068fc378daa952ba7f163c4a11628f55a4df523b3ef91a4505050565b610f9a8282604051806020016040528060008152506115fd565b816001600160a01b0316836001600160a01b0316036114725760405162461bcd60e51b815260206004820152601960248201527f4552433732313a20617070726f766520746f2063616c6c6572000000000000006044820152606401610553565b6001600160a01b03838116600081815260056020908152604080832094871680845294825291829020805460ff191686151590811790915591519182527f17307eab39ab6107e8899845ad3d59bd9653f200f220920489ca2b5937696c31910160405180910390a3505050565b6114ea8484846111f1565b6114f68484848461167b565b6110165760405162461bcd60e51b815260206004820152603260248201527f4552433732313a207472616e7366657220746f206e6f6e20455243373231526560448201527131b2b4bb32b91034b6b83632b6b2b73a32b960711b6064820152608401610553565b6060600061156a836117c7565b600101905060008167ffffffffffffffff81111561158a5761158a611b36565b6040519080825280601f01601f1916602001820160405280156115b4576020820181803683370190505b5090508181016020015b600019017f3031323334353637383961626364656600000000000000000000000000000000600a86061a8153600a85049450846115be57509392505050565b61160783836118a9565b611614600084848461167b565b6105f45760405162461bcd60e51b815260206004820152603260248201527f4552433732313a207472616e7366657220746f206e6f6e20455243373231526560448201527131b2b4bb32b91034b6b83632b6b2b73a32b960711b6064820152608401610553565b60006001600160a01b0384163b156117bc57604051630a85bd0160e11b81526001600160a01b0385169063150b7a02906116bf9033908990889088906004016120e0565b6020604051808303816000875af19250505080156116fa575060408051601f3d908101601f191682019092526116f79181019061211c565b60015b6117a2573d808015611728576040519150601f19603f3d011682016040523d82523d6000602084013e61172d565b606091505b50805160000361179a5760405162461bcd60e51b815260206004820152603260248201527f4552433732313a207472616e7366657220746f206e6f6e20455243373231526560448201527131b2b4bb32b91034b6b83632b6b2b73a32b960711b6064820152608401610553565b805181602001fd5b6001600160e01b031916630a85bd0160e11b1490506111e9565b506001949350505050565b6000807a184f03e93ff9f4daa797ed6e38ed64bf6a1f0100000000000000008310611810577a184f03e93ff9f4daa797ed6e38ed64bf6a1f010000000000000000830492506040015b6d04ee2d6d415b85acef8100000000831061183c576d04ee2d6d415b85acef8100000000830492506020015b662386f26fc10000831061185a57662386f26fc10000830492506010015b6305f5e1008310611872576305f5e100830492506008015b612710831061188657612710830492506004015b60648310611898576064830492506002015b600a83106104045760010192915050565b6001600160a01b0382166118ff5760405162461bcd60e51b815260206004820181905260248201527f4552433732313a206d696e7420746f20746865207a65726f20616464726573736044820152606401610553565b6000818152600260205260409020546001600160a01b0316156119645760405162461bcd60e51b815260206004820152601c60248201527f4552433732313a20746f6b656e20616c7265616479206d696e746564000000006044820152606401610553565b6000818152600260205260409020546001600160a01b0316156119c95760405162461bcd60e51b815260206004820152601c60248201527f4552433732313a20746f6b656e20616c7265616479206d696e746564000000006044820152606401610553565b6001600160a01b0382166000818152600360209081526040808320805460010190558483526002909152808220805473ffffffffffffffffffffffffffffffffffffffff19168417905551839291907fddf252ad1be2c89b69c2b068fc378daa952ba7f163c4a11628f55a4df523b3ef908290a45050565b6001600160e01b0319811681146110f457600080fd5b600060208284031215611a6957600080fd5b813561108981611a41565b60005b83811015611a8f578181015183820152602001611a77565b50506000910152565b60008151808452611ab0816020860160208601611a74565b601f01601f19169290920160200192915050565b6020815260006110896020830184611a98565b600060208284031215611ae957600080fd5b5035919050565b80356001600160a01b0381168114611b0757600080fd5b919050565b60008060408385031215611b1f57600080fd5b611b2883611af0565b946020939093013593505050565b634e487b7160e01b600052604160045260246000fd5b600067ffffffffffffffff80841115611b6757611b67611b36565b604051601f8501601f19908116603f01168101908282118183101715611b8f57611b8f611b36565b81604052809350858152868686011115611ba857600080fd5b858560208301376000602087830101525050509392505050565b600082601f830112611bd357600080fd5b61108983833560208501611b4c565b600060208284031215611bf457600080fd5b813567ffffffffffffffff811115611c0b57600080fd5b6111e984828501611bc2565b600080600060608486031215611c2c57600080fd5b611c3584611af0565b9250611c4360208501611af0565b9150604084013590509250925092565b60008060408385031215611c6657600080fd5b82359150611c7660208401611af0565b90509250929050565b600080600060608486031215611c9457600080fd5b833567ffffffffffffffff80821115611cac57600080fd5b611cb887838801611bc2565b94506020860135915080821115611cce57600080fd5b611cda87838801611bc2565b93506040860135915080821115611cf057600080fd5b50611cfd86828701611bc2565b9150509250925092565b600060208083018184528085518083526040925060408601915060408160051b87010184880160005b83811015611db057603f19898403018552815160806001600160a01b03825116855288820151818a870152611d6782870182611a98565b9150508782015185820389870152611d7f8282611a98565b91505060608083015192508582038187015250611d9c8183611a98565b968901969450505090860190600101611d30565b509098975050505050505050565b600060208284031215611dd057600080fd5b61108982611af0565b6001600160a01b0385168152608060208201526000611dfb6080830186611a98565b8281036040840152611e0d8186611a98565b90508281036060840152611e218185611a98565b979650505050505050565b60008060408385031215611e3f57600080fd5b611e4883611af0565b915060208301358015158114611e5d57600080fd5b809150509250929050565b60008060008060808587031215611e7e57600080fd5b611e8785611af0565b9350611e9560208601611af0565b925060408501359150606085013567ffffffffffffffff811115611eb857600080fd5b8501601f81018713611ec957600080fd5b611ed887823560208401611b4c565b91505092959194509250565b60008060408385031215611ef757600080fd5b611f0083611af0565b9150611c7660208401611af0565b600181811c90821680611f2257607f821691505b602082108103611f4257634e487b7160e01b600052602260045260246000fd5b50919050565b60008251611f5a818460208701611a74565b9190910192915050565b601f8211156105f4576000816000526020600020601f850160051c81016020861015611f8d5750805b601f850160051c820191505b81811015611fac57828155600101611f99565b505050505050565b815167ffffffffffffffff811115611fce57611fce611b36565b611fe281611fdc8454611f0e565b84611f64565b602080601f8311600181146120175760008415611fff5750858301515b600019600386901b1c1916600185901b178555611fac565b600085815260208120601f198616915b8281101561204657888601518255948401946001909101908401612027565b50858210156120645787850151600019600388901b60f8161c191681555b5050505050600190811b01905550565b60006001820161209457634e487b7160e01b600052601160045260246000fd5b5060010190565b634e487b7160e01b600052603260045260246000fd5b600083516120c3818460208801611a74565b8351908301906120d7818360208801611a74565b01949350505050565b60006001600160a01b038087168352808616602084015250836040830152608060608301526121126080830184611a98565b9695505050505050565b60006020828403121561212e57600080fd5b815161108981611a4156fea2646970667358221220a14a37db2119c5e2c93870a3b2a77ec03c44c7e024c8f516665b33dabaa4c7fb64736f6c63430008170033",
  "devdoc": {
    "events": {
      "Approval(address,address,uint256)": {
        "details": "Emitted when `owner` enables `approved` to manage the `tokenId` token."
      },
      "ApprovalForAll(address,address,bool)": {
        "details": "Emitted when `owner` enables or disables (`approved`) `operator` to manage all of its assets."
      },
      "Transfer(address,address,uint256)": {
        "details": "Emitted when `tokenId` token is transferred from `from` to `to`."
      }
    },
    "kind": "dev",
    "methods": {
      "approve(address,uint256)": {
        "details": "See {IERC721-approve}."
      },
      "balanceOf(address)": {
        "details": "See {IERC721-balanceOf}."
      },
      "getApproved(uint256)": {
        "details": "See {IERC721-getApproved}."
      },
      "isApprovedForAll(address,address)": {
        "details": "See {IERC721-isApprovedForAll}."
      },
      "name()": {
        "details": "See {IERC721Metadata-name}."
      },
      "ownerOf(uint256)": {
        "details": "See {IERC721-ownerOf}."
      },
      "safeTransferFrom(address,address,uint256)": {
        "details": "See {IERC721-safeTransferFrom}."
      },
      "safeTransferFrom(address,address,uint256,bytes)": {
        "details": "See {IERC721-safeTransferFrom}."
      },
      "setApprovalForAll(address,bool)": {
        "details": "See {IERC721-setApprovalForAll}."
      },
      "supportsInterface(bytes4)": {
        "details": "See {IERC165-supportsInterface}."
      },
      "symbol()": {
        "details": "See {IERC721Metadata-symbol}."
      },
      "tokenURI(uint256)": {
        "details": "See {IERC721Metadata-tokenURI}."
      },
      "transferFrom(address,address,uint256)": {
        "details": "See {IERC721-transferFrom}."
      }
    },
    "version": 1
  },
  "userdoc": {
    "kind": "user",
    "methods": {},
    "version": 1
  },
  "storageLayout": {
    "storage": [
      {
        "astId": 893,
        "contract": "contracts/Exemplars/HaikuNFT.sol:HaikuNFT",
        "label": "_name",
        "offset": 0,
        "slot": "0",
        "type": "t_string_storage"
      },
      {
        "astId": 895,
        "contract": "contracts/Exemplars/HaikuNFT.sol:HaikuNFT",
        "label": "_symbol",
        "offset": 0,
        "slot": "1",
        "type": "t_string_storage"
      },
      {
        "astId": 899,
        "contract": "contracts/Exemplars/HaikuNFT.sol:HaikuNFT",
        "label": "_owners",
        "offset": 0,
        "slot": "2",
        "type": "t_mapping(t_uint256,t_address)"
      },
      {
        "astId": 903,
        "contract": "contracts/Exemplars/HaikuNFT.sol:HaikuNFT",
        "label": "_balances",
        "offset": 0,
        "slot": "3",
        "type": "t_mapping(t_address,t_uint256)"
      },
      {
        "astId": 907,
        "contract": "contracts/Exemplars/HaikuNFT.sol:HaikuNFT",
        "label": "_tokenApprovals",
        "offset": 0,
        "slot": "4",
        "type": "t_mapping(t_uint256,t_address)"
      },
      {
        "astId": 913,
        "contract": "contracts/Exemplars/HaikuNFT.sol:HaikuNFT",
        "label": "_operatorApprovals",
        "offset": 0,
        "slot": "5",
        "type": "t_mapping(t_address,t_mapping(t_address,t_bool))"
      },
      {
        "astId": 11556,
        "contract": "contracts/Exemplars/HaikuNFT.sol:HaikuNFT",
        "label": "counter",
        "offset": 0,
        "slot": "6",
        "type": "t_uint256"
      },
      {
        "astId": 11569,
        "contract": "contracts/Exemplars/HaikuNFT.sol:HaikuNFT",
        "label": "haikus",
        "offset": 0,
        "slot": "7",
        "type": "t_array(t_struct(Haiku)11565_storage)dyn_storage"
      },
      {
        "astId": 11574,
        "contract": "contracts/Exemplars/HaikuNFT.sol:HaikuNFT",
        "label": "sharedHaikus",
        "offset": 0,
        "slot": "8",
        "type": "t_mapping(t_address,t_array(t_uint256)dyn_storage)"
      },
      {
        "astId": 11578,
        "contract": "contracts/Exemplars/HaikuNFT.sol:HaikuNFT",
        "label": "lineUsed",
        "offset": 0,
        "slot": "9",
        "type": "t_mapping(t_string_memory_ptr,t_bool)"
      }
    ],
    "types": {
      "t_address": {
        "encoding": "inplace",
        "label": "address",
        "numberOfBytes": "20"
      },
      "t_array(t_struct(Haiku)11565_storage)dyn_storage": {
        "base": "t_struct(Haiku)11565_storage",
        "encoding": "dynamic_array",
        "label": "struct HaikuNFT.Haiku[]",
        "numberOfBytes": "32"
      },
      "t_array(t_uint256)dyn_storage": {
        "base": "t_uint256",
        "encoding": "dynamic_array",
        "label": "uint256[]",
        "numberOfBytes": "32"
      },
      "t_bool": {
        "encoding": "inplace",
        "label": "bool",
        "numberOfBytes": "1"
      },
      "t_mapping(t_address,t_array(t_uint256)dyn_storage)": {
        "encoding": "mapping",
        "key": "t_address",
        "label": "mapping(address => uint256[])",
        "numberOfBytes": "32",
        "value": "t_array(t_uint256)dyn_storage"
      },
      "t_mapping(t_address,t_bool)": {
        "encoding": "mapping",
        "key": "t_address",
        "label": "mapping(address => bool)",
        "numberOfBytes": "32",
        "value": "t_bool"
      },
      "t_mapping(t_address,t_mapping(t_address,t_bool))": {
        "encoding": "mapping",
        "key": "t_address",
        "label": "mapping(address => mapping(address => bool))",
        "numberOfBytes": "32",
        "value": "t_mapping(t_address,t_bool)"
      },
      "t_mapping(t_address,t_uint256)": {
        "encoding": "mapping",
        "key": "t_address",
        "label": "mapping(address => uint256)",
        "numberOfBytes": "32",
        "value": "t_uint256"
      },
      "t_mapping(t_string_memory_ptr,t_bool)": {
        "encoding": "mapping",
        "key": "t_string_memory_ptr",
        "label": "mapping(string => bool)",
        "numberOfBytes": "32",
        "value": "t_bool"
      },
      "t_mapping(t_uint256,t_address)": {
        "encoding": "mapping",
        "key": "t_uint256",
        "label": "mapping(uint256 => address)",
        "numberOfBytes": "32",
        "value": "t_address"
      },
      "t_string_memory_ptr": {
        "encoding": "bytes",
        "label": "string",
        "numberOfBytes": "32"
      },
      "t_string_storage": {
        "encoding": "bytes",
        "label": "string",
        "numberOfBytes": "32"
      },
      "t_struct(Haiku)11565_storage": {
        "encoding": "inplace",
        "label": "struct HaikuNFT.Haiku",
        "members": [
          {
            "astId": 11558,
            "contract": "contracts/Exemplars/HaikuNFT.sol:HaikuNFT",
            "label": "author",
            "offset": 0,
            "slot": "0",
            "type": "t_address"
          },
          {
            "astId": 11560,
            "contract": "contracts/Exemplars/HaikuNFT.sol:HaikuNFT",
            "label": "line1",
            "offset": 0,
            "slot": "1",
            "type": "t_string_storage"
          },
          {
            "astId": 11562,
            "contract": "contracts/Exemplars/HaikuNFT.sol:HaikuNFT",
            "label": "line2",
            "offset": 0,
            "slot": "2",
            "type": "t_string_storage"
          },
          {
            "astId": 11564,
            "contract": "contracts/Exemplars/HaikuNFT.sol:HaikuNFT",
            "label": "line3",
            "offset": 0,
            "slot": "3",
            "type": "t_string_storage"
          }
        ],
        "numberOfBytes": "128"
      },
      "t_uint256": {
        "encoding": "inplace",
        "label": "uint256",
        "numberOfBytes": "32"
      }
    }
  }
}