{
  "address": "0x48Bd5d3a4d315796dd0860666A4Bfd244417CC38",
  "abi": [
    {
      "inputs": [],
      "name": "getHaiku",
      "outputs": [
        {
          "components": [
            {
              "internalType": "string",
              "name": "line1",
              "type": "string"
            },
            {
              "internalType": "string",
              "name": "line2",
              "type": "string"
            },
            {
              "internalType": "string",
              "name": "line3",
              "type": "string"
            }
          ],
          "internalType": "struct SillyStringUtils.Haiku",
          "name": "",
          "type": "tuple"
        }
      ],
      "stateMutability": "view",
      "type": "function"
    },
    {
      "inputs": [
        {
          "internalType": "string",
          "name": "_line1",
          "type": "string"
        },
        {
          "internalType": "string",
          "name": "_line2",
          "type": "string"
        },
        {
          "internalType": "string",
          "name": "_line3",
          "type": "string"
        }
      ],
      "name": "saveHaiku",
      "outputs": [],
      "stateMutability": "nonpayable",
      "type": "function"
    },
    {
      "inputs": [],
      "name": "shruggieHaiku",
      "outputs": [
        {
          "components": [
            {
              "internalType": "string",
              "name": "line1",
              "type": "string"
            },
            {
              "internalType": "string",
              "name": "line2",
              "type": "string"
            },
            {
              "internalType": "string",
              "name": "line3",
              "type": "string"
            }
          ],
          "internalType": "struct SillyStringUtils.Haiku",
          "name": "",
          "type": "tuple"
        }
      ],
      "stateMutability": "view",
      "type": "function"
    }
  ],
  "transactionHash": "0xad6c064e063ad1f6002ed56cba7a251ba783f5508cbbd8907a502b37b0bddddb",
  "args": [],
  "numDeployments": 1,
  "solcInputHash": "840ae9efa03c3cca22907454cb805100",
  "bytecode": "0x608060405234801561001057600080fd5b506108ea806100206000396000f3fe608060405234801561001057600080fd5b50600436106100415760003560e01c806325eb69a914610046578063583dc769146100645780638346cbef14610079575b600080fd5b61004e610081565b60405161005b919061059c565b60405180910390f35b6100776100723660046106a0565b61026d565b005b61004e610299565b6100a560405180606001604052806060815260200160608152602001606081525090565b60006040518060600160405290816000820180546100c290610728565b80601f01602080910402602001604051908101604052809291908181526020018280546100ee90610728565b801561013b5780601f106101105761010080835404028352916020019161013b565b820191906000526020600020905b81548152906001019060200180831161011e57829003601f168201915b5050505050815260200160018201805461015490610728565b80601f016020809104026020016040519081016040528092919081815260200182805461018090610728565b80156101cd5780601f106101a2576101008083540402835291602001916101cd565b820191906000526020600020905b8154815290600101906020018083116101b057829003601f168201915b505050505081526020016002820180546101e690610728565b80601f016020809104026020016040519081016040528092919081815260200182805461021290610728565b801561025f5780601f106102345761010080835404028352916020019161025f565b820191906000526020600020905b81548152906001019060200180831161024257829003601f168201915b505050505081525050905090565b600061027984826107b3565b50600161028683826107b3565b50600261029382826107b3565b50505050565b6102bd60405180606001604052806060815260200160608152602001606081525090565b6000806040518060600160405290816000820180546102db90610728565b80601f016020809104026020016040519081016040528092919081815260200182805461030790610728565b80156103545780601f1061032957610100808354040283529160200191610354565b820191906000526020600020905b81548152906001019060200180831161033757829003601f168201915b5050505050815260200160018201805461036d90610728565b80601f016020809104026020016040519081016040528092919081815260200182805461039990610728565b80156103e65780601f106103bb576101008083540402835291602001916103e6565b820191906000526020600020905b8154815290600101906020018083116103c957829003601f168201915b505050505081526020016002820180546103ff90610728565b80601f016020809104026020016040519081016040528092919081815260200182805461042b90610728565b80156104785780601f1061044d57610100808354040283529160200191610478565b820191906000526020600020905b81548152906001019060200180831161045b57829003601f168201915b50505050508152505090506105196000600201805461049690610728565b80601f01602080910402602001604051908101604052809291908181526020018280546104c290610728565b801561050f5780601f106104e45761010080835404028352916020019161050f565b820191906000526020600020905b8154815290600101906020018083116104f257829003601f168201915b5050505050610523565b6040820152919050565b6060816040516020016105369190610873565b6040516020818303038152906040529050919050565b60005b8381101561056757818101518382015260200161054f565b50506000910152565b6000815180845261058881602086016020860161054c565b601f01601f19169290920160200192915050565b6020815260008251606060208401526105b86080840182610570565b90506020840151601f19808584030160408601526105d68383610570565b92506040860151915080858403016060860152506105f48282610570565b95945050505050565b634e487b7160e01b600052604160045260246000fd5b600082601f83011261062457600080fd5b813567ffffffffffffffff8082111561063f5761063f6105fd565b604051601f8301601f19908116603f01168101908282118183101715610667576106676105fd565b8160405283815286602085880101111561068057600080fd5b836020870160208301376000602085830101528094505050505092915050565b6000806000606084860312156106b557600080fd5b833567ffffffffffffffff808211156106cd57600080fd5b6106d987838801610613565b945060208601359150808211156106ef57600080fd5b6106fb87838801610613565b9350604086013591508082111561071157600080fd5b5061071e86828701610613565b9150509250925092565b600181811c9082168061073c57607f821691505b60208210810361075c57634e487b7160e01b600052602260045260246000fd5b50919050565b601f8211156107ae576000816000526020600020601f850160051c8101602086101561078b5750805b601f850160051c820191505b818110156107aa57828155600101610797565b5050505b505050565b815167ffffffffffffffff8111156107cd576107cd6105fd565b6107e1816107db8454610728565b84610762565b602080601f83116001811461081657600084156107fe5750858301515b600019600386901b1c1916600185901b1785556107aa565b600085815260208120601f198616915b8281101561084557888601518255948401946001909101908401610826565b50858210156108635787850151600019600388901b60f8161c191681555b5050505050600190811b01905550565b6000825161088581846020870161054c565b7f20f09fa4b700000000000000000000000000000000000000000000000000000092019182525060050191905056fea2646970667358221220cda09624b32245b91c0b68b8ae0187e539d59b5032c89c9ebf5f55ef4801fbf564736f6c63430008170033",
  "devdoc": {
    "kind": "dev",
    "methods": {},
    "version": 1
  },
  "userdoc": {
    "kind": "user",
    "methods": {},
    "version": 1
  },
  "storageLayout": {
    "storage": [
      {
        "astId": 12390,
        "contract": "contracts/Exemplars/ImportsExercise.sol:ImportsExercise",
        "label": "haiku",
        "offset": 0,
        "slot": "0",
        "type": "t_struct(Haiku)13120_storage"
      }
    ],
    "types": {
      "t_string_storage": {
        "encoding": "bytes",
        "label": "string",
        "numberOfBytes": "32"
      },
      "t_struct(Haiku)13120_storage": {
        "encoding": "inplace",
        "label": "struct SillyStringUtils.Haiku",
        "members": [
          {
            "astId": 13115,
            "contract": "contracts/Exemplars/ImportsExercise.sol:ImportsExercise",
            "label": "line1",
            "offset": 0,
            "slot": "0",
            "type": "t_string_storage"
          },
          {
            "astId": 13117,
            "contract": "contracts/Exemplars/ImportsExercise.sol:ImportsExercise",
            "label": "line2",
            "offset": 0,
            "slot": "1",
            "type": "t_string_storage"
          },
          {
            "astId": 13119,
            "contract": "contracts/Exemplars/ImportsExercise.sol:ImportsExercise",
            "label": "line3",
            "offset": 0,
            "slot": "2",
            "type": "t_string_storage"
          }
        ],
        "numberOfBytes": "96"
      }
    }
  }
}