{
  "address": "0x4a8Fc8C1662E177d2C5aA52350211e3D97B76d30",
  "abi": [
    {
      "inputs": [
        {
          "internalType": "address",
          "name": "_salesPerson",
          "type": "address"
        },
        {
          "internalType": "address",
          "name": "_engineeringManager",
          "type": "address"
        }
      ],
      "stateMutability": "nonpayable",
      "type": "constructor"
    },
    {
      "inputs": [],
      "name": "engineeringManager",
      "outputs": [
        {
          "internalType": "address",
          "name": "",
          "type": "address"
        }
      ],
      "stateMutability": "view",
      "type": "function"
    },
    {
      "inputs": [],
      "name": "salesPerson",
      "outputs": [
        {
          "internalType": "address",
          "name": "",
          "type": "address"
        }
      ],
      "stateMutability": "view",
      "type": "function"
    }
  ],
  "transactionHash": "0x6422b9c986638b537b8546180dbe2870e62ef5f3459de351f24407030219d145",
  "args": [
    "0xFf9131CfFfc2c9d7bEb234a92d07BA8356A61208",
    "0xe673b21039b1e098d68782AB6801f1836E2e0E9b"
  ],
  "numDeployments": 1,
  "solcInputHash": "840ae9efa03c3cca22907454cb805100",
  "bytecode": "0x608060405234801561001057600080fd5b5060405161019138038061019183398101604081905261002f9161007c565b600080546001600160a01b039384166001600160a01b031991821617909155600180549290931691161790556100af565b80516001600160a01b038116811461007757600080fd5b919050565b6000806040838503121561008f57600080fd5b61009883610060565b91506100a660208401610060565b90509250929050565b60d4806100bd6000396000f3fe6080604052348015600f57600080fd5b506004361060325760003560e01c80630f628194146037578063687981dd14607f575b600080fd5b60005460569073ffffffffffffffffffffffffffffffffffffffff1681565b60405173ffffffffffffffffffffffffffffffffffffffff909116815260200160405180910390f35b60015460569073ffffffffffffffffffffffffffffffffffffffff168156fea26469706673582212200baef88f27c2276f47d4114024407800370ac13b312e5be11db2b16a63f47eb264736f6c63430008170033",
  "devdoc": {
    "kind": "dev",
    "methods": {},
    "version": 1
  },
  "userdoc": {
    "kind": "user",
    "methods": {},
    "version": 1
  },
  "storageLayout": {
    "storage": [
      {
        "astId": 12610,
        "contract": "contracts/Exemplars/InheritanceExercise.sol:InheritanceSubmission",
        "label": "salesPerson",
        "offset": 0,
        "slot": "0",
        "type": "t_address"
      },
      {
        "astId": 12612,
        "contract": "contracts/Exemplars/InheritanceExercise.sol:InheritanceSubmission",
        "label": "engineeringManager",
        "offset": 0,
        "slot": "1",
        "type": "t_address"
      }
    ],
    "types": {
      "t_address": {
        "encoding": "inplace",
        "label": "address",
        "numberOfBytes": "20"
      }
    }
  }
}