{
  "address": "0xD32E3ACe3272e2037003Ca54CA7E5676f9b8D06C",
  "abi": [
    {
      "inputs": [
        {
          "internalType": "address",
          "name": "_secondCallerAddress",
          "type": "address"
        }
      ],
      "stateMutability": "nonpayable",
      "type": "constructor"
    },
    {
      "inputs": [],
      "name": "NotActive",
      "type": "error"
    },
    {
      "inputs": [],
      "name": "SoulboundToken",
      "type": "error"
    },
    {
      "anonymous": false,
      "inputs": [
        {
          "indexed": true,
          "internalType": "address",
          "name": "owner",
          "type": "address"
        },
        {
          "indexed": true,
          "internalType": "address",
          "name": "approved",
          "type": "address"
        },
        {
          "indexed": true,
          "internalType": "uint256",
          "name": "tokenId",
          "type": "uint256"
        }
      ],
      "name": "Approval",
      "type": "event"
    },
    {
      "anonymous": false,
      "inputs": [
        {
          "indexed": true,
          "internalType": "address",
          "name": "owner",
          "type": "address"
        },
        {
          "indexed": true,
          "internalType": "address",
          "name": "operator",
          "type": "address"
        },
        {
          "indexed": false,
          "internalType": "bool",
          "name": "approved",
          "type": "bool"
        }
      ],
      "name": "ApprovalForAll",
      "type": "event"
    },
    {
      "anonymous": false,
      "inputs": [
        {
          "indexed": true,
          "internalType": "address",
          "name": "previousOwner",
          "type": "address"
        },
        {
          "indexed": true,
          "internalType": "address",
          "name": "newOwner",
          "type": "address"
        }
      ],
      "name": "OwnershipTransferred",
      "type": "event"
    },
    {
      "anonymous": false,
      "inputs": [
        {
          "indexed": false,
          "internalType": "address",
          "name": "submission",
          "type": "address"
        },
        {
          "indexed": false,
          "internalType": "bool",
          "name": "passed",
          "type": "bool"
        },
        {
          "components": [
            {
              "internalType": "string",
              "name": "message",
              "type": "string"
            },
            {
              "components": [
                {
                  "components": [
                    {
                      "internalType": "bool",
                      "name": "passed",
                      "type": "bool"
                    },
                    {
                      "internalType": "string",
                      "name": "assertionError",
                      "type": "string"
                    },
                    {
                      "internalType": "string",
                      "name": "returnedAsString",
                      "type": "string"
                    },
                    {
                      "internalType": "string",
                      "name": "expectedAsString",
                      "type": "string"
                    },
                    {
                      "internalType": "string",
                      "name": "methodName",
                      "type": "string"
                    }
                  ],
                  "internalType": "struct Assert.AssertResult[]",
                  "name": "elements",
                  "type": "tuple[]"
                },
                {
                  "internalType": "uint256",
                  "name": "num",
                  "type": "uint256"
                }
              ],
              "internalType": "struct List.ARList",
              "name": "assertResults",
              "type": "tuple"
            }
          ],
          "indexed": false,
          "internalType": "struct Cafe.TestResult[]",
          "name": "testResults",
          "type": "tuple[]"
        }
      ],
      "name": "TestSuiteResult",
      "type": "event"
    },
    {
      "anonymous": false,
      "inputs": [
        {
          "indexed": true,
          "internalType": "address",
          "name": "from",
          "type": "address"
        },
        {
          "indexed": true,
          "internalType": "address",
          "name": "to",
          "type": "address"
        },
        {
          "indexed": true,
          "internalType": "uint256",
          "name": "tokenId",
          "type": "uint256"
        }
      ],
      "name": "Transfer",
      "type": "event"
    },
    {
      "inputs": [
        {
          "internalType": "address",
          "name": "to",
          "type": "address"
        },
        {
          "internalType": "uint256",
          "name": "tokenId",
          "type": "uint256"
        }
      ],
      "name": "approve",
      "outputs": [],
      "stateMutability": "nonpayable",
      "type": "function"
    },
    {
      "inputs": [
        {
          "internalType": "address",
          "name": "owner",
          "type": "address"
        }
      ],
      "name": "balanceOf",
      "outputs": [
        {
          "internalType": "uint256",
          "name": "",
          "type": "uint256"
        }
      ],
      "stateMutability": "view",
      "type": "function"
    },
    {
      "inputs": [
        {
          "components": [
            {
              "internalType": "string",
              "name": "message",
              "type": "string"
            },
            {
              "components": [
                {
                  "components": [
                    {
                      "internalType": "bool",
                      "name": "passed",
                      "type": "bool"
                    },
                    {
                      "internalType": "string",
                      "name": "assertionError",
                      "type": "string"
                    },
                    {
                      "internalType": "string",
                      "name": "returnedAsString",
                      "type": "string"
                    },
                    {
                      "internalType": "string",
                      "name": "expectedAsString",
                      "type": "string"
                    },
                    {
                      "internalType": "string",
                      "name": "methodName",
                      "type": "string"
                    }
                  ],
                  "internalType": "struct Assert.AssertResult[]",
                  "name": "elements",
                  "type": "tuple[]"
                },
                {
                  "internalType": "uint256",
                  "name": "num",
                  "type": "uint256"
                }
              ],
              "internalType": "struct List.ARList",
              "name": "assertResults",
              "type": "tuple"
            }
          ],
          "internalType": "struct Cafe.TestResult[]",
          "name": "_testResults",
          "type": "tuple[]"
        }
      ],
      "name": "checkIfAllPassed",
      "outputs": [
        {
          "internalType": "bool",
          "name": "",
          "type": "bool"
        }
      ],
      "stateMutability": "pure",
      "type": "function"
    },
    {
      "inputs": [
        {
          "internalType": "bytes",
          "name": "a",
          "type": "bytes"
        },
        {
          "internalType": "bytes",
          "name": "b",
          "type": "bytes"
        }
      ],
      "name": "equal",
      "outputs": [
        {
          "components": [
            {
              "internalType": "bool",
              "name": "passed",
              "type": "bool"
            },
            {
              "internalType": "string",
              "name": "assertionError",
              "type": "string"
            },
            {
              "internalType": "string",
              "name": "returnedAsString",
              "type": "string"
            },
            {
              "internalType": "string",
              "name": "expectedAsString",
              "type": "string"
            },
            {
              "internalType": "string",
              "name": "methodName",
              "type": "string"
            }
          ],
          "internalType": "struct Assert.AssertResult",
          "name": "result",
          "type": "tuple"
        }
      ],
      "stateMutability": "pure",
      "type": "function"
    },
    {
      "inputs": [
        {
          "internalType": "uint256",
          "name": "a",
          "type": "uint256"
        },
        {
          "internalType": "uint256",
          "name": "b",
          "type": "uint256"
        }
      ],
      "name": "equal",
      "outputs": [
        {
          "components": [
            {
              "internalType": "bool",
              "name": "passed",
              "type": "bool"
            },
            {
              "internalType": "string",
              "name": "assertionError",
              "type": "string"
            },
            {
              "internalType": "string",
              "name": "returnedAsString",
              "type": "string"
            },
            {
              "internalType": "string",
              "name": "expectedAsString",
              "type": "string"
            },
            {
              "internalType": "string",
              "name": "methodName",
              "type": "string"
            }
          ],
          "internalType": "struct Assert.AssertResult",
          "name": "result",
          "type": "tuple"
        }
      ],
      "stateMutability": "pure",
      "type": "function"
    },
    {
      "inputs": [
        {
          "internalType": "address",
          "name": "a",
          "type": "address"
        },
        {
          "internalType": "address",
          "name": "b",
          "type": "address"
        }
      ],
      "name": "equal",
      "outputs": [
        {
          "components": [
            {
              "internalType": "bool",
              "name": "passed",
              "type": "bool"
            },
            {
              "internalType": "string",
              "name": "assertionError",
              "type": "string"
            },
            {
              "internalType": "string",
              "name": "returnedAsString",
              "type": "string"
            },
            {
              "internalType": "string",
              "name": "expectedAsString",
              "type": "string"
            },
            {
              "internalType": "string",
              "name": "methodName",
              "type": "string"
            }
          ],
          "internalType": "struct Assert.AssertResult",
          "name": "result",
          "type": "tuple"
        }
      ],
      "stateMutability": "pure",
      "type": "function"
    },
    {
      "inputs": [
        {
          "internalType": "string",
          "name": "a",
          "type": "string"
        },
        {
          "internalType": "string",
          "name": "b",
          "type": "string"
        }
      ],
      "name": "equal",
      "outputs": [
        {
          "components": [
            {
              "internalType": "bool",
              "name": "passed",
              "type": "bool"
            },
            {
              "internalType": "string",
              "name": "assertionError",
              "type": "string"
            },
            {
              "internalType": "string",
              "name": "returnedAsString",
              "type": "string"
            },
            {
              "internalType": "string",
              "name": "expectedAsString",
              "type": "string"
            },
            {
              "internalType": "string",
              "name": "methodName",
              "type": "string"
            }
          ],
          "internalType": "struct Assert.AssertResult",
          "name": "result",
          "type": "tuple"
        }
      ],
      "stateMutability": "pure",
      "type": "function"
    },
    {
      "inputs": [
        {
          "internalType": "string[]",
          "name": "a",
          "type": "string[]"
        },
        {
          "internalType": "string[]",
          "name": "b",
          "type": "string[]"
        }
      ],
      "name": "equal",
      "outputs": [
        {
          "components": [
            {
              "internalType": "bool",
              "name": "passed",
              "type": "bool"
            },
            {
              "internalType": "string",
              "name": "assertionError",
              "type": "string"
            },
            {
              "internalType": "string",
              "name": "returnedAsString",
              "type": "string"
            },
            {
              "internalType": "string",
              "name": "expectedAsString",
              "type": "string"
            },
            {
              "internalType": "string",
              "name": "methodName",
              "type": "string"
            }
          ],
          "internalType": "struct Assert.AssertResult",
          "name": "result",
          "type": "tuple"
        }
      ],
      "stateMutability": "pure",
      "type": "function"
    },
    {
      "inputs": [
        {
          "internalType": "address[]",
          "name": "a",
          "type": "address[]"
        },
        {
          "internalType": "address[]",
          "name": "b",
          "type": "address[]"
        }
      ],
      "name": "equal",
      "outputs": [
        {
          "components": [
            {
              "internalType": "bool",
              "name": "passed",
              "type": "bool"
            },
            {
              "internalType": "string",
              "name": "assertionError",
              "type": "string"
            },
            {
              "internalType": "string",
              "name": "returnedAsString",
              "type": "string"
            },
            {
              "internalType": "string",
              "name": "expectedAsString",
              "type": "string"
            },
            {
              "internalType": "string",
              "name": "methodName",
              "type": "string"
            }
          ],
          "internalType": "struct Assert.AssertResult",
          "name": "result",
          "type": "tuple"
        }
      ],
      "stateMutability": "pure",
      "type": "function"
    },
    {
      "inputs": [
        {
          "internalType": "uint256[]",
          "name": "a",
          "type": "uint256[]"
        },
        {
          "internalType": "uint256[]",
          "name": "b",
          "type": "uint256[]"
        }
      ],
      "name": "equal",
      "outputs": [
        {
          "components": [
            {
              "internalType": "bool",
              "name": "passed",
              "type": "bool"
            },
            {
              "internalType": "string",
              "name": "assertionError",
              "type": "string"
            },
            {
              "internalType": "string",
              "name": "returnedAsString",
              "type": "string"
            },
            {
              "internalType": "string",
              "name": "expectedAsString",
              "type": "string"
            },
            {
              "internalType": "string",
              "name": "methodName",
              "type": "string"
            }
          ],
          "internalType": "struct Assert.AssertResult",
          "name": "result",
          "type": "tuple"
        }
      ],
      "stateMutability": "pure",
      "type": "function"
    },
    {
      "inputs": [
        {
          "internalType": "uint256",
          "name": "tokenId",
          "type": "uint256"
        }
      ],
      "name": "getApproved",
      "outputs": [
        {
          "internalType": "address",
          "name": "",
          "type": "address"
        }
      ],
      "stateMutability": "view",
      "type": "function"
    },
    {
      "inputs": [
        {
          "internalType": "address",
          "name": "owner",
          "type": "address"
        },
        {
          "internalType": "address",
          "name": "operator",
          "type": "address"
        }
      ],
      "name": "isApprovedForAll",
      "outputs": [
        {
          "internalType": "bool",
          "name": "",
          "type": "bool"
        }
      ],
      "stateMutability": "view",
      "type": "function"
    },
    {
      "inputs": [
        {
          "internalType": "bool",
          "name": "a",
          "type": "bool"
        }
      ],
      "name": "isFalse",
      "outputs": [
        {
          "components": [
            {
              "internalType": "bool",
              "name": "passed",
              "type": "bool"
            },
            {
              "internalType": "string",
              "name": "assertionError",
              "type": "string"
            },
            {
              "internalType": "string",
              "name": "returnedAsString",
              "type": "string"
            },
            {
              "internalType": "string",
              "name": "expectedAsString",
              "type": "string"
            },
            {
              "internalType": "string",
              "name": "methodName",
              "type": "string"
            }
          ],
          "internalType": "struct Assert.AssertResult",
          "name": "result",
          "type": "tuple"
        }
      ],
      "stateMutability": "pure",
      "type": "function"
    },
    {
      "inputs": [
        {
          "internalType": "bool",
          "name": "a",
          "type": "bool"
        }
      ],
      "name": "isTrue",
      "outputs": [
        {
          "components": [
            {
              "internalType": "bool",
              "name": "passed",
              "type": "bool"
            },
            {
              "internalType": "string",
              "name": "assertionError",
              "type": "string"
            },
            {
              "internalType": "string",
              "name": "returnedAsString",
              "type": "string"
            },
            {
              "internalType": "string",
              "name": "expectedAsString",
              "type": "string"
            },
            {
              "internalType": "string",
              "name": "methodName",
              "type": "string"
            }
          ],
          "internalType": "struct Assert.AssertResult",
          "name": "result",
          "type": "tuple"
        }
      ],
      "stateMutability": "pure",
      "type": "function"
    },
    {
      "inputs": [],
      "name": "name",
      "outputs": [
        {
          "internalType": "string",
          "name": "",
          "type": "string"
        }
      ],
      "stateMutability": "view",
      "type": "function"
    },
    {
      "inputs": [
        {
          "internalType": "address",
          "name": "a",
          "type": "address"
        },
        {
          "internalType": "address",
          "name": "b",
          "type": "address"
        }
      ],
      "name": "notEqual",
      "outputs": [
        {
          "components": [
            {
              "internalType": "bool",
              "name": "passed",
              "type": "bool"
            },
            {
              "internalType": "string",
              "name": "assertionError",
              "type": "string"
            },
            {
              "internalType": "string",
              "name": "returnedAsString",
              "type": "string"
            },
            {
              "internalType": "string",
              "name": "expectedAsString",
              "type": "string"
            },
            {
              "internalType": "string",
              "name": "methodName",
              "type": "string"
            }
          ],
          "internalType": "struct Assert.AssertResult",
          "name": "result",
          "type": "tuple"
        }
      ],
      "stateMutability": "pure",
      "type": "function"
    },
    {
      "inputs": [],
      "name": "owner",
      "outputs": [
        {
          "internalType": "address",
          "name": "",
          "type": "address"
        }
      ],
      "stateMutability": "view",
      "type": "function"
    },
    {
      "inputs": [
        {
          "internalType": "uint256",
          "name": "tokenId",
          "type": "uint256"
        }
      ],
      "name": "ownerOf",
      "outputs": [
        {
          "internalType": "address",
          "name": "",
          "type": "address"
        }
      ],
      "stateMutability": "view",
      "type": "function"
    },
    {
      "inputs": [
        {
          "internalType": "address",
          "name": "",
          "type": "address"
        }
      ],
      "name": "owners",
      "outputs": [
        {
          "internalType": "bool",
          "name": "",
          "type": "bool"
        }
      ],
      "stateMutability": "view",
      "type": "function"
    },
    {
      "inputs": [],
      "name": "renounceOwnership",
      "outputs": [],
      "stateMutability": "nonpayable",
      "type": "function"
    },
    {
      "inputs": [
        {
          "internalType": "address",
          "name": "from",
          "type": "address"
        },
        {
          "internalType": "address",
          "name": "to",
          "type": "address"
        },
        {
          "internalType": "uint256",
          "name": "tokenId",
          "type": "uint256"
        }
      ],
      "name": "safeTransferFrom",
      "outputs": [],
      "stateMutability": "nonpayable",
      "type": "function"
    },
    {
      "inputs": [
        {
          "internalType": "address",
          "name": "from",
          "type": "address"
        },
        {
          "internalType": "address",
          "name": "to",
          "type": "address"
        },
        {
          "internalType": "uint256",
          "name": "tokenId",
          "type": "uint256"
        },
        {
          "internalType": "bytes",
          "name": "data",
          "type": "bytes"
        }
      ],
      "name": "safeTransferFrom",
      "outputs": [],
      "stateMutability": "nonpayable",
      "type": "function"
    },
    {
      "inputs": [
        {
          "internalType": "bool",
          "name": "_setActiveTo",
          "type": "bool"
        }
      ],
      "name": "setActive",
      "outputs": [],
      "stateMutability": "nonpayable",
      "type": "function"
    },
    {
      "inputs": [
        {
          "internalType": "address",
          "name": "operator",
          "type": "address"
        },
        {
          "internalType": "bool",
          "name": "approved",
          "type": "bool"
        }
      ],
      "name": "setApprovalForAll",
      "outputs": [],
      "stateMutability": "nonpayable",
      "type": "function"
    },
    {
      "inputs": [
        {
          "internalType": "string",
          "name": "_tokenURI",
          "type": "string"
        }
      ],
      "name": "setTokenURI",
      "outputs": [],
      "stateMutability": "nonpayable",
      "type": "function"
    },
    {
      "inputs": [
        {
          "internalType": "bytes4",
          "name": "interfaceId",
          "type": "bytes4"
        }
      ],
      "name": "supportsInterface",
      "outputs": [
        {
          "internalType": "bool",
          "name": "",
          "type": "bool"
        }
      ],
      "stateMutability": "view",
      "type": "function"
    },
    {
      "inputs": [],
      "name": "symbol",
      "outputs": [
        {
          "internalType": "string",
          "name": "",
          "type": "string"
        }
      ],
      "stateMutability": "view",
      "type": "function"
    },
    {
      "inputs": [
        {
          "internalType": "address",
          "name": "_submissionAddress",
          "type": "address"
        }
      ],
      "name": "testContract",
      "outputs": [],
      "stateMutability": "nonpayable",
      "type": "function"
    },
    {
      "inputs": [],
      "name": "tokenIds",
      "outputs": [
        {
          "internalType": "uint256",
          "name": "_value",
          "type": "uint256"
        }
      ],
      "stateMutability": "view",
      "type": "function"
    },
    {
      "inputs": [
        {
          "internalType": "uint256",
          "name": "",
          "type": "uint256"
        }
      ],
      "name": "tokenURI",
      "outputs": [
        {
          "internalType": "string",
          "name": "",
          "type": "string"
        }
      ],
      "stateMutability": "view",
      "type": "function"
    },
    {
      "inputs": [
        {
          "internalType": "address",
          "name": "from",
          "type": "address"
        },
        {
          "internalType": "address",
          "name": "to",
          "type": "address"
        },
        {
          "internalType": "uint256",
          "name": "tokenId",
          "type": "uint256"
        }
      ],
      "name": "transferFrom",
      "outputs": [],
      "stateMutability": "nonpayable",
      "type": "function"
    },
    {
      "inputs": [
        {
          "internalType": "address",
          "name": "newOwner",
          "type": "address"
        }
      ],
      "name": "transferOwnership",
      "outputs": [],
      "stateMutability": "nonpayable",
      "type": "function"
    }
  ],
  "transactionHash": "0x67d99d90adf7a6e6e964fdc840ce2311ef6a104492e9b1dbd01834a76101681f",
  "args": [
    "0xC96D619758BD57FbB85985A67d27B996cC3F8D91"
  ],
  "numDeployments": 1,
  "solcInputHash": "6a581879d712a9c25e4fb247f22274cf",
  "bytecode": "0x600b805460ff1916600117905560a060405260006080908152600c90620000279082620002d0565b503480156200003557600080fd5b50604051620083943803806200839483398101604081905262000058916200039c565b6040518060400160405280600c81526020016b26b0b83834b733b9902834b760a11b815250604051806040016040528060048152602001635343444d60e01b8152508160009081620000ab9190620002d0565b506001620000ba8282620002d0565b505050620000d7620000d1620001b760201b60201c565b620001bb565b6001600755604051600d90620000ed906200020d565b604051809103906000f0801580156200010a573d6000803e3d6000fd5b5081546001810183556000928352602090922090910180546001600160a01b0319166001600160a01b03909216919091179055604051600d90829062000150906200021b565b6001600160a01b039091168152602001604051809103906000f0801580156200017d573d6000803e3d6000fd5b5081546001810183556000928352602090922090910180546001600160a01b0319166001600160a01b0390921691909117905550620003ce565b3390565b600680546001600160a01b038381166001600160a01b0319831681179093556040519116919082907f8be0079c531659141344cd1fd0a4f28419497f9722a3daafe3b4186f6b6457e090600090a35050565b6120258062003d6f83390190565b6126008062005d9483390190565b634e487b7160e01b600052604160045260246000fd5b600181811c908216806200025457607f821691505b6020821081036200027557634e487b7160e01b600052602260045260246000fd5b50919050565b601f821115620002cb576000816000526020600020601f850160051c81016020861015620002a65750805b601f850160051c820191505b81811015620002c757828155600101620002b2565b5050505b505050565b81516001600160401b03811115620002ec57620002ec62000229565b6200030481620002fd84546200023f565b846200027b565b602080601f8311600181146200033c5760008415620003235750858301515b600019600386901b1c1916600185901b178555620002c7565b600085815260208120601f198616915b828110156200036d578886015182559484019460019091019084016200034c565b50858210156200038c5787850151600019600388901b60f8161c191681555b5050505050600190811b01905550565b600060208284031215620003af57600080fd5b81516001600160a01b0381168114620003c757600080fd5b9392505050565b61399180620003de6000396000f3fe608060405234801561001057600080fd5b50600436106101f05760003560e01c806370a082311161010f578063b88d4fde116100a2578063e7da4c7e11610071578063e7da4c7e14610431578063e985e9c514610444578063f2fde38b14610480578063fa084b9b1461049357600080fd5b8063b88d4fde146103e5578063c87b56dd146103f8578063d70968e71461040b578063e0df5b6f1461041e57600080fd5b80638da5cb5b116100de5780638da5cb5b146103a657806395d89b41146103b7578063a22cb465146103bf578063acec338a146103d257600080fd5b806370a0823114610360578063714cff5614610381578063715018a61461038b57806374f130701461039357600080fd5b8063301916261161018757806346bdca9a1161015657806346bdca9a146102a857806360fb55d5146103275780636352211e1461033a5780636df864781461034d57600080fd5b806330191626146102db57806331495d33146102ee578063410dbb8b1461030157806342842e0e1461031457600080fd5b8063081812fc116101c3578063081812fc1461026a578063095ea7b314610295578063235266d2146102a857806323b872dd146102c857600080fd5b806301ffc9a7146101f5578063022914a71461021d57806306d82f291461024057806306fdde0314610255575b600080fd5b610208610203366004612688565b6104a6565b60405190151581526020015b60405180910390f35b61020861022b3660046126ba565b60096020526000908152604090205460ff1681565b61025361024e3660046126ba565b610543565b005b61025d6107fe565b6040516102149190612727565b61027d61027836600461273a565b610890565b6040516001600160a01b039091168152602001610214565b6102536102a3366004612753565b6108b7565b6102bb6102b6366004612890565b610a0b565b604051610214919061296b565b6102536102d636600461297e565b610aba565b6102bb6102e93660046129bf565b610b31565b6102bb6102fc3660046129e1565b610beb565b6102bb61030f366004612a38565b610cbc565b61025361032236600461297e565b610dbc565b6102bb610335366004612b04565b610dd7565b61027d61034836600461273a565b610eb3565b6102bb61035b366004612bc6565b610f18565b61037361036e3660046126ba565b610ff4565b604051908152602001610214565b6008546103739081565b61025361108e565b6102bb6103a1366004612a38565b6110a2565b6006546001600160a01b031661027d565b61025d6111a3565b6102536103cd366004612c20565b6111b2565b6102536103e0366004612a38565b6111c1565b6102536103f3366004612c4e565b6111dc565b61025d61040636600461273a565b611254565b6102bb6104193660046129e1565b6112e8565b61025361042c366004612cba565b6113af565b6102bb61043f366004612d4e565b6113c3565b6102086104523660046129e1565b6001600160a01b03918216600090815260056020908152604080832093909416825291909152205460ff1690565b61025361048e3660046126ba565b61149f565b6102086104a1366004612da8565b61152f565b60006001600160e01b031982167f80ac58cd00000000000000000000000000000000000000000000000000000000148061050957506001600160e01b031982167f5b5e139f00000000000000000000000000000000000000000000000000000000145b8061053d57507f01ffc9a7000000000000000000000000000000000000000000000000000000006001600160e01b03198316145b92915050565b600b5460ff1661057f576040517f80cb55e200000000000000000000000000000000000000000000000000000000815260040160405180910390fd5b600e5460609060009083906001600160a01b0316156106bb57600d546105a69060016130e5565b67ffffffffffffffff8111156105be576105be61277f565b6040519080825280602002602001820160405280156105f757816020015b6105e461263e565b8152602001906001900390816105dc5790505b50925081610604816130f8565b600e546040517f4c96a3890000000000000000000000000000000000000000000000000000000081526001600160a01b03888116600483015292955091169150634c96a389906024016000604051808303816000875af115801561066c573d6000803e3d6000fd5b505050506040513d6000823e601f3d908101601f191682016040526106949190810190613328565b846000815181106106a7576106a761336f565b602002602001018193508290525050610713565b600d5467ffffffffffffffff8111156106d6576106d661277f565b60405190808252806020026020018201604052801561070f57816020015b6106fc61263e565b8152602001906001900390816106f45790505b5092505b600d548210156107ee57600d82815481106107305761073061336f565b6000918252602090912001546040517f4b64e4920000000000000000000000000000000000000000000000000000000081526001600160a01b03838116600483015290911690634b64e492906024016000604051808303816000875af115801561079e573d6000803e3d6000fd5b505050506040513d6000823e601f3d908101601f191682016040526107c69190810190613385565b8383815181106107d8576107d861336f565b6020908102919091010152600190910190610713565b6107f884846115cf565b50505050565b60606000805461080d906133ba565b80601f0160208091040260200160405190810160405280929190818152602001828054610839906133ba565b80156108865780601f1061085b57610100808354040283529160200191610886565b820191906000526020600020905b81548152906001019060200180831161086957829003601f168201915b5050505050905090565b600061089b826116d6565b506000908152600460205260409020546001600160a01b031690565b60006108c282610eb3565b9050806001600160a01b0316836001600160a01b0316036109505760405162461bcd60e51b815260206004820152602160248201527f4552433732313a20617070726f76616c20746f2063757272656e74206f776e6560448201527f720000000000000000000000000000000000000000000000000000000000000060648201526084015b60405180910390fd5b336001600160a01b038216148061098a57506001600160a01b038116600090815260056020908152604080832033845290915290205460ff165b6109fc5760405162461bcd60e51b815260206004820152603d60248201527f4552433732313a20617070726f76652063616c6c6572206973206e6f7420746f60448201527f6b656e206f776e6572206f7220617070726f76656420666f7220616c6c0000006064820152608401610947565b610a06838361173a565b505050565b610a3f6040518060a00160405280600015158152602001606081526020016060815260200160608152602001606081525090565b815160208084019190912084519185019190912014808252610a84578282604051602001610a6e9291906133f4565b60408051601f1981840301815291905260208201525b604080820193909352606081019190915281518083019092526005825264195c5d585b60da1b6020830152608081019190915290565b610ac433826117b5565b610b265760405162461bcd60e51b815260206004820152602d60248201527f4552433732313a2063616c6c6572206973206e6f7420746f6b656e206f776e6560448201526c1c881bdc88185c1c1c9bdd9959609a1b6064820152608401610947565b610a06838383611834565b610b656040518060a00160405280600015158152602001606081526020016060815260200160608152602001606081525090565b828214808252610ba857610b7883611a47565b610b8183611a47565b604051602001610b929291906133f4565b60408051601f1981840301815291905260208201525b610bb183611a47565b6040820152610bbf82611a47565b6060820152604080518082019091526005815264195c5d585b60da1b6020820152608082015292915050565b610c1f6040518060a00160405280600015158152602001606081526020016060815260200160608152602001606081525090565b6001600160a01b0383811690831681148252600090610c3f906014611ae7565b90506000610c57846001600160a01b03166014611ae7565b8351909150610c89578181604051602001610c739291906133f4565b60408051601f1981840301815291905260208401525b604080840192909252606083015280518082019091526005815264195c5d585b60da1b6020820152608082015292915050565b610cf06040518060a00160405280600015158152602001606081526020016060815260200160608152602001606081525090565b8115808252610d18576040518060600160405280602381526020016139176023913960208201525b600182151514610d45576040518060400160405280600581526020016466616c736560d81b815250610d63565b604051806040016040528060048152602001637472756560e01b8152505b6040808301919091528051602080820183526000825260608401919091528151808301909252600782527f697346616c736500000000000000000000000000000000000000000000000000908201526080820152919050565b610a06838383604051806020016040528060008152506111dc565b610e0b6040518060a00160405280600015158152602001606081526020016060815260200160608152602001606081525090565b81604051602001610e1c9190613475565b6040516020818303038152906040528051906020012083604051602001610e439190613475565b60408051601f19818403018152919052805160209091012014808252610e9c57610e6c83611ccf565b610e7583611ccf565b604051602001610e869291906133f4565b60408051601f1981840301815291905260208201525b610ea583611ccf565b6040820152610bbf82611ccf565b6000818152600260205260408120546001600160a01b03168061053d5760405162461bcd60e51b815260206004820152601860248201527f4552433732313a20696e76616c696420746f6b656e20494400000000000000006044820152606401610947565b610f4c6040518060a00160405280600015158152602001606081526020016060815260200160608152602001606081525090565b81604051602001610f5d91906134d9565b6040516020818303038152906040528051906020012083604051602001610f8491906134d9565b60408051601f19818403018152919052805160209091012014808252610fdd57610fad83611d9a565b610fb683611d9a565b604051602001610fc79291906133f4565b60408051601f1981840301815291905260208201525b610fe683611d9a565b6040820152610bbf82611d9a565b60006001600160a01b0382166110725760405162461bcd60e51b815260206004820152602960248201527f4552433732313a2061646472657373207a65726f206973206e6f74206120766160448201527f6c6964206f776e657200000000000000000000000000000000000000000000006064820152608401610947565b506001600160a01b031660009081526003602052604090205490565b611096611e6c565b6110a06000611ec6565b565b6110d66040518060a00160405280600015158152602001606081526020016060815260200160608152602001606081525090565b8115158082526110ff5760405180606001604052806022815260200161393a6022913960208201525b60018215151461112c576040518060400160405280600581526020016466616c736560d81b81525061114a565b604051806040016040528060048152602001637472756560e01b8152505b6040808301919091528051602080820183526000825260608401919091528151808301909252600682527f6973547275650000000000000000000000000000000000000000000000000000908201526080820152919050565b60606001805461080d906133ba565b6111bd338383611f25565b5050565b6111c9611e6c565b600b805460ff1916911515919091179055565b6111e633836117b5565b6112485760405162461bcd60e51b815260206004820152602d60248201527f4552433732313a2063616c6c6572206973206e6f7420746f6b656e206f776e6560448201526c1c881bdc88185c1c1c9bdd9959609a1b6064820152608401610947565b6107f884848484611ff3565b6060600c8054611263906133ba565b80601f016020809104026020016040519081016040528092919081815260200182805461128f906133ba565b80156112dc5780601f106112b1576101008083540402835291602001916112dc565b820191906000526020600020905b8154815290600101906020018083116112bf57829003601f168201915b50505050509050919050565b61131c6040518060a00160405280600015158152602001606081526020016060815260200160608152602001606081525090565b6001600160a01b03838116908316811415825260009061133d906014611ae7565b825190915061136d57806040516020016113579190613526565b60408051601f1981840301815291905260208301525b60408083019190915280516020808201835260008252606084019190915281518083019092526005825264195c5d585b60da1b90820152608082015292915050565b6113b7611e6c565b600c6111bd82826135e1565b6113f76040518060a00160405280600015158152602001606081526020016060815260200160608152602001606081525090565b8160405160200161140891906136a1565b604051602081830303815290604052805190602001208360405160200161142f91906136a1565b60408051601f198184030181529190528051602090910120148082526114885761145883612071565b61146183612071565b6040516020016114729291906133f4565b60408051601f1981840301815291905260208201525b61149183612071565b6040820152610bbf82612071565b6114a7611e6c565b6001600160a01b0381166115235760405162461bcd60e51b815260206004820152602660248201527f4f776e61626c653a206e6577206f776e657220697320746865207a65726f206160448201527f64647265737300000000000000000000000000000000000000000000000000006064820152608401610947565b61152c81611ec6565b50565b6000805b82518110156115c65760005b8382815181106115515761155161336f565b602002602001015160200151602001518110156115bd5783828151811061157a5761157a61336f565b60200260200101516020015160000151818151811061159b5761159b61336f565b6020026020010151600001516115b5575060009392505050565b60010161153f565b50600101611533565b50600192915050565b6115d7612138565b60006115e28261152f565b90507f53d51c5f8eaf1bdbf1288871cbf97a9295da23a9868b15b526b4256ede348db9838284604051611617939291906136d9565b60405180910390a16001600160a01b0383166000908152600a602052604090205460ff1615801561165857503360009081526009602052604090205460ff16155b80156116615750805b156116a857611674600880546001019055565b600061167f60085490565b336000818152600960205260409020805460ff191660011790559091506116a69082612191565b505b506001600160a01b0382166000908152600a60205260409020805460ff191660011790556111bd6001600755565b6000818152600260205260409020546001600160a01b031661152c5760405162461bcd60e51b815260206004820152601860248201527f4552433732313a20696e76616c696420746f6b656e20494400000000000000006044820152606401610947565b6000818152600460205260409020805473ffffffffffffffffffffffffffffffffffffffff19166001600160a01b038416908117909155819061177c82610eb3565b6001600160a01b03167f8c5be1e5ebec7d5bd14f71427d1e84f3dd0314c0f7b2291e5b200ac8c7c3b92560405160405180910390a45050565b6000806117c183610eb3565b9050806001600160a01b0316846001600160a01b0316148061180857506001600160a01b0380821660009081526005602090815260408083209388168352929052205460ff165b8061182c5750836001600160a01b031661182184610890565b6001600160a01b0316145b949350505050565b826001600160a01b031661184782610eb3565b6001600160a01b0316146118ab5760405162461bcd60e51b815260206004820152602560248201527f4552433732313a207472616e736665722066726f6d20696e636f72726563742060448201526437bbb732b960d91b6064820152608401610947565b6001600160a01b0382166119265760405162461bcd60e51b8152602060048201526024808201527f4552433732313a207472616e7366657220746f20746865207a65726f2061646460448201527f72657373000000000000000000000000000000000000000000000000000000006064820152608401610947565b61193383838360016121ab565b826001600160a01b031661194682610eb3565b6001600160a01b0316146119aa5760405162461bcd60e51b815260206004820152602560248201527f4552433732313a207472616e736665722066726f6d20696e636f72726563742060448201526437bbb732b960d91b6064820152608401610947565b6000818152600460209081526040808320805473ffffffffffffffffffffffffffffffffffffffff199081169091556001600160a01b0387811680865260038552838620805460001901905590871680865283862080546001019055868652600290945282852080549092168417909155905184937fddf252ad1be2c89b69c2b068fc378daa952ba7f163c4a11628f55a4df523b3ef91a4505050565b60606000611a54836121ec565b600101905060008167ffffffffffffffff811115611a7457611a7461277f565b6040519080825280601f01601f191660200182016040528015611a9e576020820181803683370190505b5090508181016020015b600019017f3031323334353637383961626364656600000000000000000000000000000000600a86061a8153600a8504945084611aa857509392505050565b60606000611af68360026137ce565b611b019060026130e5565b67ffffffffffffffff811115611b1957611b1961277f565b6040519080825280601f01601f191660200182016040528015611b43576020820181803683370190505b5090507f300000000000000000000000000000000000000000000000000000000000000081600081518110611b7a57611b7a61336f565b60200101906001600160f81b031916908160001a9053507f780000000000000000000000000000000000000000000000000000000000000081600181518110611bc557611bc561336f565b60200101906001600160f81b031916908160001a9053506000611be98460026137ce565b611bf49060016130e5565b90505b6001811115611c79577f303132333435363738396162636465660000000000000000000000000000000085600f1660108110611c3557611c3561336f565b1a60f81b828281518110611c4b57611c4b61336f565b60200101906001600160f81b031916908160001a90535060049490941c93611c72816137e5565b9050611bf7565b508315611cc85760405162461bcd60e51b815260206004820181905260248201527f537472696e67733a20686578206c656e67746820696e73756666696369656e746044820152606401610947565b9392505050565b6040805180820190915260018152605b60f81b602082015260609060005b8351811015611d935760018451611d0491906137fc565b811015611d4d5781848281518110611d1e57611d1e61336f565b6020026020010151604051602001611d3792919061380f565b6040516020818303038152906040529150611d8b565b81848281518110611d6057611d6061336f565b6020026020010151604051602001611d79929190613866565b60405160208183030381529060405291505b600101611ced565b5092915050565b6040805180820190915260018152605b60f81b602082015260609060005b8351811015611d935760018451611dcf91906137fc565b811015611e2b5781611e04858381518110611dec57611dec61336f565b60200260200101516001600160a01b03166014611ae7565b604051602001611e1592919061380f565b6040516020818303038152906040529150611e64565b81611e41858381518110611dec57611dec61336f565b604051602001611e52929190613866565b60405160208183030381529060405291505b600101611db8565b6006546001600160a01b031633146110a05760405162461bcd60e51b815260206004820181905260248201527f4f776e61626c653a2063616c6c6572206973206e6f7420746865206f776e65726044820152606401610947565b600680546001600160a01b0383811673ffffffffffffffffffffffffffffffffffffffff19831681179093556040519116919082907f8be0079c531659141344cd1fd0a4f28419497f9722a3daafe3b4186f6b6457e090600090a35050565b816001600160a01b0316836001600160a01b031603611f865760405162461bcd60e51b815260206004820152601960248201527f4552433732313a20617070726f766520746f2063616c6c6572000000000000006044820152606401610947565b6001600160a01b03838116600081815260056020908152604080832094871680845294825291829020805460ff191686151590811790915591519182527f17307eab39ab6107e8899845ad3d59bd9653f200f220920489ca2b5937696c31910160405180910390a3505050565b611ffe848484611834565b61200a848484846122ce565b6107f85760405162461bcd60e51b815260206004820152603260248201527f4552433732313a207472616e7366657220746f206e6f6e20455243373231526560448201527131b2b4bb32b91034b6b83632b6b2b73a32b960711b6064820152608401610947565b6040805180820190915260018152605b60f81b602082015260609060005b8351811015611d9357600184516120a691906137fc565b8110156120f757816120d08583815181106120c3576120c361336f565b6020026020010151611a47565b6040516020016120e192919061380f565b6040516020818303038152906040529150612130565b8161210d8583815181106120c3576120c361336f565b60405160200161211e929190613866565b60405160208183030381529060405291505b60010161208f565b60026007540361218a5760405162461bcd60e51b815260206004820152601f60248201527f5265656e7472616e637947756172643a207265656e7472616e742063616c6c006044820152606401610947565b6002600755565b6111bd82826040518060200160405280600081525061241a565b6001600160a01b038416156107f8576040517f6e10574900000000000000000000000000000000000000000000000000000000815260040160405180910390fd5b6000807a184f03e93ff9f4daa797ed6e38ed64bf6a1f0100000000000000008310612235577a184f03e93ff9f4daa797ed6e38ed64bf6a1f010000000000000000830492506040015b6d04ee2d6d415b85acef81000000008310612261576d04ee2d6d415b85acef8100000000830492506020015b662386f26fc10000831061227f57662386f26fc10000830492506010015b6305f5e1008310612297576305f5e100830492506008015b61271083106122ab57612710830492506004015b606483106122bd576064830492506002015b600a831061053d5760010192915050565b60006001600160a01b0384163b1561240f57604051630a85bd0160e11b81526001600160a01b0385169063150b7a02906123129033908990889088906004016138bd565b6020604051808303816000875af192505050801561234d575060408051601f3d908101601f1916820190925261234a918101906138f9565b60015b6123f5573d80801561237b576040519150601f19603f3d011682016040523d82523d6000602084013e612380565b606091505b5080516000036123ed5760405162461bcd60e51b815260206004820152603260248201527f4552433732313a207472616e7366657220746f206e6f6e20455243373231526560448201527131b2b4bb32b91034b6b83632b6b2b73a32b960711b6064820152608401610947565b805181602001fd5b6001600160e01b031916630a85bd0160e11b14905061182c565b506001949350505050565b6124248383612498565b61243160008484846122ce565b610a065760405162461bcd60e51b815260206004820152603260248201527f4552433732313a207472616e7366657220746f206e6f6e20455243373231526560448201527131b2b4bb32b91034b6b83632b6b2b73a32b960711b6064820152608401610947565b6001600160a01b0382166124ee5760405162461bcd60e51b815260206004820181905260248201527f4552433732313a206d696e7420746f20746865207a65726f20616464726573736044820152606401610947565b6000818152600260205260409020546001600160a01b0316156125535760405162461bcd60e51b815260206004820152601c60248201527f4552433732313a20746f6b656e20616c7265616479206d696e746564000000006044820152606401610947565b6125616000838360016121ab565b6000818152600260205260409020546001600160a01b0316156125c65760405162461bcd60e51b815260206004820152601c60248201527f4552433732313a20746f6b656e20616c7265616479206d696e746564000000006044820152606401610947565b6001600160a01b0382166000818152600360209081526040808320805460010190558483526002909152808220805473ffffffffffffffffffffffffffffffffffffffff19168417905551839291907fddf252ad1be2c89b69c2b068fc378daa952ba7f163c4a11628f55a4df523b3ef908290a45050565b60405180604001604052806060815260200161266d604051806040016040528060608152602001600081525090565b905290565b6001600160e01b03198116811461152c57600080fd5b60006020828403121561269a57600080fd5b8135611cc881612672565b6001600160a01b038116811461152c57600080fd5b6000602082840312156126cc57600080fd5b8135611cc8816126a5565b60005b838110156126f25781810151838201526020016126da565b50506000910152565b600081518084526127138160208601602086016126d7565b601f01601f19169290920160200192915050565b602081526000611cc860208301846126fb565b60006020828403121561274c57600080fd5b5035919050565b6000806040838503121561276657600080fd5b8235612771816126a5565b946020939093013593505050565b634e487b7160e01b600052604160045260246000fd5b6040805190810167ffffffffffffffff811182821017156127b8576127b861277f565b60405290565b60405160a0810167ffffffffffffffff811182821017156127b8576127b861277f565b604051601f8201601f1916810167ffffffffffffffff8111828210171561280a5761280a61277f565b604052919050565b600067ffffffffffffffff82111561282c5761282c61277f565b50601f01601f191660200190565b600082601f83011261284b57600080fd5b813561285e61285982612812565b6127e1565b81815284602083860101111561287357600080fd5b816020850160208301376000918101602001919091529392505050565b600080604083850312156128a357600080fd5b823567ffffffffffffffff808211156128bb57600080fd5b6128c78683870161283a565b935060208501359150808211156128dd57600080fd5b506128ea8582860161283a565b9150509250929050565b8051151582526000602082015160a0602085015261291560a08501826126fb565b90506040830151848203604086015261292e82826126fb565b9150506060830151848203606086015261294882826126fb565b9150506080830151848203608086015261296282826126fb565b95945050505050565b602081526000611cc860208301846128f4565b60008060006060848603121561299357600080fd5b833561299e816126a5565b925060208401356129ae816126a5565b929592945050506040919091013590565b600080604083850312156129d257600080fd5b50508035926020909101359150565b600080604083850312156129f457600080fd5b82356129ff816126a5565b91506020830135612a0f816126a5565b809150509250929050565b801515811461152c57600080fd5b8035612a3381612a1a565b919050565b600060208284031215612a4a57600080fd5b8135611cc881612a1a565b600067ffffffffffffffff821115612a6f57612a6f61277f565b5060051b60200190565b600082601f830112612a8a57600080fd5b81356020612a9a61285983612a55565b82815260059290921b84018101918181019086841115612ab957600080fd5b8286015b84811015612af957803567ffffffffffffffff811115612add5760008081fd5b612aeb8986838b010161283a565b845250918301918301612abd565b509695505050505050565b60008060408385031215612b1757600080fd5b823567ffffffffffffffff80821115612b2f57600080fd5b612b3b86838701612a79565b93506020850135915080821115612b5157600080fd5b506128ea85828601612a79565b600082601f830112612b6f57600080fd5b81356020612b7f61285983612a55565b8083825260208201915060208460051b870101935086841115612ba157600080fd5b602086015b84811015612af9578035612bb9816126a5565b8352918301918301612ba6565b60008060408385031215612bd957600080fd5b823567ffffffffffffffff80821115612bf157600080fd5b612bfd86838701612b5e565b93506020850135915080821115612c1357600080fd5b506128ea85828601612b5e565b60008060408385031215612c3357600080fd5b8235612c3e816126a5565b91506020830135612a0f81612a1a565b60008060008060808587031215612c6457600080fd5b8435612c6f816126a5565b93506020850135612c7f816126a5565b925060408501359150606085013567ffffffffffffffff811115612ca257600080fd5b612cae8782880161283a565b91505092959194509250565b600060208284031215612ccc57600080fd5b813567ffffffffffffffff811115612ce357600080fd5b61182c8482850161283a565b600082601f830112612d0057600080fd5b81356020612d1061285983612a55565b8083825260208201915060208460051b870101935086841115612d3257600080fd5b602086015b84811015612af95780358352918301918301612d37565b60008060408385031215612d6157600080fd5b823567ffffffffffffffff80821115612d7957600080fd5b612d8586838701612cef565b93506020850135915080821115612d9b57600080fd5b506128ea85828601612cef565b600060208284031215612dba57600080fd5b67ffffffffffffffff82351115612dd057600080fd5b82601f833584010112612de257600080fd5b612df26128598335840135612a55565b8235830180358083526020808401939260059290921b90910101851015612e1857600080fd5b602084358501015b84358501803560051b016020018110156130c65767ffffffffffffffff81351115612e4a57600080fd5b6040853586018235018703601f19011215612e6457600080fd5b612e6c612795565b67ffffffffffffffff60208335883589010101351115612e8b57600080fd5b612ea3876020843589358a010181810135010161283a565b815267ffffffffffffffff60408335883589010101351115612ec457600080fd5b60408635870183350180820135018803601f19011215612ee357600080fd5b612eeb612795565b67ffffffffffffffff87358801843501604081013501602001351115612f1057600080fd5b86358701833501604081013501602081013501603f81018913612f3257600080fd5b612f426128596020830135612a55565b602082810135808352908201919060051b83016040018b1015612f6457600080fd5b604083015b6040602085013560051b8501018110156130945767ffffffffffffffff81351115612f9357600080fd5b8035840160a0818e03603f19011215612fab57600080fd5b612fb36127be565b612fbf60408301612a28565b815267ffffffffffffffff60608301351115612fda57600080fd5b612fed8e6040606085013585010161283a565b602082015267ffffffffffffffff6080830135111561300b57600080fd5b61301e8e6040608085013585010161283a565b604082015267ffffffffffffffff60a0830135111561303c57600080fd5b61304f8e604060a085013585010161283a565b606082015267ffffffffffffffff60c0830135111561306d57600080fd5b6130808e604060c085013585010161283a565b608082015284525060209283019201612f69565b508352505060408335883589010181810135010135602080830191909152828101919091529084529283019201612e20565b50949350505050565b634e487b7160e01b600052601160045260246000fd5b8082018082111561053d5761053d6130cf565b60006001820161310a5761310a6130cf565b5060010190565b600082601f83011261312257600080fd5b815161313061285982612812565b81815284602083860101111561314557600080fd5b61182c8260208301602087016126d7565b8051612a3381612a1a565b60006040828403121561317357600080fd5b61317b612795565b9050815167ffffffffffffffff8082111561319557600080fd5b6131a185838601613111565b83526020915081840151818111156131b857600080fd5b8401604081870312156131ca57600080fd5b6131d2612795565b8151838111156131e157600080fd5b8201601f810188136131f257600080fd5b805161320061285982612a55565b81815260059190911b8201860190868101908a83111561321f57600080fd5b8784015b8381101561330c5780518881111561323a57600080fd5b850160a0818e03601f1901121561325057600080fd5b6132586127be565b6132638b8301613156565b815260408201518a81111561327757600080fd5b6132858f8d83860101613111565b8c8301525060608201518a81111561329c57600080fd5b6132aa8f8d83860101613111565b60408301525060808201518a8111156132c35760008081fd5b6132d18f8d83860101613111565b60608301525060a08201518a8111156132ea5760008081fd5b6132f88f8d83860101613111565b608083015250845250918801918801613223565b5084525050509083015183820152918301919091525092915050565b6000806040838503121561333b57600080fd5b825167ffffffffffffffff81111561335257600080fd5b61335e85828601613161565b9250506020830151612a0f816126a5565b634e487b7160e01b600052603260045260246000fd5b60006020828403121561339757600080fd5b815167ffffffffffffffff8111156133ae57600080fd5b61182c84828501613161565b600181811c908216806133ce57607f821691505b6020821081036133ee57634e487b7160e01b600052602260045260246000fd5b50919050565b7f417373657274696f6e4572726f723a200000000000000000000000000000000081526000835161342c8160108501602088016126d7565b7f206973206e6f7420657175616c20746f2000000000000000000000000000000060109184019182015283516134698160218401602088016126d7565b01602101949350505050565b600060208083016020845280855180835260408601915060408160051b87010192506020870160005b828110156134cc57603f198886030184526134ba8583516126fb565b9450928501929085019060010161349e565b5092979650505050505050565b6020808252825182820181905260009190848201906040850190845b8181101561351a5783516001600160a01b0316835292840192918401916001016134f5565b50909695505050505050565b7f417373657274696f6e4572726f723a200000000000000000000000000000000081527f20426f74682076616c75657320617265000000000000000000000000000000006010820152600082516135848160208501602087016126d7565b9190910160200192915050565b601f821115610a06576000816000526020600020601f850160051c810160208610156135ba5750805b601f850160051c820191505b818110156135d9578281556001016135c6565b505050505050565b815167ffffffffffffffff8111156135fb576135fb61277f565b61360f8161360984546133ba565b84613591565b602080601f831160018114613644576000841561362c5750858301515b600019600386901b1c1916600185901b1785556135d9565b600085815260208120601f198616915b8281101561367357888601518255948401946001909101908401613654565b50858210156136915787850151600019600388901b60f8161c191681555b5050505050600190811b01905550565b6020808252825182820181905260009190848201906040850190845b8181101561351a578351835292840192918401916001016136bd565b600060608083016001600160a01b038716845260208615158186015260406060604087015282875180855260808801915060808160051b89010194508389016000805b838110156137bc578a8803607f1901855282518051878a52613740888b01826126fb565b918901518a83038b8b0152805189845280518a850181905291939250600582901b83018d0191908b01908d840190875b8181101561379e57605f1986860301835261378c8585516128f4565b9450928d0192918d0191600101613770565b5050505091890151908901529750938601939186019160010161371c565b50959c9b505050505050505050505050565b808202811582820484141761053d5761053d6130cf565b6000816137f4576137f46130cf565b506000190190565b8181038181111561053d5761053d6130cf565b600083516138218184602088016126d7565b8351908301906138358183602088016126d7565b7f2c200000000000000000000000000000000000000000000000000000000000009101908152600201949350505050565b600083516138788184602088016126d7565b83519083019061388c8183602088016126d7565b7f5d000000000000000000000000000000000000000000000000000000000000009101908152600101949350505050565b60006001600160a01b038087168352808616602084015250836040830152608060608301526138ef60808301846126fb565b9695505050505050565b60006020828403121561390b57600080fd5b8151611cc88161267256fe417373657274696f6e4572726f723a20726573756c74206973206e6f742066616c7365417373657274696f6e4572726f723a20726573756c74206973206e6f742074727565a26469706673582212200da3af10d532f166883a955559843698f2552998c8af498cb4b6df1229f7717e64736f6c63430008170033608060405234801561001057600080fd5b50612005806100206000396000f3fe608060405234801561001057600080fd5b50600436106100c95760003560e01c80634b64e4921161008157806374f130701161005b57806374f1307014610176578063d70968e714610189578063e7da4c7e1461019c57600080fd5b80634b64e4921461013057806360fb55d5146101505780636df864781461016357600080fd5b806331495d33116100b257806331495d331461010a578063410dbb8b1461011d57806346bdca9a146100ce57600080fd5b8063235266d2146100ce57806330191626146100f7575b600080fd5b6100e16100dc366004611630565b6101af565b6040516100ee919061175b565b60405180910390f35b6100e1610105366004611775565b61025e565b6100e16101183660046117b3565b610318565b6100e161012b3660046117e6565b6103e9565b61014361013e366004611808565b6104e9565b6040516100ee9190611823565b6100e161015e36600461196b565b61085b565b6100e1610171366004611a2b565b610937565b6100e16101843660046117e6565b610a13565b6100e16101973660046117b3565b610b14565b6100e16101aa366004611ae4565b610bdb565b6101e36040518060a00160405280600015158152602001606081526020016060815260200160608152602001606081525090565b815160208084019190912084519185019190912014808252610228578282604051602001610212929190611b3e565b60408051601f1981840301815291905260208201525b604080820193909352606081019190915281518083019092526005825264195c5d585b60da1b6020830152608081019190915290565b6102926040518060a00160405280600015158152602001606081526020016060815260200160608152602001606081525090565b8282148082526102d5576102a583610cb7565b6102ae83610cb7565b6040516020016102bf929190611b3e565b60408051601f1981840301815291905260208201525b6102de83610cb7565b60408201526102ec82610cb7565b6060820152604080518082019091526005815264195c5d585b60da1b6020820152608082015292915050565b61034c6040518060a00160405280600015158152602001606081526020016060815260200160608152602001606081525090565b6001600160a01b038381169083168114825260009061036c906014610d57565b90506000610384846001600160a01b03166014610d57565b83519091506103b65781816040516020016103a0929190611b3e565b60408051601f1981840301815291905260208401525b604080840192909252606083015280518082019091526005815264195c5d585b60da1b6020820152608082015292915050565b61041d6040518060a00160405280600015158152602001606081526020016060815260200160608152602001606081525090565b811580825261044557604051806060016040528060238152602001611f6a6023913960208201525b600182151514610472576040518060400160405280600581526020016466616c736560d81b815250610490565b604051806040016040528060048152602001637472756560e01b8152505b6040808301919091528051602080820183526000825260608401919091528151808301909252600782527f697346616c736500000000000000000000000000000000000000000000000000908201526080820152919050565b6104f1611537565b816104fa611537565b6105078160200151610f5f565b5060408051808201909152601e81527f53686f756c642072657475726e2074686520636f7272656374206c69737400006020820152815260008061054a84610fdb565b9150915080156105cb576105c56040518060a00160405280600015158152602001604051806060016040528060218152602001611faf60219139815260408051602081810183526000808352818501929092528251808201845282815283850152825180820190935290825260609092015285015190611058565b50610851565b6040805161016081018252600861012082019081527f546872696c6c65720000000000000000000000000000000000000000000000006101408084019190915290825282518084018452600d8082527f4261636b20696e20426c61636b0000000000000000000000000000000000000060208084019190915280850192909252845180860186529081527f54686520426f6479677561726400000000000000000000000000000000000000818301528385015283518085018552601981527f546865204461726b2053696465206f6620746865204d6f6f6e0000000000000081830152606084015283518085018552601f81527f546865697220477265617465737420486974732028313937312d31393735290081830152608084015283518085018552601081527f486f74656c2043616c69666f726e6961000000000000000000000000000000008183015260a084015283518085018552600c81527f436f6d65204f6e204f76657200000000000000000000000000000000000000008183015260c084015283518085018552600781527f52756d6f757273000000000000000000000000000000000000000000000000008183015260e084015283518085018552601481527f5361747572646179204e696768742046657665720000000000000000000000008183015261010084015283516009808252928101909452919260009290919082015b60608152602001906001900390816107d557905050905060005b81518110156108345782816009811061080a5761080a611bbf565b602002015182828151811061082157610821611bbf565b60209081029190910101526001016107ef565b5061084d610842858361085b565b602087015190611058565b5050505b5090949350505050565b61088f6040518060a00160405280600015158152602001606081526020016060815260200160608152602001606081525090565b816040516020016108a09190611bd5565b60405160208183030381529060405280519060200120836040516020016108c79190611bd5565b60408051601f19818403018152919052805160209091012014808252610920576108f0836110c8565b6108f9836110c8565b60405160200161090a929190611b3e565b60408051601f1981840301815291905260208201525b610929836110c8565b60408201526102ec826110c8565b61096b6040518060a00160405280600015158152602001606081526020016060815260200160608152602001606081525090565b8160405160200161097c9190611c39565b60405160208183030381529060405280519060200120836040516020016109a39190611c39565b60408051601f198184030181529190528051602090910120148082526109fc576109cc83611193565b6109d583611193565b6040516020016109e6929190611b3e565b60408051601f1981840301815291905260208201525b610a0583611193565b60408201526102ec82611193565b610a476040518060a00160405280600015158152602001606081526020016060815260200160608152602001606081525090565b811515808252610a7057604051806060016040528060228152602001611f8d6022913960208201525b600182151514610a9d576040518060400160405280600581526020016466616c736560d81b815250610abb565b604051806040016040528060048152602001637472756560e01b8152505b6040808301919091528051602080820183526000825260608401919091528151808301909252600682527f6973547275650000000000000000000000000000000000000000000000000000908201526080820152919050565b610b486040518060a00160405280600015158152602001606081526020016060815260200160608152602001606081525090565b6001600160a01b038381169083168114158252600090610b69906014610d57565b8251909150610b995780604051602001610b839190611c86565b60408051601f1981840301815291905260208301525b60408083019190915280516020808201835260008252606084019190915281518083019092526005825264195c5d585b60da1b90820152608082015292915050565b610c0f6040518060a00160405280600015158152602001606081526020016060815260200160608152602001606081525090565b81604051602001610c209190611cf1565b6040516020818303038152906040528051906020012083604051602001610c479190611cf1565b60408051601f19818403018152919052805160209091012014808252610ca057610c7083611265565b610c7983611265565b604051602001610c8a929190611b3e565b60408051601f1981840301815291905260208201525b610ca983611265565b60408201526102ec82611265565b60606000610cc48361132c565b600101905060008167ffffffffffffffff811115610ce457610ce461156b565b6040519080825280601f01601f191660200182016040528015610d0e576020820181803683370190505b5090508181016020015b600019017f3031323334353637383961626364656600000000000000000000000000000000600a86061a8153600a8504945084610d1857509392505050565b60606000610d66836002611d3f565b610d71906002611d56565b67ffffffffffffffff811115610d8957610d8961156b565b6040519080825280601f01601f191660200182016040528015610db3576020820181803683370190505b5090507f300000000000000000000000000000000000000000000000000000000000000081600081518110610dea57610dea611bbf565b60200101906001600160f81b031916908160001a9053507f780000000000000000000000000000000000000000000000000000000000000081600181518110610e3557610e35611bbf565b60200101906001600160f81b031916908160001a9053506000610e59846002611d3f565b610e64906001611d56565b90505b6001811115610ee9577f303132333435363738396162636465660000000000000000000000000000000085600f1660108110610ea557610ea5611bbf565b1a60f81b828281518110610ebb57610ebb611bbf565b60200101906001600160f81b031916908160001a90535060049490941c93610ee281611d69565b9050610e67565b508315610f56576040517f08c379a000000000000000000000000000000000000000000000000000000000815260206004820181905260248201527f537472696e67733a20686578206c656e67746820696e73756666696369656e74604482015260640160405180910390fd5b90505b92915050565b60408051808201825260608152600060208201528151600480825260a082019093529091816020015b610fbc6040518060a00160405280600015158152602001606081526020016060815260200160608152602001606081525090565b815260200190600190039081610f885750508252506000602082015290565b60606000826001600160a01b0316631cf0830b6040518163ffffffff1660e01b8152600401600060405180830381865afa92505050801561103e57506040513d6000823e601f3d908101601f1916820160405261103b9190810190611d80565b60015b61104e5750606092600192509050565b9360009350915050565b604080518082019091526060815260006020820152825151602084015103611086576110838361140e565b92505b8183600001518460200151815181106110a1576110a1611bbf565b60200260200101819052508260200180518091906110be90611e6d565b9052509192915050565b6040805180820190915260018152605b60f81b602082015260609060005b835181101561118c57600184516110fd9190611e86565b811015611146578184828151811061111757611117611bbf565b6020026020010151604051602001611130929190611e99565b6040516020818303038152906040529150611184565b8184828151811061115957611159611bbf565b6020026020010151604051602001611172929190611ef0565b60405160208183030381529060405291505b6001016110e6565b5092915050565b6040805180820190915260018152605b60f81b602082015260609060005b835181101561118c57600184516111c89190611e86565b81101561122457816111fd8583815181106111e5576111e5611bbf565b60200260200101516001600160a01b03166014610d57565b60405160200161120e929190611e99565b604051602081830303815290604052915061125d565b8161123a8583815181106111e5576111e5611bbf565b60405160200161124b929190611ef0565b60405160208183030381529060405291505b6001016111b1565b6040805180820190915260018152605b60f81b602082015260609060005b835181101561118c576001845161129a9190611e86565b8110156112eb57816112c48583815181106112b7576112b7611bbf565b6020026020010151610cb7565b6040516020016112d5929190611e99565b6040516020818303038152906040529150611324565b816113018583815181106112b7576112b7611bbf565b604051602001611312929190611ef0565b60405160208183030381529060405291505b600101611283565b6000807a184f03e93ff9f4daa797ed6e38ed64bf6a1f0100000000000000008310611375577a184f03e93ff9f4daa797ed6e38ed64bf6a1f010000000000000000830492506040015b6d04ee2d6d415b85acef810000000083106113a1576d04ee2d6d415b85acef8100000000830492506020015b662386f26fc1000083106113bf57662386f26fc10000830492506010015b6305f5e10083106113d7576305f5e100830492506008015b61271083106113eb57612710830492506004015b606483106113fd576064830492506002015b600a8310610f595760010192915050565b604080518082019091526060815260006020820152604080518082019091526060815260006020820152825151600290611449906003611d3f565b6114539190611f47565b67ffffffffffffffff81111561146b5761146b61156b565b6040519080825280602002602001820160405280156114d057816020015b6114bd6040518060a00160405280600015158152602001606081526020016060815260200160608152602001606081525090565b8152602001906001900390816114895790505b50815260005b8351518110156115255783518051829081106114f4576114f4611bbf565b60200260200101518260000151828151811061151257611512611bbf565b60209081029190910101526001016114d6565b50602092830151928101929092525090565b604051806040016040528060608152602001611566604051806040016040528060608152602001600081525090565b905290565b634e487b7160e01b600052604160045260246000fd5b604051601f8201601f1916810167ffffffffffffffff811182821017156115aa576115aa61156b565b604052919050565b600067ffffffffffffffff8211156115cc576115cc61156b565b50601f01601f191660200190565b600082601f8301126115eb57600080fd5b81356115fe6115f9826115b2565b611581565b81815284602083860101111561161357600080fd5b816020850160208301376000918101602001919091529392505050565b6000806040838503121561164357600080fd5b823567ffffffffffffffff8082111561165b57600080fd5b611667868387016115da565b9350602085013591508082111561167d57600080fd5b5061168a858286016115da565b9150509250929050565b60005b838110156116af578181015183820152602001611697565b50506000910152565b600081518084526116d0816020860160208601611694565b601f01601f19169290920160200192915050565b8051151582526000602082015160a0602085015261170560a08501826116b8565b90506040830151848203604086015261171e82826116b8565b9150506060830151848203606086015261173882826116b8565b9150506080830151848203608086015261175282826116b8565b95945050505050565b60208152600061176e60208301846116e4565b9392505050565b6000806040838503121561178857600080fd5b50508035926020909101359150565b80356001600160a01b03811681146117ae57600080fd5b919050565b600080604083850312156117c657600080fd5b6117cf83611797565b91506117dd60208401611797565b90509250929050565b6000602082840312156117f857600080fd5b81358015158114610f5657600080fd5b60006020828403121561181a57600080fd5b61176e82611797565b60006020808352835160408285015261183f60608501826116b8565b905081850151601f198583030160408601526040820181516040845281815180845260608601915060608160051b8701019350868301925060005b818110156118a857605f198786030183526118968585516116e4565b9450928701929187019160010161187a565b505050509083015191909201529392505050565b600067ffffffffffffffff8211156118d6576118d661156b565b5060051b60200190565b600082601f8301126118f157600080fd5b813560206119016115f9836118bc565b82815260059290921b8401810191818101908684111561192057600080fd5b8286015b8481101561196057803567ffffffffffffffff8111156119445760008081fd5b6119528986838b01016115da565b845250918301918301611924565b509695505050505050565b6000806040838503121561197e57600080fd5b823567ffffffffffffffff8082111561199657600080fd5b6119a2868387016118e0565b935060208501359150808211156119b857600080fd5b5061168a858286016118e0565b600082601f8301126119d657600080fd5b813560206119e66115f9836118bc565b8083825260208201915060208460051b870101935086841115611a0857600080fd5b602086015b8481101561196057611a1e81611797565b8352918301918301611a0d565b60008060408385031215611a3e57600080fd5b823567ffffffffffffffff80821115611a5657600080fd5b611a62868387016119c5565b93506020850135915080821115611a7857600080fd5b5061168a858286016119c5565b600082601f830112611a9657600080fd5b81356020611aa66115f9836118bc565b8083825260208201915060208460051b870101935086841115611ac857600080fd5b602086015b848110156119605780358352918301918301611acd565b60008060408385031215611af757600080fd5b823567ffffffffffffffff80821115611b0f57600080fd5b611b1b86838701611a85565b93506020850135915080821115611b3157600080fd5b5061168a85828601611a85565b7f417373657274696f6e4572726f723a2000000000000000000000000000000000815260008351611b76816010850160208801611694565b7f206973206e6f7420657175616c20746f200000000000000000000000000000006010918401918201528351611bb3816021840160208801611694565b01602101949350505050565b634e487b7160e01b600052603260045260246000fd5b600060208083016020845280855180835260408601915060408160051b87010192506020870160005b82811015611c2c57603f19888603018452611c1a8583516116b8565b94509285019290850190600101611bfe565b5092979650505050505050565b6020808252825182820181905260009190848201906040850190845b81811015611c7a5783516001600160a01b031683529284019291840191600101611c55565b50909695505050505050565b7f417373657274696f6e4572726f723a200000000000000000000000000000000081527f20426f74682076616c7565732061726500000000000000000000000000000000601082015260008251611ce4816020850160208701611694565b9190910160200192915050565b6020808252825182820181905260009190848201906040850190845b81811015611c7a57835183529284019291840191600101611d0d565b634e487b7160e01b600052601160045260246000fd5b8082028115828204841417610f5957610f59611d29565b80820180821115610f5957610f59611d29565b600081611d7857611d78611d29565b506000190190565b60006020808385031215611d9357600080fd5b825167ffffffffffffffff80821115611dab57600080fd5b818501915085601f830112611dbf57600080fd5b8151611dcd6115f9826118bc565b81815260059190911b83018401908481019088831115611dec57600080fd5b8585015b83811015611e6057805185811115611e085760008081fd5b8601603f81018b13611e1a5760008081fd5b878101516040611e2c6115f9836115b2565b8281528d82848601011115611e415760008081fd5b611e50838c8301848701611694565b8652505050918601918601611df0565b5098975050505050505050565b600060018201611e7f57611e7f611d29565b5060010190565b81810381811115610f5957610f59611d29565b60008351611eab818460208801611694565b835190830190611ebf818360208801611694565b7f2c200000000000000000000000000000000000000000000000000000000000009101908152600201949350505050565b60008351611f02818460208801611694565b835190830190611f16818360208801611694565b7f5d000000000000000000000000000000000000000000000000000000000000009101908152600101949350505050565b600082611f6457634e487b7160e01b600052601260045260246000fd5b50049056fe417373657274696f6e4572726f723a20726573756c74206973206e6f742066616c7365417373657274696f6e4572726f723a20726573756c74206973206e6f74207472756543616c6c20746f20676574417070726f7665645265636f726473206661696c6564a2646970667358221220de83ec3136060bd8e699424d64c6e360841002a6eec43f491abe1ac5d4918f5964736f6c6343000817003360806040523480156200001157600080fd5b50604051620026003803806200260083398101604081905262000034916200005a565b600080546001600160a01b0319166001600160a01b03929092169190911790556200008c565b6000602082840312156200006d57600080fd5b81516001600160a01b03811681146200008557600080fd5b9392505050565b612564806200009c6000396000f3fe608060405234801561001057600080fd5b50600436106100c95760003560e01c80634b64e4921161008157806374f130701161005b57806374f1307014610176578063d70968e714610189578063e7da4c7e1461019c57600080fd5b80634b64e4921461013057806360fb55d5146101505780636df864781461016357600080fd5b806331495d33116100b257806331495d331461010a578063410dbb8b1461011d57806346bdca9a146100ce57600080fd5b8063235266d2146100ce57806330191626146100f7575b600080fd5b6100e16100dc366004611b4c565b6101af565b6040516100ee9190611c77565b60405180910390f35b6100e1610105366004611c91565b61025e565b6100e1610118366004611ccf565b610318565b6100e161012b366004611d13565b6103e9565b61014361013e366004611d30565b6104e9565b6040516100ee9190611d4b565b6100e161015e366004611e93565b610cc9565b6100e1610171366004611f53565b610da5565b6100e1610184366004611d13565b610e81565b6100e1610197366004611ccf565b610f82565b6100e16101aa36600461200c565b611049565b6101e36040518060a00160405280600015158152602001606081526020016060815260200160608152602001606081525090565b815160208084019190912084519185019190912014808252610228578282604051602001610212929190612066565b60408051601f1981840301815291905260208201525b604080820193909352606081019190915281518083019092526005825264195c5d585b60da1b6020830152608081019190915290565b6102926040518060a00160405280600015158152602001606081526020016060815260200160608152602001606081525090565b8282148082526102d5576102a583611125565b6102ae83611125565b6040516020016102bf929190612066565b60408051601f1981840301815291905260208201525b6102de83611125565b60408201526102ec82611125565b6060820152604080518082019091526005815264195c5d585b60da1b6020820152608082015292915050565b61034c6040518060a00160405280600015158152602001606081526020016060815260200160608152602001606081525090565b6001600160a01b038381169083168114825260009061036c9060146111c5565b90506000610384846001600160a01b031660146111c5565b83519091506103b65781816040516020016103a0929190612066565b60408051601f1981840301815291905260208401525b604080840192909252606083015280518082019091526005815264195c5d585b60da1b6020820152608082015292915050565b61041d6040518060a00160405280600015158152602001606081526020016060815260200160608152602001606081525090565b8115808252610445576040518060600160405280602381526020016124c26023913960208201525b600182151514610472576040518060400160405280600581526020016466616c736560d81b815250610490565b604051806040016040528060048152602001637472756560e01b8152505b6040808301919091528051602080820183526000825260608401919091528151808301909252600782527f697346616c736500000000000000000000000000000000000000000000000000908201526080820152919050565b6104f1611a53565b816104fa611a53565b61050781602001516113cd565b50604051806060016040528060288152602001612507602891398160000181905250816001600160a01b031663837f88786040518163ffffffff1660e01b8152600401600060405180830381600087803b15801561056457600080fd5b505af1158015610578573d6000803e3d6000fd5b50506000546040517f0694806b0000000000000000000000000000000000000000000000000000000081526001600160a01b0386811660048301529091169250630694806b9150602401600060405180830381600087803b1580156105dc57600080fd5b505af11580156105f0573d6000803e3d6000fd5b50505050600061062083604051806040016040528060088152602001672a343934b63632b960c11b815250611449565b905080156106b2576040805160a081018252600080825282518084018452601881527f43616c6c20746f206164645265636f7264206661696c6564000000000000000060208281019190915280840191909152835180820185528281528385015283518082018552828152606084015283518082019094529083526080820192909252908301516106b0916114d0565b505b6106e1836040518060400160405280600d81526020016c4261636b20696e20426c61636b60981b815250611449565b90508015610773576040805160a081018252600080825282518084018452601881527f43616c6c20746f206164645265636f7264206661696c656400000000000000006020828101919091528084019190915283518082018552828152838501528351808201855282815260608401528351808201909452908352608082019290925290830151610771916114d0565b505b6000806107808530611540565b915091508015610818576040805160a081018252600080825282518084018452601f81527f43616c6c20746f20676574557365724661766f7269746573206661696c6564006020828101919091528084019190915283518082018552828152838501528351808201855282815260608401528351808201909452908352608082019290925290850151610812916114d0565b506108e5565b60408051600280825260608201909252600091816020015b6060815260200190600190039081610830579050509050604051806040016040528060088152602001672a343934b63632b960c11b8152508160008151811061087b5761087b6120e7565b60200260200101819052506040518060400160405280600d81526020016c4261636b20696e20426c61636b60981b815250816001815181106108bf576108bf6120e7565b60200260200101819052506108e26108d78483610cc9565b6020870151906114d0565b50505b6000546040805163caa445b160e01b81526001600160a01b0388811660048301526024820192909252600760448201526652756d6f75727360c81b606482015291169063caa445b1906084016020604051808303816000875af1158015610950573d6000803e3d6000fd5b505050506040513d601f19601f8201168201806040525081019061097491906120fd565b92508215610a06576040805160a081018252600080825282518084018452601881527f43616c6c20746f206164645265636f7264206661696c656400000000000000006020828101919091528084019190915283518082018552828152838501528351808201855282815260608401528351808201909452908352608082019290925290850151610a04916114d0565b505b6000546040805163caa445b160e01b81526001600160a01b0388811660048301526024820192909252601460448201527f5361747572646179204e69676874204665766572000000000000000000000000606482015291169063caa445b1906084016020604051808303816000875af1158015610a87573d6000803e3d6000fd5b505050506040513d601f19601f82011682018060405250810190610aab91906120fd565b92508215610b3d576040805160a081018252600080825282518084018452601881527f43616c6c20746f206164645265636f7264206661696c656400000000000000006020828101919091528084019190915283518082018552828152838501528351808201855282815260608401528351808201909452908352608082019290925290850151610b3b916114d0565b505b600054610b549086906001600160a01b0316611540565b90925090508015610bed576040805160a081018252600080825282518084018452601f81527f43616c6c20746f20676574557365724661766f7269746573206661696c6564006020828101919091528084019190915283518082018552828152838501528351808201855282815260608401528351808201909452908352608082019290925290850151610be7916114d0565b50610cbe565b60408051600280825260608201909252600091816020015b6060815260200190600190039081610c055790505090506040518060400160405280600781526020016652756d6f75727360c81b81525081600081518110610c4f57610c4f6120e7565b60200260200101819052506040518060400160405280601481526020017f5361747572646179204e6967687420466576657200000000000000000000000081525081600181518110610ca357610ca36120e7565b6020026020010181905250610cbb6108d78483610cc9565b50505b509195945050505050565b610cfd6040518060a00160405280600015158152602001606081526020016060815260200160608152602001606081525090565b81604051602001610d0e919061211a565b6040516020818303038152906040528051906020012083604051602001610d35919061211a565b60408051601f19818403018152919052805160209091012014808252610d8e57610d5e836115e4565b610d67836115e4565b604051602001610d78929190612066565b60408051601f1981840301815291905260208201525b610d97836115e4565b60408201526102ec826115e4565b610dd96040518060a00160405280600015158152602001606081526020016060815260200160608152602001606081525090565b81604051602001610dea919061217e565b6040516020818303038152906040528051906020012083604051602001610e11919061217e565b60408051601f19818403018152919052805160209091012014808252610e6a57610e3a836116af565b610e43836116af565b604051602001610e54929190612066565b60408051601f1981840301815291905260208201525b610e73836116af565b60408201526102ec826116af565b610eb56040518060a00160405280600015158152602001606081526020016060815260200160608152602001606081525090565b811515808252610ede576040518060600160405280602281526020016124e56022913960208201525b600182151514610f0b576040518060400160405280600581526020016466616c736560d81b815250610f29565b604051806040016040528060048152602001637472756560e01b8152505b6040808301919091528051602080820183526000825260608401919091528151808301909252600682527f6973547275650000000000000000000000000000000000000000000000000000908201526080820152919050565b610fb66040518060a00160405280600015158152602001606081526020016060815260200160608152602001606081525090565b6001600160a01b038381169083168114158252600090610fd79060146111c5565b82519091506110075780604051602001610ff191906121cb565b60408051601f1981840301815291905260208301525b60408083019190915280516020808201835260008252606084019190915281518083019092526005825264195c5d585b60da1b90820152608082015292915050565b61107d6040518060a00160405280600015158152602001606081526020016060815260200160608152602001606081525090565b8160405160200161108e9190612236565b60405160208183030381529060405280519060200120836040516020016110b59190612236565b60408051601f1981840301815291905280516020909101201480825261110e576110de83611781565b6110e783611781565b6040516020016110f8929190612066565b60408051601f1981840301815291905260208201525b61111783611781565b60408201526102ec82611781565b6060600061113283611848565b600101905060008167ffffffffffffffff81111561115257611152611a87565b6040519080825280601f01601f19166020018201604052801561117c576020820181803683370190505b5090508181016020015b600019017f3031323334353637383961626364656600000000000000000000000000000000600a86061a8153600a850494508461118657509392505050565b606060006111d4836002612284565b6111df90600261229b565b67ffffffffffffffff8111156111f7576111f7611a87565b6040519080825280601f01601f191660200182016040528015611221576020820181803683370190505b5090507f300000000000000000000000000000000000000000000000000000000000000081600081518110611258576112586120e7565b60200101906001600160f81b031916908160001a9053507f7800000000000000000000000000000000000000000000000000000000000000816001815181106112a3576112a36120e7565b60200101906001600160f81b031916908160001a90535060006112c7846002612284565b6112d290600161229b565b90505b6001811115611357577f303132333435363738396162636465660000000000000000000000000000000085600f1660108110611313576113136120e7565b1a60f81b828281518110611329576113296120e7565b60200101906001600160f81b031916908160001a90535060049490941c93611350816122ae565b90506112d5565b5083156113c4576040517f08c379a000000000000000000000000000000000000000000000000000000000815260206004820181905260248201527f537472696e67733a20686578206c656e67746820696e73756666696369656e74604482015260640160405180910390fd5b90505b92915050565b60408051808201825260608152600060208201528151600480825260a082019093529091816020015b61142a6040518060a00160405280600015158152602001606081526020016060815260200160608152602001606081525090565b8152602001906001900390816113f65750508252506000602082015290565b6040517fd81aa8c40000000000000000000000000000000000000000000000000000000081526000906001600160a01b0384169063d81aa8c4906114919085906004016122c5565b600060405180830381600087803b1580156114ab57600080fd5b505af19250505080156114bc575060015b6114c8575060016113c7565b5060006113c7565b6040805180820190915260608152600060208201528251516020840151036114fe576114fb8361192a565b92505b818360000151846020015181518110611519576115196120e7565b6020026020010181905250826020018051809190611536906122d8565b9052509192915050565b6040517fc78531480000000000000000000000000000000000000000000000000000000081526001600160a01b03828116600483015260609160009185169063c785314890602401600060405180830381865afa9250505080156115c657506040513d6000823e601f3d908101601f191682016040526115c391908101906122f1565b60015b6115d657506060905060016115dd565b9150600090505b9250929050565b6040805180820190915260018152605b60f81b602082015260609060005b83518110156116a8576001845161161991906123de565b8110156116625781848281518110611633576116336120e7565b602002602001015160405160200161164c9291906123f1565b60405160208183030381529060405291506116a0565b81848281518110611675576116756120e7565b602002602001015160405160200161168e929190612448565b60405160208183030381529060405291505b600101611602565b5092915050565b6040805180820190915260018152605b60f81b602082015260609060005b83518110156116a857600184516116e491906123de565b8110156117405781611719858381518110611701576117016120e7565b60200260200101516001600160a01b031660146111c5565b60405160200161172a9291906123f1565b6040516020818303038152906040529150611779565b81611756858381518110611701576117016120e7565b604051602001611767929190612448565b60405160208183030381529060405291505b6001016116cd565b6040805180820190915260018152605b60f81b602082015260609060005b83518110156116a857600184516117b691906123de565b81101561180757816117e08583815181106117d3576117d36120e7565b6020026020010151611125565b6040516020016117f19291906123f1565b6040516020818303038152906040529150611840565b8161181d8583815181106117d3576117d36120e7565b60405160200161182e929190612448565b60405160208183030381529060405291505b60010161179f565b6000807a184f03e93ff9f4daa797ed6e38ed64bf6a1f0100000000000000008310611891577a184f03e93ff9f4daa797ed6e38ed64bf6a1f010000000000000000830492506040015b6d04ee2d6d415b85acef810000000083106118bd576d04ee2d6d415b85acef8100000000830492506020015b662386f26fc1000083106118db57662386f26fc10000830492506010015b6305f5e10083106118f3576305f5e100830492506008015b612710831061190757612710830492506004015b60648310611919576064830492506002015b600a83106113c75760010192915050565b604080518082019091526060815260006020820152604080518082019091526060815260006020820152825151600290611965906003612284565b61196f919061249f565b67ffffffffffffffff81111561198757611987611a87565b6040519080825280602002602001820160405280156119ec57816020015b6119d96040518060a00160405280600015158152602001606081526020016060815260200160608152602001606081525090565b8152602001906001900390816119a55790505b50815260005b835151811015611a41578351805182908110611a1057611a106120e7565b602002602001015182600001518281518110611a2e57611a2e6120e7565b60209081029190910101526001016119f2565b50602092830151928101929092525090565b604051806040016040528060608152602001611a82604051806040016040528060608152602001600081525090565b905290565b634e487b7160e01b600052604160045260246000fd5b604051601f8201601f1916810167ffffffffffffffff81118282101715611ac657611ac6611a87565b604052919050565b600067ffffffffffffffff821115611ae857611ae8611a87565b50601f01601f191660200190565b600082601f830112611b0757600080fd5b8135611b1a611b1582611ace565b611a9d565b818152846020838601011115611b2f57600080fd5b816020850160208301376000918101602001919091529392505050565b60008060408385031215611b5f57600080fd5b823567ffffffffffffffff80821115611b7757600080fd5b611b8386838701611af6565b93506020850135915080821115611b9957600080fd5b50611ba685828601611af6565b9150509250929050565b60005b83811015611bcb578181015183820152602001611bb3565b50506000910152565b60008151808452611bec816020860160208601611bb0565b601f01601f19169290920160200192915050565b8051151582526000602082015160a06020850152611c2160a0850182611bd4565b905060408301518482036040860152611c3a8282611bd4565b91505060608301518482036060860152611c548282611bd4565b91505060808301518482036080860152611c6e8282611bd4565b95945050505050565b602081526000611c8a6020830184611c00565b9392505050565b60008060408385031215611ca457600080fd5b50508035926020909101359150565b80356001600160a01b0381168114611cca57600080fd5b919050565b60008060408385031215611ce257600080fd5b611ceb83611cb3565b9150611cf960208401611cb3565b90509250929050565b8015158114611d1057600080fd5b50565b600060208284031215611d2557600080fd5b81356113c481611d02565b600060208284031215611d4257600080fd5b611c8a82611cb3565b600060208083528351604082850152611d676060850182611bd4565b905081850151601f198583030160408601526040820181516040845281815180845260608601915060608160051b8701019350868301925060005b81811015611dd057605f19878603018352611dbe858551611c00565b94509287019291870191600101611da2565b505050509083015191909201529392505050565b600067ffffffffffffffff821115611dfe57611dfe611a87565b5060051b60200190565b600082601f830112611e1957600080fd5b81356020611e29611b1583611de4565b82815260059290921b84018101918181019086841115611e4857600080fd5b8286015b84811015611e8857803567ffffffffffffffff811115611e6c5760008081fd5b611e7a8986838b0101611af6565b845250918301918301611e4c565b509695505050505050565b60008060408385031215611ea657600080fd5b823567ffffffffffffffff80821115611ebe57600080fd5b611eca86838701611e08565b93506020850135915080821115611ee057600080fd5b50611ba685828601611e08565b600082601f830112611efe57600080fd5b81356020611f0e611b1583611de4565b8083825260208201915060208460051b870101935086841115611f3057600080fd5b602086015b84811015611e8857611f4681611cb3565b8352918301918301611f35565b60008060408385031215611f6657600080fd5b823567ffffffffffffffff80821115611f7e57600080fd5b611f8a86838701611eed565b93506020850135915080821115611fa057600080fd5b50611ba685828601611eed565b600082601f830112611fbe57600080fd5b81356020611fce611b1583611de4565b8083825260208201915060208460051b870101935086841115611ff057600080fd5b602086015b84811015611e885780358352918301918301611ff5565b6000806040838503121561201f57600080fd5b823567ffffffffffffffff8082111561203757600080fd5b61204386838701611fad565b9350602085013591508082111561205957600080fd5b50611ba685828601611fad565b7f417373657274696f6e4572726f723a200000000000000000000000000000000081526000835161209e816010850160208801611bb0565b7f206973206e6f7420657175616c20746f2000000000000000000000000000000060109184019182015283516120db816021840160208801611bb0565b01602101949350505050565b634e487b7160e01b600052603260045260246000fd5b60006020828403121561210f57600080fd5b81516113c481611d02565b600060208083016020845280855180835260408601915060408160051b87010192506020870160005b8281101561217157603f1988860301845261215f858351611bd4565b94509285019290850190600101612143565b5092979650505050505050565b6020808252825182820181905260009190848201906040850190845b818110156121bf5783516001600160a01b03168352928401929184019160010161219a565b50909695505050505050565b7f417373657274696f6e4572726f723a200000000000000000000000000000000081527f20426f74682076616c7565732061726500000000000000000000000000000000601082015260008251612229816020850160208701611bb0565b9190910160200192915050565b6020808252825182820181905260009190848201906040850190845b818110156121bf57835183529284019291840191600101612252565b634e487b7160e01b600052601160045260246000fd5b80820281158282048414176113c7576113c761226e565b808201808211156113c7576113c761226e565b6000816122bd576122bd61226e565b506000190190565b602081526000611c8a6020830184611bd4565b6000600182016122ea576122ea61226e565b5060010190565b6000602080838503121561230457600080fd5b825167ffffffffffffffff8082111561231c57600080fd5b818501915085601f83011261233057600080fd5b815161233e611b1582611de4565b81815260059190911b8301840190848101908883111561235d57600080fd5b8585015b838110156123d1578051858111156123795760008081fd5b8601603f81018b1361238b5760008081fd5b87810151604061239d611b1583611ace565b8281528d828486010111156123b25760008081fd5b6123c1838c8301848701611bb0565b8652505050918601918601612361565b5098975050505050505050565b818103818111156113c7576113c761226e565b60008351612403818460208801611bb0565b835190830190612417818360208801611bb0565b7f2c200000000000000000000000000000000000000000000000000000000000009101908152600201949350505050565b6000835161245a818460208801611bb0565b83519083019061246e818360208801611bb0565b7f5d000000000000000000000000000000000000000000000000000000000000009101908152600101949350505050565b6000826124bc57634e487b7160e01b600052601260045260246000fd5b50049056fe417373657274696f6e4572726f723a20726573756c74206973206e6f742066616c7365417373657274696f6e4572726f723a20726573756c74206973206e6f74207472756553686f756c64207361766520616e642062652061626c6520746f20676574206661766f7269746573a2646970667358221220faa38d08175580de029bcb5ced81a022ff339058a62711889f3d20dbe0aa93f964736f6c63430008170033",
  "devdoc": {
    "events": {
      "Approval(address,address,uint256)": {
        "details": "Emitted when `owner` enables `approved` to manage the `tokenId` token."
      },
      "ApprovalForAll(address,address,bool)": {
        "details": "Emitted when `owner` enables or disables (`approved`) `operator` to manage all of its assets."
      },
      "Transfer(address,address,uint256)": {
        "details": "Emitted when `tokenId` token is transferred from `from` to `to`."
      }
    },
    "kind": "dev",
    "methods": {
      "approve(address,uint256)": {
        "details": "See {IERC721-approve}."
      },
      "balanceOf(address)": {
        "details": "See {IERC721-balanceOf}."
      },
      "getApproved(uint256)": {
        "details": "See {IERC721-getApproved}."
      },
      "isApprovedForAll(address,address)": {
        "details": "See {IERC721-isApprovedForAll}."
      },
      "name()": {
        "details": "See {IERC721Metadata-name}."
      },
      "owner()": {
        "details": "Returns the address of the current owner."
      },
      "ownerOf(uint256)": {
        "details": "See {IERC721-ownerOf}."
      },
      "renounceOwnership()": {
        "details": "Leaves the contract without owner. It will not be possible to call `onlyOwner` functions. Can only be called by the current owner. NOTE: Renouncing ownership will leave the contract without an owner, thereby disabling any functionality that is only available to the owner."
      },
      "safeTransferFrom(address,address,uint256)": {
        "details": "See {IERC721-safeTransferFrom}."
      },
      "safeTransferFrom(address,address,uint256,bytes)": {
        "details": "See {IERC721-safeTransferFrom}."
      },
      "setApprovalForAll(address,bool)": {
        "details": "See {IERC721-setApprovalForAll}."
      },
      "supportsInterface(bytes4)": {
        "details": "See {IERC165-supportsInterface}."
      },
      "symbol()": {
        "details": "See {IERC721Metadata-symbol}."
      },
      "transferFrom(address,address,uint256)": {
        "details": "See {IERC721-transferFrom}."
      },
      "transferOwnership(address)": {
        "details": "Transfers ownership of the contract to a new account (`newOwner`). Can only be called by the current owner."
      }
    },
    "version": 1
  },
  "userdoc": {
    "kind": "user",
    "methods": {
      "checkIfAllPassed((string,((bool,string,string,string,string)[],uint256))[])": {
        "notice": "Check each assert in each test to see if any failed. Note:  The check is here instead of setting a `passed` bool in `TestResult` to reduce the amount of code in each unit test."
      }
    },
    "version": 1
  },
  "storageLayout": {
    "storage": [
      {
        "astId": 893,
        "contract": "contracts/MappingsUT.sol:MappingsUT",
        "label": "_name",
        "offset": 0,
        "slot": "0",
        "type": "t_string_storage"
      },
      {
        "astId": 895,
        "contract": "contracts/MappingsUT.sol:MappingsUT",
        "label": "_symbol",
        "offset": 0,
        "slot": "1",
        "type": "t_string_storage"
      },
      {
        "astId": 899,
        "contract": "contracts/MappingsUT.sol:MappingsUT",
        "label": "_owners",
        "offset": 0,
        "slot": "2",
        "type": "t_mapping(t_uint256,t_address)"
      },
      {
        "astId": 903,
        "contract": "contracts/MappingsUT.sol:MappingsUT",
        "label": "_balances",
        "offset": 0,
        "slot": "3",
        "type": "t_mapping(t_address,t_uint256)"
      },
      {
        "astId": 907,
        "contract": "contracts/MappingsUT.sol:MappingsUT",
        "label": "_tokenApprovals",
        "offset": 0,
        "slot": "4",
        "type": "t_mapping(t_uint256,t_address)"
      },
      {
        "astId": 913,
        "contract": "contracts/MappingsUT.sol:MappingsUT",
        "label": "_operatorApprovals",
        "offset": 0,
        "slot": "5",
        "type": "t_mapping(t_address,t_mapping(t_address,t_bool))"
      },
      {
        "astId": 7,
        "contract": "contracts/MappingsUT.sol:MappingsUT",
        "label": "_owner",
        "offset": 0,
        "slot": "6",
        "type": "t_address"
      },
      {
        "astId": 123,
        "contract": "contracts/MappingsUT.sol:MappingsUT",
        "label": "_status",
        "offset": 0,
        "slot": "7",
        "type": "t_uint256"
      },
      {
        "astId": 6686,
        "contract": "contracts/MappingsUT.sol:MappingsUT",
        "label": "tokenIds",
        "offset": 0,
        "slot": "8",
        "type": "t_struct(Counter)2321_storage"
      },
      {
        "astId": 6690,
        "contract": "contracts/MappingsUT.sol:MappingsUT",
        "label": "owners",
        "offset": 0,
        "slot": "9",
        "type": "t_mapping(t_address,t_bool)"
      },
      {
        "astId": 6694,
        "contract": "contracts/MappingsUT.sol:MappingsUT",
        "label": "submittedContracts",
        "offset": 0,
        "slot": "10",
        "type": "t_mapping(t_address,t_bool)"
      },
      {
        "astId": 6697,
        "contract": "contracts/MappingsUT.sol:MappingsUT",
        "label": "active",
        "offset": 0,
        "slot": "11",
        "type": "t_bool"
      },
      {
        "astId": 6700,
        "contract": "contracts/MappingsUT.sol:MappingsUT",
        "label": "AllTokenURI",
        "offset": 0,
        "slot": "12",
        "type": "t_string_storage"
      },
      {
        "astId": 6720,
        "contract": "contracts/MappingsUT.sol:MappingsUT",
        "label": "tests",
        "offset": 0,
        "slot": "13",
        "type": "t_array(t_contract(ITest)6656)dyn_storage"
      },
      {
        "astId": 6724,
        "contract": "contracts/MappingsUT.sol:MappingsUT",
        "label": "deployer",
        "offset": 0,
        "slot": "14",
        "type": "t_contract(IDeploy)6667"
      }
    ],
    "types": {
      "t_address": {
        "encoding": "inplace",
        "label": "address",
        "numberOfBytes": "20"
      },
      "t_array(t_contract(ITest)6656)dyn_storage": {
        "base": "t_contract(ITest)6656",
        "encoding": "dynamic_array",
        "label": "contract ITest[]",
        "numberOfBytes": "32"
      },
      "t_bool": {
        "encoding": "inplace",
        "label": "bool",
        "numberOfBytes": "1"
      },
      "t_contract(IDeploy)6667": {
        "encoding": "inplace",
        "label": "contract IDeploy",
        "numberOfBytes": "20"
      },
      "t_contract(ITest)6656": {
        "encoding": "inplace",
        "label": "contract ITest",
        "numberOfBytes": "20"
      },
      "t_mapping(t_address,t_bool)": {
        "encoding": "mapping",
        "key": "t_address",
        "label": "mapping(address => bool)",
        "numberOfBytes": "32",
        "value": "t_bool"
      },
      "t_mapping(t_address,t_mapping(t_address,t_bool))": {
        "encoding": "mapping",
        "key": "t_address",
        "label": "mapping(address => mapping(address => bool))",
        "numberOfBytes": "32",
        "value": "t_mapping(t_address,t_bool)"
      },
      "t_mapping(t_address,t_uint256)": {
        "encoding": "mapping",
        "key": "t_address",
        "label": "mapping(address => uint256)",
        "numberOfBytes": "32",
        "value": "t_uint256"
      },
      "t_mapping(t_uint256,t_address)": {
        "encoding": "mapping",
        "key": "t_uint256",
        "label": "mapping(uint256 => address)",
        "numberOfBytes": "32",
        "value": "t_address"
      },
      "t_string_storage": {
        "encoding": "bytes",
        "label": "string",
        "numberOfBytes": "32"
      },
      "t_struct(Counter)2321_storage": {
        "encoding": "inplace",
        "label": "struct Counters.Counter",
        "members": [
          {
            "astId": 2320,
            "contract": "contracts/MappingsUT.sol:MappingsUT",
            "label": "_value",
            "offset": 0,
            "slot": "0",
            "type": "t_uint256"
          }
        ],
        "numberOfBytes": "32"
      },
      "t_uint256": {
        "encoding": "inplace",
        "label": "uint256",
        "numberOfBytes": "32"
      }
    }
  }
}