{
  "address": "0x10Ce928030E136EcC74d4a4416Db9b533e3c694D",
  "abi": [
    {
      "inputs": [
        {
          "internalType": "address",
          "name": "_secondCallerAddress",
          "type": "address"
        }
      ],
      "stateMutability": "nonpayable",
      "type": "constructor"
    },
    {
      "inputs": [],
      "name": "NotActive",
      "type": "error"
    },
    {
      "inputs": [],
      "name": "SoulboundToken",
      "type": "error"
    },
    {
      "anonymous": false,
      "inputs": [
        {
          "indexed": true,
          "internalType": "address",
          "name": "owner",
          "type": "address"
        },
        {
          "indexed": true,
          "internalType": "address",
          "name": "approved",
          "type": "address"
        },
        {
          "indexed": true,
          "internalType": "uint256",
          "name": "tokenId",
          "type": "uint256"
        }
      ],
      "name": "Approval",
      "type": "event"
    },
    {
      "anonymous": false,
      "inputs": [
        {
          "indexed": true,
          "internalType": "address",
          "name": "owner",
          "type": "address"
        },
        {
          "indexed": true,
          "internalType": "address",
          "name": "operator",
          "type": "address"
        },
        {
          "indexed": false,
          "internalType": "bool",
          "name": "approved",
          "type": "bool"
        }
      ],
      "name": "ApprovalForAll",
      "type": "event"
    },
    {
      "anonymous": false,
      "inputs": [
        {
          "indexed": true,
          "internalType": "address",
          "name": "previousOwner",
          "type": "address"
        },
        {
          "indexed": true,
          "internalType": "address",
          "name": "newOwner",
          "type": "address"
        }
      ],
      "name": "OwnershipTransferred",
      "type": "event"
    },
    {
      "anonymous": false,
      "inputs": [
        {
          "indexed": false,
          "internalType": "address",
          "name": "submission",
          "type": "address"
        },
        {
          "indexed": false,
          "internalType": "bool",
          "name": "passed",
          "type": "bool"
        },
        {
          "components": [
            {
              "internalType": "string",
              "name": "message",
              "type": "string"
            },
            {
              "components": [
                {
                  "components": [
                    {
                      "internalType": "bool",
                      "name": "passed",
                      "type": "bool"
                    },
                    {
                      "internalType": "string",
                      "name": "assertionError",
                      "type": "string"
                    },
                    {
                      "internalType": "string",
                      "name": "returnedAsString",
                      "type": "string"
                    },
                    {
                      "internalType": "string",
                      "name": "expectedAsString",
                      "type": "string"
                    },
                    {
                      "internalType": "string",
                      "name": "methodName",
                      "type": "string"
                    }
                  ],
                  "internalType": "struct Assert.AssertResult[]",
                  "name": "elements",
                  "type": "tuple[]"
                },
                {
                  "internalType": "uint256",
                  "name": "num",
                  "type": "uint256"
                }
              ],
              "internalType": "struct List.ARList",
              "name": "assertResults",
              "type": "tuple"
            }
          ],
          "indexed": false,
          "internalType": "struct Cafe.TestResult[]",
          "name": "testResults",
          "type": "tuple[]"
        }
      ],
      "name": "TestSuiteResult",
      "type": "event"
    },
    {
      "anonymous": false,
      "inputs": [
        {
          "indexed": true,
          "internalType": "address",
          "name": "from",
          "type": "address"
        },
        {
          "indexed": true,
          "internalType": "address",
          "name": "to",
          "type": "address"
        },
        {
          "indexed": true,
          "internalType": "uint256",
          "name": "tokenId",
          "type": "uint256"
        }
      ],
      "name": "Transfer",
      "type": "event"
    },
    {
      "inputs": [
        {
          "internalType": "address",
          "name": "to",
          "type": "address"
        },
        {
          "internalType": "uint256",
          "name": "tokenId",
          "type": "uint256"
        }
      ],
      "name": "approve",
      "outputs": [],
      "stateMutability": "nonpayable",
      "type": "function"
    },
    {
      "inputs": [
        {
          "internalType": "address",
          "name": "owner",
          "type": "address"
        }
      ],
      "name": "balanceOf",
      "outputs": [
        {
          "internalType": "uint256",
          "name": "",
          "type": "uint256"
        }
      ],
      "stateMutability": "view",
      "type": "function"
    },
    {
      "inputs": [
        {
          "components": [
            {
              "internalType": "string",
              "name": "message",
              "type": "string"
            },
            {
              "components": [
                {
                  "components": [
                    {
                      "internalType": "bool",
                      "name": "passed",
                      "type": "bool"
                    },
                    {
                      "internalType": "string",
                      "name": "assertionError",
                      "type": "string"
                    },
                    {
                      "internalType": "string",
                      "name": "returnedAsString",
                      "type": "string"
                    },
                    {
                      "internalType": "string",
                      "name": "expectedAsString",
                      "type": "string"
                    },
                    {
                      "internalType": "string",
                      "name": "methodName",
                      "type": "string"
                    }
                  ],
                  "internalType": "struct Assert.AssertResult[]",
                  "name": "elements",
                  "type": "tuple[]"
                },
                {
                  "internalType": "uint256",
                  "name": "num",
                  "type": "uint256"
                }
              ],
              "internalType": "struct List.ARList",
              "name": "assertResults",
              "type": "tuple"
            }
          ],
          "internalType": "struct Cafe.TestResult[]",
          "name": "_testResults",
          "type": "tuple[]"
        }
      ],
      "name": "checkIfAllPassed",
      "outputs": [
        {
          "internalType": "bool",
          "name": "",
          "type": "bool"
        }
      ],
      "stateMutability": "pure",
      "type": "function"
    },
    {
      "inputs": [
        {
          "internalType": "bytes",
          "name": "a",
          "type": "bytes"
        },
        {
          "internalType": "bytes",
          "name": "b",
          "type": "bytes"
        }
      ],
      "name": "equal",
      "outputs": [
        {
          "components": [
            {
              "internalType": "bool",
              "name": "passed",
              "type": "bool"
            },
            {
              "internalType": "string",
              "name": "assertionError",
              "type": "string"
            },
            {
              "internalType": "string",
              "name": "returnedAsString",
              "type": "string"
            },
            {
              "internalType": "string",
              "name": "expectedAsString",
              "type": "string"
            },
            {
              "internalType": "string",
              "name": "methodName",
              "type": "string"
            }
          ],
          "internalType": "struct Assert.AssertResult",
          "name": "result",
          "type": "tuple"
        }
      ],
      "stateMutability": "pure",
      "type": "function"
    },
    {
      "inputs": [
        {
          "internalType": "uint256",
          "name": "a",
          "type": "uint256"
        },
        {
          "internalType": "uint256",
          "name": "b",
          "type": "uint256"
        }
      ],
      "name": "equal",
      "outputs": [
        {
          "components": [
            {
              "internalType": "bool",
              "name": "passed",
              "type": "bool"
            },
            {
              "internalType": "string",
              "name": "assertionError",
              "type": "string"
            },
            {
              "internalType": "string",
              "name": "returnedAsString",
              "type": "string"
            },
            {
              "internalType": "string",
              "name": "expectedAsString",
              "type": "string"
            },
            {
              "internalType": "string",
              "name": "methodName",
              "type": "string"
            }
          ],
          "internalType": "struct Assert.AssertResult",
          "name": "result",
          "type": "tuple"
        }
      ],
      "stateMutability": "pure",
      "type": "function"
    },
    {
      "inputs": [
        {
          "internalType": "address",
          "name": "a",
          "type": "address"
        },
        {
          "internalType": "address",
          "name": "b",
          "type": "address"
        }
      ],
      "name": "equal",
      "outputs": [
        {
          "components": [
            {
              "internalType": "bool",
              "name": "passed",
              "type": "bool"
            },
            {
              "internalType": "string",
              "name": "assertionError",
              "type": "string"
            },
            {
              "internalType": "string",
              "name": "returnedAsString",
              "type": "string"
            },
            {
              "internalType": "string",
              "name": "expectedAsString",
              "type": "string"
            },
            {
              "internalType": "string",
              "name": "methodName",
              "type": "string"
            }
          ],
          "internalType": "struct Assert.AssertResult",
          "name": "result",
          "type": "tuple"
        }
      ],
      "stateMutability": "pure",
      "type": "function"
    },
    {
      "inputs": [
        {
          "internalType": "string",
          "name": "a",
          "type": "string"
        },
        {
          "internalType": "string",
          "name": "b",
          "type": "string"
        }
      ],
      "name": "equal",
      "outputs": [
        {
          "components": [
            {
              "internalType": "bool",
              "name": "passed",
              "type": "bool"
            },
            {
              "internalType": "string",
              "name": "assertionError",
              "type": "string"
            },
            {
              "internalType": "string",
              "name": "returnedAsString",
              "type": "string"
            },
            {
              "internalType": "string",
              "name": "expectedAsString",
              "type": "string"
            },
            {
              "internalType": "string",
              "name": "methodName",
              "type": "string"
            }
          ],
          "internalType": "struct Assert.AssertResult",
          "name": "result",
          "type": "tuple"
        }
      ],
      "stateMutability": "pure",
      "type": "function"
    },
    {
      "inputs": [
        {
          "internalType": "string[]",
          "name": "a",
          "type": "string[]"
        },
        {
          "internalType": "string[]",
          "name": "b",
          "type": "string[]"
        }
      ],
      "name": "equal",
      "outputs": [
        {
          "components": [
            {
              "internalType": "bool",
              "name": "passed",
              "type": "bool"
            },
            {
              "internalType": "string",
              "name": "assertionError",
              "type": "string"
            },
            {
              "internalType": "string",
              "name": "returnedAsString",
              "type": "string"
            },
            {
              "internalType": "string",
              "name": "expectedAsString",
              "type": "string"
            },
            {
              "internalType": "string",
              "name": "methodName",
              "type": "string"
            }
          ],
          "internalType": "struct Assert.AssertResult",
          "name": "result",
          "type": "tuple"
        }
      ],
      "stateMutability": "pure",
      "type": "function"
    },
    {
      "inputs": [
        {
          "internalType": "address[]",
          "name": "a",
          "type": "address[]"
        },
        {
          "internalType": "address[]",
          "name": "b",
          "type": "address[]"
        }
      ],
      "name": "equal",
      "outputs": [
        {
          "components": [
            {
              "internalType": "bool",
              "name": "passed",
              "type": "bool"
            },
            {
              "internalType": "string",
              "name": "assertionError",
              "type": "string"
            },
            {
              "internalType": "string",
              "name": "returnedAsString",
              "type": "string"
            },
            {
              "internalType": "string",
              "name": "expectedAsString",
              "type": "string"
            },
            {
              "internalType": "string",
              "name": "methodName",
              "type": "string"
            }
          ],
          "internalType": "struct Assert.AssertResult",
          "name": "result",
          "type": "tuple"
        }
      ],
      "stateMutability": "pure",
      "type": "function"
    },
    {
      "inputs": [
        {
          "internalType": "uint256[]",
          "name": "a",
          "type": "uint256[]"
        },
        {
          "internalType": "uint256[]",
          "name": "b",
          "type": "uint256[]"
        }
      ],
      "name": "equal",
      "outputs": [
        {
          "components": [
            {
              "internalType": "bool",
              "name": "passed",
              "type": "bool"
            },
            {
              "internalType": "string",
              "name": "assertionError",
              "type": "string"
            },
            {
              "internalType": "string",
              "name": "returnedAsString",
              "type": "string"
            },
            {
              "internalType": "string",
              "name": "expectedAsString",
              "type": "string"
            },
            {
              "internalType": "string",
              "name": "methodName",
              "type": "string"
            }
          ],
          "internalType": "struct Assert.AssertResult",
          "name": "result",
          "type": "tuple"
        }
      ],
      "stateMutability": "pure",
      "type": "function"
    },
    {
      "inputs": [
        {
          "internalType": "uint256",
          "name": "tokenId",
          "type": "uint256"
        }
      ],
      "name": "getApproved",
      "outputs": [
        {
          "internalType": "address",
          "name": "",
          "type": "address"
        }
      ],
      "stateMutability": "view",
      "type": "function"
    },
    {
      "inputs": [
        {
          "internalType": "address",
          "name": "owner",
          "type": "address"
        },
        {
          "internalType": "address",
          "name": "operator",
          "type": "address"
        }
      ],
      "name": "isApprovedForAll",
      "outputs": [
        {
          "internalType": "bool",
          "name": "",
          "type": "bool"
        }
      ],
      "stateMutability": "view",
      "type": "function"
    },
    {
      "inputs": [
        {
          "internalType": "bool",
          "name": "a",
          "type": "bool"
        }
      ],
      "name": "isFalse",
      "outputs": [
        {
          "components": [
            {
              "internalType": "bool",
              "name": "passed",
              "type": "bool"
            },
            {
              "internalType": "string",
              "name": "assertionError",
              "type": "string"
            },
            {
              "internalType": "string",
              "name": "returnedAsString",
              "type": "string"
            },
            {
              "internalType": "string",
              "name": "expectedAsString",
              "type": "string"
            },
            {
              "internalType": "string",
              "name": "methodName",
              "type": "string"
            }
          ],
          "internalType": "struct Assert.AssertResult",
          "name": "result",
          "type": "tuple"
        }
      ],
      "stateMutability": "pure",
      "type": "function"
    },
    {
      "inputs": [
        {
          "internalType": "bool",
          "name": "a",
          "type": "bool"
        }
      ],
      "name": "isTrue",
      "outputs": [
        {
          "components": [
            {
              "internalType": "bool",
              "name": "passed",
              "type": "bool"
            },
            {
              "internalType": "string",
              "name": "assertionError",
              "type": "string"
            },
            {
              "internalType": "string",
              "name": "returnedAsString",
              "type": "string"
            },
            {
              "internalType": "string",
              "name": "expectedAsString",
              "type": "string"
            },
            {
              "internalType": "string",
              "name": "methodName",
              "type": "string"
            }
          ],
          "internalType": "struct Assert.AssertResult",
          "name": "result",
          "type": "tuple"
        }
      ],
      "stateMutability": "pure",
      "type": "function"
    },
    {
      "inputs": [],
      "name": "name",
      "outputs": [
        {
          "internalType": "string",
          "name": "",
          "type": "string"
        }
      ],
      "stateMutability": "view",
      "type": "function"
    },
    {
      "inputs": [
        {
          "internalType": "address",
          "name": "a",
          "type": "address"
        },
        {
          "internalType": "address",
          "name": "b",
          "type": "address"
        }
      ],
      "name": "notEqual",
      "outputs": [
        {
          "components": [
            {
              "internalType": "bool",
              "name": "passed",
              "type": "bool"
            },
            {
              "internalType": "string",
              "name": "assertionError",
              "type": "string"
            },
            {
              "internalType": "string",
              "name": "returnedAsString",
              "type": "string"
            },
            {
              "internalType": "string",
              "name": "expectedAsString",
              "type": "string"
            },
            {
              "internalType": "string",
              "name": "methodName",
              "type": "string"
            }
          ],
          "internalType": "struct Assert.AssertResult",
          "name": "result",
          "type": "tuple"
        }
      ],
      "stateMutability": "pure",
      "type": "function"
    },
    {
      "inputs": [],
      "name": "owner",
      "outputs": [
        {
          "internalType": "address",
          "name": "",
          "type": "address"
        }
      ],
      "stateMutability": "view",
      "type": "function"
    },
    {
      "inputs": [
        {
          "internalType": "uint256",
          "name": "tokenId",
          "type": "uint256"
        }
      ],
      "name": "ownerOf",
      "outputs": [
        {
          "internalType": "address",
          "name": "",
          "type": "address"
        }
      ],
      "stateMutability": "view",
      "type": "function"
    },
    {
      "inputs": [
        {
          "internalType": "address",
          "name": "",
          "type": "address"
        }
      ],
      "name": "owners",
      "outputs": [
        {
          "internalType": "bool",
          "name": "",
          "type": "bool"
        }
      ],
      "stateMutability": "view",
      "type": "function"
    },
    {
      "inputs": [],
      "name": "renounceOwnership",
      "outputs": [],
      "stateMutability": "nonpayable",
      "type": "function"
    },
    {
      "inputs": [
        {
          "internalType": "address",
          "name": "from",
          "type": "address"
        },
        {
          "internalType": "address",
          "name": "to",
          "type": "address"
        },
        {
          "internalType": "uint256",
          "name": "tokenId",
          "type": "uint256"
        }
      ],
      "name": "safeTransferFrom",
      "outputs": [],
      "stateMutability": "nonpayable",
      "type": "function"
    },
    {
      "inputs": [
        {
          "internalType": "address",
          "name": "from",
          "type": "address"
        },
        {
          "internalType": "address",
          "name": "to",
          "type": "address"
        },
        {
          "internalType": "uint256",
          "name": "tokenId",
          "type": "uint256"
        },
        {
          "internalType": "bytes",
          "name": "data",
          "type": "bytes"
        }
      ],
      "name": "safeTransferFrom",
      "outputs": [],
      "stateMutability": "nonpayable",
      "type": "function"
    },
    {
      "inputs": [
        {
          "internalType": "bool",
          "name": "_setActiveTo",
          "type": "bool"
        }
      ],
      "name": "setActive",
      "outputs": [],
      "stateMutability": "nonpayable",
      "type": "function"
    },
    {
      "inputs": [
        {
          "internalType": "address",
          "name": "operator",
          "type": "address"
        },
        {
          "internalType": "bool",
          "name": "approved",
          "type": "bool"
        }
      ],
      "name": "setApprovalForAll",
      "outputs": [],
      "stateMutability": "nonpayable",
      "type": "function"
    },
    {
      "inputs": [
        {
          "internalType": "string",
          "name": "_tokenURI",
          "type": "string"
        }
      ],
      "name": "setTokenURI",
      "outputs": [],
      "stateMutability": "nonpayable",
      "type": "function"
    },
    {
      "inputs": [
        {
          "internalType": "bytes4",
          "name": "interfaceId",
          "type": "bytes4"
        }
      ],
      "name": "supportsInterface",
      "outputs": [
        {
          "internalType": "bool",
          "name": "",
          "type": "bool"
        }
      ],
      "stateMutability": "view",
      "type": "function"
    },
    {
      "inputs": [],
      "name": "symbol",
      "outputs": [
        {
          "internalType": "string",
          "name": "",
          "type": "string"
        }
      ],
      "stateMutability": "view",
      "type": "function"
    },
    {
      "inputs": [
        {
          "internalType": "address",
          "name": "_submissionAddress",
          "type": "address"
        }
      ],
      "name": "testContract",
      "outputs": [],
      "stateMutability": "nonpayable",
      "type": "function"
    },
    {
      "inputs": [],
      "name": "tokenIds",
      "outputs": [
        {
          "internalType": "uint256",
          "name": "_value",
          "type": "uint256"
        }
      ],
      "stateMutability": "view",
      "type": "function"
    },
    {
      "inputs": [
        {
          "internalType": "uint256",
          "name": "",
          "type": "uint256"
        }
      ],
      "name": "tokenURI",
      "outputs": [
        {
          "internalType": "string",
          "name": "",
          "type": "string"
        }
      ],
      "stateMutability": "view",
      "type": "function"
    },
    {
      "inputs": [
        {
          "internalType": "address",
          "name": "from",
          "type": "address"
        },
        {
          "internalType": "address",
          "name": "to",
          "type": "address"
        },
        {
          "internalType": "uint256",
          "name": "tokenId",
          "type": "uint256"
        }
      ],
      "name": "transferFrom",
      "outputs": [],
      "stateMutability": "nonpayable",
      "type": "function"
    },
    {
      "inputs": [
        {
          "internalType": "address",
          "name": "newOwner",
          "type": "address"
        }
      ],
      "name": "transferOwnership",
      "outputs": [],
      "stateMutability": "nonpayable",
      "type": "function"
    }
  ],
  "transactionHash": "0x8572263b4045d3bc1a699aee36f9af1c9b2e1df92243950dcba74f92e91b9eed",
  "args": [
    "0xFEBF88C6696C1b72446a4780f56f9E912F68f4D2"
  ],
  "numDeployments": 1,
  "solcInputHash": "6a581879d712a9c25e4fb247f22274cf",
  "bytecode": "0x600b805460ff1916600117905560a060405260006080908152600c9062000027908262000345565b503480156200003557600080fd5b506040516200a18f3803806200a18f833981016040819052620000589162000411565b6040518060400160405280601181526020017026b4b734b6b0b6102a37b5b2b7102834b760791b8152506040518060400160405280600581526020016414d0d1135560da1b8152508160009081620000b1919062000345565b506001620000c0828262000345565b505050620000dd620000d76200021e60201b60201c565b62000222565b6001600755604051600d90620000f39062000274565b604051809103906000f08015801562000110573d6000803e3d6000fd5b5081546001810183556000928352602090922090910180546001600160a01b0319166001600160a01b03909216919091179055604051600d908290620001569062000282565b6001600160a01b039091168152602001604051809103906000f08015801562000183573d6000803e3d6000fd5b5081546001810183556000928352602090922090910180546001600160a01b0319166001600160a01b03909216919091179055604051600d90620001c79062000290565b604051809103906000f080158015620001e4573d6000803e3d6000fd5b5081546001810183556000928352602090922090910180546001600160a01b0319166001600160a01b039092169190911790555062000443565b3390565b600680546001600160a01b038381166001600160a01b0319831681179093556040519116919082907f8be0079c531659141344cd1fd0a4f28419497f9722a3daafe3b4186f6b6457e090600090a35050565b611f9b8062003de483390190565b6120ef8062005d7f83390190565b6123218062007e6e83390190565b634e487b7160e01b600052604160045260246000fd5b600181811c90821680620002c957607f821691505b602082108103620002ea57634e487b7160e01b600052602260045260246000fd5b50919050565b601f82111562000340576000816000526020600020601f850160051c810160208610156200031b5750805b601f850160051c820191505b818110156200033c5782815560010162000327565b5050505b505050565b81516001600160401b038111156200036157620003616200029e565b6200037981620003728454620002b4565b84620002f0565b602080601f831160018114620003b15760008415620003985750858301515b600019600386901b1c1916600185901b1785556200033c565b600085815260208120601f198616915b82811015620003e257888601518255948401946001909101908401620003c1565b5085821015620004015787850151600019600388901b60f8161c191681555b5050505050600190811b01905550565b6000602082840312156200042457600080fd5b81516001600160a01b03811681146200043c57600080fd5b9392505050565b61399180620004536000396000f3fe608060405234801561001057600080fd5b50600436106101f05760003560e01c806370a082311161010f578063b88d4fde116100a2578063e7da4c7e11610071578063e7da4c7e14610431578063e985e9c514610444578063f2fde38b14610480578063fa084b9b1461049357600080fd5b8063b88d4fde146103e5578063c87b56dd146103f8578063d70968e71461040b578063e0df5b6f1461041e57600080fd5b80638da5cb5b116100de5780638da5cb5b146103a657806395d89b41146103b7578063a22cb465146103bf578063acec338a146103d257600080fd5b806370a0823114610360578063714cff5614610381578063715018a61461038b57806374f130701461039357600080fd5b8063301916261161018757806346bdca9a1161015657806346bdca9a146102a857806360fb55d5146103275780636352211e1461033a5780636df864781461034d57600080fd5b806330191626146102db57806331495d33146102ee578063410dbb8b1461030157806342842e0e1461031457600080fd5b8063081812fc116101c3578063081812fc1461026a578063095ea7b314610295578063235266d2146102a857806323b872dd146102c857600080fd5b806301ffc9a7146101f5578063022914a71461021d57806306d82f291461024057806306fdde0314610255575b600080fd5b610208610203366004612688565b6104a6565b60405190151581526020015b60405180910390f35b61020861022b3660046126ba565b60096020526000908152604090205460ff1681565b61025361024e3660046126ba565b610543565b005b61025d6107fe565b6040516102149190612727565b61027d61027836600461273a565b610890565b6040516001600160a01b039091168152602001610214565b6102536102a3366004612753565b6108b7565b6102bb6102b6366004612890565b610a0b565b604051610214919061296b565b6102536102d636600461297e565b610aba565b6102bb6102e93660046129bf565b610b31565b6102bb6102fc3660046129e1565b610beb565b6102bb61030f366004612a38565b610cbc565b61025361032236600461297e565b610dbc565b6102bb610335366004612b04565b610dd7565b61027d61034836600461273a565b610eb3565b6102bb61035b366004612bc6565b610f18565b61037361036e3660046126ba565b610ff4565b604051908152602001610214565b6008546103739081565b61025361108e565b6102bb6103a1366004612a38565b6110a2565b6006546001600160a01b031661027d565b61025d6111a3565b6102536103cd366004612c20565b6111b2565b6102536103e0366004612a38565b6111c1565b6102536103f3366004612c4e565b6111dc565b61025d61040636600461273a565b611254565b6102bb6104193660046129e1565b6112e8565b61025361042c366004612cba565b6113af565b6102bb61043f366004612d4e565b6113c3565b6102086104523660046129e1565b6001600160a01b03918216600090815260056020908152604080832093909416825291909152205460ff1690565b61025361048e3660046126ba565b61149f565b6102086104a1366004612da8565b61152f565b60006001600160e01b031982167f80ac58cd00000000000000000000000000000000000000000000000000000000148061050957506001600160e01b031982167f5b5e139f00000000000000000000000000000000000000000000000000000000145b8061053d57507f01ffc9a7000000000000000000000000000000000000000000000000000000006001600160e01b03198316145b92915050565b600b5460ff1661057f576040517f80cb55e200000000000000000000000000000000000000000000000000000000815260040160405180910390fd5b600e5460609060009083906001600160a01b0316156106bb57600d546105a69060016130e5565b67ffffffffffffffff8111156105be576105be61277f565b6040519080825280602002602001820160405280156105f757816020015b6105e461263e565b8152602001906001900390816105dc5790505b50925081610604816130f8565b600e546040517f4c96a3890000000000000000000000000000000000000000000000000000000081526001600160a01b03888116600483015292955091169150634c96a389906024016000604051808303816000875af115801561066c573d6000803e3d6000fd5b505050506040513d6000823e601f3d908101601f191682016040526106949190810190613328565b846000815181106106a7576106a761336f565b602002602001018193508290525050610713565b600d5467ffffffffffffffff8111156106d6576106d661277f565b60405190808252806020026020018201604052801561070f57816020015b6106fc61263e565b8152602001906001900390816106f45790505b5092505b600d548210156107ee57600d82815481106107305761073061336f565b6000918252602090912001546040517f4b64e4920000000000000000000000000000000000000000000000000000000081526001600160a01b03838116600483015290911690634b64e492906024016000604051808303816000875af115801561079e573d6000803e3d6000fd5b505050506040513d6000823e601f3d908101601f191682016040526107c69190810190613385565b8383815181106107d8576107d861336f565b6020908102919091010152600190910190610713565b6107f884846115cf565b50505050565b60606000805461080d906133ba565b80601f0160208091040260200160405190810160405280929190818152602001828054610839906133ba565b80156108865780601f1061085b57610100808354040283529160200191610886565b820191906000526020600020905b81548152906001019060200180831161086957829003601f168201915b5050505050905090565b600061089b826116d6565b506000908152600460205260409020546001600160a01b031690565b60006108c282610eb3565b9050806001600160a01b0316836001600160a01b0316036109505760405162461bcd60e51b815260206004820152602160248201527f4552433732313a20617070726f76616c20746f2063757272656e74206f776e6560448201527f720000000000000000000000000000000000000000000000000000000000000060648201526084015b60405180910390fd5b336001600160a01b038216148061098a57506001600160a01b038116600090815260056020908152604080832033845290915290205460ff165b6109fc5760405162461bcd60e51b815260206004820152603d60248201527f4552433732313a20617070726f76652063616c6c6572206973206e6f7420746f60448201527f6b656e206f776e6572206f7220617070726f76656420666f7220616c6c0000006064820152608401610947565b610a06838361173a565b505050565b610a3f6040518060a00160405280600015158152602001606081526020016060815260200160608152602001606081525090565b815160208084019190912084519185019190912014808252610a84578282604051602001610a6e9291906133f4565b60408051601f1981840301815291905260208201525b604080820193909352606081019190915281518083019092526005825264195c5d585b60da1b6020830152608081019190915290565b610ac433826117b5565b610b265760405162461bcd60e51b815260206004820152602d60248201527f4552433732313a2063616c6c6572206973206e6f7420746f6b656e206f776e6560448201526c1c881bdc88185c1c1c9bdd9959609a1b6064820152608401610947565b610a06838383611834565b610b656040518060a00160405280600015158152602001606081526020016060815260200160608152602001606081525090565b828214808252610ba857610b7883611a47565b610b8183611a47565b604051602001610b929291906133f4565b60408051601f1981840301815291905260208201525b610bb183611a47565b6040820152610bbf82611a47565b6060820152604080518082019091526005815264195c5d585b60da1b6020820152608082015292915050565b610c1f6040518060a00160405280600015158152602001606081526020016060815260200160608152602001606081525090565b6001600160a01b0383811690831681148252600090610c3f906014611ae7565b90506000610c57846001600160a01b03166014611ae7565b8351909150610c89578181604051602001610c739291906133f4565b60408051601f1981840301815291905260208401525b604080840192909252606083015280518082019091526005815264195c5d585b60da1b6020820152608082015292915050565b610cf06040518060a00160405280600015158152602001606081526020016060815260200160608152602001606081525090565b8115808252610d18576040518060600160405280602381526020016139176023913960208201525b600182151514610d45576040518060400160405280600581526020016466616c736560d81b815250610d63565b604051806040016040528060048152602001637472756560e01b8152505b6040808301919091528051602080820183526000825260608401919091528151808301909252600782527f697346616c736500000000000000000000000000000000000000000000000000908201526080820152919050565b610a06838383604051806020016040528060008152506111dc565b610e0b6040518060a00160405280600015158152602001606081526020016060815260200160608152602001606081525090565b81604051602001610e1c9190613475565b6040516020818303038152906040528051906020012083604051602001610e439190613475565b60408051601f19818403018152919052805160209091012014808252610e9c57610e6c83611ccf565b610e7583611ccf565b604051602001610e869291906133f4565b60408051601f1981840301815291905260208201525b610ea583611ccf565b6040820152610bbf82611ccf565b6000818152600260205260408120546001600160a01b03168061053d5760405162461bcd60e51b815260206004820152601860248201527f4552433732313a20696e76616c696420746f6b656e20494400000000000000006044820152606401610947565b610f4c6040518060a00160405280600015158152602001606081526020016060815260200160608152602001606081525090565b81604051602001610f5d91906134d9565b6040516020818303038152906040528051906020012083604051602001610f8491906134d9565b60408051601f19818403018152919052805160209091012014808252610fdd57610fad83611d9a565b610fb683611d9a565b604051602001610fc79291906133f4565b60408051601f1981840301815291905260208201525b610fe683611d9a565b6040820152610bbf82611d9a565b60006001600160a01b0382166110725760405162461bcd60e51b815260206004820152602960248201527f4552433732313a2061646472657373207a65726f206973206e6f74206120766160448201527f6c6964206f776e657200000000000000000000000000000000000000000000006064820152608401610947565b506001600160a01b031660009081526003602052604090205490565b611096611e6c565b6110a06000611ec6565b565b6110d66040518060a00160405280600015158152602001606081526020016060815260200160608152602001606081525090565b8115158082526110ff5760405180606001604052806022815260200161393a6022913960208201525b60018215151461112c576040518060400160405280600581526020016466616c736560d81b81525061114a565b604051806040016040528060048152602001637472756560e01b8152505b6040808301919091528051602080820183526000825260608401919091528151808301909252600682527f6973547275650000000000000000000000000000000000000000000000000000908201526080820152919050565b60606001805461080d906133ba565b6111bd338383611f25565b5050565b6111c9611e6c565b600b805460ff1916911515919091179055565b6111e633836117b5565b6112485760405162461bcd60e51b815260206004820152602d60248201527f4552433732313a2063616c6c6572206973206e6f7420746f6b656e206f776e6560448201526c1c881bdc88185c1c1c9bdd9959609a1b6064820152608401610947565b6107f884848484611ff3565b6060600c8054611263906133ba565b80601f016020809104026020016040519081016040528092919081815260200182805461128f906133ba565b80156112dc5780601f106112b1576101008083540402835291602001916112dc565b820191906000526020600020905b8154815290600101906020018083116112bf57829003601f168201915b50505050509050919050565b61131c6040518060a00160405280600015158152602001606081526020016060815260200160608152602001606081525090565b6001600160a01b03838116908316811415825260009061133d906014611ae7565b825190915061136d57806040516020016113579190613526565b60408051601f1981840301815291905260208301525b60408083019190915280516020808201835260008252606084019190915281518083019092526005825264195c5d585b60da1b90820152608082015292915050565b6113b7611e6c565b600c6111bd82826135e1565b6113f76040518060a00160405280600015158152602001606081526020016060815260200160608152602001606081525090565b8160405160200161140891906136a1565b604051602081830303815290604052805190602001208360405160200161142f91906136a1565b60408051601f198184030181529190528051602090910120148082526114885761145883612071565b61146183612071565b6040516020016114729291906133f4565b60408051601f1981840301815291905260208201525b61149183612071565b6040820152610bbf82612071565b6114a7611e6c565b6001600160a01b0381166115235760405162461bcd60e51b815260206004820152602660248201527f4f776e61626c653a206e6577206f776e657220697320746865207a65726f206160448201527f64647265737300000000000000000000000000000000000000000000000000006064820152608401610947565b61152c81611ec6565b50565b6000805b82518110156115c65760005b8382815181106115515761155161336f565b602002602001015160200151602001518110156115bd5783828151811061157a5761157a61336f565b60200260200101516020015160000151818151811061159b5761159b61336f565b6020026020010151600001516115b5575060009392505050565b60010161153f565b50600101611533565b50600192915050565b6115d7612138565b60006115e28261152f565b90507f53d51c5f8eaf1bdbf1288871cbf97a9295da23a9868b15b526b4256ede348db9838284604051611617939291906136d9565b60405180910390a16001600160a01b0383166000908152600a602052604090205460ff1615801561165857503360009081526009602052604090205460ff16155b80156116615750805b156116a857611674600880546001019055565b600061167f60085490565b336000818152600960205260409020805460ff191660011790559091506116a69082612191565b505b506001600160a01b0382166000908152600a60205260409020805460ff191660011790556111bd6001600755565b6000818152600260205260409020546001600160a01b031661152c5760405162461bcd60e51b815260206004820152601860248201527f4552433732313a20696e76616c696420746f6b656e20494400000000000000006044820152606401610947565b6000818152600460205260409020805473ffffffffffffffffffffffffffffffffffffffff19166001600160a01b038416908117909155819061177c82610eb3565b6001600160a01b03167f8c5be1e5ebec7d5bd14f71427d1e84f3dd0314c0f7b2291e5b200ac8c7c3b92560405160405180910390a45050565b6000806117c183610eb3565b9050806001600160a01b0316846001600160a01b0316148061180857506001600160a01b0380821660009081526005602090815260408083209388168352929052205460ff165b8061182c5750836001600160a01b031661182184610890565b6001600160a01b0316145b949350505050565b826001600160a01b031661184782610eb3565b6001600160a01b0316146118ab5760405162461bcd60e51b815260206004820152602560248201527f4552433732313a207472616e736665722066726f6d20696e636f72726563742060448201526437bbb732b960d91b6064820152608401610947565b6001600160a01b0382166119265760405162461bcd60e51b8152602060048201526024808201527f4552433732313a207472616e7366657220746f20746865207a65726f2061646460448201527f72657373000000000000000000000000000000000000000000000000000000006064820152608401610947565b61193383838360016121ab565b826001600160a01b031661194682610eb3565b6001600160a01b0316146119aa5760405162461bcd60e51b815260206004820152602560248201527f4552433732313a207472616e736665722066726f6d20696e636f72726563742060448201526437bbb732b960d91b6064820152608401610947565b6000818152600460209081526040808320805473ffffffffffffffffffffffffffffffffffffffff199081169091556001600160a01b0387811680865260038552838620805460001901905590871680865283862080546001019055868652600290945282852080549092168417909155905184937fddf252ad1be2c89b69c2b068fc378daa952ba7f163c4a11628f55a4df523b3ef91a4505050565b60606000611a54836121ec565b600101905060008167ffffffffffffffff811115611a7457611a7461277f565b6040519080825280601f01601f191660200182016040528015611a9e576020820181803683370190505b5090508181016020015b600019017f3031323334353637383961626364656600000000000000000000000000000000600a86061a8153600a8504945084611aa857509392505050565b60606000611af68360026137ce565b611b019060026130e5565b67ffffffffffffffff811115611b1957611b1961277f565b6040519080825280601f01601f191660200182016040528015611b43576020820181803683370190505b5090507f300000000000000000000000000000000000000000000000000000000000000081600081518110611b7a57611b7a61336f565b60200101906001600160f81b031916908160001a9053507f780000000000000000000000000000000000000000000000000000000000000081600181518110611bc557611bc561336f565b60200101906001600160f81b031916908160001a9053506000611be98460026137ce565b611bf49060016130e5565b90505b6001811115611c79577f303132333435363738396162636465660000000000000000000000000000000085600f1660108110611c3557611c3561336f565b1a60f81b828281518110611c4b57611c4b61336f565b60200101906001600160f81b031916908160001a90535060049490941c93611c72816137e5565b9050611bf7565b508315611cc85760405162461bcd60e51b815260206004820181905260248201527f537472696e67733a20686578206c656e67746820696e73756666696369656e746044820152606401610947565b9392505050565b6040805180820190915260018152605b60f81b602082015260609060005b8351811015611d935760018451611d0491906137fc565b811015611d4d5781848281518110611d1e57611d1e61336f565b6020026020010151604051602001611d3792919061380f565b6040516020818303038152906040529150611d8b565b81848281518110611d6057611d6061336f565b6020026020010151604051602001611d79929190613866565b60405160208183030381529060405291505b600101611ced565b5092915050565b6040805180820190915260018152605b60f81b602082015260609060005b8351811015611d935760018451611dcf91906137fc565b811015611e2b5781611e04858381518110611dec57611dec61336f565b60200260200101516001600160a01b03166014611ae7565b604051602001611e1592919061380f565b6040516020818303038152906040529150611e64565b81611e41858381518110611dec57611dec61336f565b604051602001611e52929190613866565b60405160208183030381529060405291505b600101611db8565b6006546001600160a01b031633146110a05760405162461bcd60e51b815260206004820181905260248201527f4f776e61626c653a2063616c6c6572206973206e6f7420746865206f776e65726044820152606401610947565b600680546001600160a01b0383811673ffffffffffffffffffffffffffffffffffffffff19831681179093556040519116919082907f8be0079c531659141344cd1fd0a4f28419497f9722a3daafe3b4186f6b6457e090600090a35050565b816001600160a01b0316836001600160a01b031603611f865760405162461bcd60e51b815260206004820152601960248201527f4552433732313a20617070726f766520746f2063616c6c6572000000000000006044820152606401610947565b6001600160a01b03838116600081815260056020908152604080832094871680845294825291829020805460ff191686151590811790915591519182527f17307eab39ab6107e8899845ad3d59bd9653f200f220920489ca2b5937696c31910160405180910390a3505050565b611ffe848484611834565b61200a848484846122ce565b6107f85760405162461bcd60e51b815260206004820152603260248201527f4552433732313a207472616e7366657220746f206e6f6e20455243373231526560448201527131b2b4bb32b91034b6b83632b6b2b73a32b960711b6064820152608401610947565b6040805180820190915260018152605b60f81b602082015260609060005b8351811015611d9357600184516120a691906137fc565b8110156120f757816120d08583815181106120c3576120c361336f565b6020026020010151611a47565b6040516020016120e192919061380f565b6040516020818303038152906040529150612130565b8161210d8583815181106120c3576120c361336f565b60405160200161211e929190613866565b60405160208183030381529060405291505b60010161208f565b60026007540361218a5760405162461bcd60e51b815260206004820152601f60248201527f5265656e7472616e637947756172643a207265656e7472616e742063616c6c006044820152606401610947565b6002600755565b6111bd82826040518060200160405280600081525061241a565b6001600160a01b038416156107f8576040517f6e10574900000000000000000000000000000000000000000000000000000000815260040160405180910390fd5b6000807a184f03e93ff9f4daa797ed6e38ed64bf6a1f0100000000000000008310612235577a184f03e93ff9f4daa797ed6e38ed64bf6a1f010000000000000000830492506040015b6d04ee2d6d415b85acef81000000008310612261576d04ee2d6d415b85acef8100000000830492506020015b662386f26fc10000831061227f57662386f26fc10000830492506010015b6305f5e1008310612297576305f5e100830492506008015b61271083106122ab57612710830492506004015b606483106122bd576064830492506002015b600a831061053d5760010192915050565b60006001600160a01b0384163b1561240f57604051630a85bd0160e11b81526001600160a01b0385169063150b7a02906123129033908990889088906004016138bd565b6020604051808303816000875af192505050801561234d575060408051601f3d908101601f1916820190925261234a918101906138f9565b60015b6123f5573d80801561237b576040519150601f19603f3d011682016040523d82523d6000602084013e612380565b606091505b5080516000036123ed5760405162461bcd60e51b815260206004820152603260248201527f4552433732313a207472616e7366657220746f206e6f6e20455243373231526560448201527131b2b4bb32b91034b6b83632b6b2b73a32b960711b6064820152608401610947565b805181602001fd5b6001600160e01b031916630a85bd0160e11b14905061182c565b506001949350505050565b6124248383612498565b61243160008484846122ce565b610a065760405162461bcd60e51b815260206004820152603260248201527f4552433732313a207472616e7366657220746f206e6f6e20455243373231526560448201527131b2b4bb32b91034b6b83632b6b2b73a32b960711b6064820152608401610947565b6001600160a01b0382166124ee5760405162461bcd60e51b815260206004820181905260248201527f4552433732313a206d696e7420746f20746865207a65726f20616464726573736044820152606401610947565b6000818152600260205260409020546001600160a01b0316156125535760405162461bcd60e51b815260206004820152601c60248201527f4552433732313a20746f6b656e20616c7265616479206d696e746564000000006044820152606401610947565b6125616000838360016121ab565b6000818152600260205260409020546001600160a01b0316156125c65760405162461bcd60e51b815260206004820152601c60248201527f4552433732313a20746f6b656e20616c7265616479206d696e746564000000006044820152606401610947565b6001600160a01b0382166000818152600360209081526040808320805460010190558483526002909152808220805473ffffffffffffffffffffffffffffffffffffffff19168417905551839291907fddf252ad1be2c89b69c2b068fc378daa952ba7f163c4a11628f55a4df523b3ef908290a45050565b60405180604001604052806060815260200161266d604051806040016040528060608152602001600081525090565b905290565b6001600160e01b03198116811461152c57600080fd5b60006020828403121561269a57600080fd5b8135611cc881612672565b6001600160a01b038116811461152c57600080fd5b6000602082840312156126cc57600080fd5b8135611cc8816126a5565b60005b838110156126f25781810151838201526020016126da565b50506000910152565b600081518084526127138160208601602086016126d7565b601f01601f19169290920160200192915050565b602081526000611cc860208301846126fb565b60006020828403121561274c57600080fd5b5035919050565b6000806040838503121561276657600080fd5b8235612771816126a5565b946020939093013593505050565b634e487b7160e01b600052604160045260246000fd5b6040805190810167ffffffffffffffff811182821017156127b8576127b861277f565b60405290565b60405160a0810167ffffffffffffffff811182821017156127b8576127b861277f565b604051601f8201601f1916810167ffffffffffffffff8111828210171561280a5761280a61277f565b604052919050565b600067ffffffffffffffff82111561282c5761282c61277f565b50601f01601f191660200190565b600082601f83011261284b57600080fd5b813561285e61285982612812565b6127e1565b81815284602083860101111561287357600080fd5b816020850160208301376000918101602001919091529392505050565b600080604083850312156128a357600080fd5b823567ffffffffffffffff808211156128bb57600080fd5b6128c78683870161283a565b935060208501359150808211156128dd57600080fd5b506128ea8582860161283a565b9150509250929050565b8051151582526000602082015160a0602085015261291560a08501826126fb565b90506040830151848203604086015261292e82826126fb565b9150506060830151848203606086015261294882826126fb565b9150506080830151848203608086015261296282826126fb565b95945050505050565b602081526000611cc860208301846128f4565b60008060006060848603121561299357600080fd5b833561299e816126a5565b925060208401356129ae816126a5565b929592945050506040919091013590565b600080604083850312156129d257600080fd5b50508035926020909101359150565b600080604083850312156129f457600080fd5b82356129ff816126a5565b91506020830135612a0f816126a5565b809150509250929050565b801515811461152c57600080fd5b8035612a3381612a1a565b919050565b600060208284031215612a4a57600080fd5b8135611cc881612a1a565b600067ffffffffffffffff821115612a6f57612a6f61277f565b5060051b60200190565b600082601f830112612a8a57600080fd5b81356020612a9a61285983612a55565b82815260059290921b84018101918181019086841115612ab957600080fd5b8286015b84811015612af957803567ffffffffffffffff811115612add5760008081fd5b612aeb8986838b010161283a565b845250918301918301612abd565b509695505050505050565b60008060408385031215612b1757600080fd5b823567ffffffffffffffff80821115612b2f57600080fd5b612b3b86838701612a79565b93506020850135915080821115612b5157600080fd5b506128ea85828601612a79565b600082601f830112612b6f57600080fd5b81356020612b7f61285983612a55565b8083825260208201915060208460051b870101935086841115612ba157600080fd5b602086015b84811015612af9578035612bb9816126a5565b8352918301918301612ba6565b60008060408385031215612bd957600080fd5b823567ffffffffffffffff80821115612bf157600080fd5b612bfd86838701612b5e565b93506020850135915080821115612c1357600080fd5b506128ea85828601612b5e565b60008060408385031215612c3357600080fd5b8235612c3e816126a5565b91506020830135612a0f81612a1a565b60008060008060808587031215612c6457600080fd5b8435612c6f816126a5565b93506020850135612c7f816126a5565b925060408501359150606085013567ffffffffffffffff811115612ca257600080fd5b612cae8782880161283a565b91505092959194509250565b600060208284031215612ccc57600080fd5b813567ffffffffffffffff811115612ce357600080fd5b61182c8482850161283a565b600082601f830112612d0057600080fd5b81356020612d1061285983612a55565b8083825260208201915060208460051b870101935086841115612d3257600080fd5b602086015b84811015612af95780358352918301918301612d37565b60008060408385031215612d6157600080fd5b823567ffffffffffffffff80821115612d7957600080fd5b612d8586838701612cef565b93506020850135915080821115612d9b57600080fd5b506128ea85828601612cef565b600060208284031215612dba57600080fd5b67ffffffffffffffff82351115612dd057600080fd5b82601f833584010112612de257600080fd5b612df26128598335840135612a55565b8235830180358083526020808401939260059290921b90910101851015612e1857600080fd5b602084358501015b84358501803560051b016020018110156130c65767ffffffffffffffff81351115612e4a57600080fd5b6040853586018235018703601f19011215612e6457600080fd5b612e6c612795565b67ffffffffffffffff60208335883589010101351115612e8b57600080fd5b612ea3876020843589358a010181810135010161283a565b815267ffffffffffffffff60408335883589010101351115612ec457600080fd5b60408635870183350180820135018803601f19011215612ee357600080fd5b612eeb612795565b67ffffffffffffffff87358801843501604081013501602001351115612f1057600080fd5b86358701833501604081013501602081013501603f81018913612f3257600080fd5b612f426128596020830135612a55565b602082810135808352908201919060051b83016040018b1015612f6457600080fd5b604083015b6040602085013560051b8501018110156130945767ffffffffffffffff81351115612f9357600080fd5b8035840160a0818e03603f19011215612fab57600080fd5b612fb36127be565b612fbf60408301612a28565b815267ffffffffffffffff60608301351115612fda57600080fd5b612fed8e6040606085013585010161283a565b602082015267ffffffffffffffff6080830135111561300b57600080fd5b61301e8e6040608085013585010161283a565b604082015267ffffffffffffffff60a0830135111561303c57600080fd5b61304f8e604060a085013585010161283a565b606082015267ffffffffffffffff60c0830135111561306d57600080fd5b6130808e604060c085013585010161283a565b608082015284525060209283019201612f69565b508352505060408335883589010181810135010135602080830191909152828101919091529084529283019201612e20565b50949350505050565b634e487b7160e01b600052601160045260246000fd5b8082018082111561053d5761053d6130cf565b60006001820161310a5761310a6130cf565b5060010190565b600082601f83011261312257600080fd5b815161313061285982612812565b81815284602083860101111561314557600080fd5b61182c8260208301602087016126d7565b8051612a3381612a1a565b60006040828403121561317357600080fd5b61317b612795565b9050815167ffffffffffffffff8082111561319557600080fd5b6131a185838601613111565b83526020915081840151818111156131b857600080fd5b8401604081870312156131ca57600080fd5b6131d2612795565b8151838111156131e157600080fd5b8201601f810188136131f257600080fd5b805161320061285982612a55565b81815260059190911b8201860190868101908a83111561321f57600080fd5b8784015b8381101561330c5780518881111561323a57600080fd5b850160a0818e03601f1901121561325057600080fd5b6132586127be565b6132638b8301613156565b815260408201518a81111561327757600080fd5b6132858f8d83860101613111565b8c8301525060608201518a81111561329c57600080fd5b6132aa8f8d83860101613111565b60408301525060808201518a8111156132c35760008081fd5b6132d18f8d83860101613111565b60608301525060a08201518a8111156132ea5760008081fd5b6132f88f8d83860101613111565b608083015250845250918801918801613223565b5084525050509083015183820152918301919091525092915050565b6000806040838503121561333b57600080fd5b825167ffffffffffffffff81111561335257600080fd5b61335e85828601613161565b9250506020830151612a0f816126a5565b634e487b7160e01b600052603260045260246000fd5b60006020828403121561339757600080fd5b815167ffffffffffffffff8111156133ae57600080fd5b61182c84828501613161565b600181811c908216806133ce57607f821691505b6020821081036133ee57634e487b7160e01b600052602260045260246000fd5b50919050565b7f417373657274696f6e4572726f723a200000000000000000000000000000000081526000835161342c8160108501602088016126d7565b7f206973206e6f7420657175616c20746f2000000000000000000000000000000060109184019182015283516134698160218401602088016126d7565b01602101949350505050565b600060208083016020845280855180835260408601915060408160051b87010192506020870160005b828110156134cc57603f198886030184526134ba8583516126fb565b9450928501929085019060010161349e565b5092979650505050505050565b6020808252825182820181905260009190848201906040850190845b8181101561351a5783516001600160a01b0316835292840192918401916001016134f5565b50909695505050505050565b7f417373657274696f6e4572726f723a200000000000000000000000000000000081527f20426f74682076616c75657320617265000000000000000000000000000000006010820152600082516135848160208501602087016126d7565b9190910160200192915050565b601f821115610a06576000816000526020600020601f850160051c810160208610156135ba5750805b601f850160051c820191505b818110156135d9578281556001016135c6565b505050505050565b815167ffffffffffffffff8111156135fb576135fb61277f565b61360f8161360984546133ba565b84613591565b602080601f831160018114613644576000841561362c5750858301515b600019600386901b1c1916600185901b1785556135d9565b600085815260208120601f198616915b8281101561367357888601518255948401946001909101908401613654565b50858210156136915787850151600019600388901b60f8161c191681555b5050505050600190811b01905550565b6020808252825182820181905260009190848201906040850190845b8181101561351a578351835292840192918401916001016136bd565b600060608083016001600160a01b038716845260208615158186015260406060604087015282875180855260808801915060808160051b89010194508389016000805b838110156137bc578a8803607f1901855282518051878a52613740888b01826126fb565b918901518a83038b8b0152805189845280518a850181905291939250600582901b83018d0191908b01908d840190875b8181101561379e57605f1986860301835261378c8585516128f4565b9450928d0192918d0191600101613770565b5050505091890151908901529750938601939186019160010161371c565b50959c9b505050505050505050505050565b808202811582820484141761053d5761053d6130cf565b6000816137f4576137f46130cf565b506000190190565b8181038181111561053d5761053d6130cf565b600083516138218184602088016126d7565b8351908301906138358183602088016126d7565b7f2c200000000000000000000000000000000000000000000000000000000000009101908152600201949350505050565b600083516138788184602088016126d7565b83519083019061388c8183602088016126d7565b7f5d000000000000000000000000000000000000000000000000000000000000009101908152600101949350505050565b60006001600160a01b038087168352808616602084015250836040830152608060608301526138ef60808301846126fb565b9695505050505050565b60006020828403121561390b57600080fd5b8151611cc88161267256fe417373657274696f6e4572726f723a20726573756c74206973206e6f742066616c7365417373657274696f6e4572726f723a20726573756c74206973206e6f742074727565a26469706673582212204a56e530eed2212a5fca6ea5367ef4bf647f71141ec37d30c9827fa09e43ba7c64736f6c63430008170033608060405234801561001057600080fd5b50611f7b806100206000396000f3fe608060405234801561001057600080fd5b50600436106100c95760003560e01c80634b64e4921161008157806374f130701161005b57806374f1307014610176578063d70968e714610189578063e7da4c7e1461019c57600080fd5b80634b64e4921461013057806360fb55d5146101505780636df864781461016357600080fd5b806331495d33116100b257806331495d331461010a578063410dbb8b1461011d57806346bdca9a146100ce57600080fd5b8063235266d2146100ce57806330191626146100f7575b600080fd5b6100e16100dc36600461164b565b6101af565b6040516100ee9190611776565b60405180910390f35b6100e1610105366004611790565b61025e565b6100e16101183660046117ce565b610318565b6100e161012b366004611801565b6103e9565b61014361013e366004611823565b6104e9565b6040516100ee919061183e565b6100e161015e36600461198b565b61085a565b6100e1610171366004611a4b565b610936565b6100e1610184366004611801565b610a12565b6100e16101973660046117ce565b610b13565b6100e16101aa366004611b04565b610bda565b6101e36040518060a00160405280600015158152602001606081526020016060815260200160608152602001606081525090565b815160208084019190912084519185019190912014808252610228578282604051602001610212929190611b5e565b60408051601f1981840301815291905260208201525b604080820193909352606081019190915281518083019092526005825264195c5d585b60da1b6020830152608081019190915290565b6102926040518060a00160405280600015158152602001606081526020016060815260200160608152602001606081525090565b8282148082526102d5576102a583610cb6565b6102ae83610cb6565b6040516020016102bf929190611b5e565b60408051601f1981840301815291905260208201525b6102de83610cb6565b60408201526102ec82610cb6565b6060820152604080518082019091526005815264195c5d585b60da1b6020820152608082015292915050565b61034c6040518060a00160405280600015158152602001606081526020016060815260200160608152602001606081525090565b6001600160a01b038381169083168114825260009061036c906014610d56565b90506000610384846001600160a01b03166014610d56565b83519091506103b65781816040516020016103a0929190611b5e565b60408051601f1981840301815291905260208401525b604080840192909252606083015280518082019091526005815264195c5d585b60da1b6020820152608082015292915050565b61041d6040518060a00160405280600015158152602001606081526020016060815260200160608152602001606081525090565b811580825261044557604051806060016040528060238152602001611edf6023913960208201525b600182151514610472576040518060400160405280600581526020016466616c736560d81b815250610490565b604051806040016040528060048152602001637472756560e01b8152505b6040808301919091528051602080820183526000825260608401919091528151808301909252600782527f697346616c736500000000000000000000000000000000000000000000000000908201526080820152919050565b6104f1611560565b816104fa611560565b6105078160200151610f5e565b50604051806060016040528060298152602001611eb66029913981600001819052506000826001600160a01b031663d54ad2a16040518163ffffffff1660e01b81526004016020604051808303816000875af115801561056b573d6000803e3d6000fd5b505050506040513d601f19601f8201168201806040525081019061058f9190611bdf565b905060008061059d85610fda565b915091508015610635576040805160a081018252600080825282518084018452601481527f43616c6c20746f20636c61696d206661696c6564000000000000000000000000602082810191909152808401919091528351808201855282815283850152835180820185528281526060840152835180820190945290835260808201929092529085015161062f91611081565b506106d5565b6040517f27e235e30000000000000000000000000000000000000000000000000000000081523060048201526106d3906106c8906001600160a01b038816906327e235e3906024016020604051808303816000875af115801561069c573d6000803e3d6000fd5b505050506040513d601f19601f820116820180604052508101906106c09190611bdf565b6103e861025e565b602086015190611081565b505b6106de85610fda565b90925090508061075f576107596040518060a00160405280600015158152602001604051806060016040528060228152602001611f2460229139815260408051602081810183526000808352818501929092528251808201845282815283850152825180820190935290825260609092015286015190611081565b506107c7565b6040805160048152602481019091526020810180517bffffffffffffffffffffffffffffffffffffffffffffffffffffffff167f0b1327a6000000000000000000000000000000000000000000000000000000001790526107c5906106c89084906101af565b505b6000856001600160a01b031663d54ad2a16040518163ffffffff1660e01b81526004016020604051808303816000875af1158015610809573d6000803e3d6000fd5b505050506040513d601f19601f8201168201806040525081019061082d9190611bdf565b905061084d61084282610105876103e8611c0e565b602087015190611081565b5093979650505050505050565b61088e6040518060a00160405280600015158152602001606081526020016060815260200160608152602001606081525090565b8160405160200161089f9190611c21565b60405160208183030381529060405280519060200120836040516020016108c69190611c21565b60408051601f1981840301815291905280516020909101201480825261091f576108ef836110f1565b6108f8836110f1565b604051602001610909929190611b5e565b60408051601f1981840301815291905260208201525b610928836110f1565b60408201526102ec826110f1565b61096a6040518060a00160405280600015158152602001606081526020016060815260200160608152602001606081525090565b8160405160200161097b9190611c85565b60405160208183030381529060405280519060200120836040516020016109a29190611c85565b60408051601f198184030181529190528051602090910120148082526109fb576109cb836111bc565b6109d4836111bc565b6040516020016109e5929190611b5e565b60408051601f1981840301815291905260208201525b610a04836111bc565b60408201526102ec826111bc565b610a466040518060a00160405280600015158152602001606081526020016060815260200160608152602001606081525090565b811515808252610a6f57604051806060016040528060228152602001611f026022913960208201525b600182151514610a9c576040518060400160405280600581526020016466616c736560d81b815250610aba565b604051806040016040528060048152602001637472756560e01b8152505b6040808301919091528051602080820183526000825260608401919091528151808301909252600682527f6973547275650000000000000000000000000000000000000000000000000000908201526080820152919050565b610b476040518060a00160405280600015158152602001606081526020016060815260200160608152602001606081525090565b6001600160a01b038381169083168114158252600090610b68906014610d56565b8251909150610b985780604051602001610b829190611cd2565b60408051601f1981840301815291905260208301525b60408083019190915280516020808201835260008252606084019190915281518083019092526005825264195c5d585b60da1b90820152608082015292915050565b610c0e6040518060a00160405280600015158152602001606081526020016060815260200160608152602001606081525090565b81604051602001610c1f9190611d3d565b6040516020818303038152906040528051906020012083604051602001610c469190611d3d565b60408051601f19818403018152919052805160209091012014808252610c9f57610c6f8361128e565b610c788361128e565b604051602001610c89929190611b5e565b60408051601f1981840301815291905260208201525b610ca88361128e565b60408201526102ec8261128e565b60606000610cc383611355565b600101905060008167ffffffffffffffff811115610ce357610ce3611594565b6040519080825280601f01601f191660200182016040528015610d0d576020820181803683370190505b5090508181016020015b600019017f3031323334353637383961626364656600000000000000000000000000000000600a86061a8153600a8504945084610d1757509392505050565b60606000610d65836002611d75565b610d70906002611c0e565b67ffffffffffffffff811115610d8857610d88611594565b6040519080825280601f01601f191660200182016040528015610db2576020820181803683370190505b5090507f300000000000000000000000000000000000000000000000000000000000000081600081518110610de957610de9611d8c565b60200101906001600160f81b031916908160001a9053507f780000000000000000000000000000000000000000000000000000000000000081600181518110610e3457610e34611d8c565b60200101906001600160f81b031916908160001a9053506000610e58846002611d75565b610e63906001611c0e565b90505b6001811115610ee8577f303132333435363738396162636465660000000000000000000000000000000085600f1660108110610ea457610ea4611d8c565b1a60f81b828281518110610eba57610eba611d8c565b60200101906001600160f81b031916908160001a90535060049490941c93610ee181611da2565b9050610e66565b508315610f55576040517f08c379a000000000000000000000000000000000000000000000000000000000815260206004820181905260248201527f537472696e67733a20686578206c656e67746820696e73756666696369656e74604482015260640160405180910390fd5b90505b92915050565b60408051808201825260608152600060208201528151600480825260a082019093529091816020015b610fbb6040518060a00160405280600015158152602001606081526020016060815260200160608152602001606081525090565b815260200190600190039081610f875750508252506000602082015290565b60606000826001600160a01b0316634e71d92d6040518163ffffffff1660e01b8152600401600060405180830381600087803b15801561101957600080fd5b505af192505050801561102a575060015b611068573d808015611058576040519150601f19603f3d011682016040523d82523d6000602084013e61105d565b606091505b509360019350915050565b5050604080516020810190915260008082529092909150565b6040805180820190915260608152600060208201528251516020840151036110af576110ac83611437565b92505b8183600001518460200151815181106110ca576110ca611d8c565b60200260200101819052508260200180518091906110e790611db9565b9052509192915050565b6040805180820190915260018152605b60f81b602082015260609060005b83518110156111b557600184516111269190611dd2565b81101561116f578184828151811061114057611140611d8c565b6020026020010151604051602001611159929190611de5565b60405160208183030381529060405291506111ad565b8184828151811061118257611182611d8c565b602002602001015160405160200161119b929190611e3c565b60405160208183030381529060405291505b60010161110f565b5092915050565b6040805180820190915260018152605b60f81b602082015260609060005b83518110156111b557600184516111f19190611dd2565b81101561124d578161122685838151811061120e5761120e611d8c565b60200260200101516001600160a01b03166014610d56565b604051602001611237929190611de5565b6040516020818303038152906040529150611286565b8161126385838151811061120e5761120e611d8c565b604051602001611274929190611e3c565b60405160208183030381529060405291505b6001016111da565b6040805180820190915260018152605b60f81b602082015260609060005b83518110156111b557600184516112c39190611dd2565b81101561131457816112ed8583815181106112e0576112e0611d8c565b6020026020010151610cb6565b6040516020016112fe929190611de5565b604051602081830303815290604052915061134d565b8161132a8583815181106112e0576112e0611d8c565b60405160200161133b929190611e3c565b60405160208183030381529060405291505b6001016112ac565b6000807a184f03e93ff9f4daa797ed6e38ed64bf6a1f010000000000000000831061139e577a184f03e93ff9f4daa797ed6e38ed64bf6a1f010000000000000000830492506040015b6d04ee2d6d415b85acef810000000083106113ca576d04ee2d6d415b85acef8100000000830492506020015b662386f26fc1000083106113e857662386f26fc10000830492506010015b6305f5e1008310611400576305f5e100830492506008015b612710831061141457612710830492506004015b60648310611426576064830492506002015b600a8310610f585760010192915050565b604080518082019091526060815260006020820152604080518082019091526060815260006020820152825151600290611472906003611d75565b61147c9190611e93565b67ffffffffffffffff81111561149457611494611594565b6040519080825280602002602001820160405280156114f957816020015b6114e66040518060a00160405280600015158152602001606081526020016060815260200160608152602001606081525090565b8152602001906001900390816114b25790505b50815260005b83515181101561154e57835180518290811061151d5761151d611d8c565b60200260200101518260000151828151811061153b5761153b611d8c565b60209081029190910101526001016114ff565b50602092830151928101929092525090565b60405180604001604052806060815260200161158f604051806040016040528060608152602001600081525090565b905290565b634e487b7160e01b600052604160045260246000fd5b604051601f8201601f1916810167ffffffffffffffff811182821017156115d3576115d3611594565b604052919050565b600082601f8301126115ec57600080fd5b813567ffffffffffffffff81111561160657611606611594565b611619601f8201601f19166020016115aa565b81815284602083860101111561162e57600080fd5b816020850160208301376000918101602001919091529392505050565b6000806040838503121561165e57600080fd5b823567ffffffffffffffff8082111561167657600080fd5b611682868387016115db565b9350602085013591508082111561169857600080fd5b506116a5858286016115db565b9150509250929050565b60005b838110156116ca5781810151838201526020016116b2565b50506000910152565b600081518084526116eb8160208601602086016116af565b601f01601f19169290920160200192915050565b8051151582526000602082015160a0602085015261172060a08501826116d3565b90506040830151848203604086015261173982826116d3565b9150506060830151848203606086015261175382826116d3565b9150506080830151848203608086015261176d82826116d3565b95945050505050565b60208152600061178960208301846116ff565b9392505050565b600080604083850312156117a357600080fd5b50508035926020909101359150565b80356001600160a01b03811681146117c957600080fd5b919050565b600080604083850312156117e157600080fd5b6117ea836117b2565b91506117f8602084016117b2565b90509250929050565b60006020828403121561181357600080fd5b81358015158114610f5557600080fd5b60006020828403121561183557600080fd5b611789826117b2565b60006020808352835160408285015261185a60608501826116d3565b905081850151601f198583030160408601526040820181516040845281815180845260608601915060608160051b8701019350868301925060005b818110156118c357605f198786030183526118b18585516116ff565b94509287019291870191600101611895565b505050509083015191909201529392505050565b600067ffffffffffffffff8211156118f1576118f1611594565b5060051b60200190565b600082601f83011261190c57600080fd5b8135602061192161191c836118d7565b6115aa565b82815260059290921b8401810191818101908684111561194057600080fd5b8286015b8481101561198057803567ffffffffffffffff8111156119645760008081fd5b6119728986838b01016115db565b845250918301918301611944565b509695505050505050565b6000806040838503121561199e57600080fd5b823567ffffffffffffffff808211156119b657600080fd5b6119c2868387016118fb565b935060208501359150808211156119d857600080fd5b506116a5858286016118fb565b600082601f8301126119f657600080fd5b81356020611a0661191c836118d7565b8083825260208201915060208460051b870101935086841115611a2857600080fd5b602086015b8481101561198057611a3e816117b2565b8352918301918301611a2d565b60008060408385031215611a5e57600080fd5b823567ffffffffffffffff80821115611a7657600080fd5b611a82868387016119e5565b93506020850135915080821115611a9857600080fd5b506116a5858286016119e5565b600082601f830112611ab657600080fd5b81356020611ac661191c836118d7565b8083825260208201915060208460051b870101935086841115611ae857600080fd5b602086015b848110156119805780358352918301918301611aed565b60008060408385031215611b1757600080fd5b823567ffffffffffffffff80821115611b2f57600080fd5b611b3b86838701611aa5565b93506020850135915080821115611b5157600080fd5b506116a585828601611aa5565b7f417373657274696f6e4572726f723a2000000000000000000000000000000000815260008351611b968160108501602088016116af565b7f206973206e6f7420657175616c20746f200000000000000000000000000000006010918401918201528351611bd38160218401602088016116af565b01602101949350505050565b600060208284031215611bf157600080fd5b5051919050565b634e487b7160e01b600052601160045260246000fd5b80820180821115610f5857610f58611bf8565b600060208083016020845280855180835260408601915060408160051b87010192506020870160005b82811015611c7857603f19888603018452611c668583516116d3565b94509285019290850190600101611c4a565b5092979650505050505050565b6020808252825182820181905260009190848201906040850190845b81811015611cc65783516001600160a01b031683529284019291840191600101611ca1565b50909695505050505050565b7f417373657274696f6e4572726f723a200000000000000000000000000000000081527f20426f74682076616c7565732061726500000000000000000000000000000000601082015260008251611d308160208501602087016116af565b9190910160200192915050565b6020808252825182820181905260009190848201906040850190845b81811015611cc657835183529284019291840191600101611d59565b8082028115828204841417610f5857610f58611bf8565b634e487b7160e01b600052603260045260246000fd5b600081611db157611db1611bf8565b506000190190565b600060018201611dcb57611dcb611bf8565b5060010190565b81810381811115610f5857610f58611bf8565b60008351611df78184602088016116af565b835190830190611e0b8183602088016116af565b7f2c200000000000000000000000000000000000000000000000000000000000009101908152600201949350505050565b60008351611e4e8184602088016116af565b835190830190611e628183602088016116af565b7f5d000000000000000000000000000000000000000000000000000000000000009101908152600101949350505050565b600082611eb057634e487b7160e01b600052601260045260246000fd5b50049056fe557365722073686f756c642062652061626c6520746f20636c61696d2065786163746c79206f6e6365417373657274696f6e4572726f723a20726573756c74206973206e6f742066616c7365417373657274696f6e4572726f723a20726573756c74206973206e6f742074727565457870656374656420726576657274207769746820546f6b656e73436c61696d6564a2646970667358221220ce038e966f146d74a4a1674352d48154ca1be5c9f772c5ef356953a07bf60f0664736f6c63430008170033608060405234801561001057600080fd5b506040516120ef3803806120ef83398101604081905261002f91610054565b600080546001600160a01b0319166001600160a01b0392909216919091179055610084565b60006020828403121561006657600080fd5b81516001600160a01b038116811461007d57600080fd5b9392505050565b61205c806100936000396000f3fe608060405234801561001057600080fd5b50600436106100c95760003560e01c80634b64e4921161008157806374f130701161005b57806374f1307014610176578063d70968e714610189578063e7da4c7e1461019c57600080fd5b80634b64e4921461013057806360fb55d5146101505780636df864781461016357600080fd5b806331495d33116100b257806331495d331461010a578063410dbb8b1461011d57806346bdca9a146100ce57600080fd5b8063235266d2146100ce57806330191626146100f7575b600080fd5b6100e16100dc366004611690565b6101af565b6040516100ee91906117bb565b60405180910390f35b6100e16101053660046117d5565b61025e565b6100e1610118366004611813565b610318565b6100e161012b366004611857565b6103e9565b61014361013e366004611874565b6104e9565b6040516100ee919061188f565b6100e161015e3660046119d7565b610938565b6100e1610171366004611a97565b610a14565b6100e1610184366004611857565b610af0565b6100e1610197366004611813565b610bf1565b6100e16101aa366004611b50565b610cb8565b6101e36040518060a00160405280600015158152602001606081526020016060815260200160608152602001606081525090565b815160208084019190912084519185019190912014808252610228578282604051602001610212929190611baa565b60408051601f1981840301815291905260208201525b604080820193909352606081019190915281518083019092526005825264195c5d585b60da1b6020830152608081019190915290565b6102926040518060a00160405280600015158152602001606081526020016060815260200160608152602001606081525090565b8282148082526102d5576102a583610d94565b6102ae83610d94565b6040516020016102bf929190611baa565b60408051601f1981840301815291905260208201525b6102de83610d94565b60408201526102ec82610d94565b6060820152604080518082019091526005815264195c5d585b60da1b6020820152608082015292915050565b61034c6040518060a00160405280600015158152602001606081526020016060815260200160608152602001606081525090565b6001600160a01b038381169083168114825260009061036c906014610e34565b90506000610384846001600160a01b03166014610e34565b83519091506103b65781816040516020016103a0929190611baa565b60408051601f1981840301815291905260208401525b604080840192909252606083015280518082019091526005815264195c5d585b60da1b6020820152608082015292915050565b61041d6040518060a00160405280600015158152602001606081526020016060815260200160608152602001606081525090565b811580825261044557604051806060016040528060238152602001611f906023913960208201525b600182151514610472576040518060400160405280600581526020016466616c736560d81b815250610490565b604051806040016040528060048152602001637472756560e01b8152505b6040808301919091528051602080820183526000825260608401919091528151808301909252600782527f697346616c736500000000000000000000000000000000000000000000000000908201526080820152919050565b6104f1611597565b816104fa611597565b610507816020015161103c565b50604051806060016040528060308152602001611fd56030913981600001819052506000826001600160a01b031663d54ad2a16040518163ffffffff1660e01b81526004016020604051808303816000875af115801561056b573d6000803e3d6000fd5b505050506040513d601f19601f8201168201806040525081019061058f9190611c2b565b60008054604051630f41a04d60e11b81526001600160a01b03878116600483015293945091928392911690631e83409a906024016000604051808303816000875af11580156105e2573d6000803e3d6000fd5b505050506040513d6000823e601f3d908101601f1916820160405261060a9190810190611c44565b9150915080156106a2576040805160a081018252600080825282518084018452601481527f43616c6c20746f20636c61696d206661696c6564000000000000000000000000602082810191909152808401919091528351808201855282815283850152835180820185528281526060840152835180820190945290835260808201929092529085015161069c916110b8565b50610748565b6000546040517f27e235e30000000000000000000000000000000000000000000000000000000081526001600160a01b0391821660048201526107469161073b91908816906327e235e3906024016020604051808303816000875af115801561070f573d6000803e3d6000fd5b505050506040513d601f19601f820116820180604052508101906107339190611c2b565b6103e861025e565b6020860151906110b8565b505b600054604051630f41a04d60e11b81526001600160a01b03878116600483015290911690631e83409a906024016000604051808303816000875af1158015610794573d6000803e3d6000fd5b505050506040513d6000823e601f3d908101601f191682016040526107bc9190810190611c44565b90925090508061083d576108376040518060a00160405280600015158152602001604051806060016040528060228152602001612005602291398152604080516020818101835260008083528185019290925282518082018452828152838501528251808201909352908252606090920152860151906110b8565b506108a5565b6040805160048152602481019091526020810180517bffffffffffffffffffffffffffffffffffffffffffffffffffffffff167f0b1327a6000000000000000000000000000000000000000000000000000000001790526108a39061073b9084906101af565b505b6000856001600160a01b031663d54ad2a16040518163ffffffff1660e01b81526004016020604051808303816000875af11580156108e7573d6000803e3d6000fd5b505050506040513d601f19601f8201168201806040525081019061090b9190611c2b565b905061092b61092082610105876103e8611ce8565b6020870151906110b8565b5093979650505050505050565b61096c6040518060a00160405280600015158152602001606081526020016060815260200160608152602001606081525090565b8160405160200161097d9190611cfb565b60405160208183030381529060405280519060200120836040516020016109a49190611cfb565b60408051601f198184030181529190528051602090910120148082526109fd576109cd83611128565b6109d683611128565b6040516020016109e7929190611baa565b60408051601f1981840301815291905260208201525b610a0683611128565b60408201526102ec82611128565b610a486040518060a00160405280600015158152602001606081526020016060815260200160608152602001606081525090565b81604051602001610a599190611d5f565b6040516020818303038152906040528051906020012083604051602001610a809190611d5f565b60408051601f19818403018152919052805160209091012014808252610ad957610aa9836111f3565b610ab2836111f3565b604051602001610ac3929190611baa565b60408051601f1981840301815291905260208201525b610ae2836111f3565b60408201526102ec826111f3565b610b246040518060a00160405280600015158152602001606081526020016060815260200160608152602001606081525090565b811515808252610b4d57604051806060016040528060228152602001611fb36022913960208201525b600182151514610b7a576040518060400160405280600581526020016466616c736560d81b815250610b98565b604051806040016040528060048152602001637472756560e01b8152505b6040808301919091528051602080820183526000825260608401919091528151808301909252600682527f6973547275650000000000000000000000000000000000000000000000000000908201526080820152919050565b610c256040518060a00160405280600015158152602001606081526020016060815260200160608152602001606081525090565b6001600160a01b038381169083168114158252600090610c46906014610e34565b8251909150610c765780604051602001610c609190611dac565b60408051601f1981840301815291905260208301525b60408083019190915280516020808201835260008252606084019190915281518083019092526005825264195c5d585b60da1b90820152608082015292915050565b610cec6040518060a00160405280600015158152602001606081526020016060815260200160608152602001606081525090565b81604051602001610cfd9190611e17565b6040516020818303038152906040528051906020012083604051602001610d249190611e17565b60408051601f19818403018152919052805160209091012014808252610d7d57610d4d836112c5565b610d56836112c5565b604051602001610d67929190611baa565b60408051601f1981840301815291905260208201525b610d86836112c5565b60408201526102ec826112c5565b60606000610da18361138c565b600101905060008167ffffffffffffffff811115610dc157610dc16115cb565b6040519080825280601f01601f191660200182016040528015610deb576020820181803683370190505b5090508181016020015b600019017f3031323334353637383961626364656600000000000000000000000000000000600a86061a8153600a8504945084610df557509392505050565b60606000610e43836002611e4f565b610e4e906002611ce8565b67ffffffffffffffff811115610e6657610e666115cb565b6040519080825280601f01601f191660200182016040528015610e90576020820181803683370190505b5090507f300000000000000000000000000000000000000000000000000000000000000081600081518110610ec757610ec7611e66565b60200101906001600160f81b031916908160001a9053507f780000000000000000000000000000000000000000000000000000000000000081600181518110610f1257610f12611e66565b60200101906001600160f81b031916908160001a9053506000610f36846002611e4f565b610f41906001611ce8565b90505b6001811115610fc6577f303132333435363738396162636465660000000000000000000000000000000085600f1660108110610f8257610f82611e66565b1a60f81b828281518110610f9857610f98611e66565b60200101906001600160f81b031916908160001a90535060049490941c93610fbf81611e7c565b9050610f44565b508315611033576040517f08c379a000000000000000000000000000000000000000000000000000000000815260206004820181905260248201527f537472696e67733a20686578206c656e67746820696e73756666696369656e74604482015260640160405180910390fd5b90505b92915050565b60408051808201825260608152600060208201528151600480825260a082019093529091816020015b6110996040518060a00160405280600015158152602001606081526020016060815260200160608152602001606081525090565b8152602001906001900390816110655750508252506000602082015290565b6040805180820190915260608152600060208201528251516020840151036110e6576110e38361146e565b92505b81836000015184602001518151811061110157611101611e66565b602002602001018190525082602001805180919061111e90611e93565b9052509192915050565b6040805180820190915260018152605b60f81b602082015260609060005b83518110156111ec576001845161115d9190611eac565b8110156111a6578184828151811061117757611177611e66565b6020026020010151604051602001611190929190611ebf565b60405160208183030381529060405291506111e4565b818482815181106111b9576111b9611e66565b60200260200101516040516020016111d2929190611f16565b60405160208183030381529060405291505b600101611146565b5092915050565b6040805180820190915260018152605b60f81b602082015260609060005b83518110156111ec57600184516112289190611eac565b811015611284578161125d85838151811061124557611245611e66565b60200260200101516001600160a01b03166014610e34565b60405160200161126e929190611ebf565b60405160208183030381529060405291506112bd565b8161129a85838151811061124557611245611e66565b6040516020016112ab929190611f16565b60405160208183030381529060405291505b600101611211565b6040805180820190915260018152605b60f81b602082015260609060005b83518110156111ec57600184516112fa9190611eac565b81101561134b578161132485838151811061131757611317611e66565b6020026020010151610d94565b604051602001611335929190611ebf565b6040516020818303038152906040529150611384565b8161136185838151811061131757611317611e66565b604051602001611372929190611f16565b60405160208183030381529060405291505b6001016112e3565b6000807a184f03e93ff9f4daa797ed6e38ed64bf6a1f01000000000000000083106113d5577a184f03e93ff9f4daa797ed6e38ed64bf6a1f010000000000000000830492506040015b6d04ee2d6d415b85acef81000000008310611401576d04ee2d6d415b85acef8100000000830492506020015b662386f26fc10000831061141f57662386f26fc10000830492506010015b6305f5e1008310611437576305f5e100830492506008015b612710831061144b57612710830492506004015b6064831061145d576064830492506002015b600a83106110365760010192915050565b6040805180820190915260608152600060208201526040805180820190915260608152600060208201528251516002906114a9906003611e4f565b6114b39190611f6d565b67ffffffffffffffff8111156114cb576114cb6115cb565b60405190808252806020026020018201604052801561153057816020015b61151d6040518060a00160405280600015158152602001606081526020016060815260200160608152602001606081525090565b8152602001906001900390816114e95790505b50815260005b83515181101561158557835180518290811061155457611554611e66565b60200260200101518260000151828151811061157257611572611e66565b6020908102919091010152600101611536565b50602092830151928101929092525090565b6040518060400160405280606081526020016115c6604051806040016040528060608152602001600081525090565b905290565b634e487b7160e01b600052604160045260246000fd5b604051601f8201601f1916810167ffffffffffffffff8111828210171561160a5761160a6115cb565b604052919050565b600067ffffffffffffffff82111561162c5761162c6115cb565b50601f01601f191660200190565b600082601f83011261164b57600080fd5b813561165e61165982611612565b6115e1565b81815284602083860101111561167357600080fd5b816020850160208301376000918101602001919091529392505050565b600080604083850312156116a357600080fd5b823567ffffffffffffffff808211156116bb57600080fd5b6116c78683870161163a565b935060208501359150808211156116dd57600080fd5b506116ea8582860161163a565b9150509250929050565b60005b8381101561170f5781810151838201526020016116f7565b50506000910152565b600081518084526117308160208601602086016116f4565b601f01601f19169290920160200192915050565b8051151582526000602082015160a0602085015261176560a0850182611718565b90506040830151848203604086015261177e8282611718565b915050606083015184820360608601526117988282611718565b915050608083015184820360808601526117b28282611718565b95945050505050565b6020815260006117ce6020830184611744565b9392505050565b600080604083850312156117e857600080fd5b50508035926020909101359150565b80356001600160a01b038116811461180e57600080fd5b919050565b6000806040838503121561182657600080fd5b61182f836117f7565b915061183d602084016117f7565b90509250929050565b801515811461185457600080fd5b50565b60006020828403121561186957600080fd5b813561103381611846565b60006020828403121561188657600080fd5b6117ce826117f7565b6000602080835283516040828501526118ab6060850182611718565b905081850151601f198583030160408601526040820181516040845281815180845260608601915060608160051b8701019350868301925060005b8181101561191457605f19878603018352611902858551611744565b945092870192918701916001016118e6565b505050509083015191909201529392505050565b600067ffffffffffffffff821115611942576119426115cb565b5060051b60200190565b600082601f83011261195d57600080fd5b8135602061196d61165983611928565b82815260059290921b8401810191818101908684111561198c57600080fd5b8286015b848110156119cc57803567ffffffffffffffff8111156119b05760008081fd5b6119be8986838b010161163a565b845250918301918301611990565b509695505050505050565b600080604083850312156119ea57600080fd5b823567ffffffffffffffff80821115611a0257600080fd5b611a0e8683870161194c565b93506020850135915080821115611a2457600080fd5b506116ea8582860161194c565b600082601f830112611a4257600080fd5b81356020611a5261165983611928565b8083825260208201915060208460051b870101935086841115611a7457600080fd5b602086015b848110156119cc57611a8a816117f7565b8352918301918301611a79565b60008060408385031215611aaa57600080fd5b823567ffffffffffffffff80821115611ac257600080fd5b611ace86838701611a31565b93506020850135915080821115611ae457600080fd5b506116ea85828601611a31565b600082601f830112611b0257600080fd5b81356020611b1261165983611928565b8083825260208201915060208460051b870101935086841115611b3457600080fd5b602086015b848110156119cc5780358352918301918301611b39565b60008060408385031215611b6357600080fd5b823567ffffffffffffffff80821115611b7b57600080fd5b611b8786838701611af1565b93506020850135915080821115611b9d57600080fd5b506116ea85828601611af1565b7f417373657274696f6e4572726f723a2000000000000000000000000000000000815260008351611be28160108501602088016116f4565b7f206973206e6f7420657175616c20746f200000000000000000000000000000006010918401918201528351611c1f8160218401602088016116f4565b01602101949350505050565b600060208284031215611c3d57600080fd5b5051919050565b60008060408385031215611c5757600080fd5b825167ffffffffffffffff811115611c6e57600080fd5b8301601f81018513611c7f57600080fd5b8051611c8d61165982611612565b818152866020838501011115611ca257600080fd5b611cb38260208301602086016116f4565b8094505050506020830151611cc781611846565b809150509250929050565b634e487b7160e01b600052601160045260246000fd5b8082018082111561103657611036611cd2565b600060208083016020845280855180835260408601915060408160051b87010192506020870160005b82811015611d5257603f19888603018452611d40858351611718565b94509285019290850190600101611d24565b5092979650505050505050565b6020808252825182820181905260009190848201906040850190845b81811015611da05783516001600160a01b031683529284019291840191600101611d7b565b50909695505050505050565b7f417373657274696f6e4572726f723a200000000000000000000000000000000081527f20426f74682076616c7565732061726500000000000000000000000000000000601082015260008251611e0a8160208501602087016116f4565b9190910160200192915050565b6020808252825182820181905260009190848201906040850190845b81811015611da057835183529284019291840191600101611e33565b808202811582820484141761103657611036611cd2565b634e487b7160e01b600052603260045260246000fd5b600081611e8b57611e8b611cd2565b506000190190565b600060018201611ea557611ea5611cd2565b5060010190565b8181038181111561103657611036611cd2565b60008351611ed18184602088016116f4565b835190830190611ee58183602088016116f4565b7f2c200000000000000000000000000000000000000000000000000000000000009101908152600201949350505050565b60008351611f288184602088016116f4565b835190830190611f3c8183602088016116f4565b7f5d000000000000000000000000000000000000000000000000000000000000009101908152600101949350505050565b600082611f8a57634e487b7160e01b600052601260045260246000fd5b50049056fe417373657274696f6e4572726f723a20726573756c74206973206e6f742066616c7365417373657274696f6e4572726f723a20726573756c74206973206e6f7420747275655365636f6e6420757365722073686f756c642062652061626c6520746f20636c61696d2065786163746c79206f6e6365457870656374656420726576657274207769746820546f6b656e73436c61696d6564a26469706673582212207e655ef8a3f412f776032509e9c9efe9cfa38b76bbfe12cd522a790f8cc305dd64736f6c63430008170033608060405234801561001057600080fd5b50612301806100206000396000f3fe608060405234801561001057600080fd5b50600436106100c95760003560e01c80634b64e4921161008157806374f130701161005b57806374f1307014610176578063d70968e714610189578063e7da4c7e1461019c57600080fd5b80634b64e4921461013057806360fb55d5146101505780636df864781461016357600080fd5b806331495d33116100b257806331495d331461010a578063410dbb8b1461011d57806346bdca9a146100ce57600080fd5b8063235266d2146100ce57806330191626146100f7575b600080fd5b6100e16100dc366004611985565b6101af565b6040516100ee9190611ab0565b60405180910390f35b6100e1610105366004611aca565b61025e565b6100e1610118366004611b08565b610318565b6100e161012b366004611b3b565b6103e9565b61014361013e366004611b5d565b6104e9565b6040516100ee9190611b78565b6100e161015e366004611cc5565b610a1b565b6100e1610171366004611d85565b610af7565b6100e1610184366004611b3b565b610bd3565b6100e1610197366004611b08565b610cd4565b6100e16101aa366004611e3e565b610d9b565b6101e36040518060a00160405280600015158152602001606081526020016060815260200160608152602001606081525090565b815160208084019190912084519185019190912014808252610228578282604051602001610212929190611e98565b60408051601f1981840301815291905260208201525b604080820193909352606081019190915281518083019092526005825264195c5d585b60da1b6020830152608081019190915290565b6102926040518060a00160405280600015158152602001606081526020016060815260200160608152602001606081525090565b8282148082526102d5576102a583610e77565b6102ae83610e77565b6040516020016102bf929190611e98565b60408051601f1981840301815291905260208201525b6102de83610e77565b60408201526102ec82610e77565b6060820152604080518082019091526005815264195c5d585b60da1b6020820152608082015292915050565b61034c6040518060a00160405280600015158152602001606081526020016060815260200160608152602001606081525090565b6001600160a01b038381169083168114825260009061036c906014610f17565b90506000610384846001600160a01b03166014610f17565b83519091506103b65781816040516020016103a0929190611e98565b60408051601f1981840301815291905260208401525b604080840192909252606083015280518082019091526005815264195c5d585b60da1b6020820152608082015292915050565b61041d6040518060a00160405280600015158152602001606081526020016060815260200160608152602001606081525090565b8115808252610445576040518060600160405280602381526020016122876023913960208201525b600182151514610472576040518060400160405280600581526020016466616c736560d81b815250610490565b604051806040016040528060048152602001637472756560e01b8152505b6040808301919091528051602080820183526000825260608401919091528151808301909252600782527f697346616c736500000000000000000000000000000000000000000000000000908201526080820152919050565b6104f161188e565b816104fa61188e565b610507816020015161111f565b5060405180606001604052806028815260200161225f60289139815260008061052f8461119b565b9150915080156105c7576040805160a081018252600080825282518084018452601481527f43616c6c20746f20636c61696d206661696c656400000000000000000000000060208281019190915280840191909152835180820185528281528385015283518082018552828152606084015283518082019094529083526080820192909252908401516105c191611242565b5061064e565b6040516327e235e360e01b815230600482015261064c90610641906001600160a01b038716906327e235e3906024016020604051808303816000875af1158015610615573d6000803e3d6000fd5b505050506040513d601f19601f820116820180604052508101906106399190611f19565b6103e861025e565b602085015190611242565b505b600060405161065c906118c2565b604051809103906000f080158015610678573d6000803e3d6000fd5b50905061069b857383c4afd6e1400b78c9ac9b9dc9a5ceed726a6d3660646112b2565b90935091508115610734576040805160a081018252600080825282518084018452601b81527f43616c6c20746f20736166655472616e73666572206661696c65640000000000602082810191909152808401919091528351808201855282815283850152835180820185528281526060840152835180820190945290835260808201929092529085015161072e91611242565b506107ce565b6040516327e235e360e01b81527383c4afd6e1400b78c9ac9b9dc9a5ceed726a6d3660048201526107cc906107c1906001600160a01b038816906327e235e3906024016020604051808303816000875af1158015610796573d6000803e3d6000fd5b505050506040513d601f19601f820116820180604052508101906107ba9190611f19565b606461025e565b602086015190611242565b505b6107da858260646112b2565b9093509150816108a0576108126040518060400160405280600d81526020016c191a591b89dd081c995d995c9d609a1b815250611386565b6040805160a081018252600080825282518084018452601e81527f457870656374656420556e736166655472616e73666572207265766572740000602082810191909152808401919091528351808201855282815283850152835180820185528281526060840152835180820190945290835260808201929092529085015161089a91611242565b5061091f565b6040516001600160a01b038216602482015261091d906107c19085906044015b60408051601f198184030181529190526020810180517bffffffffffffffffffffffffffffffffffffffffffffffffffffffff167f6a86d24c000000000000000000000000000000000000000000000000000000001790526101af565b505b61092c85600060646112b2565b9093509150816109f2576109646040518060400160405280600d81526020016c191a591b89dd081c995d995c9d609a1b815250611386565b6040805160a081018252600080825282518084018452601e81527f457870656374656420556e736166655472616e7366657220726576657274000060208281019190915280840191909152835180820185528281528385015283518082018552828152606084015283518082019094529083526080820192909252908501516109ec91611242565b50610a10565b60405160006024820152610a0e906107c19085906044016108c0565b505b509195945050505050565b610a4f6040518060a00160405280600015158152602001606081526020016060815260200160608152602001606081525090565b81604051602001610a609190611f32565b6040516020818303038152906040528051906020012083604051602001610a879190611f32565b60408051601f19818403018152919052805160209091012014808252610ae057610ab0836113fa565b610ab9836113fa565b604051602001610aca929190611e98565b60408051601f1981840301815291905260208201525b610ae9836113fa565b60408201526102ec826113fa565b610b2b6040518060a00160405280600015158152602001606081526020016060815260200160608152602001606081525090565b81604051602001610b3c9190611f96565b6040516020818303038152906040528051906020012083604051602001610b639190611f96565b60408051601f19818403018152919052805160209091012014808252610bbc57610b8c836114c5565b610b95836114c5565b604051602001610ba6929190611e98565b60408051601f1981840301815291905260208201525b610bc5836114c5565b60408201526102ec826114c5565b610c076040518060a00160405280600015158152602001606081526020016060815260200160608152602001606081525090565b811515808252610c30576040518060600160405280602281526020016122aa6022913960208201525b600182151514610c5d576040518060400160405280600581526020016466616c736560d81b815250610c7b565b604051806040016040528060048152602001637472756560e01b8152505b6040808301919091528051602080820183526000825260608401919091528151808301909252600682527f6973547275650000000000000000000000000000000000000000000000000000908201526080820152919050565b610d086040518060a00160405280600015158152602001606081526020016060815260200160608152602001606081525090565b6001600160a01b038381169083168114158252600090610d29906014610f17565b8251909150610d595780604051602001610d439190611fe3565b60408051601f1981840301815291905260208301525b60408083019190915280516020808201835260008252606084019190915281518083019092526005825264195c5d585b60da1b90820152608082015292915050565b610dcf6040518060a00160405280600015158152602001606081526020016060815260200160608152602001606081525090565b81604051602001610de0919061204e565b6040516020818303038152906040528051906020012083604051602001610e07919061204e565b60408051601f19818403018152919052805160209091012014808252610e6057610e3083611597565b610e3983611597565b604051602001610e4a929190611e98565b60408051601f1981840301815291905260208201525b610e6983611597565b60408201526102ec82611597565b60606000610e848361165e565b600101905060008167ffffffffffffffff811115610ea457610ea46118ce565b6040519080825280601f01601f191660200182016040528015610ece576020820181803683370190505b5090508181016020015b600019017f3031323334353637383961626364656600000000000000000000000000000000600a86061a8153600a8504945084610ed857509392505050565b60606000610f2683600261209c565b610f319060026120b3565b67ffffffffffffffff811115610f4957610f496118ce565b6040519080825280601f01601f191660200182016040528015610f73576020820181803683370190505b5090507f300000000000000000000000000000000000000000000000000000000000000081600081518110610faa57610faa6120c6565b60200101906001600160f81b031916908160001a9053507f780000000000000000000000000000000000000000000000000000000000000081600181518110610ff557610ff56120c6565b60200101906001600160f81b031916908160001a905350600061101984600261209c565b6110249060016120b3565b90505b60018111156110a9577f303132333435363738396162636465660000000000000000000000000000000085600f1660108110611065576110656120c6565b1a60f81b82828151811061107b5761107b6120c6565b60200101906001600160f81b031916908160001a90535060049490941c936110a2816120dc565b9050611027565b508315611116576040517f08c379a000000000000000000000000000000000000000000000000000000000815260206004820181905260248201527f537472696e67733a20686578206c656e67746820696e73756666696369656e74604482015260640160405180910390fd5b90505b92915050565b60408051808201825260608152600060208201528151600480825260a082019093529091816020015b61117c6040518060a00160405280600015158152602001606081526020016060815260200160608152602001606081525090565b8152602001906001900390816111485750508252506000602082015290565b60606000826001600160a01b0316634e71d92d6040518163ffffffff1660e01b8152600401600060405180830381600087803b1580156111da57600080fd5b505af19250505080156111eb575060015b611229573d808015611219576040519150601f19603f3d011682016040523d82523d6000602084013e61121e565b606091505b509360019350915050565b5050604080516020810190915260008082529092909150565b6040805180820190915260608152600060208201528251516020840151036112705761126d83611740565b92505b81836000015184602001518151811061128b5761128b6120c6565b60200260200101819052508260200180518091906112a8906120f3565b9052509192915050565b6040517f423f6cef0000000000000000000000000000000000000000000000000000000081526001600160a01b0383811660048301526024820183905260609160009186169063423f6cef90604401600060405180830381600087803b15801561131b57600080fd5b505af192505050801561132c575060015b61136b573d80801561135a576040519150601f19603f3d011682016040523d82523d6000602084013e61135f565b606091505b5091506001905061137e565b5050604080516020810190915260008082525b935093915050565b6113f78160405160240161139a919061210c565b60408051601f198184030181529190526020810180517bffffffffffffffffffffffffffffffffffffffffffffffffffffffff167f41304fac00000000000000000000000000000000000000000000000000000000179052611869565b50565b6040805180820190915260018152605b60f81b602082015260609060005b83518110156114be576001845161142f919061211f565b8110156114785781848281518110611449576114496120c6565b6020026020010151604051602001611462929190612132565b60405160208183030381529060405291506114b6565b8184828151811061148b5761148b6120c6565b60200260200101516040516020016114a4929190612189565b60405160208183030381529060405291505b600101611418565b5092915050565b6040805180820190915260018152605b60f81b602082015260609060005b83518110156114be57600184516114fa919061211f565b811015611556578161152f858381518110611517576115176120c6565b60200260200101516001600160a01b03166014610f17565b604051602001611540929190612132565b604051602081830303815290604052915061158f565b8161156c858381518110611517576115176120c6565b60405160200161157d929190612189565b60405160208183030381529060405291505b6001016114e3565b6040805180820190915260018152605b60f81b602082015260609060005b83518110156114be57600184516115cc919061211f565b81101561161d57816115f68583815181106115e9576115e96120c6565b6020026020010151610e77565b604051602001611607929190612132565b6040516020818303038152906040529150611656565b816116338583815181106115e9576115e96120c6565b604051602001611644929190612189565b60405160208183030381529060405291505b6001016115b5565b6000807a184f03e93ff9f4daa797ed6e38ed64bf6a1f01000000000000000083106116a7577a184f03e93ff9f4daa797ed6e38ed64bf6a1f010000000000000000830492506040015b6d04ee2d6d415b85acef810000000083106116d3576d04ee2d6d415b85acef8100000000830492506020015b662386f26fc1000083106116f157662386f26fc10000830492506010015b6305f5e1008310611709576305f5e100830492506008015b612710831061171d57612710830492506004015b6064831061172f576064830492506002015b600a83106111195760010192915050565b60408051808201909152606081526000602082015260408051808201909152606081526000602082015282515160029061177b90600361209c565b61178591906121e0565b67ffffffffffffffff81111561179d5761179d6118ce565b60405190808252806020026020018201604052801561180257816020015b6117ef6040518060a00160405280600015158152602001606081526020016060815260200160608152602001606081525090565b8152602001906001900390816117bb5790505b50815260005b835151811015611857578351805182908110611826576118266120c6565b602002602001015182600001518281518110611844576118446120c6565b6020908102919091010152600101611808565b50602092830151928101929092525090565b6113f78160006a636f6e736f6c652e6c6f679050600080835160208501845afa505050565b6040518060400160405280606081526020016118bd604051806040016040528060608152602001600081525090565b905290565b605c8061220383390190565b634e487b7160e01b600052604160045260246000fd5b604051601f8201601f1916810167ffffffffffffffff8111828210171561190d5761190d6118ce565b604052919050565b600082601f83011261192657600080fd5b813567ffffffffffffffff811115611940576119406118ce565b611953601f8201601f19166020016118e4565b81815284602083860101111561196857600080fd5b816020850160208301376000918101602001919091529392505050565b6000806040838503121561199857600080fd5b823567ffffffffffffffff808211156119b057600080fd5b6119bc86838701611915565b935060208501359150808211156119d257600080fd5b506119df85828601611915565b9150509250929050565b60005b83811015611a045781810151838201526020016119ec565b50506000910152565b60008151808452611a258160208601602086016119e9565b601f01601f19169290920160200192915050565b8051151582526000602082015160a06020850152611a5a60a0850182611a0d565b905060408301518482036040860152611a738282611a0d565b91505060608301518482036060860152611a8d8282611a0d565b91505060808301518482036080860152611aa78282611a0d565b95945050505050565b602081526000611ac36020830184611a39565b9392505050565b60008060408385031215611add57600080fd5b50508035926020909101359150565b80356001600160a01b0381168114611b0357600080fd5b919050565b60008060408385031215611b1b57600080fd5b611b2483611aec565b9150611b3260208401611aec565b90509250929050565b600060208284031215611b4d57600080fd5b8135801515811461111657600080fd5b600060208284031215611b6f57600080fd5b611ac382611aec565b600060208083528351604082850152611b946060850182611a0d565b905081850151601f198583030160408601526040820181516040845281815180845260608601915060608160051b8701019350868301925060005b81811015611bfd57605f19878603018352611beb858551611a39565b94509287019291870191600101611bcf565b505050509083015191909201529392505050565b600067ffffffffffffffff821115611c2b57611c2b6118ce565b5060051b60200190565b600082601f830112611c4657600080fd5b81356020611c5b611c5683611c11565b6118e4565b82815260059290921b84018101918181019086841115611c7a57600080fd5b8286015b84811015611cba57803567ffffffffffffffff811115611c9e5760008081fd5b611cac8986838b0101611915565b845250918301918301611c7e565b509695505050505050565b60008060408385031215611cd857600080fd5b823567ffffffffffffffff80821115611cf057600080fd5b611cfc86838701611c35565b93506020850135915080821115611d1257600080fd5b506119df85828601611c35565b600082601f830112611d3057600080fd5b81356020611d40611c5683611c11565b8083825260208201915060208460051b870101935086841115611d6257600080fd5b602086015b84811015611cba57611d7881611aec565b8352918301918301611d67565b60008060408385031215611d9857600080fd5b823567ffffffffffffffff80821115611db057600080fd5b611dbc86838701611d1f565b93506020850135915080821115611dd257600080fd5b506119df85828601611d1f565b600082601f830112611df057600080fd5b81356020611e00611c5683611c11565b8083825260208201915060208460051b870101935086841115611e2257600080fd5b602086015b84811015611cba5780358352918301918301611e27565b60008060408385031215611e5157600080fd5b823567ffffffffffffffff80821115611e6957600080fd5b611e7586838701611ddf565b93506020850135915080821115611e8b57600080fd5b506119df85828601611ddf565b7f417373657274696f6e4572726f723a2000000000000000000000000000000000815260008351611ed08160108501602088016119e9565b7f206973206e6f7420657175616c20746f200000000000000000000000000000006010918401918201528351611f0d8160218401602088016119e9565b01602101949350505050565b600060208284031215611f2b57600080fd5b5051919050565b600060208083016020845280855180835260408601915060408160051b87010192506020870160005b82811015611f8957603f19888603018452611f77858351611a0d565b94509285019290850190600101611f5b565b5092979650505050505050565b6020808252825182820181905260009190848201906040850190845b81811015611fd75783516001600160a01b031683529284019291840191600101611fb2565b50909695505050505050565b7f417373657274696f6e4572726f723a200000000000000000000000000000000081527f20426f74682076616c75657320617265000000000000000000000000000000006010820152600082516120418160208501602087016119e9565b9190910160200192915050565b6020808252825182820181905260009190848201906040850190845b81811015611fd75783518352928401929184019160010161206a565b634e487b7160e01b600052601160045260246000fd5b808202811582820484141761111957611119612086565b8082018082111561111957611119612086565b634e487b7160e01b600052603260045260246000fd5b6000816120eb576120eb612086565b506000190190565b60006001820161210557612105612086565b5060010190565b602081526000611ac36020830184611a0d565b8181038181111561111957611119612086565b600083516121448184602088016119e9565b8351908301906121588183602088016119e9565b7f2c200000000000000000000000000000000000000000000000000000000000009101908152600201949350505050565b6000835161219b8184602088016119e9565b8351908301906121af8183602088016119e9565b7f5d000000000000000000000000000000000000000000000000000000000000009101908152600101949350505050565b6000826121fd57634e487b7160e01b600052601260045260246000fd5b50049056fe6080604052348015600f57600080fd5b50603f80601d6000396000f3fe6080604052600080fdfea264697066735822122083f31df6ce8b6459c16f6dcc336ef1cd469ca197b31789e12cea0d41416b5f7c64736f6c6343000817003353686f756c64206f6e6c79207472616e7366657220746f2066756e64656420616464726573736573417373657274696f6e4572726f723a20726573756c74206973206e6f742066616c7365417373657274696f6e4572726f723a20726573756c74206973206e6f742074727565a26469706673582212208f16694a17d801edc922ef59654d285e97ef535b9c405b1fcb074f142e2cd56464736f6c63430008170033",
  "devdoc": {
    "events": {
      "Approval(address,address,uint256)": {
        "details": "Emitted when `owner` enables `approved` to manage the `tokenId` token."
      },
      "ApprovalForAll(address,address,bool)": {
        "details": "Emitted when `owner` enables or disables (`approved`) `operator` to manage all of its assets."
      },
      "Transfer(address,address,uint256)": {
        "details": "Emitted when `tokenId` token is transferred from `from` to `to`."
      }
    },
    "kind": "dev",
    "methods": {
      "approve(address,uint256)": {
        "details": "See {IERC721-approve}."
      },
      "balanceOf(address)": {
        "details": "See {IERC721-balanceOf}."
      },
      "getApproved(uint256)": {
        "details": "See {IERC721-getApproved}."
      },
      "isApprovedForAll(address,address)": {
        "details": "See {IERC721-isApprovedForAll}."
      },
      "name()": {
        "details": "See {IERC721Metadata-name}."
      },
      "owner()": {
        "details": "Returns the address of the current owner."
      },
      "ownerOf(uint256)": {
        "details": "See {IERC721-ownerOf}."
      },
      "renounceOwnership()": {
        "details": "Leaves the contract without owner. It will not be possible to call `onlyOwner` functions. Can only be called by the current owner. NOTE: Renouncing ownership will leave the contract without an owner, thereby disabling any functionality that is only available to the owner."
      },
      "safeTransferFrom(address,address,uint256)": {
        "details": "See {IERC721-safeTransferFrom}."
      },
      "safeTransferFrom(address,address,uint256,bytes)": {
        "details": "See {IERC721-safeTransferFrom}."
      },
      "setApprovalForAll(address,bool)": {
        "details": "See {IERC721-setApprovalForAll}."
      },
      "supportsInterface(bytes4)": {
        "details": "See {IERC165-supportsInterface}."
      },
      "symbol()": {
        "details": "See {IERC721Metadata-symbol}."
      },
      "transferFrom(address,address,uint256)": {
        "details": "See {IERC721-transferFrom}."
      },
      "transferOwnership(address)": {
        "details": "Transfers ownership of the contract to a new account (`newOwner`). Can only be called by the current owner."
      }
    },
    "version": 1
  },
  "userdoc": {
    "kind": "user",
    "methods": {
      "checkIfAllPassed((string,((bool,string,string,string,string)[],uint256))[])": {
        "notice": "Check each assert in each test to see if any failed. Note:  The check is here instead of setting a `passed` bool in `TestResult` to reduce the amount of code in each unit test."
      }
    },
    "version": 1
  },
  "storageLayout": {
    "storage": [
      {
        "astId": 893,
        "contract": "contracts/MinimalTokenUT.sol:MinimalTokenUT",
        "label": "_name",
        "offset": 0,
        "slot": "0",
        "type": "t_string_storage"
      },
      {
        "astId": 895,
        "contract": "contracts/MinimalTokenUT.sol:MinimalTokenUT",
        "label": "_symbol",
        "offset": 0,
        "slot": "1",
        "type": "t_string_storage"
      },
      {
        "astId": 899,
        "contract": "contracts/MinimalTokenUT.sol:MinimalTokenUT",
        "label": "_owners",
        "offset": 0,
        "slot": "2",
        "type": "t_mapping(t_uint256,t_address)"
      },
      {
        "astId": 903,
        "contract": "contracts/MinimalTokenUT.sol:MinimalTokenUT",
        "label": "_balances",
        "offset": 0,
        "slot": "3",
        "type": "t_mapping(t_address,t_uint256)"
      },
      {
        "astId": 907,
        "contract": "contracts/MinimalTokenUT.sol:MinimalTokenUT",
        "label": "_tokenApprovals",
        "offset": 0,
        "slot": "4",
        "type": "t_mapping(t_uint256,t_address)"
      },
      {
        "astId": 913,
        "contract": "contracts/MinimalTokenUT.sol:MinimalTokenUT",
        "label": "_operatorApprovals",
        "offset": 0,
        "slot": "5",
        "type": "t_mapping(t_address,t_mapping(t_address,t_bool))"
      },
      {
        "astId": 7,
        "contract": "contracts/MinimalTokenUT.sol:MinimalTokenUT",
        "label": "_owner",
        "offset": 0,
        "slot": "6",
        "type": "t_address"
      },
      {
        "astId": 123,
        "contract": "contracts/MinimalTokenUT.sol:MinimalTokenUT",
        "label": "_status",
        "offset": 0,
        "slot": "7",
        "type": "t_uint256"
      },
      {
        "astId": 6686,
        "contract": "contracts/MinimalTokenUT.sol:MinimalTokenUT",
        "label": "tokenIds",
        "offset": 0,
        "slot": "8",
        "type": "t_struct(Counter)2321_storage"
      },
      {
        "astId": 6690,
        "contract": "contracts/MinimalTokenUT.sol:MinimalTokenUT",
        "label": "owners",
        "offset": 0,
        "slot": "9",
        "type": "t_mapping(t_address,t_bool)"
      },
      {
        "astId": 6694,
        "contract": "contracts/MinimalTokenUT.sol:MinimalTokenUT",
        "label": "submittedContracts",
        "offset": 0,
        "slot": "10",
        "type": "t_mapping(t_address,t_bool)"
      },
      {
        "astId": 6697,
        "contract": "contracts/MinimalTokenUT.sol:MinimalTokenUT",
        "label": "active",
        "offset": 0,
        "slot": "11",
        "type": "t_bool"
      },
      {
        "astId": 6700,
        "contract": "contracts/MinimalTokenUT.sol:MinimalTokenUT",
        "label": "AllTokenURI",
        "offset": 0,
        "slot": "12",
        "type": "t_string_storage"
      },
      {
        "astId": 6720,
        "contract": "contracts/MinimalTokenUT.sol:MinimalTokenUT",
        "label": "tests",
        "offset": 0,
        "slot": "13",
        "type": "t_array(t_contract(ITest)6656)dyn_storage"
      },
      {
        "astId": 6724,
        "contract": "contracts/MinimalTokenUT.sol:MinimalTokenUT",
        "label": "deployer",
        "offset": 0,
        "slot": "14",
        "type": "t_contract(IDeploy)6667"
      }
    ],
    "types": {
      "t_address": {
        "encoding": "inplace",
        "label": "address",
        "numberOfBytes": "20"
      },
      "t_array(t_contract(ITest)6656)dyn_storage": {
        "base": "t_contract(ITest)6656",
        "encoding": "dynamic_array",
        "label": "contract ITest[]",
        "numberOfBytes": "32"
      },
      "t_bool": {
        "encoding": "inplace",
        "label": "bool",
        "numberOfBytes": "1"
      },
      "t_contract(IDeploy)6667": {
        "encoding": "inplace",
        "label": "contract IDeploy",
        "numberOfBytes": "20"
      },
      "t_contract(ITest)6656": {
        "encoding": "inplace",
        "label": "contract ITest",
        "numberOfBytes": "20"
      },
      "t_mapping(t_address,t_bool)": {
        "encoding": "mapping",
        "key": "t_address",
        "label": "mapping(address => bool)",
        "numberOfBytes": "32",
        "value": "t_bool"
      },
      "t_mapping(t_address,t_mapping(t_address,t_bool))": {
        "encoding": "mapping",
        "key": "t_address",
        "label": "mapping(address => mapping(address => bool))",
        "numberOfBytes": "32",
        "value": "t_mapping(t_address,t_bool)"
      },
      "t_mapping(t_address,t_uint256)": {
        "encoding": "mapping",
        "key": "t_address",
        "label": "mapping(address => uint256)",
        "numberOfBytes": "32",
        "value": "t_uint256"
      },
      "t_mapping(t_uint256,t_address)": {
        "encoding": "mapping",
        "key": "t_uint256",
        "label": "mapping(uint256 => address)",
        "numberOfBytes": "32",
        "value": "t_address"
      },
      "t_string_storage": {
        "encoding": "bytes",
        "label": "string",
        "numberOfBytes": "32"
      },
      "t_struct(Counter)2321_storage": {
        "encoding": "inplace",
        "label": "struct Counters.Counter",
        "members": [
          {
            "astId": 2320,
            "contract": "contracts/MinimalTokenUT.sol:MinimalTokenUT",
            "label": "_value",
            "offset": 0,
            "slot": "0",
            "type": "t_uint256"
          }
        ],
        "numberOfBytes": "32"
      },
      "t_uint256": {
        "encoding": "inplace",
        "label": "uint256",
        "numberOfBytes": "32"
      }
    }
  }
}