{
  "address": "0xa659efeB8e69457810c53F626929F739A08E15Be",
  "abi": [
    {
      "inputs": [],
      "stateMutability": "nonpayable",
      "type": "constructor"
    },
    {
      "inputs": [],
      "name": "AllTokensClaimed",
      "type": "error"
    },
    {
      "inputs": [
        {
          "internalType": "int256",
          "name": "amount",
          "type": "int256"
        }
      ],
      "name": "InsufficientTokens",
      "type": "error"
    },
    {
      "inputs": [],
      "name": "TokensClaimed",
      "type": "error"
    },
    {
      "inputs": [
        {
          "internalType": "address",
          "name": "_to",
          "type": "address"
        }
      ],
      "name": "UnsafeTransfer",
      "type": "error"
    },
    {
      "inputs": [
        {
          "internalType": "address",
          "name": "",
          "type": "address"
        }
      ],
      "name": "balances",
      "outputs": [
        {
          "internalType": "uint256",
          "name": "",
          "type": "uint256"
        }
      ],
      "stateMutability": "view",
      "type": "function"
    },
    {
      "inputs": [],
      "name": "claim",
      "outputs": [],
      "stateMutability": "nonpayable",
      "type": "function"
    },
    {
      "inputs": [
        {
          "internalType": "address",
          "name": "_to",
          "type": "address"
        },
        {
          "internalType": "uint256",
          "name": "_amount",
          "type": "uint256"
        }
      ],
      "name": "safeTransfer",
      "outputs": [],
      "stateMutability": "nonpayable",
      "type": "function"
    },
    {
      "inputs": [],
      "name": "totalClaimed",
      "outputs": [
        {
          "internalType": "uint256",
          "name": "",
          "type": "uint256"
        }
      ],
      "stateMutability": "view",
      "type": "function"
    },
    {
      "inputs": [],
      "name": "totalSupply",
      "outputs": [
        {
          "internalType": "uint256",
          "name": "",
          "type": "uint256"
        }
      ],
      "stateMutability": "view",
      "type": "function"
    }
  ],
  "transactionHash": "0x96b1e79351a33e3814d60285fecffc43857f371646a8de5c62f31dcfe5ef8b1b",
  "args": [],
  "numDeployments": 1,
  "solcInputHash": "840ae9efa03c3cca22907454cb805100",
  "bytecode": "0x60806040526103e860045534801561001657600080fd5b506305f5e1006002556103948061002e6000396000f3fe608060405234801561001057600080fd5b50600436106100675760003560e01c8063423f6cef11610050578063423f6cef146100a75780634e71d92d146100bc578063d54ad2a1146100c457600080fd5b806318160ddd1461006c57806327e235e314610087575b600080fd5b61007560025481565b60405190815260200160405180910390f35b6100756100953660046102b7565b60006020819052908152604090205481565b6100ba6100b53660046102d9565b6100cd565b005b6100ba6101c8565b61007560035481565b6001600160a01b0382163115806100eb57506001600160a01b038216155b15610132576040517f6a86d24c0000000000000000000000000000000000000000000000000000000081526001600160a01b03831660048201526024015b60405180910390fd5b3360009081526020819052604081205461014d908390610332565b9050600081121561018d576040517f7d2d5f8600000000000000000000000000000000000000000000000000000000815260048101829052602401610129565b336000908152602081905260408082208390556001600160a01b0385168252812080548492906101be90849061034b565b9091555050505050565b3360009081526001602081905260409091205460ff1615159003610218576040517f0b1327a600000000000000000000000000000000000000000000000000000000815260040160405180910390fd5b60025460035410610255576040517fcbe2483100000000000000000000000000000000000000000000000000000000815260040160405180910390fd5b60045460036000828254610269919061034b565b90915550506004543360009081526020818152604080832093909355600190819052919020805460ff19169091179055565b80356001600160a01b03811681146102b257600080fd5b919050565b6000602082840312156102c957600080fd5b6102d28261029b565b9392505050565b600080604083850312156102ec57600080fd5b6102f58361029b565b946020939093013593505050565b7f4e487b7100000000000000000000000000000000000000000000000000000000600052601160045260246000fd5b8181038181111561034557610345610303565b92915050565b808201808211156103455761034561030356fea26469706673582212203aa5c45aa5495de20f5e618bcef8a6a52c60b42dc549a5f19d1cdaa4ea68295464736f6c63430008170033",
  "devdoc": {
    "kind": "dev",
    "methods": {},
    "version": 1
  },
  "userdoc": {
    "kind": "user",
    "methods": {},
    "version": 1
  },
  "storageLayout": {
    "storage": [
      {
        "astId": 12976,
        "contract": "contracts/Exemplars/SafeToken.sol:SafeToken",
        "label": "balances",
        "offset": 0,
        "slot": "0",
        "type": "t_mapping(t_address,t_uint256)"
      },
      {
        "astId": 12980,
        "contract": "contracts/Exemplars/SafeToken.sol:SafeToken",
        "label": "claimed",
        "offset": 0,
        "slot": "1",
        "type": "t_mapping(t_address,t_bool)"
      },
      {
        "astId": 12982,
        "contract": "contracts/Exemplars/SafeToken.sol:SafeToken",
        "label": "totalSupply",
        "offset": 0,
        "slot": "2",
        "type": "t_uint256"
      },
      {
        "astId": 12984,
        "contract": "contracts/Exemplars/SafeToken.sol:SafeToken",
        "label": "totalClaimed",
        "offset": 0,
        "slot": "3",
        "type": "t_uint256"
      },
      {
        "astId": 12987,
        "contract": "contracts/Exemplars/SafeToken.sol:SafeToken",
        "label": "claimAmount",
        "offset": 0,
        "slot": "4",
        "type": "t_uint256"
      }
    ],
    "types": {
      "t_address": {
        "encoding": "inplace",
        "label": "address",
        "numberOfBytes": "20"
      },
      "t_bool": {
        "encoding": "inplace",
        "label": "bool",
        "numberOfBytes": "1"
      },
      "t_mapping(t_address,t_bool)": {
        "encoding": "mapping",
        "key": "t_address",
        "label": "mapping(address => bool)",
        "numberOfBytes": "32",
        "value": "t_bool"
      },
      "t_mapping(t_address,t_uint256)": {
        "encoding": "mapping",
        "key": "t_address",
        "label": "mapping(address => uint256)",
        "numberOfBytes": "32",
        "value": "t_uint256"
      },
      "t_uint256": {
        "encoding": "inplace",
        "label": "uint256",
        "numberOfBytes": "32"
      }
    }
  }
}