{
  "address": "0xFf9131CfFfc2c9d7bEb234a92d07BA8356A61208",
  "abi": [
    {
      "inputs": [
        {
          "internalType": "uint256",
          "name": "_hourlyRate",
          "type": "uint256"
        },
        {
          "internalType": "uint256",
          "name": "_idNumber",
          "type": "uint256"
        },
        {
          "internalType": "uint256",
          "name": "_managerId",
          "type": "uint256"
        }
      ],
      "stateMutability": "nonpayable",
      "type": "constructor"
    },
    {
      "inputs": [],
      "name": "getAnnualCost",
      "outputs": [
        {
          "internalType": "uint256",
          "name": "",
          "type": "uint256"
        }
      ],
      "stateMutability": "view",
      "type": "function"
    },
    {
      "inputs": [],
      "name": "hourlyRate",
      "outputs": [
        {
          "internalType": "uint256",
          "name": "",
          "type": "uint256"
        }
      ],
      "stateMutability": "view",
      "type": "function"
    },
    {
      "inputs": [],
      "name": "idNumber",
      "outputs": [
        {
          "internalType": "uint256",
          "name": "",
          "type": "uint256"
        }
      ],
      "stateMutability": "view",
      "type": "function"
    },
    {
      "inputs": [],
      "name": "managerId",
      "outputs": [
        {
          "internalType": "uint256",
          "name": "",
          "type": "uint256"
        }
      ],
      "stateMutability": "view",
      "type": "function"
    }
  ],
  "transactionHash": "0x9163f1d3f05668d43bf04d65c83162b973784c68f1aab308e16732f71dded405",
  "args": [
    20,
    55555,
    12345
  ],
  "numDeployments": 1,
  "solcInputHash": "840ae9efa03c3cca22907454cb805100",
  "bytecode": "0x608060405234801561001057600080fd5b5060405161018638038061018683398101604081905261002f91610040565b60009190915560015560025561006e565b60008060006060848603121561005557600080fd5b8351925060208401519150604084015190509250925092565b6101098061007d6000396000f3fe6080604052348015600f57600080fd5b506004361060465760003560e01c80633f83ea3b14604b57806359a7b3fe1460655780635cdee0c014606d578063f5895a0a146073575b600080fd5b605360005481565b60405190815260200160405180910390f35b605360025481565b6053607b565b605360015481565b6000600254610820608b91906090565b905090565b808202811582820484141760cd577f4e487b7100000000000000000000000000000000000000000000000000000000600052601160045260246000fd5b9291505056fea26469706673582212201c3384e9142b59fb0b5a347d7c9445cc7ed6f6f7c813eda1ccf949bb120f800e64736f6c63430008170033",
  "devdoc": {
    "kind": "dev",
    "methods": {},
    "version": 1
  },
  "userdoc": {
    "kind": "user",
    "methods": {},
    "version": 1
  },
  "storageLayout": {
    "storage": [
      {
        "astId": 12457,
        "contract": "contracts/Exemplars/InheritanceExercise.sol:SalesPerson",
        "label": "idNumber",
        "offset": 0,
        "slot": "0",
        "type": "t_uint256"
      },
      {
        "astId": 12459,
        "contract": "contracts/Exemplars/InheritanceExercise.sol:SalesPerson",
        "label": "managerId",
        "offset": 0,
        "slot": "1",
        "type": "t_uint256"
      },
      {
        "astId": 12517,
        "contract": "contracts/Exemplars/InheritanceExercise.sol:SalesPerson",
        "label": "hourlyRate",
        "offset": 0,
        "slot": "2",
        "type": "t_uint256"
      }
    ],
    "types": {
      "t_uint256": {
        "encoding": "inplace",
        "label": "uint256",
        "numberOfBytes": "32"
      }
    }
  }
}