{
  "address": "0x258b8a7Fe774dE233e46A4e6590D0144E4f13BdE",
  "abi": [
    {
      "inputs": [
        {
          "internalType": "string",
          "name": "_name",
          "type": "string"
        },
        {
          "internalType": "string",
          "name": "_symbol",
          "type": "string"
        }
      ],
      "stateMutability": "nonpayable",
      "type": "constructor"
    },
    {
      "inputs": [],
      "name": "AllTokensClaimed",
      "type": "error"
    },
    {
      "inputs": [],
      "name": "AlreadyVoted",
      "type": "error"
    },
    {
      "inputs": [],
      "name": "NoTokensHeld",
      "type": "error"
    },
    {
      "inputs": [
        {
          "internalType": "uint256",
          "name": "",
          "type": "uint256"
        }
      ],
      "name": "QuorumTooHigh",
      "type": "error"
    },
    {
      "inputs": [],
      "name": "TokensClaimed",
      "type": "error"
    },
    {
      "inputs": [],
      "name": "VotingClosed",
      "type": "error"
    },
    {
      "anonymous": false,
      "inputs": [
        {
          "indexed": true,
          "internalType": "address",
          "name": "owner",
          "type": "address"
        },
        {
          "indexed": true,
          "internalType": "address",
          "name": "spender",
          "type": "address"
        },
        {
          "indexed": false,
          "internalType": "uint256",
          "name": "value",
          "type": "uint256"
        }
      ],
      "name": "Approval",
      "type": "event"
    },
    {
      "anonymous": false,
      "inputs": [
        {
          "indexed": true,
          "internalType": "address",
          "name": "from",
          "type": "address"
        },
        {
          "indexed": true,
          "internalType": "address",
          "name": "to",
          "type": "address"
        },
        {
          "indexed": false,
          "internalType": "uint256",
          "name": "value",
          "type": "uint256"
        }
      ],
      "name": "Transfer",
      "type": "event"
    },
    {
      "inputs": [
        {
          "internalType": "address",
          "name": "owner",
          "type": "address"
        },
        {
          "internalType": "address",
          "name": "spender",
          "type": "address"
        }
      ],
      "name": "allowance",
      "outputs": [
        {
          "internalType": "uint256",
          "name": "",
          "type": "uint256"
        }
      ],
      "stateMutability": "view",
      "type": "function"
    },
    {
      "inputs": [
        {
          "internalType": "address",
          "name": "spender",
          "type": "address"
        },
        {
          "internalType": "uint256",
          "name": "amount",
          "type": "uint256"
        }
      ],
      "name": "approve",
      "outputs": [
        {
          "internalType": "bool",
          "name": "",
          "type": "bool"
        }
      ],
      "stateMutability": "nonpayable",
      "type": "function"
    },
    {
      "inputs": [
        {
          "internalType": "address",
          "name": "account",
          "type": "address"
        }
      ],
      "name": "balanceOf",
      "outputs": [
        {
          "internalType": "uint256",
          "name": "",
          "type": "uint256"
        }
      ],
      "stateMutability": "view",
      "type": "function"
    },
    {
      "inputs": [],
      "name": "claim",
      "outputs": [],
      "stateMutability": "nonpayable",
      "type": "function"
    },
    {
      "inputs": [
        {
          "internalType": "string",
          "name": "_issueDesc",
          "type": "string"
        },
        {
          "internalType": "uint256",
          "name": "_quorum",
          "type": "uint256"
        }
      ],
      "name": "createIssue",
      "outputs": [
        {
          "internalType": "uint256",
          "name": "",
          "type": "uint256"
        }
      ],
      "stateMutability": "nonpayable",
      "type": "function"
    },
    {
      "inputs": [],
      "name": "decimals",
      "outputs": [
        {
          "internalType": "uint8",
          "name": "",
          "type": "uint8"
        }
      ],
      "stateMutability": "view",
      "type": "function"
    },
    {
      "inputs": [
        {
          "internalType": "address",
          "name": "spender",
          "type": "address"
        },
        {
          "internalType": "uint256",
          "name": "subtractedValue",
          "type": "uint256"
        }
      ],
      "name": "decreaseAllowance",
      "outputs": [
        {
          "internalType": "bool",
          "name": "",
          "type": "bool"
        }
      ],
      "stateMutability": "nonpayable",
      "type": "function"
    },
    {
      "inputs": [
        {
          "internalType": "uint256",
          "name": "_id",
          "type": "uint256"
        }
      ],
      "name": "getIssue",
      "outputs": [
        {
          "components": [
            {
              "internalType": "address[]",
              "name": "voters",
              "type": "address[]"
            },
            {
              "internalType": "string",
              "name": "issueDesc",
              "type": "string"
            },
            {
              "internalType": "uint256",
              "name": "votesFor",
              "type": "uint256"
            },
            {
              "internalType": "uint256",
              "name": "votesAgainst",
              "type": "uint256"
            },
            {
              "internalType": "uint256",
              "name": "votesAbstain",
              "type": "uint256"
            },
            {
              "internalType": "uint256",
              "name": "totalVotes",
              "type": "uint256"
            },
            {
              "internalType": "uint256",
              "name": "quorum",
              "type": "uint256"
            },
            {
              "internalType": "bool",
              "name": "passed",
              "type": "bool"
            },
            {
              "internalType": "bool",
              "name": "closed",
              "type": "bool"
            }
          ],
          "internalType": "struct WeightedVoting.ReturnableIssue",
          "name": "",
          "type": "tuple"
        }
      ],
      "stateMutability": "view",
      "type": "function"
    },
    {
      "inputs": [
        {
          "internalType": "address",
          "name": "spender",
          "type": "address"
        },
        {
          "internalType": "uint256",
          "name": "addedValue",
          "type": "uint256"
        }
      ],
      "name": "increaseAllowance",
      "outputs": [
        {
          "internalType": "bool",
          "name": "",
          "type": "bool"
        }
      ],
      "stateMutability": "nonpayable",
      "type": "function"
    },
    {
      "inputs": [],
      "name": "maxSupply",
      "outputs": [
        {
          "internalType": "uint256",
          "name": "",
          "type": "uint256"
        }
      ],
      "stateMutability": "view",
      "type": "function"
    },
    {
      "inputs": [],
      "name": "name",
      "outputs": [
        {
          "internalType": "string",
          "name": "",
          "type": "string"
        }
      ],
      "stateMutability": "view",
      "type": "function"
    },
    {
      "inputs": [],
      "name": "symbol",
      "outputs": [
        {
          "internalType": "string",
          "name": "",
          "type": "string"
        }
      ],
      "stateMutability": "view",
      "type": "function"
    },
    {
      "inputs": [],
      "name": "totalSupply",
      "outputs": [
        {
          "internalType": "uint256",
          "name": "",
          "type": "uint256"
        }
      ],
      "stateMutability": "view",
      "type": "function"
    },
    {
      "inputs": [
        {
          "internalType": "address",
          "name": "to",
          "type": "address"
        },
        {
          "internalType": "uint256",
          "name": "amount",
          "type": "uint256"
        }
      ],
      "name": "transfer",
      "outputs": [
        {
          "internalType": "bool",
          "name": "",
          "type": "bool"
        }
      ],
      "stateMutability": "nonpayable",
      "type": "function"
    },
    {
      "inputs": [
        {
          "internalType": "address",
          "name": "from",
          "type": "address"
        },
        {
          "internalType": "address",
          "name": "to",
          "type": "address"
        },
        {
          "internalType": "uint256",
          "name": "amount",
          "type": "uint256"
        }
      ],
      "name": "transferFrom",
      "outputs": [
        {
          "internalType": "bool",
          "name": "",
          "type": "bool"
        }
      ],
      "stateMutability": "nonpayable",
      "type": "function"
    },
    {
      "inputs": [
        {
          "internalType": "uint256",
          "name": "_issueId",
          "type": "uint256"
        },
        {
          "internalType": "enum WeightedVoting.Vote",
          "name": "_vote",
          "type": "uint8"
        }
      ],
      "name": "vote",
      "outputs": [],
      "stateMutability": "nonpayable",
      "type": "function"
    }
  ],
  "transactionHash": "0x7e9eac71cfc67c95c5cc9b7dfb4c5a8aacd21f88886f03353f294e863f841f00",
  "args": [
    "MySafeToken",
    "MST"
  ],
  "numDeployments": 1,
  "solcInputHash": "6a581879d712a9c25e4fb247f22274cf",
  "bytecode": "0x6080604052620f42406006553480156200001857600080fd5b5060405162001756380380620017568339810160408190526200003b916200013a565b818160036200004b838262000235565b5060046200005a828262000235565b50506008805460010181556000525062000301915050565b634e487b7160e01b600052604160045260246000fd5b600082601f8301126200009a57600080fd5b81516001600160401b0380821115620000b757620000b762000072565b604051601f8301601f19908116603f01168101908282118183101715620000e257620000e262000072565b81604052838152602092508660208588010111156200010057600080fd5b600091505b8382101562000124578582018301518183018401529082019062000105565b6000602085830101528094505050505092915050565b600080604083850312156200014e57600080fd5b82516001600160401b03808211156200016657600080fd5b620001748683870162000088565b935060208501519150808211156200018b57600080fd5b506200019a8582860162000088565b9150509250929050565b600181811c90821680620001b957607f821691505b602082108103620001da57634e487b7160e01b600052602260045260246000fd5b50919050565b601f82111562000230576000816000526020600020601f850160051c810160208610156200020b5750805b601f850160051c820191505b818110156200022c5782815560010162000217565b5050505b505050565b81516001600160401b0381111562000251576200025162000072565b6200026981620002628454620001a4565b84620001e0565b602080601f831160018114620002a15760008415620002885750858301515b600019600386901b1c1916600185901b1785556200022c565b600085815260208120601f198616915b82811015620002d257888601518255948401946001909101908401620002b1565b5085821015620002f15787850151600019600388901b60f8161c191681555b5050505050600190811b01905550565b61144580620003116000396000f3fe608060405234801561001057600080fd5b50600436106101005760003560e01c80638615d85511610097578063a457c2d711610066578063a457c2d71461020e578063a9059cbb14610221578063d5abeb0114610234578063dd62ed3e1461023d57600080fd5b80638615d855146101c0578063943e8216146101d357806395d89b41146101e6578063976b3113146101ee57600080fd5b8063313ce567116100d3578063313ce5671461016b578063395093511461017a5780634e71d92d1461018d57806370a082311461019757600080fd5b806306fdde0314610105578063095ea7b31461012357806318160ddd1461014657806323b872dd14610158575b600080fd5b61010d610276565b60405161011a9190610f85565b60405180910390f35b610136610131366004610fb4565b610308565b604051901515815260200161011a565b6002545b60405190815260200161011a565b610136610166366004610fde565b610322565b6040516012815260200161011a565b610136610188366004610fb4565b610346565b610195610385565b005b61014a6101a536600461101a565b6001600160a01b031660009081526020819052604090205490565b61014a6101ce36600461104b565b610437565b6101956101e1366004611100565b610546565b61010d610771565b6102016101fc366004611134565b610780565b60405161011a9190611192565b61013661021c366004610fb4565b6108ff565b61013661022f366004610fb4565b6109a9565b61014a60065481565b61014a61024b36600461122a565b6001600160a01b03918216600090815260016020908152604080832093909416825291909152205490565b6060600380546102859061125d565b80601f01602080910402602001604051908101604052809291908181526020018280546102b19061125d565b80156102fe5780601f106102d3576101008083540402835291602001916102fe565b820191906000526020600020905b8154815290600101906020018083116102e157829003601f168201915b5050505050905090565b6000336103168185856109b7565b60019150505b92915050565b600033610330858285610b0f565b61033b858585610ba1565b506001949350505050565b3360008181526001602090815260408083206001600160a01b038716845290915281205490919061031690829086906103809087906112ad565b6109b7565b3360009081526005602052604090205460ff1615156001036103d3576040517f0b1327a600000000000000000000000000000000000000000000000000000000815260040160405180910390fd5b60065460025410610410576040517fcbe2483100000000000000000000000000000000000000000000000000000000815260040160405180910390fd5b61041b336064610d8e565b336000908152600560205260409020805460ff19166001179055565b33600090815260208190526040812054600003610480576040517f8439960d00000000000000000000000000000000000000000000000000000000815260040160405180910390fd5b6002548211156104c4576040517f589a4952000000000000000000000000000000000000000000000000000000008152600481018390526024015b60405180910390fd5b600880546001810182556000919091526009027ff3f7a9fe364faab93b216da50a3214154f22a0a2b415b23a84c8169e8b636ee38101907ff3f7a9fe364faab93b216da50a3214154f22a0a2b415b23a84c8169e8b636ee5016105278582611310565b506007810183905560085461053e906001906113d0565b949350505050565b60006008838154811061055b5761055b6113e3565b6000918252602090912060099091020190506105778133610e4d565b156105ae576040517f7c9a1cf900000000000000000000000000000000000000000000000000000000815260040160405180910390fd5b6008810154610100900460ff16156105f2576040517f66b6cb4a00000000000000000000000000000000000000000000000000000000815260040160405180910390fd5b6105fc8133610e72565b506001826002811115610611576106116113f9565b03610644573360009081526020819052604090205481600301600082825461063991906112ad565b909155506107049050565b6000826002811115610658576106586113f9565b03610680573360009081526020819052604090205481600401600082825461063991906112ad565b6002826002811115610694576106946113f9565b036106bc573360009081526020819052604090205481600501600082825461063991906112ad565b60405162461bcd60e51b815260206004820152600860248201527f4572726f722e2e2e00000000000000000000000000000000000000000000000060448201526064016104bb565b3360009081526020819052604090205481600601600082825461072791906112ad565b9091555050600781015460068201541061076c5760088101805461ff00191661010017905560048101546003820154111561076c5760088101805460ff191660011790555b505050565b6060600480546102859061125d565b6107d3604051806101200160405280606081526020016060815260200160008152602001600081526020016000815260200160008152602001600081526020016000151581526020016000151581525090565b6000600883815481106107e8576107e86113e3565b9060005260206000209060090201905060405180610120016040528061081083600001610e87565b81526020018260020180546108249061125d565b80601f01602080910402602001604051908101604052809291908181526020018280546108509061125d565b801561089d5780601f106108725761010080835404028352916020019161089d565b820191906000526020600020905b81548152906001019060200180831161088057829003601f168201915b505050918352505060038301546020820152600483015460408201526005830154606082015260068301546080820152600783015460a082015260089092015460ff61010082048116151560c085015216151560e09092019190915292915050565b3360008181526001602090815260408083206001600160a01b03871684529091528120549091908381101561099c5760405162461bcd60e51b815260206004820152602560248201527f45524332303a2064656372656173656420616c6c6f77616e63652062656c6f7760448201527f207a65726f00000000000000000000000000000000000000000000000000000060648201526084016104bb565b61033b82868684036109b7565b600033610316818585610ba1565b6001600160a01b038316610a325760405162461bcd60e51b8152602060048201526024808201527f45524332303a20617070726f76652066726f6d20746865207a65726f2061646460448201527f726573730000000000000000000000000000000000000000000000000000000060648201526084016104bb565b6001600160a01b038216610aae5760405162461bcd60e51b815260206004820152602260248201527f45524332303a20617070726f766520746f20746865207a65726f20616464726560448201527f737300000000000000000000000000000000000000000000000000000000000060648201526084016104bb565b6001600160a01b0383811660008181526001602090815260408083209487168084529482529182902085905590518481527f8c5be1e5ebec7d5bd14f71427d1e84f3dd0314c0f7b2291e5b200ac8c7c3b925910160405180910390a3505050565b6001600160a01b038381166000908152600160209081526040808320938616835292905220546000198114610b9b5781811015610b8e5760405162461bcd60e51b815260206004820152601d60248201527f45524332303a20696e73756666696369656e7420616c6c6f77616e636500000060448201526064016104bb565b610b9b84848484036109b7565b50505050565b6001600160a01b038316610c1d5760405162461bcd60e51b815260206004820152602560248201527f45524332303a207472616e736665722066726f6d20746865207a65726f20616460448201527f647265737300000000000000000000000000000000000000000000000000000060648201526084016104bb565b6001600160a01b038216610c995760405162461bcd60e51b815260206004820152602360248201527f45524332303a207472616e7366657220746f20746865207a65726f206164647260448201527f657373000000000000000000000000000000000000000000000000000000000060648201526084016104bb565b6001600160a01b03831660009081526020819052604090205481811015610d285760405162461bcd60e51b815260206004820152602660248201527f45524332303a207472616e7366657220616d6f756e742065786365656473206260448201527f616c616e6365000000000000000000000000000000000000000000000000000060648201526084016104bb565b6001600160a01b03848116600081815260208181526040808320878703905593871680835291849020805487019055925185815290927fddf252ad1be2c89b69c2b068fc378daa952ba7f163c4a11628f55a4df523b3ef910160405180910390a3610b9b565b6001600160a01b038216610de45760405162461bcd60e51b815260206004820152601f60248201527f45524332303a206d696e7420746f20746865207a65726f20616464726573730060448201526064016104bb565b8060026000828254610df691906112ad565b90915550506001600160a01b038216600081815260208181526040808320805486019055518481527fddf252ad1be2c89b69c2b068fc378daa952ba7f163c4a11628f55a4df523b3ef910160405180910390a35050565b6001600160a01b038116600090815260018301602052604081205415155b9392505050565b6000610e6b836001600160a01b038416610e94565b60606000610e6b83610ee3565b6000818152600183016020526040812054610edb5750815460018181018455600084815260208082209093018490558454848252828601909352604090209190915561031c565b50600061031c565b606081600001805480602002602001604051908101604052809291908181526020018280548015610f3357602002820191906000526020600020905b815481526020019060010190808311610f1f575b50505050509050919050565b6000815180845260005b81811015610f6557602081850181015186830182015201610f49565b506000602082860101526020601f19601f83011685010191505092915050565b602081526000610e6b6020830184610f3f565b80356001600160a01b0381168114610faf57600080fd5b919050565b60008060408385031215610fc757600080fd5b610fd083610f98565b946020939093013593505050565b600080600060608486031215610ff357600080fd5b610ffc84610f98565b925061100a60208501610f98565b9150604084013590509250925092565b60006020828403121561102c57600080fd5b610e6b82610f98565b634e487b7160e01b600052604160045260246000fd5b6000806040838503121561105e57600080fd5b823567ffffffffffffffff8082111561107657600080fd5b818501915085601f83011261108a57600080fd5b81358181111561109c5761109c611035565b604051601f8201601f19908116603f011681019083821181831017156110c4576110c4611035565b816040528281528860208487010111156110dd57600080fd5b826020860160208301376000602093820184015298969091013596505050505050565b6000806040838503121561111357600080fd5b8235915060208301356003811061112957600080fd5b809150509250929050565b60006020828403121561114657600080fd5b5035919050565b60008151808452602080850194506020840160005b838110156111875781516001600160a01b031687529582019590820190600101611162565b509495945050505050565b60208152600082516101208060208501526111b161014085018361114d565b91506020850151601f198584030160408601526111ce8382610f3f565b9250506040850151606085015260608501516080850152608085015160a085015260a085015160c085015260c085015160e085015260e08501516101006112188187018315159052565b90950151151593019290925250919050565b6000806040838503121561123d57600080fd5b61124683610f98565b915061125460208401610f98565b90509250929050565b600181811c9082168061127157607f821691505b60208210810361129157634e487b7160e01b600052602260045260246000fd5b50919050565b634e487b7160e01b600052601160045260246000fd5b8082018082111561031c5761031c611297565b601f82111561076c576000816000526020600020601f850160051c810160208610156112e95750805b601f850160051c820191505b81811015611308578281556001016112f5565b505050505050565b815167ffffffffffffffff81111561132a5761132a611035565b61133e81611338845461125d565b846112c0565b602080601f831160018114611373576000841561135b5750858301515b600019600386901b1c1916600185901b178555611308565b600085815260208120601f198616915b828110156113a257888601518255948401946001909101908401611383565b50858210156113c05787850151600019600388901b60f8161c191681555b5050505050600190811b01905550565b8181038181111561031c5761031c611297565b634e487b7160e01b600052603260045260246000fd5b634e487b7160e01b600052602160045260246000fdfea2646970667358221220895441d568a4abfa486c913b5b118af2a414570192ada836ffab137ee884632664736f6c63430008170033",
  "devdoc": {
    "events": {
      "Approval(address,address,uint256)": {
        "details": "Emitted when the allowance of a `spender` for an `owner` is set by a call to {approve}. `value` is the new allowance."
      },
      "Transfer(address,address,uint256)": {
        "details": "Emitted when `value` tokens are moved from one account (`from`) to another (`to`). Note that `value` may be zero."
      }
    },
    "kind": "dev",
    "methods": {
      "allowance(address,address)": {
        "details": "See {IERC20-allowance}."
      },
      "approve(address,uint256)": {
        "details": "See {IERC20-approve}. NOTE: If `amount` is the maximum `uint256`, the allowance is not updated on `transferFrom`. This is semantically equivalent to an infinite approval. Requirements: - `spender` cannot be the zero address."
      },
      "balanceOf(address)": {
        "details": "See {IERC20-balanceOf}."
      },
      "decimals()": {
        "details": "Returns the number of decimals used to get its user representation. For example, if `decimals` equals `2`, a balance of `505` tokens should be displayed to a user as `5.05` (`505 / 10 ** 2`). Tokens usually opt for a value of 18, imitating the relationship between Ether and Wei. This is the default value returned by this function, unless it's overridden. NOTE: This information is only used for _display_ purposes: it in no way affects any of the arithmetic of the contract, including {IERC20-balanceOf} and {IERC20-transfer}."
      },
      "decreaseAllowance(address,uint256)": {
        "details": "Atomically decreases the allowance granted to `spender` by the caller. This is an alternative to {approve} that can be used as a mitigation for problems described in {IERC20-approve}. Emits an {Approval} event indicating the updated allowance. Requirements: - `spender` cannot be the zero address. - `spender` must have allowance for the caller of at least `subtractedValue`."
      },
      "increaseAllowance(address,uint256)": {
        "details": "Atomically increases the allowance granted to `spender` by the caller. This is an alternative to {approve} that can be used as a mitigation for problems described in {IERC20-approve}. Emits an {Approval} event indicating the updated allowance. Requirements: - `spender` cannot be the zero address."
      },
      "name()": {
        "details": "Returns the name of the token."
      },
      "symbol()": {
        "details": "Returns the symbol of the token, usually a shorter version of the name."
      },
      "totalSupply()": {
        "details": "See {IERC20-totalSupply}."
      },
      "transfer(address,uint256)": {
        "details": "See {IERC20-transfer}. Requirements: - `to` cannot be the zero address. - the caller must have a balance of at least `amount`."
      },
      "transferFrom(address,address,uint256)": {
        "details": "See {IERC20-transferFrom}. Emits an {Approval} event indicating the updated allowance. This is not required by the EIP. See the note at the beginning of {ERC20}. NOTE: Does not update the allowance if the current allowance is the maximum `uint256`. Requirements: - `from` and `to` cannot be the zero address. - `from` must have a balance of at least `amount`. - the caller must have allowance for ``from``'s tokens of at least `amount`."
      }
    },
    "version": 1
  },
  "userdoc": {
    "kind": "user",
    "methods": {},
    "version": 1
  },
  "storageLayout": {
    "storage": [
      {
        "astId": 193,
        "contract": "contracts/Exemplars/WeightedVoting.sol:WeightedVoting",
        "label": "_balances",
        "offset": 0,
        "slot": "0",
        "type": "t_mapping(t_address,t_uint256)"
      },
      {
        "astId": 199,
        "contract": "contracts/Exemplars/WeightedVoting.sol:WeightedVoting",
        "label": "_allowances",
        "offset": 0,
        "slot": "1",
        "type": "t_mapping(t_address,t_mapping(t_address,t_uint256))"
      },
      {
        "astId": 201,
        "contract": "contracts/Exemplars/WeightedVoting.sol:WeightedVoting",
        "label": "_totalSupply",
        "offset": 0,
        "slot": "2",
        "type": "t_uint256"
      },
      {
        "astId": 203,
        "contract": "contracts/Exemplars/WeightedVoting.sol:WeightedVoting",
        "label": "_name",
        "offset": 0,
        "slot": "3",
        "type": "t_string_storage"
      },
      {
        "astId": 205,
        "contract": "contracts/Exemplars/WeightedVoting.sol:WeightedVoting",
        "label": "_symbol",
        "offset": 0,
        "slot": "4",
        "type": "t_string_storage"
      },
      {
        "astId": 11977,
        "contract": "contracts/Exemplars/WeightedVoting.sol:WeightedVoting",
        "label": "claimed",
        "offset": 0,
        "slot": "5",
        "type": "t_mapping(t_address,t_bool)"
      },
      {
        "astId": 11980,
        "contract": "contracts/Exemplars/WeightedVoting.sol:WeightedVoting",
        "label": "maxSupply",
        "offset": 0,
        "slot": "6",
        "type": "t_uint256"
      },
      {
        "astId": 11982,
        "contract": "contracts/Exemplars/WeightedVoting.sol:WeightedVoting",
        "label": "totalClaimed",
        "offset": 0,
        "slot": "7",
        "type": "t_uint256"
      },
      {
        "astId": 12047,
        "contract": "contracts/Exemplars/WeightedVoting.sol:WeightedVoting",
        "label": "issues",
        "offset": 0,
        "slot": "8",
        "type": "t_array(t_struct(Issue)12023_storage)dyn_storage"
      }
    ],
    "types": {
      "t_address": {
        "encoding": "inplace",
        "label": "address",
        "numberOfBytes": "20"
      },
      "t_array(t_bytes32)dyn_storage": {
        "base": "t_bytes32",
        "encoding": "dynamic_array",
        "label": "bytes32[]",
        "numberOfBytes": "32"
      },
      "t_array(t_struct(Issue)12023_storage)dyn_storage": {
        "base": "t_struct(Issue)12023_storage",
        "encoding": "dynamic_array",
        "label": "struct WeightedVoting.Issue[]",
        "numberOfBytes": "32"
      },
      "t_bool": {
        "encoding": "inplace",
        "label": "bool",
        "numberOfBytes": "1"
      },
      "t_bytes32": {
        "encoding": "inplace",
        "label": "bytes32",
        "numberOfBytes": "32"
      },
      "t_mapping(t_address,t_bool)": {
        "encoding": "mapping",
        "key": "t_address",
        "label": "mapping(address => bool)",
        "numberOfBytes": "32",
        "value": "t_bool"
      },
      "t_mapping(t_address,t_mapping(t_address,t_uint256))": {
        "encoding": "mapping",
        "key": "t_address",
        "label": "mapping(address => mapping(address => uint256))",
        "numberOfBytes": "32",
        "value": "t_mapping(t_address,t_uint256)"
      },
      "t_mapping(t_address,t_uint256)": {
        "encoding": "mapping",
        "key": "t_address",
        "label": "mapping(address => uint256)",
        "numberOfBytes": "32",
        "value": "t_uint256"
      },
      "t_mapping(t_bytes32,t_uint256)": {
        "encoding": "mapping",
        "key": "t_bytes32",
        "label": "mapping(bytes32 => uint256)",
        "numberOfBytes": "32",
        "value": "t_uint256"
      },
      "t_string_storage": {
        "encoding": "bytes",
        "label": "string",
        "numberOfBytes": "32"
      },
      "t_struct(AddressSet)3951_storage": {
        "encoding": "inplace",
        "label": "struct EnumerableSet.AddressSet",
        "members": [
          {
            "astId": 3950,
            "contract": "contracts/Exemplars/WeightedVoting.sol:WeightedVoting",
            "label": "_inner",
            "offset": 0,
            "slot": "0",
            "type": "t_struct(Set)3636_storage"
          }
        ],
        "numberOfBytes": "64"
      },
      "t_struct(Issue)12023_storage": {
        "encoding": "inplace",
        "label": "struct WeightedVoting.Issue",
        "members": [
          {
            "astId": 12006,
            "contract": "contracts/Exemplars/WeightedVoting.sol:WeightedVoting",
            "label": "voters",
            "offset": 0,
            "slot": "0",
            "type": "t_struct(AddressSet)3951_storage"
          },
          {
            "astId": 12008,
            "contract": "contracts/Exemplars/WeightedVoting.sol:WeightedVoting",
            "label": "issueDesc",
            "offset": 0,
            "slot": "2",
            "type": "t_string_storage"
          },
          {
            "astId": 12010,
            "contract": "contracts/Exemplars/WeightedVoting.sol:WeightedVoting",
            "label": "votesFor",
            "offset": 0,
            "slot": "3",
            "type": "t_uint256"
          },
          {
            "astId": 12012,
            "contract": "contracts/Exemplars/WeightedVoting.sol:WeightedVoting",
            "label": "votesAgainst",
            "offset": 0,
            "slot": "4",
            "type": "t_uint256"
          },
          {
            "astId": 12014,
            "contract": "contracts/Exemplars/WeightedVoting.sol:WeightedVoting",
            "label": "votesAbstain",
            "offset": 0,
            "slot": "5",
            "type": "t_uint256"
          },
          {
            "astId": 12016,
            "contract": "contracts/Exemplars/WeightedVoting.sol:WeightedVoting",
            "label": "totalVotes",
            "offset": 0,
            "slot": "6",
            "type": "t_uint256"
          },
          {
            "astId": 12018,
            "contract": "contracts/Exemplars/WeightedVoting.sol:WeightedVoting",
            "label": "quorum",
            "offset": 0,
            "slot": "7",
            "type": "t_uint256"
          },
          {
            "astId": 12020,
            "contract": "contracts/Exemplars/WeightedVoting.sol:WeightedVoting",
            "label": "passed",
            "offset": 0,
            "slot": "8",
            "type": "t_bool"
          },
          {
            "astId": 12022,
            "contract": "contracts/Exemplars/WeightedVoting.sol:WeightedVoting",
            "label": "closed",
            "offset": 1,
            "slot": "8",
            "type": "t_bool"
          }
        ],
        "numberOfBytes": "288"
      },
      "t_struct(Set)3636_storage": {
        "encoding": "inplace",
        "label": "struct EnumerableSet.Set",
        "members": [
          {
            "astId": 3631,
            "contract": "contracts/Exemplars/WeightedVoting.sol:WeightedVoting",
            "label": "_values",
            "offset": 0,
            "slot": "0",
            "type": "t_array(t_bytes32)dyn_storage"
          },
          {
            "astId": 3635,
            "contract": "contracts/Exemplars/WeightedVoting.sol:WeightedVoting",
            "label": "_indexes",
            "offset": 0,
            "slot": "1",
            "type": "t_mapping(t_bytes32,t_uint256)"
          }
        ],
        "numberOfBytes": "64"
      },
      "t_uint256": {
        "encoding": "inplace",
        "label": "uint256",
        "numberOfBytes": "32"
      }
    }
  }
}